:0200000460009A
:100000004643464200000156000000000101020084
:1000100000000000000000000000000000000000E0
:1000200000000000000000000000000000000000D0
:1000300000000000000000000000000000000000C0
:1000400000000000010403000000000000000000A8
:100050000000800000000000000000000000000020
:100060000000000000000000000000000000000090
:100070000000000000000000000000000000000080
:10008000EB04180A063204260000000000000000FD
:10009000050404240000000000000000000000002F
:1000A0000000000000000000000000000000000050
:1000B0000604000000000000000000000000000036
:1000C0000000000000000000000000000000000030
:1000D00020041808000000000000000000000000DC
:1000E0000000000000000000000000000000000010
:1000F0000000000000000000000000000000000000
:10010000D8041808000000000000000000000000F3
:100110000204180804200000000000000000000095
:1001200000000000000000000000000000000000CF
:10013000600400000000000000000000000000005B
:1001400000000000000000000000000000000000AF
:10015000000000000000000000000000000000009F
:10016000000000000000000000000000000000008F
:10017000000000000000000000000000000000007F
:10018000000000000000000000000000000000006F
:10019000000000000000000000000000000000005F
:1001A000000000000000000000000000000000004F
:1001B000000000000000000000000000000000003F
:1001C000000100000010000001000000000000001D
:1001D000000001000000000000000000000000001E
:1001E000000000000000000000000000000000000F
:1001F00000000000000000000000000000000000FF
:10020000FFFFFFFFFFFFFFFFFFFFFFFFFFFFFFFFFE
:10021000FFFFFFFFFFFFFFFFFFFFFFFFFFFFFFFFEE
:10100000D10020432D10006000000000000000000F
:1010100020100060001000602C7A016000000000C9
:10102000000000602886010000000000764B4FF4AD
:101030002A01764A76482DE9F0475A641864754AC1
:1010400099639546744A03F53033744908208A42FF
:10105000C3F854010FD0724B9A420CD2D4430846C5
:10106000234423F0030304330B4450F8041B984239
:1010700042F8041BF9D16B4A6B498A420FD06B4B83
:101080009A420CD2D4430846234423F0030304338A
:101090000B4450F8041B984242F8041BF9D1644AEF
:1010A000644B9A420BD2D04311460024034423F0F0
:1010B00003030433134441F8044B8B42FBD15E4AD3
:1010C0004FF470015D4B116003F530715C4A43F8D9
:1010D000042F9942FBD15B4B80215B4A03F8011B33
:1010E0009342FBD1594C4FF08037594E4FF0FF32AD
:1010F000DFF89CA10025574BDFF89891DFF8988125
:10110000C3F800A0C4F80471C4F80091C4F8F470E6
:10111000C4F8F080F3693C4923F07F0343F04003B7
:10112000F361736A23F07F0343F0400373628A66BE
:10113000CA660A674A6700F027F9474A6320474BA7
:101140004749106003221D60CAF8381043F8082C84
:101150004449454A4548C3F8082D0B68444A43F0C2
:101160008073CAF83C0043480B601368424943F05F
:101170000103136003680B6000F060FBC4F80471A6
:101180003E48C4F80091C4F8F470C4F8F08000F050
:10119000FBFCF16E3A4A41F440513A4BF16615605E
:1011A000C2F80851C2F81851C2F82851C2F8385193
:1011B0009A6BD20708D442F61562334959651A650D
:1011C0009A6B42F001029A632E4A304C936843F0C6
:1011D0000113936000F054F900F0D2FC2368132B44
:1011E000FCD900F05BF800F0E9FB00F0B5FC00F082
:1011F00057FB00F0B5FC2368B3F5967FFBD300F0F6
:10120000CFFC00F0B9FCFEE700C00A40BFAAAAAAC2
:10121000070020000080062000000000C01B0060C6
:1012200058480100000000201C64016010160020D6
:1012300010160020008B002088ED00E0FC870020C5
:10124000F1E5000000E400E0A0E400E000800D40D3
:1012500000C00F4008ED00E014E000E018E000E0FE
:1012600071F40000FCED00E00000202075F40000A7
:10127000001000E0041000E03C62002080D1F00883
:101280000040084000400D400000C056446200206D
:10129000008800201B1018200C0D1113304B40F655
:1012A000617270B5C3F8202140F2044500F070FC73
:1012B0002C492D48D1F880202C4C42F003022C4BB5
:1012C000C1F88020C0F86051226813401BB9D0F8E3
:1012D000A8319A071AD0244B4FF00041234A51639A
:1012E0001A46D3F8401141F00201C3F84011D2F878
:1012F00040319B07FBD44FF400301E491B4B4FF08D
:101300000042086019209A6300F02EFC1A4D00225A
:10131000164B4FF08041144C0A26996328461A60F8
:101320001146C4F8A8614FF4407200F021FC4FF45C
:1013300081064FF4800040F24313104A10492E609A
:101340002864C4F85851C2F80412C4F848310D4A50
:101350004FF4003101231160C4F8403170BD00BF6B
:1013600000800D4000C00F4000002E4000900D4056
:10137000001C1E008CE200E000800020008800209D
:10138000E5DC00000CE100E0F0B5284A0020284B25
:101390004FF0100C274C1127DFF8D8E01226206000
:1013A0000125C2F800C0C3F800E01760DFF8C8E00C
:1013B000214FC3F800E016601F60204E204F1660DA
:1013C00020491F60204E41F01501204F16601F601C
:1013D00007F540371E4E116002371E60DFF89CE0B3
:1013E0001C4E1D49C2F800E01F6016601B4F1960BB
:1013F0001B4E1C4917601E601B4F11601B4E1C4981
:101400001F60166019602560BFF34F8FBFF36F8FA9
:10141000C3F8B001BFF34F8FBFF36F8F52F8883C12
:1014200043F4403342F8883CF0BD00BF9CED00E03F
:10143000A0ED00E094ED00E0090010001300200092
:1014400021000207008B0020140000202500081353
:10145000090000101700004033001013180000604E
:101460002F000B071900007037000B171A000070CF
:101470002F000B133F00001025000803160020204A
:10148000F0B58D4B18228D4E01208D4948F20C7E0F
:101490008C4D4FF0FF378C4C83B0C3F85C12C3F80F
:1014A00060520025C3F86412C3F868424FF4005438
:1014B000C3F86C628549C3F87062C3F87462C3F8FC
:1014C0007862834EDA661A675A679A67DA67C3F8F2
:1014D0008020C3F88420C3F8882040F20562C1F858
:1014E0002C03C1F83003C1F83403C1F83803C1F844
:1014F0003C03C1F850032946B36976481840764B3F
:1015000003437648B361D6F8843043F00C03C6F841
:1015100084300226036833430360036803EA0E0E37
:101520006F4B4EEA0303DFF8F0E103606D4B476059
:10153000DEF808703B406C4F43F000538360C36893
:1015400023F07803C360036A1F40684B3B43664F38
:101550000362036A1F40654B3B43654F43628762EA
:10156000C762DEF8B830634F23F03F0343F0010356
:10157000C0F8B830DEF8BC30DFF884E123F03F0378
:1015800043F00103C0F8BC30056104660767C0F88A
:10159000802044664767C0F884200468564B24F0D6
:1015A0000204564A0460C0F818E0C66143F8041B00
:1015B0009342FBD1494B1A68194642F001021A6066
:1015C0000B68464A13F00103FAD14D4E022540F252
:1015D000F56440F2664040F299414A4F966142F20A
:1015E0000146D56140F23545C2F8004242F201247D
:1015F000C2F810020120C2F820121146C2F830725F
:1016000007F15A47C2F8346207F51377C2F840521F
:101610003D4E3E4DC2F85072C2F85462C2F860525C
:10162000C2F86442C2F8A030C2F8A430C2F8B000D8
:101630004B692A4ADD07FBD5012300244FF4803093
:1016400011465361C2F8A040C2F8A400C2F8B030FD
:101650004B69224ADC07FBD5012300244FF40030FC
:1016600011465361C2F8A040C2F8A400C2F8B030DD
:101670004B691A4AD807FBD5012300242448114698
:101680005361C2F8A040C2F8A400C2F8B0304B6960
:10169000124ADB07FBD5D2F8003145F60D51212067
:1016A0009BB250618B4239D01A4B00221A605A60AB
:1016B0009A60DA6003B0F0BD00801F40F97001004D
:1016C000F9B00100F9100100F900010000841F4089
:1016D00000C00F40FFFCFF1F000300A000402A4095
:1016E0001200FFFFFF37F70000FFF07C4000008092
:1016F000FF000F836300020000422A4000432A409B
:10170000F05AF05A9F041830063201263806180A9B
:10171000040003000084002000802A4000244FF4CD
:10172000802001231146C2F8A040C2F8A400C2F8EC
:10173000B0304B693B4ADF07FBD501234FF400046F
:10174000002011465361C2F8A040C2F8A400C2F8BC
:10175000B0304B69334ADE07FBD501234FF4000458
:101760004FF4803011465361C2F8A040C2F8A40083
:10177000C2F8B0304B692B4ADD07FBD501234FF48B
:1017800000044FF4003011465361C2F8A040C2F883
:10179000A400C2F8B0304B69224ADC07FBD5012314
:1017A0004FF40004204811465361C2F8A040C2F82B
:1017B000A400C2F8B0304B691A4AD807FBD5D2F85A
:1017C000003145F60D5121209BB250618B4210D063
:1017D000164B08224FF400041A7015490020154AD0
:1017E00001230090521A1448224400F0D5F903B0A6
:1017F000F0BD4FF400044FF4802101231046C2F8DD
:10180000A040C2F8A410C2F8B03043690549DB0714
:10181000FBD50120054B10224FF0807448611A70EF
:10182000DBE700BF00402A400400030048620020BC
:10183000000000700000007000840020F0B4174A1F
:1018400040274FF480314FF480564FF400554FF449
:10185000404443F24200136913F0020F06D0946132
:1018600051619061136913F0020FF8D113F4005F16
:1018700001D15561EFE713F4805F01D15661EAE7CA
:10188000002BE8DA13F4803F01D09161E3E75B06B7
:1018900001D45761DFE7F0BC704700BF00800D4006
:1018A0003B4AF3EE096A3B4900201368F0B523F088
:1018B00001030324DFF800E11360C2F89040D1F87F
:1018C000E030354FDDB2C3F30B24344EC4EB135379
:1018D00007EE905AA5F15501CEF80050B8EEE77A20
:1018E00003EB830507EE904A03FB01F13B6003EB3A
:1018F0008313B8EEE75A07EE901A491B77EE666A33
:10190000B8EE677A264D07EE901A0B44C5ED006AD3
:10191000F8EE677A3460C7EE265A224E15682249DF
:10192000224C87EEA66A07EE903A214BC6F840316A
:10193000F8EE677A87EEA67A75EE855A76EE056A36
:10194000FCEEE55AFCEEE66A15EE903A45EA0353E2
:1019500016EE905A77EE057A136001EA0541D2F847
:101960001031FCEEE77A0B43C2F8103117EE903AD3
:10197000D2F81011C3F30B030B43C2F810311368F4
:1019800043F00203136020700A4B01221A60F0BD7D
:1019900080810D4000441F405462002058620020A6
:1019A00050620020008800200000FF0F40E400E0AB
:1019B000C9EB000008E100E04C620020114B124925
:1019C000D86E0A4640F4403030B4D86640F23765ED
:1019D000D86EA02440F44070D8664D648C64936C3B
:1019E0001B06FCD4094B40F23760A0211A4658640C
:1019F0009964936C13F08003FBD1054A137030BCDB
:101A0000704700BF00C00F4000400C4000800C40F9
:101A1000B963002008034D00540050002E03540009
:101A2000650065006E007300790020004D005400D1
:101A3000500020004400690073006B002F00530029
:101A400065007200690061006C000000180354001A
:101A5000650065006E007300790064007500690020
:101A60006E006F000403090409026900030100C04D
:101A700032080B0102020201000904010001020206
:101A800001000524001001052401010104240206BF
:101A90000524060102070582031000100904020054
:101AA000020A000000070503024000000705830248
:101AB0004000000904030003060101000705840239
:101AC00040000007050402400000070585031000E0
:101AD0000A00000009026900030100C032080B017E
:101AE00002020201000904010001020201000524B2
:101AF0000010010524010101042402060524060149
:101B0000020705820310000509040200020A000012
:101B10000007050302000200070583020002000916
:101B20000403000306010100070584020002000708
:101B300005040200020007058503100007000000ED
:101B40000A060002EF020140010001FFF8B500BFE4
:101B5000F8BC08BC9E4670475FF800F0C5EC00007A
:101B60005FF800F00DE600005FF800F0C1E400004F
:101B70005FF800F07D0D01005FF800F0C9F600008D
:101B80005FF800F009E600005FF800F0D9D8000027
:101B90005FF800F065F200005FF800F039EB00003C
:101BA0005FF800F0A1050100450000005518000095
:101BB00005D00000FFFFFFFFFFFFFFFFFFFFFFFF5C
:101BC0000000000000000000000000000000000015
:101BD0000000000000000000000000000000000005
:101BE00010B5054C237833B9044B13B10448AFF357
:101BF00000800123237010BD10160020000000009B
:101C000054480100084B10B51BB108490848AFF310
:101C100000800848036803B910BD074B002BFBD0B8
:101C2000BDE81040184700BF000000001416002057
:101C300054480100101600200000000000207047EA
:101C4000704700BF4FF0FF30704700BF006910B110
:101C500003689B6A18477047006910B10368DB6A24
:101C600018477047006910B103681B69184770472F
:101C7000006910B103689B6918474FF0FF30704747
:101C8000006910B10368DB6818477047006910B13C
:101C90000168096B0847704710B4006920B10468F7
:101CA000616B5DF8044B08475DF8044B704700BF5B
:101CB000006910B103689B6B184700200021704732
:101CC000006910B10368DB6B1847002000217047E2
:101CD000006910B103681B6C18477047006910B1A8
:101CE00003685B6C18477047006910B103689B6C10
:101CF00018470148704700BF6C010020006910B10F
:101D00000368DB6C1847704738B50B6904462BB184
:101D10001D6819462B6D9847204638BD4FF47A70E0
:101D2000064A23712373A06022600B692361002B94
:101D3000F2D01A69204601321A6138BD74000020C1
:101D4000006910B103685B6D18477047006980B186
:101D50000368012200B583B09B6A0DF10701984723
:101D600020B19DF8070003B05DF804FB4FF0FF3091
:101D7000F9E74FF0FF30704710B582B004680122D8
:101D800002AB03F8011D1946E36A984702B010BD83
:101D9000C36D0BB101207047006E003018BF0120E9
:101DA000704700BF704700BF10B50446064907489A
:101DB000236922460FF0FAF9206920B10368BDE8D3
:101DC00010405B6A184710BD54010020580C0020D9
:101DD00002460249024813690FF0E8B97001002079
:101DE000580C002010B50446406E18B110F0E8F908
:101DF0000023636604F12400BDE810400BF0E4B852
:101E00002DE9F041002394B04FF47A74264F1A461E
:101E10000546243104A88DF804308DF80C30129357
:101E20001393029400970BF023F9129B002B31D0EF
:101E3000682000260FF032FA9DF8043004461B4A51
:101E40004FF47A782430237604A9029B2260E36160
:101E5000174A9DF80C30626184F820302671267391
:101E60002661C4F808800BF06DF82369114A01332C
:101E7000676166662E71C5F808802E732C61236138
:101E80002A600D4B04A800930BF09EF8284614B06E
:101E9000BDE8F081139B002BCAD1064A2B71AC60C0
:101EA0002B732B612A60ECE750000020D400002047
:101EB00008000020740000202C00002010B504460B
:101EC0000FF018F9204610BD826C62B1137803F050
:101ED000080303F0FF000BB3D3695069181A48BF19
:101EE0006FF000407047C16CC9B191F8313003F018
:101EF000080303F0FF008BB1D1E90423D1E900010D
:101F000030B4101A4FF000056FF0004463EB01018C
:101F10008D4208BF844200D2204630BC704708463C
:101F2000704700BF836C13B1184609F061BDC06CE7
:101F300008B107F033BF4FF0FF307047836C00B536
:101F400083B063B1184601220DF1070109F086FC48
:101F500001280CD19DF8070003B05DF804FBC06CAC
:101F600028B101220DF1070107F044FEF0E74FF020
:101F7000FF30F1E7C36D13B1184609F08DBF006E55
:101F800008B108F0BDBE704700B5836C83B08DF812
:101F9000071043B1184601220DF1070109F0BEFFF9
:101FA00003B05DF804FBC06C0028F9D001220DF1EC
:101FB000070109F0AFF803B05DF804FB15490246CC
:101FC0002DE9F041B1F9000086B0134C134D144EC9
:101FD000049021683068B5F800E0124F0190039139
:101FE000CDF808E03968DFF850800091D8F800306B
:101FF0000D490E480FF0DAF80D4900230D4A096823
:10200000C8F800303B6033602B802360116006B05D
:10201000BDE8F081461D002038160020005B00203E
:10202000085B00203C1A002090010020580C002082
:1020300044620020105B0020045B002000F03F00A1
:10204000114B22F0604221F0604140F4891010B43D
:1020500018671C46C3F88010C3F890201A6F22F44A
:1020600080521A67236F084A002BFBDAD2F87011EE
:10207000064B5DF8044B0B40C2F87031136F23F42C
:1020800080331367704700BF00800D40FF7F7FFFE4
:102090002DE9F04F0102784D784C83B0DFF834E23F
:1020A000064684FB0024C217042342F21078DFF8AE
:1020B000289295FBF1F56F1CC2EBA4110246704803
:1020C000BC00009705F03F0501FB04F46D49A40135
:1020D0008EFB04CEE417C4EB6E2401940FF066F877
:1020E00030460FF055FB0022674B0FF0B7FB002284
:1020F000664B0FF0B3FB82468B4638460FF048FB29
:1021000002460B46504659460FF0A8FB56A3D3E9AA
:1021100000230FF0CDFC06460F460FF04FFE04469D
:102120003046394652A3D3E900230FF097FB064609
:102130000F4608FB04F00FF02BFB0B460246394616
:102140003046534F0FF0D6F900260FF037FE4246C7
:1021500001462046FFF772FFDFF880E14D49042475
:10216000DEF81C004FF0E06C4B4B20F440604B4A13
:10217000DFF86C8140F40060CEF81C00DEF8280027
:10218000014041F040010D430321CEF828504FF0AB
:10219000020E78680125034043F40020404B78602C
:1021A0004FF44030C2F8E06007F5A617C2F88C4043
:1021B000C2F890C007F58067C2F898806FF0070CEE
:1021C000C2F89C9040F20228C3F82011C3F82811ED
:1021D000C3F82411C2F894003248C3F87C11C3F844
:1021E000641103683049C7F894E14FF0060EC7F850
:1021F00098514FF4007719602C499C8019612C4943
:10220000DF8299602B49DF8360279C82A3F80680D8
:102210000479C3F80CC09961A3F81CE02649274B48
:1022200041F8246041F824300379254E03F01F0162
:10223000244CF37603F11006C2F888408D405B1100
:102240002149DFF8A0E0214C41F826E044F8235072
:102250001F4903795F54D2F8883043F01043C2F825
:10226000883003B0BDE8F08F0000000060E37641E5
:10227000000000000088C34000B29F26D34D6210CA
:10228000580C0020AC01002000005040000010401D
:1022900000C00A4000FEFFFFF8FFF7FF0040384093
:1022A00000801F4030160020A0403840481D00200C
:1022B00008E0FFBF00F0FFFF00C00E4013000080E9
:1022C00000800E40010000020088002000E100E0D4
:1022D00000E400E0F1197605001F1F1F00C00F4049
:1022E000190001000112000030B5D0F87C448FB015
:1022F000A4B100250A466846214601238DF8005006
:102300008DF801508DF8025009F09AFA08B90FB013
:1023100030BD68460AF014FB0FB030BDD0F8800421
:102320000028F4D00A460123014668468DF8314062
:102330008DF832408DF8334008F038F80028E6D0A8
:10234000684608F08BFB0FB030BD00BF70B5D0F809
:102350007C448EB01646C4B1002504F23C440A46C3
:10236000684621462B468DF800508DF801508DF8B7
:10237000025009F001FA08B90EB070BD324621468C
:10238000684609F06BFB0EB070BDD0F880040028E1
:10239000F2D000F588650A462346684629468DF83E
:1023A00031408DF832408DF8334007F07DFF002832
:1023B000E2D032462946684608F0E2FD0EB070BD14
:1023C00038B5446E0CB1204638BD05464FF48070D8
:1023D0000FF0EEFE0146686680B1E86D0C7028B122
:1023E0004FF480720AF0E6F86C6EECE7286E40B1AC
:1023F0004FF4807207F018FB6C6EE4E7024C6C66D9
:10240000E1E70C46DFE700BF2C160020D0B5C46D15
:102410008CB1012B08BF002A01D30020D0BD11468A
:10242000204609F03BFC0028F7D0204609F03AFD91
:102430000028F2D0D0BD046E002CEED0204607F06C
:10244000C3FC0028E9D02046BDE8D04008F0F0BD2C
:1024500030B5D0F87C448FB07CB100250A4601230A
:1024600004F23C4168468DF800508DF801508DF81B
:10247000025009F01DF90FB030BDD0F880040028DB
:10248000F9D00A46012300F5886168468DF831408D
:102490008DF832408DF8334008F004FD0FB030BDA8
:1024A00030B5D0F87C448FB074B100250A46684638
:1024B00021462B468DF800508DF801508DF80250C2
:1024C00009F0BEF90FB030BDD0F880040028F9D073
:1024D0000A462346014668468DF831408DF8324061
:1024E0008DF8334007F062FF0FB030BDC36D9BB174
:1024F0001A7812F0700F00D1704710B50446002111
:10250000184609F0CBFB206E28B100220023BDE85D
:10251000104007F059BC10BD006E0028ECD090F8B8
:10252000313013F0500FE7D00022002307F04CBCED
:1025300030B5D0F87C448FB0A4B100250A46684677
:1025400021462B468DF800508DF801508DF8025031
:1025500009F076F908B90FB030BD684609F070FB94
:102560000FB030BDD0F880040028F4D00A462346CE
:10257000014668468DF831408DF832408DF8334081
:1025800007F014FF0028E6D0684608F0D3FA0FB031
:1025900030BD00BF38B50546D0F87C04C0B1C46971
:1025A000013C09F0DFFED5F87C34241A43B1987958
:1025B0004FF4007303FA00F080B2A0FB040138BDB1
:1025C000D5F880346BB1D3F83404A0FB040138BDD6
:1025D000D5F880342BB11846D3F8284408F066F9B2
:1025E000E1E70020002138BDC36D13B15869002117
:1025F0007047036E13B193E80300704718461946FD
:10260000704700BFC36D13B1D86900217047036ED6
:1026100013B118695969704718461946704700BFC9
:10262000C36D13B1184609F019B9006E08B107F06F
:10263000E1BA4FF0FF307047C36D13B1184609F08F
:10264000D7B9006E08B107F0A9BB4FF0FF30704753
:10265000D0F87C244AB191794FF40073D0698B4053
:1026600001389BB2A3FB00017047D0F8802432B13F
:10267000D2F82834D2F83404A3FB000170470020BC
:1026800000217047C36D33B11B7813F0700F14BF76
:10269000012000207047006E30B190F8313013F007
:1026A000500F14BF01200020704700BF012B2DE9FF
:1026B000F041054694B040D0022B01F1040140F2F4
:1026C0000223684618BF00230AF066FD129B002B08
:1026D0003CD0682004AF0EF0E1FD9DF804200446D4
:1026E000214B224900264FF47A7822766361243008
:1026F000029B9DF80C2021603946E36184F820207C
:10270000267126732661C4F808800AF01BFC236931
:1027100017490133174A66662E71C5F808802E7373
:102720002C61616123612A60134B384600930AF0E3
:102730004BFC284614B0BDE8F08144F2022304317A
:1027400068460AF029FD129B002BC2D1139B002B77
:10275000BFD14FF47A71074A2B7104AF2B732B61F1
:10276000A9602A60E0E700BF08000020D400002034
:1027700050000020740000202C000020836C13B156
:10278000184609F089BBC06C08B108F0B9BA7047A7
:10279000836C13B1184609F0C1BBC06C08B108F0D6
:1027A000B9BC7047C36D13B1184609F0B7BB006ED2
:1027B00008B108F0AFBC7047C26D62B1137803F086
:1027C000080303F0FF000BB3D3695069181A48BF20
:1027D0006FF000407047016EC9B191F8313003F0DD
:1027E000080303F0FF008BB1D1E90423D1E9000114
:1027F00030B4101A4FF000056FF0004463EB010194
:102800008D4208BF844200D2204630BC7047084643
:10281000704700BFD0B4039C16461F4634B1012C4C
:102820001ED0022C0DD00020D0BC7047C46DDCB18E
:10283000012B08BF002AF6D220461146D0BC09F071
:102840002DBAC36DB3B1DA69B61847F10007012F8D
:1028500008BF002EE7D231461846D0BC09F01EBA98
:10286000C36D93B15A69EFE7006E0028DBD0D0BC8E
:1028700007F0AABA036E002BD5D01846D3E904237B
:1028800092197B41D0BC07F09FBA036E002BCAD0CF
:102890001846D3E9002392197B41E8E7084B026907
:1028A00010B50446036042B11369013B136123B9BB
:1028B000006910B103681B6A9847204610BD00BF2D
:1028C0007400002038B5154A0446C36D00F1240594
:1028D0000260F3B128460AF077FB606E08B10FF092
:1028E0006FFC0F4B284663610AF06EFB0D4B2269AB
:1028F000236042B11369013B136123B9206910B110
:1029000003681B6A9847204668210EF0C9FC2046E0
:1029100038BD036E002BDDD1DFE700BFD4000020FF
:102920002C000020740000200A4B026910B50446F8
:10293000036042B11369013B136123B9006910B10F
:1029400003681B6A9847204614210EF0A9FC204614
:1029500010BD00BF7400002038B5D0F8E020044658
:10296000194B1A4D0360C0F8D0501AB11369013BDE
:102970001361CBB1D4F8CC20C4F8BC501AB11369A0
:10298000013B1361C3B1D4F8B820C4F8A8504AB1D0
:102990001369013B13612BB9D4F8B80010B1036877
:1029A0001B6A9847204638BDD0F8E0000028E1D0E7
:1029B00003681B6A9847DDE7D4F8CC000028E2D012
:1029C00003681B6A9847DEE7880200207400002035
:1029D00038B5134A0446C36D00F124050260D3B133
:1029E00028460AF0F1FA606E08B10FF0E9FB0D4BD2
:1029F000284663610AF0E8FA0B4B2269236042B172
:102A00001369013B136123B9206910B103681B6A84
:102A10009847204638BD036E002BE1D1E3E700BFA5
:102A2000D40000202C000020740000202DE9F04F7D
:102A3000DFF860828FB00B218C4806F04BFF08F264
:102A40008C450C21894806F07BFF0D21874806F054
:102A5000A7FF28464FF000010BF0F8FCC8F8885497
:102A60001DB128460BF09CF838B10A2180480CF0C3
:102A700091FC80480EF082FBFEE708F10404D8F8D0
:102A8000881420460AF024FB0028EED07A4B4FF041
:102A9000FE0ADFF804B24FF000095B68132B0ADC72
:102AA000754ADBF8001002EB8300734C5A1C8160FE
:102AB0006260C0F85880D8F80010704ACB69934221
:102AC00040F09C80D8F87C24002A00F0AF809079F8
:102AD0004FF40073D2698340013A9BB2A3FB0223F7
:102AE000CDE902238B69664A934240F08280D8F890
:102AF0007C04002800F09180C469013C09F032FC9C
:102B0000D8F87C34241A002B7FD09A794FF40073C4
:102B100093409BB2A3FB04455BF8041B00270A26E5
:102B20004A4653460091534809F10109554908F2B4
:102B3000B4480EF03BFB4F48DDE902238DE8C000AE
:102B40000EF044FB012150480CF024FC22462B4699
:102B500048488DE8C0000EF039FB46480EF00EFBE9
:102B6000B9F1020F42D04FF0260A08F10403012107
:102B700008AC5FFA8AF6029308F5936530460DF0CB
:102B800041FE424B05AA8DF8146006934FEA061EDB
:102B90008DF8157007973E4B07CA84E8070003EBD2
:102BA0000E023A498DF820600BAB8DF821700A9720
:102BB0000991D2F80CC0364A52F80E7094E807001A
:102BC000C7F884C083E8070028460ECB0AF026FC2D
:102BD000C8F8885415B198F8AF349BB30A2124483B
:102BE0000CF0D8FB23480EF0C9FAFEE70FB0BDE8A1
:102BF000F08F4046984704460D468DE7404698477B
:102C0000CDE90201D8F800106CE7D8F880342BB376
:102C1000D3F83434A3FB04457EE7D8F88034EBB115
:102C20001846D3F8284407F041FE69E7D8F8803405
:102C3000BBB1D3F82824D3F83434A2FB0334CDE954
:102C400002344FE7294602980AF042FA0028C5D01C
:102C5000094B5B68132B7FF723AF2CE7002400257B
:102C60005AE700230024CDE902343BE7CC0B0020D7
:102C7000D4010020580C0020401C0020910A0000C4
:102C8000D5090000E0010020B40300200024F40076
:102C900008050020482D0020AC0B002070B521490C
:102CA00040F6B730204A214C214E0B78002B35D00E
:102CB0002378DB0732D5136835685B1B0E2B2DD9C3
:102CC0000A211C480CF066FB1B480EF057FA0DF069
:102CD00083FFFFF7ABFE194A1949D36F43F4402332
:102CE000D367D1F88830002B02DB1648FFF7D0F904
:102CF000154B4FF6FF720A2114481A800CF04AFB5C
:102D00000D480EF03BFA372111480CF043FB0A48FE
:102D10000EF034FABDE870400CF06EBB13688342CD
:102D2000C3D9CDE7386200204462002068610020EA
:102D3000F8630020F4010020580C002000C00F4070
:102D400000403840366E0100461D00200002002081
:102D50000C02002070B5164E164B34881D880134C5
:102D6000A4B2B4F57A7F28BF0024AC421ED0124B27
:102D700001464FF40072186800EB44200BF052FF3C
:102D8000AC4234800AD2C5F57A750C4B2C441A88B3
:102D9000A4B2A24208D21C80012070BD641B074B64
:102DA000A4B21A88A242F6D3012070BD002070BDE3
:102DB000441D0020025B0020B0360020005B002094
:102DC00019491A4B0A68A3F5006070B5184C1569CB
:102DD00022689D4238BF18460E790132154D20F009
:102DE0001F0300F500612260EE77BFF34F8F124A98
:102DF000136020339942FBD8BFF34F8FBFF36F8F1F
:102E00000E4A002350F823100433B3F5007F42F834
:102E1000041FF7D10A48FFF79DFF18B9094A136844
:102E20000133136070BD00BF30160020482500201C
:102E30003C1A002000800E405CEF00E03C1A0020AD
:102E4000401A0020085B002038B5134D134B2A8828
:102E50001C88B2FBF1F2B4FBF1F4A2421AD093B297
:102E60004FF47A720133B2FBF1F29BB293420DD26E
:102E70004A0211FB03F102FB03F38CB20849096813
:102E800019440BF0CFFE2C80012038BD00244A02EB
:102E90002346F3E7002038BD025B0020441D0020DC
:102EA000B036002010B504460CF00EFA08B92046E2
:102EB00010BD0CF049FAC0B271280CD07328F6D1BD
:102EC000002CF4DA062109480CF064FA08480EF0E8
:102ED00055F90024EBE7002CE9DB052105480CF04F
:102EE00059FA034804240EF049F9E0E744020020AF
:102EF000580C00204C02002010B50F4C2069C0B1C6
:102F000003685B6C9847A0B14FF4007200210B4836
:102F10000FF014FD206958B103684FF4007207499F
:102F2000DB6A9847A0F50070B0FA80F0400900B263
:102F300010BD002010BD00BFB40B00203C160020C7
:102F400070B50C4E33699BB11A68054618460C469D
:102F5000536C984760B1306920B103682946224616
:102F6000DB6A9847201AB0FA80F0400900B270BDC1
:102F7000002070BDB40B002010B5084C206958B17A
:102F800003681B6C9847206930B103685B6C9847F5
:102F900080F00100C0B210BD012010BDB40B0020B4
:102FA000F0B583B005460DF073F919490746194B82
:102FB000194C2846A1FB0726A3FB0723174A7609CD
:102FC000DB0AA2FB07E2A1FB06E1A4FB03E4C6EBDC
:102FD000061E49092409C1EB0111A7EB8E07A6EBD8
:102FE00081060F4904EB4404120CA3EBC4038DE8E3
:102FF000C0000FF0F7FE28460FF0C2FF014628463A
:103000000CF0C8F907480EF0B9F8012003B0F0BD84
:1030100089888888C5B3A291ABAAAAAA07452EC2FF
:1030200054020020580C00202DE9F04106468EB0D5
:1030300008460D460FF0A4FF00286FDD691E00232F
:103040004FF0FF3211F8014F2F2C08BF1A46013301
:103050009842F7D1002A61DB40F2B4434FF0000EF2
:103060003D4F05EB020803FB06F33C4905F802E07F
:10307000FA58FC1853688B4254D1D4F87CC4BCF184
:10308000000F13D0614673462A4668468DF800E06B
:103090008DF801E08DF802E008F0D2FBB0B12F23EB
:1030A000012088F800300EB0BDE8F081D4F880141B
:1030B00061B163462A4668468DF831C08DF832C04A
:1030C0008DF833C007F072F90028E8D128460FF0D8
:1030D00057FF014628460CF05DF921480EF04EF8E6
:1030E00040F2B4431F4A03FB06F6BB599B68934268
:1030F0002ED1D4F87C64CEB100242A4606F23C419D
:10310000012368468DF800408DF801408DF802409B
:1031100008F0CEFA0028C2D10020C4E701200EB08A
:10312000BDE8F081294620469847B7E7D4F88014D7
:103130000029F1D02A4601F58861012368468DF8FF
:1031400031608DF832608DF8336007F0ABFEE1E757
:10315000294620469847DDE7482D0020E108000079
:10316000580C002091080000F0B5AFB0044606A846
:10317000FFF716FF10B900202FB0F0BD06A92046BA
:10318000FFF752FF0028F6D040F2B4433E493F4AD1
:1031900003FB04F40B5921441C68944206AA60D135
:1031A00044F2022304311AA809F0F6FF2C9B002BED
:1031B0005BD0682000250EF071F89DF86C20044665
:1031C000334B34494FF47A7722761EAE1C9A243062
:1031D00063619DF8743021603146E26184F82030EB
:1031E000257125732561A76009F0ACFE23692A4982
:1031F00001332A4A65668DF8085003978DF8105000
:103200000594616123610192254B30461A9309F0C0
:10321000DBFE244C226942B11369013B136123B9DF
:10322000206910B103681B6A9847059B23617BB135
:103230001A691A49013201911A61059A42B113695A
:10324000013B136123B9059810B103681B6A9847C5
:103250002069002890D003685B6C984700B22FB0BB
:10326000F0BD012301A8A047D3E72D9B002BA0D1DF
:103270004FF47A71094A8DF808301EAE8DF810307F
:10328000059303910192BFE7482D0020ED0A00004D
:1032900008000020D400002050000020740000200E
:1032A0002C000020B40B0020F8B5254D07460C4635
:1032B000244801212E68FFF7C7FD48B1BCB1012C9D
:1032C00019D007DD4FF400711E48FFF739FE40B3F7
:1032D000032C1BD0042C1ED02B681B4A9B1B11688F
:1032E0008B4202D913602046F8BD2046F8BD38460F
:1032F000FFF73AFFC0B1FFF7FFFDC0B14FF4007117
:103300001048FFF71DFE60B10224E5E7FFF734FE29
:1033100098B10024E0E7FFF72FFE58B14FF0FF34DB
:10332000DAE76FF00300F8BD6FF00100F8BD6FF051
:103330000200F8BD6FF00500F8BD6FF00400F8BDA5
:10334000446200203C18002038160020284A1368E8
:1033500070B5284C013382B0B4F900001360FFF758
:10336000A1FD01462080B0B9234AD2F8883043F04D
:103370001043C2F888300020FFF796FF2080002815
:1033800007DB1E4B1E4A1B6812689B1AB3F57A7F37
:103390000BD802B070BD03280DDD174AD2F8883073
:1033A00023F01043C2F88830E5E7164802B0BDE8C4
:1033B0007040FEF703BE022811D101900CF068FFA7
:1033C000114B124A1B6815680199B0FBF3F606FB16
:1033D0001300A84238BF032110602180CBE70028EA
:1033E000C9DA0B4805F048FCB4F90000C7E700BF94
:1033F000045B0020461D002000403840446200204D
:10340000105B00206C020020A80B00200C5B002049
:10341000C0360020F8B54B4900244B4B0725DFF898
:103420005CC12827494E2046DFF854E1C3F88C14CC
:103430003246C3F840194649C3F800C0C3F8B4C4C3
:10344000C3F87C44C3F8804483F8944483F8B244BE
:10345000C3F83049C3F8344983F8484983F86649CA
:10346000C3F898E4C3F84CE9C3F8A014C3F854199E
:10347000C3F8A454C3F8585983F8AF7483F8637938
:103480004FF47A7733490EF02BF8334D334B6FF00E
:103490000101DFF8F0E032466C60284685F8AC4068
:1034A00085F8B440C5F8B84085F8C04085F8C840F4
:1034B000C5F8CC4085F8D44085F8DC40C5F8E0403C
:1034C000C5F8F010C5F8B070C5F8C470C5F8D8706C
:1034D00042F22047C5F8A830C5F8BC30C5F8D03056
:1034E0001F49C5F800E0C5F8E440C5F8E840C5F854
:1034F000EC40C5F8F44085F8F84085F8F9400DF047
:10350000EFFF184B42F2244142F228424FF4FA20D6
:103510005C549C501D60DC510CF0D2FE124B3246C4
:10352000124D1860124913480DF0DAFF2146284663
:103530000DF090FD324628460F49BDE8F8400DF0E9
:10354000CFBF00BFB0040020482D0020A40B0020F6
:1035500000093D00E5010000401C0020740000202F
:10356000990D0000C0360020B03600203016002033
:10357000DD0C0000B40B0020FD020000340100202F
:1035800058040020880200204368132B08DC10B484
:1035900000EB83040133A2604360A1655DF8044B36
:1035A000704700BF4068704700EB81018868704732
:1035B000002070470120704700EB8101886D03688F
:1035C000DB69184700EB8101886D03689B69184728
:1035D000D0F8CC00002832D01C4B70B40468E46AE8
:1035E0009C4229D1006920B30468E46A9C4223D13B
:1035F0000069F0B10468E46A9C421DD10069C0B161
:103600000468E46A9C4217D1006990B116460268CA
:103610000D46D46A9C4214D1006950B10268D46A44
:103620009C420ED1006920B103683246DB6A70BC4F
:103630001847002070BC7047234670BC1847002014
:10364000704732462946234670BC1847990000004F
:10365000D0F8B830002B33D01A681B49526C8A421C
:1036600010B5044629D1186930B303685B6C9342E6
:1036700027D1006900B30268526C9A421ED10069DA
:10368000D0B103685B6C93421BD10069A0B10268A2
:10369000526C9A4212D1006970B103685B6C984712
:1036A00050B1236820461B6C984700226FF001033D
:1036B00084F8F920C4F8F03010BD18469047EFE7C1
:1036C00070479847ECE700BF1D01000010B50446A5
:1036D000D0F8B80000286FD00368404A5B6C934272
:1036E00070D10069002867D00268526C9A4272D18A
:1036F0000069002860D003685B6C934262D1006966
:10370000002859D00268526C9A4264D1006900289E
:1037100052D003685B6C934254D1006900284BD0AF
:1037200003685B6C9847002846D0D4F8B80000289E
:1037300042D002682A4B126C9A4245D10069002897
:103740003AD00268126C9A423ED10069002833D008
:103750000268126C9A4237D1006900282CD00268A6
:10376000126C9A4230D1006930B30268126C9A42EE
:103770002AD1006900B30268126C9A4224D1006910
:10378000D0B10268126C9A421ED10069A0B10268E1
:10379000126C9A4218D1006970B10268126C9A4298
:1037A00012D1006940B10268126C9A420CD10069D2
:1037B00010B103681B6C9847002384F8F830C4F8F4
:1037C000F43010BD9847AEE79047002384F8F830F6
:1037D000C4F8F43010BD9047A5E700BF1D010000FC
:1037E000110100000268002A3CD01369013B1361FB
:1037F000002B37D12DE9F0410468002C33D0236829
:103800001E491B6A8B4230D11D4E226926601AB3B5
:103810001369013B1361FBB92569EDB12B681B6A84
:103820008B4226D12A692E6092B11369013B136144
:1038300073B92F6967B13B6838461B6A8B421BD14D
:1038400040F8106BFFF7CEFF384614210DF028FD2D
:10385000284614210DF024FD20461421BDE8F04136
:103860000DF01EBD7047BDE8F0812046BDE8F04177
:10387000184728469847EFE79847E9E7690D0000A1
:10388000740000202DE9F0430446D0F8B80087B05A
:1038900040B30368864A5B6C934240F08B810069B9
:1038A00000B30268526C9A4240F08E810069C8B140
:1038B00003685B6C934240F07D81006990B10268BF
:1038C000526C9A4240F08081006958B103685B6C89
:1038D000934240F06F81006920B103685B6C9847A8
:1038E000002869D1A16D0223724A01A80D682D68D4
:1038F000A847D4F8B8302BB11A69013A1A61002AE6
:1039000000F0E280059BC4F8B8305BB11A696A49DF
:10391000013201911A61059A22B11369013B1361C9
:10392000002B4CD0D4F8B80000283ED00268604B81
:10393000526C9A4240F043810069002835D00268F9
:10394000526C9A4240F03B81006900282DD00268F9
:10395000526C9A4240F03381006930B30268526C75
:103960009A4240F02C810069F8B10268526C9A4288
:1039700040F025810069C0B10268526C9A4240F063
:103980001E81006988B10268526C9A4240F017812A
:10399000006950B10268526C9A4240F0108100698F
:1039A00018B103685B6C984730B9162143480BF097
:1039B000F1FC43480DF0E2FB07B0BDE8F083059D44
:1039C000002DAFD02A683F4B126A9A4240F0048122
:1039D00028692960002866D00269013A0261002A3C
:1039E00061D12E69002E5ED03268126A9A4240F090
:1039F000F68030693160002851D00269013A0261D5
:103A0000002A4CD13769002F49D03A68126A9A428D
:103A100040F0EE8038693960DFF89CE000283AD049
:103A20000269013A0261002A35D1D7F81080B8F155
:103A3000000F30D0D8F80020126A9A4240F0DE80A1
:103A4000D8F81000C8F800E008B30269013A026132
:103A5000EAB9D8F81090B9F1000F18D0D9F80020C1
:103A6000126A9A4240F0D080D9F81020C9F80010AC
:103A70004AB11369013B13612BB9D9F8100010B199
:103A800003681B6A9847484614210DF009FC40461C
:103A900014210DF005FC384614210DF001FC3046D0
:103AA00014210DF0FDFB284614210DF0F9FB39E738
:103AB0001D010000E002002074000020F002002040
:103AC000580C0020690D0000D4F8B850002D3FF4C8
:103AD00019AF2A684E4B126A9A427AD14D49286929
:103AE0002960002861D00269013A0261002A5CD194
:103AF0002E69002E59D03268126A9A4272D130690A
:103B0000316000284DD00269013A0261002A48D193
:103B10003769002F45D03A68126A9A4265D13869F0
:103B20003960DFF8F0E0002837D00269013A02611D
:103B30009ABBD7F81080B8F1000F2ED0D8F800202B
:103B4000126A9A4257D1D8F81000C8F800E000B3C2
:103B50000269013A0261E2B9D8F81090B9F1000F98
:103B600017D0D9F80020126A9A424AD1D9F8102009
:103B7000C9F800104AB11369013B13612BB9D9F898
:103B8000100010B103681B6A9847484614210DF0D5
:103B900087FB404614210DF083FB384614210DF0BD
:103BA0007FFB304614210DF07BFB284614210DF0DD
:103BB00077FBA7E6984700287FF4FEAE92E6904791
:103BC00000287FF4F9AEF0E6904700287FF4F4AEC9
:103BD00088E62846904795E628469047A2E6304674
:103BE000904760E730469047DFE738469047D8E790
:103BF0003846904753E740469047CEE740469047C7
:103C000049E748469047C4E7484690473FE700BF2A
:103C1000690D0000740000202DE9F041064682B0D5
:103C20000C461746FFF72EFED6F8B85004EB0414E6
:103C3000002D64D0D5F800E0220148494FF0000C77
:103C4000DEF834408C426FD12969002952D00868CF
:103C5000D0F83480A0456DD10869002852D004689E
:103C6000646B44456CD1006900284BD00368D3F8DD
:103C70003480A04569D10069002843D003685C6B9B
:103C8000444567D1006900283CD001686346CDF8FF
:103C900000C0496B8847D6F8B850002D2FD02A684D
:103CA0002F4BD46A9C4234D1286940B30268D46A4D
:103CB0009C4237D1006910B30268D46A9C4231D16A
:103CC0000069E0B10268D46A9C422BD10069B0B1AE
:103CD0000268D46A9C4225D1006980B10268D46A26
:103CE0009C421FD1006950B1036839464FF4887275
:103CF000DB6A13E0DEF82C40194B9C4209D102B07C
:103D0000BDE8F081DEF82C40154B9C4201D10846FD
:103D1000CCE7394628464FF48872234602B0BDE806
:103D2000F04118473946F6E7CDF800C0634628460B
:103D3000A047B0E7CDF800C063460846C047AAE7F1
:103D4000CDF800C06346A047A5E7CDF800C06346A4
:103D5000C047A0E700230093A0479CE7D9000000DC
:103D6000990000002DE9F04104460127C4B00D215F
:103D70001B4884F8F8700BF00DFB1A480DF0FEF9A3
:103D8000A06D174903681B69984763680021C4F850
:103D9000E4308B42C4F8F4101FDD0D460E464FF0A0
:103DA000FF3801E0D4F8F410481C2F236A46ADF820
:103DB0000E50C4F8F4002046ADF810300135CDF8AF
:103DC0000080029601968DF80C708DF80D60FFF75B
:103DD00023FFD4F8E430AB42E4DC44B0BDE8F0812A
:103DE000E0020020580C00202DE9F0410D46144659
:103DF00082B000214FF4887206460EF09FFDD5F880
:103E0000F430A342C0F0BB80284604EB0414FFF753
:103E100039FDD5F8B8004FF0000C2201002800F061
:103E2000AA800768724C796BA14240F0BE8001699C
:103E3000002900F0AE800B68D3F83480A04540F034
:103E4000CB80D1F810E0BEF1000F58D0DEF8003082
:103E5000D3F83480A04540F0B980DEF810E0BEF120
:103E6000000F4CD0DEF80030D3F83480A04540F08D
:103E7000AD80DEF810E0BEF1000F40D0DEF800307B
:103E8000D3F83480A04540F0AD80DEF810E0BEF1FC
:103E9000000F34D0DEF80030D3F83480A04540F075
:103EA000A180DEF810E0BEF1000F28D0DEF800306F
:103EB000D3F83480A04540F09580DEF810E0BEF1E4
:103EC000000F1CD0DEF80030D3F83480A04540F05D
:103ED0008980DEF810E0BEF1000F10D0DEF800306F
:103EE000D3F83480A0457DD1DEF810403CB1216884
:103EF0006346CDF800C02046496B884759E0BC6A4C
:103F00003C4B9C4249D108460268946A9C4244D189
:103F1000006900282FD00268946A9C423DD1006954
:103F200048B30268946A9C4237D1006918B30268AA
:103F3000946A9C4231D10069E8B10268946A9C425B
:103F40002BD10069B8B10268946A9C4225D10069FE
:103F500088B10268946A9C421FD1006958B1026816
:103F6000946A9C4219D1006928B103684FF48872A1
:103F700031469B6A9847304602B0BDE8F0814FF465
:103F80008872002130460EF0D9FC304602B0BDE800
:103F9000F081BC6A174B9C42EDD04FF488723146D9
:103FA000A047304602B0BDE8F081CDF800C06346BE
:103FB0008847D5F8B8000028DDD002680D4B946A18
:103FC0009C42EAD1006900289ED1D4E7CDF800C018
:103FD00063467046C047ECE7CDF800C0634608462C
:103FE000C047E6E7002370460093C047E1E700BF03
:103FF000D90000008D00000030B5D0F8FC50C5B0ED
:104000002DB3044608E0029BC4F8FC309DF8103044
:10401000D3B9D4F8FC50D5B12A4621466846FFF7FB
:10402000E3FE94F80021002AEDD1D4F8FC30D4F856
:10403000F4100133C4F8FC308B429DF8103028BFD7
:10404000C4F8FC20002BE4D0284645B030BD002544
:10405000284645B030BD00BFF0B5C5B017460A468A
:10406000014668461D464A9E4B9CFFF7BDFE3846FA
:1040700004A90EF0DDFE009A9DF80C30326033B9D1
:10408000019BBDF80E202B60228045B0F0BD4FF0A3
:10409000FF33F6E700B5C5B00A4601466846FFF7AC
:1040A000A3FE019845B05DF804FB00BF70B5D0F8E1
:1040B000CC30C4B00446002B4CD01D686049EA6B7C
:1040C0008A4240F0B7801A69002A00F0AB8010687D
:1040D000C66B8E4252D11069002834D00668F66B48
:1040E0008E424CD1006900282DD00668F66B8E42B6
:1040F00045D1006938B30668F66B8E423FD100693E
:1041000008B30668F66B8E4239D10069D8B10668EB
:10411000F66B8E4233D10069A8B10668F66B8E4209
:104120002DD1006978B10668F66B8E4227D10069FF
:1041300048B10668F66B8E4221D1006918B1036858
:10414000DB6B98471CE02E6C3E498E4275D11046C1
:10415000002522E01D46D4F8F02021466846FFF7EE
:1041600043FE6A46D4F8F01020460195FFF754FD4F
:104170006FF00103C4F8F03044B070BD1046B04792
:10418000D4F8CC300546002BE5D01A682D49166CC2
:104190008E424CD118690028DDD003681B6C8B421D
:1041A0003ED100690028D6D003681B6C8B4237D102
:1041B00000690028CFD003681B6C8B4230D10069A6
:1041C0000028C8D003681B6C8B4229D100690028E5
:1041D000C1D003681B6C8B4222D100690028BAD081
:1041E00003681B6C8B421BD100690028B3D00368A5
:1041F0001B6C8B4214D100690028ACD003681B6C87
:104200008B420DD100690028A5D003681B6C8B423E
:1042100006D1006900289ED003681B6C98479AE776
:10422000984798E72E6C154606498E4293D018465B
:10423000B04790E718469047A2E70025F7E700BF90
:10424000010100001101000070B50646C4B014461B
:104250000A46684631461D46FFF7C6FD00994B1CCD
:104260001AD02B4622463046FFF7EEFF20460EF0CE
:1042700087FE204410F8013C2F2B04D02A460A491F
:1042800020460EF033FE2A46204604A90EF02EFEEC
:10429000BDF80E0044B070BD034BBDF80E001B8886
:1042A000238044B070BD00BF08030020F0B5ADF21C
:1042B000144D4FF4807317460D466A460446FFF7C7
:1042C000C3FF064668460EF05BFE0146684604EBF7
:1042D00086060BF05FF820480CF050FF2A46214676
:1042E000C0A8FFF781FDC4A94FF4807280A80EF02A
:1042F00027FE39464FF48072C4A80EF021FEC0AAF2
:1043000029462046FFF788FC40AA4FF480732946CF
:104310002046FFF799FF40A80EF032FE014640A864
:104320000BF038F80C480CF029FFB06D40AA694634
:104330000368DB689847064650B980A94FF480723D
:10434000C4A80EF0FDFDC0AA29462046FFF764FC74
:1043500030460DF2144DF0BD580C0020D0F8F0306E
:104360008B422DE9F04FC9B000F0FA8104461646A1
:104370004FF4807308AA0D46FFF766FF0746D4F88E
:10438000CC00002800F088800268574B526C9A429B
:1043900040F0EE81006900287ED00268526C9A429B
:1043A00040F0E6810069002876D00268526C9A429B
:1043B00040F0DE81006900286ED00268526C9A429B
:1043C00040F0D6810069002866D00268526C9A429B
:1043D00040F0CE81006900285ED00268526C9A429B
:1043E00040F0C6810069002856D00268526C9A429B
:1043F00040F0BE81006900284ED00268526C9A429B
:1044000040F0B6810069002846D00268526C9A429A
:1044100040F0AE81006900283ED003685B6C98478D
:10442000002839D0D4F8CC00002835D002682F4BB2
:10443000126C9A4240F09E81006900282CD00268DC
:10444000126C9A4240F09681006928B30268126C9F
:104450009A4240F08F810069F0B10268126C9A4272
:1044600040F088810069B8B10268126C9A4240F04D
:104470008181006980B10268126C9A4240F07A81B1
:10448000006948B10268126C9A4240F07381006979
:1044900010B103681B6C984704EB870708AAF3B2B6
:1044A00003A8B96D0F683F68B847D4F8CC201AB19B
:1044B0001369013B1361EBB1079AC4F8CC2062B1D8
:1044C00011690B4B013103931161079929B10A69F5
:1044D000013A0A61002A00F0AB80C4F8F050C4F839
:1044E000EC6049B0BDE8F08F1D0100001101000033
:1044F00074000020D4F8CC70002FDDD03B68AA49AE
:104500001B6A8B4240F03881A84B38693B60002819
:1045100000F089800269013A0261002A40F083803C
:10452000D7F81080B8F1000F7DD0D8F80020126ABB
:104530008A4240F03081D8F81000C8F800300028D6
:104540006DD00269013A0261002A68D1D8F8109052
:10455000B9F1000F63D0D9F80020126A8A4240F006
:104560001481D9F81000C9F80030DFF840E20028C3
:1045700051D00269013A0261002A4CD1D9F810A049
:10458000BAF1000F47D0DAF80020126A8A4240F0F0
:104590000881DAF81000CAF800E0002837D0026974
:1045A000013A0261002A32D1DAF810B0BBF1000FF3
:1045B0002DD0DBF80020126A8A4240F0FC80DBF844
:1045C0001020CBF800307948EAB11369013B136140
:1045D000CBB9DBF81020B2B113681B6A8B4240F0F4
:1045E000F0801169106051B10B69013B0B6133B967
:1045F000106920B1036801921B6A9847019A10461E
:1046000014210CF04DFE584614210CF049FE504682
:1046100014210CF045FE484614210CF041FE4046A2
:1046200014210CF03DFE384614210CF039FE43E70E
:10463000079F002F3FF451AF3A685B49126A8A42E4
:1046400040F09D8038693B60002800F0848002695A
:10465000013A0261002A7ED1D7F81080B8F1000F2C
:1046600079D0D8F80020126A8A4240F09180D8F8B8
:104670001000C8F80030002869D00269013A0261D0
:10468000002A64D1D8F81090B9F1000F5FD0D9F8A2
:104690000020126A8A4275D1D9F81000C9F800309A
:1046A000DFF808E100284ED00269013A0261002AD1
:1046B00049D1D9F810A0BAF1000F44D0DAF800209F
:1046C000126A8A426AD1DAF81000CAF800E00028BB
:1046D00035D00269013A0261002A30D1DAF810B00F
:1046E000BBF1000F2BD0DBF80020126A8A425FD1A9
:1046F000DBF81020CBF800302C48E2B11369013B05
:104700001361C3B9DBF81020AAB113681B6A8B428E
:1047100054D11169106051B10B69013B0B6133B980
:10472000106920B1036801921B6A9847019A1046EC
:1047300014210CF0B5FD584614210CF0B1FD504683
:1047400014210CF0ADFD484614210CF0A9FD4046A3
:1047500014210CF0A5FD384614210CF0A1FDBCE697
:10476000D0F8EC3093427FF401AE49B0BDE8F08F51
:10477000904755E690478FE6384698479CE638467E
:104780009047AAE648469047E1E74846904746E703
:1047900040469047DFE74046904744E75046904701
:1047A000D1E75046904736E7690D000074000020BD
:1047B00058469047C3E75846904728E71046984721
:1047C000B9E7104698471EE72DE9F047054682B045
:1047D000174600229846DDF82890FFF7BFFDD5F870
:1047E000CC40002C69D0206800234D4A466B96428D
:1047F0007BD1216900295CD00A68D2F834A0B24587
:1048000078D1D1F810E0BEF1000F59D0DEF80020C9
:10481000566B564573D1DEF810E0BEF1000F4FD055
:10482000DEF80020D2F834A0B2456DD1DEF810E0F9
:10483000BEF1000F44D0DEF800305E6B564568D103
:10484000DEF81060002E3BD0316800233A46304637
:104850000093496B8847D5F8CC40002C2DD02268B6
:10486000304B956A9D4231D1206930B30268946A19
:104870009C4233D1006900B30268946A9C422DD1F6
:104880000069D0B10268946A9C4227D10069A0B146
:104890000268946A9C4221D1006970B10268946AEE
:1048A0009C421BD1006940B103684A4641469B6A5D
:1048B00010E0856A1B4B9D4208D102B0BDE8F0872D
:1048C000856A184B9D4201D10846CFE74A464146CA
:1048D00020462B4602B0BDE8F04718474A464146FD
:1048E000234602B0BDE8F047184700933A462046F9
:1048F000B047B0E700933A460846D047ABE700938D
:104900003A467046B047A6E700933A467046D0470D
:10491000A1E700233A4670460093B0479BE700BFEB
:10492000D90000008D0000002DE9F041B2F1FF3FF9
:1049300014BF16460E46ADF5487D04460F46324676
:10494000014640A89846FFF74FFACE994FF480727F
:1049500088A80EF0F5FAD4F8F450419800226B1CA8
:10496000BDF80EE129468592C4F8F430012384AAEB
:104970008690204684968DF81C82ADF81EE28DF854
:104980001D32FFF749F9314640AA20464195FFF70D
:1049900043F9B8F1000F09D1204602222946FFF75A
:1049A000DDFC28460DF5487DBDE8F081204604EB8E
:1049B000870429466A464FF48073FFF745FCA06DD3
:1049C000694603689B68984728460DF5487DBDE811
:1049D000F08100BF2DE9F04FB2F1FF3F14BF154643
:1049E0000D46ADF50D7D014604462A4604A8FFF7A5
:1049F000FBF99DF81C3013B19DF81D201AB10DF57F
:104A00000D7DBDE8F08F20462946FFF7A7FCD4F8BE
:104A1000CC000028F3D00368324F5B6CBB425ED100
:104A200000690028EBD003685B6CBB4257D100697A
:104A30000028E4D003685B6CBB4250D100690028B9
:104A4000DDD003685B6CBB4249D100690028D6D039
:104A500003685B6CBB4242D100690028CFD0036879
:104A60005B6C98470028CAD0DFF87C904FF00008B4
:104A7000DFF878B0D4F8CC10002939D00B681B6D62
:104A80005B4540F08E820969002931D00B681B6DAF
:104A90005B4540F08682096951B30B681B6D5B452D
:104AA00040F07F82096919B30B681B6D5B4540F0CC
:104AB00078820969E1B10B681B6D5B4540F071823A
:104AC0000969A9B10B681B6D5B4540F06A820969F1
:104AD00071B10B68002248A81B6D984713E09847F6
:104AE000C0E700BF1D010000740000204901000064
:104AF00000234FF47A72CDF820918DF824318DF88F
:104B00002C314C934A92D4F8E020002A49D0136902
:104B1000013B1361002B44D1D4F8E060002E40D05B
:104B200033689F481B6A834240F04C823269C6F862
:104B3000009092B31369013B136173BBD6F810A0C8
:104B4000BAF1000F29D0DAF800301B6A834240F036
:104B50002083944BDAF81020CAF80030CAB11369E8
:104B6000013B1361ABB9DAF8103093B11A68126ADD
:104B7000824240F017831969C3F8009029B10A698D
:104B8000013A0A61002A00F02982184614210CF02B
:104B900087FB504614210CF083FB304614210CF0A7
:104BA0007FFB4C9BC4F8E030002B50D01A690132D7
:104BB0001A614C9ACDF82091002A48D01369013B24
:104BC0001361002B43D14C9E002E40D033687448B3
:104BD0001B6A834240F0F381724B3269336092B3B7
:104BE0001369013B136173BBD6F810A0BAF1000F33
:104BF00029D0DAF800301B6A834240F0CD82694B3D
:104C0000DAF81020CAF80030CAB11369013B136109
:104C1000ABB9DAF8103093B11A68126A824240F0E8
:104C2000BE821969C3F8009029B10A69013A0A6184
:104C3000002A00F04282184614210CF031FB504645
:104C400014210CF02DFB304614210CF029FBD4F874
:104C5000E000002800F0948003685B6CBB4240F0E9
:104C60009D800069002800F08B8003685B6CBB426C
:104C700040F094800069002800F0828003685B6C3B
:104C8000BB4240F08B800069002879D003685B6CE0
:104C9000BB4240F083800069002871D003685B6CE0
:104CA000BB427BD1006900286AD003685B6CBB42C1
:104CB00074D10069002863D003685B6CBB426DD17E
:104CC000006900285CD003685B6CBB4266D1006958
:104CD000002855D003685B6C9847002850D0BDF879
:104CE0001E20D4F8E0304895CDF82881ADF82E216B
:104CF000002B00F0108119682B4AC96C914255D1E4
:104D00001869002800F007810168C96C91424ED1F2
:104D10000069002800F0FF800168C96C914246D10B
:104D20000069002800F0F7800168C96C91423ED10B
:104D30000069002800F0EF800168C96C914236D10B
:104D40000069002800F0E7800168C96C91422ED10B
:104D50000069002800F0DF800168C96C914226D10B
:104D60000069002800F0D7800168C96C91421ED10B
:104D70000069002800F0CF800368DB6C984717E0DB
:104D800001232946204604AACDF814808DF81D3051
:104D9000FEF742FF0DF50D7DBDE8F08F98479CE7CB
:104DA000690D0000740000203D010000184688478E
:104DB0008DF82C01D4F8E030002800F0AF800020FE
:104DC000002249908DF82D21002B00F0E880196811
:104DD0007E4A896C914240F0DE801869002800F01C
:104DE000DE8003689B6C934238D10069002800F094
:104DF000D68003689B6C934230D10069002800F094
:104E0000CE8003689B6C934228D10069002800F093
:104E1000C68003689B6C934220D10069002800F093
:104E2000BE8003689B6C934218D10069002800F093
:104E3000B68003689B6C934210D10069002800F093
:104E4000AE8003689B6C934208D10069002800F093
:104E5000A68003689B6C9847014601E0984701468D
:104E60004FF480724CA80EF06BF8D4F8F410204682
:104E700048AA4B1C8846C4F8F430FEF7CDFED4F89F
:104E8000E00000283FF4F6AD0268514B126C9A42E4
:104E90003FD1006900283FF4EDAD0268126C9A42E0
:104EA00037D1006900283FF4E5AD0268126C9A42E0
:104EB0002FD1006900283FF4DDAD0268126C9A42E0
:104EC00027D1006900283FF4D5AD0268126C9A42E0
:104ED0001FD1006900283FF4CDAD0268126C9A42E0
:104EE00017D1006900283FF4C5AD0268126C9A42E0
:104EF0000FD1006900283FF4BDAD0268126C9A42E0
:104F000007D1006900283FF4B5AD03681B6C9847D2
:104F1000B0E59047AEE500228DF82C21002B49D05A
:104F200019682C4AC96B91423FD1186948B301688E
:104F3000C96B91423AD1006918B30168C96B9142BB
:104F400034D10069E8B10168C96B91422ED1006982
:104F5000B8B10168C96B914228D1006988B1016874
:104F6000C96B914222D1006958B10168C96B914265
:104F70001CD1006928B10368DB6B9847D4F8E03096
:104F80001EE700228DF82D2119684992896C0F4A7D
:104F900091423FF422AF18468847014660E70E4928
:104FA0005EE7002248A89847ADE518468847D4F840
:104FB000E03005E749938DF82D31074950E7304639
:104FC000984744E630469847EBE500BF29010000CA
:104FD00011010000010100006C0100201A69002A83
:104FE0003FF4D3AD1168096A814240F0E380D2F802
:104FF00010E0C2F80090BEF1000F57D0DEF810109C
:105000000139CEF81010002950D111690091002902
:105010004CD000990968096A814240F0D780009914
:10502000D1F810E0C1F80090BEF1000F36D0DEF8E4
:1050300010100139CEF8101081BB0099D1F810C0C2
:10504000BCF1000F2AD0DCF80010096A814240F060
:10505000CB80DCF81000CCF80090B8B1016901F108
:10506000FF3EC0F810E0BEF1000F0FD1DCF81000D9
:1050700060B1D0F800E0CDF80CC002920193DEF8E8
:1050800020309847DDF80CC0029A019B604614213D
:10509000029201930CF004F9019B029A00981421EA
:1050A000029201930CF0FCF8019B029A1046142125
:1050B00000930CF0F5F8009B67E51A69002A3FF4AD
:1050C000BAAD1168096A81426FD1D2F810E0C2F816
:1050D0000090BEF1000F55D0DEF810100139CEF867
:1050E000101000294ED11169009100294AD0009971
:1050F0000968096A814262D10099D1F810E0C1F8CB
:105100000090BEF1000F35D0DEF810100139CEF856
:10511000101079BB0099D1F810C0BCF1000F29D054
:10512000DCF80010096A814257D1DCF81000CCF895
:105130000090B8B1016901F1FF3EC0F810E0BEF186
:10514000000F0FD1DCF8100060B1D0F800E0CDF80E
:105150000CC002920193DEF820309847DDF80CC0B5
:10516000029A019B60461421029201930CF098F878
:10517000019B029A00981421029201930CF090F87E
:10518000019B029A1046142100930CF089F8009BB1
:1051900051E55046984700E55046984753E5184674
:1051A00090474CE518469047F3E400931046884733
:1051B000009B40E5009310468847009BE5E402927F
:1051C000019300988847029A019BDBE702920193C2
:1051D00000988847029A019B68E702926046019313
:1051E0008847029A019BC5E702926046019388476F
:1051F000029A019B52E700BF012290F8F83070B587
:1052000005460E4680F8F92073B1D5F8F43053B155
:1052100000242246314628460134FFF7DBFBD5F84F
:10522000F430A342F5D870BDFEF79CFDEDE700BF5A
:1052300030B5B2F1FF3F14BF15460D46C5B0044668
:105240002A46FFF7C7FB01232A46214684F800318E
:105250006846FEF7C9FD019BC4F8FC3045B030BD7F
:1052600090F8F83010B5044682B08BB12AB12046D0
:1052700002B0BDE81040FFF7DBBF94F8F93073B11E
:105280000022012384F80021C4F8FC3002B010BDD4
:105290008DE80600FEF766FD9DE80600E6E720467D
:1052A000FFF7AAFFECE700BF2DE9F04F00EB810903
:1052B000D5B000230391D9F8581002900AA80C68C1
:1052C00001922468A0470E98002800F0D38103685B
:1052D000DFF864A3DB6C534540F07E820069002850
:1052E00000F0C8810368DB6C534540F075820069AB
:1052F000002800F0BF810368DB6C534540F06C82EE
:105300000069002800F0B6810368DB6C534540F06B
:1053100063820069002800F0AD810368DB6C5345AF
:1053200040F05A820069002800F0A4810368DB6C19
:10533000534540F051820069002800F09B810368CA
:10534000DB6C534540F048820069002800F09281F0
:105350000368DB6C534540F03F820069002800F091
:1053600089810368DB6C9847002800F08381DFF8AF
:10537000BCB20024DFF8C4825F460E99002900F019
:105380006E810B68A74A1B6D934240F02782096922
:10539000002900F064810B681B6D934240F01E826F
:1053A0000969002900F05B810B681B6D934240F096
:1053B00015820969002900F052810B681B6D934228
:1053C00040F00C820969002900F049810B681B6DCF
:1053D000934240F003820969002900F040810B6884
:1053E0001B6D934240F0FA810969002900F0378172
:1053F0000B6800220FA81B6D98476CB12369013B15
:1054000023614BB923682046874A1B6A934240F0C8
:10541000DD8214210BF044FF139C002C00F0BC82B1
:1054200023692268581C2061526C424540F0AA82D0
:10543000002800F09782D3F801305B6C434540F0C0
:105440009D820069002800F08D8203685B6C4345F3
:1054500040F094820069002800F0848203685B6C4D
:10546000434540F08B820069002800F07B8203688E
:105470005B6C434540F082820069002800F0728234
:1054800003685B6C9847139A06460F976749002A92
:105490004AD01369013B1361002B45D1139D002DA8
:1054A00042D02B68604A1B6A934240F070822A699E
:1054B0002960002A34D01369013B136183BBD5F8FE
:1054C00010B0BBF1000F2BD0DBF80030564A1B6A3E
:1054D000934240F07D82DBF81020CBF80010DAB167
:1054E0001369013B1361BBB9DBF81030A3B11A6833
:1054F0004D49126A8A4240F06E8219691F60DFF8D6
:105500002CC129B10A69013A0A61002A00F07081B0
:10551000184614210BF0C4FE584614210BF0C0FEAF
:10552000284614210BF0BCFE002E00F03582002C22
:1055300000F0008222683E4B926C9A4240F0188242
:105540002069002800F018820268926C9A4240F0AC
:1055500010820069002800F00F820268926C9A4263
:1055600040F007820069002800F006820268926C11
:105570009A4240F0FE810069002800F0FD81026837
:10558000926C9A4240F0F5810069002800F0F481A5
:105590000268926C9A4240F0EC810069002800F0A9
:1055A000EB8103689B6C9847034614AD019A21492F
:1055B00028460DF017FC2368DB6C534540F0D5817D
:1055C0002069002800F0BD810368DB6C534540F082
:1055D000CD810069002800F0B4810368DB6C53457D
:1055E00040F0C4810069002800F0AB810368DB6CE7
:1055F000534540F0BB810069002800F0A281036898
:10560000DB6C534540F0B2810069002800F09981BD
:105610000368DB6C534540F0A9810069002800F065
:1056200090810DE049010000690D00007400002028
:10563000290100000C0300203D0100001D010000B5
:105640000368DB6C9847002800F07B8103992A46A9
:105650000298FFF729FE0E9900297FF492AE0023ED
:105660004FF47A720F978DF840308DF848301393CD
:105670001192C2E6019CDFF870B120460DF080FC6B
:105680000146204609F086FE56480BF077FDD9F812
:105690005800214603681B6998470E9ACDF828B038
:1056A0005149002A00F095801369013B1361002BDA
:1056B00040F08F800E9C002C00F08B8023684B48BC
:1056C0001B6A834240F08A8122692160002A7CD0D3
:1056D0001369013B1361002B77D12569002D74D02C
:1056E0002B681B6A834240F083812A692960002A63
:1056F00067D01369013B1361002B62D12E69002E24
:105700005FD033681B6A834240F07C813269C6F8FF
:1057100000B03549002A50D01369013B1361002BBA
:105720004BD13769002F48D03B681B6A834240F059
:105730006C813A693960002A3BD01369013B1361DF
:10574000002B36D1D7F81080B8F1000F31D0D8F83F
:1057500000301B6A834240F06981D8F81020C8F8F5
:1057600000B021490AB31369013B1361EBB9D8F8C2
:105770001090B9F1000F18D0D9F800301B6A83429D
:1057800040F05F81D9F81020C9F800104AB11369C0
:10579000013B13612BB9D9F8100010B103681B6AE3
:1057A0009847484614210BF07BFD404614210BF02E
:1057B00077FD384614210BF073FD304614210BF0B1
:1057C0006FFD284614210BF06BFD204614210BF0D1
:1057D00067FD55B0BDE8F08F9847C5E500220FA8DA
:1057E00098470AE6580C002074000020690D00005C
:1057F0001A69002A3FF48CAE11689348096A814205
:1058000040F0F180D2F810E0C2F800C0BEF1000F05
:1058100000F08980DEF810100139CEF81010002950
:1058200040F081801169049100297CD00499864858
:105830000968096A814240F0DE800499DFF818C2E5
:10584000D1F810E00F60BEF1000F64D0DEF8101048
:105850000139CEF8101000295DD10499096905912C
:10586000002958D0059978480968096A814240F0B2
:10587000CF800598D0F810E0C0F800C0BEF1000F4E
:1058800041D0DEF810100139CEF8101000293AD1BD
:10589000059909690691002935D006996A48096871
:1058A000096A814240F0BB800698D0F810E0C0F849
:1058B00000C0BEF1000F1ED0DEF810100139CEF886
:1058C0001010C1B906990969A9B10868006A86462D
:1058D0005D48864540F0AD8008460992089340F83F
:1058E000107B0791FDF77EFF0799084614210BF006
:1058F000D7FC089B099A06981421089207930BF08D
:10590000CFFC079B089A05981421079206930BF089
:10591000C7FC069B079A04981421069205930BF086
:10592000BFFC059B069A1046142104930BF0B8FCAB
:10593000049BEDE514AD454B019A454928460DF011
:1059400051FA28460DF01CFB0146284609F022FDBD
:1059500040480BF013FCD9F85800294603681B692E
:1059600098470AE5139A00268FE5204698476AE68D
:1059700020469047034618E6344B16E69847139A9C
:10598000064682E520469047139A06467DE528465E
:105990009847002E7FF4CBADD9F85800BB4601994B
:1059A00003685B699847002C3FF477AE2369013B9D
:1059B0002361002B7FF471AE23682046224A1B6AC4
:1059C00093420ED114210BF06BFC66E6984723E559
:1059D00058469847A4E5184690479DE520469847C5
:1059E000F7E6984759E6049310468847049B8FE5ED
:1059F00028469847E9E60692059304988847069A50
:105A0000059B90E730469847DBE638469847D4E652
:105A10000792069305988847079A069B7BE70892AA
:105A2000079306988847089A079B6CE74046984773
:105A3000BFE608920846079373469847089A079B63
:105A400059E748469847B0E6690D00006C01002010
:105A50000C030020580C002074000020F0B5ADF2BB
:105A6000445D05460E464FF4807344AAFEF7ECFBF6
:105A70003246294684A8FEF7B7F944AABDF81E129B
:105A80002846FFF711FC002384AA314628468DF8EA
:105A90002032FEF7C1F8849A2946C8A8FEF7A4F977
:105AA000C99FBE4227D03A4629460DF58660FEF7CB
:105AB0009BF9DDF83844A64201D126E01C46224677
:105AC00029466846FEF790F94FF4887269460DF54D
:105AD000866009F0A7F8DDF838349E42EED12846FA
:105AE000869B0DF586622146CDF83834FEF794F892
:105AF0000DF2445DF0BD2846869BC8AA8499C993DF
:105B0000FEF78AF80DF2445DF0BD3C46E7E700BFC2
:105B10004A1C04D008B5FFF7A1FF012008BD0120F1
:105B2000704700BF00EB8101496D2DE9F04F0C6813
:105B3000ADF62C0D06461F46684600232468A04794
:105B4000049A002A00F0138213689C4D5B6CAB42F0
:105B500040F0BC811069002800F0108103685B6C84
:105B6000AB4240F0B4810069002800F0078103686F
:105B70005B6CAB4240F0AB810069002800F0FE8016
:105B800003685B6CAB4240F0A2810069002800F022
:105B9000F58003685B6CAB4240F099810069002896
:105BA00000F0EC8003685B6CAB4240F090810069D0
:105BB000002800F0E38003685B6CAB4240F0878113
:105BC0000069002800F0DA8003685B6C984704469F
:105BD000002C00F0F08306EB870605A80223DDF811
:105BE0005028716D0C682468A0470998002800F0BF
:105BF000718103685B6CAB4240F051820069002800
:105C000000F0688103685B6CAB4240F04882006939
:105C1000002800F05F8103685B6CAB4240F03F827C
:105C20000069002800F0568103685B6CAB4240F0CD
:105C300036820069002800F04D8103685B6CAB423E
:105C400040F02D820069002800F0448103685B6CFD
:105C5000AB4240F024820069002800F03B810368D9
:105C60005B6CAB4240F01B820069002800F032817F
:105C700003685B6CAB4240F012820069002800F0C0
:105C8000298103685B6CAB4240F0098200690028FF
:105C900000F0208103685B6CAB4240F00082006939
:105CA000002800F0178103685B6C9847002800F01B
:105CB00011814FF0FF34424D049B002B00F0FD8218
:105CC00019680A69AA4240F0F1821A69002A00F0B4
:105CD000F08210680669AE4240F03C8210690028EC
:105CE00000F0DF8106683669AE4240F03482006918
:105CF000002800F0D68106683669AE4240F02B825B
:105D00000069002800F0CD8106683669AE4240F097
:105D100022820069002800F0C48106683669AE421C
:105D200040F019820069002800F0BB8106683669DE
:105D3000AE4240F010820069002800F0B28106688F
:105D40003669AE4240F007820069002800F0A98160
:105D500006683669AE4240F0FE810069002800F016
:105D6000A08106683669AE4240F0F58100690028DE
:105D700000F0978103681B699847EDE1114E0024FC
:105D800000961369013B136193B9049D85B12B689B
:105D90000D4A1B6A934240F0D88229692E6019B1DE
:105DA0000B69013B0B618BB1284614210BF078FA8B
:105DB00020460DF62C0DBDE8F08F00BF1D01000040
:105DC000A500000074000020690D00002F69002F5D
:105DD000EAD03B681B6A934240F0C88239693E6052
:105DE00000296ED00B69013B0B61002B69D1D7F8FC
:105DF0001080B8F1000F64D0D8F800301B6A9342CD
:105E000040F0C782D8F81010C8F80060002954D0BC
:105E10000B69013B0B61002B4FD1D8F81090B9F101
:105E2000000F4AD0D9F800301B6A934240F0B48288
:105E3000D9F81010C9F8006000293AD00B69013B6D
:105E40000B61002B35D1D9F810A0BAF1000F30D07A
:105E5000DAF800301B6A934240F0A782DAF810109B
:105E6000CAF8006009B30B69013B0B61EBB9DAF8C2
:105E700010B0BBF1000F18D0DBF800301B6A934262
:105E800040F09682DBF81020CBF800604AB113692D
:105E9000013B13612BB9DBF8100010B103681B6ADA
:105EA0009847584614210BF0FBF9504614210BF08B
:105EB000F7F9484614210BF0F3F9404614210BF092
:105EC000EFF9384614210BF0EBF96DE710469847CF
:105ED00004467DE6049800284FD003689A491B6C5D
:105EE0008B4240F0D8800069002846D003681B6CC4
:105EF0008B4240F0D080006900283ED003681B6CC4
:105F00008B4240F0C8800069002836D003681B6CC3
:105F10008B4240F0C080006900282ED003681B6CC3
:105F20008B4240F0B880006938B303681B6C8B4229
:105F300040F0B180006900B303681B6C8B4240F0F5
:105F4000AA800069C8B103681B6C8B4240F0A38033
:105F5000006990B103681B6C8B4240F09C80006923
:105F600058B1036800241B6C9847099B07E014464E
:105F700020460DF62C0DBDE8F08F099B0024734ED2
:105F80000596002B00F081801A69013A1A61002AF7
:105F90007BD1099D002D78D02B686D4A1B6A9342F6
:105FA00040F0E78129692E6000296AD00B69013B26
:105FB0000B61002B65D12F69002F62D03B681B6AF3
:105FC000934240F0E38139693E60002955D00B6966
:105FD000013B0B61002B50D1D7F81080B8F1000FB6
:105FE0004BD0D8F800301B6A934240F0D881D8F8E3
:105FF0001010C8F80060554800293AD00B69013BE1
:106000000B61002B35D1D8F81090B9F1000F30D0CA
:10601000D9F800301B6A934240F0C481D9F81010BF
:10602000C9F8000009B30B69013B0B61EBB9D9F862
:1060300010A0BAF1000F18D0DAF800301B6A9342B2
:1060400040F0BE81DAF81020CAF800604AB1136946
:10605000013B13612BB9DAF8100010B103681B6A19
:106060009847504614210BF01BF9484614210BF0B9
:1060700017F9404614210BF013F9384614210BF0A0
:106080000FF9284614210BF00BF9049A0096002A08
:106090007FF477AE8CE698470024099B6FE798471A
:1060A00004E60D6C28498D4240F066811046036875
:1060B0001B6C8B4240F058810069002800F0FD8085
:1060C00003681B6C8B4240F04F810069002800F090
:1060D000F48003681B6C8B4240F046810069002805
:1060E00000F0EB8003681B6C8B4240F03D8100693F
:1060F000002800F0E28003681B6C8B4240F0348182
:106100000069002800F0D98003681B6C8B4240F0C6
:106110002B810069002800F0D08003681B6C8B4243
:1061200040F022810069002800F0C78003681B6CE2
:106130008B4240F019810069002800F0BE8003689E
:106140001B6C9847B9E000BF1101000074000020EB
:10615000690D00001046B0470028049B54DD002B59
:1061600056D01968864A8C6A94423ED11869002834
:106170004ED001688C6A944238D10069002847D01B
:1061800001688C6A944231D10069002840D00168CE
:106190008C6A94422AD10069002839D001688C6A3F
:1061A000944223D10069002832D001688C6A94425D
:1061B0001CD1006960B301688C6A944216D10069F1
:1061C00030B301688C6A944210D1006900B3016851
:1061D0008C6A94420AD10069D0B103684FF400621E
:1061E0000AA99B6A9847024605E018464FF40062E8
:1061F0000AA9A0470246141E05DB099870B9B4F538
:10620000006FBFF659AD049B002B40F0A48054E012
:106210000998002800F09C80002214460168594B20
:10622000CE6A9E423FD100690028E8D00168CE6A5C
:106230009E4238D100690028E1D00168CE6A9E42B2
:1062400031D100690028DAD00168CE6A9E422AD195
:1062500000690028D3D00168CE6A9E4223D100692C
:106260000028CCD00168CE6A9E421CD1006900286B
:10627000C5D00168CE6A9E4215D100690028BED003
:106280000168CE6A9E420ED100690028B7D001682D
:10629000CE6A9E4207D100690028B0D003680AA9DF
:1062A000DB6A9847ABE70AA9B047A8E718469047CA
:1062B00052E70D6C344A95425ED1099B002B41D0C8
:1062C0001A683149126C8A4239D11869002839D0CC
:1062D0000268126C8A4233D10069002832D0026809
:1062E000126C8A422CD1006900282BD00268126CF3
:1062F0008A4225D1006928B30268126C8A421FD1F4
:106300000069F8B10268126C8A4219D10069C8B1FB
:106310000268126C8A4213D1006998B10268126C4B
:106320008A420DD1006968B10268126C8A4207D1B5
:10633000006938B103681B6C9847099B02E0184656
:106340009047099BE443E40F19E6284698472FE558
:10635000002B33D004461A680B49156C8D420BD1C3
:1063600018690028A9D0A2E69847A6E738469847BA
:106370001AE52846984788E61846A8479DE700BFD3
:106380008D00000099000000110100003846984778
:1063900077E64046984794E5484698478DE540465D
:1063A00098476AE64846984763E65046984780E52E
:1063B0005846984779E5049A034E67E61C46C1E7BC
:1063C0005046984751E600BF740000202DE9F04187
:1063D000ADF5A76DB3F1FF3F14BF1F461746044646
:1063E0000A468846014682A8FDF7FEFC3A46214649
:1063F000C6A8FDF7F9FC9DF81462002E42D186A9CB
:106400004FF480720DF587600CF09AFDD4F8F450CB
:10641000BDF826E30DF58562691CC79B2046ADF8E3
:1064200036E4C4F8F4102946CDF83034CDF8287499
:10643000CDF82C648DF834648DF83564FDF7ECFBF1
:10644000C6AA3946204642AEC795FDF7E5FB414650
:1064500002AA4FF480732046FDF7F6FE0746294650
:1064600032464FF480732046FDF7EEFE0096034659
:1064700002AA3946201DFFF755FB28460DF5A76DEA
:10648000BDE8F081BDF816124246204686AD0131C6
:10649000FEF7A0FA9DF8143220683A460033BDF8A2
:1064A0002613009518BF0123C56A2046A847054654
:1064B00020684146BDF826232B46466D2046B0474E
:1064C00028460DF5A76DBDE8F08100BF2DE9F04726
:1064D0000446ADF5C96DB3F1FF3F14BF9846904631
:1064E0000A4682A82146FDF77FFC42462146C6A8FF
:1064F000BDF81692FDF778FC839E002E68D000252B
:1065000042AF04F1040A18E0BDF8463504EB8303FA
:10651000986D03689B689847324649462046FEF7C7
:1065200059FA226831462B46566D2046BDF826237F
:10653000B047DDF83064002E3FD0324621460DF5DD
:106540008560FDF751FC4FF488720DF585610DF5FE
:10655000A76008F067FBCDF84055D4F8F4500DF56E
:10656000A762BDF826E320466B1C2946ADF846E538
:10657000C4F8F430CDF83885FDF74EFB4FF4807346
:1065800002AA31462046FDF75FFE29464FF480738C
:106590003A462046FDF758FE9DF84435394602AA92
:1065A0005046002BB0D1BDF8463549460097FFF75D
:1065B000B9FADDF83064002EBFD120464146C6AAA4
:1065C000C795FDF729FB01200DF5C96DBDE8F087E2
:1065D0003546F2E72DE9F0411D4600EB8303044602
:1065E000069E586D0F463146904603689B68984753
:1065F00008B9BDE8F08106962B464246394620464A
:10660000BDE8F04100F000B82DE9F04F00EB810A41
:106610008846ADF5157D8146DAF8541002930AA834
:106620000C68002303922468A0470E9B002B00F007
:10663000AA841A68734E526CB24240F06A8118699B
:10664000002800F0BD800268526CB24240F06281C6
:106650000069002800F0B4800268526CB24240F039
:1066600059810069002800F0AB800268526CB24288
:1066700040F050810069002800F0A2800268526C4E
:10668000B24240F047810069002800F0998002681A
:10669000526CB24240F03E810069002800F09080C8
:1066A0000268526CB24240F035810069002800F067
:1066B000878003685B6C98470446002C00F0BE841A
:1066C00054ACDFF850B14FF48072039914A80CF069
:1066D00037FC14A80CF054FC14AB184410F8013C1F
:1066E0002F2B05D04FF48072474914A80CF0FEFB05
:1066F0004FF480729E9920460CF022FC20460CF04C
:106700003FFC204410F8013C2F2B05D04FF4807241
:106710003D4920460CF0EAFB0E99002900F05B8110
:106720000B683A4A1B6D934240F068810969002961
:1067300000F051810B681B6D934240F05F81096945
:10674000002900F048810B681B6D934240F0568190
:106750000969002900F03F810B681B6D934240F0EE
:106760004D810969002900F036810B681B6D934249
:1067700040F044810969002900F02D810B681B6DF0
:10678000934240F03B810969002900F024810B68A5
:106790001B6D934240F032810969002900F01B8192
:1067A0000B681B6D934240F029810969002900F0B4
:1067B00012810FAD0B68002228461B6D984721E11E
:1067C000DFF850B00024CDF828B01A69013A1A61F8
:1067D0009AB90E9D8DB12A680D4B126A9A4240F00B
:1067E000DF832969C5F800B019B10A69013A0A6165
:1067F00092B1284614210AF053FD20460DF5157D6F
:10680000BDE8F08F1D0100000803002049010000D1
:10681000690D0000740000202E69002EE9D0326856
:10682000126A9A4240F0C7833169C6F800B0002965
:106830006AD00A69013A0A61002A65D13769002FD6
:1068400062D03A68126A9A4240F0C3833969C7F845
:1068500000B0002954D00A69013A0A61002A4FD1D8
:10686000D7F81080B8F1000F4AD0D8F80020126A8B
:106870009A4240F0B983D8F81010C8F800B0002947
:106880003AD00A69013A0A61002A35D1D8F8109045
:10689000B9F1000F30D0D9F80020126A9A4240F0C6
:1068A000B783D9F81010C9F800B009B30A69013AE2
:1068B0000A61EAB9D9F810A0BAF1000F18D0DAF8D5
