:1000000000800020BD010000A5D000005DD00000F0
:100010005DD000005DD000005DD000005DD000002C
:100020005DD000005DD000005DD00000A5D00000D4
:10003000A5D000005DD0000045E7000049E70000C2
:10004000A5D00000A5D00000A5D00000A5D00000DC
:10005000A5D00000A5D00000A5D00000A5D00000CC
:10006000A5D00000A5D00000A5D00000A5D00000BC
:10007000A5D00000A5D00000A5D00000A5D00000AC
:10008000A5D00000A5D00000A5D00000A5D000009C
:10009000A5D00000A5D00000A5D00000A5D000008C
:1000A000BD8C0000C98C0000A5D00000A5D00000C8
:1000B000A5D00000A5D00000A5D00000A5D000006C
:1000C000A5D00000A5D00000A5D00000A5D000005C
:1000D000A5D00000A5D00000A5D00000A5D000004C
:1000E000A5D00000A5D00000A5D00000A5D000003C
:1000F000A5D00000A5D00000A5D00000A5D000002C
:10010000A5D00000A5D00000A5D00000A5D000001B
:10011000A5D00000A5D00000A5D00000A5D000000B
:10012000A5D00000A5D00000A5D00000A5D00000FB
:10013000A5D00000A5D00000A5D00000A5D00000EB
:10014000A5D00000A5D00000A5D00000A5D00000DB
:10015000A5D00000A5D00000A5D00000A5D00000CB
:10016000A5D0000071DB0000A5D00000A5D00000E4
:10017000A5D00000A5D00000A5D00000A5D00000AB
:10018000A5D00000A5D00000A5D00000A5D000009B
:10019000A5D00000A5D00000A5D00000A5D000008B
:1001A000A5D00000A5D00000A5D00000A5D000007B
:1001B000A5D00000A5D00000C5E80000564B4CF2C9
:1001C000205210B51A804DF628121A8000BF00BFC9
:1001D0000CF06CFF514B4FF010621A60504A9A605D
:1001E000504ADA60504A136813F4807304D14F49BF
:1001F0000B604FF4A85313604D4B1A78110703D5C9
:100200001A7842F008021A704A4B4B492A221A7097
:100210004A4A4B4B8B4204D252F8040F43F8040B6A
:10022000F8E7484B484900228B4202D243F8042B9E
:10023000FAE74649464A002352F8230041F82300D2
:1002400001336F2BF8D1434B434A802103F8011B44
:100250009342FBD1414B3D4A1A60414B8A221A70AE
:10026000A3F5805324225A70A0221A709A7992071B
:10027000FCD59A79D406FCD43A4A937903F00C035E
:10028000082B384BF9D103221A7140225A719A79FE
:100290009006FCD5334A9179324B4906FBD5324A58
:1002A000324911600221516020221A709A7902F0BD
:1002B0000C020C2AFAD12E4B2E4A1A602E4B2F4AD2
:1002C0001A6000225A60072243F8042C2C4AC3F813
:1002D0000C2D62B60DF0DEFA144B1B68DA0705D55B
:1002E00028480DF049FA284B284A1A60284B1B78F9
:1002F0005B0609D5244C254B22689A4204D121483B
:100300000DF03AFA002323600FF0F4FD0CF0D4FE58
:100310000EF0D0FAFEE700BF0E200540308004400A
:10032000823F04000100002B10D0034014D0034092
:1003300002D0074000E007401097FF1F944B0100D8
:100340006089FF1F1097FF1F343200200082FF1FBB
:100350000000000000E400E05FE400E008ED00E0E1
:100360000050064000400640448004400000030165
:1003700004800440C010050014E000E0FF76010096
:1003800000002020D642F1601CE00340A5C3945A2F
:1003900000F00740FFFFFFFFFFFFFFFFFFFFFFFF32
:1003A000FFFFFFFFFFFFFFFFFFFFFFFFFFFFFFFF5D
:1003B000FFFFFFFFFFFFFFFFFFFFFFFFFFFFFFFF4D
:1003C000FFFFFFFFFFFFFFFFFFFFFFFFFFFFFFFF3D
:1003D000FFFFFFFFFFFFFFFFFFFFFFFFFFFFFFFF2D
:1003E000FFFFFFFFFFFFFFFFFFFFFFFFFFFFFFFF1D
:1003F000FFFFFFFFFFFFFFFFFFFFFFFFFFFFFFFF0D
:10040000FFFFFFFFFFFFFFFFFFFFFFFFDEF9FFFF23
:1004100010B5054C237833B9044B13B10448AFF33E
:1004200000800123237010BD1097FF1F0000000003
:10043000904B0100084B10B51BB108490848AFF3B9
:1004400000800848036803B910BD074B002BFBD0A0
:10045000BDE81040184700BF000000001497FF1FC0
:10046000904B01001097FF1F000000000020704714
:10047000704700BF006910B103689B6A1847704756
:10048000006910B10368DB6A18477047006910B152
:1004900003681B6918477047006910B103689B69BE
:1004A00018474FF0FF307047006910B10368DB68F0
:1004B00018477047006910B10168096B0847704719
:1004C00010B4006918B10468616B10BC084710BC17
:1004D000704700BF006910B103689B6B184700208C
:1004E00000217047006910B10368DB6B18470020DA
:1004F00000217047006910B103681B6C18477047F2
:10050000006910B103685B6C18477047006910B14F
:1005100003689B6C18470148704700BF60430100A7
:10052000006910B10368DB6C1847704738B50B6978
:1005300004462BB11D6819462B6D9847204638BDDF
:100540004FF47A70064A23712373A06022600B690E
:100550002361002BF2D01A6901321A61204638BD9E
:10056000AC410100006910B103685B6D184770472A
:10057000006980B100B5036883B09B6A01220DF168
:100580000701984720B19DF8070003B05DF804FB10
:100590004FF0FF30F9E74FF0FF30704710B582B0F1
:1005A00002AB026803F8011DD46A19460122A04774
:1005B00002B010BDC36D0BB101207047006E00305A
:1005C00018BF0120704700BF704700BF10B5044638
:1005D00002460369054906480EF000F9206920B17A
:1005E0000368BDE810405B6A184710BD8C420100EB
:1005F000508DFF1F02460369014902480EF0EEB814
:10060000A8420100508DFF1F10B50446406E18B17E
:100610000FF0A0FC0023636604F12400BDE8104045
:100620000BF082BD2DE9F041002394B01A46054637
:10063000243104A84FF47A74254F8DF804308DF8D6
:100640000C3012931393029400970BF0C1FD129B90
:10065000002B32D068200EF079F904469DF8046032
:10066000029A9DF80C301B481B4926764FF47A7885
:10067000002620606161E26184F8203004F12400EA
:1006800004A9267126732661C4F808800BF010FDBA
:100690002369124A6761013366662E71C5F80880C6
:1006A0002E732C6123612A600D4B009304A80BF07C
:1006B0003BFD284614B0BDE8F081139B002BC9D147
:1006C000064A2B71AC602B732B612A60ECE700BFEC
:1006D000884101000C42010040410100AC41010091
:1006E000644101002DE9F0410F461646804607F0AF
:1006F00057FC044607F044FC054607F031FCA4F221
:10070000BC739BB27F2B02D8EAB20C2A2BD90023F0
:10071000A8F8003007F0F4FB044607F001FC05469A
:1007200007F00EFCE3B2172B02D8EBB23B2B0BD930
:1007300000233B8007F004FC10F0010F14BF64237A
:1007400000233370BDE8F081C3B23B2BF0D8E40244
:100750006B0104F4FF2403F4FF532343C0F346006A
:1007600003439BB2E5E7C0B21F28D0D86D0105F462
:10077000FF55284340EA43239BB2C9E710B504461E
:100780000DF064FF204610BDC26D62B1137803F016
:10079000080303F0FF0003B3D3695069181A48BF78
:1007A0006FF000407047016EC1B191F8313003F035
:1007B000080303F0FF0083B1D1E90423D1E900016C
:1007C000101A30B463EB010100256FF000448D4234
:1007D00008BF844200D2204630BC704708467047AC
:1007E000836C13B118460AF043BAC06C08B108F024
:1007F00083BC4FF0FF30704700B5836C83B063B1AA
:10080000184601220DF107010AF066F901280CD102
:100810009DF8070003B05DF804FBC06C28B101220D
:100820000DF1070108F094FBF0E74FF0FF30F1E71E
:10083000836C13B118460AF06DBCC06C08B109F0A6
:10084000A1BB704700B5836C83B08DF8071043B12E
:10085000184601220DF107010AF09EFC03B05DF875
:1008600004FBC06C0028F9D001220DF1070109F04A
:1008700095FD03B05DF804FB2DE9F042124C134DD9
:100880002168134E134F2A88DFF85C9086B0D9F8A0
:10089000003003913968029202463068019000915D
:1008A0000D480E490DF09AFF0D4B0E4A1B6805933B
:1008B000059911600023C9F800303B6033602B803C
:1008C000236006B0BDE8F0823897FF1F042B00209C
:1008D000182B00203CB9FF1F508DFF1FC84201009C
:1008E000A4300020202B0020082B002010B5D0F8C9
:1008F00084448EB0A4B10A466846214601230024F0
:100900008DF800408DF801408DF802400AF0D6F8CD
:1009100008B90EB010BD68460BF0D8F80EB010BD87
:10092000D0F888040028F4D00A460123014668461E
:100930008DF831408DF832408DF8334008F0E2FEFA
:100940000028E6D0684609F0E5F90EB010BD00BFFA
:1009500038B5446E0CB1204638BD05464FF4807062
:100960000FF0F0FA0146686680B1E86D0C7028B1AE
:100970004FF480720AF00EFF6C6EECE7286E40B107
:100980004FF4807208F016FA6C6EE4E7024C6C6665
:10099000E1E70C46DFE700BF2C97FF1FD0B5C46D21
:1009A0008CB1012B08BF002A01D30020D0BD114615
:1009B00020460AF0ABFA0028F7D020460AF0B0FB38
:1009C0000028F2D0D0BD046E002CEED0204608F0F6
:1009D000ABFB0028E9D02046BDE8D04009F06CBC54
:1009E00010B5D0F884448EB07CB10A46012304F2DD
:1009F0004441684600248DF800408DF801408DF890
:100A0000024009F099FF0EB010BDD0F8880400280C
:100A1000F9D00A46012300F5896168468DF8314016
:100A20008DF832408DF8334009F084FB0EB010BDD4
:100A300030B5D0F884448FB074B100250A462B46F7
:100A4000214668468DF800508DF801508DF802500F
:100A50000AF034F80FB030BDD0F888040028F9D07F
:100A60000A462346014668468DF831408DF83240EB
:100A70008DF8334008F046FE0FB030BDC36D9BB11A
:100A80001A7812F0700F00D1704710B5044600219B
:100A900018460AF03BFA206E28B100220023BDE878
:100AA000104008F041BB10BD006E0028ECD090F85B
:100AB000313013F0500FE7D00022002308F034BB90
:100AC00070B5D0F884448EB01646C4B1002504F247
:100AD00044440A462B46214668468DF800508DF85E
:100AE00001508DF8025009F089FF08B90EB070BDB1
:100AF0003246214668460AF0F1F80EB070BDD0F8D3
:100B000088040028F2D000F589650A462346294664
:100B100068468DF831408DF832408DF8334008F04A
:100B200071FD0028E2D032462946684609F06EFB86
:100B30000EB070BD30B5D0F884448FB0A4B100259C
:100B40000A462B46214668468DF800508DF8015024
:100B50008DF8025009F0B2FF08B90FB030BD6846F9
:100B60000AF0A6F90FB030BDD0F888040028F4D000
:100B70000A462346014668468DF831408DF83240DA
:100B80008DF8334008F0BEFD0028E6D0684609F035
:100B90002BF90FB030BD00BF38B50546D0F884043E
:100BA000C0B1C469013C0AF0D1FCD5F88434241AE0
:100BB00043B198794FF4007303FA00F080B2A0FBC0
:100BC000040138BDD5F8883463B1D3F83C04A0FBE8
:100BD000040138BDD5F8880420B1D0F8304408F0BD
:100BE00055FFE2E70020002138BD00BFC36D13B1FF
:100BF000586900217047036E13B193E803007047F2
:100C000018461946704700BFC36D13B1D86900215B
:100C10007047036E13B11869596970471846194631
:100C2000704700BFC36D13B1184609F055BF006E81
:100C300008B108F08DB94FF0FF307047C36D13B1A4
:100C400018460AF015B8006E08B108F055BA4FF012
:100C5000FF307047D0F884244AB19179D0694FF4BD
:100C600000738B409BB20138A3FB00017047D0F8A2
:100C7000882432B1D2F83034D2F83C04A3FB00010E
:100C80007047002000217047C36D33B11B7813F00B
:100C9000700F14BF012000207047006E30B190F833
:100CA000313013F0500F14BF01200020704700BFF7
:100CB0002DE9F041012B94B0054641D0022B01F102
:100CC000040140F20223684618BF00230BF014FB16
:100CD000129B002B3DD068200DF038FE04469DF895
:100CE000046022482249029A9DF80C30206004AF2B
:100CF0002676616100264FF47A78394604F12400A3
:100D0000E26184F82030267126732661C4F80880D9
:100D10000BF0CEF923691749174A666601332E7125
:100D2000C5F808802E732C61616123612A60134B22
:100D3000009338460BF0F8F9284614B0BDE8F0816E
:100D400044F20223043168460BF0D6FA129B002BC2
:100D5000C1D1139B002BBED14FF47A71064A2B717F
:100D60002B732B61A9602A6004AFE0E70C420100FD
:100D70004041010088410100AC4101006441010093
:100D8000C36D13B118460AF0C5B9006E08B109F079
:100D9000F9B87047836C13B118460AF0FDB9C06CFE
:100DA00008B109F0FBBA7047C36D13B118460AF0D9
:100DB000F3B9006E08B109F0F1BA7047826C62B104
:100DC000137803F0080303F0FF0003B3D3695069FD
:100DD000181A48BF6FF000407047C16CC1B191F85C
:100DE000313003F0080303F0FF0083B1D1E904239D
:100DF000D1E90001101A30B463EB010100256FF056
:100E000000448D4208BF844200D2204630BC704767
:100E100008467047D0B4039C16461F4634B1012CD7
:100E20001ED0022C0DD00020D0BC7047C46DDCB1A8
:100E3000012B08BF002AF6D220461146D0BC0AF08A
:100E400065B8C36DB3B1DA69B61847F10007012F71
:100E500008BF002EE7D231461846D0BC0AF056B87B
:100E6000C36D8BB15A69EFE7006E0028DBD0D0BCB0
:100E700008F05AB9006E0028D5D0D0E904239219A1
:100E80007B41D0BC08F050B9006E0028CBD0D0E92F
:100E9000002392197B41EAE70269084B10B504462A
:100EA000036042B11369013B136123B9006910B1BA
:100EB00003681B6A9847204610BD00BFAC41010083
:100EC00038B5C36D144A0260044600F12405F3B13D
:100ED00028460BF029F9606E08B10FF03BF80F4B74
:100EE000636128460BF020F922690D4B236042B163
:100EF0001369013B136123B9206910B103681B6AB0
:100F00009847204668210DF023FD204638BD036E2A
:100F1000002BDDD1DFE700BF0C420100644101007E
:100F2000AC41010002690A4B10B50446036042B1AE
:100F30001369013B136123B9006910B103681B6A8F
:100F40009847204614210DF003FD204610BD00BF38
:100F5000AC410100D0F8E02038B51A4B1A4D0360BF
:100F60000446C0F8D0501AB11369013B1361CBB1EC
:100F7000D4F8CC20C4F8BC501AB11369013B1361FA
:100F8000C3B1D4F8B820C4F8A8504AB11369013BE2
:100F900013612BB9D4F8B80010B103681B6A9847E5
:100FA000204638BDD0F8E0000028E1D003681B6A75
:100FB0009847DDE7D4F8CC000028E2D003681B6A2C
:100FC0009847DEE70C440100AC41010038B5C36D21
:100FD000124A0260044600F12405D3B128460BF002
:100FE000A3F8606E08B10EF0B5FF0D4B63612846A3
:100FF0000BF09AF822690B4B236042B11369013B55
:10100000136123B9206910B103681B6A9847204611
:1010100038BD036E002BE1D1E3E700BF0C420100B5
:1010200064410100AC4101002DE9F04307218DB07E
:101030005D485E4E5E4D06F057FD0C215A4806F0A5
:101040009BFD0E21584806F0DBFD01210A200CF023
:10105000ABFB584B002410220A271A608DF80D4074
:10106000059403AB8DF80C70049693E8070006AB6B
:1010700083E807008DF8194008948DF818700796DA
:1010800093E8070009AB83E8070005F294440ECB10
:1010900020460BF07BFA95F8A334C5F8904473B161
:1010A000454B46491B68009300220A2344480DF033
:1010B00095FB43480DB0BDE8F0430DF077BB2146EA
:1010C000281D0BF0B5F80028EAD03E49DFF8E8808B
:1010D0004B68D8F80020132B05DC01EB83040133A7
:1010E000A260A5654B60D5F88404314B002846D03A
:1010F0008679C4694FF4007303FA06F6B6B2013C70
:10110000A6FB04670AF022FAD5F88434284A241A88
:101110005BB39879D8F800204FF4007303FA00F01D
:1011200080B2A0FB04450092002291462649244843
:101130004FF00A080A230DF051FB32463B468DE87A
:1011400000031F480DF058FB012120480BF012FE50
:101150008DE8000322462B4619480DF04DFB184838
:101160000DB0BDE8F0430DF021BBD2F88834D8F8BB
:101170000020ABB1D3F83C04A4FB0045D3E7D3F87F
:10118000880440B1D0F83044D0F83C64A4FB066732
:1011900008F07CFCB8E70024002526462F46C2E76D
:1011A00000240025BFE700BF608AFF1F408AF701C7
:1011B00048C6FF1F84F00F40448AFF1FE44201002D
:1011C000508DFF1F40BDFF1F0C430100384501003B
:1011D00070B5134E134B34881D880134A4B2182CFB
:1011E00028BF0024AC4218D001460F484FF480625B
:1011F00000EB84200BF084FCAC420C4B348036BFF7
:10120000C5F11805641B64191A88A4B2A24202D25F
:101210001C80012070BD012070BD002070BD00BF8A
:1012200044BEFF1F062B0020F0CAFF1F042B002026
:10123000F8B51648164C02682168164B1769164D0A
:1012400006791648A3F58062013121609F4238BFBC
:101250001A462E70002352F8331040F83310013331
:10126000802BF8D10D49134601F580605A684A6019
:101270000831884203F10803F8D10848FFF7A8FFB6
:1012800018B9074A136801331360F8BD3097FF1F80
:101290003CB9FF1F48C2FF1F1F80004040B9FF1F1D
:1012A000182B002038B5124C124B22881B88B2FB39
:1012B000F1F2B3FBF1F5AA4218D093B201339BB21D
:1012C0001822B2FBF1F293420CD20B4D8A0211FBB1
:1012D00003F102FB03538DB219460BF011FC25807C
:1012E000012038BD044B8A020025F5E7002038BDF7
:1012F000062B002044BEFF1FF0CAFF1F10B5044696
:101300000BF00EFD08B9204610BD0BF0CDFCC0B2AD
:10131000722819D073280CD07128F4D1002CF2DB7C
:1013200005210F480BF026FD0E480DF03FFA04246E
:10133000E9E7002CE7DA06210B480BF01BFD094812
:101340000DF034FA0024DEE7052108480BF012FD09
:1013500004480DF02BFA064806F0E2F9D3E700BF87
:101360002C430100508DFF1F244301003443010032
:10137000F02A002070B50C4E33699BB11A680546FF
:101380001846536C0C46984760B1306920B1036829
:101390002946DB6A22469847201AB0FA80F04009B5
:1013A00000B270BD002070BD488AFF1F10B5084C08
:1013B000206958B103681B6C9847206930B10368F5
:1013C0005B6C984780F00100C0B210BD012010BDD9
:1013D000488AFF1F30B587B004A906F05DFC9DF870
:1013E00016209DF812009DF814109DF810509DF8DD
:1013F0001140019000919DF81530039502F2B272F0
:101400000294034903480DF0E9F907B030BD00BF6D
:101410003C430100508DFF1F10B500214FF40072B6
:1014200004460FF053F9084B012218681B79237109
:10143000C4F8052020600CF099F9C4F809000CF0FC
:10144000B9F9C4F80D0010BD6443010010B50D4C8E
:101450002069A8B103685B6C984788B10A48FFF718
:10146000DBFF206958B103680749DB6A4FF400725B
:101470009847A0F50070B0FA80F0400900B210BDA6
:10148000002010BD488AFF1F3C97FF1FF0B583B0B6
:1014900007460CF06BF9194C194B1A4E1A4A1B49A6
:1014A000A4FB00E56D09A3FB00E3A4FB05E4DB0A54
:1014B0006409A6FB03E6C4EB0414A5EB8404360917
:1014C000C5EB0515A0EB850506EB4606A2FB000261
:1014D000120CA3EBC6038DE8300038460FF04AFB30
:1014E00038460FF00DFC014638460BF043FC084827
:1014F0000DF05CF9012003B0F0BD00BF8988888839
:10150000C5B3A291ABAAAAAA07452EC26C4301009B
:10151000508DFF1F2DE9F04180468EB008460D46E4
:101520000FF0EEFB00285CDD691E00234FF0FF3258
:1015300011F8014F2F2C08BF1A4601339842F7D1FA
:10154000002A4EDB324B4FF49566002706FB083627
:10155000AF54D6F884E4AC18BEF1000F12D0714637
:101560003B462A4668468DF800708DF801708DF86C
:10157000027009F0A3FAA8B12F23237001200EB046
:10158000BDE8F081D6F8881461B173462A466846F2
:101590008DF831E08DF832E08DF833E008F0B2F8E4
:1015A0000028E9D128460FF0ABFB014628460BF096
:1015B000E1FB18480DF0FAF8D6F88474AFB12A466A
:1015C00007F244410025012368468DF800508DF84C
:1015D00001508DF8025009F0AFF90028CCD100205D
:1015E000CDE701200EB0BDE8F081D6F888140029BF
:1015F000F5D02A4601F58961012368468DF83170DE
:101600008DF832708DF8337008F094FDE5E700BF77
:1016100048C6FF1F508DFF1FF0B5A9B004466846AD
:10162000FFF734FF10B9002029B0F0BD694620460D
:10163000FFF770FF0028F6D02F4B4FF4956101FBA8
:1016400004316A4644F20223043114A80AF054FE1D
:10165000269B002B47D068200DF078F90446274DD3
:101660009DF85410169A9DF85C3025604FF47A70FE
:10167000002518AE224FA0602176E26184F8203068
:1016800004F12400314667612571257325610AF054
:101690000FFD23691B4A65660133626123611A4DA0
:1016A0001A4B149330460AF03FFD2A6942B1136980
:1016B000013B136123B9286910B103681B6A98477D
:1016C0002C61114DACB1236933B9236820461B6AE4
:1016D00098472C69002CA6D0236820465B6C98475D
:1016E00000B229B0F0BD27980028B4D1044618AE46
:1016F000D5E7204698E700BF48C6FF1F0C4201000F
:101700004041010088410100488AFF1F64410100F7
:10171000F0B5294D83B02B68009307460C46274847
:10172000009E0821FFF7BEFD48B1DCB1012C1DD0A1
:1017300007DD4FF400512148FFF71CFE60B3032C76
:101740001FD0042C22D02B6801931D4A019B1168E5
:101750009B1B8B4203D91360204603B0F0BD20468B
:1017600003B0F0BD3846FFF757FFC0B1FFF76EFE7C
:10177000C0B14FF400511148FFF7FCFD60B10224E5
:10178000E1E7FFF713FE98B10024DCE7FFF70EFE58
:1017900058B14FF0FF34D6E76FF00300DDE76FF08C
:1017A0000100DAE76FF00200D7E76FF00500D4E739
:1017B0006FF00400D1E700BFA43000203C99FF1F68
:1017C0003897FF1F2DE9F047ADF5806D89469046AB
:1017D0000DF042FF014623480EF046F86E460746DC
:1017E0006D460024013420460DF036FF39460DF0D9
:1017F00087FFFF2C45F8040FF4D100244FF07E57EB
:10180000A24602E00134FF2C1CD056F8045F4FF0D2
:101810008B4128460EF012F90028F3D04FF07E518C
:1018200028460DF097F839460EF008F94FF07E5132
:101830000028E7D028460DF08DF8A2460134FF2C91
:101840000746E2D101AA0AF1010352F82A00C9F8B9
:1018500000300EF031F9C8F800000DF5806DBDE8DC
:10186000F08700BF001BB7482DE9F04188B007AAF8
:1018700006A90646FFF7A6FF069C079D20460DF029
:10188000EBFE074628460DF0E7FE014638460DF010
:10189000EBFF5849584F0DF033FF0EF00DF90222BF
:1018A000030A564903960290049300952346019239
:1018B0005348544A544E554D0CF090FF0BF00EFB1C
:1018C000534A544854494FF4C06300243B6033608A
:1018D0002B601460069A079B013A1203013B02F445
:1018E0007F22C3F30B03134303600B684A4A002BA8
:1018F000FBDB4A4CDFF86CC1DFF86C81484B494F89
:10190000494DDFF868E1494949484FF0864616607D
:1019100000262660474A0124C8F80040CCF8002081
:10192000454A1A60454B3B602E60454DCEF800405D
:10193000DFF83CE1C1F800E0026021462846C7F824
:1019400080300CF01FFE3F4B3F484049404ADFF8D3
:1019500024E14FF480671F604FF4803303600B6015
:101960002B681A609E802A79C3F810E002F1804249
:1019700002F50432A7F5406740F20221D9809F6149
:101980004FF4007004214FF0060E8E27D883DE60DE
:10199000D8829960A3F81CE09982167017702A7992
:1019A0002C4B1B491A7053119B0003F160432A48CA
:1019B0002A4FDFF8C4E002F01F0603F5614310323E
:1019C000B440274E0E60066047F822E01C602B7979
:1019D00003F1604303F5644360221A70036843F027
:1019E000104303600B6843F010430B6008B0BDE880
:1019F000F08100BF001BB74C18B0044084430100C5
:101A0000508DFF1F00D8B8050CB0044008B004404A
:101A100080F0024004F1024000F1024060F0024018
:101A200010F0024014F00240E0F0024088F0024062
:101A300090F00240010000071B1F0100001F1F1F44
:101A40003097FF1F14B004400CF002408CF00240AD
:101A5000A0F002401B80004000F002400082FF1F07
:101A60000100000208F0024004F0024084F002404D
:101A70000100004348BEFF1F3112000050B90C495D
:101A80000C4A0B6843F010430B60136843F010439B
:101A900013607047032809DD0549064A0B6823F0E7
:101AA00010430B60136823F010431360704700BFAE
:101AB00000F0024080F0024070B5214A214C1368CA
:101AC000B4F90000013384B01360FFF717FC2080E5
:101AD000FFF7D4FF0228014620801ED0002816DB25
:101AE0000020FFF715FE2080002809DB164B174A5F
:101AF0001B680393039B12689B1AB3F57A7F01D886
:101B000004B070BD1248FEF7B7FE04B070BD1148B6
:101B100005F08CFAB4F90000E6E701900BF026FE20
:101B20000D4B0E4A1B6815680199B0FBF3F606FBD6
:101B30001300A84238BF032121801060D0E700BF06
:101B4000082B002046BEFF1FA4300020202B0020C1
:101B50009C430100F02A0020408AFF1F1C2B00201C
:101B6000F8B53749374B384E384A394F0A600A259D
:101B70000D721F6000253748374CC3F898040121C7
:101B80002927324683F8A11483F8A374C3F8845438
:101B9000C3F8885483F8A654284630490CF0BCFF9B
:101BA0006FF001072E482F4B20603246C4F8F070CA
:101BB0002D49C4F8A8304FF47A772046C4F8B070A5
:101BC000C4F8C470C4F8D870C4F8BC30C4F8D030BD
:101BD000264F656084F8AC5084F8B450C4F8B8500F
:101BE00084F8C05084F8C850C4F8CC5084F8D4505D
:101BF00084F8DC50C4F8E050C4F8E450C4F8E8506D
:101C0000C4F8EC50C4F8F45084F8F85084F8F95053
:101C10000CF082FF164B174917481C6032465D6076
:101C20001D72DD600CF078FF294638460CF0AAFCE6
:101C3000324638461149BDE8F8400CF06DBF00BF90
:101C40000C2B002048C6FF1F3C8AFF1F684601007E
:101C50006C4201000110013840BDFF1FC9050000A2
:101C60000C440100AC410100550F00003097FF1FEC
:101C7000F02A0020990E0000488AFF1F7D0700000F
:101C8000F8B5124C14230E4601250746C0F3072170
:101C9000204684F83B3084F85E5084F85D5006F0AE
:101CA000D1FCF9B2204606F0CDFCC6F30721204650
:101CB00006F0C8FCF1B2204606F0C4FC29462046D6
:101CC00006F064FEB0FA80F04009F8BD9C8AFF1F60
:101CD00070B54149414A424C424E82B040F6B7305D
:101CE0000B78002B63D02378DB0760D51368356849
:101CF0005B1B0E2B5BD90A213B483C4E3C4D3D4CB7
:101D00000BF038F83C480CF051FD3C4806F05AF90D
:101D10000BF02CFDFFF75EFB05F0C4FCFFF784F928
:101D2000374B384A384911601A683849384842F404
:101D300000421A60326842F0020232601A6842F0D1
:101D400002021A602B6823F010432B600B6823F00B
:101D500010430B60FFF788FD204606F023FB20466A
:101D600040F273122A2106F0BDF930BB0A200BF0B5
:101D700043FD0C210420FFF783FF00211D4806F0DE
:101D8000DDF9244B24484FF6FF720A211A800AF02D
:101D9000F1FF19480CF00AFD432120480AF0EAFF40
:101DA00015480CF003FD0BF099F802B070BD1368F4
:101DB0000193019B834293D99DE7882220212046ED
:101DC00006F090F90028D1D0E288204622F00402E3
:101DD000242106F087F9C9E7A8310020A4300020AB
:101DE000A030002020320020A443010040800440A5
:101DF00000F002400C2B0020508DFF1F6DD700001B
:101E00003C800440D82B0020E506000080F0024012
:101E10000077010046BEFF1FB0430100BC43010034
:101E20004368132B07DC10B400EB83040133A2607A
:101E30004360A16510BC70474068704700EB8101AA
:101E400088687047002070470120704700EB8101CF
:101E5000886D0368DB69184700EB8101886D0368B2
:101E60009B691847D0F8CC00002832D070B40468C1
:101E70001B4BE46A9C4229D1006920B30468E46AE0
:101E80009C4223D10069F0B10468E46A9C421DD1F0
:101E90000069C0B10468E46A9C4217D1006990B13E
:101EA00016460268D46A9C420D4614D1006950B1AE
:101EB0000268D46A9C420ED1006920B103683246A0
:101EC000DB6A70BC1847002070BC7047234670BCAA
:101ED00018470020704732462946234670BC1847F1
:101EE00081040000D0F8B830002B33D01A681B49A9
:101EF000526C8A4210B5044629D1186930B3036880
:101F00005B6C934227D1006900B30268526C9A421D
:101F10001ED10069D0B103685B6C93421BD100698C
:101F2000A0B10268526C9A4212D1006970B1036884
:101F30005B6C984750B1236820461B6C9847002281
:101F40006FF0010384F8F920C4F8F03010BD184692
:101F50009047EFE770479847ECE700BF01050000A6
:101F600010B50446D0F8B80000286FD00368404A86
:101F70005B6C934270D10069002867D00268526C94
:101F80009A4272D10069002860D003685B6C93426A
:101F900062D10069002859D00268526C9A4264D11B
:101FA0000069002852D003685B6C934254D10069E9
:101FB00000284BD003685B6C9847002846D0D4F8C3
:101FC000B800002842D002682A4B126C9A4245D1D0
:101FD000006900283AD00268126C9A423ED100692A
:101FE000002833D00268126C9A4237D10069002869
:101FF0002CD00268126C9A4230D1006930B302686A
:10200000126C9A422AD1006900B30268126C9A429B
:1020100024D10069D0B10268126C9A421ED10069C5
:10202000A0B10268126C9A4218D1006970B10268BE
:10203000126C9A4212D1006940B10268126C9A4245
:102040000CD1006910B103681B6C9847002384F819
:10205000F830C4F8F43010BD9847AEE7904700233D
:1020600084F8F830C4F8F43010BD9047A5E700BFFD
:1020700001050000F50400000268002A3CD0136945
:10208000013B1361002B37D12DE9F0410468002C8E
:1020900033D023681E491B6A8B4230D122691D4E02
:1020A00026601AB31369013B1361FBB92569EDB1D1
:1020B0002B681B6A8B4226D12A692E6092B1136964
:1020C000013B136173B92F6967B13B681B6A8B428F
:1020D00038461BD140F8106BFFF7CEFF384614216D
:1020E0000CF036FC284614210CF032FC204614215A
:1020F000BDE8F0410CF02CBC7047BDE8F0812046F3
:10210000BDE8F041184728469847EFE79847E9E7C8
:10211000250F0000AC410100704700BF2DE9F043DE
:102120000446D0F8B80087B040B30368864A5B6CB9
:10213000934240F08B81006900B30268526C9A426E
:1021400040F08E810069C8B103685B6C934240F037
:102150007D81006990B10268526C9A4240F08081A2
:10216000006958B103685B6C934240F06F8100696D
:1021700020B103685B6C9847002869D1A16D734A50
:102180000B6801A81D680223A847D4F8B8302BB10A
:102190001A69013A1A61002A00F0E280059BC4F82E
:1021A000B8305BB11A696A49019101321A61059A26
:1021B00022B11369013B1361002B4CD0D4F8B80055
:1021C00000283ED00268604B526C9A4240F0438136
:1021D0000069002835D00268526C9A4240F03B8179
:1021E000006900282DD00268526C9A4240F0338179
:1021F000006930B30268526C9A4240F02C81006949
:10220000F8B10268526C9A4240F025810069C0B171
:102210000268526C9A4240F01E81006988B10268DF
:10222000526C9A4240F01781006950B10268526CBA
:102230009A4240F01081006918B103685B6C9847BE
:1022400030B9162143480AF095FD43480CF0AEFA28
:1022500007B0BDE8F083059D002DAFD02A683F4B45
:10226000126A9A4240F0048128692960002866D0E9
:102270000269013A0261002A61D12E69002E5ED006
:102280003268126A9A4240F0F68030693160002864
:1022900051D00269013A0261002A4CD13769002FFE
:1022A00049D03A68126A9A4240F0EE803869396043
:1022B000DFF89CE000283AD00269013A0261002A66
:1022C00035D1D7F81080B8F1000F30D0D8F8002001
:1022D000126A9A4240F0DE80D8F81000C8F800E098
:1022E00008B30269013A0261EAB9D8F81090B9F16D
:1022F000000F18D0D9F80020126A9A4240F0D0801E
:10230000D9F81020C9F800104AB11369013B1361D4
:102310002BB9D9F8100010B103681B6A98474846DA
:1023200014210CF015FB404614210CF011FB38462B
:1023300014210CF00DFB304614210CF009FB28464B
:1023400014210CF005FB39E701050000644401008D
:10235000AC41010074440100508DFF1F250F0000A7
:10236000D4F8B850002D3FF419AF2A684E4B126ACA
:102370009A427AD128694D492960002861D00269C2
:10238000013A0261002A5CD12E69002E59D03268D0
:10239000126A9A4272D13069316000284DD00269C8
:1023A000013A0261002A48D13769002F45D03A68C6
:1023B000126A9A4265D138693960DFF8F0E0002886
:1023C00037D00269013A02619ABBD7F81080B8F1A0
:1023D000000F2ED0D8F80020126A9A4257D1D8F8B0
:1023E0001000C8F800E000B30269013A0261E2B9E6
:1023F000D8F81090B9F1000F17D0D9F80020126A60
:102400009A424AD1D9F81020C9F800104AB113698C
:10241000013B13612BB9D9F8100010B103681B6A96
:102420009847484614210CF093FA404614210CF0CA
:102430008FFA384614210CF08BFA304614210CF038
:1024400087FA284614210CF083FAA7E6984700285B
:102450007FF4FEAE92E6904700287FF4F9AEF0E6F6
:10246000904700287FF4F4AE88E62846904795E62A
:1024700028469047A2E63046904760E730469047AE
:10248000DFE738469047D8E73846904753E740465D
:102490009047CEE74046904749E748469047C4E713
:1024A000484690473FE700BF250F0000AC410100C0
:1024B0002DE9F043064683B00C461746FFF72EFE83
:1024C000D6F8B85004EB0414002D6AD028684D49A2
:1024D0002201446B8C424FF0000C76D1296900290F
:1024E0005BD00B68D3F83480A04574D1D1F810E0EC
:1024F000BEF1000F58D0DEF80040646B444570D147
:10250000DEF810E0BEF1000F4ED0DEF80030D3F858
:102510003480A0456BD1DEF81040002C44D02368F5
:10252000D3F83490C14568D12469002C3CD021688F
:10253000CDF800C063462046496B8847D6F8B850AE
:10254000002D2ED02A68304BD46A9C4232D12869A3
:1025500038B30268D46A9C4235D1006908B3026876
:10256000D46A9C422FD10069D8B10268D46A9C42D7
:1025700029D10069A8B10268D46A9C4223D10069BC
:1025800078B10268D46A9C421DD1006948B10368E1
:102590003946DB6A4FF4887211E0C46A1A4B9C42D8
:1025A00008D103B0BDE8F083C46A174B9C4201D147
:1025B0000846CEE7394628464FF48872234603B0D2
:1025C000BDE8F04318473946F6E7CDF800C063464A
:1025D0002846A047B2E7CDF800C063460846C0478A
:1025E000ACE7CDF800C063467046A047A6E7CDF83B
:1025F00000C063467046C047A0E700232046009312
:10260000C8479BE7C1040000810400002DE9F041A8
:1026100001270446C4B00D2180F8F8701A480AF06A
:10262000A9FB1A480CF0C2F8A06D174903681B6992
:1026300098476368C4F8E43000218B42C4F8F41072
:102640001FDD0D460E464FF0FF3801E0D4F8F410C0
:10265000ADF80E504B1CC4F8F4306A462F232046C8
:10266000ADF81030CDF80080029601968DF80C7010
:102670008DF80D60FFF71CFFD4F8E4300135AB4254
:10268000E4DC44B0BDE8F08164440100508DFF1FDC
:102690002DE9F0410D46144682B000214FF48872B6
:1026A00006460EF013F8D5F8F430A342C0F0BB8014
:1026B0002846FFF733FDD5F8B80004EB04142201D7
:1026C0004FF0000C002800F0AA800768724C796B6C
:1026D000A14240F0BE800169002900F0AE800B6885
:1026E000D3F83480A04540F0CB80D1F810E0BEF1A3
:1026F000000F58D0DEF80030D3F83480A04540F009
:10270000B980DEF810E0BEF1000F4CD0DEF80030EA
:10271000D3F83480A04540F0AD80DEF810E0BEF183
:10272000000F40D0DEF80030D3F83480A04540F0F0
:10273000AD80DEF810E0BEF1000F34D0DEF80030DE
:10274000D3F83480A04540F0A180DEF810E0BEF15F
:10275000000F28D0DEF80030D3F83480A04540F0D8
:102760009580DEF810E0BEF1000F1CD0DEF80030DE
:10277000D3F83480A04540F08980DEF810E0BEF147
:10278000000F10D0DEF80030D3F83480A0457DD1A2
:10279000DEF810403CB12168CDF800C06346204609
:1027A000496B884759E0BC6A3C4B9C4249D108467A
:1027B0000268946A9C4244D1006900282FD00268C4
:1027C000946A9C423DD1006948B30268946A9C4275
:1027D00037D1006918B30268946A9C4231D100690C
:1027E000E8B10268946A9C422BD10069B8B10268D2
:1027F000946A9C4225D1006988B10268946A9C421F
:102800001FD1006958B10268946A9C4219D10069CD
:1028100028B103684FF488729B6A31469847304666
:1028200002B0BDE8F0814FF48872002130460DF00F
:102830004DFF304602B0BDE8F081BC6A174B9C42A8
:10284000EDD04FF488723146A047304602B0BDE863
:10285000F081CDF800C063468847D5F8B80000285D
:10286000DDD002680D4B946A9C42EAD100690028D1
:102870009ED1D4E7CDF800C063467046C047ECE770
:10288000CDF800C063460846C047E6E7002370461F
:102890000093C047E1E700BFC104000075040000D9
:1028A00030B5D0F8FC50C5B004464DB923E0029BCA
:1028B000C4F8FC309DF81030D3B9D4F8FC50D5B131
:1028C0002A4621466846FFF7E3FE94F80021002AD5
:1028D000EDD1D4F8FC30D4F8F4100133C4F8FC3056
:1028E0008B429DF8103028BFC4F8FC20002BE4D0A8
:1028F000284645B030BD0025284645B030BD00BF54
:10290000F0B5C5B017460A46014668461D464A9EC0
:102910004B9CFFF7BDFE384604A90EF051F99DF817
:102920000C30009A326033B9019BBDF80E202B6049
:10293000228045B0F0BD4FF0FF33F6E700B5C5B0DB
:102940000A4601466846FFF7A3FE019845B05DF8C8
:1029500004FB00BF70B5D0F8CC30C4B00446002BE7
:102960004CD01D686049EA6B8A4240F0B7801A6912
:10297000002A00F0AB801068C66B8E4252D11069FD
:10298000002834D00668F66B8E424CD100690028CE
:102990002DD00668F66B8E4245D1006938B30668C3
:1029A000F66B8E423FD1006908B30668F66B8E4223
:1029B00039D10069D8B10668F66B8E4233D100690F
:1029C000A8B10668F66B8E422DD1006978B1066811
:1029D000F66B8E4227D1006948B10668F66B8E42CD
:1029E00021D1006918B10368DB6B98471CE02E6C9D
:1029F0003E498E4275D11046002522E01D466846AC
:102A0000D4F8F0202146FFF743FE6A46D4F8F010D0
:102A100001952046FFF74CFD6FF00103C4F8F0303C
:102A200044B070BD1046B047D4F8CC300546002BFA
:102A3000E5D01A682D49166C8E424CD118690028D1
:102A4000DDD003681B6C8B423ED100690028D6D0D4
:102A500003681B6C8B4237D100690028CFD0036814
:102A60001B6C8B4230D100690028C8D003681B6CF6
:102A70008B4229D100690028C1D003681B6C8B42AE
:102A800022D100690028BAD003681B6C8B421BD18D
:102A900000690028B3D003681B6C8B4214D1006915
:102AA0000028ACD003681B6C8B420DD10069002854
:102AB000A5D003681B6C8B4206D1006900289ED00C
:102AC00003681B6C98479AE7984798E72E6C07496C
:102AD0008E42154693D01846B04790E71846904767
:102AE000A2E70025F7E700BFE5040000F5040000B9
:102AF00070B50646C4B0144668460A4631461D46BF
:102B0000FFF7C6FD00994B1C1AD02B4622463046D3
:102B1000FFF7EEFF20460EF0F3F8204410F8013CDA
:102B20002F2B04D02A460A4920460EF0A7F82A4641
:102B3000204604A90EF0A2F8BDF80E0044B070BD06
:102B4000034BBDF80E001B88238044B070BD00BF4E
:102B50008C440100F0B5ADF2144D4FF4807317466C
:102B60006A460D460446FFF7C3FF064668460EF068
:102B7000C7F8014668460AF0FDF821480BF016FE3A
:102B80002A462146C0A8FFF783FDC4A94FF48072EE
:102B900080A80EF09DF839464FF48072C4A80EF05C
:102BA00097F8C0AA29462046FFF782FC40AA4FF4B6
:102BB000807329462046FFF79BFF40A80EF0A0F83F
:102BC00004EB8606014640A80AF0D4F80C480BF046
:102BD000EDFDB06D036840AA6946DB68984706467C
:102BE00050B980A94FF48072C4A80EF071F8C0AA41
:102BF00029462046FFF75CFC30460DF2144DF0BD2F
:102C0000508DFF1F2DE9F04FD0F8F0308B42C9B046
:102C100000F0FA8116464FF4807308AA04460D4668
:102C2000FFF766FF0746D4F8CC00002800F0888044
:102C30000268574B526C9A4240F0EE8100690028BE
:102C40007ED00268526C9A4240F0E681006900280A
:102C500076D00268526C9A4240F0DE81006900280A
:102C60006ED00268526C9A4240F0D681006900280A
:102C700066D00268526C9A4240F0CE81006900280A
:102C80005ED00268526C9A4240F0C681006900280A
:102C900056D00268526C9A4240F0BE81006900280A
:102CA0004ED00268526C9A4240F0B681006900280A
:102CB00046D00268526C9A4240F0AE81006900280A
:102CC0003ED003685B6C9847002839D0D4F8CC001C
:102CD000002835D002682F4B126C9A4240F09E813A
:102CE000006900282CD00268126C9A4240F096814C
:102CF000006928B30268126C9A4240F08F81006923
:102D0000F0B10268126C9A4240F088810069B8B153
:102D10000268126C9A4240F08181006980B10268B9
:102D2000126C9A4240F07A81006948B10268126CD4
:102D30009A4240F07381006910B103681B6C984798
:102D400004EB870708AAB96D0B6803A81F68F3B2E4
:102D5000B847D4F8CC201AB11369013B1361EBB129
:102D6000079AC4F8CC2062B111690B4B039301316F
:102D70001161079929B10A69013A0A61002A00F034
:102D8000AB80C4F8F050C4F8EC6049B0BDE8F08FF7
:102D900001050000F5040000AC410100D4F8CC703E
:102DA000002FDDD03B68AA491B6A8B4240F0388176
:102DB0003869A84B3B60002800F089800269013A1D
:102DC0000261002A40F08380D7F81080B8F1000F2C
:102DD0007DD0D8F80020126A8A4240F03081D8F8BD
:102DE0001000C8F8003000286DD00269013A026175
:102DF000002A68D1D8F81090B9F1000F63D0D9F843
:102E00000020126A8A4240F01481D9F81000C9F8F3
:102E10000030DFF840E2002851D00269013A026137
:102E2000002A4CD1D9F810A0BAF1000F47D0DAF837
:102E30000020126A8A4240F00881DAF81000CAF8CD
:102E400000E0002837D00269013A0261002A32D13D
:102E5000DAF810B0BBF1000F2DD0DBF80020126AB9
:102E60008A4240F0FC80DBF81020CBF80030794833
:102E7000EAB11369013B1361CBB9DBF81020B2B1A1
:102E800013681B6A8B4240F0F0801169106051B1E9
:102E90000B69013B0B6133B9106920B103680192E2
:102EA0001B6A9847019A104614210BF051FD5846B1
:102EB00014210BF04DFD504614210BF049FD4846FE
:102EC00014210BF045FD404614210BF041FD38461E
:102ED00014210BF03DFD43E7079F002F3FF451AF56
:102EE0003A685B49126A8A4240F09D8038693B60CB
:102EF000002800F084800269013A0261002A7ED134
:102F0000D7F81080B8F1000F79D0D8F80020126AF5
:102F10008A4240F09180D8F81000C8F800300028AC
:102F200069D00269013A0261002A64D1D8F8109090
:102F3000B9F1000F5FD0D9F80020126A8A4275D12A
:102F4000D9F81000C9F80030DFF808E100284ED0A9
:102F50000269013A0261002A49D1D9F810A0BAF1F8
:102F6000000F44D0DAF80020126A8A426AD1DAF8F7
:102F70001000CAF800E0002835D00269013A026169
:102F8000002A30D1DAF810B0BBF1000F2BD0DBF8FB
:102F90000020126A8A425FD1DBF81020CBF80030A3
:102FA0002C48E2B11369013B1361C3B9DBF810206F
:102FB000AAB113681B6A8B4254D11169106051B1D8
:102FC0000B69013B0B6133B9106920B103680192B1
:102FD0001B6A9847019A104614210BF0B9FC584619
:102FE00014210BF0B5FC504614210BF0B1FC4846FF
:102FF00014210BF0ADFC404614210BF0A9FC38461F
:1030000014210BF0A5FCBCE6D0F8EC3093427FF421
:1030100001AE49B0BDE8F08F904755E690478FE686
:10302000384698479CE638469047AAE64846904777
:10303000E1E74846904746E740469047DFE740468D
:10304000904744E750469047D1E75046904736E7CF
:10305000250F0000AC41010058469047C3E7584691
:10306000904728E710469847B9E7104698471EE76B
:103070002DE9F047054682B0174600229846DDF854
:103080002890FFF7BFFDD5F8CC40002C6AD020680F
:103090004D4A466B96424FF000037BD121690029CF
:1030A0005CD00A68D2F834A0B24578D1D1F810E0EB
:1030B000BEF1000F59D0DEF80020566B564573D193
:1030C000DEF810E0BEF1000F4FD0DEF80020D2F89D
:1030D00034A0B2456DD1DEF810E0BEF1000F44D04F
:1030E000DEF800305E6B564568D1DEF81060002EC9
:1030F0003BD03168002300933A463046496B8847FD
:10310000D5F8CC40002C2DD02268304B956A9D42DA
:1031100031D1206930B30268946A9C4233D100698E
:1031200000B30268946A9C422DD10069D0B1026854
:10313000946A9C4227D10069A0B10268946A9C42BB
:1031400021D1006970B10268946A9C421BD1006968
:1031500040B103684A4641469B6A10E0856A1B4BB2
:103160009D4208D102B0BDE8F087856A174B9D42A9
:1031700001D10846CFE74A46414620462B4602B0D9
:10318000BDE8F04718474A464146234602B0BDE82D
:10319000F047184700933A462046B047B0E70093FF
:1031A0003A460846D047ABE700933A467046B047E8
:1031B000A6E700933A467046D047A1E700233A4677
:1031C00070460093B0479BE7C104000075040000FF
:1031D0002DE9F041B2F1FF3F14BF16460E46ADF5A2
:1031E000487D044632460F46014640A89846FFF700
:1031F0004FFACE994FF4807288A80DF069FDD4F88B
:10320000F450BDF80E31419AADF81E32691C00230E
:10321000C4F8F4108593294601238692204684AA97
:1032200084968DF81C828DF81D32FFF741F93146E6
:1032300040AA20464195FFF73BF9B8F1000F09D1AC
:10324000204602222946FFF7DDFC28460DF5487D81
:10325000BDE8F081204604EB87046A4629464FF416
:103260008073FFF745FCA06D036869469B6898472B
:1032700028460DF5487DBDE8F08100BF2DE9F04FEF
:10328000B2F1FF3F14BF16460E46ADF50D7D014667
:103290000446324604A8FFF7FBF99DF81C3013B131
:1032A0009DF81D201AB10DF50D7DBDE8F08F20466B
:1032B0003146FFF7A7FCD4F8CC000028F3D0036810
:1032C000DFF87C835B6C43455CD100690028EAD061
:1032D00003685B6C434555D100690028E3D003685F
:1032E0005B6C43454ED100690028DCD003685B6C01
:1032F000434547D100690028D5D003685B6C43453E
:1033000040D100690028CED003685B6C9847002844
:10331000C9D0DFF82493DFF82CB30025D4F8CC1003
:10332000002931D00B681B6D5B4540F0888209692C
:1033300051B30B681B6D5B4540F08182096919B37D
:103340000B681B6D5B4540F07A820969E1B10B683F
:103350001B6D5B4540F073820969A9B10B681B6D59
:103360005B4540F06C82096971B10B681B6D5B4570
:1033700040F06582096939B10B6800221B6D48A8CD
:1033800098470CE09847C2E700234FF47A72CDF8D3
:1033900020918DF824318DF82C314C934A92D4F839
:1033A000E020002A49D01369013B1361002B44D16E
:1033B000D4F8E070002F40D03B689E481B6A8342DF
:1033C00040F04E823A69C7F8009092B31369013B0E
:1033D000136173BBD7F810A0BAF1000F29D0DAF847
:1033E00000301B6A834240F02283DAF81020924BAF
:1033F000CAF80030CAB11369013B1361ABB9DAF8FE
:10340000103093B11A68126A824240F01983196928
:10341000C3F8009029B10A69013A0A61002A00F054
:103420002B82184614210BF093FA504614210BF00E
:103430008FFA384614210BF08BFA4C9BC4F8E0301D
:10344000002B50D01A6901321A614C9ACDF82091A4
:10345000002A48D01369013B1361002B43D14C9FD4
:10346000002F40D03B6873481B6A834240F0F581CF
:103470003A69714B3B6092B31369013B136173BBB3
:10348000D7F810A0BAF1000F29D0DAF800301B6A83
:10349000834240F0CF82DAF81020674BCAF8003040
:1034A000CAB11369013B1361ABB9DAF8103093B1BB
:1034B0001A68126A824240F0C0821969C3F800900B
:1034C00029B10A69013A0A61002A00F044821846CB
:1034D00014210BF03DFA504614210BF039FA38460E
:1034E00014210BF035FAD4F8E000002800F09380A6
:1034F00003685B6C434540F09B800069002800F046
:103500008A8003685B6C434540F092800069002824
:1035100000F0818003685B6C434540F0898000695E
:10352000002878D003685B6C434540F081800069D7
:10353000002870D003685B6C434579D1006900288E
:1035400069D003685B6C434572D10069002862D082
:1035500003685B6C43456BD1006900285BD003684E
:103560005B6C434564D10069002854D003685B6CF0
:10357000984700284FD0D4F8E030BDF81E20489678
:103580004A95ADF82E21002B00F0138119682B4AC3
:10359000C96C914258D11869002800F00A8101686D
:1035A000C96C914251D10069002800F00281016884
:1035B000C96C914249D10069002800F0FA80016885
:1035C000C96C914241D10069002800F0F280016885
:1035D000C96C914239D10069002800F0EA80016885
:1035E000C96C914231D10069002800F0E280016885
:1035F000C96C914229D10069002800F0DA80016885
:10360000C96C914221D10069002800F0D280036882
:10361000DB6C98471AE001233146204604AA059541
:103620008DF81D30FEF744FF0DF50D7DBDE8F08FE0
:1036300098479EE7250F0000AC41010021050000DE
:10364000010500002D050000184688478DF82C0163
:10365000D4F8E030002800F0AF800020002249902C
:103660008DF82D21002B00F0E88019687E4A896CC6
:10367000914240F0DE801869002800F0DE80036887
:103680009B6C934238D10069002800F0D680036813
:103690009B6C934230D10069002800F0CE80036813
:1036A0009B6C934228D10069002800F0C680036813
:1036B0009B6C934220D10069002800F0BE80036813
:1036C0009B6C934218D10069002800F0B680036813
:1036D0009B6C934210D10069002800F0AE80036813
:1036E0009B6C934208D10069002800F0A680036813
:1036F0009B6C9847014601E0984701464FF4807261
:103700004CA80DF0E5FAD4F8F4506B1C2046C4F830
:10371000F430294648AAFEF7CBFED4F8E000002892
:103720003FF4FCAD0268514B126C9A423FD10069E4
:1037300000283FF4F3AD0268126C9A4237D1006959
:1037400000283FF4EBAD0268126C9A422FD1006959
:1037500000283FF4E3AD0268126C9A4227D1006959
:1037600000283FF4DBAD0268126C9A421FD1006959
:1037700000283FF4D3AD0268126C9A4217D1006959
:1037800000283FF4CBAD0268126C9A420FD1006959
:1037900000283FF4C3AD0268126C9A4207D1006959
:1037A00000283FF4BBAD03681B6C9847B6E5904713
:1037B000B4E500228DF82C21002B49D019682C4A41
:1037C000C96B91423FD1186948B30168C96B9142F6
:1037D0003AD1006918B30168C96B914234D10069CC
:1037E000E8B10168C96B91422ED10069B8B1016896
:1037F000C96B914228D1006988B10168C96B9142B7
:1038000022D1006958B10168C96B91421CD100698D
:1038100028B10368DB6B9847D4F8E0301EE700223C
:103820008DF82D2119684992896C0F4A91423FF415
:1038300022AF18468847014660E70E495EE700223E
:1038400048A89847ABE518468847D4F8E03005E724
:1038500049938DF82D31074950E73846984742E69D
:1038600038469847E9E500BF0D050000F504000063
:10387000E5040000604301001A69002A3FF4D1AD5D
:103880001168096A814240F0E380D2F810E0C2F882
:103890000090BEF1000F57D0DEF810100139CEF8BD
:1038A0001010002950D11169009100294CD00099C5
:1038B0000968096A814240F0D7800099D1F810E088
:1038C000C1F80090BEF1000F36D0DEF810100139BB
:1038D000CEF8101081BB0099D1F810C0BCF1000FD8
:1038E0002AD0DCF80010096A814240F0CB80DCF875
:1038F0001000CCF80090B8B1016901F1FF3EC0F8AA
:1039000010E0BEF1000F0FD1DCF8100060B1D0F86C
:1039100000E0CDF80CC002920193DEF82030984709
:10392000DDF80CC0029A019B0292604614210193BB
:103930000BF00EF8019B029A009802921421019359
:103940000BF006F8019B029A0093104614210AF02E
:10395000FFFF009B65E51A69002A3FF4B8AD1168C6
:10396000096A81426FD1D2F810E0C2F80090BEF12E
:10397000000F55D0DEF810100139CEF810100029D4
:103980004ED11169009100294AD000990968096A4D
:10399000814262D10099D1F810E0C1F80090BEF1E7
:1039A000000F35D0DEF810100139CEF8101079BBB9
:1039B0000099D1F810C0BCF1000F29D0DCF800103C
:1039C000096A814257D1DCF81000CCF80090B8B1F8
:1039D000016901F1FF3EC0F810E0BEF1000F0FD108
:1039E000DCF8100060B1D0F800E0CDF80CC0029215
:1039F0000193DEF820309847DDF80CC0029A019B55
:103A000002926046142101930AF0A2FF019B029AE0
:103A100000980292142101930AF09AFF019B029AE6
:103A20000093104614210AF093FF009B4FE5504687
:103A30009847FEE45046984751E5184690474AE5B6
:103A400018469047F1E4009310468847009B3EE5F6
:103A5000009310468847009BE3E40292019300988C
:103A60008847029A019BDBE70292019300988847FE
:103A7000029A019B68E70292019360468847029A86
:103A8000019BC5E70292019360468847029A019B19
:103A900052E700BF90F8F830012270B5054680F873
:103AA000F9200E4673B1D5F8F43053B10024224604
:103AB00031462846FFF7E2FBD5F8F4300134A34243
:103AC000F5D870BDFEF7A2FDEDE700BF30B5B2F14D
:103AD000FF3F14BF15460D460446C5B02A46FFF702
:103AE000CDFB012384F800312A4621466846FEF7C3
:103AF000CFFD019BC4F8FC3045B030BD10B590F847
:103B0000F83082B004468BB12AB1204602B0BDE83D
:103B10001040FFF7DBBF94F8F93073B100220123A6
:103B200084F80021C4F8FC3002B010BD8DE8060016
:103B3000FEF76CFD9DE80600E6E72046FFF7AAFFCA
:103B4000ECE700BF2DE9F04F00EB8109D5B0039100
:103B5000D9F8581002900B6801921C680AA800233B
:103B6000A0470E98002800F0D3810368DFF864A313
:103B7000DB6C534540F07E820069002800F0C8816C
:103B80000368DB6C534540F075820069002800F043
:103B9000BF810368DB6C534540F06C8200690028EC
:103BA00000F0B6810368DB6C534540F06382006926
:103BB000002800F0AD810368DB6C534540F05A8269
:103BC0000069002800F0A4810368DB6C534540F0D5
:103BD00051820069002800F09B810368DB6C53452B
:103BE00040F048820069002800F092810368DB6C95
:103BF000534540F03F820069002800F08981036846
:103C0000DB6C9847002800F08381DFF8BCB2DFF856
:103C1000C88200245F460E99002900F06E810B686F
:103C2000A74A1B6D934240F027820969002900F0E2
:103C300064810B681B6D934240F01E820969002964
:103C400000F05B810B681B6D934240F0158209699F
:103C5000002900F052810B681B6D934240F00C82EA
:103C60000969002900F049810B681B6D934240F0FF
:103C700003820969002900F040810B681B6D9342A3
:103C800040F0FA810969002900F037810B680022B1
:103C90001B6D0FA898476CB12369013B23614BB999
:103CA0002368884A1B6A9342204640F0DD82142133
:103CB0000AF04EFE139C002C00F0BC82236922689F
:103CC000581C2061526C424540F0AA82002800F046
:103CD0009782D3F801305B6C434540F09D820069C8
:103CE000002800F08D8203685B6C434540F09482AD
:103CF0000069002800F0848203685B6C434540F053
:103D00008B820069002800F07B8203685B6C43456E
:103D100040F082820069002800F0728203685B6CC8
:103D20009847139A06460F976749002A4AD01369A5
:103D3000013B1361002B45D1139D002D42D02B6810
:103D4000604A1B6A934240F070822A692960002A07
:103D500034D01369013B136183BBD5F810B0BBF1BC
:103D6000000F2BD0DBF80030564A1B6A934240F01C
:103D70007D82DBF81020CBF80010DAB11369013B2B
:103D80001361BBB9DBF81030A3B11A684D49126A50
:103D90008A4240F06E8219691F60DFF82CC129B198
:103DA0000A69013A0A61002A00F07081184614215C
:103DB0000AF0CEFD584614210AF0CAFD2846142107
:103DC0000AF0C6FD002E00F03582002C00F00082C3
:103DD00022683E4B926C9A4240F01882206900287B
:103DE00000F018820268926C9A4240F010820069DA
:103DF000002800F00F820268926C9A4240F007821D
:103E00000069002800F006820268926C9A4240F035
:103E1000FE810069002800F0FD810268926C9A42E0
:103E200040F0F5810069002800F0F4810268926C8E
:103E30009A4240F0EC810069002800F0EB810368B1
:103E40009B6C9847034614AD2149019A28460CF013
:103E500091FE2368DB6C534540F0D5812069002832
:103E600000F0BD810368DB6C534540F0CD810069F3
:103E7000002800F0B4810368DB6C534540F0C48136
:103E80000069002800F0AB810368DB6C534540F00B
:103E9000BB810069002800F0A2810368DB6C5345F8
:103EA00040F0B2810069002800F099810368DB6C62
:103EB000534540F0A9810069002800F090810DE091
:103EC0002D050000250F0000AC4101000D0500008C
:103ED0009044010021050000010500000368DB6C2F
:103EE0009847002800F07B81039902982A46FFF743
:103EF00029FE0E9900297FF492AE00234FF47A72C6
:103F00000F978DF840308DF8483013931192C2E628
:103F1000019CDFF870B120460CF0F2FE014620460D
:103F200008F028FF56480AF041FCD9F85800036809
:103F300021461B6998470E9ACDF828B05149002AAE
:103F400000F095801369013B1361002B40F08F80D6
:103F50000E9C002C00F08B8023684B481B6A834228
:103F600040F08A8122692160002A7CD01369013BDC
:103F70001361002B77D12569002D74D02B681B6A43
:103F8000834240F083812A692960002A67D013693F
:103F9000013B1361002B62D12E69002E5FD0336884
:103FA0001B6A834240F07C813269C6F800B0354913
:103FB000002A50D01369013B1361002B4BD13769A4
:103FC000002F48D03B681B6A834240F06C813A69FD
:103FD0003960002A3BD01369013B1361002B36D1B5
:103FE000D7F81080B8F1000F31D0D8F800301B6A34
:103FF000834240F06981D8F81020C8F800B0214908
:104000000AB31369013B1361EBB9D8F81090B9F109
:10401000000F18D0D9F800301B6A834240F05F814E
:10402000D9F81020C9F800104AB11369013B136197
:104030002BB9D9F8100010B103681B6A984748469D
:1040400014210AF085FC404614210AF081FC384610
:1040500014210AF07DFC304614210AF079FC284630
:1040600014210AF075FC204614210AF071FC55B0A9
:10407000BDE8F08F9847C5E500220FA898470AE6EB
:10408000508DFF1FAC410100250F00001A69002A66
:104090003FF48CAE11689348096A814240F0F18088
:1040A000D2F810E0C2F800C0BEF1000F00F0898025
:1040B000DEF810100139CEF81010002940F0818090
:1040C0001169049100297CD0049986480968096A1D
:1040D000814240F0DE800499DFF818C2D1F810E088
:1040E0000F60BEF1000F64D0DEF810100139CEF879
:1040F000101000295DD1049909690591002958D053
:10410000059978480968096A814240F0CF8005988E
:10411000D0F810E0C0F800C0BEF1000F41D0DEF8CA
:1041200010100139CEF8101000293AD1059909690B
:104130000691002935D006996A480968096A8142C2
:1041400040F0BB800698D0F810E0C0F800C0BEF187
:10415000000F1ED0DEF810100139CEF81010C1B9D2
:1041600006990969A9B10868006A86465D488645CE
:1041700040F0AD800846099240F8107B0893079103
:10418000FDF77AFF0799084614210AF0E1FB089B26
:10419000099A06980892142107930AF0D9FB079B05
:1041A000089A05980792142106930AF0D1FB069B02
:1041B000079A04980692142105930AF0C9FB059BFF
:1041C000069A0493104614210AF0C2FB049BEDE505
:1041D00014AD2846444B4549019A0CF0CBFC2846C7
:1041E0000CF08EFD0146284608F0C4FD40480AF058
:1041F000DDFAD9F85800036829461B6998470AE593
:10420000139A00268FE5204698476AE62046904795
:10421000034618E6344B16E69847139A064682E59D
:1042200020469047139A06467DE528469847002E7B
:104230007FF4CBADD9F85800019903685B69BB46A0
:104240009847002C3FF477AE2369013B2361002B94
:104250007FF471AE2368234A1B6A934220460ED135
:1042600014210AF075FB66E6984723E558469847FF
:10427000A4E5184690479DE520469847F7E69847FD
:1042800059E6049310468847049B8FE528469847D3
:10429000E9E60692059304988847069A059B90E7FD
:1042A00030469847DBE638469847D4E607920693AF
:1042B00005988847079A069B7BE70892079306981C
:1042C0008847089A079B6CE740469847BFE60892E4
:1042D0000793084673469847089A079B59E748464C
:1042E0009847B0E6250F00006043010090440100AC
:1042F000508DFF1FAC410100F0B5ADF2445D0546A5
:104300000E464FF4807344AAFEF7F2FB324629466C
:1043100084A8FEF7BDF944AABDF81E122846FFF78F
:1043200011FC002384AA314628468DF82032FEF77E
:10433000BFF8849A2946C8A8FEF7AAF9C99FBE42C9
:1043400027D00DF586603A462946FEF7A1F9DDF83B
:104350003844A64201D126E01C462246294668463A
:10436000FEF796F94FF4887269460DF5866008F0FD
:10437000C7FBDDF838349E42EED12846869BCDF847
:1043800038340DF586622146FEF792F80DF2445D51
:10439000F0BD2846869B8499C993C8AAFEF788F881
:1043A0000DF2445DF0BD3C46E7E700BF4A1C04D077
:1043B00008B5FFF7A1FF012008BD0120704700BF2D
:1043C0002DE9F04F00EB81010646496D0868ADF616
:1043D0002C0D04681F4668460023A047049B002B51
:1043E00000F013821A689C4D526CAA4240F0BC81C6
:1043F0001869002800F010810268526CAA4240F04F
:10440000B4810069002800F007810268526CAA425A
:1044100040F0AB810069002800F0FE800268526C19
:10442000AA4240F0A2810069002800F0F5800268ED
:10443000526CAA4240F099810069002800F0EC809B
:104440000268526CAA4240F090810069002800F096
:10445000E3800268526CAA4240F08781006900281C
:1044600000F0DA8003685B6C98470446002C00F08B
:10447000F08306EB870605A8716DDDF850280B6800
:104480001C680223A0470998002800F07181036886
:104490005B6CAB4240F051820069002800F06881FB
:1044A00003685B6CAB4240F048820069002800F072
:1044B0005F8103685B6CAB4240F03F82006900287B
:1044C00000F0568103685B6CAB4240F036820069B5
:1044D000002800F04D8103685B6CAB4240F02D82F8
:1044E0000069002800F0448103685B6CAB4240F037
:1044F00024820069002800F03B8103685B6CAB42BA
:1045000040F01B820069002800F0328103685B6C78
:10451000AB4240F012820069002800F02981036854
:104520005B6CAB4240F009820069002800F02081FA
:1045300003685B6CAB4240F000820069002800F029
:10454000178103685B6C9847002800F01181434D88
:104550004FF0FF34049B002B00F0FD8219680A69BC
:10456000AA4240F0F1821A69002A00F0F082106835
:104570000669AE4240F03C821069002800F0DF81FD
:1045800006683669AE4240F034820069002800F0C7
:10459000D68106683669AE4240F02B820069002859
:1045A00000F0CD8106683669AE4240F02282006993
:1045B000002800F0C48106683669AE4240F01982D6
:1045C0000069002800F0BB8106683669AE4240F001
:1045D00010820069002800F0B28106683669AE4298
:1045E00040F007820069002800F0A981066836695A
:1045F000AE4240F0FE810069002800F0A08106680C
:104600003669AE4240F0F5810069002800F09781DC
:1046100003681B699847EDE1114E009600241A6962
:10462000013A1A6192B9049D85B12B680D4A1B6A43
:10463000934240F0D88229692E6019B10B69013B81
:104640000B618BB1284614210AF082F920460DF641
:104650002C0DBDE8F08F00BF010500008D040000A7
:10466000AC410100250F00002F69002FEAD03B6804
:104670001B6A934240F0C88239693E6000296ED0BF
:104680000B69013B0B61002B69D1D7F81080B8F1A1
:10469000000F64D0D8F800301B6A934240F0C78204
:1046A000D8F81010C8F80060002954D00B69013BFD
:1046B0000B61002B4FD1D8F81090B9F1000F4AD000
:1046C000D9F800301B6A934240F0B482D9F8101038
:1046D000C9F8006000293AD00B69013B0B61002B3F
:1046E00035D1D9F810A0BAF1000F30D0DAF8003087
:1046F0001B6A934240F0A782DAF81010CAF80060F3
:1047000009B30B69013B0B61EBB9DAF810B0BBF1EF
:10471000000F18D0DBF800301B6A934240F09682FD
:10472000DBF81020CBF800604AB11369013B13613C
:104730002BB9DBF8100010B103681B6A9847584684
:1047400014210AF005F9504614210AF001F94846EF
:1047500014210AF0FDF8404614210AF0F9F8384611
:1047600014210AF0F5F86DE71846904704467DE6F7
:10477000049800284FD003689A491B6C8B4240F084
:10478000D8800069002846D003681B6C8B4240F03B
:10479000D080006900283ED003681B6C8B4240F03B
:1047A000C8800069002836D003681B6C8B4240F03B
:1047B000C080006900282ED003681B6C8B4240F03B
:1047C000B880006938B303681B6C8B4240F0B1803D
:1047D000006900B303681B6C8B4240F0AA8000693B
:1047E000C8B103681B6C8B4240F0A380006990B194
:1047F00003681B6C8B4240F09C80006958B10368D1
:104800001B6C98470024099B07E01C4620460DF6C8
:104810002C0DBDE8F08F099B0024734E0596002BEC
:1048200000F081801A69013A1A61002A7BD1099D42
:10483000002D78D02B686D4A1B6A934240F0E781C7
:1048400029692E6000296AD00B69013B0B61002B9E
:1048500065D12F69002F62D03B681B6A934240F0FC
:10486000E38139693E60002955D00B69013B0B613A
:10487000002B50D1D7F81080B8F1000F4BD0D8F8EA
:1048800000301B6A934240F0D881D8F81010C8F865
:104890000060554800293AD00B69013B0B61002BA1
:1048A00035D1D8F81090B9F1000F30D0D9F80030D8
:1048B0001B6A934240F0C481D9F81010C9F8000077
:1048C00009B30B69013B0B61EBB9D9F810A0BAF140
:1048D000000F18D0DAF800301B6A934240F0BE8116
:1048E000DAF81020CAF800604AB11369013B13617D
:1048F0002BB9DAF8100010B103681B6A98475046CC
:1049000014210AF025F8484614210AF021F84046FF
:1049100014210AF01DF8384614210AF019F8284627
:1049200014210AF015F8049B0096002B7FF477AE53
:104930008CE698470024099B6FE7984704E60D6CC6
:1049400028498D4240F06681104603681B6C8B42FB
:1049500040F058810069002800F0FD8003681B6C5E
:104960008B4240F04F810069002800F0F48003681A
:104970001B6C8B4240F046810069002800F0EB8000
:1049800003681B6C8B4240F03D810069002800F0F9
:10499000E28003681B6C8B4240F034810069002880
:1049A00000F0D98003681B6C8B4240F02B810069BA
:1049B000002800F0D08003681B6C8B4240F02281FD
:1049C0000069002800F0C78003681B6C8B4240F030
:1049D00019810069002800F0BE8003681B6C9847AD
:1049E000B9E000BFF5040000AC410100250F000054
:1049F0001046B0470028049B54DD002B56D01968A0
:104A0000864A8C6A94423ED1186900284ED00168CB
:104A10008C6A944238D10069002847D001688C6ABA
:104A2000944231D10069002840D001688C6A9442D8
:104A30002AD10069002839D001688C6A944223D1B8
:104A40000069002832D001688C6A94421CD1006948
:104A500060B301688C6A944216D1006930B3016872
:104A60008C6A944210D1006900B301688C6A944248
:104A70000AD10069D0B103684FF400629B6A0AA9A9
:104A80009847024605E018464FF400620AA9A0477D
:104A90000246141E05DB099870B9B4F5006FBFF625
:104AA00059AD049B002B40F0A48054E009980028E5
:104AB00000F09C80002214460168594BCE6A9E4249
:104AC0003FD100690028E8D00168CE6A9E4238D103
:104AD00000690028E1D00168CE6A9E4231D10069A8
:104AE0000028DAD00168CE6A9E422AD100690028E7
:104AF000D3D00168CE6A9E4223D100690028CCD071
:104B00000168CE6A9E421CD100690028C5D00168A8
:104B1000CE6A9E4215D100690028BED00168CE6AD7
:104B20009E420ED100690028B7D00168CE6A9E422D
:104B300007D100690028B0D003680AA9DB6A98474A
:104B4000ABE70AA9B047A8E71846904752E70D6CB3
:104B5000344A95425ED1099B002B41D01A683149F5
:104B6000126C8A4239D11869002839D00268126C57
:104B70008A4233D10069002832D00268126C8A421E
:104B80002CD1006900282BD00268126C8A4225D1F2
:104B9000006928B30268126C8A421FD10069F8B11B
:104BA0000268126C8A4219D10069C8B10268126C9D
:104BB0008A4213D1006998B10268126C8A420DD101
:104BC000006968B10268126C8A4207D1006938B185
:104BD00003681B6C9847099B02E018469047099BA5
:104BE000E443E40F19E6284698472FE50446002BD6
:104BF00032D01A680B49156C8D420BD11869002808
:104C0000A9D0A2E69847A6E7384698471AE528466D
:104C1000984788E61846A8479DE700BF750400003E
:104C200081040000F50400003846984777E64046C6
:104C3000984794E5484698478DE5404698476AE688
:104C40004846984763E65046984780E55846984757
:104C500079E5049B034E67E61C46C1E7504698473A
:104C600051E600BFAC4101002DE9F0418846ADF5A9
:104C7000A76DB3F1FF3F14BF1F4617460146044618
:104C8000424682A8FDF704FD3A462146C6A8FDF734
:104C9000FFFC9DF81462002E42D186A94FF4807269
:104CA0000DF587600CF014F8D4F8F450BDF8260325
:104CB000C79BADF836046A1CC4F8F42029460DF5EC
:104CC00085622046CDF83034CDF82874CDF82C64B8
:104CD0008DF834648DF83564FDF7EAFBC6AA3946D1
:104CE0002046C795FDF7E4FB414602AA4FF48073C6
:104CF0002046FDF7FDFE42AE0746294632464FF4F8
:104D000080732046FDF7F4FE0096034602AA39465A
:104D1000201DFFF755FB28460DF5A76DBDE8F08176
:104D2000BDF81612424620460131FEF7A7FA9DF85B
:104D300014322068BDF8261386AA0033009218BFEB
:104D400001233A46C56A2046A8472368BDF82623B2
:104D50005E6D0546034641462046B04728460DF5A0
:104D6000A76DBDE8F08100BF2DE9F04F0446ADF21C
:104D70004C6DB3F1FF3F14BF9846904682A80A4697
:104D80002146FDF785FC42462146C6A8BDF816928D
:104D9000FDF77EFC839E002E69D0002542AF04F112
:104DA000040A19E0BDF8463504EB8303986D0368E7
:104DB0009B689847324649462046FEF75FFA2368CB
:104DC000BDF82623D3F854B031462B462046D847A9
:104DD000DDF83064002E3FD0324621460DF5856067
:104DE000FDF756FC4FF488720DF585610DF5A7604F
:104DF00007F086FECDF84055D4F8F450BDF82633C0
:104E0000ADF846356A1CC4F8F42029460DF5A762B2
:104E10002046CDF83885FDF74BFB4FF4807302AA8E
:104E200031462046FDF764FE29464FF480733A462A
:104E30002046FDF75DFE9DF84435394602AA5046EE
:104E4000002BAFD1BDF8463500974946FFF7B8FAB9
:104E5000DDF83064002EBFD120464146C6AAC79572
:104E6000FDF726FB01200DF24C6DBDE8F08F3546B5
:104E7000F2E700BF2DE9F0411D4600EB8303044635
:104E8000586D069E03680F469B68314690469847CA
:104E900008B9BDE8F08106962B46424639462046C1
:104EA000BDE8F04100F000B82DE9F04F00EB810AB9
:104EB0008846DAF85410ADF5157D814608680293EE
:104EC0000468039200230AA8A0470E9B002B00F061
:104ED000AA841A68734E526CB24240F06A81186913
:104EE000002800F0BD800268526CB24240F062813E
:104EF0000069002800F0B4800268526CB24240F0B1
:104F000059810069002800F0AB800268526CB242FF
:104F100040F050810069002800F0A2800268526CC5
:104F2000B24240F047810069002800F09980026891
:104F3000526CB24240F03E810069002800F090803F
:104F40000268526CB24240F035810069002800F0DE
:104F5000878003685B6C98470446002C00F0BE8491
:104F6000DFF850B154AC4FF48072039914A80BF0E1
:104F7000AFFE14A80BF0C4FE14AB184410F8013CAB
:104F80002F2B05D04FF48072474914A80BF076FE02
:104F90004FF480729E9920460BF09AFE20460BF04B
:104FA000AFFE204410F8013C2F2B05D04FF4807247
:104FB0003D4920460BF062FE0E99002900F05B810E
:104FC0000B683A4A1B6D934240F0688109690029D9
:104FD00000F051810B681B6D934240F05F810969BD
:104FE000002900F048810B681B6D934240F0568108
:104FF0000969002900F03F810B681B6D934240F066
:105000004D810969002900F036810B681B6D9342C0
:1050100040F044810969002900F02D810B681B6D67
:10502000934240F03B810969002900F024810B681C
:105030001B6D934240F032810969002900F01B8109
:105040000B681B6D934240F029810969002900F02B
:1050500012810B680FAD1B6D28460022984721E195
:10506000DFF850B0CDF828B000241A69013A1A616F
:105070009AB90E9D8DB12A680D4B126A9A4240F082
:10508000DF832969C5F800B019B10A69013A0A61DC
:1050900092B12846142109F05BFC20460DF5157DE0
:1050A000BDE8F08F010500008C4401002D050000D3
:1050B000250F0000AC4101002E69002EE9D03268B6
:1050C000126A9A4240F0C7833169C6F800B00029DD
:1050D0006AD00A69013A0A61002A65D13769002F4E
:1050E00062D03A68126A9A4240F0C3833969C7F8BD
:1050F00000B0002954D00A69013A0A61002A4FD150
:10510000D7F81080B8F1000F4AD0D8F80020126A02
:105110009A4240F0B983D8F81010C8F800B00029BE
:105120003AD00A69013A0A61002A35D1D8F81090BC
:10513000B9F1000F30D0D9F80020126A9A4240F03D
:10514000B783D9F81010C9F800B009B30A69013A59
:105150000A61EAB9D9F810A0BAF1000F18D0DAF84C
:105160000020126A9A4240F0A683DAF81020CAF8AA
:1051700000B04AB11369013B13612BB9DAF8100092
:1051800010B103681B6A98475046142109F0E0FBF0
:105190004846142109F0DCFB4046142109F0D8FBF5
:1051A0003846142109F0D4FB3046142109F0D0FB15
:1051B0006FE7184690470446CFE6C5F800B013697C
:1051C000013B1361002B56D12C69002C53D022686F
:1051D000304B126A9A4240F044832169C4F800B00F
:1051E0002D48002943D00A69013A0A61002A3ED1BC
:1051F0002569002D3BD02A68126A9A4240F03C8310
:105200002969286000292ED00A69013A0A6152BB37
:105210002E6946B33268126A9A4240F0408331697F
:10522000C6F800B01C48D1B10A69013A0A61B2B9A6
:105230003769A7B13A68126A9A4240F033833A69F3
:10524000386042B11369013B136123B9386910B169
:1052500003681B6A98473846142109F079FB3046E9
:10526000142109F075FB2846142109F071FB204632
:10527000142109F06DFBDAF85400039903685B69A7
:1052800098470E9B0446CDF828B0002B7FF4EDAE76
:1052900003E700BF250F0000AC4101000FAD284619
:1052A000002298472A69002AE5D013685B6CB34254
:1052B00040F0A082106900283FF47FAF0168496C7C
:1052C000B14240F0A282006900283FF476AF036843
:1052D0005B6CB34240F08F82006900283FF46DAFF1
:1052E00003685B6CB34240F08682006900283FF49B
:1052F00064AF03685B6CB34240F07D8200690028B4
:105300003FF45BAF03685B6CB34240F074820069AA
:1053100000283FF452AF03685B6C9847002800F008
:10532000D6822869002800F063820268AE4B926C36
:105330009A4240F062820069002800F059820268B7
:10534000926C9A4240F059820069002800F0508225
:105350000268926C9A4240F050820069002800F086
:1053600047820268926C9A4240F0478200690028A6
:1053700000F03E820268926C9A4240F03E820069E0
:10538000002800F035820268926C9A4240F0358223
:105390000069002800F02C8203689B6C9847014646
:1053A0004FF4807214A80BF069FC2869002800F003
:1053B0001D8202688C4B926C9A4240F023820069F5
:1053C000002800F013820268926C9A4240F01A8220
:1053D0000069002800F00A820268926C9A4240F04C
:1053E00011820069002800F001820268926C9A42E2
:1053F00040F008820069002800F0F8810268926C91
:105400009A4240F0FF810069002800F0EF810268B5
:10541000926C9A4240F0F6810069002800F0E68123
:1054200003689B6C984701464FF4807220460BF04E
:1054300025FC2869002800F03F8102686B4BD26C84
:105440009A4240F0DD810069002800F03581026851
:10545000D26C9A4240F0D4810069002800F02C817F
:105460000268D26C9A4240F0CB810069002800F0BB
:1054700023810268D26C9A4240F0C2810069002800
:1054800000F01A810268D26C9A4240F0B98100693A
:10549000002800F011810268D26C9A4240F0B0817D
:1054A0000069002800F008810368DB6C9847002839
:1054B00000F002810094029B14AA41464846FFF77F
:1054C000D9FC002800F013812A69C5F800B04849CA
:1054D000002A3FF448AD1369013B1361002B7FF4B0
:1054E00042AD2D69002D3FF43EAD2A68414B126A52
:1054F0009A4240F08C8128692960002800F0D7800A
:105500000269013A0261002A40F0D1802F69002F20
:1055100000F0CD803A68126A9A4240F07C81386986
:105520003960002800F0BF800269013A0261002A58
:1055300040F0B9803A69002A00F0B5801168096A24
:10554000994240F07681D2F810E0C2F800B02848C5
:10555000BEF1000F00F0A380DEF810100139CEF884
:105560001010002940F09B8011690491002900F07F
:10557000968004990968096A994240F06481049907
:10558000D1F810E00860BEF1000F00F08280DEF874
:1055900010100139CEF8101000297AD10499096948
:1055A0000591002975D005980168096A994240F073
:1055B0005B81D0F810E0C0F800B00D48BEF1000FDC
:1055C00061D0DEF810100139CEF8101000295AD140
:1055D000059909690691002955D006990968096A53
:1055E000994240F04C8107E00D05000021050000C4
:1055F000AC410100250F00000699D1F810E00860C9
:10560000BEF1000F39D0DEF810100139CEF81010BD
:10561000002932D106990969079171B30799096880
:10562000096A994240F036810799D1F810E0086084
:10563000BEF1000F1BD0DEF810100139CEF81010AB
:10564000A9B90799096991B10868006A9842864624
:1056500040F034810846099240F810BB0891FCF7ED
:105660000BFD08990846142109F072F9099A079868
:105670000892142109F06CF9089A069807921421EF
:1056800009F066F9079A05980692142109F060F965
:10569000069A04980592142109F05AF9059A1046C1
:1056A000142109F055F93846142109F051F928461A
:1056B000142109F04DF956E40094029B14AA4146C6
:1056C0004846FEF77DFE90B114A80BF019FB014689
:1056D00014A807F04FFB834809F068F8DAF8540083
:1056E000036814A91B69984700287FF4EDAE2A6966
:1056F000C5F800B07C49002A75D01369013B1361DD
:10570000002B70D12C69002C6DD02268774B126A67
:105710009A4240F0A3802069216000285FD002698E
:10572000013A0261002A5AD12569002D57D02A6812
:10573000126A9A4240F08C802869296000284AD079
:105740000269013A0261002A45D12E69002E42D039
:105750003268126A9A4240F09A803169C6F800B005
:105760006148002933D00A69013A0A617ABB376976
:105770006FB33A68126A9A4240F09780396938608C
:1057800009B30A69013A0A61EAB9D7F81080B8F199
:10579000000F18D0D8F80020126A9A4240F0948086
:1057A000D8F81020C8F800B04AB11369013B136162
:1057B0002BB9D8F8100010B103681B6A984740460F
:1057C000142109F0C5F83846142109F0C1F8304613
:1057D000142109F0BDF82846142109F0B9F8204633
:1057E000142109F0B5F80E9B00244CE540491BE656
:1057F0003F49D5E51046984790E590470146CFE5EB
:10580000904754E6904701460EE6884786E52846CD
:105810009047FFF7A8BB384690472846142109F067
:1058200097F8FFF7A0BB1C4620460DF5157DBDE897
:10583000F08F104688473846142109F089F836E77A
:105840002846904729E4059204988847059A26E758
:1058500028469047C3E7304690471AE420469047D1
:10586000C1E72046904706E5069205988847069AC4
:105870000FE73846904797E428469047F7E40792A9
:1058800006988847079AFEE64046904788E43046E7
:105890009047A0E7089207988847089AEDE63046B7
:1058A0009047E0E438469047D9E4384690478EE781
:1058B0004846904770E45046904769E4089208468D
:1058C00073469847089AD2E6404690477BE72A6994
:1058D000C5F800B0002A3FF4CEAC70E40E9BDFF8B0
:1058E00008B0D0E4508DFF1FAC410100250F00002F
:1058F000604301002DE9F0410E46ADF6882DB3F16D
:10590000FF3F14BF1F461746044601463246C6A84D
:10591000FCF7BEFE3A4621460DF58560FCF7B8FE61
:10592000C69A21460DF5A760FCF7B2FE9DF8243318
:1059300023B19DF82533002B00F0D6804FF48872F8
:10594000C6A90DF5C96007F0DBF84FF488720DF5B4
:1059500085610DF5EB6007F0D3F846AA4FF480732C
:1059600031462046FDF7C4F8DDF83C85464500F099
:105970009E8002A842462146FCF78AFE02A94FF407
:1059800088720DF6781007F0BBF80DF678110DF659
:1059900068004FF4887207F0B3F8DDF88059AE4222
:1059A00001D1ADE01D462A46214602A8FCF770FE53
:1059B0004FF4887202A90DF6781007F0A1F84FF4A1
:1059C00088720DF678110DF6680007F099F8DDF889
:1059D00080399E42E6D1C89BCDF880390DF6781209
:1059E00029462046FCF764FDBDF83604DDF82C346A
:1059F000ADF82603C6AA31462046C893C697CDF80F
:105A00002C64FCF755FD0DF5856239462046FCF700
:105A10004FFD4FF48073314686AA2046FDF768F8A3
:105A2000BDF85616BDF8663799424CD09DF85426FD
:105A300002B386AA0092201D46AAFFF71BFA00288F
:105A40004BD129460DF668022046FCF731FD0DF5D5
:105A5000C96231462046FCF72BFD0DF5EB62394655
:105A60002046FCF725FD4FF0000840460DF6882D36
:105A7000BDE8F08186AA0092201D46AAFEF7A0FC90
:105A800080460028DDD046A80BF03AF9BDF86657ED
:105A9000014604EB850446A807F06CF9194808F0A4
:105AA00085FEA06D036846A91B699847DDE7C89B82
:105AB000C699CDF83C350DF5A7622046FCF7F8FCF9
:105AC0004FF0FF3590E704EB810186AA886D0368EB
:105AD00046A9DB6898470028B3D04FF0010840463C
