:1000000000000320D101000039ED0000F1EC0000F8
:10001000F1EC0000F1EC0000F1EC0000F1EC00006C
:10002000F1EC0000F1EC0000F1EC000039ED000013
:1000300039ED0000F1EC000099FF00009DFF000089
:1000400039ED000039ED000039ED000039ED000018
:1000500039ED000039ED000039ED000039ED000008
:1000600039ED000039ED000039ED000039ED0000F8
:1000700039ED000039ED000039ED000039ED0000E8
:1000800039ED000039ED000039ED000039ED0000D8
:1000900039ED000039ED000039ED000039ED0000C8
:1000A00039ED000039ED000039ED000039ED0000B8
:1000B00039ED000039ED000039ED000039ED0000A8
:1000C00039ED000039ED000039ED000039ED000098
:1000D00039ED000039ED000039ED000039ED000088
:1000E00039ED000039ED000039ED000039ED000078
:1000F00039ED000039ED000039ED000039ED000068
:1001000039ED000039ED000039ED000039ED000057
:1001100039ED0000D9F2000039ED000039ED0000A2
:1001200039ED000039ED000039ED000039ED000037
:1001300039ED000039ED000039ED000039ED000027
:1001400039ED000039ED000039ED000039ED000017
:1001500039ED000039ED000039ED000039ED000007
:1001600039ED000039ED000039ED000039ED0000F7
:1001700039ED000039ED000039ED000039ED0000E7
:1001800039ED000039ED000039ED000039ED0000D7
:1001900039ED000039ED000039ED000039ED0000C7
:1001A00039ED000039ED000039ED000039ED0000B7
:1001B00039ED000039ED000039ED000039ED0000A7
:1001C00039ED000039ED000039ED000039ED000097
:1001D000594B4CF2205210B51A804DF628121A8055
:1001E00000BF00BF0EF0ACFD544B4FF030621A6000
:1001F000534A9A60534ADA60534B4FF470021A60C4
:10020000524B534A1A60534B1A78110703D51A7888
:1002100042F008021A70504B5049AA221A70504AF4
:10022000504B8B4204D252F8040F43F8040BF8E70A
:100230004D4B4E4900228B4202D243F8042BFAE781
:100240004B494C4A002352F8230041F82300013364
:10025000742BF8D1484B494A802103F8011B934283
:10026000FBD1474B424A1A60464B8A221A70A3F5CB
:10027000805324225A70A0221A709A799207FCD5D2
:100280009A79D406FCD4404A937903F00C03082BE6
:100290003D4BF9D101221A7148225A719A79900680
:1002A000FCD5394A9179384B4906FBD5374A38494C
:1002B00011600221516020221A709A7902F00C021A
:1002C0000C2AFAD1334B344A1A60344A344C13683E
:1002D00013F4807303D123604FF4A8531360314BA0
:1002E000314A1A6000225A60072243F8042C2F4A30
:1002F000C3F80C2D62B60EF0F9FD2368DA0705D5B8
:100300002B480EF06BFD2B4B2B4A1A602B4B1B78A6
:100310005B0609D5274C284B22689A4204D1244811
:100320000EF05CFD0023236010F05AFE0EF00EFD6F
:100330000FF032FFFEE700BF0E2005403080044082
:10034000823F04000100002B88ED00E0002008E05F
:100350000300008502D0074000E007407814FF1F2B
:10036000306101007009FF1F7814FF1FC826FF1FAE
:100370000002FF1F0000000000E400E064E400E071
:1003800008ED00E000500640004006404480044074
:100390000000030104800440C010050010D0034099
:1003A00014D0034014E000E0FF760100000020209C
:1003B000310000001CE00340A5C3945A00F0074040
:1003C000FFFFFFFFFFFFFFFFFFFFFFFFFFFFFFFF3D
:1003D000FFFFFFFFFFFFFFFFFFFFFFFFFFFFFFFF2D
:1003E000FFFFFFFFFFFFFFFFFFFFFFFFFFFFFFFF1D
:1003F000FFFFFFFFFFFFFFFFFFFFFFFFFFFFFFFF0D
:10040000FFFFFFFFFFFFFFFFFFFFFFFFDEF9FFFF23
:1004100010B5054C237833B9044B13B10448AFF33E
:1004200000800123237010BD7814FF1F000000001E
:100430002C610100084B10B51BB108490848AFF307
:1004400000800848036803B910BD074B002BFBD0A0
:10045000BDE81040184700BF000000007C14FF1FDB
:100460002C6101007814FF1F00000000002070477D
:10047000704700BF4FF0FF30704700BF006910B1F8
:1004800003689B6A18477047006910B10368DB6A0C
:1004900018477047006910B103681B691847704717
:1004A000006910B103689B6918474FF0FF3070472F
:1004B000006910B10368DB6818477047006910B124
:1004C0000168096B0847704710B4006920B10468DF
:1004D000616B5DF8044B08475DF8044B704700BF43
:1004E000006910B103689B6B18470020002170471A
:1004F000006910B10368DB6B1847002000217047CA
:10050000006910B103681B6C18477047006910B18F
:1005100003685B6C18477047006910B103689B6CF7
:1005200018470148704700BF80580100006910B1AA
:100530000368DB6C1847704738B50B6904462BB16C
:100540001D6819462B6D9847204638BD4FF47A70C8
:10055000064A23712373A06022600B692361002B7C
:10056000F2D01A6901321A61204638BDD456010012
:10057000006910B103685B6D18477047006980B16E
:1005800000B5036883B09B6A01220DF1070198470B
:1005900020B19DF8070003B05DF804FB4FF0FF3079
:1005A000F9E74FF0FF30704710B582B002AB026838
:1005B00003F8011DD46A19460122A04702B010BDFC
:1005C000C36D0BB101207047006E003018BF0120D1
:1005D000704700BF4FF0FF30704700BF83690BB119
:1005E00001207047C069003018BF0120704700BF6C
:1005F000C069003018BF0120704700BF43793BB18C
:10060000D0F8A020D0F89C30002103FB02F0704706
:1006100018460021704700BF00207047704700BF98
:1006200010B5044602460369054906480FF000FD6F
:10063000206920B10368BDE810405B6A184710BD0F
:1006400040580100D009FF1F0246036901490248D2
:100650000FF0EEBC5C580100D009FF1F0246036991
:10066000014902480FF0E4BC84580100D009FF1F83
:1006700008B500684FF4807200EB0120FF2111F0F3
:100680009DF8002008BD00BF08B5006802EB0122FC
:1006900010441946029A0EF027F9002008BD00BF49
:1006A00008B5006802EB01210144029A18460EF0D9
:1006B0001BF9002008BD00BF43790BB918467047ED
:1006C00000B58DB06A4608300BF0AAFFC343DB0FBC
:1006D00018460DB05DF804FB816908B5029B61B155
:1006E0002BB1012B03D0022B01D0002008BD4069A3
:1006F0000CF048FDC043C00F08BD084608BD00BF50
:100700002DE9F0430D4649798DB0044600294AD0C1
:1007100017461E46002B53D1083528466A463946EF
:100720000BF07EFF00283EDB9DF80080B8F1010F42
:100730007BD0342010F07CFC8146A0B301463A46C1
:1007400028460BF079FE00282ADBA4200FF02EFDAE
:1007500080464B4B06713946C8F81450243088F84F
:100760000C60C8F810604FF47A75C8F81C908022AD
:10077000C8F81860C8F80030C8F8085011F036FD05
:10078000D8F810303F4AA56001332046C4F81080E5
:1007900026712673C8F8103022600DB0BDE8F083D2
:1007A000484610F04DFC374A226000234FF47A711E
:1007B0002046237123732361A1600DB0BDE8F0834F
:1007C000542010F035FC80460028ECD0083528462F
:1007D00040F203133A4641460DF032FD0028E2DBB9
:1007E000012E46D0A4200FF0E1FC064645613946B3
:1007F0000025234B33604FF47A77C6F818808022A7
:10080000357135733561F561B760243011F0EEFC58
:1008100033691C4A257101332046A7602573266180
:10082000336122600DB0BDE8F083542010F000FC6D
:1008300081460028B7D0014643463A4628460DF087
:10084000FFFC0028ACDBA4200FF0B0FC8046067152
:100850003946C8F814500A4B88F80C602430C8F8A0
:1008600010604FF47A75C8F818908022C8F81C60A0
:1008700080E702230022414628460CF083FCB1E7C2
:10088000C0570100D4560100C16911B140690BF095
:10089000A5BE7047F0B5CD69ADB006460C464DB962
:1008A00016E011F0C1FA534918B102A811F0BCFAD0
:1008B000D0B9E56930220021684610F07FFF294653
:1008C0006A4660690BF01CFE00284B4902A8E8DC70
:1008D0004A4A326000234FF47A71304633713373E1
:1008E0003361B1602DB0F0BD802204F124010CA869
:1008F00011F07CFC0CA811F0A3FC0246002837D1B3
:1009000080220CA802A911F071FC9DF80050012D65
:1009100049D0342010F08CFB07460028D8D001467F
:100920000CAA60690BF088FD00285EDBA4200FF0A4
:100930003DFC05466269324BC76100246A610CA91F
:1009400024304FF47A7780222B602C712C732C6129
:10095000AC61AF6011F04AFC2B69284A3471013355
:100960003046B760347335612B6132602DB0F0BD15
:100970002CAB034413F8811C2F290FD07D280DD8F0
:1009800001322CA911442F2003F8800C00250CAB58
:10099000981801F8805CC2F18002B3E70CAB98189C
:1009A000C2F18002AEE7542010F042FB0746002857
:1009B0008ED001462B460CAA60690DF041FC002840
:1009C00013DBA4200FF0F2FB054662690C4B876134
:1009D00000246A610CA924304FF47A7780222B60BE
:1009E0002C712C732C61EC61B3E7384610F028FBB6
:1009F0006EE700BFA8580100A4580100D4560100BA
:100A0000C057010010B500F1240420462F2111F039
:100A1000D5FC08B1013010BD204610BD816910B56C
:100A2000044639B140690DF0ABFAA06910F008FB3B
:100A30000023A361E16939B160690BF04DFDE06904
:100A400010F0FEFA0023E36110BD00BF816939B1E7
:100A500008B540690BF0D8FD20EAE070C11708BD69
:100A600000200021704700BF816939B108B5406995
:100A70000BF0C8FD20EAE070C11708BD002000217E
:100A8000704700BF816981B138B5044640690BF0F9
:100A9000B9FD051E07DBA16960690BF0B5FD0028F3
:100AA00001DB401B38BD002038BD0020704700BF6F
:100AB000816931B108B540690CF07EFBC043C00FBD
:100AC00008BD0846704700BF10B484693CB11346A6
:100AD00040690A4621465DF8044B0CF053B82046A5
:100AE0005DF8044B704700BF10B5846944B11346EC
:100AF00040690A4621460CF0B5FA20EAE07010BDC4
:100B0000204610BD10B50446406E18B110F098FA9A
:100B10000023636604F12400BDE8104008F070BCB7
:100B20002DE9F041002394B01A460546243104A86B
:100B30004FF47A74254F8DF804308DF80C301293F1
:100B400013930294009708F0AFFC129B002B32D055
:100B500068200FF02BFB04469DF80460029A9DF874
:100B60000C301B481B4926764FF47A78002620600B
:100B70006161E26184F8203004F1240004A9267147
:100B800026732661C4F8088008F0FEFB2369124A28
:100B90006761013366662E71C5F808802E732C617B
:100BA00023612A600D4B009304A808F029FC284615
:100BB00014B0BDE8F081139B002BC9D1064A2B71FC
:100BC000AC602B732B612A60ECE700BFB0560100CC
:100BD0003457010068560100D45601008C560100BC
:100BE000816911B140690DF07DB9704708B543794D
:100BF00023B108300DF02EFBC343DB0F184608BDB0
:100C000008B5437923B108300DF0BCFBC343DB0FBB
:100C1000184608BD08B5437923B108300DF0A6F891
:100C2000C343DB0F184608BDC26D62B1137803F0F1
:100C3000080303F0FF0003B3D3695069181A48BFD3
:100C40006FF000407047016EC1B191F8313003F090
:100C5000080303F0FF0083B1D1E90423D1E90001C7
:100C6000101A30B463EB010100256FF000448D428F
:100C700008BF844200D2204630BC70470846704707
:100C8000C36D13B1184607F043B9006E08B105F003
:100C900025BB4FF0FF30704700B5836C83B063B164
:100CA000184601220DF1070107F066F801280CD162
:100CB0009DF8070003B05DF804FBC06C28B1012269
:100CC0000DF1070105F03AFAF0E74FF0FF30F1E7D8
:100CD000C36D13B1184607F061BB006E08B106F092
:100CE0009FBA704700B5836C83B08DF8071043B18D
:100CF000184601220DF1070107F056FB03B05DF81D
:100D000004FBC06C0028F9D001220DF1070106F0A8
:100D10008FFC03B05DF804FB38B5C36D124A026066
:100D2000044600F12405D3B1284608F069FB606E43
:100D300008B110F085F90D4B6361284608F060FB9F
:100D400022690B4B236042B11369013B136123B944
:100D5000206910B103681B6A9847204638BD036EAE
:100D6000002BE1D1E3E700BF345701008C560100AE
:100D7000D456010010B5D0F87C448EB0A4B10A4618
:100D800068462146012300248DF800408DF801407B
:100D90008DF8024006F0E2FF08B90EB010BD6846BB
:100DA00008F002F80EB010BDD0F880040028F4D08E
:100DB0000A460123014668468DF831408DF83240DD
:100DC0008DF8334005F08CFD0028E6D0684606F02B
:100DD000E1F80EB010BD00BF70B5D0F87C448EB005
:100DE0001646C4B1002504F588640A462B46214600
:100DF00068468DF800508DF801508DF8025006F0CD
:100E00004DFF08B90EB070BD32462146684607F066
:100E1000B5F80EB070BDD0F880040028F2D000F50F
:100E200088650A462346294668468DF831408DF884
:100E300032408DF8334005F0D3FC0028E2D0324632
:100E40002946684606F02CFB0EB070BD38B5446EDE
:100E50000CB1204638BD05464FF4807010F0E8F81C
:100E60000146686680B1E86D0C7028B14FF480725D
:100E700007F0F4FD6C6EECE7286E40B14FF4807221
:100E800005F092F86C6EE4E7024C6C66E1E70C4604
:100E9000DFE700BF9414FF1F10B5D0F87C448EB07C
:100EA0007CB10A46012304F58861684600248DF868
:100EB00000408DF801408DF8024006F08DFE0EB026
:100EC00010BDD0F880040028F9D00A46012300F5AF
:100ED000886168468DF831408DF832408DF8334096
:100EE00006F072FA0EB010BD30B5D0F87C448FB069
:100EF00074B100250A462B46214668468DF80050FD
:100F00008DF801508DF8025006F028FF0FB030BD6B
:100F1000D0F880040028F9D00A46234601466846E6
:100F20008DF831408DF832408DF8334005F0D8FC13
:100F30000FB030BDC36D9BB11A7812F0700F00D1A5
:100F4000704710B504460021184607F031F9206EAD
:100F500028B100220023BDE8104005F0D7B910BD2C
:100F6000006E0028ECD090F8313013F0500FE7D02D
:100F70000022002305F0CAB938B50546D0F87C0434
:100F8000C0B1C469013C07F03DFCD5F87C34241A9B
:100F900043B198794FF4007303FA00F080B2A0FBDC
:100FA000040138BDD5F880346BB1D3F83404A0FB0C
:100FB000040138BDD5F880342BB11846D3F8284445
:100FC00005F012FFE1E70020002138BD30B5D0F870
:100FD0007C448FB0A4B100250A462B4621466846C2
:100FE0008DF800508DF801508DF8025006F0B6FED5
:100FF00008B90FB030BD684607F0ACF80FB030BD8F
:10100000D0F880040028F4D00A46234601466846FA
:101010008DF831408DF832408DF8334005F060FC9A
:101020000028E6D0684606F021F80FB030BD00BFBA
:10103000C36D13B1586900217047036E13B193E873
:101040000300704718461946704700BFC36D13B1BF
:10105000D86900217047036E13B118695969704748
:1010600018461946704700BF437913B90020002184
:10107000704710B5044608300DF00AFC002809DB63
:10108000D4F8A030834205D3D4F89C3003FB00F0A1
:10109000002110BD2368094ADB6993420AD16379B4
:1010A00033B1D4F8A000D4F89C3003FB00F0EFE794
:1010B0000020EDE72046BDE810401847FD05000080
:1010C000C36D13B1184606F057BE006E08B105F0A7
:1010D00035B84FF0FF307047836C13B1184606F0F7
:1010E00017BFC06C08B105F0F9B84FF0FF3070477A
:1010F000D0F87C244AB19179D0694FF400738B40C9
:101100009BB20138A3FB00017047D0F8802432B1B4
:10111000D2F82834D2F83404A3FB00017047002031
:1011200000217047C36D33B11B7813F0700F14BFEB
:10113000012000207047006E30B190F8313013F07C
:10114000500F14BF01200020704700BF2DE9F0416F
:10115000012B94B0054641D0022B01F1040140F26D
:101160000223684618BF002308F030FA129B002BB8
:101170003DD068200FF01AF804469DF8046022481C
:101180002249029A9DF80C30206004AF26766161F6
:1011900000264FF47A78394604F12400E26184F89D
:1011A0002030267126732661C4F8088008F0ECF818
:1011B00023691749174A666601332E71C5F80880FE
:1011C0002E732C61616123612A60134B00933846B2
:1011D00008F016F9284614B0BDE8F08144F2022365
:1011E0000431684608F0F2F9129B002BC1D1139B21
:1011F000002BBED14FF47A71064A2B712B732B61F1
:10120000A9602A6004AFE0E7345701006856010086
:10121000B0560100D45601008C560100836C13B106
:10122000184607F0BBB8C06C08B105F0F9BF7047AD
:10123000C36D13B1184607F0B7B8006E08B106F0D9
:10124000F7B97047836C13B1184607F0ADB8C06C9E
:1012500008B106F0EDB97047026810B51269084C84
:10126000A2420AD10346407900B910BD18460830A1
:101270000CF0F0FFC043C00F10BDBDE81040104798
:10128000ED0B0000826C62B1137803F0080303F0E9
:10129000FF0003B3D3695069181A48BF6FF00040CC
:1012A0007047C16CC1B191F8313003F0080303F00D
:1012B000FF0083B1D1E90423D1E90001101A30B451
:1012C00063EB010100256FF000448D4208BF8442AA
:1012D00000D2204630BC70470846704730B40C46F8
:1012E00032B1012A1AD0022A08D0002030BC70473F
:1012F000C36DFBB1184630BC06F05ABFC56D05B3CF
:10130000E9690023621843F10003012B08BF002A9A
:10131000EBD22144284630BC06F04ABFC56DDDB192
:10132000696900230A1943F10003012B08BF002A51
:10133000DBD2EEE7006E0028D7D00A4630BC04F0BE
:10134000E5BF006E0028D0D0D0E90423521843F145
:10135000000330BC04F0DABF006E0028C5D0D0E92D
:101360000023521843F1000330BC04F0CFBF00BF8C
:101370000269084B10B50446036042B11369013B92
:10138000136123B9006910B103681B6A98472046AE
:1013900010BD00BFD456010038B5C36D144A0260B9
:1013A000044600F12405F3B1284608F029F8606EE0
:1013B00008B10FF045FE0F4B6361284608F020F896
:1013C00022690D4B236042B11369013B136123B9BC
:1013D000206910B103681B6A9847204668210EF007
:1013E000E7FE204638BD036E002BDDD1DFE700BFEE
:1013F000345701008C560100D45601008169134B0B
:1014000010B50446036039B140690CF0B9FDA0691C
:101410000FF016FE0023A361E16939B160690BF09A
:101420005BF8E0690FF00CFE0023E3612269084BD2
:10143000236042B11369013B136123B9206910B1E4
:1014400003681B6A9847204610BD00BFC0570100C3
:10145000D456010002690A4B10B50446036042B13C
:101460001369013B136123B9006910B103681B6A5A
:101470009847204614210EF09BFE204610BD00BF69
:10148000D45601008169154B10B50446036039B18B
:1014900040690CF075FDA0690FF0D2FD0023A36137
:1014A000E16939B160690BF017F8E0690FF0C8FD28
:1014B0000023E36122690A4B236042B11369013BB7
:1014C000136123B9206910B103681B6A984720464D
:1014D000A4210EF06DFE204610BD00BFC0570100D4
:1014E000D4560100D0F8302138B51A4B1A4D03609C
:1014F0000446C0F820511AB11369013B1361CBB106
:10150000D4F81C21C4F80C511AB11369013B1361C2
:10151000C3B1D4F80821C4F8F8504AB11369013BAB
:1015200013612BB9D4F8080110B103681B6A9847FE
:10153000204638BDD0F830010028E1D003681B6A8E
:101540009847DDE7D4F81C010028E2D003681B6A45
:101550009847DEE718590100D45601002DE9F04FF5
:101560000B218FB0BE4FBF4804F0E6FB0C21BD48F5
:1015700004F034FC07F28C460D21BA4804F07EFCDE
:1015800030464FF0000109F099F83B1D0293C7F86F
:10159000886426B1304608F041FC029B38B10A212C
:1015A000B1480DF0A1FAB1480EF02AFDFEE7184649
:1015B000D7F8881407F0A8FF0028F0D0AC49DFF86E
:1015C000DC824B68AB4DDFF8D8B2132BC1464FF02D
:1015D000FE0A4FF0000409DC01EB830216460133DA
:1015E000C2F8A8A02A68B260B7654B603968CB69B9
:1015F0005B4540F0F680D7F87C24002A00F010818B
:101600009079D2694FF400738340013A9BB2A3FBF7
:101610000223CDE902238B69974A934240F0DC8094
:10162000D7F87C04002800F0F280C669013E07F07C
:10163000E9F8D7F87C34361A002B00F0D8809A7974
:101640004FF4007393409BB2A3FB06672B688B4952
:101650000093224653464FF0000B4FF00A0A83488E
:101660000EF0E6FCDDE902238DE8000C7F480EF069
:1016700035FD012182480DF037FA32463B468DE8B0
:10168000000C7A480EF02AFD013478480EF0B8FCC0
:10169000022C05F1040500F09C807A480FF0C8FC8C
:1016A0000026824688F804604FF48077002800F016
:1016B000A680744AFF2110F081F8314678227248E2
:1016C00010F07CF8314648227048714E10F076F8E0
:1016D0006E49704BDFF8CCE16F4AC9F88430C9F825
:1016E00088E0402347F6122CC9F88C604FF0320E88
:1016F000C9F89020A1F1780027220126C9F880A01E
:10170000C9F89C70C9F89430C9F89830C9F8A83065
:10171000C9F8AC30C9F8A0C0C9F8A4E0C9F8BC2029
:1017200089F804600DF002F8002868DB5749A1F140
:1017300078000AF08DFF002861DB4D4A89F80560CA
:101740005368132B09DC02EB83012E68C1F8A870E3
:1017500001338E60C1F858905360D8F8A030D8F8A3
:101760009C20494802FB03FA0DF092F8002863DB45
:10177000D8F8A03083425FD3D8F89C7007FB00F7FD
:101780002B683E490093002622464FF480734FF0A9
:101790000A0B36480EF04CFC524633460196CDF803
:1017A00000B032480EF09AFC012135480DF09CF94A
:1017B00033463A46CDF800B001962C480EF08EFC28
:1017C00001342A480EF01CFC022C05F104057FF4BC
:1017D00064AF0FB0BDE8F08F3846984706460F4615
:1017E00034E738469847CDE90201396813E7D7F85E
:1017F000803463B3D3F83434A3FB066726E70A21A9
:1018000019480DF071F919480EF0FAFBFEE7D7F808
:101810008034E3B11846D3F8286405F0E5FA08E708
:10182000D7F88034B3B1D3F82824D3F83434A2FBEA
:101830000323CDE90223EEE698F80570002F9FD030
:10184000D8F8A030D8F89C7007FB03F798E700267B
:101850000027FBE600220023CDE90223DBE600BFE0
:101860009814FF1F8009FF1FAC580100D009FF1F0B
:10187000C01EFF1F7409FF1F790F0000B858010038
:10188000C858010000127A00001EFF1F781EFF1FBB
:1018900071060000A106000019060000F81DFF1FD8
:1018A000F1100000890600002DE9F04F5749584A11
:1018B000584C594EA3B040F6B7300B78002B00F0CF
:1018C00092802378DB0740F18E80136835685B1BBC
:1018D0000E2B40F2888008215048514D0DF004F93C
:1018E00050480EF08DFB2F4609F07CFA0024FFF7DC
:1018F00035FE29E000234FF47A72DFF83C818DF841
:101900000C308DF8143006930492CDF80880132221
:10191000454902A80EF05EFB02A80EF071FB069886
:1019200078B103681B6C9847069ACDF8088042B1DD
:101930001369013B136123B9069810B103681B6A50
:10194000984701340A2C55D0224638490EA810F089
:1019500089F96B79002BCDD0DFF8E08002AA4046F0
:101960000EA90AF05DFE0028EBDA7B79002BC1D0CE
:1019700054200FF05DFB82460028BBD0014640F2A8
:1019800003130EAA40460CF05BFC0028B2DBA42037
:101990000EF00CFC06464FF00009254BC0F81480F1
:1019A0004FF47A7B336024308022C6F818A00EA949
:1019B00086F8049086F80C90C6F81090C6F81C9033
:1019C000C6F808B010F012FC3369DFF86C808DF8AF
:1019D0000C900133CDF810B08DF814900696336159
:1019E000CDF8088093E713680193019B83427FF64B
:1019F00064AF70E721460F480DF076F809480EF005
:101A0000FFFA0DF025F923B0BDE8F08F3C26FF1F4B
:101A10003825FF1F3425FF1FB426FF1FCC580100B7
:101A2000F81DFF1FD009FF1FE4580100D85801001E
:101A3000C0570100F8580100D4560100001EFF1FD6
:101A4000014803F02BBD00BF1420FF1FF8B53C4B2D
:101A50003C4F3D4D3D4E3E491D600024C3F8B054FF
:101A6000C3F88C643B4DC3F83C6928263A46C3F85A
:101A70009814C3F84819C3F8A054C3F8505983F810
:101A8000AB6483F85B69C3F87C44C3F8804483F893
:101A9000944483F8AE44C3F82C49C3F8304983F822
:101AA000444983F85E492C492C4D2D4E20460EF0BA
:101AB00055FC2C4B2C4818601C715C71C3F880409D
:101AC0004FF47A73DFF8ACE0C5F800313A46C5F858
:101AD0001431C5F8283125496C606FF0010728469C
:101AE00085F8FC4085F80441C5F8084185F81041A7
:101AF00085F81841C5F81C4185F8244185F82C412A
:101B0000C5F83041C5F8F860C5F80C61C5F820612A
:101B1000C5F83441C5F83841C5F83C41C5F84441E1
:101B200085F8484185F84941C5F800E0C5F840719D
:101B30000EF014FC0E4B1D605C601C72DC60F8BD86
:101B40009814FF1F7009FF1F98570100405B0100A8
:101B5000E85A0100011001381D060000C01EFF1FD9
:101B6000D4560100F81DFF1F20580100E5140000A5
:101B70001420FF1F1859010030B44468132C07DCEF
:101B800000EB84050134C5F8A820AB604460A9656A
:101B900030BC70474068704700EB8101486870476F
:101BA000002070470120704700EB8101486D0368F9
:101BB000DB69184700EB8101486D03689B69184792
:101BC000D0F81C0100282DD070B404681A4BE46AC8
:101BD0009C4228D1006920B30468E46A9C4222D167
:101BE0000069F0B10468E46A9C421CD10069C0B18C
:101BF0000468E46A9C4216D1006990B116460268F6
:101C0000D46A9C420D4611D1006950B10268D46A71
:101C10009C420BD1006920B103683246DB6A70BC7C
:101C2000184770BC7047234670BC18473246294697
:101C3000234670BC184700BF8904000010B5044655
:101C4000D0F8080100286FD00368404A5B6C9342CB
:101C500070D10069002867D00268526C9A4272D134
:101C60000069002860D003685B6C934262D1006910
:101C7000002859D00268526C9A4264D10069002849
:101C800052D003685B6C934254D1006900284BD05A
:101C900003685B6C9847002846D0D4F808010028F8
:101CA00042D002682A4B126C9A4245D10069002842
:101CB0003AD00268126C9A423ED10069002833D0B3
:101CC0000268126C9A4237D1006900282CD0026851
:101CD000126C9A4230D1006930B30268126C9A4299
:101CE0002AD1006900B30268126C9A4224D10069BB
:101CF000D0B10268126C9A421ED10069A0B102688C
:101D0000126C9A4218D1006970B10268126C9A4242
:101D100012D1006940B10268126C9A420CD100697C
:101D200010B103681B6C9847002384F84831C4F84D
:101D3000443110BD9847AEE79047002384F84831FE
:101D4000C4F8443110BD9047A5E700BF0D05000061
:101D500001050000704700BF2DE9F0430446D0F8AC
:101D6000080187B050B30368604A5B6C934240F04F
:101D70003B81006910B30268526C9A4240F039818D
:101D80000069D8B103685B6C934240F02D81006913
:101D9000A0B10268526C9A4240F02B81006968B190
:101DA00003685B6C934240F01F81006930B10368A7
:101DB0005B6C984710B107B0BDE8F083A16D4C4A49
:101DC0000B6801A81D680223A847D4F808312BB17D
:101DD0001A69013A1A61002A00F09080059BC4F844
:101DE0000831002BE7D01A694249019101321A618A
:101DF000059A002ADFD01369013B1361002BDAD169
:101E0000059C002CD7D022683B4B126A9A4240F0C6
:101E1000F58020692160002860D00269013A0261E2
:101E2000002A5BD12569002D58D02A68126A9A428F
:101E300040F0ED802869296000284BD00269013A02
:101E40000261002A46D12E69002E43D03268126A00
:101E50009A4240F0E28030693160DFF898E0002873
:101E600034D00269013A026182BB376977B33A68BC
:101E7000126A9A4240F0D7803869C7F800E008B388
:101E80000269013A0261EAB9D7F81080B8F1000F8F
:101E900018D0D8F80020126A9A4240F0CA80D8F8C8
:101EA0001020C8F800104AB11369013B13612BB927
:101EB000D8F8100010B103681B6A984740461421F7
:101EC0000EF076F9384614210EF072F930461421DE
:101ED0000EF06EF9284614210EF06AF920461421FE
:101EE0000EF066F907B0BDE8F08300BF0D050000F5
:101EF00068590100D456010055140000D4F8085167
:101F0000002D3FF46BAF2A684B4B126A9A4278D18E
:101F100028694A492960002861D00269013A0261B2
:101F2000002A5CD12E69002E59D03268126A9A427A
:101F30006AD13069316000284DD00269013A0261EE
:101F4000002A48D13769002F45D03A68126A9A4270
:101F500060D138693960DFF8E4E0002837D00269E1
:101F6000013A02619ABBD7F81080B8F1000F2ED069
:101F7000D8F80020126A9A4252D1D8F81000C8F856
:101F800000E000B30269013A0261E2B9D8F81090AA
:101F9000B9F1000F17D0D9F80020126A9A4245D142
:101FA000D9F81020C9F800104AB11369013B136138
:101FB0002BB9D9F8100010B103681B6A984748463E
:101FC00014210EF0F5F8404614210EF0F1F83846D1
:101FD00014210EF0EDF8304614210EF0E9F82846F1
:101FE00014210EF0E5F8F9E6984700287FF4E3AEF7
:101FF000E4E6904700287FF4DEAEDFE62046904717
:10200000D9E628469047E9E630469047E7E7284674
:10201000904763E738469047DDE73046904759E7F9
:1020200040469047D3E7384690474FE748469047A9
:10203000C9E74046904745E755140000D4560100D3
:10204000D0F80831002B36D01A681C49526C8A42ED
:1020500010B504462CD1186948B303685B6C9342F1
:102060002AD1006918B30268526C9A4221D10069E2
:10207000E8B103685B6C93421ED10069B8B1026895
:10208000526C9A4215D1006988B103685B6C98471D
:1020900068B1236820461B6C98472046FFF75CFE1A
:1020A00000226FF0010384F84921C4F8403110BDCB
:1020B00018469047ECE770479847E9E70D050000A0
:1020C0002DE9F043064683B00C461746FFF744FE61
:1020D000D6F8085104EB8404002D69D028684C49D7
:1020E0002201446B8C424FF0000C74D12969002905
:1020F0005AD00B68D3F83480A04572D1D1F810E0E3
:10210000BEF1000F57D0DEF80040646B44456ED13D
:10211000DEF810E0BEF1000F4DD0DEF80030D3F84D
:102120003480A04569D1DEF81040002C43D02368EC
:10213000D3F83490C14566D12469002C3BD0216886
:10214000CDF800C063462046496B8847D6F8085151
:10215000002D2DD02A682F4BD46A9C4231D128699A
:1021600030B30268D46A9C4233D1006900B302687C
:10217000D46A9C422DD10069D0B10268D46A9C42D5
:1021800027D10069A0B10268D46A9C4221D10069BC
:1021900070B10268D46A9C421BD1006940B10368E7
:1021A0003946DB6A502210E0C46A1A4B9C4208D1BF
:1021B00003B0BDE8F083C46A164B9C4201D10846C7
:1021C000CFE7394628465022234603B0BDE8F04306
:1021D00018473946F7E7CDF800C063462846A047C0
:1021E000B4E7CDF800C063460846C047AEE7CDF877
:1021F00000C063467046A047A8E7CDF800C063461C
:102200007046C047A2E7002320460093C8479DE7D9
:10221000C9040000890400002DE9F0410546806DE5
:102220001849036801271B6985F8487194B09847DD
:102230006B68C5F8343100218B42C5F844111DDDAF
:102240000C460E464FF02F0801E0D5F84411ADF8CA
:102250000E404B1CC5F844316A462846009402964D
:1022600001968DF80C708DF80D60ADF81080FFF7B9
:1022700027FFD5F834310134A342E6DC14B0BDE8C1
:10228000F08100BF685901002DE9F0410D46144668
:1022900082B00021502206460FF090FAD5F8443162
:1022A000A342C0F0BA802846FFF756FDD5F80801D2
:1022B00004EB840422014FF0000C002800F0A980F8
:1022C0000768714C796BA14240F0BB80016900291D
:1022D00000F0AC800B68D3F83480A04540F0C88093
:1022E000D1F810E0BEF1000F58D0DEF80030D3F87E
:1022F0003480A04540F0B680DEF810E0BEF1000F5B
:102300004CD0DEF80030D3F83480A04540F0AA80ED
:10231000DEF810E0BEF1000F40D0DEF80030D3F858
:102320003480A04540F0AA80DEF810E0BEF1000F36
:1023300034D0DEF80030D3F83480A04540F09E80E1
:10234000DEF810E0BEF1000F28D0DEF80030D3F840
:102350003480A04540F09280DEF810E0BEF1000F1E
:102360001CD0DEF80030D3F83480A04540F08680E1
:10237000DEF810E0BEF1000F10D0DEF80030D3F828
:102380003480A0457AD1DEF810403CB12168CDF808
:1023900000C063462046496B884756E0BC6A3B4B09
:1023A0009C4247D108460268946A9C4242D1006927
:1023B00000282ED00268946A9C423BD1006940B349
:1023C0000268946A9C4235D1006910B30268946A2D
:1023D0009C422FD10069E0B10268946A9C4229D1E5
:1023E0000069B0B10268946A9C4223D1006980B14F
:1023F0000268946A9C421DD1006950B10268946AD7
:102400009C4217D1006920B1036850229B6A314673
:102410009847304602B0BDE8F08150220021304696
:102420000FF0CCF9304602B0BDE8F081BC6A174B22
:102430009C42EED050223146A047304602B0BDE863
:10244000F081CDF800C063468847D5F80801002820
:10245000DFD002680D4B946A9C42EBD100690028E2
:10246000A1D1D6E7CDF800C063467046C047ECE77F
:10247000CDF800C063460846C047E6E70023704633
:102480000093C047E1E700BFC90400007D040000DD
:1024900030B5D0F84C5195B004464DB923E0029BBD
:1024A000C4F84C319DF81030D3B9D4F84C51D5B1A3
:1024B0002A4621466846FFF7E7FE94F85021002A95
:1024C000EDD1D4F84C31D4F844110133C4F84C3177
:1024D0008B429DF8103028BFC4F84C21002BE4D06B
:1024E000284615B030BD0025284615B030BD00BFC8
:1024F000F0B595B017460A46014668461D461A9E35
:102500001B9CFFF7C1FE384604A90FF0F7FD9DF8AC
:102510000C30009A326033B9019BBDF80E202B605D
:10252000228015B0F0BD4FF0FF33F6E700B595B04F
:102530000A4601466846FFF7A7FE019815B05DF808
:1025400004FB00BF70B5D0F81C3194B00446002BDA
:102550004CD01D686149EA6B8A4240F0B7801A6925
:10256000002A00F0AB801068C66B8E4252D1106911
:10257000002834D00668F66B8E424CD100690028E2
:102580002DD00668F66B8E4245D1006938B30668D7
:10259000F66B8E423FD1006908B30668F66B8E4237
:1025A00039D10069D8B10668F66B8E4233D1006923
:1025B000A8B10668F66B8E422DD1006978B1066825
:1025C000F66B8E4227D1006948B10668F66B8E42E1
:1025D00021D1006918B10368DB6B98471CE02E6CB1
:1025E0003F498E4275D11046002522E01D466846BF
:1025F000D4F840212146FFF747FE6A46D4F840113F
:1026000001952046FFF75CFD6FF00103C4F84031EF
:1026100014B070BD1046B047D4F81C31002B5AD00E
:102620001E682F49366C8E4205464CD11869002829
:10263000DDD003681B6C8B423ED100690028D6D0E8
:1026400003681B6C8B4237D100690028CFD0036828
:102650001B6C8B4230D100690028C8D003681B6C0A
:102660008B4229D100690028C1D003681B6C8B42C2
:1026700022D100690028BAD003681B6C8B421BD1A1
:1026800000690028B3D003681B6C8B4214D1006929
:102690000028ACD003681B6C8B420DD10069002868
:1026A000A5D003681B6C8B4206D1006900289ED020
:1026B00003681B6C98479AE7984798E72E6C08497F
:1026C0008E42154693D01846B04790E7184690477B
:1026D000A2E70025F7E7054689E700BFF1040000FF
:1026E00001050000F0B50C4695B0014606461546BA
:1026F000684622461F46FFF7C7FD00998C4221D04D
:102700003B462A463046FFF7EDFF28460FF098FD7E
:102710002B18044613F8013C2F2B03D00D4B1B88BC
:102720002B52013404A80FF08BFD20440130B84235
:1027300003D3BDF80E0015B0F0BD04A928460FF074
:10274000DDFAF6E7034BBDF80E001B882B8015B0B1
:10275000F0BD00BF785901002DE9F043ADF5257DAE
:102760004FF48073914624AA0D460446FFF7BAFF42
:10277000064624A80FF064FD014624A80CF0B4F925
:1027800021480DF03DFC2A46214610A8FFF77CFDAC
:1027900014A968460FF08CFA4946804614A80FF039
:1027A000ADFC10AA29462046FFF78AFC64AA4FF424
:1027B000807329462046FFF795FF64A80FF040FD7F
:1027C00004EB8606014664A80CF08EF90E480DF065
:1027D00017FCB06D036864AA24A9DB689847064615
:1027E00060B96F46C7EB08020132694614A80CF0C5
:1027F0007BF810AA29462046FFF762FC30460DF50B
:10280000257DBDE8F08300BFD009FF1F2DE9F04F03
:10281000ADF6B44D04460D4690461F460A460146A5
:1028200020A8FFF731FD209E0FB908F1FF3734A82B
:102830003A462146FFF728FD48A832462146FFF7D1
:1028400023FD502220A95CA80CF04EF8502234A998
:1028500070A80CF049F8BDF8DE30BDF88E209A4221
:102860000DD0232116480CF03FF916480DF0C8FB97
:102870004FF0000840460DF6B44DBDE8F08FACAA0D
:102880004FF4807329462046FFF72CFFDDF82481A2
:102890004545824600F0AC8202A842462146FFF739
:1028A000F3FC02A9502284A80CF01EF884A998A871
:1028B00050220CF019F8869EB54206D13EE300BFC7
:1028C0007C590100D009FF1F1E463246214602A84E
:1028D000FFF7DAFC502202A984A80CF005F8502278
:1028E00084A998A80CF000F8869B9D42ECD1229B0D
:1028F000869384AA31462046FFF7E2FB359BBDF85C
:10290000DEE0ADF88EE020AA2946204622932097EB
:102910003595FFF7D5FB34AA39462046FFF7D0FBA3
:10292000ECAA4FF4807329462046FFF7DBFEBDF882
:10293000DE20BDF82E319A4200F0D0829DF88C3016
:10294000002B40F0108104EB8009ECAAD9F8581054
:102950000B6816A8D3F800800223C0471A9B002BEF
:1029600086D019688D4A496C914240F012811869ED
:10297000002800F04D820168496C914240F00A81C4
:102980000069002800F044820168496C914240F0DF
:1029900001810069002800F03B820168496C914286
:1029A00040F0F8800069002800F032820168496C2C
:1029B000914240F0EF800069002800F02982016810
:1029C000496C914240F0E6800069002800F02082C6
:1029D0000168496C914240F0DD800069002800F0F8
:1029E00017820168496C914240F0D4800069002848
:1029F00000F00E820168496C914240F0CB80006982
:102A0000002800F0058203685B6C98478046B8F1A7
:102A1000000F00F09E821A98002831D00268604BA7
:102A2000516B994240F08C82006948B30268516B47
:102A3000994240F08582006910B30268516B994257
:102A400040F07E820069D8B10268516B994240F033
:102A500077820069A0B10268516B994240F07082A0
:102A6000006968B10268516B994240F0698200695F
:102A700030B1036800220092596B0022002388477E
:102A800004EB8A0A1BA8DAF85810DFF81C810B68DF
:102A9000ACAAD3F800B00023D8471F9B002B00F04E
:102AA000858019683F4AD1F828B0934540F0848169
:102AB000186900287AD00168D1F828B0934540F011
:102AC0007C810069002871D00168D1F828B0934555
:102AD00040F073810069002868D00168D1F828B0FF
:102AE000934540F06A81006900285FD00168D1F801
:102AF00028B0934540F061810069002856D00168F4
:102B0000D1F828B0934540F05881006900284DD095
:102B10000168D1F828B0934540F04F810069002842
:102B200044D00168D1F828B0934540F0468100694F
:102B300000283BD00168D1F828B0934540F03D8192
:102B4000006998B30168D1F828B0934540F0358109
:102B5000006958B303684FF400629B6A0DF59661F3
:102B6000984702462FE1314698AA2046FFF7A8FA77
:102B70005CAA29462046FFF7A3FA204670AA3946E8
:102B8000FFF79EFA4FF0000840460DF6B44DBDE841
:102B9000F08F18468847804639E700BF0D050000D2
:102BA000C90400007D040000890400001A98002870
:102BB00000F0BF814FF0000B5A460368DB6A4345C3
:102BC00040F00E810069002846D00368DB6A434567
:102BD00040F00681006900283ED00368DB6A434567
:102BE00040F0FE800069002836D00368DB6A434568
:102BF00040F0F680006900282ED00368DB6A434568
:102C000040F0EE80006938B30368DB6A434540F06A
:102C1000E780006900B30368DB6A434540F0E08069
:102C20000069C8B10368DB6A434540F0D980006998
:102C300090B10368DB6A434540F0D280006958B127
:102C40000368DB6A434540F0CB80006920B103682C
:102C50000DF59661DB6A9847BBF5006FBFF61DAFB7
:102C60001F9B33B31A686749126C8A4240F08C810B
:102C70001869F0B103681B6C934240F09D810069B4
:102C8000B8B10268126C9A4240F07F81006980B14D
:102C900003681B6C934240F08F81006948B1026861
:102CA000126C9A4240F07181006910B103681B6C8C
:102CB00098471A9830B30368524A1B6C934240F00D
:102CC00066810069F0B10268126C9A4240F0768128
:102CD0000069B8B103681B6C934240F058810069E9
:102CE00080B10268126C9A4240F06881006948B174
:102CF00003681B6C934240F04A81006910B103687D
:102D00001B6C9847BBF1000FC0F22681DAF858001F
:102D10000368ACA91B6998478046002800F03981F8
:102D20001F9A394D1B95002A42D01369013B13614C
:102D3000002B3DD11F9C002C3AD02368334A1B6ADC
:102D4000934240F03D812169256000292CD00B6918
:102D5000013B0B6143BB266936B333681B6A934260
:102D600040F0348131693560D1B10B69013B0B61B1
:102D7000B3B93769A7B13B681B6A934240F0298118
:102D80003A693D6042B11369013B136123B9386967
:102D900010B103681B6A9847384614210DF008FAF1
:102DA000304614210DF004FA204614210DF000FAEB
:102DB0001A9B169583BB5DE518464FF400620DF52E
:102DC0009661D8470246002A9346C0F2A4801A981A
:102DD00000287FF4F2AEBBF5006FBFF65EAE3FE7B2
:102DE0000DF596619847BBF5006FBFF656AE37E715
:102DF0003146229B499348AA2046FFF761F94FF0DC
:102E0000FF367BE501050000D45601005514000093
:102E1000734D16954FF000081A69013A1A61002A9D
:102E20007FF428AD1A9C002C3FF424AD23686D4A32
:102E30001B6A934240F08A8021692560002948D0AE
:102E40000B69013B0B61002B43D12669002E40D05A
:102E500033681B6A934240F0AC80316935600029C9
:102E600033D00B69013B0B617BBB37696FB33B68A8
:102E70001B6A934240F0A78039693D6009B30B6932
:102E8000013B0B61EBB9D7F81090B9F1000F18D0E6
:102E9000D9F800301B6A934240F09E80D9F8102088
:102EA000C9F800504AB11369013B13612BB9D9F835
:102EB000100010B103681B6A9847484614210DF0B2
:102EC00077F9384614210DF073F9304614210DF0CE
:102ED0006FF9204614210DF06BF9CBE404EB8A0A5C
:102EE000ECAADAF858000368ACA9DB68984780467A
:102EF00000287FF4BFAC314698AA2046FFF7E0F8DF
:102F00005CAA29462046FFF7DBF870AA394620461E
:102F1000FFF7D6F8AEE4112133480BF0E5FD9DF83C
:102F2000781032480DF0D2F830480DF069F81F9B48
:102F300097E6002B3FF4EAAE834693E64646D6E496
:102F40000023009300220023884799E520469847F4
:102F500090E41A9B224D2CE7D9F858000368ECA99D
:102F60001B699847314698AA2046FFF7A9F85CAA42
:102F700029462046FFF7A4F870AA39462046FFF7F5
:102F80009FF84FF00008CBE61846904791E6984727
:102F9000B8E6314698AA2046FFF792F85CAA29467F
:102FA0002046FFF78DF870AA39462046FFF788F8CB
:102FB000B6E6304698478CE798477AE69047A1E610
:102FC00020469847F4E6384698477EE730469847CB
:102FD000EAE638469847E3E64846984771E700BF77
:102FE000D456010055140000A0590100D009FF1F5C
:102FF000F0B54A1CFDB00E46044614BF0D46002530
:1030000006E0159B19469BB12368DB6B984728B3F4
:103010002A4621466846FFF737F9502269460DEBEC
:1030200002000BF061FC9DF85C302046002BE8D1DB
:10303000731C2ED04FF480733CAA31462046FFF714
:1030400051FB9DF85C303BB3BDF85E3004EB83036D
:103050003CA9986D03685B69984710B900207DB062
:10306000F0BD149F002314AA314620468DF860302D
:10307000FFF726F83A4628A82146FFF705F9299DCB
:10308000AE4215D1169B299328AA39462046FFF750
:1030900017F801207DB0F0BDBDF85E3004EB83036E
:1030A0003CA9986D03681B6998470028D6D0D8E7DB
:1030B000002DEED02A4621466846FFF7E5F850225B
:1030C000694628A80BF010FC2A9B9E4201D01D46A1
:1030D000EEE7169B2A93204628AA2946FEF7F0FF22
:1030E0000120BCE74B1C01D0FFF782BF00207047D6
:1030F0002DE9F04FD0F840318B42C9B000F0FA8191
:1031000016464FF4807308AA04460D46FFF7EAFA04
:103110000746D4F81C01002800F088800268574B4D
:10312000526C9A4240F0EE81006900287ED002681D
:10313000526C9A4240F0E6810069002876D002681D
:10314000526C9A4240F0DE81006900286ED002681D
:10315000526C9A4240F0D6810069002866D002681D
:10316000526C9A4240F0CE81006900285ED002681D
:10317000526C9A4240F0C6810069002856D002681D
:10318000526C9A4240F0BE81006900284ED002681D
:10319000526C9A4240F0B6810069002846D002681D
:1031A000526C9A4240F0AE81006900283ED003681C
:1031B0005B6C9847002839D0D4F81C01002835D022
:1031C00002682F4B126C9A4240F09E8100690028E1
:1031D0002CD00268126C9A4240F09681006928B3A4
:1031E0000268126C9A4240F08F810069F0B1026867
:1031F000126C9A4240F088810069B8B10268126C82
:103200009A4240F08181006980B10268126C9A4252
:1032100040F07A81006948B10268126C9A4240F02D
:103220007381006910B103681B6C984704EB870732
:1032300008AAB96D0B6803A81F68F3B2B847D4F8A1
:103240001C211AB11369013B1361EBB1079AC4F851
:103250001C2162B111690B4B039301311161079974
:1032600029B10A69013A0A61002A00F0AB80C4F86A
:103270004051C4F83C6149B0BDE8F08F0D05000035
:1032800001050000D4560100D4F81C71002FDDD0D8
:103290003B68AA491B6A8B4240F038813869A84BC9
:1032A0003B60002800F089800269013A0261002A2F
:1032B00040F08380D7F81080B8F1000F7DD0D8F8A7
:1032C0000020126A8A4240F03081D8F81000C8F815
:1032D000003000286DD00269013A0261002A68D1ED
:1032E000D8F81090B9F1000F63D0D9F80020126A15
:1032F0008A4240F01481D9F81000C9F80030DFF894
:1033000040E2002851D00269013A0261002A4CD102
:10331000D9F810A0BAF1000F47D0DAF80020126AED
:103320008A4240F00881DAF81000CAF800E000286C
:1033300037D00269013A0261002A32D1DAF810B0BE
:10334000BBF1000F2DD0DBF80020126A8A4240F05A
:10335000FC80DBF81020CBF800307948EAB1136923
:10336000013B1361CBB9DBF81020B2B113681B6AC3
:103370008B4240F0F0801169106051B10B69013B44
:103380000B6133B9106920B1036801921B6A984739
:10339000019A104614210CF00BFF584614210CF032
:1033A00007FF504614210CF003FF484614210CF08F
:1033B000FFFE404614210CF0FBFE384614210CF0B1
:1033C000F7FE43E7079F002F3FF451AF3A685B4990
:1033D000126A8A4240F09D8038693B60002800F004
:1033E00084800269013A0261002A7ED1D7F81080F8
:1033F000B8F1000F79D0D8F80020126A8A4240F064
:103400009180D8F81000C8F80030002869D002690F
:10341000013A0261002A64D1D8F81090B9F1000F86
:103420005FD0D9F80020126A8A4275D1D9F810000D
:10343000C9F80030DFF808E100284ED00269013AEF
:103440000261002A49D1D9F810A0BAF1000F44D086
:10345000DAF80020126A8A426AD1DAF81000CAF853
:1034600000E0002835D00269013A0261002A30D11B
:10347000DAF810B0BBF1000F2BD0DBF80020126A95
:103480008A425FD1DBF81020CBF800302C48E2B143
:103490001369013B1361C3B9DBF81020AAB11368AB
:1034A0001B6A8B4254D11169106051B10B69013B09
:1034B0000B6133B9106920B1036801921B6A984708
:1034C000019A104614210CF073FE584614210CF09A
:1034D0006FFE504614210CF06BFE484614210CF090
:1034E00067FE404614210CF063FE384614210CF0B0
:1034F0005FFEBCE6D0F83C3193427FF401AE49B0A8
:10350000BDE8F08F904755E690478FE638469847DC
:103510009CE638469047AAE648469047E1E7484689
:10352000904746E740469047DFE74046904744E7EC
:1035300050469047D1E75046904736E75514000073
:10354000D456010058469047C3E75846904728E7AD
:1035500010469847B9E7104698471EE72DE9F0470F
:10356000054682B0174600229846DDF82890FFF7FE
:10357000BFFDD5F81C41002C6AD020684D4A466B2F
:1035800096424FF000037BD1216900295CD00A6884
:10359000D2F834A0B24578D1D1F810E0BEF1000FD6
:1035A00059D0DEF80020566B564573D1DEF810E096
:1035B000BEF1000F4FD0DEF80020D2F834A0B245A3
:1035C0006DD1DEF810E0BEF1000F44D0DEF800301F
:1035D0005E6B564568D1DEF81060002E3BD0316836
:1035E000002300933A463046496B8847D5F81C4182
:1035F000002C2DD02268304B956A9D4231D1206934
:1036000030B30268946A9C4233D1006900B3026807
:10361000946A9C422DD10069D0B10268946A9C42A0
:1036200027D10069A0B10268946A9C4221D1006947
:1036300070B10268946A9C421BD1006940B1036872
:103640004A4641469B6A10E0856A1B4B9D4208D161
:1036500002B0BDE8F087856A174B9D4201D108464C
:10366000CFE74A46414620462B4602B0BDE8F04728
:1036700018474A464146234602B0BDE8F04718477E
:1036800000933A462046B047B0E700933A460846D2
:10369000D047ABE700933A467046B047A6E70093A1
:1036A0003A467046D047A1E700233A467046009359
:1036B000B0479BE7C90400007D040000F0B51F4639
:1036C000531C08BF01F1FF35E9B018BF1546044689
:1036D0002A4668462146FEF7D7FD6E980EF0B0FDEB
:1036E0003E2803D90026304669B0F0BD421C6E99D1
:1036F00018A80BF0F9F8D4F84461BDF80E30019A1F
:10370000ADF85E30711C0023C4F8441115933146A6
:1037100001231692204614AA14958DF85C708DF83A
:103720005D30FEF7CDFC6A46294620460196FEF73D
:10373000C7FC3FB9204602223146FFF7D9FC30468C
:1037400069B0F0BD28AA31464FF480732046FEF7D9
:10375000C9FF04EB800028A9806D03689B68984727
:10376000304669B0F0BD00BF2DE9F04FADB0014665
:10377000044604A89046FEF787FD9DF81C3013B15F
:103780009DF81D2012B12DB0BDE8F08F20464146B6
:10379000FFF7AEFCD4F81C010028F4D00368334FC7
:1037A0005B6CBB425FD100690028ECD003685B6CA6
:1037B000BB4258D100690028E5D003685B6CBB426E
:1037C00051D100690028DED003685B6CBB424AD14E
:1037D00000690028D7D003685B6CBB4243D1006905
:1037E0000028D0D003685B6C98470028CBD0DFF866
:1037F0008490DFF884B00025D4F81C1100293DD056
:103800000B681B4A1B6D934240F0898209690029AD
:1038100034D00B681B6D934240F081820969002906
:103820002CD00B681B6D934240F07982096929B353
:103830000B681B6D934240F072820969F1B10B680D
:103840001B6D934240F06B820969B9B10B681B6D27
:10385000934240F06482096981B10B6800221B6DBC
:1038600018A8984715E09847BFE700BF0D0500006E
:1038700039050000D45601005514000000234FF410
:103880007A72CDF860908DF864308DF86C301C93AE
:103890001A92D4F83021002A48D01369013B1361F1
:1038A000002B43D1D4F83061002E3FD033681B6A1F
:1038B0005B4540F045823269C6F8009099498AB369
:1038C0001369013B13616BBBD6F810A0BAF1000F6E
:1038D00028D0DAF800301B6A5B4540F00A83DAF83A
:1038E0001020CAF80010CAB11369013B1361ABB9CB
:1038F000DAF8103093B11A68126A5A4540F0028320
:103900001969C3F8009029B10A69013A0A61002ACD
:1039100000F02282184614210CF04AFC5046142173
:103920000CF046FC304614210CF042FC1C9BC4F801
:103930003031002B4ED01A697A4901321A611C9A33
:10394000CDF86090002A45D01369013B1361002B2C
:1039500040D11C9E002E3DD033681B6A5B4540F071
:10396000EC81326931608AB31369013B13616BBB2F
:10397000D6F810A0BAF1000F28D0DAF800301B6A90
:103980005B4540F0B982DAF81020CAF80010CAB1DD
:103990001369013B1361ABB9DAF8103093B11A68BF
:1039A000126A5A4540F0AB821969C3F8009029B1F8
:1039B0000A69013A0A61002A00F036821846142189
:1039C0000CF0F6FB504614210CF0F2FB30461421AB
:1039D0000CF0EEFBD4F83001002800F0948003686E
:1039E0005B6CBB4240F09B800069002800F08B803C
:1039F00003685B6CBB4240F092800069002800F0D5
:103A0000828003685B6CBB4240F0898000690028BB
:103A100079D003685B6CBB4240F08180006900286C
:103A200071D003685B6CBB4279D1006900286AD011
:103A300003685B6CBB4272D10069002863D00368E5
:103A40005B6CBB426BD1006900285CD003685B6C87
:103A5000BB4264D10069002855D003685B6C98476D
:103A6000002850D0D4F83031BDF81E20CDF8608049
:103A70001A95ADF86E20002B00F00B8119682A4AC8
:103A8000C96C914252D11869002800F00281016886
:103A9000C96C91424BD10069002800F0FA8001689E
:103AA000C96C914243D10069002800F0F28001689E
:103AB000C96C91423BD10069002800F0EA8001689E
:103AC000C96C914233D10069002800F0E28001689E
:103AD000C96C91422BD10069002800F0DA8001689E
:103AE000C96C914223D10069002800F0D28001689E
:103AF000C96C91421BD10069002800F0CA8003689C
:103B0000DB6C984714E0012304AA41462046059542
:103B10008DF81D30FEF7D4FA2DB0BDE8F08F984730
:103B20009EE700BFD45601002D05000018468847C7
:103B30008DF86C00D4F83031002800F0AD80002002
:103B4000002219908DF86D20002B00F0E680196896
:103B50007D4A896C914240F0DC801869002800F0B1
:103B6000DC8003689B6C934238D10069002800F028
:103B7000D48003689B6C934230D10069002800F028
:103B8000CC8003689B6C934228D10069002800F028
:103B9000C48003689B6C934220D10069002800F028
:103BA000BC8003689B6C934218D10069002800F028
:103BB000B48003689B6C934210D10069002800F028
:103BC000AC8003689B6C934208D10069002800F028
:103BD000A48003689B6C9847014601E09847014622
:103BE0001CA80EF08BFAD4F844516B1C2046C4F884
:103BF0004431294618AAFEF763FAD4F830010028A8
:103C00003FF4FAAD0268514B126C9A423FD1006901
:103C100000283FF4F1AD0268126C9A4237D1006976
:103C200000283FF4E9AD0268126C9A422FD1006976
:103C300000283FF4E1AD0268126C9A4227D1006976
:103C400000283FF4D9AD0268126C9A421FD1006976
:103C500000283FF4D1AD0268126C9A4217D1006976
:103C600000283FF4C9AD0268126C9A420FD1006976
:103C700000283FF4C1AD0268126C9A4207D1006976
:103C800000283FF4B9AD03681B6C9847B4E5904732
:103C9000B2E500228DF86C20002B49D019682C4A1F
:103CA000C96B91423FD1186948B30168C96B914211
:103CB0003AD1006918B30168C96B914234D10069E7
:103CC000E8B10168C96B91422ED10069B8B10168B1
:103CD000C96B914228D1006988B10168C96B9142D2
:103CE00022D1006958B10168C96B91421CD10069A9
:103CF00028B10368DB6B9847D4F8303120E7002205
:103D00008DF86D2019681992896C0F4A91423FF421
:103D100024AF18468847014662E70E4960E7002253
:103D200018A89847B5E518468847D4F8303107E712
:103D300019938DF86D30074952E73046984749E6A8
:103D400030469847F2E500BF190500000105000064
:103D5000F1040000805801001A69002A3FF4DAAD2E
:103D60001168096A594540F0D5801069C2F8009081
:103D7000002852D001690139016100294DD1116932
:103D80000091002949D000980168096A594540F01E
:103D9000CD8001460069C1F80090002835D0016946
:103DA0000139016189BB0099D1F810C0BCF1000F45
:103DB0002BD0DCF80000006A5845014640F0C48072
:103DC000DCF81000CCF80090B8B1016901F1FF3EB9
:103DD000C0F810E0BEF1000F0FD1DCF8100060B1A8
:103DE000D0F800E0CDF80CC002920193DEF820304C
:103DF0009847DDF80CC0029A019B0292604614219C
:103E000001930CF0D5F9019B029A009802921421BB
:103E100001930CF0CDF9019B029A009310461421F6
:103E20000CF0C6F9009B75E51A69002A3FF4C6AD8F
:103E30001168096A594568D11069C2F800900028D4
:103E400050D001690139016100294BD111690091FC
:103E5000002947D000980168096A59455FD1014699
:103E60000069C1F80090002834D00169013901616E
:103E700081BB0099D1F810C0BCF1000F2AD0DCF84A
:103E80000000006A5845014657D1DCF81000CCF814
:103E90000090B8B1016901F1FF3EC0F810E0BEF139
:103EA000000F0FD1DCF8100060B1D0F800E0CDF8C1
:103EB0000CC002920193DEF820309847DDF80CC068
:103EC000029A019B02926046142101930CF070F952
:103ED000019B029A00980292142101930CF068F958
:103EE000019B029A0093104614210CF061F9009B8B
:103EF00064E55046984715E55046984766E51846EC
:103F000090475FE51846904708E5009310468847BC
:103F1000009B53E5009310468847009BFAE4029209
:103F2000019300988847029A019BDBE70292019374
:103F300000988847029A019B6FE7029201936046BE
:103F40008847029A019BC5E7029201936046884721
:103F5000029A019B59E700BF90F84831012270B5E1
:103F6000054680F849210E4673B1D5F8443153B166
:103F70000024224631462846FFF7F6FBD5F84431A7
:103F80000134A342F5D870BDFEF746F9EDE700BF56
:103F900030B590F8483197B00446154603B3A5B143
:103FA0006B1C08BF01F1FF352A462046FFF7DCFBFA
:103FB000012384F850312A46214602A8FEF764F90D
:103FC000039BC4F84C3117B030BD94F8493163B14C
:103FD0000022012384F85021C4F84C3117B030BDC1
:103FE0000191FEF719F90199D9E72046FFF7B4FFCF
:103FF0000022012384F85021C4F84C31EEE700BFC1
:1040000070B5054600680368DB690E4600249847D2
:1040100000E001342868036831461B6A984700288D
:10402000F7D1204670BD00BF10B50446606818B9CE
:104030000BF012F8606000B110BDFDF78BFEF5E7E4
:10404000002A2EDD2DE9F8434FF0000916460F46F1
:104050000546C84601E04E4521DD2846FFF7E4FF4E
:104060006B6833F8080BC9EB0602C0F140049442B8
:10407000A8BF144607EB0901184422460AF034FC95
:1040800069680B8823449BB2402BA1440B80E2D18A
:1040900004200BF0DFF84E45C5F80480DDDCBDE8F8
:1040A000F883704730B50B7883B0044663B3084695
:1040B0000D460EF0C5F8217A01308DF8030061B38A
:1040C000E3680133E3602A7832B919E0E368023328
:1040D000E36015F8012F72B1ADF806200029F5D183
:1040E00002220DF106012046FFF7AAFF15F8012F65
:1040F000217A002AF0D10023ADF80430F9B1E36849
:104100000233E36003B030BD027A8DF802307AB139
:10411000C3680133C36003B030BD01220DF1030158
:104120002046FFF78DFF2A78217A002AD4D1E2E7D2
:1041300001220DF10201FFF783FF03B030BD2046DD
:10414000022201A9FFF77CFF03B030BD70B5037AEE
:1041500082B004460D46ADF80410DBB1C3684FF6DB
:10416000FF720233C360ADF8062002330022E36021
:104170008DF802200133E3604DF202439D4227D0C7
:10418000237A00228DF8032083B3E3680133E360D0
:1041900002B070BD022201A9FFF752FF267A4FF646
:1041A000FF73ADF806304EBB02220DF1060120462A
:1041B000FFF746FF237A8DF802600BBB01220DF159
:1041C00002012046FFF73CFF4DF202439D42D7D14A
:1041D0000C492046FFF766FF0A492046FFF762FFB9
:1041E000237A00228DF80320002BCED12046012215
:1041F0000DF10301FFF724FF02B070BDE368B4E7DF
:10420000E368B7E7145A0100F0B5037A8BB0642570
:104210000446ADF80650002B6FD0C3680622023367
:10422000C360059204336422E360ADF804200233D6
:10423000E36074492046FFF735FF237A0022ADF88A
:104240000220002B00F0BA80E36812220233E36000
:1042500004920433E36001266B4D41F2010305F142
:10426000220707E0E368AF4203F10203E3600DD0E9
:1042700035F8023FADF80830002EF3D1022202A932
:104280002046FFF7DDFEAF42267AF1D100230993E5
:10429000002E4CD0E36801220433E360089204331B
:1042A0004DF20242E360ADF80E2002330022E360DB
:1042B000079204330222E360069204334FF4405223
:1042C000E360ADF80C20023343F20102E360ADF885
:1042D0000A200233E36020464C49FFF7E3FE204604
:1042E0004B49FFF7DFFE20464A49FFF7DBFE204639
:1042F0004949FFF7D7FE0BB0F0BD02220DF10601D0
:10430000FFF79EFE237A06220592002B6DD1042230
:1043100005A92046FFF794FE237AADF80450002B40
:1043200065D1022201A92046FFF78AFE81E7042217
:1043300009A92046FFF784FE237A01220892002B68
:1043400057D1042208A92046FFF77AFE237A4DF2BE
:104350000242ADF80E20002B4DD102220DF10E01CC
:104360002046FFF76DFE237A0796002B45D10422E5
:1043700007A92046FFF764FE237A02250695002B45
:104380003DD1042206A92046FFF75AFE237A4FF4B6
:104390004052ADF80C2023BB2A4603A92046FFF764
:1043A0004FFE237A43F20102ADF80A20BBB92A4638
:1043B0000DF10A012046FFF743FE8CE702220DEBC8
:1043C00002012046FFF73CFE237A1222049253B9E1
:1043D000042204A92046FFF733FE267A3CE7E3686F
:1043E00077E7E3686FE7E36833E7E3681AE7E368D2
:1043F0001DE7E36853E7E36857E7E36859E7E368D5
:104400005BE700BF1C5A0100E0590100305A01006F
:10441000145A0100385A01003C5A010070B5054693
:104420000068174A03685B68934282B024D14668EB
:104430002B7A0096D3B1EB680433EB60012436B9D4
:1044400012E0EB6801340433A642EB600CD32B7A04
:104450000194002BF5D104220DEB02012846013412
:10446000FFF7EEFDA642F2D202B070BD042269460B
:104470002846FFF7E5FDE1E798470646D8E700BF85
:10448000951B000070B5037A82B0044613BB0D463D
:104490001646FFF7B5FD237A019013B3E3680433A2
:1044A000E360206803683246DB6929469847206844
:1044B000036829461B6A984788B1237A00901BB18C
:1044C000E3680433E360F2E7042269462046FFF71D
:1044D000B7FDECE7FFF794FD01308000E06002B02B
:1044E00070BD04220DEB02012046FFF7A9FDD8E7BD
:1044F000F0B50446D3B000680DF10A0606AD0368B6
:104500008DE8600012AA5F6A05ABB847237A32884B
:104510000792002B59D0E368059A04330132E36017
:1045200000F0EB800022ADF8102002330022E3609F
:10453000ADF80E200233059AE3600F920433002297
:10454000E360ADF80C2002330022E3600E920433E6
:104550000022E3600D9204330022E3600C920433E6
:104560000022E3600B9204330022E3600A920433DA
:104570000022E360099204332A68E3600892059AF6
:10458000A2F1FF32B2FA82F252090433E360ADF8CD
:10459000122002330022E360119204330022E36010
:1045A00010920433E36012A92046FFF77BFD2046FA
:1045B0006249FFF777FD20466049FFF773FD20460B
:1045C0005E49FFF76FFD53B0F0BD07A904222046F6
:1045D000FFF736FD059B267A013343F2010318BF2E
:1045E0000023ADF81030002E40F0908004A9022284
:1045F0002046FFF725FD237AADF80E60002B40F032
:10460000878002220DF10E012046FFF719FD237A63
:10461000059A0F92002B7DD10FA904222046FFF7A7
:104620000FFD237AADF80C60002B75D103A902228F
:104630002046FFF705FD237A0E96002B6ED10EA9BA
:1046400004222046FFF7FCFC237A0D96002B67D14D
:104650000DA904222046FFF7F3FC237A0C96002BC9
:1046600060D10CA904222046FFF7EAFC237A0B96BE
:10467000002B59D10BA904222046FFF7E1FC237A35
:104680000A96002B52D10AA904222046FFF7D8FC33
:10469000237A0996002B4BD1042209A92046FFF763
:1046A000CFFC237A2A680892002B43D108A9042260
:1046B0002046FFF7C5FC059B267AA3F1FF33B3FA2A
:1046C00083F35B09ADF81230002E35D10DF11201E4
:1046D00002222046FFF7B4FC257A1196A5B911A94C
:1046E00004222046FFF7ACFC237A109553B910A999
:1046F00004222046FFF7A4FC55E743F20102ADF87F
:10470000102012E7E3684CE7E36846E7E3680CE74C
:10471000E3680FE7E36811E7E36814E7E36816E787
:10472000E36818E7E3681AE7E3681CE7E3681EE755
:10473000E36820E7E36822E7E3682AE7805801009E
:10474000F0B5184F027A3B6883B00446019312B368
:10475000C2680432C260E3B1134E4DF60143002536
:1047600008E0E3680233E3603B680135AB4210D9EF
:1047700036F8023F227AADF80230002AF1D1022247
:104780000DEB02012046FFF75BFC3B680135AB42B5
:10479000EED803B0F0BD04220DEB0201FFF750FC90
:1047A0003B68D8E77C09FF1F045A0100F0B50546B5
:1047B000AFB000680DF10A0605AC03688DE8500043
:1047C00014465E6A0EAA04AB0F46B047A4F55C42DD
:1047D000013A049B432A30D8DFE802F03D48637079
:1047E0002F2F3731312F582F2F2F2F2F2F2F2F2FA4
:1047F0002F2F2F2F2F2F2F2F2F2F2F2F2F2F2F2FC9
:104800002F2F2F2F2F2F2F2F2F2F2F2F2F2F2F2FB8
:104810002F2F2F2F2F2F2F2F2F2F2F2F222F2F37AD
:104820002B7A0D97002B51D0EB680433EB600433E7
:10483000EB600433EB600433EB602FB0F0BD28462F
:104840004349FFF72FFC2FB0F0BD0EA92846FFF714
:1048500029FC2FB0F0BD2B7ABDF80A200692002B60
:104860005CD0EB680433EB602FB0F0BD01332A7AE3
:1048700043F2010318BF4FF44053ADF80C30002A47
:1048800046D0EB680233EB602FB0F0BD2B7A059A6F
:104890000992002BE5D12846042209A9FFF7D0FB95
:1048A000CBE72B7A0022ADF80E20002BE9D1284669
:1048B00002220DF10E01FFF7C3FBBEE72C7A08932D
:1048C000002C31D0EB680433EB60B4E704220DA96F
:1048D0002846FFF7B5FB2B7A059A0C92002B35D1B1
:1048E00004220CA92846FFF7ABFB2C7ABDF80A304E
:1048F0000B934CBB04220BA92846FFF7A1FB2B7A94
:104900000A94FBB9284604220AA9FFF799FB94E709
:104910002846022203A9FFF793FB8EE728460422CC
:1049200006A9FFF78DFB88E7042208A92846FFF7B0
:1049300087FB2B7A07942BB92846042207A9FFF797
:104940007FFB7AE7EB6876E7EB6872E7EB686EE788
:10495000805801002DE9F04304460068036889B0DF
:104960005B690D469847237A00280CBF0422012278
:10497000ADF80620002B4CD0E3680233E3602068DA
:10498000036829469B699847267A00280CBF0123B3
:104990000223ADF80A30002E5FD0E3680022023314
:1049A000E360ADF808200233E3602068036829461D
:1049B000DB6898470646206803680F461B6929464E
:1049C0009847237A80468946CDE9066743B3361A6D
:1049D000E36867EB0107CDE904670833E360083358
:1049E0004FF0FF32E36003920433E3602068284A0B
:1049F00003689B68934240D100EB850041682046E4
:104A0000FFF750FB20462349FFF74CFB09B0BDE8F8
:104A1000F08302220DF106012046FFF711FBAEE7FD
:104A2000082206A92046FFF70BFBB6EB0806237AFF
:104A300067EB0907CDE904672BBB082204A92046D0
:104A4000FFF7FEFA237A4FF0FF320392CBB904222C
:104A500003A92046FFF7F4FAC8E702220DF10A0184
:104A60002046FFF7EDFA237AADF808606BB9022211
:104A700002A92046FFF7E4FA97E72946984701463E
:104A8000BDE7E368B0E7E368A9E7E3688BE700BF49
:104A9000991B0000805801002DE9F043A1F55C410D
:104AA0000139A5B0044643295AD8DFE811F05C006B
:104AB0006E008000C60059005900D800210169012C
:104AC0005900B101590059005900590059005900C5
:104AD000590059005900590059005900590059000E
:104AE00059005900590059005900590059005900FE
:104AF00059005900590059005900590059005900EE
:104B000059005900590059005900590059005900DD
:104B100059005900590059005900590059005900CD
:104B20005900590059005900590059005900F7011E
:104B3000590059004400037A4DF64442ADF846202E
:104B4000002B00F03D82E3680233E3600233E36050
:104B50000133E3600133E3600433E3600133E36076
:104B600025B0BDE8F083037A4DF60142ADF81E2072
:104B7000002B00F0AF82E3680233E3600233E360AE
:104B80000133E3600433E360E6E7037A4DF6024263
:104B9000ADF82420002B00F0D481E3680233E360F9
:104BA0000233E3600133E3600233E360D4E7037A66
:104BB0004DF60342ADF82A20002BEED102220DF172
:104BC0002A01FFF73DFA277A0426ADF82860002F66
:104BD00040F0CB8202220AA92046FFF731FA257A5B
:104BE0008DF80970002D40F0BE8201220DF10901FF
:104BF0002046FFF725FA277AADF82650002F40F01F
:104C0000B08202220DF126012046FFF719FA257A1B
:104C10001597002D40F09382324615A92046FFF7E4
:104C20000FFA237A8DF80850002B40F08682204638
:104C3000012202A9FFF704FA92E7037A4DF6044233
:104C4000ADF82E20002B00F03B81C3680233C36017
:104C50000233E3600133E3600833E3607CE7037A07
:104C60004DF60742ADF83220002B7FF46CAF0222E4
:104C70000DF13201FFF7E4F9237A4FF6FF72ADF838
:104C80003020002B40F0658202220CA92046FFF75D
:104C9000D7F9267A01258DF80E50002E40F0578264
:104CA0002A460DF10E012046FFF7CAF9277A8DF842
:104CB0000D60002F40F053822A460DF10D01204671
:104CC000FFF7BEF9267A1797002E40F038820422AB
:104CD00017A92046FFF7B4F9237A8DF80C60002B52
:104CE00040F02B822A46204603A9FFF7A9F937E7AF
:104CF000037A4DF60842ADF83620002B7FF423AF3F
:104D000002220DF13601FFF79BF9267A4FF6FF7369
:104D1000ADF83430002E40F01C8202220DA920464E
:104D2000FFF78EF9257A8DF81160002D40F00F8283
:104D300001220DF111012046FFF782F9267A8DF844
:104D40001050002E40F00B82012204A92046FFF7EC
:104D500077F9257A1896002D40F0F181042218A9E0
:104D60002046FFF76DF9237A8DF80F50002B40F0A5
:104D7000E481204601220DF10F01FFF761F9EFE612
:104D8000037A4DF60942ADF83A20002B7FF4DBAEF2
:104D900002220DF13A01FFF753F9267A4FF6FF731D
:104DA000ADF83830002E40F0D48102220EA9204602
:104DB000FFF746F9257A8DF81460002D40F0C78181
:104DC000012205A92046FFF73BF9267A8DF81350FA
:104DD000002E40F0C48101220DF113012046FFF79F
:104DE0002FF9257A1996002D40F0A981042219A9DE
:104DF0002046FFF725F9237A8DF81250002B40F05A
:104E00009C81204601220DF11201FFF719F9A7E656
:104E1000037A4DF60B42ADF83E20002B7FF4ABAE8B
:104E200002220DF13E01FFF70BF9267A0623ADF8B9
:104E30003C30002E40F0898102220FA92046FFF766
:104E4000FFF8257A8DF81660002D40F07C81012254
:104E50000DF116012046FFF7F3F8267A1B95002E78
:104E600040F06F8104221BA92046FFF7E9F8257A5C
:104E70001A96002D40F0638104221AA92046FFF7FC
:104E8000DFF8237A8DF81550002B40F0568120462C
:104E900001220DF11501FFF7D3F861E6037A4DF613
:104EA0004142ADF84220002B00F0CB80C3680233B2
:104EB000C3600233E3600133E3600833E360CBE6B1
:104EC00002220DF12E01FFF7BBF8267A0825ADF876
:104ED0002C50002E40F0418102220BA92046FFF702
:104EE000AFF8237A8DF80B60002B40F0348101225B
:104EF0000DF10B012046FFF7A3F8267A00220023CC
:104F0000CDE91E23002E40F032812A461EA92046FC
:104F1000FFF796F8257A1696002D40F010810422AE
:104F200016A92046FFF78CF8237A8DF80A50002B3B
:104F300040F00381204601220DF10A01FFF780F8BD
:104F40000EE6022209A9FFF77BF8277A0426ADF8BE
:104F50002260002F40F0098102220DF1220120463B
:104F6000FFF76EF8257A8DF80770002D40F0FB8072
:104F700001220DF107012046FFF762F8277AADF80C
:104F80002050002F40F0ED80022208A92046FFF7B4
:104F900057F8257A1497002D40F0D180324614A995
:104FA0002046FFF74DF8237A8DF80650002B40F08D
:104FB000C480204601220DF10601FFF741F8CFE53C
:104FC00002220DF14601FFF73BF8267A4FF6FF73F8
:104FD000ADF84430002E40F0BC80022211A92046DA
:104FE000FFF72EF8257A8DF81B60002D40F0AF807A
:104FF00001220DF11B012046FFF722F8267A8DF8D9
:105000001A50002E40F0AB8001220DF11A0120460B
:10501000FFF716F8257A1D96002D40F090800422A7
:105020001DA92046FFF70CF8237A8DF81950002BA4
:1050300040F08380204601220DF11901FFF700F8AE
:105040008EE502220DF14201FEF7FAFF257A0A23CE
:10505000ADF84030002D40F09080022210A920468B
:10506000FEF7EEFF237A8DF81850002B40F0838076
:10507000012206A92046FEF7E3FF237A4FF000083D
:105080004FF00009CDE92289002B72D1082222A914
:105090002046FEF7D5FF267ACDE92089002E66D17D
:1050A000082220A92046FEF7CBFF257A1C96002D6A
:1050B00045D104221CA92046FEF7C2FF237A8DF8B1
:1050C0001750002B39D1204601220DF11701FEF7B0
:1050D000B7FF45E502220DF11E01FEF7B1FF267A6A
:1050E0000623ADF81C3086BB022207A92046FEF736
:1050F000A7FF257A8DF805602DBB01220DF1050172
:105100002046FEF79DFF267A1395D6B9042213A9EF
:105110002046FEF795FF257A129685B9042212A93A
:105120002046FEF78DFF237A8DF804502BB92046D8
:10513000012201A9FEF784FF12E5E3680EE5E368AA
:105140000AE5E3681EE5E3681AE5E36816E5E36847
:10515000FEE4E368FAE4E3687CE5E36878E5E368A5
:10516000F8E4E36820E5E3681CE5E36818E5E36834
:1051700072E5E368A1E6E3689DE6E36899E600BFAF
:1051800010B50446636805201BB909F0ABFF6060E9
:1051900000B110BDFCF7DEFDF4E700BF2DE9F047DC
:1051A00006460068036882B09B6A88469847357A4D
:1051B00007465DBB38B3A94601E0AF4223D930466C
:1051C000FEF732FF96E8090033F8082B01687C1BD4
:1051D000C2F1400E744528BF744600941344D1F8C0
:1051E00030A02A464146D04771680B8823449BB2C1
:1051F000402B25440B80E0D104200AF02BF8AF426D
:10520000C6F80490DBD802B0BDE8F087F3681F440D
:10521000F76002B0BDE8F087A2B32DE9F041064681
:105220000D46904600273046FFF7AAFF7368B3F893
:1052300002E0B3F800C0CEEB0C04444528BF44465E
:1052400003F10801714428462246C4EB08083DB129
:1052500009F04AFB7368B3F802E0B3F800C02544D4
:105260007444A4B2A4455C8004D0B8F1000FDAD134
:10527000BDE8F081184609F00FFF7760B8F1000F24
:10528000D1D1F5E7704700BF70B582B001220C465E
:105290000DF106010646FFF7BFFF9DF806207CB121
:1052A000A5185AB102220DF106013046FFF7B4FFEE
:1052B000BDF8063004F8013BA542F3D102B070BD41
:1052C000520021463046FFF7A7FFF7E730B5A1B0FF
:1052D00004460D460C226946FFF79EFF69462046AC
:1052E000FFF7D2FF206803686A4629469B6C9847FF
:1052F00042F2010021B030BD2DE9F04FC5B004AF3E
:10530000394692460C220546FFF786FFBB88022BE2
:1053100008BF3C684FF00402394628460CBF413CA8
:105320006FF03404FFF778FF022239462846D7F899
:105330000090FFF771FFB7F8008043F201030222EB
:1053400039462846C3EB0808FFF766FF04223946B2
:105350002846FFF761FF022239462846FFF75CFF27
:10536000042239462846FFF757FF042239462846CB
:10537000FFF752FF042239462846FFF74DFF04226B
:1053800039462846FFF748FF042239462846FFF7EA
:1053900043FF042239462846FFF73EFF04223946E0
:1053A0002846FFF739FF022239462846FFF734FF27
:1053B000042239462846FFF72FFF042239462846A3
:1053C000FFF72AFF39462846FFF75EFF38460CF004
:1053D00037FF0130A4EB4004B8FA88F8032C4FEAF9
:1053E00058180CD926460DF10C0B043E04225946E0
:1053F0002846FFF711FF032EF7D804F003040DF140
:105400000C0B34B1012259462846FFF705FF013C39
:10541000F8D1286804680097434652464946E46A32
:10542000A04745B0BDE8F08FF0B585B00C2201A9CA
:105430000746FFF7F1FEBDF80830022B05D03868AB
:1054400003689B6B984705B0F0BD019D0C3DF6D0FD
:1054500000263846FFF794FE97E803004A8831F8A3
:10546000084B0368A41AAC4228BF2C465B6B11445E
:105470002246984778684388028823449BB29A4220
:10548000A5EB0405438002D0002DE2D1D7E709F057
:1054900003FE7E60002DDCD1D1E700BF2DE9F04393
:1054A000054685B0052009F01DFE98B103880B2B39
:1054B000044618D983890C27012B078017D04FF495
:1054C000005000260323E0816661A3812146042069
:1054D00009F0C0FE062009F005FE08B109F0DCFD68
:1054E00005B0BDE8F083204609F0D6FDF2E7C28999
:1054F00041F20B018A4200F043823ED841F205019D
:105500008A4200F01D8200F2978041F202039A4223
:1055100000F0118140F2C28041F203039A4200F090
:105520000B8241F204039A4240F0B4800123002729
:105530002B722846EF60FEF771FFEB682F720C3379
:105540000222ADF808200193E389ADF80A302369FF
:10555000039328460C2201A9FEF772FD2846FEF7A8
:105560005DFF2846FEF760FD0420696809F072FEC1
:105570003E466F6042F20100A4E741F219018A42FF
:1055800000F0C7813CD841F20D039A4200F0BA8185
:10559000C0F0A88141F214039A4200F0278141F241
:1055A00015039A4276D1002201232B72EA604269E8
:1055B0004DF202439A4200F009820C23002102229C
:1055C0002972ADF808200193E389ADF80A30236908
:1055D00003930C2201A92846FEF732FD62694DF2C1
:1055E00002439A4200F0ED812846FEF71DFD002699
:1055F0000420696809F02EFE6E6042F2010061E746
:1056000049F602018A4200F09E8067D949F60303F9
:105610009A4200F0C88049F604039A423AD1876959
:1056200046692846FFF7ACFD4DF607439F4200F060
:10563000D48142F2050045E741F207018A4200F0B9
:105640002081C0F0168141F208039A4200F0F380F5
:1056500041F209039A421DD1002701232B72EF600A
:1056600041692846FFF79AFDEB682F720C3302223E
:10567000ADF808200193E389ADF80A30236903935C
:1056800001A928460C22FEF7DBFC61692846FFF7DA
:1056900085FD66E742F20500002613E741F20103AB
:1056A0009A42F7D1002701232B722846EF60FEF7BC
:1056B000ABFDEB682F720C330222ADF8082001938A
:1056C000E389ADF80A302369039328460C2201A927
:1056D000FEF7B6FC2846FEF797FD42E749F60103C0
:1056E0009A42D7D146690123002731462B722846BA
:1056F000EF60FFF725F8EB682F720C330222ADF84C
:1057000008200193E389ADF80A302369039301A9C6
:1057100028460C22FEF794FC31462846FFF710F885
:105720002846FEF781FC0420696809F093FD6F604C
:1057300042F20100C6E6286803685B6C98470026C1
:1057400042F20100BEE64669D0F818902B724FF085
:10575000000831464A462846C5F80C80FFF79CF9F8
:10576000EB6885F808800C330222ADF8082001931D
:10577000E389ADF80A30236903933A4601A9284624
:10578000FEF75EFC4A4631462846FFF785F9284673
:10579000FEF74AFC0420696809F05CFDC5F8048046
:1057A00042F201008EE64669D0F8188000270123F6
:1057B000314642462B722846EF60FEF7F7FFEB6852
:1057C0002F720C330222ADF808200193E389ADF863
:1057D0000A302369039301A928460C22FEF730FC06
:1057E000424631462846FEF7E1FF99E701230022B1
:1057F0002B72EA6041694DF20243994200F0DB806E
:105800000C23002102222972ADF808200193E389BC
:10581000ADF80A302369039301A90C222846FEF74C
:105820000FFC61694DF2024399427FF4DDAE2846D8
:10583000FEF78CFCD8E6002701232B72EF6041694C
:105840002846FEF755FEEB682F720C330222ADF8A6
:1058500008200193E389ADF80A302369039301A975
:1058600028460C22FEF7ECFB61692846FEF740FE55
:1058700077E68369002B00F0958042F21400002641
:1058800020E6D0F81880B8F1000FF6D12B72C5F8D9
:105890000C80C26941692846FEF7F4FDEB6885F883
:1058A00008800C330222ADF808200193E389ADF89B
:1058B0000A303A462369039301A92846FEF7C0FB44
:1058C000E26961692846FEF7DDFD2846FEF7ACFB7C
:1058D0000420696809F0BEFC4646C5F8048042F21F
:1058E0000100EFE52846A2696169FFF705FD6669D9
:1058F000E0611823002E08BF01262380A36042F236
:105900000100DFE52846FFF78FFD002642F2010087
:10591000D8E52868E3690168A269CD6C6169A84788
:1059200042F2050342F201022780A76000280CBF63
:10593000184610460026C5E542F201000026C1E5E2
:105940004FF000082B72C5F80C8041692846FFF71C
:1059500001F8EB6885F808800C330222ADF80820C6
:105960000193E389ADF80A302369039301A928461E
:105970003A46FEF765FB61692846FEF7EBFFA4E7B0
:105980008669002E7FF479AF286861690368DB6B54
:10599000984742F2120342F2010200280CBF184657
:1059A00010468FE52846E2696169FEF729FB064645
:1059B00042F2010086E52846FEF7C8FBEB680C338F
:1059C0001FE70A492846FEF76DFB0DE60749284602
:1059D000FEF768FBEB680C33F0E528463146FFF72D
:1059E00075FC00283FF47FAD80B26BE5145A0100CE
:1059F00010B4047F4160022CC26003D05DF8044BF8
:105A00000AF068BA83685DF8044B18472DE9F04145
:105A10000468E56815F0807F794D256052D1DF0775
:105A200040F1B380002900F0E3800D78012B18BF0E
:105A300045F000456563013190F82C8003F1FF3C8F
:105A400048EA0828BCF1000F00F0A88021B14D7889
:105A500011F8028B45EA082845682E7ABCF1020F3E
:105A600006F1FF364FEA06360CBF48F0805548F085
:105A70001045B6B26563ACF1020C08E00AB11470CF
:105A80000132013B05F47045B54216D90468E56A58
:105A900015F0F00FF6D0A46B13F0010F17464FEA84
:105AA000242EEBD11AB107F802EB54703A4605F4F4
:105AB0007045B542A3F10203E8D8BCF1000F6DD0E8
:105AC0000468C3E7DD074CD5002900F089800D7814
:105AD000012B18BF45F000456563013103F1FF3E1E
