:1000000000000320D101000049200100012001006F
:100010000120010001200100012001000120010058
:100020000120010001200100012001004920010000
:100030004920010001200100493701004D3701002E
:100040004920010049200100492001004920010008
:1000500049200100492001004920010049200100F8
:1000600049200100492001004920010049200100E8
:1000700049200100492001004920010049200100D8
:1000800049200100492001004920010049200100C8
:1000900049200100492001004920010049200100B8
:1000A00049200100492001004920010049200100A8
:1000B0004920010049200100492001004920010098
:1000C0004920010049200100492001004920010088
:1000D0004920010049200100492001004920010078
:1000E0004920010049200100492001004920010068
:1000F0004920010049200100492001004920010058
:100100004920010049200100492001004920010047
:1001100049200100892A01004920010049200100ED
:100120004920010049200100492001004920010027
:100130004920010049200100492001004920010017
:100140004920010049200100492001004920010007
:1001500049200100492001004920010049200100F7
:1001600049200100492001004920010049200100E7
:1001700049200100492001004920010049200100D7
:1001800049200100492001004920010049200100C7
:1001900049200100492001004920010049200100B7
:1001A00049200100492001004920010049200100A7
:1001B0004920010049200100492001004920010097
:1001C0004920010049200100492001004920010087
:1001D000594B4CF2205210B51A804DF628121A8055
:1001E00000BF00BF11F034FF544B4FF030621A6073
:1001F000534A9A60534ADA60534B4FF470021A60C4
:10020000524B534A1A60534B1A78110703D51A7888
:1002100042F008021A70504B5049AA221A70504AF4
:10022000504B8B4204D252F8040F43F8040BF8E70A
:100230004D4B4E4900228B4202D243F8042BFAE781
:100240004B494C4A002352F8230041F82300013364
:10025000742BF8D1484B494A802103F8011B934283
:10026000FBD1474B424A1A60464B8A221A70A3F5CB
:10027000805324225A70A0221A709A799207FCD5D2
:100280009A79D406FCD4404A937903F00C03082BE6
:100290003D4BF9D101221A7148225A719A79900680
:1002A000FCD5394A9179384B4906FBD5374A38494C
:1002B00011600221516020221A709A7902F00C021A
:1002C0000C2AFAD1334B344A1A60344A344C13683E
:1002D00013F4807303D123604FF4A8531360314BA0
:1002E000314A1A6000225A60072243F8042C2F4A30
:1002F000C3F80C2D62B612F0D1F92368DA0705D5E0
:100300002B4812F03DF92B4B2B4A1A602B4B1B78D4
:100310005B0609D5274C284B22689A4204D1244811
:1003200012F02EF90023236014F098F911F096FED4
:1003300013F0C2FAFEE700BF0E20054030800440F3
:10034000823F04000100002B88ED00E0002008E05F
:100350000300008502D0074000E00740E014FF1FC3
:10036000609D01007009FF1FE014FF1FC02CFF1FDC
:100370000002FF1F0000000000E400E064E400E071
:1003800008ED00E000500640004006404480044074
:100390000000030104800440C010050010D0034099
:1003A00014D0034014E000E0FF760100000020209C
:1003B000310000001CE00340A5C3945A00F0074040
:1003C000FFFFFFFFFFFFFFFFFFFFFFFFFFFFFFFF3D
:1003D000FFFFFFFFFFFFFFFFFFFFFFFFFFFFFFFF2D
:1003E000FFFFFFFFFFFFFFFFFFFFFFFFFFFFFFFF1D
:1003F000FFFFFFFFFFFFFFFFFFFFFFFFFFFFFFFF0D
:10040000FFFFFFFFFFFFFFFFFFFFFFFFDEF9FFFF23
:1004100010B5054C237833B9044B13B10448AFF33E
:1004200000800123237010BDE014FF1F00000000B6
:100430005C9D0100084B10B51BB108490848AFF39B
:1004400000800848036803B910BD074B002BFBD0A0
:10045000BDE81040184700BF00000000E414FF1F73
:100460005C9D0100E014FF1F0000000000207047A9
:10047000704700BF4FF0FF30704700BF006910B1F8
:1004800003689B6A18477047006910B10368DB6A0C
:1004900018477047006910B103681B691847704717
:1004A000006910B103689B6918474FF0FF3070472F
:1004B000006910B10368DB6818477047006910B124
:1004C0000168096B0847704710B4006920B10468DF
:1004D000616B5DF8044B08475DF8044B704700BF43
:1004E000006910B103689B6B18470020002170471A
:1004F000006910B10368DB6B1847002000217047CA
:10050000006910B103681B6C18477047006910B18F
:1005100003685B6C18477047006910B103689B6CF7
:1005200018470148704700BF64900100006910B18E
:100530000368DB6C1847704738B50B6904462BB16C
:100540001D6819462B6D9847204638BD4FF47A70C8
:10055000064A23712373A06022600B692361002B7C
:10056000F2D01A6901321A61204638BD148E01009A
:10057000006910B103685B6D18477047006980B16E
:1005800000B5036883B09B6A01220DF1070198470B
:1005900020B19DF8070003B05DF804FB4FF0FF3079
:1005A000F9E74FF0FF30704710B582B002AB026838
:1005B00003F8011DD46A19460122A04702B010BDFC
:1005C000C36D0BB101207047006E003018BF0120D1
:1005D000704700BF4FF0FF30704700BF83690BB119
:1005E00001207047C069003018BF0120704700BF6C
:1005F000C069003018BF0120704700BF43793BB18C
:10060000D0F8A020D0F89C30002103FB02F0704706
:1006100018460021704700BF00207047704700BF98
:1006200010B50446024603690549064813F0D8F898
:10063000206920B10368BDE810405B6A184710BD0F
:1006400004900100200BFF1F024603690149024884
:1006500013F0C6B820900100200BFF1F024603696B
:100660000149024813F0BCB840900100200BFF1F65
:1006700008B500684FF4807200EB0120FF2114F0F0
:10068000DDFB002008BD00BF08B5006802EB0122B9
:1006900010441946029A11F0AFFA002008BD00BFBD
:1006A00008B5006802EB01210144029A184611F0D6
:1006B000A3FA002008BD00BF2DE9F0410F46164601
:1006C000804607F0B3FC044607F0A0FC054607F09F
:1006D0008DFCA4F2BC739BB27F2B02D8EAB20C2A29
:1006E0002BD90023A8F8003007F050FC044607F08F
:1006F0005DFC054607F06AFCE3B2172B02D8EBB2AB
:100700003B2B0BD900233B8007F060FC10F0010F5E
:1007100014BF642300233370BDE8F081C3B23B2BC8
:10072000F0D8E4026B0104F4FF2403F4FF532343E5
:10073000C0F3460003439BB2E5E7C0B21F28D0D800
:100740006D0105F4FF55284340EA43239BB2C9E7F6
:1007500010B50446406E18B113F0B0FF0023636675
:1007600004F12400BDE810400BF046BAC16911B194
:1007700040690FF0BBB87047F0B5CD69ADB0064623
:100780000C464DB916E014F03FFE534918B102A8CB
:1007900014F03AFED0B9E56930220021684614F021
:1007A0004DFB29466A4660690FF032F800284B4934
:1007B00002A8E8DC4A4A326000234FF47A713046DE
:1007C000337133733361B1602DB0F0BD802204F119
:1007D00024010CA815F024F80CA815F051F80246D5
:1007E000002837D180220CA802A915F019F89DF82D
:1007F0000050012D49D0342013F058FF074600283F
:10080000D8D001460CAA60690EF09EFF00285EDB7E
:10081000A42013F05BF805466269324BC7610024DF
:100820006A610CA924304FF47A7780222B602C71F6
:100830002C732C61AC61AF6014F0F2FF2B69284A75
:10084000347101333046B760347335612B613260E7
:100850002DB0F0BD2CAB034413F8811C2F290FD011
:100860007D280DD801322CA911442F2003F8800CCB
:1008700000250CAB981801F8805CC2F18002B3E748
:100880000CAB9818C2F18002AEE7542013F00EFFB3
:10089000074600288ED001462B460CAA606910F04E
:1008A00057FE002813DBA42013F010F805466269F8
:1008B0000C4B876100246A610CA924304FF47A77CD
:1008C00080222B602C712C732C61EC61B3E73846CD
:1008D00013F0F4FE6EE700BF6C9001006890010019
:1008E000148E0100FC8E010010B500F12404204696
:1008F0002F2115F083F808B1013010BD204610BD3E
:10090000816910B5044639B1406910F0C1FCA06995
:1009100013F0D4FE0023A361E16939B160690EF0E0
:1009200063FFE06913F0CAFE0023E36110BD00BF5E
:10093000816939B108B540690EF0EEFF20EAE07038
:10094000C11708BD00200021704700BF816939B17F
:1009500008B540690EF0DEFF20EAE070C11708BD5F
:1009600000200021704700BF816981B138B504467D
:1009700040690EF0CFFF051E07DBA16960690EF02C
:10098000CBFF002801DB401B38BD002038BD002014
:10099000704700BF816908B5029B61B12BB1012B83
:1009A00003D0022B01D0002008BD40690FF072FD7A
:1009B000C043C00F08BD084608BD00BF816931B102
:1009C00008B540690FF080FDC043C00F08BD084660
:1009D000704700BF10B484693CB1134640690A46B1
:1009E00021465DF8044B0FF055BA20465DF8044BE4
:1009F000704700BF10B5846944B1134640690A4688
:100A000021460FF0B7FC20EAE07010BD204610BD73
:100A1000816911B1406910F0EDBB70472DE9F041DB
:100A2000002394B01A460546243104A84FF47A7482
:100A3000254F8DF804308DF80C30129313930294E7
:100A400000970BF02DF9129B002B32D0682012F08A
:100A50003DFF04469DF80460029A9DF80C301B4847
:100A60001B4926764FF47A78002620606161E261A6
:100A700084F8203004F1240004A92671267326612D
:100A8000C4F808800BF07CF82369124A67610133CF
:100A900066662E71C5F808802E732C6123612A606A
:100AA0000D4B009304A80BF0A7F8284614B0BDE83E
:100AB000F081139B002BC9D1064A2B71AC602B73BC
:100AC0002B612A60ECE700BFF08D0100748E0100FD
:100AD000A88D0100148E0100CC8D010008B543796A
:100AE00023B1083010F0CAFAC343DB0F184608BD23
:100AF00043790BB91846704700B58DB06A46083087
:100B00000EF016FFC343DB0F18460DB05DF804FB73
:100B10002DE9F0430D4649798DB0044600294AD0AD
:100B200017461E46002B53D1083528466A463946DB
:100B30000EF0FEFE00283EDB9DF80080B8F1010FAC
:100B40007BD0342013F0B2FD8146A0B301463A4673
:100B500028460EF0F9FD00282ADBA42012F0B6FE8C
:100B600080464B4B06713946C8F81450243088F83B
:100B70000C60C8F810604FF47A75C8F81C90802299
:100B8000C8F81860C8F80030C8F8085014F048FEDB
:100B9000D8F810303F4AA56001332046C4F81080D1
:100BA00026712673C8F8103022600DB0BDE8F083BE
:100BB000484613F083FD374A226000234FF47A71D0
:100BC0002046237123732361A1600DB0BDE8F0833B
:100BD000542013F06BFD80460028ECD008352846E1
:100BE00040F203133A46414610F0B2FC0028E2DB23
:100BF000012E46D0A42012F069FE06464561394612
:100C00000025234B33604FF47A77C6F81880802292
:100C1000357135733561F561B760243014F000FE2D
:100C200033691C4A257101332046A760257326616C
:100C3000336122600DB0BDE8F083542013F036FD1F
:100C400081460028B7D0014643463A46284610F070
:100C50007FFC0028ACDBA42012F038FE8046067131
:100C60003946C8F814500A4B88F80C602430C8F88C
:100C700010604FF47A75C8F818908022C8F81C608C
:100C800080E702230022414628460FF003FCB1E72B
:100C9000FC8E0100148E010008B5437923B10830A1
:100CA00010F060FCC343DB0F184608BD08B543795C
:100CB00023B1083010F0EEFCC343DB0F184608BD2B
:100CC000C26D62B1137803F0080303F0FF0003B3B1
:100CD000D3695069181A48BF6FF000407047016E21
:100CE000C1B191F8313003F0080303F0FF0083B184
:100CF000D1E90423D1E90001101A30B463EB0101FA
:100D000000256FF000448D4208BF844200D2204687
:100D100030BC704708467047836C13B1184609F021
:100D20008FBBC06C08B107F07DBC4FF0FF3070473F
:100D300000B5836C83B063B1184601220DF1070141
:100D400009F0B2FA01280CD19DF8070003B05DF854
:100D500004FBC06C28B101220DF1070107F092FBE2
:100D6000F0E74FF0FF30F1E7C36D13B1184609F01B
:100D7000ADBD006E08B108F0C9BC704700B5836C0A
:100D800083B08DF8071043B1184601220DF1070119
:100D900009F0DEFD03B05DF804FBC06C0028F9D05B
:100DA00001220DF1070108F0B9FE03B05DF804FB64
:100DB00070B5D0F87C448EB01646C4B1002504F25C
:100DC0003C440A462B46214668468DF800508DF873
:100DD00001508DF8025009F0F9F908B90EB070BD54
:100DE00032462146684609F061FB0EB070BDD0F86E
:100DF00080040028F2D000F588650A46234629467B
:100E000068468DF831408DF832408DF8334007F058
:100E10008BFE0028E2D032462946684608F0B6FD2F
:100E20000EB070BD30B5D0F87C448FB0A4B10025B1
:100E30000A462B46214668468DF800508DF8015031
:100E40008DF8025009F022FA08B90FB030BD68469B
:100E500009F018FC0FB030BDD0F880040028F4D0A1
:100E60000A462346014668468DF831408DF83240E7
:100E70008DF8334007F0D8FE0028E6D0684608F029
:100E80006BFB0FB030BD00BF38B5446E0CB12046CF
:100E900038BD05464FF4807013F008FC01466866C3
:100EA00080B1E86D0C7028B14FF480720AF04EF9F1
:100EB0006C6EECE7286E40B14FF4807207F0C0F919
:100EC0006C6EE4E7024C6C66E1E70C46DFE700BFBE
:100ED000FC14FF1FD0B5C46D8CB1012B08BF002AD4
:100EE00001D30020D0BD1146204609F0F9FB0028AF
:100EF000F7D0204609F0F0FC0028F2D0D0BD046EF7
:100F0000002CEED0204607F0A5FB0028E9D02046B3
:100F1000BDE8D04008F090BD10B5D0F87C448EB04C
:100F20007CB10A46012304F23C41684600248DF856
:100F300000408DF801408DF8024009F0E5F80EB050
:100F400010BDD0F880040028F9D00A46012300F52E
:100F5000886168468DF831408DF832408DF8334015
:100F600008F0A8FC0EB010BDC36D9BB11A7812F04A
:100F7000700F00D1704710B504460021184609F0E3
:100F8000AFFB206E28B100220023BDE8104007F01F
:100F900061BB10BD006E0028ECD090F8313013F02A
:100FA000500FE7D00022002307F054BB38B50546A8
:100FB000D0F87C04C0B1C469013C09F0A7FFD5F8A2
:100FC0007C34241A43B198794FF4007303FA00F08B
:100FD00080B2A0FB040138BDD5F880346BB1D3F8E2
:100FE0003404A0FB040138BDD5F880342BB1184679
:100FF000D3F8284408F06EF9E1E70020002138BD5D
:10100000C36D13B1586900217047036E13B193E8A3
:101010000300704718461946704700BFC36D13B1EF
:10102000D86900217047036E13B118695969704778
:1010300018461946704700BFC36D13B1184609F032
:1010400033B9006E08B107F01DBA4FF0FF3070479A
:10105000C36D13B1184609F0F3B9006E08B107F07B
:10106000E1BA4FF0FF307047D0F87C244AB1917953
:10107000D0694FF400738B409BB20138A3FB000191
:101080007047D0F8802432B1D2F82834D2F8340432
:10109000A3FB00017047002000217047C36D33B1EE
:1010A0001B7813F0700F14BF012000207047006EF2
:1010B00030B190F8313013F0500F14BF01200020F0
:1010C000704700BF437913B900200021704710B565
:1010D0000446083010F064FD002809DBD4F8A03085
:1010E000834205D3D4F89C3003FB00F0002110BDEF
:1010F0002368094ADB6993420AD1637933B1D4F892
:10110000A000D4F89C3003FB00F0EFE70020EDE7EF
:101110002046BDE810401847FD05000010B5D0F886
:101120007C448EB0A4B10A466846214601230024BF
:101130008DF800408DF801408DF8024009F0A6F8C6
:1011400008B90EB010BD68460AF004FA0EB010BD22
:10115000D0F880040028F4D00A46012301466846EE
:101160008DF831408DF832408DF8334007F05CFD4A
:101170000028E6D0684608F083F90EB010BD00BF25
:101180002DE9F041012B94B0054641D0022B01F12D
:10119000040140F20223684618BF00230AF012FE41
:1011A000129B002B3DD0682012F090FB04469DF866
:1011B000046022482249029A9DF80C30206004AF56
:1011C0002676616100264FF47A78394604F12400CE
:1011D000E26184F82030267126732661C4F8088005
:1011E0000AF0CEFC23691749174A666601332E714F
:1011F000C5F808802E732C61616123612A60134B4E
:10120000009338460AF0F8FC284614B0BDE8F08197
:1012100044F20223043168460AF0D4FD129B002BED
:10122000C1D1139B002BBED14FF47A71064A2B71AA
:101230002B732B61A9602A6004AFE0E7748E010074
:10124000A88D0100F08D0100148E0100CC8D0100ED
:10125000836C13B1184609F039BBC06C08B108F0B3
:1012600055BA7047026810B51269084CA2420AD1FB
:101270000346407900B910BD1846083010F072F9E5
:10128000C043C00F10BDBDE810401047990C0000CE
:10129000836C13B1184609F05BBBC06C08B108F051
:1012A0003DBC7047C36D13B1184609F051BB006EC9
:1012B00008B108F033BC7047826C62B1137803F058
:1012C000080303F0FF0003B3D3695069181A48BF3D
:1012D0006FF000407047C16CC1B191F8313003F03C
:1012E000080303F0FF0083B1D1E90423D1E9000131
:1012F000101A30B463EB010100256FF000448D42F9
:1013000008BF844200D2204630BC70470846704770
:1013100030B5D0F87C448FB074B100250A462B4616
:10132000214668468DF800508DF801508DF8025026
:1013300008F0ACFF0FB030BDD0F880040028F9D021
:101340000A462346014668468DF831408DF8324002
:101350008DF8334007F068FC0FB030BDD0B4039C6B
:1013600016461F4634B1012C1ED0022C0DD0002091
:10137000D0BC7047C46DDCB1012B08BF002AF6D287
:1013800020461146D0BC09F0ABB9C36DB3B1DA69E0
:10139000B61847F10007012F08BF002EE7D23146EB
:1013A0001846D0BC09F09CB9C36D8BB15A69EFE700
:1013B000006E0028DBD0D0BC07F04CB9006E0028CE
:1013C000D5D0D0E9042392197B41D0BC07F042B9B3
:1013D000006E0028CBD0D0E9002392197B41EAE7C8
:1013E0000269084B10B50446036042B11369013B22
:1013F000136123B9006910B103681B6A984720463E
:1014000010BD00BF148E010038B5C36D144A0260D0
:10141000044600F12405F3B128460AF0EDFB606EA6
:1014200008B113F04BF90F4B636128460AF0E4FB57
:1014300022690D4B236042B11369013B136123B94B
:10144000206910B103681B6A98472046682112F092
:101450003FFA204638BD036E002BDDD1DFE700BF29
:10146000748E0100CC8D0100148E01008169134B34
:1014700010B50446036039B140690FF009FFA06957
:1014800013F01CF90023A361E16939B160690EF022
:10149000ABF9E06913F012F90023E3612269084B0C
:1014A000236042B11369013B136123B9206910B174
:1014B00003681B6A9847204610BD00BFFC8E0100E0
:1014C000148E010002690A4B10B50446036042B154
:1014D0001369013B136123B9006910B103681B6AEA
:1014E00098472046142112F0F3F9204610BD00BFA2
:1014F000148E01008169154B10B50446036039B1A3
:1015000040690FF0C5FEA06913F0D8F80023A3616D
:10151000E16939B160690EF067F9E06913F0CEF85E
:101520000023E36122690A4B236042B11369013B46
:10153000136123B9206910B103681B6A98472046DC
:10154000A42112F0C5F9204610BD00BFFC8E010099
:10155000148E0100D0F8E02038B51A4B1A4D036004
:101560000446C0F8D0501AB11369013B1361CBB1E6
:10157000D4F8CC20C4F8BC501AB11369013B1361F4
:10158000C3B1D4F8B820C4F8A8504AB11369013BDC
:1015900013612BB9D4F8B80010B103681B6A9847DF
:1015A000204638BDD0F8E0000028E1D003681B6A6F
:1015B0009847DDE7D4F8CC000028E2D003681B6A26
:1015C0009847DEE7CC920100148E010038B5C36D58
:1015D000124A0260044600F12405D3B128460AF0FD
:1015E0000BFB606E08B113F069F80D4B6361284680
:1015F0000AF002FB22690B4B236042B11369013BE5
:10160000136123B9206910B103681B6A984720460B
:1016100038BD036E002BE1D1E3E700BF748E0100FB
:10162000CC8D0100148E01002DE9F04F0B2193B0F9
:101630007648774C774EDFF810B2DFF8F89106F075
:1016400073FA0C21714806F0C1FA04F28C470D219F
:101650006E4806F00BFB38464FF000010BF02EFDF4
:101660000025C4F888742FB138460BF0D7F800284D
:1016700000F05A82336800932A46FE236649674881
:1016800012F0AEF8654812F093F80135022D06F11C
:10169000040604F5966440F09581614F614C624EFA
:1016A0000025B846404613F001F800270290277144
:1016B000002800F0D1804246FF2104F1080913F010
:1016C000BDFB04F1800A39467822484613F0B6FB88
:1016D00039464822504613F0B1FB029BDFF86CE11B
:1016E000C4F880304FEA1822C4F8A0204F4B504A6B
:1016F000DFF85CC1C4F88430C4F8C0704023C4F87B
:10170000C470C4F888E0C4F890204FF4807E27228B
:101710004FF0010B322751464846C4F88CC0C4F83C
:101720009430C4F89830C4F8A830C4F8AC30C4F889
:101730009CE0C4F8A470C4F8BC2084F804B010F095
:101740007DF90028C0F28880514648460EF008F91D
:101750000028C0F28180374A84F805B05368132B03
:1017600006DC02EB83073068B8605B44BC655360FD
:101770002368314FDA69BA4240F0A181D4F8A02041
:101780009B69D4F89C102D4801FB02FA83424FF06C
:101790000002029240F08D81484610F001FA0028C4
:1017A000C0F22C82D4F8A0308342C0F02782D4F853
:1017B0009C70336807FB00F74FF0000B2049174877
:1017C0002A464FF000094FF00A0812F009F8524675
:1017D000029B12488DE8000312F010F8012119480D
:1017E00010F00AFB3A465B468DE800030B4812F006
:1017F00005F80135094811F0DBFF022D04F1C8049A
:1018000006F1040638D0DFF84C804BE7A009FF1F33
:101810000015FF1F9009FF1F74910100200BFF1F8F
:1018200080841E00601EFF1F7409FF1FA1060000B8
:1018300019060000B820FF1FFD050000C5100000BC
:1018400018910100D8930100408AF7018906000031
:101850007106000000093D003368A149A1482A46ED
:1018600011F0BEFF01359F4811F0A2FF022D04F1D7
:10187000C80406F10406C6D19B4B9C4A9C491B68D0
:10188000029298489B4CDFF898A2DFF898B20022A9
:1018900011F0A6FF934811F08BFF974B97491B68F7
:1018A000904800224FF0030811F09AFF47468D48F8
:1018B00011F07EFF924AF9B2204600260BF0C0FFDD
:1018C000002869D0DBF80430DAF80020132B06DC9E
:1018D0000BEB8300013382608465CBF8043023680E
:1018E0008848D969814240F0BF8065799B69002DA5
:1018F00000F0AC80D4F8A020D4F89C50824905FBBD
:1019000002F58B424FF00002049240F0A68004F1F1
:10191000080010F045F90028C0F2B880D4F8A030D3
:101920008342C0F0B380D4F89C30DAF8002003FB87
:1019300000F9002307933B46744900924FF00008DA
:1019400032460A27674811F04BFF2A46049B654838
:101950008DE8800111F052FF01216D4810F04CFA22
:101960004A46079B5F488DE8800111F047FF01362A
:101970005C4811F01DFF042E04F1D8040AF1040A9A
:101980001DD0029B5E4A53F8047F0293F9B22046B1
:101990000BF056FF002895D1DAF80030009332465C
:1019A0003B465C494F4811F01BFF01364D4811F092
:1019B000FFFE042E04F1D8040AF1040AE1D113B0A9
:1019C000BDE8F08F0A275FFA87F84046012110F042
:1019D000EFFD4FF0000E8DF82480CDF828B08DF883
:1019E00025E0CDF82CE009AB93E807000CAB83E8C9
:1019F00007008DF830808DF831E0CDF838E0CDF873
:101A000034B093E807000FAB83E80700424A52F86E
:101A10003820012104F5936882F8801040460ECBEF
:101A20000AF01CFB94F8AB34C4F88884201D002B0A
:101A300000F0F680336800932A463B463749294830
:101A400011F0CEFE274811F0B3FE1EE62E49049594
:101A50008B4202D1A94607956DE720469847DAF8F0
:101A600000200791814666E7204688472368264A7A
:101A70009B69049193420546EFD1607900287FF479
:101A800046AF81460790DAF8002054E723681D4AE4
:101A9000DB699342E1D160790028F2D0D4F8A0301C
:101AA000D4F89C00DAF8002000FB03F90023079328
:101AB00041E720469847336807468B467EE6204636
:101AC00090472368104A9B69029193428246F0D165
:101AD000607900287FF460AE0746834633686DE680
:101AE0009C910100200BFF1F9809FF1FF48F01003C
:101AF000C89001009822FF1F8C09FF1FF090010081
:101B0000A009FF1FFD050000C5100000589101004D
:101B1000D89301002C910100909801008890010059
:101B20007C09FF1FB820FF1F04F104084046D4F8C9
:101B300088140AF0E5F800283FF49CADD9F8043089
:101B4000132B07DC09EB83013068886001338C6557
:101B5000C9F8043021688D4ACB69934240F0DD809A
:101B6000D4F87C04002800F0E8808779C2694FF43B
:101B70000073BB40013A9BB2A3FB0223CDE90223D1
:101B80008B69834A934240F0C380D4F87C040028D8
:101B900000F0DF80C769013F09F0B8F9D4F87C3460
:101BA0003F1A002B00F0BF809A794FF400739340E6
:101BB0009BB2A3FB0723CDE9042333687549009347
:101BC0002A46FE234FF000080A27734811F008FE4A
:101BD000DDE902238DE880016F4811F00FFE01213D
:101BE0006E4810F009F98DE88001DDE904236A48A8
:101BF00011F004FE684811F0DBFD46E52368DB695F
:101C0000BB427FF456AF6779002F5DD0D4F8A02097
:101C1000D4F89C70336807FB02F74FF0000BCDE55A
:101C200041460AF06DF800283FF404AFD9F80430BB
:101C3000132B07DC09EB83013068886001338C6566
:101C4000C9F804302168514ACB69934231D1D4F8A4
:101C50007C04002846D090F806E0C2694FF4007377
:101C600003FA0EF3013A9BB2A3FB0223CDE9022350
:101C70008B69474A934222D1D4F87C0400283ED095
:101C8000C36903F1FF3809F041F9D4F87C34C0EBA3
:101C90000808E3B19A794FF4007393409BB2A3FB19
:101CA0000823CDE90423336800932A463B463C4988
:101CB00088E720469847CDE902012168D8E7204609
:101CC0009847CDE90401EEE7BB46336876E5D4F8E2
:101CD0008034002B46D0D3F83434A8FB0323CDE95D
:101CE0000423E0E7D4F88034002B40D0D3F8282434
:101CF000D3F83434A3FB0223CDE90223B8E7D4F8A8
:101D000080347BB31846D3F8288407F0E3FABCE7A5
:101D100020469847CDE904014FE720469847CDE992
:101D2000020121682CE7D4F880342BB3D3F8343483
:101D3000A7FB0323CDE904233FE7D4F8803403B3A2
:101D4000D3F82824D3F83434A2FB0323CDE90223AB
:101D500016E7D4F880347BB11846D3F8287407F01E
:101D6000B9FA1BE700220023CDE904239BE70022F8
:101D70000023CDE902237BE700220023CDE90423E1
:101D80001BE700220023CDE90223F9E669100000D9
:101D9000AD0F000070900100200BFF1FD8930100D1
:101DA000B09001002DE9F04FA349A448A44DA54CE3
:101DB000ADF2244D0B78002BFCD00378DB07F9D56E
:101DC0002B6822689B1A0E2BF4D908219E48DFF855
:101DD000AC9210F011F89D4811F0EAFC05F0CCFB34
:101DE000FFF722FC9A4BD9F87C649A4A1A60002EBD
:101DF00000F0EE8008AD0024314628462346964A7E
:101E00002C706C70AC7008F041FA002840F0F4803F
:101E100040F20223904A9149284609F0D3FFAB6C67
:101E2000002B00F0E382682011F050FD07462C796A
:101E3000AB682A7B8A488B493C764FF000084FF408
:101E40007A7B0DF1300A38607961FB6187F82020D8
:101E500007F12400514687F8048087F80C80C7F802
:101E60001080C7F808B009F08BFE3B697E4A7F4EB0
:101E7000C7F8648003AC01337A613B61C4F808B0F1
:101E800084F8048084F80C8027612660784B2B60EE
:101E9000504609F0B1FE13227649204611F072FC3B
:101EA000204611F085FC206910B103681B6C98472F
:101EB000172171480FF0A0FF644811F079FCD9F8A0
:101EC0007C246E4B002A00F04682002302F23C4044
:101ED0005E491A4608F060FE2269266042B1136925
:101EE000013B136123B9206910B103681B6A98474D
:101EF000DFF898914FF0000858E0542012F0D6FB1C
:101F0000834600285BD0014640F203132A465C4812
:101F10000FF01EFB002852DBA42011F0D7FC07466F
:101F2000584B3B604FF0000A4FF47A7E544BC7F891
:101F300008E08022243029467B61C7F818B087F872
:101F400004A087F80CA0C7F810A0C7F81CA0CDF813
:101F500004E013F065FC3A69DDF804E084F804A0BD
:101F60000132C4F808E084F80CA0276126603A61C9
:101F700013224049204611F005FC204611F018FCC0
:101F8000206970B103681B6C98472269266042B1D2
:101F90001369013B136123B9206910B103681B6AFF
:101FA000984708F10108B8F10A0F3CD0424636497B
:101FB000284613F097F999F80530002B9DD100239E
:101FC0004FF47A722660237123732361A260CFE7F6
:101FD000D9F8801408AD00293FF41AAF33462846DB
:101FE0001D4A85F8316085F8326085F8336006F067
:101FF0001BFE00283FF40CAFD9F87C441F4B002C8B
:1020000000F0DD81214601230024134A2C7028466C
:102010006C70AC7008F03AF900283FF4F9AE28462D
:1020200009F098FAF4E699F80530002B40F0B981F0
:102030004FF0000885E000BF342CFF1F2C2BFF1F42
:10204000302BFF1FAC2CFF1F64920100200BFF1FE1
:10205000CC2AFF1FB9060000C09101000415FF1F24
:10206000748E0100A88D0100F08D0100148E010016
:10207000CC8D0100CC910100E09101000015FF1F03
:10208000681EFF1FFC8E0100F8910100601EFF1FFB
:10209000542012F00BFB834600285BD0014640F22F
:1020A00003132A46B2480FF053FA002852DBA4204B
:1020B00011F00CFC0746AF4B3B604FF0000A4FF4A9
:1020C0007A7EAB4BC7F808E08022243029467B613A
:1020D000C7F818B087F804A087F80CA0C7F810A0BC
:1020E000C7F81CA0CDF804E013F09AFB3A69DDF8BC
:1020F00004E084F804A00132C4F808E084F80CA0DD
:10210000276126603A6113229B49204611F03AFB71
:10211000204611F04DFB206970B103681B6C984795
:102120002269266042B11369013B136123B920691A
:1021300010B103681B6A984708F10108B8F10A0F4B
:1021400011D042468D49284613F0CCF899F8053055
:10215000002B9DD100234FF47A72266023712373E4
:102160002361A260CFE799F80530002B40F014817D
:102170004FF0000858E0542012F098FA83460028E7
:102180005BD0014640F203132A4679480FF0E0F98C
:10219000002852DBA42011F099FB0746754B3B60E9
:1021A0004FF0000A4FF47A7E714BC7F808E08022A6
:1021B000243029467B61C7F818B087F804A087F857
:1021C0000CA0C7F810A0C7F81CA0CDF804E013F0CD
:1021D00027FB3A69DDF804E084F804A00132C4F872
:1021E00008E084F80CA0276126603A611322624956
:1021F000204611F0C7FA204611F0DAFA206970B1D2
:1022000003681B6C98472269266042B11369013B41
:10221000136123B9206910B103681B6A984708F15C
:102220000108B8F10A0F11D042465549284613F06B
:1022300059F899F80530002B9DD100234FF47A729C
:102240002660237123732361A260CFE7D9F8C820E9
:102250004C4BD2F800804C4F984540F0A78097F83F
:10226000CD30002B6DD0542012F020FA814600288A
:1022700067D007F1D008404640F20313434A49466D
:102280000FF066F900285CDBA42011F01FFB074665
:10229000C0F81480374B3B604FF000084FF47A7A57
:1022A00087F8048087F80C80C7F81080C7F81C8076
:1022B0003649C7F8189024308022C7F808A013F0D8
:1022C000AFFA3B6984F80480013384F80C80C4F8C9
:1022D00008A0276126603B61B8462B46002745468B
:1022E00040F6B8399846F9B24FF48062404601375B
:1022F00012F0A4FD3DB12B682846DB6A4FF48062E2
:102300004146984725694F45EDD11DB12B682846B8
:102310001B6C98470B211E480FF06EFD1D4811F0F5
:1023200047FA2269266042B11369013B136123B960
:10233000206910B103681B6A98470DF2244DBDE86F
:10234000F08F00234FF47A72266023712373236188
:102350009846A260C1E7D3F8800400283FF4BCADE2
:1023600013460C4900F5886006F0C8FCB4E500BFD0
:10237000681EFF1FFC8E0100CC910100109201002D
:1023800030920100110B0000601EFF1F48920100F7
:1023900058920100200BFF1F1C491D480EF06EFED5
:1023A000E6E61C491A480EF069FE41E607F1C8014D
:1023B0000223194A2046C047D4F810808DE7D3F88D
:1023C000801400293FF424AD0123144A85F83140DC
:1023D000284685F8324085F8334006F025FC002871
:1023E0003FF416AD284607F04BF811E5EB6C002BD7
:1023F0007FF419AD03AC4FF47A72094E2371237345
:102400002361A26026600DF1300A3FE524920100AD
:10241000681EFF1F0892010048920100C091010050
:10242000148E010010B50F4804F08AFD0FF0BAFCBD
:1024300000B910BD0FF07AFCC4B220460FF060FD69
:10244000094811F0B5F9722CF3D1052107480FF0B6
:10245000D3FC054811F0ACF90248BDE8104005F086
:10246000E3B800BF8422FF1F200BFF1F7092010002
:10247000F8B54F4B4F4D5049504F514E1D60002401
:10248000C3F8B0542825C3F88C14C3F83C19C3F81A
:102490009874C3F84879C3F8A064C3F8506983F806
:1024A000AB5483F85B59474AC3F87C44C3F8804473
:1024B00083F8944483F8AE44C3F82C49C3F83049F8
:1024C00083F8444983F85E493F49404D404F414EAF
:1024D000204611F06FFA404A40484149414BDFF82D
:1024E0001CE114715471C2F8804082F8CC4082F82B
:1024F000CD40C2F848411560C2F8C850047144711B
:10250000C0F88040C0F800E00C714C71C1F8804008
:102510000F6003F558721C715C71C3F880401E6037
:10252000C3F8C840D83393424FF00005F3D12E4C86
:102530002E4E2F4B26604FF47A76C4F8A830C4F89C
:10254000BC30C4F8D0301F4A2A4965606FF00107DB
:10255000204684F8AC5084F8B450C4F8B85084F8DD
:10256000C05084F8C850C4F8CC5084F8D45084F8D3
:10257000DC50C4F8E050C4F8B060C4F8C460C4F8DB
:10258000D860C4F8E450C4F8E850C4F8EC50C4F87B
:10259000F45084F8F85084F8F950C4F8F07011F051
:1025A00009FA154B83E830001D72DD60F8BD00BFED
:1025B0000015FF1FD48E01001C960100C495010078
:1025C000011001387009FF1F1D0600005C8F01001B
:1025D000D48F0100848F0100601EFF1FF01FFF1FBA
:1025E000BC21FF1F9822FF1FB820FF1FCC920100C3
:1025F000148E0100551500008422FF1FAC8F0100CE
:102600004368132B08DC10B400EB83040133A26091
:102610004360A1655DF8044B704700BF4068704798
:1026200000EB8101886870470020704701207047E7
:1026300000EB8101886D0368DB69184700EB8101BD
:10264000886D03689B691847D0F8CC00002832D009
:1026500070B404681B4BE46A9C4229D1006920B322
:102660000468E46A9C4223D10069F0B10468E46A1A
:102670009C421DD10069C0B10468E46A9C4217D134
:10268000006990B116460268D46A9C420D4614D186
:10269000006950B10268D46A9C420ED1006920B131
:1026A00003683246DB6A70BC1847002070BC704774
:1026B000234670BC184700207047324629462346FF
:1026C00070BC18478904000010B50446D0F8B80063
:1026D00000286FD00368404A5B6C934270D1006958
:1026E000002867D00268526C9A4272D100690028B3
:1026F00060D003685B6C934262D10069002859D0B6
:102700000268526C9A4264D10069002852D0036872
:102710005B6C934254D1006900284BD003685B6C1A
:102720009847002846D0D4F8B800002842D0026864
:102730002A4B126C9A4245D1006900283AD00268AF
:10274000126C9A423ED10069002833D00268126CA4
:102750009A4237D1006900282CD00268126C9A4244
:1027600030D1006930B30268126C9A422AD10069F4
:1027700000B30268126C9A4224D10069D0B1026899
:10278000126C9A421ED10069A0B10268126C9A4282
:1027900018D1006970B10268126C9A4212D10069B6
:1027A00040B10268126C9A420CD1006910B1036802
:1027B0001B6C9847002384F8F830C4F8F43010BD3F
:1027C0009847AEE79047002384F8F830C4F8F43017
:1027D00010BD9047A5E700BF0D05000001050000F2
:1027E0000268002A3CD01369013B1361002B37D1EA
:1027F0002DE9F0410468002C33D023681E491B6A80
:102800008B4230D122691D4E26601AB31369013BF9
:102810001361FBB92569EDB12B681B6A8B4226D188
:102820002A692E6092B11369013B136173B92F6954
:1028300067B13B681B6A8B4238461BD140F8106B6E
:10284000FFF7CEFF3846142111F042F82846142134
:1028500011F03EF820461421BDE8F04111F038B8DF
:102860007047BDE8F0812046BDE8F0411847284692
:102870009847EFE79847E9E7C5140000148E010078
:10288000704700BF2DE9F0430446D0F8B80087B088
:1028900050B30368604A5B6C934240F03B8100692F
:1028A00010B30268526C9A4240F039810069D8B185
:1028B00003685B6C934240F02D810069A0B102680F
:1028C000526C9A4240F02B81006968B103685B6CDE
:1028D000934240F01F81006930B103685B6C9847F8
:1028E00010B107B0BDE8F083A16D4C4A0B6801A898
:1028F0001D680223A847D4F8B8302BB11A69013AF1
:102900001A61002A00F09080059BC4F8B830002BB3
:10291000E7D01A694249019101321A61059A002AE9
:10292000DFD01369013B1361002BDAD1059C002C29
:10293000D7D022683B4B126A9A4240F0F58020695A
:102940002160002860D00269013A0261002A5BD14F
:102950002569002D58D02A68126A9A4240F0ED800D
:102960002869296000284BD00269013A0261002AD7
:1029700046D12E69002E43D03268126A9A4240F046
:10298000E28030693160DFF898E0002834D00269D5
:10299000013A026182BB376977B33A68126A9A4298
:1029A00040F0D7803869C7F800E008B30269013AFF
:1029B0000261EAB9D7F81080B8F1000F18D0D8F842
:1029C0000020126A9A4240F0CA80D8F81020C8F855
:1029D00000104AB11369013B13612BB9D8F81000FC
:1029E00010B103681B6A98474046142110F070FF2D
:1029F0003846142110F06CFF3046142110F068FFA7
:102A00002846142110F064FF2046142110F060FFC6
:102A100007B0BDE8F08300BF0D050000249301005E
:102A2000148E0100C5140000D4F8B850002D3FF4F6
:102A30006BAF2A684B4B126A9A4278D128694A498F
:102A40002960002861D00269013A0261002A5CD144
:102A50002E69002E59D03268126A9A426AD13069C2
:102A6000316000284DD00269013A0261002A48D144
:102A70003769002F45D03A68126A9A4260D13869A6
:102A80003960DFF8E4E0002837D00269013A0261DA
:102A90009ABBD7F81080B8F1000F2ED0D8F80020DC
:102AA000126A9A4252D1D8F81000C8F800E000B378
:102AB0000269013A0261E2B9D8F81090B9F1000F49
:102AC00017D0D9F80020126A9A4245D1D9F81020BF
:102AD000C9F800104AB11369013B13612BB9D9F849
:102AE000100010B103681B6A98474846142110F083
:102AF000EFFE4046142110F0EBFE3846142110F092
:102B0000E7FE3046142110F0E3FE2846142110F0B1
:102B1000DFFEF9E6984700287FF4E3AEE4E690474D
:102B200000287FF4DEAEDFE620469047D9E628464F
:102B30009047E9E630469047E7E72846904763E745
:102B400038469047DDE73046904759E74046904782
:102B5000D3E7384690474FE748469047C9E7404695
:102B6000904745E7C5140000148E0100D0F8B83036
:102B7000002B36D01A681C49526C8A4210B50446A4
:102B80002CD1186948B303685B6C93422AD1006961
:102B900018B30268526C9A4221D10069E8B1036807
:102BA0005B6C93421ED10069B8B10268526C9A42C4
:102BB00015D1006988B103685B6C984768B12368D8
:102BC00020461B6C98472046FFF75CFE00226FF002
:102BD000010384F8F920C4F8F03010BD184690477E
:102BE000ECE770479847E9E70D0500002DE9F04351
:102BF000064683B00C461746FFF744FED6F8B85099
:102C000004EB0414002D6AD028684D492201446B5E
:102C10008C424FF0000C76D1296900295BD00B68FB
:102C2000D3F83480A04574D1D1F810E0BEF1000F84
:102C300058D0DEF80040646B444570D1DEF810E0F7
:102C4000BEF1000F4ED0DEF80030D3F83480A0453E
:102C50006BD1DEF81040002C44D02368D3F83490B8
:102C6000C14568D12469002C3CD02168CDF800C052
:102C700063462046496B8847D6F8B850002D2ED0C1
:102C80002A68304BD46A9C4232D1286938B3026832
:102C9000D46A9C4235D1006908B30268D46A9C4268
:102CA0002FD10069D8B10268D46A9C4229D1006949
:102CB000A8B10268D46A9C4223D1006978B1026845
:102CC000D46A9C421DD1006948B103683946DB6A69
:102CD0004FF4887211E0C46A1A4B9C4208D103B0C9
:102CE000BDE8F083C46A174B9C4201D10846CEE789
:102CF000394628464FF48872234603B0BDE8F043B6
:102D000018473946F6E7CDF800C063462846A04785
:102D1000B2E7CDF800C063460846C047ACE7CDF83F
:102D200000C063467046A047A6E7CDF800C06346E2
:102D30007046C047A0E7002320460093C8479BE7A2
:102D4000C9040000890400002DE9F0410546806DAA
:102D50001849036801271B6985F8F870C4B09847C3
:102D60006B68C5F8E43000218B42C5F8F4101DDD16
:102D70000C460E464FF02F0801E0D5F8F410ADF8E0
:102D80000E404B1CC5F8F4306A4628460094029663
:102D900001968DF80C708DF80D60ADF81080FFF77E
:102DA00025FFD5F8E4300134A342E6DC44B0BDE8A9
:102DB000F08100BF249301002DE9F0410D46144637
:102DC00082B000214FF48872064612F037F8D5F829
:102DD000F430A342C0F0BB802846FFF753FDD5F87E
:102DE000B80004EB041422014FF0000C002800F09E
:102DF000AA800768724C796BA14240F0BE800169DD
:102E0000002900F0AE800B68D3F83480A04540F074
:102E1000CB80D1F810E0BEF1000F58D0DEF80030C2
:102E2000D3F83480A04540F0B980DEF810E0BEF160
:102E3000000F4CD0DEF80030D3F83480A04540F0CD
:102E4000AD80DEF810E0BEF1000F40D0DEF80030BB
:102E5000D3F83480A04540F0AD80DEF810E0BEF13C
:102E6000000F34D0DEF80030D3F83480A04540F0B5
:102E7000A180DEF810E0BEF1000F28D0DEF80030AF
:102E8000D3F83480A04540F09580DEF810E0BEF124
:102E9000000F1CD0DEF80030D3F83480A04540F09D
:102EA0008980DEF810E0BEF1000F10D0DEF80030AF
:102EB000D3F83480A0457DD1DEF810403CB12168C4
:102EC000CDF800C063462046496B884759E0BC6A8C
:102ED0003C4B9C4249D108460268946A9C4244D1CA
:102EE000006900282FD00268946A9C423DD1006995
:102EF00048B30268946A9C4237D1006918B30268EB
:102F0000946A9C4231D10069E8B10268946A9C429B
:102F10002BD10069B8B10268946A9C4225D100693E
:102F200088B10268946A9C421FD1006958B1026856
:102F3000946A9C4219D1006928B103684FF48872E1
:102F40009B6A31469847304602B0BDE8F0814FF4A5
:102F500088720021304611F071FF304602B0BDE8A2
:102F6000F081BC6A174B9C42EDD04FF48872314619
:102F7000A047304602B0BDE8F081CDF800C06346FE
:102F80008847D5F8B8000028DDD002680D4B946A58
:102F90009C42EAD1006900289ED1D4E7CDF800C058
:102FA00063467046C047ECE7CDF800C0634608466C
:102FB000C047E6E7002370460093C047E1E700BF43
:102FC000C90400007D04000030B5D0F8FC50C5B045
:102FD00004464DB923E0029BC4F8FC309DF8103044
:102FE000D3B9D4F8FC50D5B12A4621466846FFF73C
:102FF000E3FE94F80021002AEDD1D4F8FC30D4F897
:10300000F4100133C4F8FC308B429DF8103028BF17
:10301000C4F8FC20002BE4D0284645B030BD002584
:10302000284645B030BD00BFF0B5C5B017460A46CA
:10303000014668461D464A9E4B9CFFF7BDFE38463A
:1030400004A912F04BFB9DF80C30009A326033B9A2
:10305000019BBDF80E202B60228045B0F0BD4FF0E3
:10306000FF33F6E700B5C5B00A4601466846FFF7EC
:10307000A3FE019845B05DF804FB00BF70B5D0F821
:10308000CC30C4B00446002B4CD01D686049EA6BBC
:103090008A4240F0B7801A69002A00F0AB801068BD
:1030A000C66B8E4252D11069002834D00668F66B88
:1030B0008E424CD1006900282DD00668F66B8E42F6
:1030C00045D1006938B30668F66B8E423FD100697E
:1030D00008B30668F66B8E4239D10069D8B106682C
:1030E000F66B8E4233D10069A8B10668F66B8E424A
:1030F0002DD1006978B10668F66B8E4227D1006940
:1031000048B10668F66B8E4221D1006918B1036898
:10311000DB6B98471CE02E6C3E498E4275D1104601
:10312000002522E01D466846D4F8F0202146FFF72E
:1031300043FE6A46D4F8F01001952046FFF756FD8D
:103140006FF00103C4F8F03044B070BD1046B047D2
:10315000D4F8CC300546002BE5D01A682D49166C02
:103160008E424CD118690028DDD003681B6C8B425D
:103170003ED100690028D6D003681B6C8B4237D142
:1031800000690028CFD003681B6C8B4230D10069E6
:103190000028C8D003681B6C8B4229D10069002825
:1031A000C1D003681B6C8B4222D100690028BAD0C1
:1031B00003681B6C8B421BD100690028B3D00368E5
:1031C0001B6C8B4214D100690028ACD003681B6CC7
:1031D0008B420DD100690028A5D003681B6C8B427F
:1031E00006D1006900289ED003681B6C98479AE7B7
:1031F000984798E72E6C07498E42154693D018469B
:10320000B04790E718469047A2E70025F7E700BFD0
:10321000F104000001050000F0B50E46C5B00146FE
:1032200007461446684632461D46FFF7C5FD00991D
:103230008E421AD02B4622463846FFF7EDFF204635
:1032400012F01EFB204410F8013C2F2B04D02A461C
:103250000949204612F0BAFA2A46204604A912F07B
:10326000B5FABDF80E0045B0F0BD034BBDF80E0039
:103270001B88238045B0F0BD34930100F0B5ADF25A
:10328000144D4FF4807317466A460D460446FFF707
:10329000C3FF0646684612F0F3FA014668460EF090
:1032A000ABFD214810F084FA2A462146C0A8FFF75A
:1032B00083FDC4A94FF4807280A812F0B1FA394698
:1032C0004FF48072C4A812F0ABFAC0AA2946204677
:1032D000FFF78CFC40AA4FF4807329462046FFF785
:1032E0009BFF40A812F0CCFA04EB8606014640A8EA
:1032F0000EF082FD0C4810F05BFAB06D036840AA36
:103300006946DB689847064650B980A94FF4807239
:10331000C4A812F085FAC0AA29462046FFF766FC29
:1033200030460DF2144DF0BD200BFF1F2DE9F04F7C
:10333000D0F8F0308B42C9B000F0FA8116464FF455
:10334000807308AA04460D46FFF766FF0746D4F8C7
:10335000CC00002800F088800268574B526C9A42DB
:1033600040F0EE81006900287ED00268526C9A42DB
:1033700040F0E6810069002876D00268526C9A42DB
:1033800040F0DE81006900286ED00268526C9A42DB
:1033900040F0D6810069002866D00268526C9A42DB
:1033A00040F0CE81006900285ED00268526C9A42DB
:1033B00040F0C6810069002856D00268526C9A42DB
:1033C00040F0BE81006900284ED00268526C9A42DB
:1033D00040F0B6810069002846D00268526C9A42DB
:1033E00040F0AE81006900283ED003685B6C9847CE
:1033F000002839D0D4F8CC00002835D002682F4BF3
:10340000126C9A4240F09E81006900282CD002681C
:10341000126C9A4240F09681006928B30268126CDF
:103420009A4240F08F810069F0B10268126C9A42B2
:1034300040F088810069B8B10268126C9A4240F08D
:103440008181006980B10268126C9A4240F07A81F1
:10345000006948B10268126C9A4240F073810069B9
:1034600010B103681B6C984704EB870708AAB96D75
:103470000B6803A81F68F3B2B847D4F8CC201AB180
:103480001369013B1361EBB1079AC4F8CC2062B118
:1034900011690B4B039301311161079929B10A6935
:1034A000013A0A61002A00F0AB80C4F8F050C4F879
:1034B000EC6049B0BDE8F08F0D050000010500008B
:1034C000148E0100D4F8CC70002FDDD03B68AA49DF
:1034D0001B6A8B4240F038813869A84B3B6000285A
:1034E00000F089800269013A0261002A40F083807D
:1034F000D7F81080B8F1000F7DD0D8F80020126AFC
:103500008A4240F03081D8F81000C8F80030002816
:103510006DD00269013A0261002A68D1D8F8109092
:10352000B9F1000F63D0D9F80020126A8A4240F046
:103530001481D9F81000C9F80030DFF840E2002803
:1035400051D00269013A0261002A4CD1D9F810A089
:10355000BAF1000F47D0DAF80020126A8A4240F030
:103560000881DAF81000CAF800E0002837D00269B4
:10357000013A0261002A32D1DAF810B0BBF1000F33
:103580002DD0DBF80020126A8A4240F0FC80DBF884
:103590001020CBF800307948EAB11369013B136180
:1035A000CBB9DBF81020B2B113681B6A8B4240F034
:1035B000F0801169106051B10B69013B0B6133B9A7
:1035C000106920B1036801921B6A9847019A10465E
:1035D000142110F07DF95846142110F079F9504665
:1035E000142110F075F94846142110F071F9404685
:1035F000142110F06DF93846142110F069F943E7F1
:10360000079F002F3FF451AF3A685B49126A8A4224
:1036100040F09D8038693B60002800F0848002699A
:10362000013A0261002A7ED1D7F81080B8F1000F6C
:1036300079D0D8F80020126A8A4240F09180D8F8F8
:103640001000C8F80030002869D00269013A026110
:10365000002A64D1D8F81090B9F1000F5FD0D9F8E2
:103660000020126A8A4275D1D9F81000C9F80030DA
:10367000DFF808E100284ED00269013A0261002A11
:1036800049D1D9F810A0BAF1000F44D0DAF80020DF
:10369000126A8A426AD1DAF81000CAF800E00028FB
:1036A00035D00269013A0261002A30D1DAF810B04F
:1036B000BBF1000F2BD0DBF80020126A8A425FD1E9
:1036C000DBF81020CBF800302C48E2B11369013B45
:1036D0001361C3B9DBF81020AAB113681B6A8B42CF
:1036E00054D11169106051B10B69013B0B6133B9C1
:1036F000106920B1036801921B6A9847019A10462D
:10370000142110F0E5F85846142110F0E1F8504665
:10371000142110F0DDF84846142110F0D9F8404685
:10372000142110F0D5F83846142110F0D1F8BCE679
:10373000D0F8EC3093427FF401AE49B0BDE8F08F91
:10374000904755E690478FE6384698479CE63846BE
:103750009047AAE648469047E1E74846904746E743
:1037600040469047DFE74046904744E75046904741
:10377000D1E75046904736E7C5140000148E01008B
:1037800058469047C3E75846904728E71046984761
:10379000B9E7104698471EE72DE9F047054682B085
:1037A000174600229846DDF82890FFF7BFFDD5F8B0
:1037B000CC40002C6AD020684D4A466B96424FF0B0
:1037C00000037BD1216900295CD00A68D2F834A0BB
:1037D000B24578D1D1F810E0BEF1000F59D0DEF833
:1037E0000020566B564573D1DEF810E0BEF1000F95
:1037F0004FD0DEF80020D2F834A0B2456DD1DEF80B
:1038000010E0BEF1000F44D0DEF800305E6B56458C
:1038100068D1DEF81060002E3BD0316800230093A1
:103820003A463046496B8847D5F8CC40002C2DD01D
:103830002268304B956A9D4231D1206930B30268CD
:10384000946A9C4233D1006900B30268946A9C4236
:103850002DD10069D0B10268946A9C4227D10069D9
:10386000A0B10268946A9C4221D1006970B10268DB
:10387000946A9C421BD1006940B103684A464146A4
:103880009B6A10E0856A1B4B9D4208D102B0BDE8DF
:10389000F087856A174B9D4201D10846CFE74A461B
:1038A000414620462B4602B0BDE8F04718474A463D
:1038B0004146234602B0BDE8F047184700933A4618
:1038C0002046B047B0E700933A460846D047ABE7FA
:1038D00000933A467046B047A6E700933A467046D2
:1038E000D047A1E700233A4670460093B0479BE7D4
:1038F000C90400007D0400002DE9F041B2F1FF3F52
:1039000014BF16460E46ADF5487D044632460F46B6
:10391000014640A89846FFF74FFACE994FF48072BF
:1039200088A811F07DFFD4F8F450BDF80E31419A0B
:10393000ADF81E32691C0023C4F8F41085932946A3
:1039400001238692204684AA84968DF81C828DF8E5
:103950001D32FFF74BF9314640AA20464195FFF74B
:1039600045F9B8F1000F09D1204602222946FFF798
:10397000DDFC28460DF5487DBDE8F081204604EBCE
:1039800087046A4629464FF48073FFF745FCA06D13
:10399000036869469B68984728460DF5487DBDE851
:1039A000F08100BF2DE9F04FB2F1FF3F14BF164682
:1039B0000E46ADF50D7D01460446324604A8FFF7DC
:1039C000FBF99DF81C3013B19DF81D201AB10DF5BF
:1039D0000D7DBDE8F08F20463146FFF7A7FCD4F8F7
:1039E000CC000028F3D00368DFF87C835B6C434590
:1039F0005CD100690028EAD003685B6C434555D16F
:103A000000690028E3D003685B6C43454ED1006930
:103A10000028DCD003685B6C434547D1006900286F
:103A2000D5D003685B6C434540D100690028CED0F7
:103A300003685B6C98470028C9D0DFF82493DFF84F
:103A40002CB30025D4F8CC10002931D00B681B6DA5
:103A50005B4540F08882096951B30B681B6D5B457B
:103A600040F08182096919B30B681B6D5B4540F01A
:103A70007A820969E1B10B681B6D5B4540F0738286
:103A80000969A9B10B681B6D5B4540F06C8209693F
:103A900071B10B681B6D5B4540F06582096939B1F6
:103AA0000B6800221B6D48A898470CE09847C2E7B6
:103AB00000234FF47A72CDF820918DF824318DF8DF
:103AC0002C314C934A92D4F8E020002A49D0136953
:103AD000013B1361002B44D1D4F8E070002F40D09B
:103AE0003B689E481B6A834240F04E823A69C7F8A1
:103AF000009092B31369013B136173BBD7F810A018
:103B0000BAF1000F29D0DAF800301B6A834240F086
:103B10002283DAF81020924BCAF80030CAB1136938
:103B2000013B1361ABB9DAF8103093B11A68126A2D
:103B3000824240F019831969C3F8009029B10A69DB
:103B4000013A0A61002A00F02B82184614210FF076
:103B5000BFFE504614210FF0BBFE384614210FF073
:103B6000B7FE4C9BC4F8E030002B50D01A690132EC
:103B70001A614C9ACDF82091002A48D01369013B74
:103B80001361002B43D14C9F002F40D03B687348FA
:103B90001B6A834240F0F5813A69714B3B6092B3F6
:103BA0001369013B136173BBD7F810A0BAF1000F82
:103BB00029D0DAF800301B6A834240F0CF82DAF86D
:103BC0001020674BCAF80030CAB11369013B13617A
:103BD000ABB9DAF8103093B11A68126A824240F039
:103BE000C0821969C3F8009029B10A69013A0A61D3
:103BF000002A00F04482184614210FF069FE504656
:103C000014210FF065FE384614210FF061FED4F840
:103C1000E000002800F0938003685B6C434540F0AF
:103C20009B800069002800F08A8003685B6C434534
:103C300040F092800069002800F0818003685B6C8E
:103C4000434540F089800069002878D003685B6CA8
:103C5000434540F081800069002870D003685B6CA8
:103C6000434579D10069002869D003685B6C4345FE
:103C700072D10069002862D003685B6C43456BD148
:103C8000006900285BD003685B6C434564D1006920
:103C9000002854D003685B6C984700284FD0D4F8B4
:103CA000E030BDF81E2048964A95ADF82E21002B35
:103CB00000F0138119682B4AC96C914258D11869D8
:103CC000002800F00A810168C96C914251D1006955
:103CD000002800F002810168C96C914249D1006955
:103CE000002800F0FA800168C96C914241D1006956
:103CF000002800F0F2800168C96C914239D1006956
:103D0000002800F0EA800168C96C914231D1006955
:103D1000002800F0E2800168C96C914229D1006955
:103D2000002800F0DA800168C96C914221D1006955
:103D3000002800F0D2800368DB6C98471AE001236A
:103D40003146204604AA05958DF81D30FEF74EFF3A
:103D50000DF50D7DBDE8F08F98479EE7C514000076
:103D6000148E01002D0500000D050000390500002E
:103D7000184688478DF82C01D4F8E030002800F070
:103D8000AF800020002249908DF82D21002B00F0FB
:103D9000E88019687E4A896C914240F0DE8018699B
:103DA000002800F0DE8003689B6C934238D10069E4
:103DB000002800F0D68003689B6C934230D10069E4
:103DC000002800F0CE8003689B6C934228D10069E4
:103DD000002800F0C68003689B6C934220D10069E4
:103DE000002800F0BE8003689B6C934218D10069E4
:103DF000002800F0B68003689B6C934210D10069E4
:103E0000002800F0AE8003689B6C934208D10069E3
:103E1000002800F0A68003689B6C9847014601E0EB
:103E2000984701464FF480724CA811F0F9FCD4F881
:103E3000F4506B1C2046C4F8F430294648AAFEF71B
:103E4000D5FED4F8E00000283FF4FCAD0268514BE9
:103E5000126C9A423FD1006900283FF4F3AD02682A
:103E6000126C9A4237D1006900283FF4EBAD02682A
:103E7000126C9A422FD1006900283FF4E3AD02682A
:103E8000126C9A4227D1006900283FF4DBAD02682A
:103E9000126C9A421FD1006900283FF4D3AD02682A
:103EA000126C9A4217D1006900283FF4CBAD02682A
:103EB000126C9A420FD1006900283FF4C3AD02682A
:103EC000126C9A4207D1006900283FF4BBAD036829
:103ED0001B6C9847B6E59047B4E500228DF82C217D
:103EE000002B49D019682C4AC96B91423FD11869FF
:103EF00048B30168C96B91423AD1006918B30168AF
:103F0000C96B914234D10069E8B10168C96B914233
:103F10002ED10069B8B10168C96B914228D10069FE
:103F200088B10168C96B914222D1006958B101681A
:103F3000C96B91421CD1006928B10368DB6B9847BB
:103F4000D4F8E0301EE700228DF82D21196849923F
:103F5000896C0F4A91423FF422AF184688470146C8
:103F600060E70E495EE7002248A89847ABE518468F
:103F70008847D4F8E03005E749938DF82D3107499B
:103F800050E73846984742E638469847E9E500BF8B
:103F90001905000001050000F10400006490010013
:103FA0001A69002A3FF4D1AD1168096A814240F0D4
:103FB000E380D2F810E0C2F80090BEF1000F57D0B5
:103FC000DEF810100139CEF81010002950D1116917
:103FD000009100294CD000990968096A814240F09B
:103FE000D7800099D1F810E0C1F80090BEF1000F21
:103FF00036D0DEF810100139CEF8101081BB0099D0
:10400000D1F810C0BCF1000F2AD0DCF80010096A0A
:10401000814240F0CB80DCF81000CCF80090B8B1C1
:10402000016901F1FF3EC0F810E0BEF1000F0FD1B1
:10403000DCF8100060B1D0F800E0CDF80CC00292BE
:104040000193DEF820309847DDF80CC0029A019BFE
:1040500002926046142101930FF03AFC019B029AF0
:1040600000980292142101930FF032FC019B029AF6
:104070000093104614210FF02BFC009B65E51A6994
:10408000002A3FF4B8AD1168096A81426FD1D2F8B5
:1040900010E0C2F80090BEF1000F55D0DEF810100D
:1040A0000139CEF8101000294ED111690091002974
:1040B0004AD000990968096A814262D10099D1F811
:1040C00010E0C1F80090BEF1000F35D0DEF81010FE
:1040D0000139CEF8101079BB0099D1F810C0BCF1AD
:1040E000000F29D0DCF80010096A814257D1DCF8B2
:1040F0001000CCF80090B8B1016901F1FF3EC0F8A2
:1041000010E0BEF1000F0FD1DCF8100060B1D0F864
:1041100000E0CDF80CC002920193DEF82030984701
:10412000DDF80CC0029A019B0292604614210193B3
:104130000FF0CEFB019B029A00980292142101938A
:104140000FF0C6FB019B029A0093104614210FF05A
:10415000BFFB009B4FE550469847FEE4504698470A
:1041600051E5184690474AE518469047F1E4009318
:1041700010468847009B3EE5009310468847009B09
:10418000E3E40292019300988847029A019BDBE7DF
:104190000292019300988847029A019B68E7029275
:1041A000019360468847029A019BC5E702920193FA
:1041B00060468847029A019B52E700BF30B5B2F1D2
:1041C000FF3F14BF15460D460446C5B02A46FFF70B
:1041D000E9FB012384F800312A4621466846FEF7B0
:1041E000EBFD019BC4F8FC3045B030BD90F8F830D1
:1041F000012270B5054680F8F9200E4673B1D5F856
:10420000F43053B10024224631462846FFF7CAFB5A
:10421000D5F8F4300134A342F5D870BDFEF794FD13
:10422000EDE700BF10B590F8F83082B004468BB1CE
:104230002AB1204602B0BDE81040FFF7BFBF94F896
:10424000F93073B10022012384F80021C4F8FC3056
:1042500002B010BD8DE80600FEF776FD9DE8060071
:10426000E6E72046FFF7C2FFECE700BFF0B5ADF68A
:10427000740D4FF4807304460E4644AAFEF7CCFF3B
:104280003246214684A8FEF797FD849A2146C8A8A5
:10429000FEF792FD84A94FF488720DF586600DF04B
:1042A000ABFCC8A90DF5A8604FF488720DF0A4FC12
:1042B0009DF81C320BB3859D9DF81D32D5B1002BA6
:1042C00000F09D802A4621460DF5EC60FEF774FD56
:1042D00023682946DB6B20469847DDF86857002D98
:1042E000F0D123683146DB6B2046984701200DF65C
:1042F000740DF0BD002B00F08280C99FBE4274D0C7
:1043000068463A462146FEF757FD69460DF5CA60F4
:104310004FF488720DF070FCBDF81E329F4240F2DF
:104320008380DDF85856AE4205D17DE0DDF8583681
:104330009E4210D01D462A4621466846FEF73CFDA7
:104340004FF4887269460DF5CA600DF055FCBDF852
:104350001E32AB42EAD34FF488720DF5CA610DF5F7
:10436000EC600DF049FC869BCDF858360DF5CA621D
:1043700029462046FEF73AFC9DF81C32EBB1BDF809
:104380001E3204EB830344A9986D03685B69984768
:1043900007463146F7B90DF586622046FEF726FC42
:1043A0000DF5A862DDF830142046FEF71FFC002D45
:1043B00030D128460DF6740DF0BDBDF81E3204EB69
:1043C000830344A9986D03681B69984707463146E3
:1043D000002FE0D02046002384AA8DF82032FEF77B
:1043E00005FC01200DF6740DF0BD869B8499C993E0
:1043F000C8AA2046FEF7FAFB4FF0FF35BCE732466D
:10440000BDF81E122046FFF7CDFA859D002D7FF4E2
:1044100059AF66E7204629460DF5EC62FEF7E6FB4C
:1044200038460DF6740DF0BD3D4694E74B1C01D0A7
:10443000FFF71CBF012070472DE9F04F00EB810111
:104440000646496D0868ADF62C0D04681F4668469F
:104450000023A047049B002B00F013821A689C4D98
:10446000526CAA4240F0BC811869002800F010810B
:104470000268526CAA4240F0B4810069002800F042
:1044800007810268526CAA4240F0AB8100690028A3
:1044900000F0FE800268526CAA4240F0A2810069DE
:1044A000002800F0F5800268526CAA4240F0998121
:1044B0000069002800F0EC800268526CAA4240F0CB
:1044C00090810069002800F0E3800268526CAA42E3
:1044D00040F087810069002800F0DA8003685B6C97
:1044E00098470446002C00F0F08306EB870605A8E9
:1044F000716DDDF850280B681C680223A0470998ED
:10450000002800F0718103685B6CAB4240F051827F
:104510000069002800F0688103685B6CAB4240F0E2
:1045200048820069002800F05F8103685B6CAB4241
:1045300040F03F820069002800F0568103685B6C00
:10454000AB4240F036820069002800F04D810368DC
:104550005B6CAB4240F02D820069002800F0448182
:1045600003685B6CAB4240F024820069002800F0D5
:104570003B8103685B6CAB4240F01B820069002802
:1045800000F0328103685B6CAB4240F0128200693C
:10459000002800F0298103685B6CAB4240F009827F
:1045A0000069002800F0208103685B6CAB4240F09A
:1045B00000820069002800F0178103685B6C98474F
:1045C000002800F01181434D4FF0FF34049B002B75
:1045D00000F0FD8219680A69AA4240F0F1821A6966
:1045E000002A00F0F08210680669AE4240F03C827A
:1045F0001069002800F0DF8106683669AE4240F09D
:1046000034820069002800F0D68106683669AE421F
:1046100040F02B820069002800F0CD8106683669E1
:10462000AE4240F022820069002800F0C481066892
:104630003669AE4240F019820069002800F0BB8163
:1046400006683669AE4240F010820069002800F02A
:10465000B28106683669AE4240F0078200690028E0
:1046600000F0A98106683669AE4240F0FE8100691B
:10467000002800F0A08106683669AE4240F0F5815E
:104680000069002800F0978103681B699847EDE1F5
:10469000114E009600241A69013A1A6192B9049DDC
:1046A00085B12B680D4A1B6A934240F0D882296974
:1046B0002E6019B10B69013B0B618BB128461421A7
:1046C0000FF006F920460DF62C0DBDE8F08F00BF67
:1046D0000D05000095040000148E0100C5140000B3
:1046E0002F69002FEAD03B681B6A934240F0C882D2
:1046F00039693E6000296ED00B69013B0B61002BCC
:1047000069D1D7F81080B8F1000F64D0D8F8003024
:104710001B6A934240F0C782D8F81010C8F80060B6
:10472000002954D00B69013B0B61002B4FD1D8F805
:104730001090B9F1000F4AD0D9F800301B6A9342AB
:1047400040F0B482D9F81010C9F8006000293AD0BE
:104750000B69013B0B61002B35D1D9F810A0BAF1E0
:10476000000F30D0DAF800301B6A934240F0A78285
:10477000DAF81010CAF8006009B30B69013B0B614D
:10478000EBB9DAF810B0BBF1000F18D0DBF800304D
:104790001B6A934240F09682DBF81020CBF8006051
:1047A0004AB11369013B13612BB9DBF8100010B15A
:1047B00003681B6A9847584614210FF089F8504641
:1047C00014210FF085F8484614210FF081F8404677
:1047D00014210FF07DF8384614210FF079F86DE7B9
:1047E0001846904704467DE6049800284FD0036899
:1047F0009A491B6C8B4240F0D8800069002846D053
:1048000003681B6C8B4240F0D080006900283ED0CA
:1048100003681B6C8B4240F0C8800069002836D0CA
:1048200003681B6C8B4240F0C080006900282ED0CA
:1048300003681B6C8B4240F0B880006938B3036892
:104840001B6C8B4240F0B180006900B303681B6CA5
:104850008B4240F0AA800069C8B103681B6C8B4290
:1048600040F0A380006990B103681B6C8B4240F05C
:104870009C80006958B103681B6C98470024099B11
:1048800007E01C4620460DF62C0DBDE8F08F099B75
:104890000024734E0596002B00F081801A69013ABE
:1048A0001A61002A7BD1099D002D78D02B686D4AB2
:1048B0001B6A934240F0E78129692E6000296AD083
:1048C0000B69013B0B61002B65D12F69002F62D072
:1048D0003B681B6A934240F0E38139693E600029DE
:1048E00055D00B69013B0B61002B50D1D7F81080DC
:1048F000B8F1000F4BD0D8F800301B6A934240F05B
:10490000D881D8F81010C8F80060554800293AD06E
:104910000B69013B0B61002B35D1D8F81090B9F130
:10492000000F30D0D9F800301B6A934240F0C481A8
:10493000D9F81010C9F8000009B30B69013B0B61ED
:10494000EBB9D9F810A0BAF1000F18D0DAF800309E
:104950001B6A934240F0BE81DAF81020CAF800606A
:104960004AB11369013B13612BB9DAF8100010B199
:1049700003681B6A9847504614210EF0A9FF484669
:1049800014210EF0A5FF404614210EF0A1FF384679
:1049900014210EF09DFF284614210EF099FF049B70
:1049A0000096002B7FF477AE8CE698470024099B95
:1049B0006FE7984704E60D6C28498D4240F0668108
:1049C000104603681B6C8B4240F058810069002838
:1049D00000F0FD8003681B6C8B4240F04F81006942
:1049E000002800F0F48003681B6C8B4240F0468185
:1049F0000069002800F0EB8003681B6C8B4240F0DC
:104A00003D810069002800F0E28003681B6C8B4246
:104A100040F034810069002800F0D98003681B6CE5
:104A20008B4240F02B810069002800F0D0800368A1
:104A30001B6C8B4240F022810069002800F0C78087
:104A400003681B6C8B4240F019810069002800F05C
:104A5000BE8003681B6C9847B9E000BF01050000E9
:104A6000148E0100C51400001046B0470028049BB6
:104A700054DD002B56D01968864A8C6A94423ED188
:104A8000186900284ED001688C6A944238D10069B8
:104A9000002847D001688C6A944231D1006900280F
:104AA00040D001688C6A94422AD10069002839D02C
:104AB00001688C6A944223D10069002832D00168D1
:104AC0008C6A94421CD1006960B301688C6A94427C
:104AD00016D1006930B301688C6A944210D1006924
:104AE00000B301688C6A94420AD10069D0B10368AE
:104AF0004FF400629B6A0AA99847024605E01846EF
:104B00004FF400620AA9A0470246141E05DB09986B
:104B100070B9B4F5006FBFF659AD049B002B40F09F
:104B2000A48054E00998002800F09C8000221446DC
:104B30000168594BCE6A9E423FD100690028E8D0F7
:104B40000168CE6A9E4238D100690028E1D0016830
:104B5000CE6A9E4231D100690028DAD00168CE6A5F
:104B60009E422AD100690028D3D00168CE6A9E42B5
:104B700023D100690028CCD00168CE6A9E421CD1A6
:104B800000690028C5D00168CE6A9E4215D100692F
:104B90000028BED00168CE6A9E420ED1006900286E
:104BA000B7D00168CE6A9E4207D100690028B0D014
:104BB00003680AA9DB6A9847ABE70AA9B047A8E7E8
:104BC0001846904752E70D6C344A95425ED1099BD6
:104BD000002B41D01A683149126C8A4239D11869C8
:104BE000002839D00268126C8A4233D1006900284B
:104BF00032D00268126C8A422CD1006900282BD076
:104C00000268126C8A4225D1006928B30268126CCE
:104C10008A421FD10069F8B10268126C8A4219D128
:104C20000069C8B10268126C8A4213D1006998B158
:104C30000268126C8A420DD1006968B10268126C78
:104C40008A4207D1006938B103681B6C9847099BF9
:104C500002E018469047099BE443E40F19E6284612
:104C600098472FE50446002B32D01A680B49156C83
:104C70008D420BD118690028A9D0A2E69847A6E773
:104C8000384698471AE52846984788E61846A847C0
:104C90009DE700BF7D0400008904000001050000BD
:104CA0003846984777E64046984794E548469847FF
:104CB0008DE5404698476AE64846984763E6504681
:104CC000984780E55846984779E5049B034E67E688
:104CD0001C46C1E75046984751E600BF148E0100BC
:104CE0002DE9F0418846ADF5A76DB3F1FF3F14BF44
:104CF0001F46174601460446424682A8FEF75CF866
:104D00003A462146C6A8FEF757F89DF81462002ED1
:104D100042D186A94FF480720DF5876010F080FDB6
:104D2000D4F8F450BDF82603C79BADF836046A1CCE
:104D3000C4F8F42029460DF585622046CDF83034BC
:104D4000CDF82874CDF82C648DF834648DF8356472
:104D5000FDF74CFFC6AA39462046C795FDF746FF2A
:104D6000414602AA4FF480732046FEF755FA42AE40
:104D70000746294632464FF480732046FEF74CFA28
:104D80000096034602AA3946201DFFF755FB284628
:104D90000DF5A76DBDE8F081BDF81612424620461C
:104DA0000131FEF7FFFD9DF814322068BDF826138F
:104DB00086AA0033009218BF01233A46C56A2046EE
:104DC000A8472368BDF826235E6D05460346414685
:104DD0002046B04728460DF5A76DBDE8F08100BF1D
:104DE0002DE9F04F0446ADF24C6DB3F1FF3F14BF17
:104DF0009846904682A80A462146FDF7DDFF4246C6
:104E00002146C6A8BDF81692FDF7D6FF839E002E58
:104E100069D0002542AF04F1040A19E0BDF8463517
:104E200004EB8303986D03689B68984732464946B4
:104E30002046FEF7B7FD2368BDF82623D3F854B00B
:104E400031462B462046D847DDF83064002E3FD04F
:104E5000324621460DF58560FDF7AEFF4FF48872AE
:104E60000DF585610DF5A7600CF0C6FECDF8405537
:104E7000D4F8F450BDF82633ADF846356A1CC4F8B2
:104E8000F42029460DF5A7622046CDF83885FDF7B8
:104E9000ADFE4FF4807302AA31462046FEF7BCF9FE
:104EA00029464FF480733A462046FEF7B5F99DF83F
:104EB0004435394602AA5046002BAFD1BDF84635DD
:104EC00000974946FFF7B8FADDF83064002EBFD1ED
:104ED00020464146C6AAC795FDF788FE01200DF27F
:104EE0004C6DBDE8F08F3546F2E700BF2DE9F0418B
:104EF0001D4600EB83030446586D069E03680F466B
:104F00009B6831469046984708B9BDE8F0810696FF
:104F10002B46424639462046BDE8F04100F000B835
:104F20002DE9F04F00EB810A8846DAF85410ADF510
:104F3000157D8146086802930468039200230AA83D
:104F4000A0470E9B002B00F0A0841A68734E526C91
:104F5000B24240F06A811869002800F0BD80026802
:104F6000526CB24240F062810069002800F0B480C7
:104F70000268526CB24240F059810069002800F08A
:104F8000AB800268526CB24240F050810069002848
:104F900000F0A2800268526CB24240F04781006982
:104FA000002800F099800268526CB24240F03E81C5
:104FB0000069002800F090800268526CB24240F014
:104FC00035810069002800F0878003685B6C984792
:104FD0000446002C00F0B484DFF850B154AC4FF418
:104FE0008072039914A810F01BFC14A810F048FC60
:104FF00014AB184410F8013C2F2B05D04FF48072ED
:10500000474914A810F0E2FB4FF480729E992046A5
:1050100010F006FC204610F033FC204410F8013C50
:105020002F2B05D04FF480723D49204610F0CEFB67
:105030000E99002900F05B810B683A4A1B6D934280
:1050400040F068810969002900F051810B681B6DEF
:10505000934240F05F810969002900F048810B68A4
:105060001B6D934240F056810969002900F03F8191
:105070000B681B6D934240F04D810969002900F0D7
:1050800036810B681B6D934240F044810969002909
:1050900000F02D810B681B6D934240F03B81096944
:1050A000002900F024810B681B6D934240F032818F
:1050B0000969002900F01B810B681B6D934240F0C9
:1050C00029810969002900F012810B680FAD1B6D61
:1050D00028460022984721E1DFF850B0CDF828B0EB
:1050E00000241A69013A1A619AB90E9D8DB12A6895
:1050F0000D4B126A9A4240F0D5832969C5F800B079
:1051000019B10A69013A0A6192B1284614210EF0D8
:10511000DFFB20460DF5157DBDE8F08F0D05000085
:105120003493010039050000C5140000148E0100FD
:105130002E69002EE9D03268126A9A4240F0BD838F
:105140003169C6F800B000296AD00A69013A0A61DB
:10515000002A65D13769002F62D03A68126A9A42F4
:1051600040F0B9833969C7F800B0002954D00A6902
:10517000013A0A61002A4FD1D7F81080B8F1000F28
:105180004AD0D8F80020126A9A4240F0AF83D8F88B
:105190001010C8F800B000293AD00A69013A0A6133
:1051A000002A35D1D8F81090B9F1000F30D0D9F8D5
:1051B0000020126A9A4240F0AD83D9F81010C9F865
:1051C00000B009B30A69013A0A61EAB9D9F810A036
:1051D000BAF1000F18D0DAF80020126A9A4240F0B3
:1051E0009C83DAF81020CAF800B04AB11369013B79
:1051F00013612BB9DAF8100010B103681B6A9847E5
:10520000504614210EF064FB484614210EF060FB5A
:10521000404614210EF05CFB384614210EF058FB7A
:10522000304614210EF054FB6FE7184690470446B1
:10523000CFE6C5F800B01369013B1361002B56D1CE
:105240002C69002C53D02268304B126A9A4240F0ED
:105250003A832169C4F800B02D48002943D00A6977
:10526000013A0A61002A3ED12569002D3BD02A6807
:10527000126A9A4240F032832969286000292ED0B0
:105280000A69013A0A6152BB2E6946B33268126A52
:105290009A4240F036833169C6F800B01C48D1B15B
:1052A0000A69013A0A61B2B93769A7B13A68126A64
:1052B0009A4240F029833A69386042B11369013B50
:1052C000136123B9386910B103681B6A98473846DF
:1052D00014210EF0FDFA304614210EF0F9FA28469A
:1052E00014210EF0F5FA204614210EF0F1FADAF846
:1052F0005400039903685B6998470E9B0446CDF8F8
:1053000028B0002B7FF4EDAE03E700BFC51400000A
:10531000148E01000FAD2846002298472A69002A02
:10532000E5D013685B6CB34240F0968210690028A8
:105330003FF47FAF0168496CB14240F09882006948
:1053400000283FF476AF03685B6CB34240F085827F
:10535000006900283FF46DAF03685B6CB34240F016
:105360007C82006900283FF464AF03685B6CB34241
:1053700040F07382006900283FF45BAF03685B6C08
:10538000B34240F06A82006900283FF452AF0368DC
:105390005B6C9847002800F0CC822869002800F058
:1053A00059820268AE4B926C9A4240F05882006972
:1053B000002800F04F820268926C9A4240F04F82BF
:1053C0000069002800F046820268926C9A4240F020
:1053D00046820069002800F03D820268926C9A4281
:1053E00040F03D820069002800F034820268926C2F
:1053F0009A4240F034820069002800F02B82026853
:10540000926C9A4240F02B820069002800F02282C0
:1054100003689B6C984701464FF4807214A810F003
:10542000D5F92869002800F0138202688C4B926C31
:105430009A4240F019820069002800F0098202684F
:10544000926C9A4240F010820069002800F00082BD
:105450000268926C9A4240F007820069002800F0CE
:10546000F7810268926C9A4240F0FE810069002840
:1054700000F0EE810268926C9A4240F0F58100697A
:10548000002800F0E5810268926C9A4240F0EC81BD
:105490000069002800F0DC8103689B6C9847014696
:1054A0004FF48072204610F091F92869002800F02E
:1054B0003F8102686B4BD26C9A4240F0D381006905
:1054C000002800F035810268D26C9A4240F0CA810F
:1054D0000069002800F02C810268D26C9A4240F0EA
:1054E000C1810069002800F023810268D26C9A42D1
:1054F00040F0B8810069002800F01A810268D26C7F
:105500009A4240F0AF810069002800F011810268E2
:10551000D26C9A4240F0A6810069002800F0088110
:105520000368DB6C9847002800F002810094029B1E
:1055300014AA41464846FFF7D9FC002800F009812B
:105540002A69C5F800B04849002A3FF448AD1369FC
:10555000013B1361002B7FF442AD2D69002D3FF418
:105560003EAD2A68414B126A9A4240F08281286916
:105570002960002800F0D7800269013A0261002A00
:1055800040F0D1802F69002F00F0CD803A68126A78
:105590009A4240F0728138693960002800F0BF807B
:1055A0000269013A0261002A40F0B9803A69002A92
:1055B00000F0B5801168096A994240F06C81D2F818
:1055C00010E0C2F800B02848BEF1000F00F0A38040
:1055D000DEF810100139CEF81010002940F09B8041
:1055E00011690491002900F0968004990968096AFC
:1055F000994240F05A810499D1F810E00860BEF158
:10560000000F00F08280DEF810100139CEF8101083
:1056100000297AD1049909690591002975D0059866
:105620000168096A994240F05181D0F810E0C0F851
:1056300000B00D48BEF1000F61D0DEF81010013946
:10564000CEF8101000295AD1059909690691002950
:1056500055D006990968096A994240F0428107E0ED
:10566000190500002D050000148E0100C51400006E
:105670000699D1F810E00860BEF1000F39D0DEF8CD
:1056800010100139CEF81010002932D1069909699D
:10569000079171B307990968096A994240F02C8112
:1056A0000799D1F810E00860BEF1000F1BD0DEF8BA
:1056B00010100139CEF81010A9B90799096991B1F4
:1056C0000868006A9842864640F02A810846099296
:1056D00040F810BB0891FDF783F80899084614219B
:1056E0000EF0F6F8099A0798089214210EF0F0F8D7
:1056F000089A0698079214210EF0EAF8079A05987E
:10570000069214210EF0E4F8069A049805921421EA
:105710000EF0DEF8059A104614210EF0D9F838463E
:1057200014210EF0D5F8284614210EF0D1F856E4D5
:105730000094029B14AA41464846FEF77DFE40B104
:10574000DAF85400036814A91B69984700287FF40D
:10575000F7AE2A69C5F800B07B49002A75D01369F5
:10576000013B1361002B70D12C69002C6DD0226895
:10577000764B126A9A4240F0A3802069216000288B
:105780005FD00269013A0261002A5AD12569002DD1
:1057900057D02A68126A9A4240F08C8028692960A2
:1057A00000284AD00269013A0261002A45D12E69D7
:1057B000002E42D03268126A9A4240F09A803169D3
:1057C000C6F800B06048002933D00A69013A0A617E
:1057D0007ABB37696FB33A68126A9A4240F0978091
:1057E0003969386009B30A69013A0A61EAB9D7F838
:1057F0001080B8F1000F18D0D8F80020126A9A4231
:1058000040F09480D8F81020C8F800B04AB113696D
:10581000013B13612BB9D8F8100010B103681B6A63
:105820009847404614210EF053F8384614210EF0E4
:105830004FF8304614210EF04BF8284614210EF094
:1058400047F8204614210EF043F80E9B002456E53D
:105850003F4925E63E49DFE5104698479AE59047DF
:105860000146D9E590475EE69047014618E688472D
:1058700090E528469047FFF7B2BB38469047284648
:1058800014210EF025F8FFF7AABB1C4620460DF5A3
:10589000157DBDE8F08F10468847384614210EF07C
:1058A00017F840E72846904733E405920498884764
:1058B000059A30E728469047C3E73046904724E4EE
:1058C00020469047C1E72046904710E5069205988C
:1058D0008847069A19E738469047A1E4284690473A
:1058E00001E5079206988847079A08E740469047DF
:1058F00092E430469047A0E7089207988847089AB4
:10590000F7E630469047EAE438469047E3E4384605
:1059100090478EE7484690477AE45046904773E4B4
:105920000892084673469847089ADCE64046904736
:105930007BE72A69C5F800B0002A3FF4D8AC7AE4C6
:105940000E9BDFF804B0DAE4148E0100C5140000E9
:10595000649001002DE9F0410E46ADF6882DB3F1BB
:10596000FF3F14BF1F461746044601463246C6A8ED
:10597000FDF722FA3A4621460DF58560FDF71CFA3F
:10598000C69A21460DF5A760FDF716FA9DF8243357
:1059900023B19DF82533002B00F0CC804FF48872A2
:1059A000C6A90DF5C9600CF027F94FF488720DF502
:1059B00085610DF5EB600CF01FF946AA4FF480737A
:1059C00031462046FDF728FCDDF83C85464500F0D1
:1059D000948002A842462146FDF7EEF902A94FF451
:1059E00088720DF678100CF007F90DF678110DF6A7
:1059F00068004FF488720CF0FFF8DDF88059AE4271
:105A000001D1A3E01D462A46214602A8FDF7D4F99C
:105A10004FF4887202A90DF678100CF0EDF84FF4EF
:105A200088720DF678110DF668000CF0E5F8DDF8D7
:105A300080399E42E6D1C89BCDF880390DF67812A8
:105A400029462046FDF7D2F8BDF83604DDF82C349F
:105A5000ADF82603C6AA31462046C893C697CDF8AE
:105A60002C64FDF7C3F80DF5856239462046FDF735
:105A7000BDF84FF48073314686AA2046FDF7CCFB73
:105A8000BDF85616BDF86637994242D09DF85426A7
:105A900002B386AA0092201D46AAFFF727FA002823
:105AA00041D129460DF668022046FDF79FF80DF515
:105AB000C96231462046FDF799F80DF5EB6239468B
:105AC0002046FDF793F84FF0000840460DF6882D6C
:105AD000BDE8F08186AA0092201D46AAFEF7ACFC24
