:1000000000000320D1010000D59300008D93000073
:100010008D9300008D9300008D9300008D93000060
:100020008D9300008D9300008D930000D593000008
:10003000D59300008D930000B9A60000BDA6000076
:10004000D5930000D5930000D5930000D593000010
:10005000D5930000D5930000D5930000D593000000
:10006000D5930000D5930000D5930000D5930000F0
:10007000D5930000D5930000D5930000D5930000E0
:10008000D5930000D5930000D5930000D5930000D0
:10009000D5930000D5930000D5930000D5930000C0
:1000A000D5930000D5930000D5930000D5930000B0
:1000B000D5930000D5930000D5930000D5930000A0
:1000C000D5930000D5930000D5930000D593000090
:1000D000D5930000D5930000D5930000D593000080
:1000E000D5930000D5930000D5930000D593000070
:1000F000D5930000D5930000D5930000D593000060
:10010000D5930000D5930000D5930000D59300004F
:10011000D5930000F9990000D5930000D593000015
:10012000D5930000D5930000D5930000D59300002F
:10013000D5930000D5930000D5930000D59300001F
:10014000D5930000D5930000D5930000D59300000F
:10015000D5930000D5930000D5930000D5930000FF
:10016000D5930000D5930000D5930000D5930000EF
:10017000D5930000D5930000D5930000D5930000DF
:10018000D5930000D5930000D5930000D5930000CF
:10019000D5930000D5930000D5930000D5930000BF
:1001A000D5930000D5930000D5930000D5930000AF
:1001B000D5930000D5930000D5930000D59300009F
:1001C000D5930000D5930000D5930000D59300008F
:1001D000594B4CF2205210B51A804DF628121A8055
:1001E00000BF00BF09F0FAF8544B4FF030621A60BC
:1001F000534A9A60534ADA60534B4FF470021A60C4
:10020000524B534A1A60534B1A78110703D51A7888
:1002100042F008021A70504B5049AA221A70504AF4
:10022000504B8B4204D252F8040F43F8040BF8E70A
:100230004D4B4E4900228B4202D243F8042BFAE781
:100240004B494C4A002352F8230041F82300013364
:10025000742BF8D1484B494A802103F8011B934283
:10026000FBD1474B424A1A60464B8A221A70A3F5CB
:10027000805324225A70A0221A709A799207FCD5D2
:100280009A79D406FCD4404A937903F00C03082BE6
:100290003D4BF9D101221A7148225A719A79900680
:1002A000FCD5394A9179384B4906FBD5374A38494C
:1002B00011600221516020221A709A7902F00C021A
:1002C0000C2AFAD1334B344A1A60344A344C13683E
:1002D00013F4807303D123604FF4A8531360314BA0
:1002E000314A1A6000225A60072243F8042C2F4A30
:1002F000C3F80C2D62B609F089F92368DA0705D531
:100300002B4809F0F5F82B4B2B4A1A602B4B1B7826
:100310005B0609D5274C284B22689A4204D1244811
:1003200009F0E6F8002323600BF030F909F05CF8DF
:100330000AF01CFAFEE700BF0E20054030800440A2
:10034000823F04000100002B88ED00E0002008E05F
:100350000300008502D0074000E00740B814FF1FEB
:10036000B40101007009FF1FB814FF1F9C20FF1F7C
:100370000002FF1F0000000000E400E064E400E071
:1003800008ED00E000500640004006404480044074
:100390000000030104800440C010050010D0034099
:1003A00014D0034014E000E0FF760100000020209C
:1003B000310000001CE00340A5C3945A00F0074040
:1003C000FFFFFFFFFFFFFFFFFFFFFFFFFFFFFFFF3D
:1003D000FFFFFFFFFFFFFFFFFFFFFFFFFFFFFFFF2D
:1003E000FFFFFFFFFFFFFFFFFFFFFFFFFFFFFFFF1D
:1003F000FFFFFFFFFFFFFFFFFFFFFFFFFFFFFFFF0D
:10040000FFFFFFFFFFFFFFFFFFFFFFFFDEF9FFFF23
:1004100010B5054C237833B9044B13B10448AFF33E
:1004200000800123237010BDB814FF1F00000000DE
:10043000B0010100084B10B51BB108490848AFF3E3
:1004400000800848036803B910BD074B002BFBD0A0
:10045000BDE81040184700BF00000000BC14FF1F9B
:10046000B0010100B814FF1F000000000020704719
:10047000704700BF4FF0FF30704700BF006910B1F8
:1004800003689B6A18477047006910B10368DB6A0C
:1004900018477047006910B103681B691847704717
:1004A000006910B103689B6918474FF0FF3070472F
:1004B000006910B10368DB6818477047006910B124
:1004C00003681B6B18477047006910B103685B6BCA
:1004D00018477047006910B103689B6B1847704755
:1004E000006910B10368DB6B18477047006910B1F1
:1004F00003681B6C18477047006910B103685B6C98
:1005000018470148704700BF9CF90000006910B10E
:1005100003689B6C1847704738B50B6904462BB1CC
:100520001D681946EB6C9847204638BD4FF47A7029
:10053000064A23712373A06022600B692361002B9C
:10054000F2D01A6901321A61204638BDB8F70000AE
:10055000006910B103681B6D18477047006980B1CE
:1005600000B5036883B09B6A01220DF1070198472B
:1005700020B19DF8070003B05DF804FB4FF0FF3099
:10058000F9E74FF0FF30704710B582B002AB026858
:1005900003F8011DD46A19460122A04702B010BD1C
:1005A000C36D0BB101207047006E003018BF0120F1
:1005B000704700BF704700BF10B50446024603698C
:1005C000054906480AF0C4F8206920B10368BDE86F
:1005D00010405B6A184710BD88F800000C0AFF1F26
:1005E00002460369014902480AF0B2B8A4F80000C3
:1005F0000C0AFF1F10B50446406E18B10AF0F6FF52
:100600000023636604F12400BDE8104006F096BEA6
:100610002DE9F041002394B01A460546243104A880
:100620004FF47A74254F8DF804308DF80C30129306
:1006300013930294009706F0D5FE129B002B32D044
:1006400068200AF09DF804469DF80460029A9DF81F
:100650000C301B481B4926764FF47A780026206020
:100660006161E26184F8203004F1240004A926715C
:1006700026732661C4F8088006F024FE2369124A16
:100680006761013366662E71C5F808802E732C6190
:1006900023612A600D4B009304A806F04FFE284604
:1006A00014B0BDE8F081139B002BC9D1064A2B7111
:1006B000AC602B732B612A60ECE700BF94F700005D
:1006C00014F800004CF70000B8F7000070F70000C5
:1006D000C26D62B1137803F0080303F0FF0003B3A7
:1006E000D3695069181A48BF6FF000407047016E17
:1006F000C1B191F8313003F0080303F0FF0083B17A
:10070000D1E90423D1E90001101A30B463EB0101EF
:1007100000256FF000448D4208BF844200D220467D
:1007200030BC704708467047836C13B1184605F01B
:100730008DBBC06C08B103F06FBD4FF0FF30704748
:1007400000B5836C83B063B1184601220DF1070137
:1007500005F0B0FA01280CD19DF8070003B05DF850
:1007600004FBC06C28B101220DF1070103F084FCE9
:10077000F0E74FF0FF30F1E7C36D13B1184605F015
:10078000ABBD006E08B104F0E9BC704700B5836CE6
:1007900083B08DF8071043B1184601220DF107010F
:1007A00005F0A0FD03B05DF804FBC06C0028F9D093
:1007B00001220DF1070104F0D9FE03B05DF804FB3E
:1007C00038B5C36D124A0260044600F12405D3B166
:1007D000284606F0B3FD606E08B10AF007FF0D4B26
:1007E0006361284606F0AAFD22690B4B236042B1E3
:1007F0001369013B136123B9206910B103681B6AB7
:100800009847204638BD036E002BE1D1E3E700BFD7
:1008100014F8000070F70000B8F7000010B5D0F829
:100820007C448EB0A4B10A466846214601230024C8
:100830008DF800408DF801408DF8024005F02CFA4B
:1008400008B90EB010BD684606F04CFA0EB010BDE7
:10085000D0F880040028F4D00A46012301466846F7
:100860008DF831408DF832408DF8334003F0D6FFDB
:100870000028E6D0684604F02BFB0EB010BD00BF88
:1008800030B5D0F87C448FB0A4B100250A462B4681
:10089000214668468DF800508DF801508DF80250C1
:1008A00005F0FAF908B90FB030BD684605F0F0FB65
:1008B0000FB030BDD0F880040028F4D00A4623469B
:1008C000014668468DF831408DF832408DF833404E
:1008D00003F0A4FF0028E6D0684604F065FB0FB0E3
:1008E00030BD00BF38B5446E0CB1204638BD05465A
:1008F0004FF480700AF072FE0146686680B1E86DC0
:100900000C7028B14FF4807206F046F86C6EECE77C
:10091000286E40B14FF4807203F0E4FA6C6EE4E7A5
:10092000024C6C66E1E70C46DFE700BFD414FF1F02
:1009300010B5D0F87C448EB07CB10A46012304F592
:100940008861684600248DF800408DF801408DF8DC
:10095000024005F0DFF80EB010BDD0F8800400288A
:10096000F9D00A46012300F5886168468DF83140C8
:100970008DF832408DF8334004F0C4FC0EB010BD49
:1009800030B5D0F87C448FB074B100250A462B46B0
:10099000214668468DF800508DF801508DF80250C0
:1009A00005F07AF90FB030BDD0F880040028F9D0F6
:1009B0000A462346014668468DF831408DF832409C
:1009C0008DF8334003F02AFF0FB030BDC36D9BB1EB
:1009D0001A7812F0700F00D1704710B5044600214C
:1009E000184605F083FB206E28B100220023BDE8E5
:1009F000104003F029BC10BD006E0028ECD090F828
:100A0000313013F0500FE7D00022002303F01CBC5C
:100A1000C36D0BB158697047006E00B10068704734
:100A2000C36D0BB1D8697047006E00B100697047A3
:100A3000C36D13B1184605F03DB9006E08B103F05F
:100A40001BBB4FF0FF307047C36D13B1184605F064
:100A5000FDB9006E08B103F0DFBB4FF0FF30704707
:100A6000C36D33B11B7813F0700F14BF0120002049
:100A70007047006E30B190F8313013F0500F14BF52
:100A800001200020704700BF2DE9F041012B94B0F8
:100A900044F20223054618BF00230431684606F0DD
:100AA00033FD129B002B34D0682009F069FE044608
:100AB0009DF804601D481E49029A9DF80C30206084
:100AC00004AF2676616100264FF47A78394604F146
:100AD0002400E26184F82030267126732661C4F870
:100AE000088006F0EFFB23691249134A666601335A
:100AF0002E71C5F808802E732C61616123612A6014
:100B00000E4B0093384606F019FC284614B0BDE899
:100B1000F081139B002BC7D14FF47A71064A2B71D9
:100B20002B732B61A9602A6004AFE9E714F8000079
:100B30004CF7000094F70000B8F7000070F70000D1
:100B4000836C13B1184605F0C7BBC06C08B104F044
:100B500005BB7047C36D13B1184605F0C3BB006EEB
:100B600008B104F003BD7047836C13B1184605F05B
:100B7000B9BBC06C08B104F0F9BC7047826C62B1BB
:100B8000137803F0080303F0FF0003B3D36950693F
:100B9000181A48BF6FF000407047C16CC1B191F89E
:100BA000313003F0080303F0FF0083B1D1E90423DF
:100BB000D1E90001101A30B463EB010100256FF098
:100BC00000448D4208BF844200D2204630BC7047AA
:100BD0000846704730B40C4632B1012A1AD0022AB6
:100BE00008D0002030BC7047C36DFBB1184630BC44
:100BF00005F07CBAC56D05B3E9690023621843F1BD
:100C00000003012B08BF002AEBD22144284630BC48
:100C100005F06CBAC56DDDB1696900230A1943F1AD
:100C20000003012B08BF002ADBD2EEE7006E00288C
:100C3000D7D00A4630BC03F007BB006E0028D0D0E6
:100C4000D0E90423521843F1000330BC03F0FCBA8E
:100C5000006E0028C5D0D0E90023521843F10003EC
:100C600030BC03F0F1BA00BF0269084B10B504466E
:100C7000036042B11369013B136123B9006910B1EC
:100C800003681B6A9847204610BD00BFB8F70000F4
:100C900038B5C36D144A0260044600F12405F3B16F
:100CA000284606F04BFB606E08B10AF09FFC0F4B24
:100CB0006361284606F042FB22690D4B236042B176
:100CC0001369013B136123B9206910B103681B6AE2
:100CD00098472046682109F055FD204638BD036E2F
:100CE000002BDDD1DFE700BF14F8000070F7000033
:100CF000B8F7000002690A4B10B50446036042B120
:100D00001369013B136123B9006910B103681B6AC1
:100D100098472046142109F035FD204610BD00BF3C
:100D2000B8F70000C26B38B5164B174D0360044688
:100D3000C5621AB11369013B1361A3B1A26AA5612F
:100D40001AB11369013B1361A3B16269656042B1D5
:100D50001369013B136123B9606910B103681B6A11
:100D60009847204638BDC06B0028E7D003681B6A4F
:100D70009847E3E7A06A0028E7D003681B6A984712
:100D8000E3E700BF10F90000B8F70000F0B5064631
:100D90008FB00F4652480B2115461C4602F06AFFE1
:100DA0000C214F4802F0B8FF0D214D4803F004F824
:100DB0003368304639461B68012298472868FE2868
:100DC00057D0C0B2012108F0ABFB2A78454B464F03
:100DD00053F832300697012283F88020002695F8D8
:100DE00000E08DF8156007968DF814E005AB93E8E8
:100DF000070008AB83E807008DF821600A968DF89C
:100E000020E0099793E807000BAB83E8070004F59F
:100E100093660ECB304606F0C3FCC4F8886416B166
:100E200094F8AB343BB10A21304808F0ABF93048B4
:100E300009F076FCFEE73146201D06F003FB002892
:100E4000F1D0D4F87C04002831D0C66905F078FCD4
:100E5000D4F87C34013E002B35D01A792B68254913
:100E60000292019000960022214809F071FC0FB017
:100E7000F0BD04F28C4630464FF0000107F0C0FC94
:100E8000C4F888641EB1304607F06AF838B10A2108
:100E9000164808F077F9164809F042FCFEE7D4F846
:100EA0008814201D06F0CEFA0028F0D0C9E7D4F847
:100EB000806430468EB1D6F8286403F033FFD4F84E
:100EC0007C34002BC9D1D4F88024002AC6D092F8F3
:100ED0003D24012303FA02F2C0E73246BEE700BF19
:100EE0007C09FF1F70FC0000408AF701DCF800005D
:100EF0000C0AFF1FC4F8000070B51949194A1A4CB2
:100F00001A4E84B040F6B7300B781BB32378DB075A
:100F100020D5136835685B1B0E2B1BD9082114489C
:100F200008F030F9134809F0FBFB08F029F8012319
:100F3000114A00931149124B1248FFF727FF0A216B
:100F4000114808F01FF90B4809F0EAFB08F0CEF948
:100F500004B070BD13680393039B8342D4D9DDE7CB
:100F60001020FF1F0C1FFF1F081FFF1F8820FF1FDF
:100F7000E8F800000C0AFF1F84F800007409FF1F46
:100F8000D814FF1F8819FF1FF4F80000014802F071
:100F90004BB900BFE819FF1FF8B5254B254E264F6A
:100FA000C3F88C740025254A25482649264C1A602A
:100FB00028273246C3F89804C3F8A01483F8AB740A
:100FC0002249C3F87C54C3F8805483F8945483F8BE
:100FD000AE54284609F0ACFC32461D4E1D4B26602F
:100FE0004FF47A766360A361E3621B4925726FF068
:100FF0000107204625746561257784F82450A56291
:1010000084F8305084F83850E563E6602662666301
:101010006564A564256584F8545084F85550E764E8
:1010200009F086FC0D4B83E830001D72DD60F8BDD1
:10103000D814FF1F7009FF1F20FC000070F800008B
:10104000C8FB0000011001388819FF1FB50500001A
:1010500010F90000B8F70000250D0000E819FF1F87
:101060000020704701207047094B01394FF4966208
:1010700002FB01310431D1F8783413B1D869013859
:101080007047D1F87C0408B1D0F82804704700BF3D
:10109000D814FF1F0A4B01394FF4966202FB01314D
:1010A0000431D1F878340BB118797047D1F87C0449
:1010B00020B190F83D04012303FA00F0704700BF0F
:1010C000D814FF1F41640264704700BF006C704772
:1010D00001F180410139436C53F82100704700BF92
:1010E000806A10B10368DB6A18477047084B013902
:1010F0004FF4966202FB01310431D1F8780408B153
:1011000005F01EBBD1F87C0408B103F00BBE70479C
:10111000D814FF1F10B50446406940B103681B6C2A
:10112000984720B1606910B10368DB6B98470023D2
:1011300084F85430236510BD704700BFF0B50546F4
:10114000406995B028B103681B6C984708B115B089
:10115000F0BD44F20223274A2749684606F0D4F935
:10116000129B002B41D0682009F00AFB04469DF831
:101170000460029A2148224926764FF47A730026A9
:10118000A36004AF9DF80C3020606161E26184F8D7
:10119000203004F12400394626712673266106F0BA
:1011A00091F82369174A6666013362612361164B21
:1011B0000093384606F0C2F86A691AB11369013B18
:1011C00013615BB16C61002CC1D02369002BBED1CF
:1011D000236820461B6A984715B0F0BD686900284F
:1011E000F0D003681B6A9847ECE7139C002CBAD137
:1011F00004AFDCE764F90000DC14FF1F14F8000002
:101200004CF7000094F7000070F700004369ABB1A1
:101210001A6810B504461846136C984700B910BDFB
:10122000236820465B6C98472046FFF787FF002223
:101230006FF0010384F85520E36410BD704700BFD0
:1012400070B505460C461646FFF778FF686904EB53
:10125000840468B1036821011B6B00229847686908
:1012600030B103683146DB6A5022BDE87040184750
:1012700070BD00BF2DE9F0432A4AD2F87C44012317
:1012800095B0054680F85430002C36D0214668468B
:101290000024254A8DF800408DF801408DF8024069
:1012A00004F0FAFC28BB2B6C00218B4229651DDD64
:1012B0000C460E466F464FF001094FF02F0800E034
:1012C000296DADF80E404B1C2B653A46284600941C
:1012D000029601968DF80C908DF80D60ADF8108097
:1012E000FFF7AEFF2B6C0134A342E9DC15B0BDE87B
:1012F000F083684605F0F6FCD5E7D2F880140029A3
:10130000D1D06846084A8DF831408DF832408DF8CA
:10131000334003F083FA0028C5D0684603F0D8FDB7
:10132000C1E700BFD814FF1F64F9000070B50D4677
:1013300014460021502206460AF018FD2B6DA342E8
:1013400014D32846FFF7FAFE686904EB84042101F0
:1013500050B1036800221B6B9847686920B103688D
:1013600050229B6A31469847304670BD502200217A
:1013700030460AF0FBFC304670BD00BF30B5856DCD
:1013800095B004463DB91DE0029BA3659DF8103061
:10139000ABB9A56DB5B12A4621466846FFF7C6FF31
:1013A00094F85C20002AEFD1A36D216D0133A36571
:1013B0008B429DF8103028BFA265002BE9D028464B
:1013C00015B030BD0025284615B030BDF0B595B03C
:1013D00017460A46014668461D461A9E1B9CFFF7A3
:1013E000A5FF384604A90AF05BFF9DF80C30009A6F
:1013F000326033B9019BBDF80E202B60228015B0FE
:10140000F0BD4FF0FF33F6E700B595B00A46014650
:101410006846FFF78BFF019815B05DF804FB00BF2D
:1014200030B50446806A95B0C0B103689B6B98479D
:101430000546A06A10B10368DB6B98476846E26C0A
:101440002146FFF773FF6A46E16C01952046FFF7DE
:10145000F7FE6FF00103E36415B030BD0546EDE71C
:10146000F0B50C4695B0014606461546684622463C
:101470001F46FFF75BFF00998C4221D03B462A466E
:101480003046FFF7EDFF28460AF07AFF2B18044696
:1014900013F8013C2F2B03D00D4B1B882B5201342A
:1014A00004A80AF06DFF20440130B84203D3BDF810
:1014B0000E0015B0F0BD04A928460AF0D1FEF6E7EB
:1014C000034BBDF80E001B882B8015B0F0BD00BF8C
:1014D00074F900002DE9F0414A1CFCB00E460446A8
:1014E00014BF0D46002507E0159B1946A3B12368DC
:1014F0001B6C9847002867D02A4621466846FFF7AC
:1015000015FF502269460DEB020007F03BFD9DF8E8
:101510005C302046002BE7D1731C60D04FF4807301
:101520003CAA31462046FFF79BFF9DF85C704A4B72
:10153000002F58D0D3F87C74AFB328AD4FF0000E15
:101540003CAA39462846734685F800E085F801E054
:1015500085F802E004F0A0FBB0B3284604F098FD43
:1015600090B3DDF85080002314AA314620468DF850
:101570006030FFF765FE424621462846FFF7D6FE5B
:101580006F68BE4224D057B33A4621466846FFF7FB
:10159000CDFE50226946284607F0F4FCAB689E4217
:1015A0004CD01F46EFE7D3F8801469B128AD3CAAB0
:1015B0003B46284685F8317085F8327085F83370DF
:1015C00003F02CF9002842D100207CB0BDE8F08166
:1015D000169B6B602A4641462046FFF731FE0120EC
:1015E0007CB0BDE8F081D3F87CE4BEF1000F0FD0F1
:1015F00028AD3CAA7146284601232F706F70AF704A
:1016000004F04AFB0028DFD0284605F06BFBA7E773
:10161000D3F880140029D7D028AD3CAA284601234E
:1016200085F831E085F832E085F833E003F0F6F82C
:101630000028C9D0284603F04BFC91E7169BAB600D
:1016400020462A463946FFF7FBFD0120BDE7284624
:1016500003F0AAFC84E700BFD814FF1F2DE9F04374
:10166000ADF5337D4FF48073914632AA0E460546A0
:10167000FFF7F6FE044632A80AF082FE014632A8C1
:1016800007F080FD3C4809F04BF80EAF3246294682
:101690001EA8FFF74BFE22A938460AF0BBFD4946BB
:1016A000804622A80AF0FCFD1EAA31462846FFF714
:1016B000C7FD4FF4807372AA31462846FFF7D0FE6B
:1016C00072A80AF05DFE014672A807F05BFD2A4889
:1016D00009F026F8294B4FF4966000FB04300430E3
:1016E000D0F8784464B34FF0000E04F5886432AA51
:1016F0002146684673468DF800E08DF801E08DF8CC
:1017000002E004F069FA80B9C7EB080239460132F9
:1017100022A807F037FC28461EAA3146FFF790FDA5
:1017200000200DF5337DBDE8F08372AA214668469E
:1017300004F0C2FB0028E7D00DF5337DBDE8F0834F
:10174000D0F87C140029DFD001F5886932AA494617
:10175000234668468DF831408DF832408DF833408D
:1017600002F0DCFF0028CFD072AA4946684603F099
:1017700035FE0028E0D1C7E70C0AFF1FD814FF1F71
:101780002DE9F0470F46ADF55E7D054601469046D2
:1017900022A83A46FFF7CAFD229C4246294636A8AF
:1017A000FFF7C4FD224629464AA8FFF7BFFD394688
:1017B00028465EAA4FF48073FFF752FEDDF82C91A5
:1017C0004F4582463FD09EAC20464A462946FFF709
:1017D000ADFDA668B74201D179E01E4632462946E2
:1017E0006846FFF7A3FD50226946204607F0CAFB72
:1017F000A3689F42F1D1249BA3603146224628462C
:10180000FFF71EFD379B249322AA39462846CDF8C0
:1018100088803797FFF714FD36AA41462846FFF720
:101820000FFD4FF48073224639462846FFF718FE15
:10183000BDF8E620BDF836319A420DD000200DF5F6
:101840005E7DBDE8F0872146249B4B934AAA28463B
:10185000FFF7F6FC9EACD5E71E4B4FF4966202FBF9
:101860000A3A0AF1040ADAF87854B5B1002605F507
:1018700088655EAA294614A833468DF850608DF815
:1018800051608DF8526004F0A7F90028D7D02246A5
:10189000294614A804F010FBD1E7DAF87C040028EC
:1018A000CDD000F588665EAA31462B4614A88DF887
:1018B00081508DF882508DF8835002F02FFF002860
:1018C000BDD02246314614A803F088FDB7E74E4646
:1018D00091E700BFD814FF1F2DE9F04FC36C8B4276
:1018E000DBB000F0918090464FF480731AAA054651
:1018F0000F46FFF7B5FD0446A86A40B103681B6CAC
:10190000984720B1A86A10B10368DB6B98474FF481
:10191000966000FB04F04A494A4A0B581C689442FE
:1019200001445FFA88F376D1012B1AAA44F202230C
:1019300001F1040118BF002306A805F0E5FD189B7E
:10194000002B6DD0682008F01BFF04469DF81C603A
:10195000089B9DF824203C483C4926764FF000091E
:101960004FF47A7B0DF1280A20606161E3615146F2
:1019700084F8202004F1240084F8049084F80C906A
:10198000C4F81090C4F808B005F09CFC23693049F5
:10199000304AC4F8649001AE013361612361C6F836
:1019A00008B086F8049086F80C90346132602A4BB7
:1019B0000693504605F0C2FCAA6A1AB11369013BAE
:1019C00013619BB13369AB6253B11A69214931602C
:1019D00001321A6132691AB11369013B136163B1B3
:1019E000EF64C5F848805BB0BDE8F08FA86A0028B6
:1019F000E8D003681B6A9847E4E730690028EFD015
:101A000003681B6A9847EBE7836C93427FF46BAFE4
:101A10005BB0BDE8F08F01AE1AAA3046A047CBE715
:101A2000199B002B8ED101AE4FF47A71094A3371A4
:101A300033733361B16032600DF1280AB7E700BF3C
:101A4000D814FF1F890A000014F800004CF70000AA
:101A500094F70000B8F7000070F700002DE9F0419E
:101A60000446174600221D46069EFFF735FFA06A72
:101A700068B1036839461B6B00229847A06A30B1F1
:101A80000368324629469B6ABDE8F0411847BDE825
:101A9000F08100BF2DE9F043B2F1FF3F14BF1646BD
:101AA0000026F7B00146324604460EA81F46FFF74F
:101AB0003DFC7E980AF064FC3E2804D900252846A7
:101AC00077B0BDE8F083421C7E9926A807F05AFA49
:101AD000256DBDF846000F9BADF896006A1C226587
:101AE000294622AA20464FF000094FF0010822960D
:101AF0008DF894702493CDF88C908DF89580FFF735
:101B00009FFB0EAA314620460F95FFF799FB47B978
:101B1000204642462946FFF7DFFE284677B0BDE85B
:101B2000F08336AA4FF4807329462046FFF798FCCD
:101B30004FF4966303FB00F0164B17491A5892684E
:101B40008A42184422D1D0F87C446CB1434636AA6C
:101B500004F5886168468DF800908DF801908DF845
:101B6000029003F0D7FFAAE7D0F880140029A6D08E
:101B7000434636AA01F5886168468DF831408DF8F4
:101B800032408DF8334003F0BDFB98E736A990470B
:101B900095E700BFD814FF1F310900002DE9F0417F
:101BA000A8B00146044668461646FFF7BFFB9DF8FD
:101BB0000C3013B19DF80D5015B128B0BDE8F0817F
:101BC00020462A463146FFF787FEA06A0028F4D057
:101BD00003681B6C98470028EFD0444F4FF47A7885
:101BE000A16A002959D00B680022DB6C14A8984721
:101BF000E26B42B11369013B136123B9E06B10B191
:101C000003681B6A9847189BE36373B11A69013232
:101C10001A61189A149742B11369013B136123B9F1
:101C2000189810B103681B6A9847E06B002845D0EC
:101C300003681B6C9847002840D0E06BBDF80E305D
:101C400014961695ADF85E3000282FD003689B6C73
:101C500098478DF85C0000283CD0E06B002315937A
:101C600000238DF85D3000283DD003685B6C9847F9
:101C7000014618A80AF014FB256D6B1C204623654D
:101C8000294614AAFFF7DCFAE06B0028A8D0036805
:101C9000DB6B9847A16A0029A5D18DF85410CDF8C7
:101CA00058808DF85C1014971891A1E78DF85C00AE
:101CB000002315938DF85D300D49DAE701236A465C
:101CC0003146204601958DF80D30FFF7B9FA28B05E
:101CD000BDE8F081E06B0028EAD003689B6B984771
:101CE0000346E06BBBE70249C3E700BFB8F700005B
:101CF0009CF9000090F85430012270B5054680F838
:101D000055200E4663B12B6D4BB10024224631465F
:101D10002846FFF743FF2B6D0134A342F6D870BD70
:101D2000FFF7A8FAEFE700BF30B590F8543097B04E
:101D300004461546F3B19DB16B1C08BF01F1FF3598
:101D40002A462046FFF72AFF012384F85C302A4602
:101D5000214602A8FFF7EAFA039BA36517B030BD3E
:101D600094F855305BB10022012384F85C20A36510
:101D700017B030BD0191FFF77DFA0199DBE72046EE
:101D8000FFF7B8FF0022012384F85C20A365EFE78A
:101D900070B50546006803681B6A0E460024984724
:101DA00000E001342868036831465B6A98470028E0
:101DB000F7D1204670BD00BF10B50446606818B961
:101DC00007F0DAFC606000B110BDFFF7B5F9F5E788
:101DD000002A2EDD2DE9F8434FF0000916460F4684
:101DE0000546C84601E04E4521DD2846FFF7E4FFE1
:101DF0006B6833F8080BC9EB0602C0F1400494424B
:101E0000A8BF144607EB09011844224607F0BAF8A8
:101E100069680B8823449BB2402BA1440B80E2D11C
:101E2000042007F0A7FD4E45C5F80480DDDCBDE8C1
:101E3000F883704730B50B7883B0044663B3084627
:101E40000D460AF09DFA217A01308DF8030061B346
:101E5000E3680133E3602A7832B919E0E3680233BA
:101E6000E36015F8012F72B1ADF806200029F5D115
:101E700002220DF106012046FFF7AAFF15F8012FF7
:101E8000217A002AF0D10023ADF80430F9B1E368DB
:101E90000233E36003B030BD027A8DF802307AB1CC
:101EA000C3680133C36003B030BD01220DF10301EB
:101EB0002046FFF78DFF2A78217A002AD4D1E2E765
:101EC00001220DF10201FFF783FF03B030BD204670
:101ED000022201A9FFF77CFF03B030BD70B5037A81
:101EE00082B004460D46ADF80410DBB1C3684FF66E
:101EF000FF720233C360ADF8062002330022E360B4
:101F00008DF802200133E3604DF202439D4227D059
:101F1000237A00228DF8032083B3E3680133E36062
:101F200002B070BD022201A9FFF752FF267A4FF6D8
:101F3000FF73ADF806304EBB02220DF106012046BC
:101F4000FFF746FF237A8DF802600BBB01220DF1EB
:101F500002012046FFF73CFF4DF202439D42D7D1DC
:101F60000C492046FFF766FF0A492046FFF762FF4B
:101F7000237A00228DF80320002BCED120460122A7
:101F80000DF10301FFF724FF02B070BDE368B4E771
:101F9000E368B7E7D4F90000F0B5037A8BB06425A5
:101FA0000446ADF80650002B6FD0C36806220233FA
:101FB000C360059204336422E360ADF80420023369
:101FC000E36074492046FFF735FF237A0022ADF81D
:101FD0000220002B00F0BA80E36812220233E36093
:101FE00004920433E36001266B4D41F2010305F1D5
:101FF000220707E0E368AF4203F10203E3600DD07C
:1020000035F8023FADF80830002EF3D1022202A9C4
:102010002046FFF7DDFEAF42267AF1D10023099377
:10202000002E4CD0E36801220433E36008920433AD
:102030004DF20242E360ADF80E2002330022E3606D
:10204000079204330222E360069204334FF44052B5
:10205000E360ADF80C20023343F20102E360ADF817
:102060000A200233E36020464C49FFF7E3FE204696
:102070004B49FFF7DFFE20464A49FFF7DBFE2046CB
:102080004949FFF7D7FE0BB0F0BD02220DF1060162
:10209000FFF79EFE237A06220592002B6DD10422C3
:1020A00005A92046FFF794FE237AADF80450002BD3
:1020B00065D1022201A92046FFF78AFE81E70422AA
:1020C00009A92046FFF784FE237A01220892002BFB
:1020D00057D1042208A92046FFF77AFE237A4DF251
:1020E0000242ADF80E20002B4DD102220DF10E015F
:1020F0002046FFF76DFE237A0796002B45D1042278
:1021000007A92046FFF764FE237A02250695002BD7
:102110003DD1042206A92046FFF75AFE237A4FF448
:102120004052ADF80C2023BB2A4603A92046FFF7F6
:102130004FFE237A43F20102ADF80A20BBB92A46CA
:102140000DF10A012046FFF743FE8CE702220DEB5A
:1021500002012046FFF73CFE237A1222049253B973
:10216000042204A92046FFF733FE267A3CE7E36801
:1021700077E7E3686FE7E36833E7E3681AE7E36864
:102180001DE7E36853E7E36857E7E36859E7E36867
:102190005BE700BFDCF90000A0F90000F0F90000E7
:1021A000D4F90000F8F90000FCF9000070B505460C
:1021B0000068036882B09B6998472B7A00900646B6
:1021C000D3B1EB680433EB60012436B912E0EB685D
:1021D00001340433A642EB600CD32B7A0194002B1C
:1021E000F5D104220DEB020128460134FFF7F0FD82
:1021F000A642F2D202B070BD042269462846FFF71B
:10220000E7FDE1E770B5037A82B0044613BB0D46E3
:102210001646FFF7BDFD237A019013B3E36804333C
:10222000E3602068036832461B6A294698472068A5
:10223000036829465B6A984788B1237A00901BB1EE
:10224000E3680433E360F2E7042269462046FFF7BF
:10225000BFFDECE7FFF79CFD01308000E06002B0BD
:1022600070BD04220DEB02012046FFF7B1FDD8E757
:10227000F0B50446D3B000680DF10A0606AD036858
:102280008DE8600012AA9F6A05ABB847237A3288AE
:102290000792002B59D0E368059A04330132E360BA
:1022A00000F0EB800022ADF8102002330022E36042
:1022B000ADF80E200233059AE3600F92043300223A
:1022C000E360ADF80C2002330022E3600E92043389
:1022D0000022E3600D9204330022E3600C92043389
:1022E0000022E3600B9204330022E3600A9204337D
:1022F0000022E360099204332A68E3600892059A99
:10230000A2F1FF32B2FA82F252090433E360ADF86F
:10231000122002330022E360119204330022E360B2
:1023200010920433E36012A92046FFF783FD204694
:102330006249FFF77FFD20466049FFF77BFD20469D
:102340005E49FFF777FD53B0F0BD07A90422204690
:10235000FFF73EFD059B267A013343F2010318BFC8
:102360000023ADF81030002E40F0908004A9022226
:102370002046FFF72DFD237AADF80E60002B40F0CC
:10238000878002220DF10E012046FFF721FD237AFE
:10239000059A0F92002B7DD10FA904222046FFF74A
:1023A00017FD237AADF80C60002B75D103A902222A
:1023B0002046FFF70DFD237A0E96002B6ED10EA955
:1023C00004222046FFF704FD237A0D96002B67D1E7
:1023D0000DA904222046FFF7FBFC237A0C96002B64
:1023E00060D10CA904222046FFF7F2FC237A0B9659
:1023F000002B59D10BA904222046FFF7E9FC237AD0
:102400000A96002B52D10AA904222046FFF7E0FCCD
:10241000237A0996002B4BD1042209A92046FFF705
:10242000D7FC237A2A680892002B43D108A90422FA
:102430002046FFF7CDFC059B267AA3F1FF33B3FAC4
:1024400083F35B09ADF81230002E35D10DF1120186
:1024500002222046FFF7BCFC257A1196A5B911A9E6
:1024600004222046FFF7B4FC237A109553B910A933
:1024700004222046FFF7ACFC55E743F20102ADF819
:10248000102012E7E3684CE7E36846E7E3680CE7EF
:10249000E3680FE7E36811E7E36814E7E36816E72A
:1024A000E36818E7E3681AE7E3681CE7E3681EE7F8
:1024B000E36820E7E36822E7E3682AE79CF9000085
:1024C000F0B5184F027A3B6883B00446019312B30B
:1024D000C2680432C260E3B1134E4DF601430025D9
:1024E00008E0E3680233E3603B680135AB4210D992
:1024F00036F8023F227AADF80230002AF1D10222EA
:102500000DEB02012046FFF763FC3B680135AB424F
:10251000EED803B0F0BD04220DEB0201FFF758FC2A
:102520003B68D8E77809FF1FC4F90000F0B50546FD
:10253000AFB000680DF10A0605AC03688DE85000E5
:1025400014469E6A0EAA04AB0F46B047A4F55C423F
:10255000013A049B432A30D8DFE802F03D4863701B
:102560002F2F3731312F582F2F2F2F2F2F2F2F2F46
:102570002F2F2F2F2F2F2F2F2F2F2F2F2F2F2F2F6B
:102580002F2F2F2F2F2F2F2F2F2F2F2F2F2F2F2F5B
:102590002F2F2F2F2F2F2F2F2F2F2F2F222F2F3750
:1025A0002B7A0D97002B51D0EB680433EB6004338A
:1025B000EB600433EB600433EB602FB0F0BD2846D2
:1025C0004349FFF737FC2FB0F0BD0EA92846FFF7AF
:1025D00031FC2FB0F0BD2B7ABDF80A200692002BFB
:1025E0005BD0EB680433EB602FB0F0BD01332A7A87
:1025F00043F2010318BF4FF44053ADF80C30002AEA
:1026000045D0EB680233EB602FB0F0BD2B7A059A12
:102610000992002BE5D12846042209A9FFF7D8FB2F
:10262000CBE72B7A0022ADF80E20002BE9D128460B
:1026300002220DF10E01FFF7CBFBBEE72C7A0893C7
:10264000002C30D0EB680433EB60B4E704220DA912
:102650002846FFF7BDFB2B7A059A0C92002B34D14C
:1026600004220CA92846FFF7B3FB2C7A01230B9315
:102670004CBB04220BA92846FFF7AAFB2B7A0A942D
:10268000FBB9284604220AA9FFF7A2FB95E72846D2
:10269000022203A9FFF79CFB8FE72846042206A924
:1026A000FFF796FB89E7042208A92846FFF790FB6D
:1026B0002B7A07942BB92846042207A9FFF788FB39
:1026C0007BE7EB6877E7EB6873E7EB686FE700BFE2
:1026D0009CF900002DE9F04104460068036888B0C9
:1026E0005B680E469847237A00280CBF042201221B
:1026F000ADF80620002B56D0E3680233E360206873
:10270000036831469B689847257A00280CBF01234F
:102710000223ADF80A30002D6BD0E36800220233AB
:10272000E360ADF808200233E360206803683146B7
:10273000DB68984705462068036831465B6998471F
:1027400007462068036831461B6998478046A5FB09
:1027500007014B02227A43EAD053400207930690C6
:1027600042B3A7FB0801E3684A0242EAD0520833A9
:10277000400205920490E36008334FF0FF32E360BB
:1027800003920433E360206803683146DB699847AD
:1027900001462046FFF74EFB20462149FFF74AFB42
:1027A00008B0BDE8F08102220DF106012046FFF7D6
:1027B0000FFBA4E7082206A92046FFF709FBA7FBA9
:1027C00008014B02227A43EAD05340020593049059
:1027D0000ABB082204A92046FFF7FAFA237A4FF031
:1027E000FF320392ABB9042203A92046FFF7F0FAA7
:1027F000C9E702220DF10A012046FFF7E9FA237A20
:10280000ADF808504BB9022202A92046FFF7E0FAC2
:102810008BE7E368B5E7E368AEE7E36883E700BF0B
:102820009CF900002DE9F043A1F55C410139A5B008
:10283000044643295AD8DFE811F05C006E0080009E
:10284000C60059005900D800210169015900B101A1
:1028500059005900590059005900590059005900B0
:1028600059005900590059005900590059005900A0
:102870005900590059005900590059005900590090
:102880005900590059005900590059005900590080
:102890005900590059005900590059005900590070
:1028A0005900590059005900590059005900590060
:1028B00059005900590059005900F70159005900B1
:1028C0004400037A4DF64442ADF84620002B00F058
:1028D0003D82E3680233E3600233E3600133E36087
:1028E0000133E3600433E3600133E36025B0BDE806
:1028F000F083037A4DF60142ADF81E20002B00F064
:10290000AF82E3680233E3600233E3600133E360E4
:102910000433E360E6E7037A4DF60242ADF8242083
:10292000002B00F0D481E3680233E3600233E360FC
:102930000133E3600233E360D4E7037A4DF60342E8
:10294000ADF82A20002BEED102220DF12A01FFF76B
:102950003FFA277A0426ADF82860002F40F0CB829A
:1029600002220AA92046FFF733FA257A8DF809706A
:10297000002D40F0BE8201220DF109012046FFF733
:1029800027FA277AADF82650002F40F0B0820222B5
:102990000DF126012046FFF71BFA257A1597002D29
:1029A00040F09382324615A92046FFF711FA237AA8
:1029B0008DF80850002B40F086822046012202A9A3
:1029C000FFF706FA92E7037A4DF60442ADF82E209F
:1029D000002B00F03B81C3680233C3600233E36025
:1029E0000133E3600833E3607CE7037A4DF6074286
:1029F000ADF83220002B7FF46CAF02220DF13201D2
:102A0000FFF7E6F9237A4FF6FF72ADF83020002B7E
:102A100040F0658202220CA92046FFF7D9F9267AF8
:102A200001258DF80E50002E40F057822A460DF1F8
:102A30000E012046FFF7CCF9277A8DF80D60002FA4
:102A400040F053822A460DF10D012046FFF7C0F9F0
:102A5000267A1797002E40F03882042217A92046C4
:102A6000FFF7B6F9237A8DF80C60002B40F02B822B
:102A70002A46204603A9FFF7ABF937E7037A4DF65C
:102A80000842ADF83620002B7FF423AF02220DF16F
:102A90003601FFF79DF9267A4FF6FF73ADF8343013
:102AA000002E40F01C8202220DA92046FFF790F96B
:102AB000257A8DF81160002D40F00F8201220DF172
:102AC00011012046FFF784F9267A8DF81050002E68
:102AD00040F00B82012204A92046FFF779F9257AFC
:102AE0001896002D40F0F181042218A92046FFF726
:102AF0006FF9237A8DF80F50002B40F0E4812046C7
:102B000001220DF10F01FFF763F9EFE6037A4DF6AD
:102B10000942ADF83A20002B7FF4DBAE02220DF122
:102B20003A01FFF755F9267A4FF6FF73ADF83830C2
:102B3000002E40F0D48102220EA92046FFF748F96A
:102B4000257A8DF81460002D40F0C781012205A977
:102B50002046FFF73DF9267A8DF81350002E40F0FD
:102B6000C48101220DF113012046FFF731F9257AC6
:102B70001996002D40F0A981042219A92046FFF7DB
:102B800027F9237A8DF81250002B40F09C812046C3
:102B900001220DF11201FFF71BF9A7E6037A4DF6AA
:102BA0000B42ADF83E20002B7FF4ABAE02220DF1BC
:102BB0003E01FFF70DF9267A0623ADF83C30002ED2
:102BC00040F0898102220FA92046FFF701F9257AFA
:102BD0008DF81660002D40F07C8101220DF1160168
:102BE0002046FFF7F5F8267A1B95002E40F06F81FE
:102BF00004221BA92046FFF7EBF8257A1A96002D30
:102C000040F0638104221AA92046FFF7E1F8237AF5
:102C10008DF81550002B40F05681204601220DF111
:102C20001501FFF7D5F861E6037A4DF64142ADF89C
:102C30004220002B00F0CB80C3680233C360023314
:102C4000E3600133E3600833E360CBE602220DF179
:102C50002E01FFF7BDF8267A0825ADF82C50002E7E
:102C600040F0418102220BA92046FFF7B1F8237AF8
:102C70008DF80B60002B40F0348101220DF10B0127
:102C80002046FFF7A5F8267A00220023CDE91E236F
:102C9000002E40F032812A461EA92046FFF798F800
:102CA000257A1696002D40F01081042216A92046A0
:102CB000FFF78EF8237A8DF80A50002B40F003813D
:102CC000204601220DF10A01FFF782F80EE60222EA
:102CD00009A9FFF77DF8277A0426ADF82260002FB6
:102CE00040F0098102220DF122012046FFF770F821
:102CF000257A8DF80770002D40F0FB8001220DF140
:102D000007012046FFF764F8277AADF82050002F1E
:102D100040F0ED80022208A92046FFF759F8257AF5
:102D20001497002D40F0D180324614A92046FFF7B9
:102D30004FF8237A8DF80650002B40F0C4802046CF
:102D400001220DF10601FFF743F8CFE502220DF154
:102D50004601FFF73DF8267A4FF6FF73ADF8443091
:102D6000002E40F0BC80022211A92046FFF730F867
:102D7000257A8DF81B60002D40F0AF8001220DF107
:102D80001B012046FFF724F8267A8DF81A50002EF2
:102D900040F0AB8001220DF11A012046FFF718F830
:102DA000257A1D96002D40F0908004221DA9204612
:102DB000FFF70EF8237A8DF81950002B40F083802E
:102DC000204601220DF11901FFF702F88EE50222DB
:102DD0000DF14201FEF7FCFF257A0A23ADF84030E1
:102DE000002D40F09080022210A92046FEF7F0FF4F
:102DF000237A8DF81850002B40F08380012206A919
:102E00002046FEF7E5FF237A4FF000084FF0000957
:102E1000CDE92289002B72D1082222A92046FEF793
:102E2000D7FF267ACDE92089002E66D1082220A975
:102E30002046FEF7CDFF257A1C96002D45D10422B1
:102E40001CA92046FEF7C4FF237A8DF81750002BEB
:102E500039D1204601220DF11701FEF7B9FF45E5F2
:102E600002220DF11E01FEF7B3FF267A0623ADF80C
:102E70001C3086BB022207A92046FEF7A9FF257A4F
:102E80008DF805602DBB01220DF105012046FEF7EE
:102E90009FFF267A1395D6B9042213A92046FEF780
:102EA00097FF257A129685B9042212A92046FEF7CB
:102EB0008FFF237A8DF804502BB92046012201A9F7
:102EC000FEF786FF12E5E3680EE5E3680AE5E368CE
:102ED0001EE5E3681AE5E36816E5E368FEE4E368E7
:102EE000FAE4E3687CE5E36878E5E368F8E4E3683E
:102EF00020E5E3681CE5E36818E5E36872E5E3684C
:102F0000A1E6E3689DE6E36899E600BF10B50446D4
:102F1000636805201BB906F075FC606000B110BD48
:102F2000FEF70AF9F4E700BF2DE9F047064600680E
:102F3000036882B0DB6A88469847357A07465DBBEE
:102F400038B3A94601E0AF4223D93046FEF734FF3B
:102F500096E8090033F8082B01687C1BC2F1400E8B
:102F6000744528BF744600941344D1F834A02A460F
:102F70004146D04771680B8823449BB2402B2544BF
:102F80000B80E0D1042006F0F5FCAF42C6F80490B7
:102F9000DBD802B0BDE8F087F3681F44F76002B0E9
:102FA000BDE8F087A2B32DE9F04106460D469046F4
:102FB00000273046FFF7AAFF7368B3F802E0B3F8C2
:102FC00000C0CEEB0C04444528BF444603F1080181
:102FD000714428462246C4EB08083DB105F0D2FFF3
:102FE0007368B3F802E0B3F800C025447444A4B297
:102FF000A4455C8004D0B8F1000FDAD1BDE8F081BF
:10300000184606F0D9FB7760B8F1000FD1D1F5E78B
:10301000704700BF70B582B001220C460DF1060169
:103020000646FFF7BFFF9DF806207CB1A5185AB1F0
:1030300002220DF106013046FFF7B4FFBDF806305D
:1030400004F8013BA542F3D102B070BD5200214605
:103050003046FFF7A7FFF7E730B5A1B004460D46AD
:103060000C226946FFF79EFF69462046FFF7D2FF14
:10307000206803686A462946DB6C984742F20100E3
:1030800021B030BD2DE9F04FC5B004AF39469246AE
:103090000C220546FFF786FFBB88022B08BF3C6861
:1030A0004FF00402394628460CBF413C6FF034040F
:1030B000FFF778FF022239462846D7F80090FFF73D
:1030C00071FFB7F8008043F2010302223946284617
:1030D000C3EB0808FFF766FF042239462846FFF7CE
:1030E00061FF022239462846FFF75CFF0422394679
:1030F0002846FFF757FF042239462846FFF752FFBC
:10310000042239462846FFF74DFF04223946284657
:10311000FFF748FF042239462846FFF743FF042201
:1031200039462846FFF73EFF042239462846FFF776
:1031300039FF022239462846FFF734FF0422394678
:103140002846FFF72FFF042239462846FFF72AFFBB
:1031500039462846FFF75EFF384609F011F901307D
:10316000A4EB4004B8FA88F8032C4FEA58180CD99D
:1031700026460DF10C0B043E042259462846FFF763
:1031800011FF032EF7D804F003040DF10C0B34B13A
:10319000012259462846FFF705FF013CF8D128686F
:1031A00004680097434652464946246BA04745B001
:1031B000BDE8F08FF0B585B00C2201A90746FFF7F6
:1031C000F1FEBDF80830022B05D038680368DB6BD0
:1031D000984705B0F0BD019D0C3DF6D0002638465D
:1031E000FFF794FE97E803004A8831F8084B03681C
:1031F000A41AAC4228BF2C469B6B11442246984728
:1032000078684388028823449BB29A42A5EB040560
:10321000438002D0002DE2D1D7E706F0CDFA7E60E0
:10322000002DDCD1D1E700BF2DE9F043054685B084
:10323000052006F0E7FA98B103880B2B044618D94D
:1032400083890C27012B078017D04FF400500026EC
:103250000323E0816661A3812146042006F08AFBF6
:10326000062006F0CFFA08B106F0A6FA05B0BDE8D0
:10327000F083204606F0A0FAF2E7C28941F20B0182
:103280008A4200F042823ED841F205018A4200F0B3
:103290001C8200F2978041F202039A4200F01181F1
:1032A00040F2C28041F203039A4200F00A8241F2E6
:1032B00004039A4240F0B480012300272B72284671
:1032C000EF60FEF773FFEB682F720C330222ADF84C
:1032D00008200193E389ADF80A3023690393284657
:1032E0000C2201A9FEF774FD2846FEF75FFF284671
:1032F000FEF762FD0420696806F03CFB3E466F6005
:1033000042F20100A4E741F219018A4200F0C781AC
:103310003CD841F20D039A4200F0BA81C0F0A88176
:1033200041F214039A4200F0278141F215039A42B8
:1033300076D1002201232B72EA6042694DF20243EA
:103340009A4200F008820C23002102222972ADF873
:1033500008200193E389ADF80A30236903930C2216
:1033600001A92846FEF734FD62694DF202439A42F4
:1033700000F0EC812846FEF71FFD00260420696856
:1033800006F0F8FA6E6042F2010061E749F60201C8
:103390008A4200F09E8067D949F603039A4200F002
:1033A000C88049F604039A423AD18769466928469B
:1033B000FFF7ACFD4DF607439F4200F0D38142F288
:1033C000050045E741F207018A4200F02081C0F084
:1033D000168141F208039A4200F0F38041F209039A
:1033E0009A421DD1002701232B72EF6041692846C4
:1033F000FFF79AFDEB682F720C330222ADF808201C
:103400000193E389ADF80A302369039301A92846A3
:103410000C22FEF7DDFC61692846FFF785FD66E7B3
:1034200042F20500002613E741F201039A42F7D168
:10343000002701232B722846EF60FEF7ADFDEB68F5
:103440002F720C330222ADF808200193E389ADF806
:103450000A302369039328460C2201A9FEF7B8FC21
:103460002846FEF799FD42E749F601039A42D7D173
:1034700046690123002731462B722846EF60FFF78B
:103480001FF8EB682F720C330222ADF8082001936D
:10349000E389ADF80A302369039301A928460C2279
:1034A000FEF796FC31462846FFF70AF82846FEF755
:1034B00083FC0420696806F05DFA6F6042F2010047
:1034C000C6E6286803689B6C9847002642F2010014
:1034D000BEE64669D0F818902B724FF000083146CE
:1034E0004A462846C5F80C80FFF79CF9EB6885F83A
:1034F00008800C330222ADF808200193E389ADF86F
:103500000A30236903933A4601A92846FEF760FC76
:103510004A4631462846FFF785F92846FEF74CFC17
:103520000420696806F026FAC5F8048042F201001A
:103530008EE64669D0F818800027012331464246BE
:103540002B722846EF60FEF7F1FFEB682F720C3309
:103550000222ADF808200193E389ADF80A3023690F
:10356000039301A928460C22FEF732FC424631465D
:103570002846FEF7DBFF99E7012300222B72EA6061
:1035800041694DF20243994200F0DA800C23002198
:1035900002222972ADF808200193E389ADF80A30C0
:1035A0002369039301A90C222846FEF711FC6169E7
:1035B0004DF2024399427FF4DDAE2846FEF78EFCC1
:1035C000D8E6002701232B72EF6041692846FEF7F9
:1035D0004FFEEB682F720C330222ADF808200193E6
:1035E000E389ADF80A302369039301A928460C2228
:1035F000FEF7EEFB61692846FEF73AFE77E683693F
:10360000002B00F0948042F21400002620E6D0F84F
:103610001880B8F1000FF6D12B72C5F80C80C26982
:1036200041692846FEF7EEFDEB6885F808800C330B
:103630000222ADF808200193E389ADF80A303A463A
:103640002369039301A92846FEF7C2FBE269616979
:103650002846FEF7D7FD2846FEF7AEFB0420696832
:1036600006F088F94646C5F8048042F20100EFE50D
:103670002846A2696169FFF705FD6669E0611823C4
:10368000002E08BF01262380A36042F20100DFE57F
:103690002846FFF78FFD002642F20100D8E5286892
:1036A000E269036861691B6D984742F2050342F2C3
:1036B00001022780A76000280CBF1846104600268C
:1036C000C6E542F201000026C2E54FF000082B7269
:1036D000C5F80C8041692846FEF7FCFFEB6885F8C9
:1036E00008800C330222ADF808200193E389ADF87D
:1036F0000A302369039301A928463A46FEF768FB7E
:1037000061692846FEF7E6FFA5E78669002E7FF48B
:103710007AAF2868616903681B6C984742F212030C
:1037200042F2010200280CBF1846104690E52846D8
:10373000E2696169FEF72CFB064642F2010087E56B
:103740002846FEF7CBFBEB680C3320E70A492846F6
:10375000FEF770FB0EE608492846FEF76BFBEB68A8
:103760000C33F1E528463146FFF776FC00283FF49C
:1037700080AD80B26CE500BFD4F9000010B4047FC6
:103780004160022CC26003D05DF8044B06F032BFEA
:1037900083685DF8044B18472DE9F0410468E5683B
:1037A00015F0807F794D256052D1DF0740F1B3805D
:1037B000002900F0E3800D78012B18BF45F000458B
:1037C0006563013190F82C8003F1FF3C48EA08283A
:1037D000BCF1000F00F0A88021B14D7811F8028BE8
:1037E00045EA082845682E7ABCF1020F06F1FF363B
:1037F0004FEA06360CBF48F0805548F01045B6B287
:103800006563ACF1020C08E00AB114700132013BAF
:1038100005F47045B54216D90468E56A15F0F00F55
:10382000F6D0A46B13F0010F17464FEA242EEBD10C
:103830001AB107F802EB54703A4605F47045B542E8
:10384000A3F10203E8D8BCF1000F6DD00468C3E710
:10385000DD074CD5002900F089800D78012B18BFB9
:1038600045F000456563013103F1FF3E90F82CC03F
:10387000BEF1000F41D029B191F801C00D7802319D
:1038800045EA0C2C45682E7ABEF1020F06F1FF3690
:103890004FEA06360CBF4CF080554CF01045B6B2DE
:1038A0006563AEF1020E08E00AB114700132013B0B
:1038B00005F47045B54215D90468E56A15F0F00FB6
:1038C000F6D013F0010F1746A46BEDD122B107F823
:1038D000024B241254703A4605F47045B542A3F1E8
:1038E0000203E9D8BEF1000F07D00468C3E79E4683
:1038F00090F82CC0BEF1000FBDD11BB30468E16A83
:1039000011F0F00FFBD0A16BDC071DD50AB11170CF
:103910000132013BF1E790F82C809C4648EA0828E8
:10392000BCF1000F7FF458AF63B10468E16A11F095
:10393000F00FFBD0DE07A16B0FD50AB11170013279
:10394000013BF1E7BDE8F0812AB114460D1204F8FD
:10395000021B55702246023BCFE72AB114460D12D6
:1039600004F8025B51702246023BDDE790F82C50D0
:10397000012B18BF45F00045656375E790F82C50A2
:10398000012B18BF45F0004565631BE700041F804D
:10399000F0B4464B464A986B5C6B0179117045490F
:1039A00022790A701A6B00790870002A46D059688B
:1039B000C9688A423ED82168CC8B240402F1FF30CA
:1039C00065D4C0F30E00C883C88B80B2C882996BDF
:1039D0000968C88B000452D4C2F30E00C883C88B98
:1039E000002480B212F1FF32C88218BF01221C638A
:1039F000596B2E4809680D6800F12C04A54236D099
:103A00000068C46814F0804F0C680D6815BF2488E6
:103A100024780235013544F000440D604463996B0D
:103A2000254B09791970214912B14A6B12791A7024
:103A3000F0BC7047521A1A630122D9E7D86B196893
:103A400005681E4C0A63CC62CC682D681C4E24F0BD
:103A500080440327B542CC6083F82D701FD1037FCB
:103A60004260022BC2601ED0F0BC06F0C3BD0168EC
:103A700090F82C00CC6840F000404863CFE7CC8B36
:103A8000C2F3080004F47E442043C883A7E7CC8B2C
:103A9000C0F3080004F47E442043C88394E72B4617
:103AA0001146F0BC18478368F0BC1847BC09FF1FDB
:103AB0001F8000401C8000401B80004000000FFF62
:103AC0007D370000F0B4464B464A986B5C6B017939
:103AD0001170454922790A701A6B00790870002A22
:103AE00046D05968C9688A423ED82168CC8B2404E4
:103AF00002F1FF3065D4C0F30E00C883C88B80B2DA
:103B0000C882996B0968C88B000452D4C2F30E00B6
:103B1000C883C88B002480B212F1FF32C88218BF5C
:103B200001221C63596B2E4809680D6800F12C04B2
:103B3000A54236D00068C46814F0804F0C680D6848
:103B400015BF248824780235013544F000440D6007
:103B50004463996B254B09791970214912B14A6B5D
:103B600012791A70F0BC7047521A1A630122D9E711
:103B7000D86B196805681E4C0A63CC62CC682D6846
:103B80001C4E24F080440327B542CC6083F82D708E
:103B90001FD1037F4260022BC2601ED0F0BC06F032
:103BA00029BD016890F82C00CC6840F000404863C3
:103BB000CFE7CC8BC2F3080004F47E442043C883D3
:103BC000A7E7CC8BC0F3080004F47E442043C883ED
:103BD00094E72B461146F0BC18478368F0BC1847A1
:103BE0007C09FF1F1F8000401C8000401B8000409C
:103BF00000000FFF7D37000090E80C00F0B41C6857
:103C000059682568164F174E29432160164D1749EC
:103C10001760D66015611160417A154A5C180C3145
:103C200094F82C4053F8215002EBC40149680D6010
:103C3000017A5C1803EB8101247ECD6902EBC4019B
:103C400049680D60817A581803EB810390F84000B1
:103C5000596C02EBC002F0BC53681960704700BF9A
:103C600001401F00011000380110007800001F8083
:103C700070FC0000F0B4254B4568AB4211D0437A8C
:103C80002B4493F82C60B14209D005F12B0200239C
:103C900012F8014F8C421AD00133042BF8D1F0BC3A
:103CA00070470B292CD0072909D01C29E7D1184AC5
:103CB000137823F0030343F002031370DFE7144A81
:103CC000137823F0030343F001031370D7E795E85B
:103CD00006000968114210D00E4A02EBC606002702
:103CE0007468E918276091F82C1002EBC10203F107
:103CF0000C01546855F8212022604372F0BC7047D3
:103D0000034A137823F003031370B8E7C8FA0000DE
:103D10002D20FF1F70FC0000F0B4244B4568AB421F
:103D200010D0037A2B441E7EB14209D005F1170250
:103D3000002312F8014F8C421AD00133042BF8D122
:103D4000F0BC70470C292AD0082909D02729E8D1CE
:103D5000174A137823F00C0343F008031370E0E7CD
:103D6000134A137823F00C0343F004031370D8E7CD
:103D700095E80600096811420ED00E4A02EBC6060D
:103D8000E918746800272760097E02EBC10205EB81
:103D900083055268E96911600372F0BC7047044AF8
:103DA000137823F00C031370BBE700BFC8FA0000C0
:103DB0002D20FF1F70FC0000284A43689A4270B40F
:103DC00015D0827A1A4492F8402091420DD093F88F
:103DD00040408C423FD093F841408C421DD093F834
:103DE00042408C4208BF022118D070BC70470D2998
:103DF0002BD00E2909D01B29E3D1194C227822F0AF
:103E0000300242F020022270DBE7154C227822F0CB
:103E1000300242F010022270D3E701211D685C6875
:103E20002D6825420FD00F4C04EBC20200265568C6
:103E30005A182E6092F8402004EBC20403EB810371
:103E400062685B6C13608172CFE7054C227822F0C8
:103E500030022270B5E70021E0E700BFC8FA000099
:103E60002D20FF1F70FC00000BB1FFF795BC7047C1
:103E7000704700BFF0B40F4B0F4CC3F88C4428259B
:103E800000240E480E4F0F4E83F8AB5483F8944431
:103E900083F8AE441860C3F89874C3F8A064C3F8FC
:103EA0007C44C3F88044084A08491846F0BC06F030
:103EB0003FBD00BFF819FF1F20FC000070F8000094
:103EC000C8FB0000011001387009FF1F713E00009F
:103ED00010B5044601F042F9002384F8313084F82B
:103EE000333010BD2DE9F04300F124030646884627
:103EF000154693E8070085B096F831300DF10409B6
:103F000089E80700002B38D096F83030012B3AD9D9
:103F100001270024012F0CBF402220224946306A8D
:103F200000F078FE012828D100224946306A00F0CE
:103F300057FE10B30378C12B1FD100F11E0108EB0F
:103F4000040223460134AC4210D230F8023F7E2BEB
:103F500094BFDBB23F23884202F8013B2346F1D1F4
:103F6000013796F83020FFB2BA42D3D80022184663
:103F700008F8032005B0BDE8F083002088F80000B1
:103F800005B0BDE8F0830023F0E700BF90F83120D2
:103F90000AB10020704738B504460D461146382254
:103FA00007F0E4FE4023012084F8313084F8330028
:103FB000256238BDF0B50878202803D111F8010F2B
:103FC0002028FBD051600878002851D02F282BD012
:103FD0005C2820D0A0F12204E4B21D2C1DD9DFF80A
:103FE00094E04E1C00247C28A0F12005374612D016
:103FF0005E2D10D816F8010BA0F12205EDB20134A8
:1040000078B32F2811D05C282EFA05F703D01D2D88
:10401000E9D8FD07E7D50020F0BD164D25FA04F4D8
:10402000E607DCD50020F0BD00240F193E462546EA
:104030002F2002E016F8010F01352028FAD02F2892
:10404000F8D02944196044B1394611F8013D2E2BAE
:1040500001D0202B08D1013CF7D12046106001206F
:10406000F0BD1F600F19EFE7FF2CF6DD0020F0BD5B
:104070001960F3E7010100352DE9F04F90F8333076
:10408000DD0783B0044640F1AC8058060D46164665
:1040900040F1B280D4E90001D4E9042310EB060812
:1040A00041F100094B4508BF4245C0F0AB80002EEE
:1040B00000F0AA80A146F9E80623B0464FE013437A
:1040C0006BD194F831305A064CBFD0F82C14E1690A
:1040D000A16190F83DC4D0F8242402397F0A01FA86
:1040E0000CFEB9187144BAF1000F42D1B8F5007F47
:1040F0003FD3D0F8142291423BD0B8F5806F53D310
:10410000012303FA0CFCC7EB0C074FEA58239F422C
:1041100028BF1F4691424FEA472B0BD87B1893428A
:1041200008D900F50370019100F016FC002858D062
:10413000206A0199D0F8380402683B46D7682A46BD
:10414000B84700284DD058460021D4E90023121862
:104150004B41B8EB0B085D44C4E9002354D0206AFE
:10416000D0F830741740C7F3080A002FA7D0A16910
:10417000AFE700F50370002200F08EFB88B3CAF5AC
:10418000007BC34528BFC34600EB0A015A462846B8
:1041900004F0F8FE58460021D7E794F833305B0668
:1041A0000FD5A169013193E7D0F8380403682A4696
:1041B0009B689847A8B14FF4007000214FF4007B32
:1041C000C3E74A46A16900F051FD40B2002808DB70
:1041D00002D0206AA1697CE794F8313013F0500FC7
:1041E00014D194F832304FF0FF3043F0020384F8DA
:1041F000323003B0BDE8F08F94F8313019073FF545
:1042000049AF54E7161A52E74FF00008C8EB060012
:1042100003B0BDE8F08F00BFF0B583B001220DF10F
:1042200007010446D0E900678569FFF725FF0128EB
:1042300008BF9DF80700A56118BF4FF0FF30C4E923
:10424000006703B0F0BD00BF2DE9F04F90F831E0FA
:10425000856983B00446BEF1000F1BD0D0E9000190
:10426000994208BF904216461F463BD056EA0703C4
:1042700007D10023A3610120C4E9006703B0BDE8B2
:10428000F08F1EF0080F0AD0D4E90423BB4208BF08
:10429000B24204D2A561002003B0BDE8F08F236ACA
:1042A000019393F83DC494F833A00CF1090C5FFA24
:1042B0008CFC16F1FF3247F1FF33CCF1200803FAF2
:1042C00008FB22FA0CF242EA0B02ACF1200B23FAB3
:1042D0000BF31AF0400F42EA030205D0E3691A44D7
:1042E000A261C8E70120D7E710F1FF3941F1FF3A99
:1042F00029FA0CFC0AFA08F84CEA080C2AFA0BFB1B
:104300004CEA0B0C6245534617D21EF0400F16BF05
:10431000019BE369D3F82C34A361904604F118099A
:104320004A46B8F1000FA6D0A169206A00F09EFCB1
:1043300008F1FF380028F3D1ACE750EA0103E4D0DC
:10434000CCEB0202E9E700BF2DE9F04F0E4693B037
:1043500090F831100092054629B99A4696F8313006
:1043600013F0500F07D1002085F8310085F8330095
:1043700013B0BDE8F08F1C9B03F00303012B06D0A4
:10438000022B00F00981002BEDD1012300E0022374
:104390001C9A02F0080213430193009B002B00F0CB
:1043A000FD8018460022514600F002FD96F831309B
:1043B00002904BB1D6E90023134305D0002200231D
:1043C000C6E900230021B161B84A0AF10E0382FB5D
:1043D00003121A44DB17C3EBE203DBB24FF0000910
:1043E000039302335FFA83FB4C464F4620220AA90F
:1043F0003046FFF741FE00283DD02028B3D19DF87C
:1044000028301A0666D4002C61D13268B169079150
:10441000203A08920134E4B26BB3C02B00F09380D1
:10442000C12B62D0852BE1D138220021284607F02C
:104430009DFC9DF82C309DF8292085F83020D80669
:1044400003F0370258BF42F0080285F83120336884
:10445000316AB2696A62203B2962AB6296F83330F6
:10446000C3F3801385F82C3020220AA93046FFF7C9
:1044700003FE0028C1D11C9B99057FF574AF019BF9
:104480009A077FF570AF009B002B3FF46CAF5C4543
:104490000CD386E020287FF466AF24B93268B16976
:1044A0000791203A0892DCB2A3457AD920220AA9C2
:1044B0003046FFF7E1FD631C0028EBD13046B769B9
:1044C00000F07CFE00283FF44EAFB761ECE75C459E
:1044D000A2D29FE7B9F1000F9FD15C4538BF0024FD
:1044E000852B83D14FF001099EE7C7EB0A085FFADD
:1044F00088F8B8F10F0F28BF4FF00F0843463A462F
:1045000000990AA800F072FC00283CD04744FFB292
:10451000BA457FF46BAF1C9B1B053FF524AF1C9B7A
:1045200013F4884F40F0A08095F833309F0700F1D6
:104530009B801C9B5B053FF516AF1C9B580400F14C
:10454000B780012014E79DF82930019A85F83320BF
:10455000990703D542F0400385F83330DDE90C2399
:10456000DDE91001C5E904230F9BEB61009BC5E960
:104570000201002BCFD09DF82B30534505D04FF0D2
:1045800000094F4632E7814630E7BDF82C30029AE9
:104590009342F4D1002729E70323F9E6009B029315
:1045A00012E796F833303822C3F3801300212846EF
:1045B0000DF11C088DF8243007F0D8FB039C336AFA
:1045C000CDF80CA098E8070004F10109082485F84B
:1045D00031400AF11E0705F12404DDF800A02B622A
:1045E0005FFA89F984E80700FFB200261846012225
:1045F000414600F0F5FA044600283FF4B4AE90F9C5
:104600000030002BFFF6AFAE2022002107F0AEFBFA
:10461000002E66D0012E54D0C6EB06130F2FA3F147
:104620001E034FF0C102394628BF0F21DBB22270B2
:1046300051B1023409B204EB4101534413F8012B88
:1046400024F8022BA142F9D10136F6B2B34529D99B
:1046500020224146286A00F0DDFA01287FF483AE6B
:104660000F3FFFB2286AC2E795F8313013F0110FFF
:104670007FF479AE1C9B5E057FF55FAF95F8333014
:104680009C077FF570AE002200232846FFF7DCFD73
:1046900000283FF468AE284600F0F6FE00283FF4FC
:1046A00062AE4EE7284600F059FD61E689888888A9
:1046B000D5E904232846FFF7C7FD00287FF441AF62
:1046C00051E6C0232370019B032263F03F03627015
:1046D00085F833309DF80C30E370BDF80830A380C6
:1046E000B2E7852323700C4B85F8309084F8019055
:1046F0001B68002BA8D00DF117020DF11A0106A8B6
:1047000098479DF81710BDF81A20BDF8183021758C
:104710002281638198E700BFA81EFF1F2DE9F043A7
:10472000064695B096F83140039200208DF8490076
:104730008DF84A008DF84B0034B9994691F8313024
:1047400013F0500F0D4603D1002015B0BDE8F083E3
:1047500013782F2B144632D04FF00008214603ABBC
:1047600004AA3046FFF726FC0028EDD0039B1B78F7
:10477000002B39D09DF81030059ACDF800802946DD
:104780003046FFF7E1FD0028DED0344606AF06F1E3
:10479000300E20686168A268E3683D460FC510349A
:1047A00074452F46F5D120682860304600F0D6FCCD
:1047B00006AD86F8318086F83380039CCEE701345D
:1047C000039421782F29FAD0D1B1382206A80021EC
:1047D0002F6A07F0CBFA4022012306AD0E978DF821
:1047E00049208DF84B30B7E79DF81030059ACDF889
:1047F000009029463046FFF7A7FD15B0BDE8F083CD
:10480000382230462C6A07F0B1FA40230120346286
:1048100086F8313086F8330097E700BF19B101F50B
:104820008861FFF77BBF0846704700BF90F83130C2
:1048300053B930B591F8314014F0500483B00D46AF
:1048400004D1204603B030BD00207047D5E90045B3
:10485000002504F01F042C4302D0184603B030BDDD
:1048600000921A46FFF770FD03B030BD10B500F19D
:104870000C0204464068A16803689B69984718B118
:10488000237823F00103237010BD00BF00224FF0F6
:10489000FF33027083607047F8B54568FDB18368E7
:1048A0008B42044617460E460ED00378DA0712D420
:1048B000BB0716D504F10C0507F0010200231343D2
:1048C00023702846A660F8BD10F90C3B07F00102E2
:1048D00013432370F8BDFFF7C9FF0028E8D100207B
:1048E000F8BD6068036804F10C059B682A463146F0
:1048F00098470028E0D1F2E738B50C46D0F81C14F0
:10490000154601EBD41100F503700022FFF7C4FF38
:1049100040B1A400C4F3080403595A1C04D02B600E
:10492000012038BDFF2038BD002038BD38B50C4609
:10493000D0F81C14154601EBD41100F503700122C8
:10494000FFF7AAFF034628B1A400C4F3080401201E
:104950001D5138BD38BD00BF0378DB0701D40120ED
:104960007047FFF783BF00BF2DE9F84F804691469F
:104970008B46002944D08F1ED8F828349F423BD262
:1049800007F00705012303FA05F5EDB2C7F3C80ADE
:104990003E463C46D8F82414002201EB1431404630
:1049A000FFF77AFFC0B110F80A100AE04A452AD092
:1049B000A74210D0D8F82824944217D213F0FF054C
:1049C0000CD001340D424FEA4503A4EB0602EDD0B2
:1049D000A7422646EED10120BDE8F88F0AF1010A70
:1049E000BAF5007F4FF00105DDD101E00026344625
:1049F0004FF0000A0125CDE70027BA460125C7E799
:104A0000D0F81874B8E7BBF1000F04D1B9F1010F69
:104A100008BFC8F81864B01CBDE8F88FF8B50446A4
:104A200000234FF0FF3600F50377C0F838144160DB
:104A3000C0F810121546384684F83C34237084F8C8
:104A40000C32A660C4F814621A461946FFF724FF18
:104A5000042D0CD8064650B15DB905222649F01C3C
:104A600007F0FCFC18B996F86C30092B19D000201F
:104A7000F8BD6B1E00EB031393F8BE2112F07F020A
:104A8000F5D193F8C231002BF1D000EB0515384673
:104A9000D5F8B6512946FFF7FFFE06460028DCD1BF
:104AA000E5E7336D2B44C4F81C34736DC4F820342F
:104AB000B36D1D44C4F82454F36DC4F82834336E28
:104AC000C4F82C3496F86D3084F83D340125093350
:104AD00005FA03F35A1EC4F818040146C4F8343426
:104AE000C4F8302420462A46FFF73EFF402384F8CE
:104AF0003C342846F8BD00BFB8FB00002DE9F04764
:104B000002398046D0F8280415468A18824238D8DF
:104B10009A46D8F81834BAF1000F35D1994238BF07
:104B2000C8F8181401F007040122D8F8243402FA56
:104B300004F4E4B203EB1139C1F3C806012249467B
:104B400040469144FFF7A8FED8B1871900F50070E0
:104B500017F8012B224214BF01260026564582EA8F
:104B600004024FEA44040CD0013D07F8012C15D093
:104B700014F0FF04EED1B84226464FF00104E7D10D
:104B8000DCE70020BDE8F0879942CBD89A42C9D92A
:104B9000824228BF0022C8F81824C3E70120BDE8DC
:104BA000F08700BF70B582B002AE054646F8041D1E
:104BB0000024D5F8283401990133994202D9002004
:104BC00002B070BD32462846FFF796FE40B200287C
:104BD000F5DB04F10104ECD1204602B070BD00BF4A
:104BE000F8B50E4696E82800D0F83014D0F82444E2
:104BF00090F83D742940023B04EB5121BB4019441D
:104C000000F50370FFF748FE18B17368C3F308039B
:104C10001844F8BD70B54C680D46A318D0F8301490
:104C20006B6090F83D340C4009332244DBB222FA29
:104C300003F406463CB12B7A3BB12B6801332B6061
:104C4000013C002CF7D1012070BDD6F8283429682A
:104C50000133994202D94FF0FF3070BD2A463046E9
:104C6000FFF74AFE40B20128EAD070BDD0F82834E0
:104C700001338B4201D2FF207047FFF73DBE00BFDA
:104C800001290DD9D0F828340133994210B403D941
:104C900000205DF8044B70475DF8044BFFF746BEFB
:104CA00000207047F0B50C4683B005460E46D5F897
:104CB000283401339C4202D9002003B0F0BD01AA80
:104CC00021462846FFF718FE47B2002FF4DB012CDF
:104CD000F2D9D5F8283401339C42EDD80022214680
:104CE0002846FFF723FE0028E6D0019B01349C42B2
:104CF0000BD1002FDBD13B46A21B31462846FFF7E4
:104D0000FDFE0028D8D003B0F0BDA21B3146002321
:104D10002846FFF7F3FE0028CED0019C002FCCD010
:104D20002646C4E72DE9F8430024D0F824648046E1
:104D300000F5037725463146002238460136FFF755
:104D4000ABFD30B300F1FF3ED8F828C41EF8010FC8
:104D5000FF2805F5805913D048B1082201231842D5
:104D60004FEA430118BF0134013ACBB2F7D10835FD
:104D7000AC450AD94D45DED01EF8010FFF28EBD116
:104D80000835AC4504F10804F4D8C4EB0C00BDE8C8
:104D9000F883BDE8F88300BF10B50446D0F82C14A2
:104DA000FFF700FF94F83D340933DBB2984010BDA3
:104DB000C9B110B40144D30343EA520310F8012BE4
:104DC000A2F16104192C9CBF203AD2B212FA83F2EC
:104DD00092B2D30343EA5202814292B2EBD110461F
:104DE0005DF8044B70471046704700BF43B370B482
:104DF00044887E2C1ED81344CD180A44023012F881
:104E0000013BE4B2A3F161011929A4F1610194BF4E
:104E100020260026192994BF202100219B1B641AFB
:104E2000DBB2E4B29C4205D1AA4206D030F8024F70
:104E30007E2CE4D9002070BC7047012070BC704704
:104E4000012070478169F8B50446006A01B101315B
:104E50000122FFF789FD012806462FD901230146CB
:104E60001A46206AFFF74AFE074638B3A06994F84D
:104E7000333030B35A0613D5421C964225D023F066
:104E8000400284F83320E36905E0206AFFF7F8FE6A
:104E9000A0B1A0692B465D1C834219462A46F4D373
:104EA0004FF0FF323146206AFFF7EAFE30B1A169C8
:104EB00059B13246206AFFF7E3FE30B90027384681
:104EC000F8BD43F0400384F83330A6613846F8BD9E
:104ED0002DE9F04300F12403054693E8070085B06F
:104EE00095F8333001AE86E807009A071BD5E969CB
:104EF000E9B9002401223146286AFFF771FE013426
:104F0000E4B280B1037803F07F03037095F830308A
:104F1000A34231D3002CEDD020223146286AFFF77E
:104F200079FE0128E6D0002005B0BDE8F0835B06DD
:104F3000286A1CD5D5E9022390F83D440934E4B22F
:104F400012F1FF3843F1FF39C4F1200709FA07F7DE
:104F500028FA04F2A4F1200329FA03F33A431A438E
:104F600001320023FFF7CAFD0028C2D1DBE7FFF7BB
:104F700099FE0028BDD1D6E72C6A0023204685F88B
:104F8000313085F83330FFF7E7FC0028CBD004F54B
:104F90000370FFF7E1FC0028C5D0D4F8380403689B
:104FA0005B699847C0E700BF90F83130D90601D45B
:104FB0000020704710B5002288B000230446FFF798
:104FC00043F906E0202819D19DF800301A0615D4BF
:104FD00033B1202269462046FFF74EF80028F1D170
:104FE00094F83330082243F0020384F8333084F815
:104FF00031202046FFF76CFF08B010BD002008B03C
:1050000010BD00BF2DE9F04F00F1240B06469BE8D0
:10501000070087B00DF10C0888E807000027BA46A2
:105020003C4600224146306AFFF7DAFD5FFA87F915
:10503000054630B10278C02A52D0C12A0BD0852A49
:1050400029D096F8323043F0010386F83230002040
:1050500007B0BDE8F08F104600216A5CE30343EA25
:10506000540412FA84F40129A4B201F101010DD013
:105070001F29F2D9CA4551D020224146306AFFF794
:10508000C9FD012807F10107CBD0DAE785280CBF5D
:1050900004210221E1E7304B96F831101B6890F8AB
:1050A00001A001F037018180002BD4D0316A91F842
:1050B0000C2242F0010281F80C2202A80DF1070235
:1050C0000DF10A019847BDF80A20BDF808309DF897
:1050D00007106975AA812A82EB816B822878BBE769
:1050E00096F8333013F0400F437814BF43F00203B7
:1050F00023F002034370D6E90423C0E90223D6E972
:105100000223F1694161C0E90623326A92F80C3248
:1051100043F0010382F80C3200789DE759460122E2
:10512000306AFFF75DFD00288BD0356A4480284641
:10513000FFF712FC002884D005F50370FFF70CFC84
:1051400000283FF47EAFD5F8380403685B699847C0
:1051500000283FF476AF7BE7A81EFF1F90F83120B0
:1051600092B138B590F8332011060FD4056A044681
:105170002846FFF7F1FB88B994F8323043F0010379
:1051800084F83230002038BD0120704702F07F02E1
:1051900080F83320BDE83840FFF734BF05F50370D1
:1051A000FFF7DAFB0028E7D0D5F8380403685B691D
:1051B00098470028E0D0012038BD00BF2DE9F0411C
:1051C00090F831305906044663D48068236AD3F8D6
:1051D00034341844B0F1806F02D30020BDE8F08170
:1051E0002046FFF72FFE0028F7D0266A96F80C32EB
:1051F000DA0706F5037550D4284606F50676FFF75C
:1052000045FB4FF400720021304606F0AFFD226AE4
:10521000A36992F83D04D2F82414A3F102080127EF
:1052200008FA00F817FA00F3884418BF002511D0D7
:10523000D2F83804036808EB05019B6932469847A9
:1052400001350028C9D0226A92F83D3407FA03F3E9
:10525000AB42EDD894F831305B0615D494F8333076
:1052600063F07F0384F83330D2F83464D4E9022346
:10527000D4E9040192194FF000077B41801979416C
:10528000C4E90223C4E904012046BDE8F041FFF768
:1052900065BF006AFFF780FD98E72846FFF75CFBD3
:1052A0000028A9D199E700BF91F8313013F0500FD1
:1052B00001D10020704730B583B040F60225137845
:1052C000526800950446FFF73FF810B9002003B07C
:1052D00030BD102384F831302046FFF76FFF0028DF
:1052E000F4D0A369E361002200232046FEF7ACFF5F
:1052F000C123204684F8333003B0BDE83040FFF7C7
:105300002DBF00BF2DE9F043064695B096F8315009
:10531000039200208DF849008DF84A008DF84B006B
:1053200035B9994691F8313013F0500F0C4603D13E
:10533000002015B0BDE8F08313782F2B114636D02E
:105340004FF0000803AB04AA3046FEF733FE0028F6
:10535000EED0039B1B78002B37D09DF81030059AB8
:10536000CDF8008021463046FEF7EEFF48B9B9F18E
:10537000000FDDD0214604AA3046FFF795FF002834
:10538000D6D0344606AF06F1300E20686168A268B8
:10539000E3683D460FC5103474452F46F5D12068AB
:1053A00028603046FEF794FD06AC0399CAE7013148
:1053B00003910B782F2BFAD0216A06A8FEF7E6FDA1
:1053C0000028B5D0039906ACBAE704AA21463046B6
:1053D000FFF76AFF15B0BDE8F08300BFF0B590F8A5
:1053E00031409DB0002314F0180F8DF831308DF846
:1053F00032308DF833308DF869308DF86A308DF8A1
:105400006B3003D00B6A046A9C4202D000201DB0AE
:10541000F0BD044640F601236846FFF77FF90028F7
:10542000F4D00EAF254604F1300E28686968AA68EA
:10543000EB683E460FC6103575453746F5D12868EE
:10544000306009AB93E8070004F1240383E8070008
:1054500094F833309DF8302084F8302063F07F03D7
:1054600084F833302046FFF779FE0028CED00021A3
:10547000022208230EA815918DF86B208DF8693053
:10548000FFF726FDC3E700BF90F833309A0718D521
:10549000F0B5C56983B08DB103F04003044603F055
:1054A000FF0083B9A169002941D10195E161294635
:1054B000206AFFF7F7FB30BB002000E0012003B0BB
:1054C000F0BD00207047206AA16990F83D34D4E90E
:1054D00002670933DBB216F1FF36C3F1200E47F144
:1054E000FF3726FA03F207FA0EFE203B42EA0E02CD
:1054F00027FA03F31A430132B1B1013D6D1A0131AC
:105500002A4401910ABBD4E9000194F8333063F0D6
:105510007F03C4E90201C4E9040184F83330204662
:10552000FFF71CFE03B0F0BD0195E161EAE702AAB6
:1055300042F8040D206AFFF799FB40B20028BBDB5C
:105540000AD1019D002DDED0B1E700230199FFF7BC
:10555000D5FA0028D7D1AFE74FF0FF32A169206A12
:10556000FFF78EFB0028ECD1A6E700BF2DE9F04F36
:1055700090F8333085B09C07064601920AD496F81D
:10558000323043F0010386F832304FF0FF3005B07F
:10559000BDE8F08F1A078A4600F11281019B002BAB
:1055A00000F022813146F1E80623DDF80480039102
:1055B0009346306AB569D0F830445B461C40C4F36A
:1055C00008094CBB002D00F0BE8096F833305B0616
:1055D00040F1DD80D6E9022390F83D740937FFB22F
:1055E00012F1FF3243F1FF33C7F1200E03FA0EFE32
:1055F00022FA07F1203F23FA07F741EA0E01F36987
:1056000039430B449D42C0F0B5803046FFF71AFC89
:105610000028B4D0306AB569D0F8247490F83DE41D
:10562000640A023DE11905FA0EF52944B9F1000FAB
:1056300040F08280B8F5007F57D2D6E90423D6E93E
:105640000045B8F5007F474628BF4FF400779D42DC
:1056500008BF944234BF0122032200F50370FFF714
:105660001BF900288BD048443A465146B94403F010
:1056700089FCB9F5007F00F0928038460021D6E918
:105680000023D6E9044512EB000B43EB010C654502
:105690005A46634608BF5C45BA44C7EB0808C6E9EA
:1056A000002309D296F8331064465B46C6E90434F9
:1056B00061F07F0186F83310B8F1000F7FF479AF05
:1056C0005A466346D6E90201994208BF90427FD309
:1056D000474B1B68002B00F0858096F8333001980B
:1056E00063F07F0386F8333051E7B8F5806F2ED32F
:1056F000012303FA0EFEC4EB0E0ED0F814324FEA6B
:105700005824744528BF744699424FEA442709D863
:1057100062189A4206D900F503700291FFF7B6F8B5
:10572000306A0299D0F83804056823465246EC697D
:10573000A0470028A1D122E7C9F50077474528BF37
:105740004746012289E7F569BDB1B56164E7D0F844
:10575000143299422CD0D0F83804036852469B6921
:10576000984700283FF40BAF4FF4007000214FF42E
:10577000007784E70135B5614EE73046FFF762FBFD
:1057800000283FF4FCAEB569F561306A44E729466C
:10579000039AFFF76BFA00287FF43CAF35E7306AD5
:1057A00000F50370FFF7D8F800287FF466AFE6E64F
:1057B00000F503700291FFF769F8306A0299CAE7B1
:1057C000D0E90423FEF740FD00283FF4D8AEE5E61B
:1057D00096F83310019861F07F01C6E9022386F83C
:1057E0003310D4E60198D2E6D6E900236AE700BF79
:1057F000A81EFF1F38B504460D462422002106F0DE
:10580000B5FAA560EB79102B08D0202B04D14023EA
:1058100001202370A07038BD002038BD2023012056
:105820002370A07038BD00BF024638B552F8105F33
:1058300004462946806800F019FF50B155B123692C
:105840000135AB42A37818BF03F0BF0363F07F03B9
:10585000A37038BDA37843F04003F7E72DE9F0418A
:10586000037803F020032BB903F0FF0441691F4BB9
:10587000994203D900263046BDE8F0810546FFF77E
:10588000D3FF06460028F5D02969A86800F07CFE01
:105890000746A86839462830052200F03DFE8046BC
:1058A0000028E7D04FF40072214606F05FFAAB689B
:1058B0001A79012A10D9012403E0AB681A79A242AF
:1058C0000AD918680368E1199B6942469847013470
:1058D000E4B20028F1D1CDE79B7969694FF40072F9
:1058E00002FA03F311FA83F36B61C4E7FFFD1F00B3
:1058F00010B5044680680A462830A16900F00CFE05
:1059000020B1A38803F00F0300EB431010BD00BFCC
:1059100070B590F90230002B82B0044619DBA568FF
:1059200005F1280000F028FE30B9637843F0010348
:105930006370002002B070BD05F50D7000F01CFE14
:105940000028F2D0286803685B6998470028ECD0EB
:10595000F0E70121FFF7CCFF05460028E5D00378EA
:10596000E52BE2D023780E4A1B0744BFE369C361ED
:10597000236A166843831B0C838266B10DF1030210
:105980000DF1060101A8B047BDF80430BDF80620AE
:105990002B836B82EA82A37803F07F03A370BEE7B8
:1059A000A81EFF1F10B50378044623B900232370F7
:1059B000A370012010BDFFF7ABFF00232370A3707D
:1059C00010BD00BF2DE9F0430D7815F0700F89B0C0
:1059D00003D1002009B0BDE8F08340F6022304465D
:1059E0000D4601F06FFA0028F3D001221023A270B7
:1059F00023702046FFF732FF0028EAD0237822697F
:105A00002262002B75D101212046FFF771FF064667
:105A10000028DED01023C37282687168F3680068C2
:105A2000B6F81480B6F81A906F460FC77169B2695C
:105A3000F369306908AE0FC72E2306F8203D0DF13B
:105A40000A013346202203F8012F9942FBD1216A33
:105A5000A06800F099FDA3680146012203F1280027
:105A600000F05AFD86460028B3D03746ADF81480C2
:105A7000ADF81A900FCFCEF80000CEF80410CEF893
:105A80000820CEF80C300FCFCEF81000CEF814104E
:105A9000CEF81820CEF81C302B6AADF81A302E2222
:105AA0001B0C3546ADF814308DF801200FCD0EF1EA
:105AB0002006CEF820007160B260F3600FCD306137
:105AC0007161B261F361A46804F1280000F054FD33
:105AD00000283FF47EAF04F50D7000F04DFD002866
