:0200000460009A
:100000004643464200000156000000000101020084
:1000100000000000000000000000000000000000E0
:1000200000000000000000000000000000000000D0
:1000300000000000000000000000000000000000C0
:1000400000000000010403000000000000000000A8
:100050000000200000000000000000000000000080
:100060000000000000000000000000000000000090
:100070000000000000000000000000000000000080
:10008000EB04180A063204260000000000000000FD
:10009000050404240000000000000000000000002F
:1000A0000000000000000000000000000000000050
:1000B0000604000000000000000000000000000036
:1000C0000000000000000000000000000000000030
:1000D00020041808000000000000000000000000DC
:1000E0000000000000000000000000000000000010
:1000F0000000000000000000000000000000000000
:10010000D8041808000000000000000000000000F3
:100110000204180804200000000000000000000095
:1001200000000000000000000000000000000000CF
:10013000600400000000000000000000000000005B
:1001400000000000000000000000000000000000AF
:10015000000000000000000000000000000000009F
:10016000000000000000000000000000000000008F
:10017000000000000000000000000000000000007F
:10018000000000000000000000000000000000006F
:10019000000000000000000000000000000000005F
:1001A000000000000000000000000000000000004F
:1001B000000000000000000000000000000000003F
:1001C000000100000010000001000000000000001D
:1001D000000001000000000000000000000000001E
:1001E000000000000000000000000000000000000F
:1001F00000000000000000000000000000000000FF
:10020000FFFFFFFFFFFFFFFFFFFFFFFFFFFFFFFFFE
:10021000FFFFFFFFFFFFFFFFFFFFFFFFFFFFFFFFEE
:10100000D10020402C100060000000000000000013
:1010100020100060001000600000000000000000D0
:1010200000000060301901000000000000000120F5
:1010300035100060744B4FF42A01744A74485A64A6
:101040001864744A99639546734A74498A420FD06A
:10105000734B9A420CD2D4430846234423F0030333
:1010600004330B4450F8041B984242F8041BF9D196
:101070006C4A6D498A420FD06C4B9A420CD2D443D1
:101080000846234423F0030304330B4450F8041BA5
:10109000984242F8041BF9D1654A664B9A420BD23A
:1010A000D04311460024034423F0030304331344C4
:1010B00041F8044B8B42FBD15F4A4FF470015F4B08
:1010C000116003F530715E4A43F8042F9942FBD159
:1010D0005C4B80215C4A03F8011B9342FBD15B4CC3
:1010E0004FF080375A4E4FF0FF32DFF8A4A10025B1
:1010F000DFF8A091DFF8A081564B4349C3F800A068
:10110000C4F80471C4F80091C4F8F470C4F8F08015
:10111000F36923F07F0343F04003F361736A23F024
:101120007F0343F0400373628A66CA660A674A67B0
:1011300000F0B4F8484A6320484B49491060032244
:101140001D60CAF8381043F8082C4649464A4748FB
:10115000C3F8082D0B68464A43F08073CAF83C0078
:1011600044480B601368444943F00103136003686B
:101170000B6000F0F3F8C4F804714048C4F8009123
:10118000C4F8F470C4F8F08000F0F2FA00BF00BFB9
:1011900000BF00BFF16E3A4A41F44051394BF1664D
:1011A0001560C2F80851C2F81851C2F82851C2F8A7
:1011B00038519A6BD20708D442F615623249596504
:1011C0001A659A6B42F001029A632E4A2F4C93687B
:1011D00043F00113936000F0E3FA2368132BFCD96A
:1011E00000F0EEF800F062F900F0CEFA00F08AF9B3
:1011F00000F0BAFA2368B3F5967FFBD300F0BCFA8F
:1012000000F0BEFAFEE700BF00C00A40AFAAAAAADB
:10121000070020000000072000000000C017006049
:10122000D0EE0000000000209C060160A01200200B
:10123000A01200204063002088ED00E0FC4B00205D
:101240004584000000E400E0A0E400E000800D40E0
:1012500000C00F4008ED00E014E000E018E000E0FE
:10126000059F0000FCED00E00000202009A0000028
:10127000001000E0041000E01C4A0020007B9A17D8
:101280000040084000400D400000C056244A0020A5
:10129000004C00201B1018200C0D1113F0B51D4A36
:1012A00000211D4B4FF0100E1C4801241C4F1D4EF9
:1012B0001D4D0160C2F800E01F6016601B4F1D60ED
:1012C0001B4E1C4D17601E601B4F15601B4E1C4DA6
:1012D0001F6016601B4F1D601B4E1C4D17601E606B
:1012E0001B4F15601B4E1C4D1F6016601D60046077
:1012F000BFF34F8FBFF36F8FC3F8B011BFF34F8FA2
:10130000BFF36F8F52F8883C43F4403342F8883C77
:10131000F0BD00BF9CED00E0A0ED00E094ED00E02A
:101320002500080311002000210002071200002000
:10133000250008131300202027000B131400004081
:1013400033001013150000602F000B07160000700B
:1013500035000B07170000702F000B03F0B4174A7D
:1013600040274FF480314FF480564FF400554FF42E
:10137000404443F24200136913F0020F06D0946117
:1013800051619061136913F0020FF8D113F4005FFB
:1013900001D15561EFE713F4805F01D15661EAE7AF
:1013A000002BE8DA13F4803F01D09161E3E75B069C
:1013B00001D45761DFE7F0BC704700BF00800D40EB
:1013C000304B40F6617270B5C3F8202140F20445FD
:1013D00000F0EAF92C492D48D1F880202C4C42F03D
:1013E00003022C4BC1F88020C0F8605122681340E2
:1013F0001BB9D0F8A8319A071AD0244B4FF00041FE
:10140000234A51631A46D3F8401141F00201C3F850
:101410004011D2F840319B07FBD44FF400301E49F5
:101420001B4B4FF00042086019209A6300F0B4F99A
:101430001A4D0022164B4FF08041144C0A26996336
:1014400028461A601146C4F8A8614FF4407200F0B3
:101450009FF94FF481064FF4800040F24313104A85
:1014600010492E602864C4F85851C2F80412C4F818
:1014700048310D4A4FF4003101231160C4F8403166
:1014800070BD00BF00800D4000C00F4000002E4026
:1014900000900D40001C1E008CE200E00060002067
:1014A000004C00205D9000000CE100E0114B12495F
:1014B000D86E0A4640F4403030B4D86640F2B76582
:1014C000D86EA02440F44070D8664D648C64936C50
:1014D0001B06FCD4094B40F2B760A0211A465864A1
:1014E0009964936C13F08003FBD1054A137030BCF0
:1014F000704700BF00C00F4000400C4000800C400F
:10150000284A00203B4AF3EE096A3B490020136851
:10151000F0B523F001030324DFF800E11360C2F803
:101520009040D1F8E030354FDDB2C3F30B24344E98
:10153000C4EB135307EE905AA5F15501CEF80050B5
:10154000B8EEE77A03EB830507EE904A03FB01F15F
:101550003B6003EB8313B8EEE75A07EE901A491B82
:1015600077EE666AB8EE677A264D07EE901A0B445E
:10157000C5ED006AF8EE677A3460C7EE265A224E4F
:1015800015682249224C87EEA66A07EE903A214B55
:10159000C6F84031F8EE677A87EEA67A75EE855A7E
:1015A00076EE056AFCEEE55AFCEEE66A15EE903A38
:1015B00045EA035316EE905A77EE057A136001EA76
:1015C0000541D2F81031FCEEE77A0B43C2F8103136
:1015D00017EE903AD2F81011C3F30B030B43C2F885
:1015E0001031136843F00203136020700A4B01228C
:1015F0001A60F0BD80810D4000441F40344A002035
:10160000384A0020304A0020004C00200000FF0F24
:1016100040E400E05D99000008E100E02C4A002071
:1016200008034D00540050002E035400650065006F
:101630006E007300790020004D005400500020001F
:101640004400690073006B002F00530065007200B6
:10165000690061006C00000018035400650065001B
:101660006E00730079006400750069006E006F0001
:101670000403090409026900030100C032080B01D8
:101680000202020100090401000102020100052416
:1016900000100105240101010424020605240601AD
:1016A000020705820310001009040200020A00006C
:1016B00000070503024000000705830240000009FF
:1016C000040300030601010007058402400000072F
:1016D000050402400000070585031000010000001A
:1016E00009026900030100C032080B010202020175
:1016F0000009040100010202010005240010010597
:1017000024010101042402060524060102070582C2
:101710000310001009040200020A0000000705037C
:10172000020002000705830200020009040300030F
:1017300006010100070584020002000705040200FB
:101740000200070585031000010000000A060002E0
:10175000EF0201400100FFFFF8B500BFF8BC08BC74
:101760009E467047FFFFFFFF5FF800F061840000B6
:101770005FF800F0618C00005FF800F0B5AD00008C
:101780005FF800F0919D00005FF800F08199000083
:101790005FF800F08DB500005FF800F02D980000B4
:1017A0005FF800F05D8400005FF800F0E99C000045
:1017B000450000007D020000B55B0000FFFFFFFF59
:1017C0000000000000000000000000000000000019
:1017D0000000000000000000000000000000000009
:1017E00010B5054C237833B9044B13B10448AFF35B
:1017F00000800123237010BDA01200200000000013
:10180000D4EE0000084B10B51BB108490848AFF3EF
:1018100000800848036803B910BD074B002BFBD0BC
:10182000BDE81040184700BF00000000A4120020CF
:10183000D4EE0000A012002000000000002070473D
:1018400038B504460A4B0B4DB43040F8B43CC4F8EC
:10185000A45003F0ABFB656504F1640003F0A6FB44
:10186000656004F1140003F0A1FB204638BD00BF01
:101870002C01002008000020836C13B1184602F0F0
:101880007BBBC06C08B101F0ABBA7047836C13B17D
:10189000184602F01DB9C06C08B100F0EFBA4FF065
:1018A000FF307047836C00B583B063B118460122E6
:1018B0000DF1070102F042F801280CD19DF8070054
:1018C00003B05DF804FBC06C28B101220DF10701E3
:1018D00000F000FAF0E74FF0FF30F1E7826C62B100
:1018E000137803F0080303F0FF000BB3D3695069CA
:1018F000181A48BF6FF000407047C16CC9B191F829
:10190000313003F0080303F0FF008BB1D1E9042369
:10191000D1E9000130B4101A4FF000056FF0004417
:1019200063EB01018D4208BF844200D2204630BCE7
:1019300070470846704700BF00B5836C83B08DF8D0
:10194000071043B1184601220DF1070102F01AFBFE
:1019500003B05DF804FBC06C0028F9D001220DF142
:10196000070101F047FC03B05DF804FB836C13B181
:10197000184602F007BBC06C08B101F03BBC7047D1
:1019800010B504460BF0BCFC0146204608F0C6FC2E
:10199000034809F043FF034A034B12681A6010BD65
:1019A000E8080020244A0020BC12002070B510492D
:1019B00040F6B7300F4A104C104E0B78A3B1237885
:1019C000DB0711D5136835685B1B0E2B0CD907F0AC
:1019D000E1FF05F06DFC0821094808F09FFC09486B
:1019E000BDE8704009F01ABF13688342E5D9EEE7FD
:1019F000184A0020244A002048490020C84E0020F0
:101A000048000020E808002008B5084807F0A6F8BC
:101A1000074B084A1B6812689B1AB3F57A7F00D8F7
:101A200008BD0548BDE80840FFF7AABFE013002045
:101A3000244A0020BC12002054000020F8B52049A0
:101A40000025204C4FF47A761F4B6FF001071F4A98
:101A50002046216063601E496365C4F8A430257286
:101A60002574E564256584F8585084F86050C4F8FE
:101A70009C50C4F8A05084F8A85084F8B050C4F822
:101A8000EC50C4F8F050E660E665C4F8AC60C4F809
:101A9000F870C4F8F450C4F8FC5084F8005184F88D
:101AA000015109F039FF0B4B42F2204042F2244130
:101AB00042F228421C601D505D549D50F8BD00BF8D
:101AC0002C010020C01200202C0000205008002013
:101AD00081000000E013002070B5044608460D4662
:101AE0000BF00EFC23680246294620465B68BDE8E1
:101AF0007040184710B5044601F072F9002384F8CD
:101B0000313084F8333010BD2DE9F04300F1240367
:101B100085B00646884615460DF1040990F8314017
:101B200093E8070089E80700002C38D096F8303099
:101B3000012B3BD901270024012F4946306A0CBFF5
:101B40004022202200F0A6FE012828D1002249468A
:101B5000306A00F083FE10B30378C12B1FD108EB6D
:101B60000401224600F11E0E01343F23AC420FD285
:101B700030F8022F7E2A98BFD3B27045224601F872
:101B8000013BF1D1013796F83030FFB2BB42D3D8D8
:101B90000023104608F8023005B0BDE8F0830023AA
:101BA000184688F8003005B0BDE8F0830022EFE762
:101BB00090F831200AB10020704738B50D46114623
:101BC000382204460BF0C2F840230120256284F835
:101BD000313084F8330038BD2DE9F04108782028F1
:101BE00003D111F8010F2028FBD0516008782F286D
:101BF00064D0002862D05C2825D0A0F12204E4B291
:101C00001A2C23D94D1C0026DFF8C4E003E01A2C5F
:101C10002EFA04F722D9A0F13E040136A0F1200CDF
:101C2000A846012C37460ED97C280CD0BCF15E0F9B
:101C300009D815F8010BA0F12204A0B12F28E4B2B5
:101C400011D05C28E3D10020BDE8F081204D25FAB9
:101C500004F4E507D6D50020BDE8F081FC07DAD50D
:101C60000020BDE8F0812F2801D0202823D1701C4E
:101C70000844054610F8014B202CFAD02F2CF8D040
:101C80001D609EB10F4417F8013C202B01D02E2B74
:101C90000AD1731E19441E464BB111F8010D013BC8
:101CA0002E28F8D02028F6D0FF2ECCDC3346136047
:101CB0000120BDE8F081C3F80080E3E7202801D0CF
:101CC0002F2802D100273E46D1E719600023EEE716
:101CD000010100052DE9F04F90F8333083B0044640
:101CE000DD0740F1B18058060D46164640F1B78039
:101CF000D4E90001D4E9042310EB060841F10009FE
:101D00004B4508BF4245C0F0B080002E00F0AF80C8
:101D1000A246B04640F2FF19FAE8062351E0134309
:101D20006ED194F831305A064CBFD0F82C14E169CA
:101D3000A16102397F0A90F83DC4C845D0F8242437
:101D400001FA0CFE07EB0201714444D9BBF1000F0C
:101D500041D1D0F8142291423DD0B8F5806F56D3CE
:101D60004FF0010E4FEA58230EFA0CFCC7EB0C0E95
:101D70001F46734528BF774691424FEA472B0BD841
:101D8000CB19934208D900F50370019100F01CFCB7
:101D9000002859D0206A0199D0F838043B462A46D9
:101DA0000768FF68B84700284ED0584600215D44B8
:101DB000D4E9002312184B41B8EB0B08C4E9002307
:101DC00055D0206AD0F830741740C7F3080B002FA5
:101DD000A5D0A169ADE700F50370002200F094FBE7
:101DE00090B3CBF5007300EB0B012846434528BFA9
:101DF00043469B461A4607F06BFE00215846D6E73D
:101E000094F833305B060FD5A169013190E7D0F823
:101E100038042A4603689B689847A8B14FF40070BD
:101E200000214FF4007BC2E75246A16900F05EFD3D
:101E300040B2002808DB02D0206AA16979E794F853
:101E4000313013F0500F14D194F832304FF0FF308E
:101E500043F0020384F8323003B0BDE8F08F94F809
:101E6000313019073FF544AF4FE7161A4DE74FF0F1
:101E70000008C8EB060003B0BDE8F08FF0B583B0F2
:101E80000122044685690DF10701D0E90067FFF7DB
:101E900021FF0128A5610CBF9DF807004FF0FF301E
:101EA000C4E9006703B0F0BD2DE9F04F90F831E0D0
:101EB00085B004468569BEF1000F36D016461F4630
:101EC000D0E90001994208BF904265D056EA070365
:101ED00030D10023A3610120C4E9006705B0BDE84B
:101EE000F08F10F1FF3241F1FF3322FA0CFC03FABC
:101EF00008F823FA0AFA50EA01034CEA080C4CEA03
:101F00000A0C4BD0E34549D3CCEB0B0BA94604F1AB
:101F100018085D464246002DDDD0A169013D206ACA
:101F200000F0E4FC0028F5D14D460020A56105B085
:101F3000BDE8F08F1EF0080F27D1236A16F1FF3895
:101F400093F83DC447F1FF39C24603930CF1090CE5
:101F5000CB4694F833905FFA8CFC19F0400FCCF12B
:101F600020082AFA0CF2CDE900AB019BACF1200A63
:101F700003FA08FB23FA0AF342EA0B0242EA030BD4
:101F8000AFD0E3695B44A361A5E7D4E90423BB4276
:101F900008BFB242C9D3D0E70120C8E71EF0400F06
:101FA00002D1E369A361B1E7039BD3F82C34F9E7CD
:101FB0002DE9F04F9A4693B090F8313005460092E3
:101FC0002BB991F831300E4613F0500F08D1002391
:101FD000184685F8313085F8333013B0BDE8F08FFE
:101FE0001C9B03F00303012B06D0022B00F0098198
:101FF000002BECD1012300E002231C9A02F008021E
:1020000013430193009B002B00F0FD801846002233
:10201000514600F0FFFC96F8313002904BB1D6E902
:102020000023134305D0002100220023B161C6E93B
:1020300000230AF10E03B8494FF0000981FB032188
:10204000DA174C464F460B44C2EBE303DBB2039373
:1020500002335FFA83FB20220AA93046FFF73AFEDB
:1020600000283DD02028B2D19DF828301A0666D429
:10207000002C61D13268B169203A0791089201348D
:10208000E4B26BB3C02B00F09380C12B62D0852BE0
:10209000E1D13822002128460AF058FE9DF82C3064
:1020A0009DF82920D806304685F8302003F0370205
:1020B00058BF42F0080285F831203368316AB269AE
:1020C000203B29620AA96A622022AB6296F833306B
:1020D000C3F3801385F82C30FFF7FCFD0028C1D135
:1020E0001C9B99057FF573AF019B9A077FF56FAF36
:1020F000009B002B3FF46BAF5C450CD386E020289F
:102100007FF465AF24B93268B169203A079108922B
:10211000DCB2A3457AD920220AA93046FFF7DAFDBE
:10212000631C0028EBD13046B76900F089FE002817
:102130003FF44DAFB761ECE75C45A2D29FE7B9F140
:10214000000F9FD15C4538BF0024852B83D14FF011
:1021500001099EE7C7EB0A083A4600990AA85FFA08
:1021600088F8B8F10F0F28BF4FF00F08434600F072
:102170006FFC00283CD04744FFB2BA457FF46BAFF8
:102180001C9B1B053FF523AF1C9B13F4884F40F0AD
:10219000A08095F833309F0700F19B801C9B5B0566
:1021A0003FF515AF1C9B580400F1B880012014E7DF
:1021B0009DF82930019A990785F8332003D542F01C
:1021C000400385F833300F99DDE90C23E961C5E957
:1021D0000423DDE91001009BC5E90201002BCFD0EB
:1021E0009DF82B30534505D04FF000094F4632E79C
:1021F000814630E7BDF82C30029A9342F4D1002793
:1022000029E70323F9E6009B029312E796F833309F
:10221000002138222846C3F380130F460DF11C0815
:1022200005F124048DF824300AF090FD039A336AF6
:102230000AF11E0602F1010908222B62F6B285F8A6
:1022400031205FFA89F9CDF80CA0DDF800A098E8FC
:10225000070084E8070018460122414600F0FEFA14
:10226000044600283FF4B3AE90F90030002BFFF68F
:10227000AEAE202200210AF069FD002F67D0012FA9
:1022800055D0C7EB07130F2E4FF0C1013246A3F113
:102290001E0328BF0F222170DBB252B1023412B2EA
:1022A000534404EB420213F8011B24F8021BA24220
:1022B000F9D10137FFB2BB4529D920224146286A0E
:1022C00000F0E8FA01287FF482AE0F3E286AF6B2E9
:1022D000C2E795F8313013F0110F7FF478AE1C9BF4
:1022E0005E057FF55FAF95F833309C077FF56FAEE5
:1022F000002200232846FFF7D7FD00283FF467AEF1
:10230000284600F005FF00283FF461AE4EE728465E
:1023100000F066FD61E600BF898888882846D5E917
:102320000423FFF7C1FD00287FF440AF4FE6019B77
:10233000C021032263F03F032170627085F83330BF
:102340009DF80C30E370BDF80830A380B1E7852319
:1023500023700C4B85F8309084F801901B68002B9B
:10236000A7D00DF117020DF11A0106A898479DF8A4
:102370001710BDF81A20BDF818302175228163812D
:1023800097E700BF203800202DE9F043064695B0BE
:1023900000200D4696F8311003928DF849008DF813
:1023A0004A008DF84B0029B9994695F8313013F061
:1023B000500F03D1002015B0BDE8F0831378144608
:1023C0002F2B35D04FF00008214603AB04AA30462E
:1023D000FFF702FC0028EDD0039B1B78002B3CD0BC
:1023E0009DF810302946059A3046CDF80080FFF759
:1023F000DFFD0028DED0344606AF06F1300E20683F
:10240000103454F80C1C3D4654F8082C103754F87E
:10241000043C74450FC5F2D1206806AD38603046E3
:1024200000F0DEFC86F8318086F83380039CCBE731
:102430000134039421782F29FAD0D1B106A838228B
:1024400000212F6A05460AF081FC402201230E97E5
:102450008DF849208DF84B30B4E79DF810302946AF
:10246000059A3046CDF80090FFF7A2FD15B0BDE803
:10247000F083382230462C6A0AF068FC40230120A1
:10248000346286F8313086F8330094E719B101F5EB
:102490008861FFF779BF0846704700BF90F8313078
:1024A00053B930B591F8314083B00D4614F0500463
:1024B00004D1204603B030BD00207047D5E9004567
:1024C000002504F01F042C4302D0184603B030BD91
:1024D00000921A46FFF76CFD03B030BD10B50446FC
:1024E0004068036804F10C02A1689B69984718B121
:1024F000237823F00103237010BD00BF00224FF0AA
:10250000FF33027083607047F8B54368FBB183689E
:10251000044615460F468B420ED00378DA0712D4D4
:10252000AB0716D504F10C06002205F00105304674
:10253000A76015432570F8BD10F90C2B05F00105B7
:1025400015432570F8BDFFF7C9FF0028E8D100202A
:10255000F8BD606804F10C063946036832469B6892
:1025600098470028E0D1F2E738B50C46D0F81C14A3
:10257000154600F50370002201EBD411FFF7C4FFEC
:1025800040B1A400C4F3080403595A1C04D02B60C2
:10259000012038BDFF2038BD002038BD38B50C46BD
:1025A000D0F81C14154600F50370012201EBD4117C
:1025B000FFF7AAFF034628B1A4000120C4F30804D2
:1025C0001D5138BD38BD00BF0378DB0701D40120A1
:1025D0007047FFF783BF00BF2DE9F84F8046914653
:1025E0008B46002943D08F1ED8F828349F423AD218
:1025F00007F007050123C7F3C80A03FA05F5EDB292
:102600003E463C46D8F824140022404601EB1431E3
:10261000FFF77AFFC0B110F80A100AE04A4529D046
:10262000A74210D0D8F82824944216D213F0FF0500
:102630000CD001340D424FEA4503A4EB0602EDD065
:10264000A7422646EED10120BDE8F88F0AF1010A23
:102650000125BAF5007FDED101E0002634464FF0B7
:10266000000A0125CEE700270125BA46C8E7D0F8C1
:102670001874B9E7BBF1000F04D1B9F1010F08BF1D
:10268000C8F81864B01CBDE8F88F00BF2DE9F04110
:10269000002304464FF0FF3600F503771546C0F8D7
:1026A000381441601A46C4F810123846194684F8A6
:1026B0003C34237084F80C32A660C4F81462FFF72F
:1026C00023FF042D0DD8064658B16DB905222949BE
:1026D000F01C0AF083FE034618B996F86C20092A0C
:1026E0001AD00020BDE8F0816B1E00EB031393F8B5
:1026F000BE2112F07F02F4D193F8C231002BF0D04A
:1027000000EB05153846D5F8B6512946FFF7FCFE13
:1027100006460028DAD1E4E7326D4FF001080146A1
:10272000204602EB050E4246C4F81CE4776DC4F85F
:102730002074B76D3D44C4F82454F56DC4F8285492
:10274000356EC4F82C5496F86D50C4F8183405F161
:10275000090384F83D5408FA03F35D1EC4F83434C9
:10276000C4F83054FFF738FF4023404684F83C3427
:10277000BDE8F0815C0000202DE9F04702391546E4
:102780009A46D0F828244B19934238D88046BAF19B
:10279000000F37D1D0F81834994238BFC0F8181458
:1027A00001F007040122D8F82434C1F3C80602FA64
:1027B00004F403EB1139E4B2012249464046914446
:1027C000FFF7A2FED8B1871900F5007017F8012BAA
:1027D000224282EA04024FEA440414BF0126002682
:1027E00056450CD0013D07F8012C17D014F0FF041A
:1027F000EED1874226464FF00104E7D1DCE7002006
:10280000BDE8F087D0F818048342C9D98142C7D8FF
:10281000934228BF0023C8F81834C1E70120BDE85F
:10282000F08700BF70B582B00546002402AE46F8BE
:10283000041DD5F8283401990133994202D90020AA
:1028400002B070BD32462846FFF78EFE013440B21A
:102850000028F4DBEDD1204602B070BD70B50E4605
:102860000446D0F8305400F50370496833682940B5
:10287000D4F82454023B94F83D4405EB5121A34085
:102880001944FFF741FE18B17368C3F308031844F5
:1028900070BD00BF70B54C680D46D0F830340646A8
:1028A000A1181C40696090F83D3422440933DBB222
:1028B00022FA03F43CB12B7A3BB12B6801332B6035
:1028C000013C002CF7D1012070BDD6F828342968CE
:1028D0000133994202D94FF0FF3070BD2A4630468D
:1028E000FFF742FE40B20128EAD070BDD0F828348C
:1028F00001338B4201D2FF207047FFF735BE00BF86
:1029000001290DD9D0F828340133994210B403D9E4
:1029100000205DF8044B70475DF8044BFFF73EBEA6
:1029200000207047F0B50C4683B005460F46D5F839
:10293000283401339C4202D9002003B0F0BD214667
:1029400001AA2846FFF710FE012C46B22146284670
:10295000F2D9F20FF0D1D5F8283401339C42EBD8EC
:10296000FFF71CFE394600230028E5D0621C2846EC
:10297000019C0EB1A242DAD0D21BFFF7FDFE002867
:10298000DAD0019C002ED8D02746D0E72DE9F843B5
:1029900000248046D0F8246400F5037725463146AC
:1029A000002238460136FFF7AFFD28B300F1FF3EA5
:1029B000D8F828C405F580591EF8010FFF2813D058
:1029C00048B10822012318424FEA430118BF0134DD
:1029D000013ACBB2F7D10835AC4509D94D45DED027
:1029E0001EF8010FFF28EBD108350834AC45F5D8A7
:1029F000C4EB0C00BDE8F883BDE8F88310B50446CD
:102A0000D0F82C14FFF70EFF94F83D340933DBB2F5
:102A1000984010BDD1B1014430B410F8014BD3033C
:102A200043EA5202A4F16103A4F12005192B98BFD7
:102A3000ECB2814214FA82F292B24FEAC23343EA14
:102A4000520292B2E9D1104630BC7047104670472E
:102A50004BB370B444887E2C1FD8134402300A4410
:102A6000194412F8013BE4B2A3F16106A4F1610537
:102A7000192E94BF20260026192DA3EB060394BF20
:102A800020250025DBB2641BE4B29C4205D18A42BA
:102A900006D030F8024F7E2CE3D9002070BC70477E
:102AA000012070BC70470120704700BF8169F8B5F4
:102AB0000446006A01B101310122FFF78DFD0128B2
:102AC00006462ED901230146206A1A46FFF754FE16
:102AD000074630B3A3693BB394F83320510612D5AF
:102AE000591C8E4226D022F04002E16984F833203E
:102AF00005E0206AFFF704FF294690B1A3694D1C49
:102B000099422A46F5D34FF0FF323146206AFFF74B
:102B1000F7FE30B1A16969B13246206AFFF7F0FED5
:102B200040B900273846F8BD94F8333043F04003ED
:102B300084F83330A6613846F8BD00BF2DE9F04374
:102B400000F1240385B090F83340054601AE93E8C8
:102B5000070086E80700A2071BD5E969E9B9002448
:102B600001223146286A0134FFF778FE88B10378E4
:102B7000E4B203F07F03037095F83030A34231D301
:102B8000002CEDD020223146286AFFF783FE012871
:102B9000E6D0002005B0BDE8F0836306286A1CD5A6
:102BA00090F83D240023D5E90289093218F1FF3855
:102BB000D2B249F1FF39C2F12007A2F1200428FA6C
:102BC00002F209FA07F729FA04F43A4322430132E0
:102BD000FFF7D2FD0028C2D1DBE7FFF7A3FE0028F4
:102BE000BDD1D6E700232C6A85F83130204685F820
:102BF0003330FFF7E9FC0028CBD004F50370FFF772
:102C0000E3FC0028C5D0D4F8380403685B69984712
:102C1000C0E700BF90F83130D90601D400207047DA
:102C200010B5002288B000230446FFF73DF906E006
:102C3000202819D19DF800301A0615D433B120226E
:102C400069462046FFF746F80028F1D194F8333062
:102C50000822204643F0020384F8312084F8333000
:102C6000FFF76CFF08B010BD002008B010BD00BF1A
:102C70002DE9F04F002787B000F1240B06460DF137
:102C80000C08BA463C469BE8070088E8070000228B
:102C90004146306A5FFA87F9FFF7E0FD054630B13B
:102CA0000278C02A5DD0C12A0BD0852A33D096F88D
:102CB0003230002043F0010386F8323007B0BDE81F
:102CC000F08F1346E103A3F18500002241EA54048A
:102CD000B0FA80F0012113FA84F44009A4B20A4446
:102CE000E30303211F2A43EA540309D8AC5C012AF9
:102CF00014FA83F39CB201D10028F0D10121EEE750
:102D0000CA454CD020224146306A0137FFF7C2FD48
:102D10000128BCD0CBE796F83110304B01F03701D9
:102D200090F801A01B688180002BCAD0D6F820C083
:102D30000DF107020DF10A0102A89CF80CE24EF019
:102D4000010E8CF80CE29847BDF80830BDF80A2057
:102D50009DF80710EB816B826975AA812A822B7816
:102D6000B0E796F8333013F0400F437814BF43F0C8
:102D7000020323F002034370306AF169D6E90423A9
:102D80006961C5E90223D6E90223C5E9062390F863
:102D90000C3243F0010380F80C322B7892E759464D
:102DA0000122306AFFF75AFD002880D0356A44803E
:102DB0002846FFF709FC00283FF479AF05F50370BA
:102DC000FFF702FC00283FF472AFD5F8380403681F
:102DD0005B69984700283FF46AAF6FE7203800200E
:102DE00090F8312092B138B590F8332011060FD405
:102DF000056A04462846FFF7E7FB88B994F83230A5
:102E0000002043F0010384F8323038BD01207047C0
:102E100002F07F0280F83320BDE83840FFF728BF7A
:102E200005F50370FFF7D0FB0028E7D0D5F838048C
:102E300003685B6998470028E0D0012038BD00BFD7
:102E40002DE9F04190F831300446590661D480688C
:102E5000236AD3F834341844B0F1806F02D30020D1
:102E6000BDE8F0812046FFF721FE0028F7D0266A52
:102E700096F80C3206F50375DA074ED406F5067699
:102E80002846FFF73BFB4FF400720021304609F063
:102E90005DFF226AA369012792F83D14A3F102089D
:102EA000D2F8243408FA01F8984417FA01F312D042
:102EB0000025D2F8380408EB0501324601350368D5
:102EC0009B6998470028CAD0226A92F83D3407FAD5
:102ED00003F3AB42EDD894F831305B0614D494F888
:102EE0003330002763F07F0384F83330D2F8346442
:102EF000D4E90223D4E9040192197B418019794174
:102F0000C4E90223C4E904012046BDE8F041FFF70B
:102F100067BF006AFFF772FD9AE72846FFF754FB88
:102F20000028ABD19BE700BF91F8313013F0500F70
:102F300001D10020704730B540F6022583B01378E8
:102F4000044652680095FFF733F810B9002003B02B
:102F500030BD1023204684F83130FFF771FF002880
:102F6000F4D0A169002200232046E161FEF79CFF16
:102F7000C123204684F8333003B0BDE83040FFF76A
:102F80002FBF00BF2DE9F043064695B000200C4648
:102F900096F8311003928DF849008DF84A008DF8AB
:102FA0004B0029B9994694F8313013F0500F03D1F2
:102FB000002015B0BDE8F083137811462F2B39D0CF
:102FC0004FF0000803AB04AA3046FEF705FE0028C8
:102FD000EED0039B1B78002B3AD09DF81030214691
:102FE000059A3046CDF80080FEF7E2FF48B9B9F106
:102FF000000FDDD0214604AA3046FFF795FF0028D8
:10300000D6D0344606AF06F1300E2068103454F89E
:103010000C1C3D4654F8082C103754F8043C7445F9
:103020000FC5F2D1206806AC38603046FEF762FD6D
:103030000399C7E7013103910B782F2BFAD0216A4E
:1030400006A8FEF7B5FD0028B2D006AC0399B7E795
:1030500004AA21463046FFF767FF15B0BDE8F083AC
:10306000F0B590F831409DB0002314F0180F8DF8A2
:1030700031308DF832308DF833308DF869308DF87D
:103080006A308DF86B3003D00B6A046A9C4202D020
:1030900000201DB0F0BD044640F601236846FFF74E
:1030A00073F90028F4D0254604F1300E0EAF2868DD
:1030B000103555F80C1C3E4655F8082C103755F8BD
:1030C000043C75450FC6F2D1286809AA04F124030F
:1030D00038609DF8305007CA83E8070094F8333011
:1030E000204684F8305063F07F0384F83330FFF7D4
:1030F00077FE0028CCD00021022208230EA81591CB
:103100008DF86B208DF86930FFF718FDC1E700BF1F
:1031100090F833309A0718D5F0B5C56983B08DB1F2
:1031200003F04003044603F0FF0683B981690029D8
:1031300042D10195C1612946206AFFF7F3FB38BBF4
:10314000002000E0012003B0F0BD00207047006ABD
:10315000A16990F83D24D4E90267093216F1FF36DF
:10316000D2B247F1FF37C2F1200EA2F1200326FAB6
:1031700002F207FA0EFE27FA03F342EA0E021A439E
:103180000132B1B1013D4B1C691A01930A440ABBDB
:1031900094F833302046D4E9006763F07F03C4E934
:1031A000026784F83330C4E90467FFF719FE03B0FF
:1031B000F0BD0195E161EAE702AA006A42F8046DF8
:1031C000FFF794FB40B20028BADB0AD1019D002D25
:1031D000DED0B0E700230199FFF7CEFA0028D7D15F
:1031E000AEE74FF0FF32A169206AFFF789FB0028A4
:1031F000ECD1A5E72DE9F04F90F8333085B00446C7
:103200009D0701920AD494F832304FF0FF3043F01A
:10321000010384F8323005B0BDE8F08F1A07884604
:1032200000F10681019B002B00F016812146019DD3
:103230004FF0010AC146F1E8062393460391206A44
:10324000A169D0F8306406EA0B06C6F3080856BB3D
:10325000002900F0BA8094F833305B0640F1CF804B
:1032600090F83D24E3690932D4E902BCD2B21BF1E3
:10327000FF3BC2F1200EA2F120074CF1FF3C2BFADC
:1032800002F20CFA0EFE2CFA07F742EA0E023A435B
:103290001A449142C0F0B0802046FFF707FC002896
:1032A000B1D0206AA169760A0239D0F8247490F866
:1032B0003D34374499403944B8F1000F59D1B5F540
:1032C000007F56D3B5F5806FC0F083800AFA03F211
:1032D0006F0AD0F81432921B3E46974228BF16461A
:1032E00099424FEA462709D872189A4206D900F542
:1032F00003700291FFF702F9206A0299D0F83804AE
:1033000033464A460668F669B04700283FF47BAF6B
:1033100038460021B944ED1BD4E90023D4E9046701
:1033200012EB000B43EB010C674508BF5E45C4E997
:1033300000BC07D294F8331061F07F01C4E904BCEB
:1033400084F83310002D7FF47AAF5A466346D4E9EF
:103350000201994208BF904272D3414B1B68002B77
:1033600078D094F83330019863F07F0384F83330D9
:1033700051E7B8F1000F26D1D4E90423D4E900675E
:103380009F4208BF964234BF0122032200F503701A
:10339000FFF7BAF800283FF436AFC8F5007740448D
:1033A0004946AF4228BF2F46B8443A4606F090FB44
:1033B000B8F5007FACD1206A00F50370FFF704F97F
:1033C0000028A5D11FE70122E0E7E169F1B1A16181
:1033D00069E7D0F81432994222D0D0F838044A462E
:1033E00003689B69984700283FF40DAF4FF40070C5
:1033F00000214FF400778DE70131A16153E7039A73
:10340000FFF774FA00287FF44CAF45E72046FFF73A
:103410004DFB00283FF4F7AEA169206AE16142E765
:1034200000F503700291FFF769F8206A0299D4E76A
:10343000D0E90423FEF738FD00283FF4E4AEF1E6BE
:1034400094F83310019861F07F01C4E9022384F8F5
:103450003310E0E60198DEE6D4E9002377E700BF09
:103460002038002038B50D4604462422002109F0FA
:103470006DFCA560EB79102B08D0202B04D14023E4
:1034800001202370A07038BD002038BD202301200A
:103490002370A07038BD00BF024638B552F8105FE7
:1034A00004468068294600F031FF50B155B12369C8
:1034B0000135AB42A37818BF03F0BF0363F07F036D
:1034C000A37038BDA37843F04003F7E72DE9F0413E
:1034D000037803F020032BB903F0FF0441691F4B6D
:1034E000994203D900263046BDE8F0810546FFF732
:1034F000D3FF06460028F5D02969A86800F094FE9D
:103500000746A86805223946243000F055FE80465B
:103510000028E7D04FF40072214609F017FCAB6891
:103520001A79012A10D9012404E0AB68E4B21A79AF
:10353000A24209D91868E1194246013403689B691F
:1035400098470028F1D1CDE79B794FF40072696963
:1035500002FA03F311FA83F36B61C4E7FFFD1F0066
:1035600010B5044680680A462430A16900F024FEA4
:1035700020B1A38803F00F0300EB431010BD00BF80
:1035800030B590F9023083B00446002B19DBA568F2
:1035900005F1240000F040FE30B96378002043F0CC
:1035A0000103637003B030BD05F50C7000F034FE0C
:1035B0000028F2D0286803685B6998470028ECD09F
:1035C000F0E70121FFF7CCFF05460028E5D003789E
:1035D000E52BE2D023781B0701D5E369C361236A99
:1035E0000B491A0C6B830B68AA8263B10DF10302BD
:1035F0000DF1060101A89847BDF80430BDF806207A
:103600002B836B82EA82A37803F07F03A370BEE76B
:103610002038002010B50378044623B90023012088
:103620002370A37010BDFFF7ABFF00232370A370BE
:1036300010BD00BF2DE9F0410D7888B015F0700F76
:1036400003D1002008B0BDE8F08140F60223044613
:103650000D4601F09DFA0028F3D0012210232046E8
:10366000A2702370FFF732FF0028EAD02269237886
:103670002262002B7CD101212046FFF771FF074613
:103680000028DED0102300687968EE46FB724FF008
:103690002E0CBA6808AEFB68B7F81480AEE80F00CD
:1036A000BA69FB693869796906F820CD0DF10A0C11
:1036B0007F8BAEE80F003346202203F8012F9C4594
:1036C000FBD1216AA06800F0AFFDA368014601228A
:1036D00003F1240000F070FD86460028B1D0ADF85B
:1036E00014804FF02E08ADF81A7037460FCECEF882
:1036F0000000CEF80410CEF80820CEF80C308DF87B
:1037000001800FCECEF81000CEF81410CEF818209D
:10371000CEF81C302B6A1A0CADF81A30ADF8142014
:103720000FCFCEF82000CEF82410CEF82820CEF807
:103730002C300FCFCEF83000CEF83410CEF8382031
:10374000CEF83C30A46804F1240000F065FD0028A8
:103750003FF477AF04F50C7000F05EFD00283FF4F5
:1037600070AF206803685B6908B0BDE8F041184796
:10377000636933B1A378002223F0200322616261E0
:10378000A3702046FFF7FCFE00283FF45AAF72E713
:103790002DE9F041064692B000200C4631780192A6
:1037A0008DF824008DF825008DF8260021B9984663
:1037B000237813F0700F03D1002012B0BDE8F08120
:1037C000137810462F2B2DD0002701AA03A900F053
:1037D000A9FF03AA214600230028EDD0019D304611
:1037E0002D78002D30D001F0D3F948B9B8F1000F91
:1037F000E2D0214603AA3046FFF71CFF0028DBD0A9
:10380000354609AC96F800E00FCD0FC40FCD2D68FA
:103810000FC42560BEF1000F12D1377009ACB7702C
:103820000198D2E70130019003782F2BFAD0A168DC
:1038300009A8FFF717FE0028BED009AC0198C3E71E
:103840003046FFF79DFEE8E703AA21463046FFF722
:10385000F1FE12B0BDE8F0812DE9F041064692B0CC
:1038600000200D46317801928DF824008DF8250056
:103870008DF8260021B998462B7813F0700F03D1EC
:10388000002012B0BDE8F081137810462F2B29D00C
:10389000002702E001983770B77001AA03A900F071
:1038A00041FF03AA294600230028E9D0019C3046A5
:1038B000247834B301F06CF9354609AC0028DFD028
:1038C00096F800E00FCD0FC40FCDD5F800C009ADBC
:1038D0000FC4C4F800C0BEF1000FDBD03046FFF7C4
:1038E0004FFED7E70130019003782F2BFAD08BB130
:1038F000A96809A8FFF7B6FD0028C1D009AD019855
:10390000C6E7434603AA2946304601F041F912B002
:10391000BDE8F081A9683046FFF7A4FDB1E700BF1C
:1039200019B101F23C41FFF797BF0846704700BF4D
:1039300003780BB100207047FFF794BD2DE9F04FDD
:10394000837883B00546DF0740F18C800F4601780D
:1039500091460E0700F18F808C0608D58268436976
:103960001289C3EB42139BB2994528BF9946B9F11E
:10397000000F00F0A6806B6988064E464FF00008E5
:1039800005F1100AAA68C3F308043ED5116A01EBD9
:103990005321002C50D1B6F5007F4DD3D36A994204
:1039A0004AD0B6F5806F77D328784FEA562B800639
:1039B00005D41079C8EB0000834528BF834699429F
:1039C0004FEA4B240BD85B44994208D202F1240001
:1039D000019100F021FC002844D0AA6801991068E8
:1039E0005B463A46D0F800E0DEF80CB0D847002835
:1039F00038D06B69361B274423446B6161D029782A
:103A0000C3F30804AA688806C0D492F8058008EABF
:103A10005328002C3ED1B8F1000F3BD193BB480690
:103A20004CBF116A296A2961104600F0FDFBAA68A3
:103A300008EB0001002CAED002F12400002200F0BF
:103A4000BBFB78B1C4F5007301193846B34228BFF7
:103A500033461A461C4606F03BF8CAE72B7813F0AB
:103A6000700F2FD16B784FF0FF3043F002036B7073
:103A700003B0BDE8F08FC36942699B1A994528BF1E
:103A8000994674E7090711D5AB785B060ED529690D
:103A90000131C8E72969C7E710683A4603689B689F
:103AA00098470028DED04FF40074A2E71046296939
:103AB000524600F0BFFB0028D4DBCFD0AA682969AA
:103AC000B2E70026C6EB090003B0BDE8F08F00BFE7
:103AD00070B582B00122044646690DF107010569FF
:103AE000FFF72CFF012866610CBF9DF807004FF01F
:103AF000FF30256102B070BD436930B5C3F3431593
:103B000083B00446B5FA85F252098A4207D22033BF
:103B10004361A068303000EB451003B030BD012296
:103B20000DF10701FFF70AFF40B2012803D16369D5
:103B30001F336361EDE70020EFE700BF2DE9F0439D
:103B400005789BB0002415F0180F8DF820408DF8F3
:103B500021408DF822408DF844408DF845408DF885
:103B6000464004D0866803468D68AE4203D00020EC
:103B70001BB0BDE8F0831D4690460E46FFF700FDE2
:103B8000AE4611AFBEE80F000FC7BEE80F00DEF86B
:103B900000E00FC721462846C7F800E0FFF7E0FC29
:103BA00086460028E3D000686F46DEF80410DEF891
:103BB0000820DEF80C3095F800C00FC70CF0080C98
:103BC000DEF81000DEF81410DEF818200CF0FF0903
:103BD000DEF81C300FC7BCF1000F00F095804246A4
:103BE000314640F6012308A8FFF736FE0028BED074
:103BF0000E9A0026BDF824300121AA612846AB8028
:103C00009DF823200B9BEA70EB608DF820608DF807
:103C10002260FFF7A5FC0028A9D01AAB9DF80B2065
:103C200053F85B7DC272D3F804E0C0F80D709F6852
:103C3000C0F811E0C0F81570D3F80CE01F8A9B7C27
:103C4000C0F819E0A0F81D70C377002C3AD02146C7
:103C5000A86800F0E9FAAB680146324603F1240097
:103C600000F0AAFA002882D006466F4656F8200FC8
:103C70007168B268F3680FC730697169B269F36936
:103C80000FC72146A86800F083FB00283FF46FAF00
:103C9000296AA86800F0C8FAAB680146012203F15E
:103CA000240000F089FA074600283FF460AF6C4614
:103CB0000FCC38627962BA62FB620FCC38637963E9
:103CC000BA63FB6300210222082311A819918DF821
:103CD00046208DF8443000F067FE00283FF447AFDF
:103CE000AC6804F1240000F097FA00283FF43FAFDD
:103CF00004F50C7000F090FA00283FF438AF20680B
:103D000003685B69984733E74B464246314608A84B
:103D1000FFF73EFD00283FF42AAF109C68E700BF84
:103D20000378DA061AD5436910B5044633B18378AF
:103D3000002223F0200302614261837001212046AA
:103D4000FFF7DAFE60B103786BB1E52BF6D02E2BCE
:103D5000F4D0C37A1B07F1D4002010BD00207047B7
:103D60006378002BF8D1A3780822204643F00203A1
:103D70002270A370BDE8104000F016BE2DE9F0419E
:103D8000037804460769B3B142690E468A4234D0CB
:103D900041B92161A3780120666123F02003A3705B
:103DA000BDE8F08118070AD499060BD5A3681B89D2
:103DB000B6EB431FEED927610020BDE8F081E16931
:103DC0008E42F8D8D4F808E0501E751E9EF80610F2
:103DD0000931C9B2C840CD4092B1A84210D82D1ABD
:103DE00004F110084246002DD4D02169013DA0689D
:103DF00000F020FA0028F5DCDDE70120BDE8F081C5
:103E00005B064CBFDEF82030236A2361E8E700BF81
:103E10002DE9F0410D4690460021242204461F461C
:103E20009DF8186008F092FFA86808F00F03296A4F
:103E300000F13002A060E16002EB4312A4F80480BC
:103E4000D17A0D0711D401F017012170D37A13F044
:103E5000180F02D141F00801217007F00303E6704A
:103E6000012B08D0022B2AD023B30023237018463D
:103E7000A370BDE8F0810223A370217811F0110F27
:103E8000F3D159B207F4806507F008030B43DBB2A6
:103E9000A370B2F814E0518BC66A41EA0E41A661E4
:103EA00085B1D1B963F07F03A3707B040ED40120E8
:103EB000BDE8F08117F48065D7D10121E4E7032341
:103EC000A370DAE72162D369E361EEE7E169204696
:103ED000FFF754FF0028EAD1C7E700F059FA00289D
:103EE000C3D0A378DEE700BF03781BB90B7813F0CB
:103EF000700F01D1002070472DE9F0474E6982B064
:103F000016F01F0721D191460D468046BA460DE0B6
:103F1000A3F1E502B2FA82F2520982B9C17A11F034
:103F2000080F1DD00F2914D017466E6900212846AE
:103F3000FFF7E2FD48B103783BB12E2BE8D1002713
:103F4000F3E700F041FB50450CD0002002B0BDE883
:103F5000F0875A06E9D503F01F0790F80DA0E4E7B3
:103F6000002FEED100974B46C6F34F12294640462C
:103F7000FFF74EFFEAE700BF03780BB1FFF700BB86
:103F8000012070472DE9F84F837804469D0707D438
:103F900063784FF0FF3043F001036370BDE8F88FA2
:103FA00091461A07884600F1C5806269D343994556
:103FB000EED8B9F1000F43D04E464FF0000B4FF052
:103FC000FF3AA068C2F308072169457915EA52252E
:103FD00074D1002F72D1002942D0A3785B067AD524
:103FE000E369934277D90131216100F01DF9291865
:103FF000B6F5007FC0F0A580B6F5806FA2687BD3D0
:104000001779730AD06A7D1BAB4228BF2B468842C2
:104010004FEA432507D31844884204D982F824B0D4
:10402000C2F82CA0A268106842460768FF69B8472A
:104030000028ADD06269761BA8442A446261C0D1D1
:10404000E3699342C0F08580474B1B68002B00F06A
:104050008880A378484663F07F03A370BDE8F88F9B
:10406000216A002956D0216100F0DEF8B6F5007F04
:104070000146C1D2C7F50075A068B54228BF3546D4
:104080006269E3699A4202D2A3789B0621D5052290
:10409000243000F091F800283FF47AAF38442F44E0
:1040A0002A46414605F014FDB7F5007FC2D1A0684D
:1040B000243000F0B1F80028BCD169E700F0B4F872
:1040C0002918002F94D0C7F50075A068B54228BF05
:1040D00035460122DCE704F1100200F0ABF80028BD
:1040E000FFF656AF05D12046FFF7D6F900283FF47A
:1040F0004FAFA0682169B7E7D36A8B4214D010682C
:10410000424603689B69984700283FF441AF4FF44B
:1041100000758FE72046FFF7BFF900283FF438AF5E
:104120002169A06821629FE782F824B0C2F82CA020
:10413000A268E4E7C169FFF721FE00283FF428AF39
:1041400033E7B6F5007F3546A06828BF4FF4007509
:1041500096E7A3784846E26163F07F03A370BDE869
:10416000F88F4846BDE8F88F203800204368816802
:1041700070B500F10C0604461868324603689B6966
:10418000984740B1237805469A0707D423F00103E6
:104190002846237070BD0025284670BD63683246EE
:1041A000A16818681E69036831449B699847002814
:1041B000F1D02378EAE700BFF8B5836806461446D5
:1041C0008B420FD003780F46DA0712D4630716D557
:1041D00006F10C05002304F003042846B7601C43D5
:1041E0003470F8BD10F90C3B04F003041C43347028
:1041F000F8BDFFF7BBFF0028E8D10020F8BD7368C9
:1042000006F10C05394618682A4603689B689847EA
:104210000028DFD1F1E700BF0378DB0701D40120DC
:104220007047FFF7A3BF00BF837902394069994007
:1042300008447047012932D9C36999422FD870B513
:10424000C379164605460C46202B19D0102B14D1E5
:104250008369C1F30721022200F50C701944FFF7AE
:10426000ABFF50B1E1B230F81130EA69934202D8A5
:104270003360012070BD002070BD4FF0FF3070BD75
:104280008169022200F50C7001EBD411FFF794FF55
:104290000028F2D004F07F0150F82130E5E74FF01C
:1042A000FF30704701291DD938B5C369994206D836
:1042B000C37915460C46202B16D0102B01D00020B8
:1042C00038BD8369C1F3072100F50C70032219443E
:1042D000FFF772FF03460028F1D0E1B2012023F876
:1042E000115038BD002070478169032200F50C7021
:1042F00001EBD411FFF760FF03460028DFD004F084
:104300007F01012043F8215038BD00BF2DE9F04165
:10431000C46882B005460F468C42904635D20C46A2
:1043200000260134EB6901AA28469C42214608D99F
:1043300036BBEC68012601AA284601349C4221467E
:10434000F6D8A7421CD0FFF775FF002818DBE8D08D
:10435000019B002BE5D106B1EC606FF07042214665
:104360002846FFF79FFF064650B117B9C8F800402E
:1043700007E0394628462246FFF794FF0028F5D18A
:104380000026304602B0BDE8F0810126C9E700BF33
:1043900070B5054682B00C4609E0FFF783FF621E48
:1043A00080B1EB689C42019C38BFEA605EB101AA13
:1043B00021462846FFF73EFF061E21464FF0000229
:1043C0002846EADA002002B070BD00BF2DE9F041B6
:1043D000C379C269202B02F1010805D0102B03D04C
:1043E0004FF0FF30BDE8F0818569B8F1000F3DD096
:1043F000064600F50C77002429460222384601358E
:10440000FFF7DAFE0028EBD0F379102B15D0B8F1C6
:104410007F0F27D980210A46013A031F92B200EB91
:10442000820053F8042F02B901348342F9D1B8EB6A
:104430000108E1D12046BDE8F081B8F1FF0F18D89E
:104440001FFA88F341465A1E831E92B200EB4200C7
:1044500033F8022F02B901349842F9D1B8EB0108C0
:10446000CAD1E7E71FFA88F24146D5E74046BDE8E2
:10447000F0814FF480710B46E5E700BFF8B50446C4
:1044800000234FF0FF30012521601646A462C4F8D6
:104490003442E560E37184F8243084F83032E0621D
:1044A000C4F83802DAB1042A01D90020F8BD04F1B9
:1044B00024051A4619462846FFF77EFE6FF0704322
:1044C00000F5DF7133441B01CA180028EDD01079C4
:1044D0000028EAD0CB5C5B06E7D1966801E004F1E6
:1044E0002405284600223146FFF766FE0028DCD06E
:1044F000037C022BD9D1B0F80B30B3F5007FD4D1B7
:10450000427B0025531E012A2271A57163710FD0D1
:104510000125294600E01D4649006B1CC9B2DBB2EB
:104520008A4204D0092BF6D1A5710020F8BDA571EF
:10453000C38A23610BB9436A2361C289B0F8117041
:1045400032447901278102EB4303A26101F2FF119A
:10455000B0F81320236203EB612363619AB1F31A6D
:1045600040F6F471134423FA05F56B1C8D42E361A8
:104570000FD94FF6F4739D4207D9C26A2023012058
:104580002262E371F8BD026AE9E710230120E371BA
:10459000F8BD0C230020E371F8BD00BF04290BD93E
:1045A0000A2905D90C290CD800EB4101C8887047AD
:1045B00000EB41018888704700EB4101B1F8010030
:1045C00070470020704700BF10B404460020621EF0
:1045D0000A34430812F8011F43EAC010944251FA0A
:1045E00080F0C0B2F5D15DF8044B704738B5CB68A8
:1045F00073B10C4624220021054608F0A7FB1023C6
:1046000001202B70A870A268E368AA602B6238BDF5
:104610008968BDE83840FFF78BB900BF2DE9F04F3E
:1046200000238DB01546027889468DF80C308DF840
:104630000D308DF80E30002A64D00C2D8CBF002474
:104640000124002C5ED1C3788046002B61D0414606
:1046500003A8FFF7CBFF002854D098F80330002BB5
:1046600050D001260194B8F8041003A8891B490111
:10467000FFF784FB0746002844D0002103A8FFF77A
:104680003BFA824600283DD0C37A0F2B3AD10378FB
:1046900003F01F039E4235D1731E03EB430403EB6B
:1046A0008404234609EB040204F10D0B191B504648
:1046B000C9B2FFF773FF3F2190B39D4230D97E28E6
:1046C00003F1010398BFC1B29B4502F8011BEDD174
:1046D0005D4507D99AF800305A0603D59DF8043095
:1046E00009F80B3009EB05039DF8042003F8012CB1
:1046F0009AF800305B0608D4013698F80330F6B219
:10470000B342B0D2002789F8007038460DB0BDE83A
:10471000F08F00F03BFC074638460DB0BDE8F08F47
:104720009B46D5E72DE9F04F0378202B03D110F8F5
:10473000013F202BFBD0886003782F2B00F02281D3
:10474000002B00F01F815C2B25D0A3F12204E4B2E2
:104750001A2C23D9461C0025DFF848E203E01A2C66
:104760002EFA04F722D9A3F13E040135A3F1200C5F
:10477000B046012C2F460ED97C2B0CD0BCF15E0F1D
:1047800009D816F8013BA3F122042F2BE4B212D072
:104790008BB15C2BE3D10020BDE8F08F814D25FA71
:1047A00004F4E507D6D50020BDE8F08FFC07DAD584
:1047B0000020BDE8F08F202B02D02F2B40F0DF80AF
:1047C0006B1C03441E4613F8014B202CFAD02F2CEF
:1047D000F8D01660B5B1074417F8013C202B01D082
:1047E0002E2B0AD16B1EC4181D465BB114F8012D87
:1047F000013B2E2AF8D0202AF6D0FF2DCBDC2F4605
:104800006C1E02E04FF0FF342F4601F10C0301F162
:10481000170620224F6003F8012FB342FBD1037823
:104820002E2B02D0202B40F0A6800646002316F83F
:10483000012F01332E2AFAD0202AF8D04FF0000E93
:10484000621C0BD0065D02192E2E04D106E012F870
:10485000016D2E2E02D014F1FF34F8D29D424FF09C
:10486000000940F39C804FF0070C4FF008084E46BB
:10487000CA46C25C202A03D02E2A17D19C4215D0EA
:104880004FF0000E0133AB42F3DB4B7B202B82D089
:10489000BEF1000F57D01AEA090F4FF0010018BF00
:1048A0004FF0020981F80090BDE8F08F222A07D06E
:1048B0007C2A05D0A2F12A07052F14D82D2A12D060
:1048C0009C421CD0664594BF00220122A2BB9646A2
:1048D0005F22771C01EB060BFEB28BF80D20062E33
:1048E000D0D80E73CEE7A2F13A07052FE8D9A2F18E
:1048F0005B07022FE4D9A2F121075D2FE0D89C428B
:104900000AD0664508D8A2F16107192F2CD8203AA1
:1049100048EA0909D2B2DCE7BCF10A0F0FD09C4289
:104920001BD09C420BDB23464FF00A0C08264FF0AD
:1049300010084FF0000EA5E7BCF10A0FF1D14B7B38
:10494000202B3FF428AF0B7B01207E2431220B4427
:1049500008705C739A73BDE8F08F23464FF00A0C21
:1049600008264FF010088DE7A2F14107192FB0D8A3
:1049700048EA0A0AADE74FF0010E002360E7C2F8EB
:10498000008028E72F2B4FF0000701D0202B01D10A
:104990003D4615E710604FF0FF343D4635E7CA4607
:1049A00073E700BF010100052DE9F04182788AB06C
:1049B000002392078DF804308DF805308DF806300D
:1049C00022D5016A054621BB01212846FEF7C8FD14
:1049D000D0B1411E00F10A070024620811F8016FEE
:1049E00042EAC4138F4256FA83F3DCB2F5D14FF09A
:1049F000E508002380F80080AE682B7006F12400E3
:104A0000AB70FFF709FC50B9002630460AB0BDE88C
:104A1000F0818068FFF7BCFC0028D5D1F4E706F5EB
:104A20000C70FFF7F9FB0028EED0306803685B6973
:104A3000984706460028E7D0EB78002BE5D02946BA
:104A400001A8FFF7D3FD0028DED0EB78002BDBD0E8
:104A500001271FE001A8FFF74FF87B1C0028D3D0E7
:104A6000C27A0F2AD0D1027802F01F018F42DFB242
:104A7000CAD1437BA342C7D180F80080A96891F8CE
:104A8000243043F0010381F8243053060CD4EB7832
:104A9000BB42B9D3A98801A8C91B4901FFF76EF928
:104AA00000210028D6D1AFE7AC6804F12400FFF75D
:104AB000B3FB0028A8D004F50C70FFF7ADFB00286D
:104AC000A2D0206803685B69984700289CD09CE7C7
:104AD0002DE9F8430E4604464FF002084FF07E09D8
:104AE0000F7B01F10D057068B16808EB00039BB204
:104AF00048B1084411F8012B03EB4313884283EAC1
:104B000002039BB2F6D1032F28BF03273A1DD2B26E
:104B100003F00F0102F1FF3E1B09092901F13700E3
:104B200098BF01F13000B1185FFA8EF248739742D6
:104B3000EED3F3190021204683F80D90FFF71EF9FC
:104B400001212046FEF7D8FF0B220346B0B190F8B2
:104B500000E001462846BEF1000F15D0DB7A1B07A6
:104B6000EED408F05DF80028EAD108F101081FFA38
:104B700088F8B8F1640FB6D1BDE8F8836078B0FA70
:104B800080F04009BDE8F8830120BDE8F88300BF4C
:104B90002DE9F04F0C788DB014F0700F01D004782F
:104BA0001CB100200DB0BDE8F08F1478D2F804A03D
:104BB000A40748D101274FF000090E46079302F1E0
:104BC0000D03099049463046934604934C46CDF870
:104BD0001890C846CDF80C90CDF81490FFF7CEF899
:104BE000756901213046FEF787FFC5F34F1503466F
:104BF000002800F0B4800278A2F1E501B1FA81F159
:104C00004909002A35D0002933D1BC4238BF0024DD
:104C10002E2A2BD051BBD87A0F285DD0020725D47D
:104C2000B8F1000F40F05C8118460B22049907F0A0
:104C3000F7FF0028D4D19BF80030D80740F16581F8
:104C400001230593CCE70AF10C04B44FA7FB0447FA
:104C5000BF080137FFB2AEE703980138C0B2824205
:104C6000039003D15A7B0698904241D04FF0000840
:104C7000B6E7002C08BFA946BC4201D20134E4B219
:104C8000002AC5D1079A13469A058AD503F0030373
:104C9000013B012B85D8002C08BFA946BC4203D399
:104CA0006AE0DCB2A74267D900213046FEF724FF54
:104CB000631C0028F5D173782BB172E7B368E4B2B6
:104CC0001B79012B58D8A74256D930461034FEF72D
:104CD000FDFB0028F2D164E7B8F1000FBCD151060A
:104CE0007FF57EAF02F01F085A7BCDF80C8006924C
:104CF000039A013A02EB420502EB8505AA452A46D2
:104D0000B4D905F10D01CDF82080884615E0BCF13D
:104D1000190F01F1200098BFC1B2DBF80800825CD6
:104D2000A2F1410002F1200C192898BF5FFA8CF221
:104D30008A429BD1C64572461BD0511B1846C9B248
:104D4000FFF72CFC924502F1010EC1B200F0C180C8
:104D5000FF28A1F1410CDAD94FF0000840E7737841
:104D6000002B7FF41EAF079A13469A057FF519AF03
:104D70008CE7DDF8208033E7059B33B15946304698
:104D8000FFF7A6FE00283FF40CAF4FEA491130466A
:104D9000FEF7F4FF00283FF404AF013F17F0FF08CF
:104DA00054D0474600240F2500213046FEF7A4FECC
:104DB00000283FF4F6AEB268474592F8243043F03D
:104DC000010382F8243000F0A48039460BF10C0E68
:104DD0000BF1170C00230170C57204735A081EF8FA
:104DE000019F42EAC313E64559FA83F3DBB2F5D1DA
:104DF00001F01F01437300F1040EDBF808C0013914
:104E00000023448301EB410201EB82020CE00A2BF8
:104E100094BFAEF80010AEF80210013301320EF16B
:104E2000020EDBB20D2B0DD0924514BF4FF0FF31B7
:104E300000218CBF1CF8021089B2042BE7D82EF891
:104E4000031CEAE7013F17F0FF07ADD175690021A8
:104E50003046FEF751FEC5F34F15044600283FF4D7
:104E6000A0AE2022002107F071FF5B462C4A53F8C8
:104E70000D0F59682060616019899B7A2181A372A6
:104E80009BF80030176803F0180323738FB10DF1FE
:104E90002B020DF12E010BA8B847BDF82C30BDF840
:104EA0002E209DF82B102382617363822383E2817D
:104EB000E282B26892F8243043F0010382F8243091
:104EC000CDF800802A46079B31460998FEF7A0FFDF
:104ED00068E60028DDF8208018BF4FF000087FE664
:104EE000039A012A7FF45DAE5C1E0A460A3350081D
:104EF00014F8011F40EAC2129C4251FA82F2D2B267
:104F0000F5D1069B93427FF44CAE079B1905D7D58C
:104F100047E647F04001C9B258E700BF4FECC44E26
:104F2000203800202DE9F0410F460021FEF718FB44
:104F300008B30022451E4FF0080C4FF02E0814460F
:104F400015F8013F202B10D0082A16D0A3F14101FB
:104F5000661C192907D8017B03F1200E1CEA010FFA
:104F600018BF5FFA8EF33B55F4B201320B2AE7D13A
:104F7000002301203B55BDE8F081611C07F8048047
:104F80004FF0100C2B78CCB2E0E700BF03780A4654
:104F900053B113F0600F05D02F21002301201170B1
:104FA00053707047FFF7BEBF1846704710B50446F0
:104FB000806B28B1FEF72EFB10B10023A36310BD58
:104FC000E06B28B1FCF796FD10B10023E36310BD40
:104FD000002010BD8842F8B5064615D00D46FFF7F3
:104FE000E5FFAC6B94B13146242000F01FF900239B
:104FF0000446037043708370B063AD6B0FCD0FC474
:105000000FCD0FC42B6823603046F8BDEB6B002B2F
:10501000FAD03146382000F009F980F8314080F8A4
:105020003240024680F83340F063EB6B03F130010D
:105030001F68103353F80C5C103253F8084C53F8C7
:10504000040C8B4242F8107C42F80C5C42F8084C8D
:1050500042F8040CECD11B681360D5E7C9B32DE905
:10506000F0410C46054698461746FFF79FFFD4F8D7
:105070007864AEB100262946242000F0D7F84346D4
:1050800006703A4646708670A863D4F87814FEF726
:1050900047FC10B10120BDE8F081A863BDE8F081B4
:1050A000D4F87C34BBB12946382000F0BFF8434621
:1050B00080F831603A4680F8326080F83360E86307
:1050C000D4F87C14FDF7E2F90028E3D1E863BDE8E9
:1050D000F081002070470020BDE8F081F8B50D4652
:1050E00017460446FFF762FFAE6B8EB121462420BF
:1050F00000F09CF800213A46017041708170A06375
:10510000A96BFEF7F1FE08B10120F8BDA063F8BD60
:10511000E86B88B12146382000F088F83A4680F8DC
:10512000316080F8326080F83360E063E96BFDF74E
:10513000B5F90028E8D1E063F8BD00BF70B50026DE
:1051400005464FF48F60C5F880142946C5F8786489
:1051500000F06CF804464660FDF7D0F904F50370E2
:10516000C4F81062FDF7CAF984F83C6484F87164ED
:10517000204684F87264012284F87364C5F87C4484
:10518000D5F88014FDF782FAF0B9002629464FF4CD
:105190008C60C5F87C6400F049F80122C6710446B1
:1051A00080F83C6480F83D6480F83E64C5F878047B
:1051B000D5F88014FFF762F9A8B90023104A184601
:1051C0001360C5F8783470BD04F588663046FCF786
:1051D00091FC21463046FCF7EBFC0028D5D0084B6B
:1051E00001201D6070BD04F23C463046FEF712FA05
:1051F00021463046FEF79CFB0028F0D1DDE700BFDA
:1052000024380020F8B500254FF47A77064E04467E
:105210008760057105738564C56440F8106BFFF7FE
:105220001DFF2046F8BD00BF2C0000200846704737
:105230004FF0FF30704700BFC07D7047407E704721
:1052400010B404680123E468A4465DF8044B604789
:10525000807E704710B404680123E469A4465DF8B9
:10526000044B6047704700BF10B504461C2106F090
:105270003DFB204610BD00BF2DE9F0411F46037DD8
:1052800004460E46022B154607D0236820465B696C
:105290009847D8B90020BDE8F08103698B42F4D16A
:1052A00067B1002623682946204601365B6C05F568
:1052B000007598470028EDD0B742F3D12369627D8D
:1052C0001F4427616AB90120BDE8F0812368314697
:1052D00020469B6C98470028DCD00223266123756A
:1052E000DEE7236820465B69BDE8F041184700BF50
:1052F00010B50446043001F0B1F80021A07D01F0A2
:10530000C1F90123237610BD38B5051D04460121DE
:10531000807D01F0B7F9FF21284601F07DF928468C
:1053200001F032F90023237638BD00BFF8B5077EBF
:1053300006460FB9FFF7DCFF351D0824284601F0AB
:105340004FF9FF2804F1FF330DD013F0FF04F5D11E
:1053500001240FB9337E0BB92046F8BD3046FFF764
:10536000D3FF2046F8BD0024F3E700BF2DE9F84342
:105370001A4E0446884691463568071DADB205E0D1
:1053800033689BB25B1BB3F5967F11DC384601F0A6
:1053900027F9FF286076F3D0FE280CD01823E37598
:1053A000207E18B12046FFF7AFFF0020BDE8F8834C
:1053B0001D23E375F4E74A464146384601F01CF9DF
:1053C000607610B12423E375EAE7384601F008F966
:1053D000384601F005F90120BDE8F883244A002091
:1053E000F8B50A4D0F46061D2C68A4B204E02B68E0
:1053F0009BB21B1BBB4206DC304601F0F1F8FF28D4
:10540000F5D10120F8BD0020F8BD00BF244A0020DE
:105410002DE9F041037E82B00646884601920BB921
:10542000FFF766FFB8F1000F2CD1351D48F04001A1
:1054300001AF02AC284601F0EFF814F8011D284630
:1054400001F0EAF8BC42F8D1B8F1000F28464FF05D
:1054500000040CBF9521872101F0DEF8284601F0F9
:10546000BFF8284601F0BCF87076E3B20134C209F7
:10547000092B8CBF002302F00103002BF1D102B0F5
:10548000BDE8F0814FF496713046FFF7A9FFCCE7F5
:105490002DE9F04F89B04FF0000A0646041D01AF18
:1054A00080F817A080F81AA00A25DFF8AC9187E8E9
:1054B0000E009DF80400029BB07500939DF80580D6
:1054C000D9F800B001F0DAF8B07D012101F0DAF886
:1054D0005F49072205ABB160F26097E8070083E8F7
:1054E000070020460ECB01F035F86FEA080330467E
:1054F00086F818A0C3F3C01386F814A07375FFF7DD
:10550000F7FEB07D012101F0BDF8013DFF212046ED
:1055100001F082F815F0FF05F7D12946B07D0A2782
:1055200001F0B0F8002230461146FFF771FF012864
:1055300005461AD07B1E13F0FF070BD0FD21204635
:105540004FF4027501F068F8204601F049F8013D7A
:10555000FAD1E7E70123F375307E18B13046FFF743
:10556000D3FE002009B0BDE8F08F4FF4D5720821BA
:105570003046FFF74DFF43070FD402230425B376CF
:10558000013D204601F02CF8707615F0FF05F7D1AB
:10559000AA2803D00623F375DEE7B57633682D4FCE
:1055A0001B6CBB422FD1B07E02280CBF4FF0804550
:1055B000002506E0D9F800309BB29B1AB3F5FA6FCC
:1055C00024DC002237213046FFF722FF2A4629211A
:1055D0003046FFF71DFF1FFA8BF20028EAD133682F
:1055E0001B6CBB4215D1B07E022815D0337E13B19F
:1055F0003046FFF789FE0723009A0120B260F3606E
:1056000009B0BDE8F08F30469847CDE71723F37512
:10561000A2E730469847E7E700223A213046FFF7F5
:10562000F7FE10B11223F37596E7204600F0D8FF7D
:1056300000F0C000C02801D10323B376204600F05B
:10564000CFFF204600F0CCFF204600F0C9FFCDE799
:10565000801A0600913A0000244A0020F8B5036839
:1056600005460E465B699847284600223A21FFF717
:10567000CFFE68B92F1D341D384600F0B1FF04F885
:10568000010DA642F8D12C7E6CB901242046F8BD4C
:1056900012232C7EEB75002CF8D000242846FFF74F
:1056A00033FE2046F8BD2846FFF72EFE2046F8BD03
:1056B000036870B504460D465B691646984729464F
:1056C00020460022FFF7A4FE40B11B23E375207E95
:1056D00018B12046FFF718FE002070BD3146102299
:1056E0002046FFF743FE0028F1D0257E002DF4D0A0
:1056F0002046FFF709FE284670BD00BF0A46092173
:10570000FFF7D6BF0A460A21FFF7D2BF0368244A33
:105710005B6B934230B585B02FD16A460921FFF704
:10572000C7FF38B19DF8003013F0C00304D0402B00
:1057300026D0002005B030BD9DF809409DF8063008
:105740009DF8072004F003049DF80A0003F003030A
:1057500064009DF8051092009DF8085044EAD010AE
:1057600001F00F0142EA8323084443EA9513073806
:10577000013303FA00F005B030BD69469847D0E721
:105780009DF809309DF807105A1C9DF8080001F09B
:105790003F0302EB034303EB0020800205B030BD62
:1057A0003D3F000003680A4630B51B6C83B0104DC6
:1057B0000446AB4218D1807E03284FF012012046E8
:1057C00018BF5202FFF724FE58B10C23207EE37568
:1057D00008B903B030BD2046FFF796FD002003B0A6
:1057E00030BD012003B030BD01919847019AE3E735
:1057F000913A00002DE9F0411F46037D06460D4613
:10580000012B144607D0336830465B699847D8B9F6
:105810000020BDE8F08103698B42F4D167B1002517
:105820004FF400722146304601351444FFF79EFDC7
:105830000028EDD0AF42F3D13369727D1F44376148
:1058400062B90120BDE8F08129463046FFF7AAFF82
:105850000028DDD0012335613375DFE7336830463A
:105860005B69BDE8F041184738B500220C210546B8
:10587000FFF7CEFD28B109232C7EEB755CB92046DD
:1058800038BD2C7E14B90124204638BD2846FFF7C8
:105890003BFD204638BD00242846FFF735FD204655
:1058A00038BD00BF03680A4630B51B6C83B0104D8D
:1058B0000446AB4218D1807E03284FF019012046E0
:1058C00018BF5202FFF7A4FD58B10E23207EE375E6
:1058D00008B903B030BD2046FFF716FD002003B025
:1058E00030BD012003B030BD01919847019AE3E734
:1058F000913A00000368F0B55B6B85B0294F044610
:105900000D461646BB422BD16A460921FFF7D0FE51
:1059100080B19DF80A305A0614D5A37E032B01D01E
:105920006D0276022A4620212046FFF771FDD0B194
:105930002523E375207E18B12046FFF7E5FC002003
:1059400005B0F0BD03F03F039DF80B10721C5B0027
:105950002A4343EAD1131342DFD02623E375E9E754
:1059600069469847D4E7324621212046FFF750FD8B
:105970000028DDD1024626212046FFF749FD0028F8
:10598000D6D142F210712046FFF72AFD10B9272325
:10599000E375CFE7257E002DD2D02046FFF7B4FC7B
:1059A0002846CDE73D3F000070B54FF4167105461F
:1059B000FFF716FD064658B91E232C7EEB750CB971
:1059C000204670BD34462846FFF79EFC204670BD39
:1059D000FD21281D00F020FE2C7E14B934462046FF
:1059E00070BD2846FFF790FCEAE700BF10B5037DC5
:1059F0000446012B05D0022B09D00023012023757A
:105A000010BDFFF731FF0028F7D1002010BDFFF7D0
:105A1000CBFF0028F1D1F8E770B5041D1646054606
:105A2000204600F0F9FD4FF400723146204600F0A8
:105A3000FDFD2046FF2100F0EFFD2046FF2100F094
:105A4000EBFD204600F0CCFD00F01F036876052B2F
:105A500009D01F23287EEB7500B970BD2846FFF7DB
:105A600053FC002070BD012070BD00BF38B50D464D
:105A70004FF416710446FFF7B3FC40B92323E375D6
:105A8000207E18B12046FFF73FFC002038BD2A4693
:105A9000FC212046FFF7C0FF0028F1D038BD00BF31
:105AA000034B04481B6B1840B0FA80F04009704764
:105AB00000002C4001000F00024B586A00F001006A
:105AC000704700BF00002C40014B1878704700BFA2
:105AD00064380020034B586A80F40060C0F3C02093
:105AE000704700BF00002C40034B586A80F4806070
:105AF000C0F38020704700BF00002C40034B0448D7
:105B00001B6B1840B0FA80F04009704700002C4031
:105B100002007F11014B1878704700BF5408002025
:105B2000014B1868704700BF4C38002030B4054C5A
:105B30000D460FCC286001206960AA60EB6030BC84
:105B4000704700BF2C38002030B4054C0D460FCCF8
:105B5000286001206960AA60EB6030BC704700BF1C
:105B600054380020024B01201B680B60704700BFB7
:105B700044380020704700BFF8B50546074F05F0D0
:105B80009BFA064604E005F097FA801BB84203D85A
:105B9000A84704460028F6D12046F8BD40420F0031
:105BA0002DE9F041DFF8408005460E4FC8F80000AF
:105BB00005F082FA064606E005F07EFA801BB84240
:105BC0000AD805F0CDFCA84704460028F4D1C8F84F
:105BD00000002046BDE8F08100232046C8F80030D0
:105BE000BDE8F08140420F003C38002010B504466B
:105BF0000C2105F07BFE204610BD00BF054B1B7835
:105C000033B1054B1B78002B14BF032002207047D3
:105C100001207047283800204038002038B504465D
:105C200014480D46FFF7A8FF08BB134BA1029D6067
:105C300007D5996CE2B221F0FF019964996C0A438F
:105C40009A6424F0FF040C4D0C48EC60FFF794FFBD
:105C500068B92A6B0A4B1A601A682A631A68D20755
:105C600005D51B6813F4702F01D1012038BD002029
:105C700038BD00BFF942000000002C40E1420000A6
:105C80004C38002008B5044B04481968FFF7C6FFDC
:105C900008B1034B186908BD4838002000001A0DF0
:105CA00000002C4008B5074B07481968FFF7B6FFFE
:105CB00030B1064B186980F48070C0F3002008BD35
:105CC000012008BD4838002000001A0D00002C40BB
:105CD000044B1B6803B11847034B187800B9704791
:105CE000FFF7E0BF3C38002050380020054B186813
:105CF00010F0020005D01B6803481840B0FA80F08D
:105D0000400970474C38002000007F11F8B512F0B0
:105D1000030418BF0124002B08BF44F0010444B160
:105D20001E4924201E4B4FF4EB7208701A600020AD
:105D3000F8BD06461B481D460F461446FFF730FFC8
:105D400010BB2B04184A194D4FF0010E1A40184988
:105D500085F800E0174B42F400720860164D1749B1
:105D60001C605A609D630B78B3B979023046FFF727
:105D700055FF0028DBD01248FFF712FF0028D6D1CC
:105D8000BDE8F840FFF7B2BF04490A20044B40F2D7
:105D9000D91208701A60CAE73946E7E754080020AC
:105DA00068380020E54400000000FF1F6438002030
:105DB0004C38002000002C4002007F1140380020A9
:105DC00009430000194970B40B7813F0C00311D0D7
:105DD000402B02D0002070BC70474B7ACC795A1C03
:105DE000087A04F03F0302EB034303EB002070BC8E
:105DF000800270474D7A8B79CA7905F00305887A5D
:105E000003F003036D004C7992000E7A45EAD0103E
:105E100004F00F0142EA8323084443EA961307384B
:105E2000013370BC03FA00F0704700BF5438002003
:105E30002C4838B5837A154603F040025AB903F06E
:105E40003F0302F0FF04C27A681C5B00084343EA88
:105E5000D213034221D1244B1B780BB949026D02A6
:105E60002248FFF7DBFE044640B921490F20214BB1
:105E70004FF42D7208701A60204638BD29461E481E
:105E8000FFF7CCFE044688B919491020194B40F29F
:105E9000B722087020461A6038BD15492620154BD8
:105EA0004FF42B72087020461A6038BD0021134849
:105EB000FFF7B4FE044638B90D4911200D4B40F2EE
:105EC000BA2208701A60D7E70D48FFF755FE002880
:105ED000D2D007492720074B40F2BD22002408708A
:105EE0001A60C9E7543800204038002000001A200A
:105EF000540800206838002000001A2100001B26EA
:105F0000E544000010B500211448FFF787FE044661
:105F100040B913490920134B4FF40772087020460B
:105F20001A6010BD1048FFF73BFE60B90F4B586B6D
:105F30009A6AD96A22F4803241F08061D96258634A
:105F400020469A6210BD06490A20064B40F21F22E5
:105F5000002408701A60204610BD00BF0000DB0C52
:105F60005408002068380020E544000000002C4060
:105F7000FFF7C8BF38B5274B0D465A6AD00507D47E
:105F80009A6A22F480329A629A6A42F400329A62E1
:105F9000204C2148A36A43F48033A362FFF7ECFD51
:105FA00000282DD12B1F204605F5FE75426A5105AC
:105FB000FCD503F1400153F8042F164C99420262BC
:105FC000F9D18D420B46F1D11448FFF7D5FD70B9D8
:105FD000226B134B1A601A6822631A68920717D54E
:105FE0001B6810481840B0FA80F0400938BD0E49CF
:105FF00023200E4B40F28932087000201A6038BD11
:1060000009492024094B40F27E3200200C701A60AE
:1060100038BD00BF00002C40294300003D43000074
:106020004C38002000007F11540800206838002000
:1060300010B514480C46FFF7B3FDC8B9124B4FF426
:10604000007012499A6A22F480329A6258600B7882
:1060500063B961020E48FFF7E1FD30B90D490E2426
:106060000D4B40F2DE320C701A6010BD2146F1E794
:1060700008490A20084B40F2D232087000201A600A
:1060800010BD00BFE544000000002C404038002057
:1060900020003A195408002068380020F8B5064658
:1060A000007A0C461546C0071F4613D483B10F442F
:1060B00001E0BC420CD033682A46214630469B683A
:1060C00005F50075013498470028F2D10020F8BD8D
:1060D0000120F8BD900712D0002BF9D00F4401E049
:1060E000A742F5D033682A46214630469B6805F51D
:1060F0000075013498470028F2D10020F8BD064809
:10610000FFF704FE0028E3D104490C24044B4FF4AC
:106110004D720C701A60F8BD37003A125408002016
:1061200068380020F8B50646007A0C461546C007C8
:106130001F4613D483B10F4401E0BC420CD0336836
:106140002A46214630469B6905F50075013498477B
:106150000028F2D10020F8BD0120F8BD900712D030
:10616000002BF9D00F4401E0A742F5D033682A464E
:10617000214630469B6905F5007501349847002893
:10618000F2D10020F8BD0648FFF7C0FD0028E3D19A
:1061900004490E24044B4FF471720C701A60F8BD60
:1061A00027003A19540800206838002070B5037A97
:1061B0001546ADF5007D0E46DA0719D5AB0706D0BA
:1061C00029464FF4007268466D4603F081FC2A466A
:1061D000314601231A48FFF799FD30B919490D24BA
:1061E000194B40F29B320C701A600DF5007D70BDAA
:1061F000437A0446022B08D0236820465B699847FF
:1062000098B900200DF5007D70BD43689942F3D127
:106210002368294620465B6C98470028F1D06368C4
:10622000013363600DF5007D70BD23683146204663
:106230009B6C98470028E4D0022366606372E7E70E
:1062400001003A185408002068380020437A012BD6
:106250000FD0022B01D00120704710B40368002436
:1062600007494472DB6C8B4207D15DF8044BFFF7A2
:1062700049BE00234372FFF745BE5DF8044B184743
:10628000B147000038B5274B0D465A6A94050DD426
:106290009A6A22F480329A6272B69A6A42F40032A2
:1062A0009A629A6A42F480329A6262B61E48FFF796
:1062B00063FC00282DD12B1F1A4905F5FE754A6A8B
:1062C0001005FCD503F140000A6A164C43F8042F70
:1062D0009842F9D185420346F1D11448FFF74CFCAE
:1062E00070B9226B124B1A601A6822631A689207FF
:1062F00017D51B680F481840B0FA80F0400938BD28
:106300000D491D200D4B40F2F722087000201A6045
:1063100038BD09491A24094B4FF43B7200200C7018
:106320001A6038BD00002C40154300003D430000BA
:106330004C38002000007F115408002068380020ED
:1063400010B514480C46FFF72BFCC8B9124B4FF49C
:10635000007012499A6A42F480329A6258600B784F
:1063600063B961020E48FFF759FC30B90D490C249E
:106370000D4B4FF454720C701A6010BD2146F1E7BA
:1063800008490A20084B4FF45172087000201A6027
:1063900010BD00BFE544000000002C404038002044
:1063A00030003A12540800206838002070B5037A93
:1063B000ADF5007D1546DC0711D593071DD00123EF
:1063C00023486A46FFF7A2FCE8B1694628464FF425
:1063D000007203F07DFB01200DF5007D70BD437A56
:1063E00004460E46012B19D0236820465B69984766
:1063F00018BB00200DF5007D70BD01231448FFF788
:1064000085FC0028E7D113490B20134B40F20A32D8
:10641000087000201A600DF5007D70BD4368994238
:10642000E2D129462046FFF72DFF0028E1D063681E
:10643000013363600DF5007D70BD31462046FFF7E6
:106440007FFF0028D5D0012366606372E9E700BFB3
:1064500011003A1154080020683800200368416890
:1064600030B4DA7C8468002A28D072B6DA7CD5078A
:1064700006D531485A6905682A409A620260DA7C7A
:10648000900706D52D489A6905682A40DA620260AD
:10649000DA7C550706D52A48DA6905682A401A6366
:1064A0000260DA7C100706D526481A6A05682A4079
:1064B0005A630260DA7CD2062CD462B69A688A42A9
:1064C0002FD0214A996092692048C2F30115C2F386
:1064D000826250F825000132B0FBF2F0C1B1B0FB8E
:1064E000F1F24AB1B0FBF2F0884288BF0132B2F556
:1064F000817F18D347F6FF72DA601B6800250320FE
:1065000001211D6158621A641C66196130BC704714
:106510000246E6E70E485A6A05682A409A63026016
:10652000CBE7DA68E9E7022A98BF0022E4D9023A09
:10653000510842EA0122DFE780E100E084E100E067
:1065400088E100E08CE100E000C00F401401002071
:1065500090E100E000B585B00DF1100E0EE90E00DF
:10656000039B33B10360184605B05DF804EB02F0FD
:106570003FBF044A13460260184605B05DF804EBBD
:1065800002F036BF5C0800200268D37CE3B1D80774
:1065900003D50E4B916A1960D37C990703D50C4B38
:1065A000D16A1960D37C580703D50A4B116B196067
:1065B000D37C190703D5084B516B1960D37CDB06DC
:1065C00002D5926B054B1A60704700BF00E100E0F6
:1065D00004E100E008E100E00CE100E010E100E08F
:1065E0000268FF2312685366D36D13F4F81FFBD0C3
:1065F000506FC0B2704700BF70B50C4616460546D6
:10660000FF21204606F0A2FB286833462246214699
:1066100002F0FEFF002070BD03681A685166D36D5A
:1066200013F4F81FFBD0536F704700BF30B5551EF1
:10663000ADF5017D1346B5F5007F10D362B1026858
:10664000C818126811F8013B5366D36D13F4F81F94
:10665000FBD08142536FF5D10DF5017D30BD14465D
:106660000546684603F034FA23466A4669462868B8
:1066700002F0CEFF0DF5017D30BD00BF012104F019
:10668000D3BE00BF04F0CABE00207047012070478F
:10669000704700BF2DE9F0410E461546074603F04E
:1066A00031F9044603F01EF9804603F00BF9C0B23D
:1066B0005FFA88F30C2B98BF1F2837D8A4F2BC745C
:1066C000A4B27F2C32D84FEA481808F4FF5848EAA1
:1066D000000040EA4424A4B23C8003F0C3F807461B
:1066E00003F0D0F8044603F0DDF8E2B2FBB23B2A37
:1066F00098BF172B18D8C3B23B2B15D8FF02C0F395
:106700004603640107F4FF2004F4FF5420431843B8
:1067100080B2308003F0C6F810F0010F14BF64237C
:1067200000232B70BDE8F0810020F2E70024D3E7BE
:1067300010B504461430FEF739FC002384F800310C
:10674000C4F8FC3010BD00BF064AD2F8783413B14B
:10675000D86901387047D2F87C0408B1D0F8280411
:10676000704700BF6C380020074AD2F878340BB16C
:1067700018797047D2F87C0420B190F83D040123C9
:1067800003FA00F0704700BF6C380020054BD3F8C7
:10679000780408B1FDF71ABED3F87C0408B1FCF701
:1067A000F5B870476C380020044B196829B11430D3
:1067B00044F20223024AFEF751BC704724380020FD
:1067C00074010020D0F89C3013B11846FDF7DABBF5
:1067D000D0F8A00008B1FCF70DBD7047C36CF0B550
:1067E00095B0002B56D000F1140704463846FEF74A
:1067F000DDFB2A4BD3F87854002D35D04FF0000E36
:10680000294601236846264A6E468DF800E08DF839
:1068100001E08DF802E0FDF783F810B16846FEF75D
:10682000C3F8304644F202231D4A1C49FEF7EAFC35
:10683000029A9DF80C3004A99DF804503846E26095
:1068400023742572FEF7C6FB164B04A80093FEF7CF
:10685000ADFB00236FF0010284F8013184F80031B0
:10686000C4F8F82015B0F0BDD3F87C146E460029AA
:10687000D7D001230A4A68468DF831508DF832503E
:106880008DF83350FBF702FE0028CAD06846FCF7AB
:1068900055F9C6E7036D002BA5D1E3E76C3800205E
:1068A000740100200800002038B5044608460D4653
:1068B00006F026FD23680246294620465B68984775
