:1000000000000320D1010000E9C50000A1C50000E7
:10001000A1C50000A1C50000A1C50000A1C5000048
:10002000A1C50000A1C50000A1C50000E9C50000F0
:10003000E9C50000A1C5000065DC000069DC000026
:10004000E9C50000E9C50000E9C50000E9C50000F8
:10005000E9C50000E9C50000E9C50000E9C50000E8
:10006000E9C50000E9C50000E9C50000E9C50000D8
:10007000E9C50000E9C50000E9C50000E9C50000C8
:10008000E9C50000E9C50000E9C50000E9C50000B8
:10009000E9C50000E9C50000E9C50000E9C50000A8
:1000A000E9C50000E9C50000E9C50000E9C5000098
:1000B000E9C50000E9C50000E9C50000E9C5000088
:1000C000E9C50000E9C50000E9C50000E9C5000078
:1000D000E9C50000E9C50000E9C50000E9C5000068
:1000E000E9C50000E9C50000E9C50000E9C5000058
:1000F000E9C50000E9C50000E9C50000E9C5000048
:10010000E9C50000E9C50000E9C50000E9C5000037
:10011000E9C50000A5CF0000E9C50000E9C5000061
:10012000E9C50000E9C50000E9C50000E9C5000017
:10013000E9C50000E9C50000E9C50000E9C5000007
:10014000E9C50000E9C50000E9C50000E9C50000F7
:10015000E9C50000E9C50000E9C50000E9C50000E7
:10016000E9C50000E9C50000E9C50000E9C50000D7
:10017000E9C50000E9C50000E9C50000E9C50000C7
:10018000E9C50000E9C50000E9C50000E9C50000B7
:10019000E9C50000E9C50000E9C50000E9C50000A7
:1001A000E9C50000E9C50000E9C50000E9C5000097
:1001B000E9C50000E9C50000E9C50000E9C5000087
:1001C000E9C50000E9C50000E9C50000E9C5000077
:1001D000594B4CF2205210B51A804DF628121A8055
:1001E00000BF00BF0CF004FA544B4FF030621A60AD
:1001F000534A9A60534ADA60534B4FF470021A60C4
:10020000524B534A1A60534B1A78110703D51A7888
:1002100042F008021A70504B5049AA221A70504AF4
:10022000504B8B4204D252F8040F43F8040BF8E70A
:100230004D4B4E4900228B4202D243F8042BFAE781
:100240004B494C4A002352F8230041F82300013364
:10025000742BF8D1484B494A802103F8011B934283
:10026000FBD1474B424A1A60464B8A221A70A3F5CB
:10027000805324225A70A0221A709A799207FCD5D2
:100280009A79D406FCD4404A937903F00C03082BE6
:100290003D4BF9D101221A7148225A719A79900680
:1002A000FCD5394A9179384B4906FBD5374A38494C
:1002B00011600221516020221A709A7902F00C021A
:1002C0000C2AFAD1334B344A1A60344A344C13683E
:1002D00013F4807303D123604FF4A8531360314BA0
:1002E000314A1A6000225A60072243F8042C2F4A30
:1002F000C3F80C2D62B60CF05FFC2368DA0705D555
:100300002B480CF0D1FB2B4B2B4A1A602B4B1B7844
:100310005B0609D5274C284B22689A4204D1244811
:100320000CF0C2FB002323600EF012FC0CF066F907
:100330000DF050FDFEE700BF0E2005403080044068
:10034000823F04000100002B88ED00E0002008E05F
:100350000300008502D0074000E007407814FF1F2B
:10036000D03701007009FF1F7814FF1F2821FF1FDD
:100370000002FF1F0000000000E400E064E400E071
:1003800008ED00E000500640004006404480044074
:100390000000030104800440C010050010D0034099
:1003A00014D0034014E000E0FF760100000020209C
:1003B000310000001CE00340A5C3945A00F0074040
:1003C000FFFFFFFFFFFFFFFFFFFFFFFFFFFFFFFF3D
:1003D000FFFFFFFFFFFFFFFFFFFFFFFFFFFFFFFF2D
:1003E000FFFFFFFFFFFFFFFFFFFFFFFFFFFFFFFF1D
:1003F000FFFFFFFFFFFFFFFFFFFFFFFFFFFFFFFF0D
:10040000FFFFFFFFFFFFFFFFFFFFFFFFDEF9FFFF23
:1004100010B5054C237833B9044B13B10448AFF33E
:1004200000800123237010BD7814FF1F000000001E
:10043000CC370100084B10B51BB108490848AFF391
:1004400000800848036803B910BD074B002BFBD0A0
:10045000BDE81040184700BF000000007C14FF1FDB
:10046000CC3701007814FF1F000000000020704707
:10047000704700BF4FF0FF30704700BF006910B1F8
:1004800003689B6A18477047006910B10368DB6A0C
:1004900018477047006910B103681B691847704717
:1004A000006910B103689B6918474FF0FF3070472F
:1004B000006910B10368DB6818477047006910B124
:1004C0000168096B0847704710B4006920B10468DF
:1004D000616B5DF8044B08475DF8044B704700BF43
:1004E000006910B103689B6B18470020002170471A
:1004F000006910B10368DB6B1847002000217047CA
:10050000006910B103681B6C18477047006910B18F
:1005100003685B6C18477047006910B103689B6CF7
:1005200018470148704700BF702F0100006910B1E3
:100530000368DB6C1847704738B50B6904462BB16C
:100540001D6819462B6D9847204638BD4FF47A70C8
:10055000064A23712373A06022600B692361002B7C
:10056000F2D01A6901321A61204638BD782E010096
:10057000006910B103685B6D18477047006980B16E
:1005800000B5036883B09B6A01220DF1070198470B
:1005900020B19DF8070003B05DF804FB4FF0FF3079
:1005A000F9E74FF0FF30704710B582B002AB026838
:1005B00003F8011DD46A19460122A04702B010BDFC
:1005C000C36D0BB101207047006E003018BF0120D1
:1005D000704700BF704700BF10B50446024603696C
:1005E000054906480DF08AFB206920B10368BDE883
:1005F00010405B6A184710BD582F0100BC0AFF1F4E
:1006000002460369014902480DF078BB742F0100CE
:10061000BC0AFF1F2DE9F0410F461646804606F042
:10062000E3FA044606F0D0FA054606F0BDFAA4F255
:10063000BC739BB27F2B02D8EAB20C2A2BD90023C1
:10064000A8F8003006F080FA044606F08DFA054658
:1006500006F09AFAE3B2172B02D8EBB23B2B0BD978
:1006600000233B8006F090FA10F0010F14BF6423C2
:1006700000233370BDE8F081C3B23B2BF0D8E40215
:100680006B0104F4FF2403F4FF532343C0F346003B
:1006900003439BB2E5E7C0B21F28D0D86D0105F433
:1006A000FF55284340EA43239BB2C9E710B50446EF
:1006B000406E18B10EF07CFA0023636604F124004A
:1006C000BDE810400AF076B82DE9F041002394B05F
:1006D0001A460546243104A84FF47A74254F8DF844
:1006E00004308DF80C3012931393029400970AF0A3
:1006F000B5F8129B002B32D068200DF075FB044634
:100700009DF80460029A9DF80C301B481B49267620
:100710004FF47A78002620606161E26184F820302D
:1007200004F1240004A9267126732661C4F8088008
:100730000AF004F82369124A6761013366662E7174
:10074000C5F808802E732C6123612A600D4B00933D
:1007500004A80AF02FF8284614B0BDE8F081139BD6
:10076000002BC9D1064A2B71AC602B732B612A6018
:10077000ECE700BF542E0100D82E01000C2E010022
:10078000782E0100302E0100C26D62B1137803F0A3
:10079000080303F0FF0003B3D3695069181A48BF78
:1007A0006FF000407047016EC1B191F8313003F035
:1007B000080303F0FF0083B1D1E90423D1E900016C
:1007C000101A30B463EB010100256FF000448D4234
:1007D00008BF844200D2204630BC704708467047AC
:1007E000836C13B1184608F009BCC06C08B106F060
:1007F000F7BC4FF0FF30704700B5836C83B063B136
:10080000184601220DF1070108F02CFB01280CD13C
:100810009DF8070003B05DF804FBC06C28B101220D
:100820000DF1070106F00CFCF0E74FF0FF30F1E7A7
:10083000C36D13B1184608F027BE006E08B107F06B
:1008400043BD704700B5836C83B08DF8071043B18A
:10085000184601220DF1070108F058FE03B05DF8BB
:1008600004FBC06C0028F9D001220DF1070107F04C
:1008700033FF03B05DF804FB70B5D0F87C448EB054
:100880001646C4B1002504F23C440A462B462146D4
:1008900068468DF800508DF801508DF8025008F030
:1008A00073FA08B90EB070BD32462146684608F0AA
:1008B000DBFB0EB070BDD0F880040028F2D000F54C
:1008C00088650A462346294668468DF831408DF8EA
:1008D00032408DF8334006F005FF0028E2D0324662
:1008E0002946684607F030FE0EB070BD30B5D0F82E
:1008F0007C448FB0A4B100250A462B4621466846A9
:100900008DF800508DF801508DF8025008F09CFAD7
:1009100008B90FB030BD684608F092FC0FB030BD8A
:10092000D0F880040028F4D00A46234601466846E1
:100930008DF831408DF832408DF8334006F052FF8B
:100940000028E6D0684607F0E5FB0FB030BD00BFD9
:1009500038B5446E0CB1204638BD05464FF4807062
:100960000EF01EF90146686680B1E86D0C7028B182
:100970004FF4807209F0C8F96C6EECE7286E40B154
:100980004FF4807206F03AFA6C6EE4E7024C6C6643
:10099000E1E70C46DFE700BF9414FF1FD0B5C46D3C
:1009A0008CB1012B08BF002A01D30020D0BD114615
:1009B000204608F073FC0028F7D0204608F06AFDB6
:1009C0000028F2D0D0BD046E002CEED0204606F0F8
:1009D0001FFC0028E9D02046BDE8D04007F00ABE41
:1009E00010B5D0F87C448EB07CB10A46012304F2E5
:1009F0003C41684600248DF800408DF801408DF898
:100A0000024008F05FF90EB010BDD0F88004002855
:100A1000F9D00A46012300F5886168468DF8314017
:100A20008DF832408DF8334007F022FD0EB010BD36
:100A3000C36D9BB11A7812F0700F00D1704710B5DA
:100A400004460021184608F029FC206E28B1002237
:100A50000023BDE8104006F0DBBB10BD006E00288F
:100A6000ECD090F8313013F0500FE7D00022002383
:100A700006F0CEBB38B50546D0F87C04C0B1C469D9
:100A8000013C09F021F8D5F87C34241A43B1987957
:100A90004FF4007303FA00F080B2A0FB040138BDEC
:100AA000D5F880346BB1D3F83404A0FB040138BD11
:100AB000D5F880342BB11846D3F8284407F0E8F96C
:100AC000E1E70020002138BDC36D13B1D8690021D2
:100AD0007047036E13B11869596970471846194673
:100AE000704700BFC36D13B1586900217047036E92
:100AF00013B193E80300704718461946704700BFCA
:100B0000C36D13B1184608F0ADB9006E08B106F018
:100B100097BA4FF0FF307047C36D13B1184608F015
:100B20006DBA006E08B106F05BBB4FF0FF30704746
:100B3000D0F87C244AB19179D0694FF400738B408E
:100B40009BB20138A3FB00017047D0F8802432B17A
:100B5000D2F82834D2F83404A3FB000170470020F7
:100B600000217047C36D33B11B7813F0700F14BFB1
:100B7000012000207047006E30B190F8313013F042
:100B8000500F14BF01200020704700BF10B5D0F8EF
:100B90007C448EB0A4B10A46684621460123002455
:100BA0008DF800408DF801408DF8024008F04CF9B6
:100BB00008B90EB010BD684609F0AAFA0EB010BD13
:100BC000D0F880040028F4D00A4601230146684684
:100BD0008DF831408DF832408DF8334006F002FE3A
:100BE0000028E6D0684607F029FA0EB010BD00BF15
:100BF0002DE9F041012B94B0054641D0022B01F1C3
:100C0000040140F20223684618BF002309F0B8FE31
:100C1000129B002B3DD068200DF0E6F804469DF8AD
:100C2000046022482249029A9DF80C30206004AFEB
:100C30002676616100264FF47A78394604F1240063
:100C4000E26184F82030267126732661C4F808809A
:100C500009F074FD23691749174A666601332E713E
:100C6000C5F808802E732C61616123612A60134BE3
:100C70000093384609F09EFD284614B0BDE8F08187
:100C800044F202230431684609F07AFE129B002BDD
:100C9000C1D1139B002BBED14FF47A71064A2B7140
:100CA0002B732B61A9602A6004AFE0E7D82E010006
:100CB0000C2E0100542E0100782E0100302E010070
:100CC000836C13B1184608F0DFBBC06C08B107F0A5
:100CD000FBBA7047C36D13B1184608F017BC006E1D
:100CE00008B107F0F9BC7047836C13B1184608F0DF
:100CF0000DBCC06C08B107F0EFBC7047826C62B1EC
:100D0000137803F0080303F0FF0003B3D3695069BD
:100D1000181A48BF6FF000407047C16CC1B191F81C
:100D2000313003F0080303F0FF0083B1D1E904235D
:100D3000D1E90001101A30B463EB010100256FF016
:100D400000448D4208BF844200D2204630BC704728
:100D50000846704730B5D0F87C448FB074B1002598
:100D60000A462B46214668468DF800508DF8015002
:100D70008DF8025008F068F80FB030BDD0F880044C
:100D80000028F9D00A462346014668468DF83140CE
:100D90008DF832408DF8334006F024FD0FB030BDA1
:100DA000D0B4039C16461F4634B1012C1ED0022C31
:100DB0000DD00020D0BC7047C46DDCB1012B08BF42
:100DC000002AF6D220461146D0BC08F067BAC36D9F
:100DD000B3B1DA69B61847F10007012F08BF002E3A
:100DE000E7D231461846D0BC08F058BAC36D8BB173
:100DF0005A69EFE7006E0028DBD0D0BC06F008BAD5
:100E0000006E0028D5D0D0E9042392197B41D0BCD4
:100E100006F0FEB9006E0028CBD0D0E9002392196D
:100E20007B41EAE70269084B10B50446036042B112
:100E30001369013B136123B9006910B103681B6A90
:100E40009847204610BD00BF782E010038B5C36D0D
:100E5000144A0260044600F12405F3B1284609F063
:100E6000A9FC606E08B10DF0A3FE0F4B636128462C
:100E700009F0A0FC22690D4B236042B11369013BCC
:100E8000136123B9206910B103681B6A9847204693
:100E900068210CF0ABFF204638BD036E002BDDD17E
:100EA000DFE700BFD82E0100302E0100782E0100B0
:100EB00002690A4B10B50446036042B11369013B55
:100EC000136123B9006910B103681B6A9847204673
:100ED00014210CF08BFF204610BD00BF782E0100BE
:100EE000D0F8E02038B51A4B1A4D03600446C0F81C
:100EF000D0501AB11369013B1361CBB1D4F8CC20A7
:100F0000C4F8BC501AB11369013B1361C3B1D4F8E2
:100F1000B820C4F8A8504AB11369013B13612BB93A
:100F2000D4F8B80010B103681B6A9847204638BD52
:100F3000D0F8E0000028E1D003681B6A9847DDE79D
:100F4000D4F8CC000028E2D003681B6A9847DEE79B
:100F500014300100782E010038B5C36D124A0260CA
:100F6000044600F12405D3B1284609F023FC606E45
:100F700008B10DF01DFE0D4B6361284609F01AFC07
:100F800022690B4B236042B11369013B136123B902
:100F9000206910B103681B6A9847204638BD036E6C
:100FA000002BE1D1E3E700BFD82E0100302E010075
:100FB000782E01002DE9F0430B2183B04A484B4DB8
:100FC00005F090FB0C21484805F0DEFB05F28C444F
:100FD0000D21454805F028FC20464FF000010AF09D
:100FE00047FD2046C5F888440AF0F2F838B10A21D6
:100FF0003F480BF0D1F93F480CF068FEFEE7D5F80A
:101000008814281D09F05AFC0028F0D03A49DFF86E
:10101000F4804B68D8F80020132B05DC01EB830427
:101020000133A260A5654B60D5F87C042F4B0028E6
:1010300045D08679C4694FF4007303FA06F6B6B258
:10104000013CA6FB046708F03FFDD5F87C34274A35
:10105000241A53B39979D8F800204FF400738B40C9
:101060009BB2A3FB044500920022914623492148EC
:101070004FF00A08FE230CF041FE32463B468DE855
:1010800000031C480CF048FE01211D480BF084F9B8
:101090008DE8000322462B4616480CF03DFE15480D
:1010A00003B0BDE8F0430CF011BED2F88034D8F89C
:1010B0000020ABB1D3F83434A3FB0445D3E7D3F815
:1010C000800440B1D0F82844D0F83464A6FB04670B
:1010D00006F0DEFEB9E70024002526462F46C2E7CB
:1010E00000240025BFE700BF7C09FF1F9814FF1FE5
:1010F000A82F0100BC0AFF1F4819FF1F942F0100F1
:10110000203101007409FF1F2DE9F043824A834911
:10111000834D844C9BB01378002BFCD00B78DB07FD
:10112000F9D52B6820681B1A0E2BF4D908217E48AC
:10113000DFF828820BF030F97C480CF0C7FDFFF790
:1011400039FF7B4BD8F87C647A4A1A60002E00F095
:101150008580002506AC31462B462046764A8DF820
:1011600018508DF819508DF81A5007F06DFE0028B0
:1011700040F0878040F2022320466F4A6F4909F011
:10118000FFFB189B002B00F0B68068200CF02CFEB3
:1011900004469DF81C50089A9DF824306848694917
:1011A00025764FF47A7900250AAF20606161E2610B
:1011B00084F8203004F12400394625712573256117
:1011C000C4F8089009F0BAFA23695F4A5F4E656671
:1011D00001338DF80850CDF80C908DF8105005941F
:1011E0006261236101965A4B0693384609F0E2FA90
:1011F0001322584901A80CF053FD01A80CF066FD1C
:10120000059810B103681B6C9847172152480BF0E2
:10121000C3F846480CF05AFDD8F87C244F4B002AFE
:1012200047D0002302F23C4040491A4608F092FAA7
:10123000059A019642B11369013B136123B90598E0
:1012400010B103681B6A98470B2145480BF0A4F8BE
:1012500036480CF03BFD1BB0BDE8F083D8F8801495
:1012600006AC002986D033462046334A8DF84960C3
:101270008DF84A608DF84B6006F0B4FA00283FF410
:1012800079AFD8F87C54354BF5B1294601230025B8
:10129000294A8DF8185020468DF819508DF81A50AB
:1012A00007F0D2FD00283FF465AF204608F030FF7C
:1012B00060E7D3F880040028BAD013461B4900F534
:1012C000886006F0F9FAB3E7D3F8801400293FF4F8
:1012D00051AF0123184A8DF8495020468DF84A50E5
:1012E0008DF84B5006F07EFA00283FF443AF2046BD
:1012F00006F0A4FE3EE7199B002B7FF446AF4FF4A7
:101300007A72124E8DF808308DF8103005930392E2
:1013100001960AAF67E700BF9C20FF1F941FFF1FC5
:10132000981FFF1F1421FF1FF82F0100BC0AFF1F89
:10133000341FFF1F15060000B42F01009C14FF1F6F
:10134000D82E01000C2E0100542E0100782E010031
:10135000302E0100C02F0100D42F01009814FF1F70
:10136000EC2F0100014804F0FDBC00BF4C1AFF1F28
:10137000F8B52F4B2F4E304FC3F88C7400252F4AF1
:101380002F483049304C1A6028273246C3F8980459
:10139000C3F8A01483F8AB742C49C3F87C54C3F889
:1013A000805483F8945483F8AE5428460CF090FD92
:1013B0003246274E274B26604FF47A76C4F8A83081
:1013C000C4F8BC30C4F8D030234965606FF0010721
:1013D000204684F8AC5084F8B450C4F8B85084F86F
:1013E000C05084F8C850C4F8CC5084F8D45084F865
:1013F000DC50C4F8E050C4F8B060C4F8C460C4F86D
:10140000D860C4F8E450C4F8E850C4F8EC50C4F80C
:10141000F45084F8F85084F8F950C4F8F0700CF0E7
:1014200057FD0E4B83E830001D72DD60F8BD00BF34
:101430009814FF1F7009FF1F3C320100382F010074
:10144000E4310100011001384819FF1FD5050000E3
:1014500014300100782E0100E10E00004C1AFF1F2D
:101460004368132B08DC10B400EB83040133A26043
:101470004360A1655DF8044B704700BF406870474A
:1014800000EB810188687047002070470120704799
:1014900000EB8101886D0368DB69184700EB81016F
:1014A000886D03689B691847D0F8CC00002832D0BB
:1014B00070B404681B4BE46A9C4229D1006920B3D4
:1014C0000468E46A9C4223D10069F0B10468E46ACC
:1014D0009C421DD10069C0B10468E46A9C4217D1E6
:1014E000006990B116460268D46A9C420D4614D138
:1014F000006950B10268D46A9C420ED1006920B1E3
:1015000003683246DB6A70BC1847002070BC704725
:10151000234670BC184700207047324629462346B0
:1015200070BC18478904000010B50446D0F8B80014
:1015300000286FD00368404A5B6C934270D1006909
:10154000002867D00268526C9A4272D10069002864
:1015500060D003685B6C934262D10069002859D067
:101560000268526C9A4264D10069002852D0036824
:101570005B6C934254D1006900284BD003685B6CCC
:101580009847002846D0D4F8B800002842D0026816
:101590002A4B126C9A4245D1006900283AD0026861
:1015A000126C9A423ED10069002833D00268126C56
:1015B0009A4237D1006900282CD00268126C9A42F6
:1015C00030D1006930B30268126C9A422AD10069A6
:1015D00000B30268126C9A4224D10069D0B102684B
:1015E000126C9A421ED10069A0B10268126C9A4234
:1015F00018D1006970B10268126C9A4212D1006968
:1016000040B10268126C9A420CD1006910B10368B3
:101610001B6C9847002384F8F830C4F8F43010BDF0
:101620009847AEE79047002384F8F830C4F8F430C8
:1016300010BD9047A5E700BF0D05000001050000A3
:101640000268002A3CD01369013B1361002B37D19B
:101650002DE9F0410468002C33D023681E491B6A31
:101660008B4230D122691D4E26601AB31369013BAB
:101670001361FBB92569EDB12B681B6A8B4226D13A
:101680002A692E6092B11369013B136173B92F6906
:1016900067B13B681B6A8B4238461BD140F8106B20
:1016A000FFF7CEFF384614210CF0A0FB284614218A
:1016B0000CF09CFB20461421BDE8F0410CF096BBD9
:1016C0007047BDE8F0812046BDE8F0411847284644
:1016D0009847EFE79847E9E7B10E0000782E010040
:1016E000704700BF2DE9F0430446D0F8B80087B03A
:1016F00050B30368604A5B6C934240F03B810069E1
:1017000010B30268526C9A4240F039810069D8B136
:1017100003685B6C934240F02D810069A0B10268C0
:10172000526C9A4240F02B81006968B103685B6C8F
:10173000934240F01F81006930B103685B6C9847A9
:1017400010B107B0BDE8F083A16D4C4A0B6801A849
:101750001D680223A847D4F8B8302BB11A69013AA2
:101760001A61002A00F09080059BC4F8B830002B65
:10177000E7D01A694249019101321A61059A002A9B
:10178000DFD01369013B1361002BDAD1059C002CDB
:10179000D7D022683B4B126A9A4240F0F58020690C
:1017A0002160002860D00269013A0261002A5BD101
:1017B0002569002D58D02A68126A9A4240F0ED80BF
:1017C0002869296000284BD00269013A0261002A89
:1017D00046D12E69002E43D03268126A9A4240F0F8
:1017E000E28030693160DFF898E0002834D0026987
:1017F000013A026182BB376977B33A68126A9A424A
:1018000040F0D7803869C7F800E008B30269013AB0
:101810000261EAB9D7F81080B8F1000F18D0D8F8F3
:101820000020126A9A4240F0CA80D8F81020C8F806
:1018300000104AB11369013B13612BB9D8F81000AD
:1018400010B103681B6A9847404614210CF0CEFA89
:10185000384614210CF0CAFA304614210CF0C6FAAE
:10186000284614210CF0C2FA204614210CF0BEFACE
:1018700007B0BDE8F08300BF0D0500006C3001002B
:10188000782E0100B10E0000D4F8B850002D3FF4BE
:101890006BAF2A684B4B126A9A4278D128694A4941
:1018A0002960002861D00269013A0261002A5CD1F6
:1018B0002E69002E59D03268126A9A426AD1306974
:1018C000316000284DD00269013A0261002A48D1F6
:1018D0003769002F45D03A68126A9A4260D1386958
:1018E0003960DFF8E4E0002837D00269013A02618C
:1018F0009ABBD7F81080B8F1000F2ED0D8F800208E
:10190000126A9A4252D1D8F81000C8F800E000B329
:101910000269013A0261E2B9D8F81090B9F1000FFA
:1019200017D0D9F80020126A9A4245D1D9F8102070
:10193000C9F800104AB11369013B13612BB9D9F8FA
:10194000100010B103681B6A9847484614210CF038
:101950004DFA404614210CF049FA384614210CF097
:1019600045FA304614210CF041FA284614210CF0B7
:101970003DFAF9E6984700287FF4E3AEE4E69047A5
:1019800000287FF4DEAEDFE620469047D9E6284601
:101990009047E9E630469047E7E72846904763E7F7
:1019A00038469047DDE73046904759E74046904734
:1019B000D3E7384690474FE748469047C9E7404647
:1019C000904745E7B10E0000782E0100D0F8B830FE
:1019D000002B36D01A681C49526C8A4210B5044656
:1019E0002CD1186948B303685B6C93422AD1006913
:1019F00018B30268526C9A4221D10069E8B10368B9
:101A00005B6C93421ED10069B8B10268526C9A4275
:101A100015D1006988B103685B6C984768B1236889
:101A200020461B6C98472046FFF75CFE00226FF0B3
:101A3000010384F8F920C4F8F03010BD184690472F
:101A4000ECE770479847E9E70D0500002DE9F04302
:101A5000064683B00C461746FFF744FED6F8B8504A
:101A600004EB0414002D6AD028684D492201446B10
:101A70008C424FF0000C76D1296900295BD00B68AD
:101A8000D3F83480A04574D1D1F810E0BEF1000F36
:101A900058D0DEF80040646B444570D1DEF810E0A9
:101AA000BEF1000F4ED0DEF80030D3F83480A045F0
:101AB0006BD1DEF81040002C44D02368D3F834906A
:101AC000C14568D12469002C3CD02168CDF800C004
:101AD00063462046496B8847D6F8B850002D2ED073
:101AE0002A68304BD46A9C4232D1286938B30268E4
:101AF000D46A9C4235D1006908B30268D46A9C421A
:101B00002FD10069D8B10268D46A9C4229D10069FA
:101B1000A8B10268D46A9C4223D1006978B10268F6
:101B2000D46A9C421DD1006948B103683946DB6A1A
:101B30004FF4887211E0C46A1A4B9C4208D103B07A
:101B4000BDE8F083C46A174B9C4201D10846CEE73A
:101B5000394628464FF48872234603B0BDE8F04367
:101B600018473946F6E7CDF800C063462846A04737
:101B7000B2E7CDF800C063460846C047ACE7CDF8F1
:101B800000C063467046A047A6E7CDF800C0634694
:101B90007046C047A0E7002320460093C8479BE754
:101BA000C9040000890400002DE9F0410546806D5C
:101BB0001849036801271B6985F8F870C4B0984775
:101BC0006B68C5F8E43000218B42C5F8F4101DDDC8
:101BD0000C460E464FF02F0801E0D5F8F410ADF892
:101BE0000E404B1CC5F8F4306A4628460094029615
:101BF00001968DF80C708DF80D60ADF81080FFF730
:101C000025FFD5F8E4300134A342E6DC44B0BDE85A
:101C1000F08100BF6C3001002DE9F0410D46144603
:101C200082B000214FF4887206460DF07FFBD5F894
:101C3000F430A342C0F0BB802846FFF753FDD5F82F
:101C4000B80004EB041422014FF0000C002800F04F
:101C5000AA800768724C796BA14240F0BE8001698E
:101C6000002900F0AE800B68D3F83480A04540F026
:101C7000CB80D1F810E0BEF1000F58D0DEF8003074
:101C8000D3F83480A04540F0B980DEF810E0BEF112
:101C9000000F4CD0DEF80030D3F83480A04540F07F
:101CA000AD80DEF810E0BEF1000F40D0DEF800306D
:101CB000D3F83480A04540F0AD80DEF810E0BEF1EE
:101CC000000F34D0DEF80030D3F83480A04540F067
:101CD000A180DEF810E0BEF1000F28D0DEF8003061
:101CE000D3F83480A04540F09580DEF810E0BEF1D6
:101CF000000F1CD0DEF80030D3F83480A04540F04F
:101D00008980DEF810E0BEF1000F10D0DEF8003060
:101D1000D3F83480A0457DD1DEF810403CB1216875
:101D2000CDF800C063462046496B884759E0BC6A3D
:101D30003C4B9C4249D108460268946A9C4244D17B
:101D4000006900282FD00268946A9C423DD1006946
:101D500048B30268946A9C4237D1006918B302689C
:101D6000946A9C4231D10069E8B10268946A9C424D
:101D70002BD10069B8B10268946A9C4225D10069F0
:101D800088B10268946A9C421FD1006958B1026808
:101D9000946A9C4219D1006928B103684FF4887293
:101DA0009B6A31469847304602B0BDE8F0814FF457
:101DB0008872002130460DF0B9FA304602B0BDE815
:101DC000F081BC6A174B9C42EDD04FF488723146CB
:101DD000A047304602B0BDE8F081CDF800C06346B0
:101DE0008847D5F8B8000028DDD002680D4B946A0A
:101DF0009C42EAD1006900289ED1D4E7CDF800C00A
:101E000063467046C047ECE7CDF800C0634608461D
:101E1000C047E6E7002370460093C047E1E700BFF4
:101E2000C90400007D04000030B5D0F8FC50C5B0F6
:101E300004464DB923E0029BC4F8FC309DF81030F5
:101E4000D3B9D4F8FC50D5B12A4621466846FFF7ED
:101E5000E3FE94F80021002AEDD1D4F8FC30D4F848
:101E6000F4100133C4F8FC308B429DF8103028BFC9
:101E7000C4F8FC20002BE4D0284645B030BD002536
:101E8000284645B030BD00BFF0B5C5B017460A467C
:101E9000014668461D464A9E4B9CFFF7BDFE3846EC
:101EA00004A90DF097FC9DF80C30009A326033B90C
:101EB000019BBDF80E202B60228045B0F0BD4FF095
:101EC000FF33F6E700B5C5B00A4601466846FFF79E
:101ED000A3FE019845B05DF804FB00BF70B5D0F8D3
:101EE000CC30C4B00446002B4CD01D686049EA6B6E
:101EF0008A4240F0B7801A69002A00F0AB8010686F
:101F0000C66B8E4252D11069002834D00668F66B39
:101F10008E424CD1006900282DD00668F66B8E42A7
:101F200045D1006938B30668F66B8E423FD100692F
:101F300008B30668F66B8E4239D10069D8B10668DD
:101F4000F66B8E4233D10069A8B10668F66B8E42FB
:101F50002DD1006978B10668F66B8E4227D10069F1
:101F600048B10668F66B8E4221D1006918B103684A
:101F7000DB6B98471CE02E6C3E498E4275D11046B3
:101F8000002522E01D466846D4F8F0202146FFF7E0
:101F900043FE6A46D4F8F01001952046FFF756FD3F
:101FA0006FF00103C4F8F03044B070BD1046B04784
:101FB000D4F8CC300546002BE5D01A682D49166CB4
:101FC0008E424CD118690028DDD003681B6C8B420F
:101FD0003ED100690028D6D003681B6C8B4237D1F4
:101FE00000690028CFD003681B6C8B4230D1006998
:101FF0000028C8D003681B6C8B4229D100690028D7
:10200000C1D003681B6C8B4222D100690028BAD072
:1020100003681B6C8B421BD100690028B3D0036896
:102020001B6C8B4214D100690028ACD003681B6C78
:102030008B420DD100690028A5D003681B6C8B4230
:1020400006D1006900289ED003681B6C98479AE768
:10205000984798E72E6C07498E42154693D018464C
:10206000B04790E718469047A2E70025F7E700BF82
:10207000F104000001050000F0B50E46C5B00146B0
:1020800007461446684632461D46FFF7C5FD0099CF
:102090008E421AD02B4622463846FFF7EDFF2046E7
:1020A0000DF04EFC204410F8013C2F2B04D02A46A2
:1020B000094920460DF0ECFB2A46204604A90DF004
:1020C000E7FBBDF80E0045B0F0BD034BBDF80E00B8
:1020D0001B88238045B0F0BD7C300100F0B5ADF227
:1020E000144D4FF4807317466A460D460446FFF7B9
:1020F000C3FF064668460DF023FC014668460AF019
:102100004BF921480BF0E2FD2A462146C0A8FFF713
:1021100083FDC4A94FF4807280A80DF0E3FB39461B
:102120004FF48072C4A80DF0DDFBC0AA29462046FA
:10213000FFF78CFC40AA4FF4807329462046FFF736
:102140009BFF40A80DF0FCFB04EB8606014640A86F
:102150000AF022F90C480BF0B9FDB06D036840AAF3
:102160006946DB689847064650B980A94FF48072EB
:10217000C4A80DF0B7FBC0AA29462046FFF766FCAD
:1021800030460DF2144DF0BDBC0AFF1F2DE9F04F93
:10219000D0F8F0308B42C9B000F0FA8116464FF407
:1021A000807308AA04460D46FFF766FF0746D4F879
:1021B000CC00002800F088800268574B526C9A428D
:1021C00040F0EE81006900287ED00268526C9A428D
:1021D00040F0E6810069002876D00268526C9A428D
:1021E00040F0DE81006900286ED00268526C9A428D
:1021F00040F0D6810069002866D00268526C9A428D
:1022000040F0CE81006900285ED00268526C9A428C
:1022100040F0C6810069002856D00268526C9A428C
:1022200040F0BE81006900284ED00268526C9A428C
:1022300040F0B6810069002846D00268526C9A428C
:1022400040F0AE81006900283ED003685B6C98477F
:10225000002839D0D4F8CC00002835D002682F4BA4
:10226000126C9A4240F09E81006900282CD00268CE
:10227000126C9A4240F09681006928B30268126C91
:102280009A4240F08F810069F0B10268126C9A4264
:1022900040F088810069B8B10268126C9A4240F03F
:1022A0008181006980B10268126C9A4240F07A81A3
:1022B000006948B10268126C9A4240F0738100696B
:1022C00010B103681B6C984704EB870708AAB96D27
:1022D0000B6803A81F68F3B2B847D4F8CC201AB132
:1022E0001369013B1361EBB1079AC4F8CC2062B1CA
:1022F00011690B4B039301311161079929B10A69E7
:10230000013A0A61002A00F0AB80C4F8F050C4F82A
:10231000EC6049B0BDE8F08F0D050000010500003C
:10232000782E0100D4F8CC70002FDDD03B68AA498C
:102330001B6A8B4240F038813869A84B3B6000280B
:1023400000F089800269013A0261002A40F083802E
:10235000D7F81080B8F1000F7DD0D8F80020126AAD
:102360008A4240F03081D8F81000C8F800300028C8
:102370006DD00269013A0261002A68D1D8F8109044
:10238000B9F1000F63D0D9F80020126A8A4240F0F8
:102390001481D9F81000C9F80030DFF840E20028B5
:1023A00051D00269013A0261002A4CD1D9F810A03B
:1023B000BAF1000F47D0DAF80020126A8A4240F0E2
:1023C0000881DAF81000CAF800E0002837D0026966
:1023D000013A0261002A32D1DAF810B0BBF1000FE5
:1023E0002DD0DBF80020126A8A4240F0FC80DBF836
:1023F0001020CBF800307948EAB11369013B136132
:10240000CBB9DBF81020B2B113681B6A8B4240F0E5
:10241000F0801169106051B10B69013B0B6133B958
:10242000106920B1036801921B6A9847019A10460F
:1024300014210BF0DBFC584614210BF0D7FC50465E
:1024400014210BF0D3FC484614210BF0CFFC40467E
:1024500014210BF0CBFC384614210BF0C7FC43E7EA
:10246000079F002F3FF451AF3A685B49126A8A42D6
:1024700040F09D8038693B60002800F0848002694C
:10248000013A0261002A7ED1D7F81080B8F1000F1E
:1024900079D0D8F80020126A8A4240F09180D8F8AA
:1024A0001000C8F80030002869D00269013A0261C2
:1024B000002A64D1D8F81090B9F1000F5FD0D9F894
:1024C0000020126A8A4275D1D9F81000C9F800308C
:1024D000DFF808E100284ED00269013A0261002AC3
:1024E00049D1D9F810A0BAF1000F44D0DAF8002091
:1024F000126A8A426AD1DAF81000CAF800E00028AD
:1025000035D00269013A0261002A30D1DAF810B000
:10251000BBF1000F2BD0DBF80020126A8A425FD19A
:10252000DBF81020CBF800302C48E2B11369013BF6
:102530001361C3B9DBF81020AAB113681B6A8B4280
:1025400054D11169106051B10B69013B0B6133B972
:10255000106920B1036801921B6A9847019A1046DE
:1025600014210BF043FC584614210BF03FFC50465D
:1025700014210BF03BFC484614210BF037FC40467D
:1025800014210BF033FC384614210BF02FFCBCE671
:10259000D0F8EC3093427FF401AE49B0BDE8F08F43
:1025A000904755E690478FE6384698479CE6384670
:1025B0009047AAE648469047E1E74846904746E7F5
:1025C00040469047DFE74046904744E750469047F3
:1025D000D1E75046904736E7B10E0000782E010053
:1025E00058469047C3E75846904728E71046984713
:1025F000B9E7104698471EE72DE9F047054682B037
:10260000174600229846DDF82890FFF7BFFDD5F861
:10261000CC40002C6AD020684D4A466B96424FF061
:1026200000037BD1216900295CD00A68D2F834A06C
:10263000B24578D1D1F810E0BEF1000F59D0DEF8E4
:102640000020566B564573D1DEF810E0BEF1000F46
:102650004FD0DEF80020D2F834A0B2456DD1DEF8BC
:1026600010E0BEF1000F44D0DEF800305E6B56453E
:1026700068D1DEF81060002E3BD031680023009353
:102680003A463046496B8847D5F8CC40002C2DD0CF
:102690002268304B956A9D4231D1206930B302687F
:1026A000946A9C4233D1006900B30268946A9C42E8
:1026B0002DD10069D0B10268946A9C4227D100698B
:1026C000A0B10268946A9C4221D1006970B102688D
:1026D000946A9C421BD1006940B103684A46414656
:1026E0009B6A10E0856A1B4B9D4208D102B0BDE891
:1026F000F087856A174B9D4201D10846CFE74A46CD
:10270000414620462B4602B0BDE8F04718474A46EE
:102710004146234602B0BDE8F047184700933A46C9
:102720002046B047B0E700933A460846D047ABE7AB
:1027300000933A467046B047A6E700933A46704683
:10274000D047A1E700233A4670460093B0479BE785
:10275000C90400007D0400002DE9F041B2F1FF3F03
:1027600014BF16460E46ADF5487D044632460F4668
:10277000014640A89846FFF74FFACE994FF4807271
:1027800088A80DF0AFF8D4F8F450BDF80E31419A96
:10279000ADF81E32691C0023C4F8F4108593294655
:1027A00001238692204684AA84968DF81C828DF897
:1027B0001D32FFF74BF9314640AA20464195FFF7FD
:1027C00045F9B8F1000F09D1204602222946FFF74A
:1027D000DDFC28460DF5487DBDE8F081204604EB80
:1027E00087046A4629464FF48073FFF745FCA06DC5
:1027F000036869469B68984728460DF5487DBDE803
:10280000F08100BF2DE9F04FB2F1FF3F14BF164633
:102810000E46ADF50D7D01460446324604A8FFF78D
:10282000FBF99DF81C3013B19DF81D201AB10DF570
:102830000D7DBDE8F08F20463146FFF7A7FCD4F8A8
:10284000CC000028F3D00368DFF87C835B6C434541
:102850005CD100690028EAD003685B6C434555D120
:1028600000690028E3D003685B6C43454ED10069E2
:102870000028DCD003685B6C434547D10069002821
:10288000D5D003685B6C434540D100690028CED0A9
:1028900003685B6C98470028C9D0DFF82493DFF801
:1028A0002CB30025D4F8CC10002931D00B681B6D57
:1028B0005B4540F08882096951B30B681B6D5B452D
:1028C00040F08182096919B30B681B6D5B4540F0CC
:1028D0007A820969E1B10B681B6D5B4540F0738238
:1028E0000969A9B10B681B6D5B4540F06C820969F1
:1028F00071B10B681B6D5B4540F06582096939B1A8
:102900000B6800221B6D48A898470CE09847C2E767
:1029100000234FF47A72CDF820918DF824318DF890
:102920002C314C934A92D4F8E020002A49D0136904
:10293000013B1361002B44D1D4F8E070002F40D04C
:102940003B689E481B6A834240F04E823A69C7F852
:10295000009092B31369013B136173BBD7F810A0C9
:10296000BAF1000F29D0DAF800301B6A834240F038
:102970002283DAF81020924BCAF80030CAB11369EA
:10298000013B1361ABB9DAF8103093B11A68126ADF
:10299000824240F019831969C3F8009029B10A698D
:1029A000013A0A61002A00F02B82184614210BF02C
:1029B0001DFA504614210BF019FA384614210BF079
:1029C00015FA4C9BC4F8E030002B50D01A69013244
:1029D0001A614C9ACDF82091002A48D01369013B26
:1029E0001361002B43D14C9F002F40D03B687348AC
:1029F0001B6A834240F0F5813A69714B3B6092B3A8
:102A00001369013B136173BBD7F810A0BAF1000F33
:102A100029D0DAF800301B6A834240F0CF82DAF81E
:102A20001020674BCAF80030CAB11369013B13612B
:102A3000ABB9DAF8103093B11A68126A824240F0EA
:102A4000C0821969C3F8009029B10A69013A0A6184
:102A5000002A00F04482184614210BF0C7F95046B2
:102A600014210BF0C3F9384614210BF0BFF9D4F848
:102A7000E000002800F0938003685B6C434540F061
:102A80009B800069002800F08A8003685B6C4345E6
:102A900040F092800069002800F0818003685B6C40
:102AA000434540F089800069002878D003685B6C5A
:102AB000434540F081800069002870D003685B6C5A
:102AC000434579D10069002869D003685B6C4345B0
:102AD00072D10069002862D003685B6C43456BD1FA
:102AE000006900285BD003685B6C434564D10069D2
:102AF000002854D003685B6C984700284FD0D4F866
:102B0000E030BDF81E2048964A95ADF82E21002BE6
:102B100000F0138119682B4AC96C914258D1186989
:102B2000002800F00A810168C96C914251D1006906
:102B3000002800F002810168C96C914249D1006906
:102B4000002800F0FA800168C96C914241D1006907
:102B5000002800F0F2800168C96C914239D1006907
:102B6000002800F0EA800168C96C914231D1006907
:102B7000002800F0E2800168C96C914229D1006907
:102B8000002800F0DA800168C96C914221D1006907
:102B9000002800F0D2800368DB6C98471AE001231C
:102BA0003146204604AA05958DF81D30FEF74EFFEC
:102BB0000DF50D7DBDE8F08F98479EE7B10E000042
:102BC000782E01002D0500000D05000039050000DC
:102BD000184688478DF82C01D4F8E030002800F022
:102BE000AF800020002249908DF82D21002B00F0AD
:102BF000E88019687E4A896C914240F0DE8018694D
:102C0000002800F0DE8003689B6C934238D1006995
:102C1000002800F0D68003689B6C934230D1006995
:102C2000002800F0CE8003689B6C934228D1006995
:102C3000002800F0C68003689B6C934220D1006995
:102C4000002800F0BE8003689B6C934218D1006995
:102C5000002800F0B68003689B6C934210D1006995
:102C6000002800F0AE8003689B6C934208D1006995
:102C7000002800F0A68003689B6C9847014601E09D
:102C8000984701464FF480724CA80CF02BFED4F804
:102C9000F4506B1C2046C4F8F430294648AAFEF7CD
:102CA000D5FED4F8E00000283FF4FCAD0268514B9B
:102CB000126C9A423FD1006900283FF4F3AD0268DC
:102CC000126C9A4237D1006900283FF4EBAD0268DC
:102CD000126C9A422FD1006900283FF4E3AD0268DC
:102CE000126C9A4227D1006900283FF4DBAD0268DC
:102CF000126C9A421FD1006900283FF4D3AD0268DC
:102D0000126C9A4217D1006900283FF4CBAD0268DB
:102D1000126C9A420FD1006900283FF4C3AD0268DB
:102D2000126C9A4207D1006900283FF4BBAD0368DA
:102D30001B6C9847B6E59047B4E500228DF82C212E
:102D4000002B49D019682C4AC96B91423FD11869B0
:102D500048B30168C96B91423AD1006918B3016860
:102D6000C96B914234D10069E8B10168C96B9142E5
:102D70002ED10069B8B10168C96B914228D10069B0
:102D800088B10168C96B914222D1006958B10168CC
:102D9000C96B91421CD1006928B10368DB6B98476D
:102DA000D4F8E0301EE700228DF82D2119684992F1
:102DB000896C0F4A91423FF422AF1846884701467A
:102DC00060E70E495EE7002248A89847ABE5184641
:102DD0008847D4F8E03005E749938DF82D3107494D
:102DE00050E73846984742E638469847E9E500BF3D
:102DF0001905000001050000F1040000702F01001A
:102E00001A69002A3FF4D1AD1168096A814240F085
:102E1000E380D2F810E0C2F80090BEF1000F57D066
:102E2000DEF810100139CEF81010002950D11169C8
:102E3000009100294CD000990968096A814240F04C
:102E4000D7800099D1F810E0C1F80090BEF1000FD2
:102E500036D0DEF810100139CEF8101081BB009981
:102E6000D1F810C0BCF1000F2AD0DCF80010096ABC
:102E7000814240F0CB80DCF81000CCF80090B8B173
:102E8000016901F1FF3EC0F810E0BEF1000F0FD163
:102E9000DCF8100060B1D0F800E0CDF80CC0029270
:102EA0000193DEF820309847DDF80CC0029A019BB0
:102EB00002926046142101930AF098FF019B029A46
:102EC00000980292142101930AF090FF019B029A4C
:102ED0000093104614210AF089FF009B65E51A69EA
:102EE000002A3FF4B8AD1168096A81426FD1D2F867
:102EF00010E0C2F80090BEF1000F55D0DEF81010BF
:102F00000139CEF8101000294ED111690091002925
:102F10004AD000990968096A814262D10099D1F8C2
:102F200010E0C1F80090BEF1000F35D0DEF81010AF
:102F30000139CEF8101079BB0099D1F810C0BCF15E
:102F4000000F29D0DCF80010096A814257D1DCF863
:102F50001000CCF80090B8B1016901F1FF3EC0F853
:102F600010E0BEF1000F0FD1DCF8100060B1D0F816
:102F700000E0CDF80CC002920193DEF820309847B3
:102F8000DDF80CC0029A019B029260461421019365
:102F90000AF02CFF019B029A0098029214210193DF
:102FA0000AF024FF019B029A0093104614210AF0B4
:102FB0001DFF009B4FE550469847FEE4504698475A
:102FC00051E5184690474AE518469047F1E40093CA
:102FD00010468847009B3EE5009310468847009BBB
:102FE000E3E40292019300988847029A019BDBE791
:102FF0000292019300988847029A019B68E7029227
:10300000019360468847029A019BC5E702920193AB
:1030100060468847029A019B52E700BF30B5B2F183
:10302000FF3F14BF15460D460446C5B02A46FFF7BC
:10303000E9FB012384F800312A4621466846FEF761
:10304000EBFD019BC4F8FC3045B030BD90F8F83082
:10305000012270B5054680F8F9200E4673B1D5F807
:10306000F43053B10024224631462846FFF7CAFB0C
:10307000D5F8F4300134A342F5D870BDFEF794FDC5
:10308000EDE700BF10B590F8F83082B004468BB180
:103090002AB1204602B0BDE81040FFF7BFBF94F848
:1030A000F93073B10022012384F80021C4F8FC3008
:1030B00002B010BD8DE80600FEF776FD9DE8060023
:1030C000E6E72046FFF7C2FFECE700BFF0B5ADF63C
:1030D000740D4FF4807304460E4644AAFEF7CCFFED
:1030E0003246214684A8FEF797FD849A2146C8A857
:1030F000FEF792FD84A94FF488720DF5866009F001
:103100004BF8C8A90DF5A8604FF4887209F044F88F
:103110009DF81C320BB3859D9DF81D32D5B1002B57
:1031200000F09D802A4621460DF5EC60FEF774FD07
:1031300023682946DB6B20469847DDF86857002D49
:10314000F0D123683146DB6B2046984701200DF60D
:10315000740DF0BD002B00F08280C99FBE4274D078
:1031600068463A462146FEF757FD69460DF5CA60A6
:103170004FF4887209F010F8BDF81E329F4240F2F9
:103180008380DDF85856AE4205D17DE0DDF8583633
:103190009E4210D01D462A4621466846FEF73CFD59
:1031A0004FF4887269460DF5CA6008F0F5FFBDF866
:1031B0001E32AB42EAD34FF488720DF5CA610DF5A9
:1031C000EC6008F0E9FF869BCDF858360DF5CA6231
:1031D00029462046FEF73AFC9DF81C32EBB1BDF8BB
:1031E0001E3204EB830344A9986D03685B6998471A
:1031F00007463146F7B90DF586622046FEF726FCF4
:103200000DF5A862DDF830142046FEF71FFC002DF6
:1032100030D128460DF6740DF0BDBDF81E3204EB1A
:10322000830344A9986D03681B6998470746314694
:10323000002FE0D02046002384AA8DF82032FEF72C
:1032400005FC01200DF6740DF0BD869B8499C99391
:10325000C8AA2046FEF7FAFB4FF0FF35BCE732461E
:10326000BDF81E122046FFF7CDFA859D002D7FF494
:1032700059AF66E7204629460DF5EC62FEF7E6FBFE
:1032800038460DF6740DF0BD3D4694E74B1C01D059
:10329000FFF71CBF012070472DE9F04F00EB8101C3
:1032A0000646496D0868ADF62C0D04681F46684651
:1032B0000023A047049B002B00F013821A689C4D4A
:1032C000526CAA4240F0BC811869002800F01081BD
:1032D0000268526CAA4240F0B4810069002800F0F4
:1032E00007810268526CAA4240F0AB810069002855
:1032F00000F0FE800268526CAA4240F0A281006990
:10330000002800F0F5800268526CAA4240F09981D2
:103310000069002800F0EC800268526CAA4240F07C
:1033200090810069002800F0E3800268526CAA4294
:1033300040F087810069002800F0DA8003685B6C48
:1033400098470446002C00F0F08306EB870605A89A
:10335000716DDDF850280B681C680223A04709989E
:10336000002800F0718103685B6CAB4240F0518231
:103370000069002800F0688103685B6CAB4240F094
:1033800048820069002800F05F8103685B6CAB42F3
:1033900040F03F820069002800F0568103685B6CB2
:1033A000AB4240F036820069002800F04D8103688E
:1033B0005B6CAB4240F02D820069002800F0448134
:1033C00003685B6CAB4240F024820069002800F087
:1033D0003B8103685B6CAB4240F01B8200690028B4
:1033E00000F0328103685B6CAB4240F012820069EE
:1033F000002800F0298103685B6CAB4240F0098231
:103400000069002800F0208103685B6CAB4240F04B
:1034100000820069002800F0178103685B6C984700
:10342000002800F01181434D4FF0FF34049B002B26
:1034300000F0FD8219680A69AA4240F0F1821A6917
:10344000002A00F0F08210680669AE4240F03C822B
:103450001069002800F0DF8106683669AE4240F04E
:1034600034820069002800F0D68106683669AE42D1
:1034700040F02B820069002800F0CD810668366993
:10348000AE4240F022820069002800F0C481066844
:103490003669AE4240F019820069002800F0BB8115
:1034A00006683669AE4240F010820069002800F0DC
:1034B000B28106683669AE4240F007820069002892
:1034C00000F0A98106683669AE4240F0FE810069CD
:1034D000002800F0A08106683669AE4240F0F58110
:1034E0000069002800F0978103681B699847EDE1A7
:1034F000114E009600241A69013A1A6192B9049D8E
:1035000085B12B680D4A1B6A934240F0D882296925
:103510002E6019B10B69013B0B618BB12846142158
:103520000AF064FC20460DF62C0DBDE8F08F00BFBC
:103530000D05000095040000782E0100B10E00007A
:103540002F69002FEAD03B681B6A934240F0C88283
:1035500039693E6000296ED00B69013B0B61002B7D
:1035600069D1D7F81080B8F1000F64D0D8F80030D6
:103570001B6A934240F0C782D8F81010C8F8006068
:10358000002954D00B69013B0B61002B4FD1D8F8B7
:103590001090B9F1000F4AD0D9F800301B6A93425D
:1035A00040F0B482D9F81010C9F8006000293AD070
:1035B0000B69013B0B61002B35D1D9F810A0BAF192
:1035C000000F30D0DAF800301B6A934240F0A78237
:1035D000DAF81010CAF8006009B30B69013B0B61FF
:1035E000EBB9DAF810B0BBF1000F18D0DBF80030FF
:1035F0001B6A934240F09682DBF81020CBF8006003
:103600004AB11369013B13612BB9DBF8100010B10B
:1036100003681B6A9847584614210AF0E7FB504696
:1036200014210AF0E3FB484614210AF0DFFB404670
:1036300014210AF0DBFB384614210AF0D7FB6DE7B2
:103640001846904704467DE6049800284FD003684A
:103650009A491B6C8B4240F0D8800069002846D004
:1036600003681B6C8B4240F0D080006900283ED07C
:1036700003681B6C8B4240F0C8800069002836D07C
:1036800003681B6C8B4240F0C080006900282ED07C
:1036900003681B6C8B4240F0B880006938B3036844
:1036A0001B6C8B4240F0B180006900B303681B6C57
:1036B0008B4240F0AA800069C8B103681B6C8B4242
:1036C00040F0A380006990B103681B6C8B4240F00E
:1036D0009C80006958B103681B6C98470024099BC3
:1036E00007E01C4620460DF62C0DBDE8F08F099B27
:1036F0000024734E0596002B00F081801A69013A70
:103700001A61002A7BD1099D002D78D02B686D4A63
:103710001B6A934240F0E78129692E6000296AD034
:103720000B69013B0B61002B65D12F69002F62D023
:103730003B681B6A934240F0E38139693E6000298F
:1037400055D00B69013B0B61002B50D1D7F810808D
:10375000B8F1000F4BD0D8F800301B6A934240F00C
:10376000D881D8F81010C8F80060554800293AD020
:103770000B69013B0B61002B35D1D8F81090B9F1E2
:10378000000F30D0D9F800301B6A934240F0C4815A
:10379000D9F81010C9F8000009B30B69013B0B619F
:1037A000EBB9D9F810A0BAF1000F18D0DAF8003050
:1037B0001B6A934240F0BE81DAF81020CAF800601C
:1037C0004AB11369013B13612BB9DAF8100010B14B
:1037D00003681B6A9847504614210AF007FB4846C5
:1037E00014210AF003FB404614210AF0FFFA384680
:1037F00014210AF0FBFA284614210AF0F7FA049B78
:103800000096002B7FF477AE8CE698470024099B46
:103810006FE7984704E60D6C28498D4240F06681B9
:10382000104603681B6C8B4240F0588100690028E9
:1038300000F0FD8003681B6C8B4240F04F810069F3
:10384000002800F0F48003681B6C8B4240F0468136
:103850000069002800F0EB8003681B6C8B4240F08D
:103860003D810069002800F0E28003681B6C8B42F8
:1038700040F034810069002800F0D98003681B6C97
:103880008B4240F02B810069002800F0D080036853
:103890001B6C8B4240F022810069002800F0C78039
:1038A00003681B6C8B4240F019810069002800F00E
:1038B000BE8003681B6C9847B9E000BF010500009B
:1038C000782E0100B10E00001046B0470028049B7E
:1038D00054DD002B56D01968864A8C6A94423ED13A
:1038E000186900284ED001688C6A944238D100696A
:1038F000002847D001688C6A944231D100690028C1
:1039000040D001688C6A94422AD10069002839D0DD
:1039100001688C6A944223D10069002832D0016882
:103920008C6A94421CD1006960B301688C6A94422D
:1039300016D1006930B301688C6A944210D10069D5
:1039400000B301688C6A94420AD10069D0B103685F
:103950004FF400629B6A0AA99847024605E01846A0
:103960004FF400620AA9A0470246141E05DB09981D
:1039700070B9B4F5006FBFF659AD049B002B40F051
:10398000A48054E00998002800F09C80002214468E
:103990000168594BCE6A9E423FD100690028E8D0A9
:1039A0000168CE6A9E4238D100690028E1D00168E2
:1039B000CE6A9E4231D100690028DAD00168CE6A11
:1039C0009E422AD100690028D3D00168CE6A9E4267
:1039D00023D100690028CCD00168CE6A9E421CD158
:1039E00000690028C5D00168CE6A9E4215D10069E1
:1039F0000028BED00168CE6A9E420ED10069002820
:103A0000B7D00168CE6A9E4207D100690028B0D0C5
:103A100003680AA9DB6A9847ABE70AA9B047A8E799
:103A20001846904752E70D6C344A95425ED1099B87
:103A3000002B41D01A683149126C8A4239D1186979
:103A4000002839D00268126C8A4233D100690028FC
:103A500032D00268126C8A422CD1006900282BD027
:103A60000268126C8A4225D1006928B30268126C80
:103A70008A421FD10069F8B10268126C8A4219D1DA
:103A80000069C8B10268126C8A4213D1006998B10A
:103A90000268126C8A420DD1006968B10268126C2A
:103AA0008A4207D1006938B103681B6C9847099BAB
:103AB00002E018469047099BE443E40F19E62846C4
:103AC00098472FE50446002B32D01A680B49156C35
:103AD0008D420BD118690028A9D0A2E69847A6E725
:103AE000384698471AE52846984788E61846A84772
:103AF0009DE700BF7D04000089040000010500006F
:103B00003846984777E64046984794E548469847B0
:103B10008DE5404698476AE64846984763E6504632
:103B2000984780E55846984779E5049B034E67E639
:103B30001C46C1E75046984751E600BF782E010069
:103B40002DE9F0418846ADF5A76DB3F1FF3F14BFF5
:103B50001F46174601460446424682A8FEF75CF817
:103B60003A462146C6A8FEF757F89DF81462002E83
:103B700042D186A94FF480720DF587600BF0B2FE3A
:103B8000D4F8F450BDF82603C79BADF836046A1C80
:103B9000C4F8F42029460DF585622046CDF830346E
:103BA000CDF82874CDF82C648DF834648DF8356424
:103BB000FDF74CFFC6AA39462046C795FDF746FFDC
:103BC000414602AA4FF480732046FEF755FA42AEF2
:103BD0000746294632464FF480732046FEF74CFADA
:103BE0000096034602AA3946201DFFF755FB2846DA
:103BF0000DF5A76DBDE8F081BDF8161242462046CE
:103C00000131FEF7FFFD9DF814322068BDF8261340
:103C100086AA0033009218BF01233A46C56A20469F
:103C2000A8472368BDF826235E6D05460346414636
:103C30002046B04728460DF5A76DBDE8F08100BFCE
:103C40002DE9F04F0446ADF24C6DB3F1FF3F14BFC8
:103C50009846904682A80A462146FDF7DDFF424677
:103C60002146C6A8BDF81692FDF7D6FF839E002E0A
:103C700069D0002542AF04F1040A19E0BDF84635C9
:103C800004EB8303986D03689B6898473246494666
:103C90002046FEF7B7FD2368BDF82623D3F854B0BD
:103CA00031462B462046D847DDF83064002E3FD001
:103CB000324621460DF58560FDF7AEFF4FF4887260
:103CC0000DF585610DF5A76008F066FACDF8405551
:103CD000D4F8F450BDF82633ADF846356A1CC4F864
:103CE000F42029460DF5A7622046CDF83885FDF76A
:103CF000ADFE4FF4807302AA31462046FEF7BCF9B0
:103D000029464FF480733A462046FEF7B5F99DF8F0
:103D10004435394602AA5046002BAFD1BDF846358E
:103D200000974946FFF7B8FADDF83064002EBFD19E
:103D300020464146C6AAC795FDF788FE01200DF230
:103D40004C6DBDE8F08F3546F2E700BF2DE9F0413C
:103D50001D4600EB83030446586D069E03680F461C
:103D60009B6831469046984708B9BDE8F0810696B1
:103D70002B46424639462046BDE8F04100F000B8E7
:103D80002DE9F04F00EB810A8846DAF85410ADF5C2
:103D9000157D8146086802930468039200230AA8EF
:103DA000A0470E9B002B00F0A0841A68734E526C43
:103DB000B24240F06A811869002800F0BD800268B4
:103DC000526CB24240F062810069002800F0B48079
:103DD0000268526CB24240F059810069002800F03C
:103DE000AB800268526CB24240F0508100690028FA
:103DF00000F0A2800268526CB24240F04781006934
:103E0000002800F099800268526CB24240F03E8176
:103E10000069002800F090800268526CB24240F0C5
:103E200035810069002800F0878003685B6C984743
:103E30000446002C00F0B484DFF850B154AC4FF4C9
:103E40008072039914A80BF04DFD14A80BF078FDB7
:103E500014AB184410F8013C2F2B05D04FF480729E
:103E6000474914A80BF014FD4FF480729E99204628
:103E70000BF038FD20460BF063FD204410F8013CA8
:103E80002F2B05D04FF480723D4920460BF000FDEA
:103E90000E99002900F05B810B683A4A1B6D934232
:103EA00040F068810969002900F051810B681B6DA1
:103EB000934240F05F810969002900F048810B6856
:103EC0001B6D934240F056810969002900F03F8143
:103ED0000B681B6D934240F04D810969002900F089
:103EE00036810B681B6D934240F0448109690029BB
:103EF00000F02D810B681B6D934240F03B810969F6
:103F0000002900F024810B681B6D934240F0328140
:103F10000969002900F01B810B681B6D934240F07A
:103F200029810969002900F012810B680FAD1B6D12
:103F300028460022984721E1DFF850B0CDF828B09C
:103F400000241A69013A1A619AB90E9D8DB12A6846
:103F50000D4B126A9A4240F0D5832969C5F800B02A
:103F600019B10A69013A0A6192B12846142109F08F
:103F70003DFF20460DF5157DBDE8F08F0D050000D5
:103F80007C30010039050000B10E0000782E0100E0
:103F90002E69002EE9D03268126A9A4240F0BD8341
:103FA0003169C6F800B000296AD00A69013A0A618D
:103FB000002A65D13769002F62D03A68126A9A42A6
:103FC00040F0B9833969C7F800B0002954D00A69B4
:103FD000013A0A61002A4FD1D7F81080B8F1000FDA
:103FE0004AD0D8F80020126A9A4240F0AF83D8F83D
:103FF0001010C8F800B000293AD00A69013A0A61E5
:10400000002A35D1D8F81090B9F1000F30D0D9F886
:104010000020126A9A4240F0AD83D9F81010C9F816
:1040200000B009B30A69013A0A61EAB9D9F810A0E7
:10403000BAF1000F18D0DAF80020126A9A4240F064
:104040009C83DAF81020CAF800B04AB11369013B2A
:1040500013612BB9DAF8100010B103681B6A984796
:104060005046142109F0C2FE4846142109F0BEFE54
:104070004046142109F0BAFE3846142109F0B6FE74
:104080003046142109F0B2FE6FE718469047044607
:10409000CFE6C5F800B01369013B1361002B56D180
:1040A0002C69002C53D02268304B126A9A4240F09F
:1040B0003A832169C4F800B02D48002943D00A6929
:1040C000013A0A61002A3ED12569002D3BD02A68B9
:1040D000126A9A4240F032832969286000292ED062
:1040E0000A69013A0A6152BB2E6946B33268126A04
:1040F0009A4240F036833169C6F800B01C48D1B10D
:104100000A69013A0A61B2B93769A7B13A68126A15
:104110009A4240F029833A69386042B11369013B01
:10412000136123B9386910B103681B6A9847384690
:10413000142109F05BFE3046142109F057FE284691
:10414000142109F053FE2046142109F04FFEDAF83D
:104150005400039903685B6998470E9B0446CDF8A9
:1041600028B0002B7FF4EDAE03E700BFB10E0000D6
:10417000782E01000FAD2846002298472A69002AB0
:10418000E5D013685B6CB34240F09682106900285A
:104190003FF47FAF0168496CB14240F098820069FA
:1041A00000283FF476AF03685B6CB34240F0858231
:1041B000006900283FF46DAF03685B6CB34240F0C8
:1041C0007C82006900283FF464AF03685B6CB342F3
:1041D00040F07382006900283FF45BAF03685B6CBA
:1041E000B34240F06A82006900283FF452AF03688E
:1041F0005B6C9847002800F0CC822869002800F00A
:1042000059820268AE4B926C9A4240F05882006923
:10421000002800F04F820268926C9A4240F04F8270
:104220000069002800F046820268926C9A4240F0D1
:1042300046820069002800F03D820268926C9A4232
:1042400040F03D820069002800F034820268926CE0
:104250009A4240F034820069002800F02B82026804
:10426000926C9A4240F02B820069002800F0228272
:1042700003689B6C984701464FF4807214A80BF0BA
:1042800007FB2869002800F0138202688C4B926CAF
:104290009A4240F019820069002800F00982026801
:1042A000926C9A4240F010820069002800F000826F
:1042B0000268926C9A4240F007820069002800F080
:1042C000F7810268926C9A4240F0FE8100690028F2
:1042D00000F0EE810268926C9A4240F0F58100692C
:1042E000002800F0E5810268926C9A4240F0EC816F
:1042F0000069002800F0DC8103689B6C9847014648
:104300004FF4807220460BF0C3FA2869002800F0B1
:104310003F8102686B4BD26C9A4240F0D3810069B6
:10432000002800F035810268D26C9A4240F0CA81C0
:104330000069002800F02C810268D26C9A4240F09B
:10434000C1810069002800F023810268D26C9A4282
:1043500040F0B8810069002800F01A810268D26C30
:104360009A4240F0AF810069002800F01181026894
:10437000D26C9A4240F0A6810069002800F00881C2
:104380000368DB6C9847002800F002810094029BD0
:1043900014AA41464846FFF7D9FC002800F00981DD
:1043A0002A69C5F800B04849002A3FF448AD1369AE
:1043B000013B1361002B7FF442AD2D69002D3FF4CA
:1043C0003EAD2A68414B126A9A4240F082812869C8
:1043D0002960002800F0D7800269013A0261002AB2
:1043E00040F0D1802F69002F00F0CD803A68126A2A
:1043F0009A4240F0728138693960002800F0BF802D
:104400000269013A0261002A40F0B9803A69002A43
:1044100000F0B5801168096A994240F06C81D2F8C9
:1044200010E0C2F800B02848BEF1000F00F0A380F1
:10443000DEF810100139CEF81010002940F09B80F2
:1044400011690491002900F0968004990968096AAD
:10445000994240F05A810499D1F810E00860BEF109
:10446000000F00F08280DEF810100139CEF8101035
:1044700000297AD1049909690591002975D0059818
:104480000168096A994240F05181D0F810E0C0F803
:1044900000B00D48BEF1000F61D0DEF810100139F8
:1044A000CEF8101000295AD1059909690691002902
:1044B00055D006990968096A994240F0428107E09F
:1044C000190500002D050000782E0100B10E000036
:1044D0000699D1F810E00860BEF1000F39D0DEF87F
:1044E00010100139CEF81010002932D1069909694F
:1044F000079171B307990968096A994240F02C81C4
:104500000799D1F810E00860BEF1000F1BD0DEF86B
:1045100010100139CEF81010A9B90799096991B1A5
:104520000868006A9842864640F02A810846099247
:1045300040F810BB0891FDF783F80899084614214C
:1045400009F054FC099A07980892142109F04EFCCE
:10455000089A06980792142109F048FC079A0598D2
:104560000692142109F042FC069A0498059214213F
:1045700009F03CFC059A1046142109F037FC384636
:10458000142109F033FC2846142109F02FFC56E4CD
:104590000094029B14AA41464846FEF77DFE40B1B6
:1045A000DAF85400036814A91B69984700287FF4BF
:1045B000F7AE2A69C5F800B07B49002A75D01369A7
:1045C000013B1361002B70D12C69002C6DD0226847
:1045D000764B126A9A4240F0A3802069216000283D
:1045E0005FD00269013A0261002A5AD12569002D83
:1045F00057D02A68126A9A4240F08C802869296054
:1046000000284AD00269013A0261002A45D12E6988
:10461000002E42D03268126A9A4240F09A80316984
:10462000C6F800B06048002933D00A69013A0A612F
:104630007ABB37696FB33A68126A9A4240F0978042
:104640003969386009B30A69013A0A61EAB9D7F8E9
:104650001080B8F1000F18D0D8F80020126A9A42E2
:1046600040F09480D8F81020C8F800B04AB113691F
:10467000013B13612BB9D8F8100010B103681B6A15
:1046800098474046142109F0B1FB3846142109F03F
:10469000ADFB3046142109F0A9FB2846142109F08E
:1046A000A5FB2046142109F0A1FB0E9B002456E532
:1046B0003F4925E63E49DFE5104698479AE5904791
:1046C0000146D9E590475EE69047014618E68847DF
:1046D00090E528469047FFF7B2BB384690472846FA
:1046E000142109F083FBFFF7AABB1C4620460DF5F9
:1046F000157DBDE8F08F104688473846142109F033
:1047000075FB40E72846904733E4059204988847B4
:10471000059A30E728469047C3E73046904724E49F
:1047200020469047C1E72046904710E5069205983D
:104730008847069A19E738469047A1E428469047EB
:1047400001E5079206988847079A08E74046904790
:1047500092E430469047A0E7089207988847089A65
:10476000F7E630469047EAE438469047E3E43846B7
:1047700090478EE7484690477AE45046904773E466
:104780000892084673469847089ADCE640469047E8
:104790007BE72A69C5F800B0002A3FF4D8AC7AE478
:1047A0000E9BDFF804B0DAE4782E0100B10E0000B1
:1047B000702F01002DE9F0410E46ADF6882DB3F1C2
:1047C000FF3F14BF1F461746044601463246C6A89F
:1047D000FDF722FA3A4621460DF58560FDF71CFAF1
:1047E000C69A21460DF5A760FDF716FA9DF8243309
:1047F00023B19DF82533002B00F0CC804FF4887254
:10480000C6A90DF5C96007F0C7FC4FF488720DF515
:1048100085610DF5EB6007F0BFFC46AA4FF480738D
:1048200031462046FDF728FCDDF83C85464500F082
:10483000948002A842462146FDF7EEF902A94FF402
:1048400088720DF6781007F0A7FC0DF678110DF6BA
:1048500068004FF4887207F09FFCDDF88059AE4283
:1048600001D1A3E01D462A46214602A8FDF7D4F94E
:104870004FF4887202A90DF6781007F08DFC4FF402
:1048800088720DF678110DF6680007F085FCDDF8EA
:1048900080399E42E6D1C89BCDF880390DF678125A
:1048A00029462046FDF7D2F8BDF83604DDF82C3451
:1048B000ADF82603C6AA31462046C893C697CDF860
:1048C0002C64FDF7C3F80DF5856239462046FDF7E7
:1048D000BDF84FF48073314686AA2046FDF7CCFB25
:1048E000BDF85616BDF86637994242D09DF8542659
:1048F00002B386AA0092201D46AAFFF727FA0028D5
:1049000041D129460DF668022046FDF79FF80DF5C6
:10491000C96231462046FDF799F80DF5EB6239463C
:104920002046FDF793F84FF0000840460DF6882D1D
:10493000BDE8F08186AA0092201D46AAFEF7ACFCD5
:1049400080460028DDD0BDF8663704EB830446A915
:10495000A06D03681B699847E7E7C89BC699CDF827
:104960003C350DF5A7622046FDF770F84FF0FF3596
:104970009AE704EB810186AA886D036846A9DB6883
:1049800098470028BDD04FF0010840460DF6882D0D
:10499000BDE8F0813246BDF826132046FDF732FF10
:1049A000C6AA31462046FDF751F827E7454672E78B
:1049B00070B50646006803684D1EDB6929469847B6
:1049C000002400E001343068036829461B6A9847D8
:1049D0000028F7D1204670BD10B50446606818B9AC
:1049E00008F0A0F9606000B110BDFCF779FEF5E7B2
:1049F000002A2EDD2DE9F8434FF0000916460F4638
:104A00000546C84601E04E4521DD2846FFF7E4FF94
:104A10006B6833F8080BC9EB0602C0F140049442FE
:104A2000A8BF144607EB09011844224607F0B4FB5F
:104A300069680B8823449BB2402BA1440B80E2D1D0
:104A4000042008F06DFA4E45C5F80480DDDCBDE8B1
:104A5000F883704730B50B7883B0044663B30846DB
:104A60000D460AF06DFF217A01308DF8030061B325
:104A7000E3680133E3602A7832B919E0E36802336E
:104A8000E36015F8012F72B1ADF806200029F5D1C9
:104A900002220DF106012046FFF7AAFF15F8012FAB
:104AA000217A002AF0D10023ADF80430F9B1E3688F
:104AB0000233E36003B030BD027A8DF802307AB180
:104AC000C3680133C36003B030BD01220DF103019F
:104AD0002046FFF78DFF2A78217A002AD4D1E2E719
:104AE00001220DF10201FFF783FF03B030BD204624
:104AF000022201A9FFF77CFF03B030BD70B5037A35
:104B000082B004460D46ADF80410DBB1C3684FF621
:104B1000FF720233C360ADF8062002330022E36067
:104B20008DF802200133E3604DF202439D4227D00D
:104B3000237A00228DF8032083B3E3680133E36016
:104B400002B070BD022201A9FFF752FF267A4FF68C
:104B5000FF73ADF806304EBB02220DF10601204670
:104B6000FFF746FF237A8DF802600BBB01220DF19F
:104B700002012046FFF73CFF4DF202439D42D7D190
:104B80000C492046FFF766FF0A492046FFF762FFFF
:104B9000237A00228DF80320002BCED1204601225B
:104BA0000DF10301FFF724FF02B070BDE368B4E725
:104BB000E368B7E7E4300100F0B5037A91B064250B
:104BC0000446ADF80A50002B00F08680C368062228
:104BD0000233C360069204336422E360ADF8082018
:104BE0000233E3607E492046FFF734FF237A002238
:104BF000ADF80620002B00F0D080E36814220233C9
:104C0000E36005920433E3600126764D41F201032F
:104C100005F1260707E0E368BD4203F10203E36004
:104C20000DD035F8023FADF80C30002EF3D1022242
:104C300003A92046FFF7DCFEBD42267AF1D100230E
:104C40000793002E62D0E36801220433E3600A92E6
:104C500004334DF20242E360ADF812200233002229
:104C6000E360099204330222E360089204334FF4B4
:104C70004052E360ADF81020023343F20102E360DA
:104C8000ADF80E200233E36057492046FFF7E2FEFD
:104C900056492046FFF7DEFE9FED550A0BAA02217A
:104CA000032007F029FD142252490BA80AF0F0FD59
:104CB00020460BA9FFF7CEFE4F4A0BAB0DF1360095
:104CC00032F8021F03F8011B9842F9D10BA92046C4
:104CD000FFF7C0FE11B0F0BD02220DF10A01FFF78F
:104CE00087FE237A06220692002B67D1042206A9AA
:104CF0002046FFF77DFE237AADF80850002B5FD1E8
:104D0000022202A92046FFF773FE6BE7042207A9DF
:104D10002046FFF76DFE237A01220A92002B51D123
:104D200004220AA92046FFF763FE237A4DF20242CD
:104D3000ADF81220002B47D102220DF112012046BE
:104D4000FFF756FE237A0996002B3FD1042209A9CA
:104D50002046FFF74DFE237A02250895002B37D118
:104D6000042208A92046FFF743FE237A4FF440525D
:104D7000ADF8102073BB2A4604A92046FFF738FE81
:104D8000237A43F20102ADF80E202BBB2A460DF127
:104D90000E012046FFF72CFE76E702220DF10601F8
:104DA0002046FFF725FE237A14220592B3B9042288
:104DB00005A92046FFF71CFE267A26E7E3680AE7E6
:104DC000E3680DE7E36843E7E36847E7E36849E73B
:104DD000E3684BE7E3684FE7E36853E7E36811E70D
:104DE000EC300100AC30010000310100E430010082
:104DF000B81EC53F083101009C0AFF1F70B505466B
:104E00000068174A03685B68934282B024D1466801
:104E10002B7A0096D3B1EB680433EB60A6B1002483
:104E200005E0EB68A64203F10403EB600CD02B7A9B
:104E300001340194002BF4D104220DEB0201284629
:104E4000FFF7D6FDA642F2D102B070BD042269463A
:104E50002846FFF7CDFDE1E798470646D8E700BFB3
:104E60007D14000070B5037A82B0044623BB0D4662
:104E70001646FFF79DFD237A009023B3E3680433C1
:104E8000E36020680368013D3246DB6929469847A4
:104E90002068036829461B6A984790B1237A0190DD
:104EA0001BB1E3680433E360F2E704220DEB020177
:104EB0002046FFF79DFDEBE7FFF77AFD013080000C
:104EC000E06002B070BD042269462046FFF790FD05
:104ED000D7E700BFF0B50446D3B000680DF10A066D
:104EE00006AD03688DE8600012AA5F6A05ABB8479B
:104EF0003388227A01330793002A59D0E368059A50
:104F000004330132E36000F0EB800022ADF81020A2
:104F100002330022E360ADF80E200233059AE3600D
:104F20000F9204330022E360ADF80C20023300221C
:104F3000E3600E9204330022E3600D9204330022FA
:104F4000E3600C9204330022E3600B9204330022EE
:104F5000E3600A9204330022E360099204332A6872
:104F6000E3600892059AA2F1FF32B2FA82F2520986
:104F70000433E360ADF8122002330022E3601192A3
:104F800004330022E36010920433E36012A9204648
:104F9000FFF760FD20466349FFF75CFD204661494D
:104FA000FFF758FD20465F49FFF754FD53B0F0BDB1
:104FB00007A904222046FFF71BFD059B267A013333
:104FC00043F2010318BF0023ADF81030002E40F06B
:104FD000908004A902222046FFF70AFD237AADF84B
:104FE0000E60002B40F0878002220DF10E0120465A
:104FF000FFF7FEFC237A059A0F92002B7DD10FA9B3
:1050000004222046FFF7F4FC237AADF80C60002B55
:1050100075D103A902222046FFF7EAFC237A0E96F7
:10502000002B6ED10EA904222046FFF7E1FC237A63
:105030000D96002B67D10DA904222046FFF7D8FC5E
:10504000237A0C96002B60D10CA904222046FFF78E
:10505000CFFC237A0B96002B59D10BA904222046B2
:10506000FFF7C6FC237A0A96002B52D10AA9042224
:105070002046FFF7BDFC237A0996002B4BD1042272
:1050800009A92046FFF7B4FC237A2A680892002B6E
:1050900043D108A904222046FFF7AAFC059B267AE3
:1050A000A3F1FF33B3FA83F35B09ADF81230002E9E
:1050B00035D10DF1120102222046FFF799FC257A25
:1050C0001196A5B911A904222046FFF791FC237A75
:1050D000109553B910A904222046FFF789FC55E723
:1050E00043F20102ADF8102012E7E3684CE7E368F1
:1050F00046E7E3680CE7E3680FE7E36811E7E36876
:1051000014E7E36816E7E36818E7E3681AE7E3687B
:105110001CE7E3681EE7E36820E7E36822E7E3684B
:105120002AE700BF702F0100F0B5184F027A3B68E4
:1051300083B00446019312B3C2680432C260E3B183
:10514000134E4DF60143002508E0E3680233E360A7
:105150003B680135AB4210D936F8023F227AADF8F0
:105160000230002AF1D102220DEB02012046FFF7A6
:105170003FFC3B680135AB42EED803B0F0BD0422E2
:105180000DEB0201FFF734FC3B68D8E77809FF1FFD
:10519000D43001002DE9F04305460068CFB0036824
:1051A0000DF10A0605AF019600971446D3F8249036
:1051B0000EAA04AB8846C847A4F55C42338804991C
:1051C000013A5C1C432A31D8DFE802F0414B677496
:1051D00030303A3333305C30303030303030303093
:1051E00030303030303030303030303030303030BF
:1051F00030303030303030303030303030303030AF
:105200003030303030303030303030302230303AA2
:105210002B7ACDF83480002B54D0EB680433EB604C
:105220000433EB600433EB600433EB604FB0BDE854
:10523000F08328464349FFF70DFC4FB0BDE8F083EB
:105240000EA92846FFF706FC4FB0BDE8F0832B7A85
:105250000694002B5CD0EB680433EB604FB0BDE8E4
:10526000F08301312A7A43F2010318BF4FF440530F
:10527000ADF80C30002A45D0EB680233EB604FB03C
:10528000BDE8F0832B7A3A680992002BE3D109A993
:1052900028460422FFF7ACFBC8E72B7A0022ADF8C2
:1052A0000E20002BE8D10DF10E0128460222FFF757
:1052B0009FFBBBE72C7A0891002C2FD0EB680433BE
:1052C000EB60B1E704220DA92846FFF791FB2B7A8A
:1052D0003A680C92002B33D10CA904222846FFF720
:1052E00087FB2E7A0B944EBB0BA904222846FFF7AE
:1052F0007FFB2B7A0A96FBB90AA928460422FFF7FE
:1053000077FB93E703A928460222FFF771FB8DE79D
:1053100006A928460422FFF76BFB87E708A90422A9
:105320002846FFF765FB2B7A07942BB907A9284677
:105330000422FFF75DFB79E7EB6875E7EB6871E73F
:10534000EB686DE7702F01002DE9F043044600681B
:1053500003684D1E89B05B6929469847237A002867
:105360000CBF04220122ADF80620002B4CD0E368CC
:105370000233E3602068036829469B699847267AD0
:1053800000280CBF01230223ADF80A30002E5FD0A5
:10539000E36800220233E360ADF808200233E360E3
:1053A000206803682946DB6898470646206803683A
:1053B0000F461B6929469847237A80468946CDE9DE
:1053C000066743B3361AE36867EB0107CDE9046764
:1053D0000833E36008334FF0FF32E3600392043395
:1053E000E3602068274A03689B68934240D100EB42
:1053F000850081682046FFF72DFB20462249FFF7F4
:1054000029FB09B0BDE8F08302220DF10601204618
:10541000FFF7EEFAAEE7082206A92046FFF7E8FA02
:10542000B6EB0806237A67EB0907CDE904672BBBC7
:10543000082204A92046FFF7DBFA237A4FF0FF3257
:105440000392CBB9042203A92046FFF7D1FAC8E79B
:1054500002220DF10A012046FFF7CAFA237AADF8BD
:1054600008606BB9022202A92046FFF7C1FA97E74C
:10547000294698470146BDE7E368B0E7E368A9E736
:10548000E3688BE781140000702F01002DE9F043E1
:10549000A1F55C410139A5B0044643295AD8DFE89B
:1054A00011F05C006E008000C60059005900D80061
:1054B000210169015900B1015900590059005900F1
:1054C0005900590059005900590059005900590014
:1054D0005900590059005900590059005900590004
:1054E00059005900590059005900590059005900F4
:1054F00059005900590059005900590059005900E4
:1055000059005900590059005900590059005900D3
:1055100059005900590059005900590059005900C3
:105520005900F701590059004400037A4DF64442EE
:10553000ADF84620002B00F03D82E3680233E360C3
:105540000233E3600133E3600133E3600433E3607B
:105550000133E36025B0BDE8F083037A4DF60142E4
:10556000ADF81E20002B00F0AF82E3680233E36049
:105570000233E3600133E3600433E360E6E7037A78
:105580004DF60242ADF82420002B00F0D481E368F0
:105590000233E3600233E3600133E3600233E3602C
:1055A000D4E7037A4DF60342ADF82A20002BEED162
:1055B00002220DF12A01FFF71BFA277A0426ADF823
:1055C0002860002F40F0CB8202220AA92046FFF774
:1055D0000FFA257A8DF80970002D40F0BE82012265
:1055E0000DF109012046FFF703FA277AADF826509E
:1055F000002F40F0B08202220DF126012046FFF775
:10560000F7F9257A1597002D40F09382324615A9B7
:105610002046FFF7EDF9237A8DF80850002B40F073
:1056200086822046012202A9FFF7E2F992E7037A77
:105630004DF60442ADF82E20002B00F03B81C368EC
:105640000233C3600233E3600133E3600833E36095
:105650007CE7037A4DF60742ADF83220002B7FF449
:105660006CAF02220DF13201FFF7C2F9237A4FF637
:10567000FF72ADF83020002B40F0658202220CA9A9
:105680002046FFF7B5F9267A01258DF80E50002E39
:1056900040F057822A460DF10E012046FFF7A8F987
:1056A000277A8DF80D60002F40F053822A460DF1C5
:1056B0000D012046FFF79CF9267A1797002E40F03F
:1056C0003882042217A92046FFF792F9237A8DF831
:1056D0000C60002B40F02B822A46204603A9FFF7DE
:1056E00087F937E7037A4DF60842ADF83620002BEC
:1056F0007FF423AF02220DF13601FFF779F9267A04
:105700004FF6FF73ADF83430002E40F01C820222B9
:105710000DA92046FFF76CF9257A8DF81160002D50
:1057200040F00F8201220DF111012046FFF760F9D0
:10573000267A8DF81050002E40F00B82012204A929
:105740002046FFF755F9257A1896002D40F0F18193
:10575000042218A92046FFF74BF9237A8DF80F5041
:10576000002B40F0E481204601220DF10F01FFF7EC
:105770003FF9EFE6037A4DF60942ADF83A20002BE7
:105780007FF4DBAE02220DF13A01FFF731F9267A00
:105790004FF6FF73ADF83830002E40F0D48102226E
:1057A0000EA92046FFF724F9257A8DF81460002D04
:1057B00040F0C781012205A92046FFF719F9267A92
:1057C0008DF81350002E40F0C48101220DF1130119
:1057D0002046FFF70DF9257A1996002D40F0A98192
:1057E000042219A92046FFF703F9237A8DF81250F5
:1057F000002B40F09C81204601220DF11201FFF7A1
:10580000F7F8A7E6037A4DF60B42ADF83E20002BE1
:105810007FF4ABAE02220DF13E01FFF7E9F8267AE4
:105820000623ADF83C30002E40F0898102220FA9FA
:105830002046FFF7DDF8257A8DF81660002D40F040
:105840007C8101220DF116012046FFF7D1F8267A5E
:105850001B95002E40F06F8104221BA92046FFF704
:10586000C7F8257A1A96002D40F0638104221AA900
:105870002046FFF7BDF8237A8DF81550002B40F035
:105880005681204601220DF11501FFF7B1F861E6BE
:10589000037A4DF64142ADF84220002B00F0CB8058
:1058A000C3680233C3600233E3600133E36008334B
:1058B000E360CBE602220DF12E01FFF799F8267A7C
:1058C0000825ADF82C50002E40F0418102220BA992
:1058D0002046FFF78DF8237A8DF80B60002B40F0FF
:1058E000348101220DF10B012046FFF781F8267A61
:1058F00000220023CDE91E23002E40F032812A46EB
:105900001EA92046FFF774F8257A1696002D40F060
:105910001081042216A92046FFF76AF8237A8DF831
:105920000A50002B40F00381204601220DF10A01AC
:10593000FFF75EF80EE6022209A9FFF759F8277A69
:105940000426ADF82260002F40F0098102220DF1FB
:1059500022012046FFF74CF8257A8DF80770002DBC
:1059600040F0FB8001220DF107012046FFF740F8CF
:10597000277AADF82050002F40F0ED80022208A9D0
:105980002046FFF735F8257A1497002D40F0D18096
:10599000324614A92046FFF72BF8237A8DF80650DB
:1059A000002B40F0C480204601220DF10601FFF7D4
:1059B0001FF8CFE502220DF14601FFF719F8267A0C
:1059C0004FF6FF73ADF84430002E40F0BC80022249
:1059D00011A92046FFF70CF8257A8DF81B60002DE1
:1059E00040F0AF8001220DF11B012046FFF700F8C7
:1059F000267A8DF81A50002E40F0AB8001220DF16E
:105A00001A012046FEF7F4FF257A1D96002D40F07E
:105A1000908004221DA92046FEF7EAFF237A8DF824
:105A20001950002B40F08380204601220DF119010E
:105A3000FEF7DEFF8EE502220DF14201FEF7D8FFF0
:105A4000257A0A23ADF84030002D40F090800222E4
:105A500010A92046FEF7CCFF237A8DF81850002BB2
:105A600040F08380012206A92046FEF7C1FF237A79
:105A70004FF000084FF00009CDE92289002B72D1C8
:105A8000082222A92046FEF7B3FF267ACDE9208915
:105A9000002E66D1082220A92046FEF7A9FF257A0C
:105AA0001C96002D45D104221CA92046FEF7A0FF1C
:105AB000237A8DF81750002B39D1204601220DF1A1
:105AC0001701FEF795FF45E502220DF11E01FEF7D5
:105AD0008FFF267A0623ADF81C3086BB022207A969
