:1000000000000320D101000045920000FD91000096
:10001000FD910000FD910000FD910000FD910000A8
:10002000FD910000FD910000FD910000459200004F
:1000300045920000FD9100001DA4000021A50000D4
:100040004592000045920000459200004592000054
:100050004592000045920000459200004592000044
:100060004592000045920000459200004592000034
:100070004592000045920000459200004592000024
:100080004592000045920000459200004592000014
:100090004592000045920000459200004592000004
:1000A00045920000459200004592000045920000F4
:1000B0004592000045920000459200003DAB0000D3
:1000C0004592000019A900004592000035AE0000DD
:1000D0004592000045AA00004592000045920000AC
:1000E00045920000459200004592000045920000B4
:1000F00045920000459200004592000045920000A4
:100100004592000045920000459200004592000093
:10011000459200006598000045920000459200005D
:100120004592000045920000459200004592000073
:100130004592000045920000459200004592000063
:10014000459200004592000041A700004592000042
:100150004592000045920000459200004592000043
:100160004592000045920000459200004592000033
:100170004592000045920000459200004592000023
:100180004592000045920000459200004592000013
:10019000459200004592000069AC000045920000C5
:1001A00045920000459200004592000045920000F3
:1001B00045920000459200004592000045920000E3
:1001C00045920000459200004592000045920000D3
:1001D000594B4CF2205210B51A804DF628121A8055
:1001E00000BF00BF09F032F8544B4FF030621A6084
:1001F000534A9A60534ADA60534B4FF470021A60C4
:10020000524B534A1A60534B1A78110703D51A7888
:1002100042F008021A70504B5049AA221A70504AF4
:10022000504B8B4204D252F8040F43F8040BF8E70A
:100230004D4B4E4900228B4202D243F8042BFAE781
:100240004B494C4A002352F8230041F82300013364
:10025000742BF8D1484B494A802103F8011B934283
:10026000FBD1474B424A1A60464B8A221A70A3F5CB
:10027000805324225A70A0221A709A799207FCD5D2
:100280009A79D406FCD4404A937903F00C03082BE6
:100290003D4BF9D101221A7148225A719A79900680
:1002A000FCD5394A9179384B4906FBD5374A38494C
:1002B00011600221516020221A709A7902F00C021A
:1002C0000C2AFAD1334B344A1A60344A344C13683E
:1002D00013F4807303D123604FF4A8531360314BA0
:1002E000314A1A6000225A60072243F8042C2F4A30
:1002F000C3F80C2D62B609F0BFF82368DA0705D5FC
:100300002B4809F02BF82B4B2B4A1A602B4B1B78F0
:100310005B0609D5274C284B22689A4204D1244811
:1003200009F01CF8002323600BF022FC08F094FF76
:100330000AF0EAF9FEE700BF0E20054030800440D5
:10034000823F04000100002B88ED00E0002008E05F
:100350000300008502D0074000E007407014FF1F33
:10036000B40501007009FF1F7014FF1F641FFF1FF9
:100370000002FF1F0000000000E400E064E400E071
:1003800008ED00E000500640004006404480044074
:100390000000030104800440C010050010D0034099
:1003A00014D0034014E000E0FF760100000020209C
:1003B000310000001CE00340A5C3945A00F0074040
:1003C000FFFFFFFFFFFFFFFFFFFFFFFFFFFFFFFF3D
:1003D000FFFFFFFFFFFFFFFFFFFFFFFFFFFFFFFF2D
:1003E000FFFFFFFFFFFFFFFFFFFFFFFFFFFFFFFF1D
:1003F000FFFFFFFFFFFFFFFFFFFFFFFFFFFFFFFF0D
:10040000FFFFFFFFFFFFFFFFFFFFFFFFDEF9FFFF23
:1004100010B5054C237833B9044B13B10448AFF33E
:1004200000800123237010BD7014FF1F0000000026
:10043000B0050100084B10B51BB108490848AFF3DF
:1004400000800848036803B910BD074B002BFBD0A0
:10045000BDE81040184700BF000000007414FF1FE3
:10046000B00501007014FF1F00000000002070475D
:1004700038B50446094B0A4D0360C0F8A450B430A7
:1004800004F098F8656504F1640004F093F8656081
:1004900004F1140004F08EF8204638BDB8FE0000C8
:1004A000CCFC0000094B1B689B0682B00AD5084BA8
:1004B00020221A60074A084B12680192019A1A60BA
:1004C00002B07047054B20221A60F3E790F00F400E
:1004D00088F00F40E41AFF1F8C14FF1F84F00F40B8
:1004E000836C13B1184602F08FBEC06C08B101F0E6
:1004F000BFBB7047836C13B1184602F063BAC06C7F
:1005000008B100F0EBBA4FF0FF30704700B5836CD4
:1005100083B063B1184601220DF1070102F062F9C0
:1005200001280CD19DF8070003B05DF804FBC06CF6
:1005300028B101220DF1070100F0DEF9F0E74FF0DC
:10054000FF30F1E7826C62B1137803F0080303F027
:10055000FF0003B3D3695069181A48BF6FF0004019
:100560007047C16CC1B191F8313003F0080303F05A
:10057000FF0083B1D1E90423D1E90001101A30B49E
:1005800063EB010100256FF000448D4208BF8442F7
:1005900000D2204630BC70470846704700B5836CD7
:1005A00083B08DF8071043B1184601220DF1070101
:1005B00002F030FE03B05DF804FBC06C0028F9D0F7
:1005C00001220DF1070101F0CBFD03B05DF804FB42
:1005D000836C13B1184602F01DBEC06C08B101F067
:1005E000BFBD704708B50821074808F003FD07485C
:1005F0000AF018F808F0FCFB06F064FB01210D205E
:10060000BDE8084008F0C2BE0CFD0000C809FF1F8D
:1006100000B50A4883B007F0CDFD094B094A1B68B5
:100620000193019B12689B1AB3F57A7F01D9FFF7FA
:1006300039FF30BF03B05DF804FB00BF9C15FF1FFE
:10064000E41AFF1F8C14FF1FF8B51D4C1D4B1E48EC
:10065000206000254FF47A7663606365C4F8A430A7
:100660001A4A1B4925726FF0010720462574E5647C
:10067000256584F8585084F86050C4F89C50C4F83C
:10068000A05084F8A85084F8B050C4F8EC50C4F8D6
:10069000F050E660E665C4F8AC60C4F8F870C4F8E1
:1006A000F450C4F8FC5084F8005184F801510AF069
:1006B00031FC084B83E830001D72DD60F8BD00BFDF
:1006C0009014FF1FF0FC0000B8FE00007009FF1F2F
:1006D000710400009C15FF1F70B5044608460D46C6
:1006E0000CF00EF923680246294620465B68BDE8F7
:1006F0007040184738B50A2105460A480A4C08F0E8
:1007000079FC0D21094808F075FC2E2008F0F6FC54
:100710002946204609F0ECFF2046BDE8384009F0A4
:1007200081BF00BF18FD0000C809FF1F24FD0000A5
:1007300010B5044601F09CFA002384F8313084F8A7
:10074000333010BD2DE9F04300F124038146884683
:10075000154693E8070085B099F8313001AE86E878
:100760000700002B3AD099F83030012B47D90127E8
:100770000024012F0CBF402220223146D9F820004E
:1007800000F02AFF012836D100223146D9F8200096
:1007900000F0E2FE58B30378C12B28D100F11E010E
:1007A00008EB040223460134AC4210D230F8023F79
:1007B0007E2B94BFDBB23F23884202F8013B2346E5
:1007C000F1D1013799F83020FFB2BA42D1D80022D6
:1007D000184608F8032005B0BDE8F0835120FFF764
:1007E00089FF002088F8000005B0BDE8F0835C2098
:1007F000FFF780FFF5E75620FFF77CFFF1E70023C6
:10080000E5E700BF38B50D4690F8311059B90446F8
:1008100038220BF09BFD4023012084F8313084F80E
:100820003300256238BD4FF4DE70FFF763FF002010
:1008300038BD00BFF0B50878202803D111F8010FAA
:100840002028FBD051600878002851D02F282BD0C9
:100850005C2820D0A0F12204E4B21D2C1DD9DFF8C1
:1008600094E04E1C00247C28A0F12005374612D0CD
:100870005E2D10D816F8010BA0F12205EDB201345F
:1008800078B32F2811D05C282EFA05F703D01D2D40
:10089000E9D8FD07E7D50020F0BD164D25FA04F490
:1008A000E607DCD50020F0BD00240F193E462546A2
:1008B0002F2002E016F8010F01352028FAD02F284A
:1008C000F8D02944196044B1394611F8013D2E2B66
:1008D00001D0202B08D1013CF7D120461060012027
:1008E000F0BD1F600F19EFE7FF2CF6DD0020F0BD13
:1008F0001960F3E7010100352DE9F04F90F833302E
:10090000DD0783B0044640F1E48058060D461646E4
:1009100040F1A380D4E90001D4E9042310EB0608D8
:1009200041F100094B4508BF4245C0F09C80002EB4
:1009300000F09B80A146F9E80623B0464FE0134340
:100940006CD194F831305A064CBFD0F82C14E169C0
:10095000A16190F83DC4D0F8242402397F0A01FA3D
:100960000CFEB9187144BAF1000F42D1B8F5007FFE
:100970003FD3D0F8142291423BD0B8F5806F54D3C6
:10098000012303FA0CFCC7EB0C074FEA58239F42E4
:1009900028BF1F4691424FEA472B0BD87B18934242
:1009A00008D900F50370019100F088FC002877D089
:1009B000206A0199D0F8380402683B46D7682A4675
:1009C000B847002867D058460021D4E90023121800
:1009D0004B41B8EB0B085D44C4E9002345D0206AC5
:1009E000D0F830741740C7F3080A002FA7D0A169C8
:1009F000AFE700F50370002200F01AFC00283BD09E
:100A0000CAF5007BC34528BFC34600EB0A015A461E
:100A1000284608F0EFF958460021D6E794F833301D
:100A20005B060FD5A169013192E7D0F8380403685D
:100A30002A469B689847C0B34FF4007000214FF4DA
:100A4000007BC2E74A46A16900F0A0FD40B2002841
:100A500030DB34D0206AA1697BE794F83130190784
:100A60003FF558AF63E7161A61E74FF00008C8EB8F
:100A7000060003B0BDE8F08F40F25520FFF73AFEC4
:100A800094F832304FF0FF3043F0020384F83230F4
:100A900003B0BDE8F08F40F26E20FFF72BFEEFE7CA
:100AA00040F26920FFF726FEEAE740F27620FFF7E2
:100AB00021FEE5E740F23D20FFF71CFEE0E794F859
:100AC000313013F0500FD2D140F24520FFF712FE23
:100AD000D6E740F22920FFF70DFED1E7F0B583B04D
:100AE00001220DF107010446D0E900678569FFF78F
:100AF00003FF012808BF9DF80700A56118BF4FF04C
:100B0000FF30C4E9006703B0F0BD00BF2DE9F04F2E
:100B100090F831C0856983B00446BCF1000F6AD0FB
:100B2000D0E90001994208BF904216461F466FD097
:100B300056EA070307D10023A3610120C4E9006737
:100B400003B0BDE8F08F1CF0080F05D0D4E90423F2
:100B5000BB4208BFB2425FD3236A019393F83DE4DE
:100B600094F833A00EF1090E5FFA8EFE16F1FF32F3
:100B700047F1FF33CEF1200803FA08FB22FA0EF208
:100B800042EA0B02AEF1200B23FA0BF31AF0400FEE
:100B900042EA030238D110F1FF3941F1FF3A29FA54
:100BA0000EFE0AFA08F84EEA080E2AFA0BFB4EEA85
:100BB0000B0E7245534602D350EA010331D11CF0AB
:100BC000400F16BF019BE369D3F82C34A361904614
:100BD00004F118094A46B8F1000FAED0A169206AA5
:100BE00000F0D4FC08F1FF380028F3D140F2BA201D
:100BF000FFF780FD03E040F29720FFF77BFD002028
:100C0000A56103B0BDE8F08FE3691A44A26194E7DF
:100C1000012003B0BDE8F08F40F2A520FFF76AFD88
:100C2000EDE7CEEB0202D2E72DE9F04F0D4693B08F
:100C300090F831100092064629B99B4695F831305C
:100C400013F0500F0AD1CE20FFF754FD002086F894
:100C5000310086F8330013B0BDE8F08F1C9B03F021
:100C60000303012B00F00E81022B06D0002B00F0B5
:100C70000781DC20FFF73EFDE8E703231C9A02F022
:100C8000080213430193009B002B00F00181002216
:100C90001846594600F092FD002202900023284693
:100CA000FFF734FFB14A0BF10E0382FB03121A4423
:100CB000DB17C3EBE203DBB24FF0000903F1020ADA
:100CC00003935FFA8AFA4C464F4620220AA9284627
:100CD000FFF712FE00283ED0202840F0D5809DF876
:100CE00028301A0667D4002C62D12A68A9690791B6
:100CF000203A08920134E4B26BB3C02B00F092802A
:100D0000C12B63D0852BE0D13822002130460BF077
:100D10001DFB9DF82C309DF8292086F83020D80640
:100D200003F0370258BF42F0080286F831202B68E2
:100D3000296AAA697262203B3162B36295F8333046
:100D4000C3F3801386F82C3020220AA92846FFF727
:100D5000D3FD0028C0D11C9B990540F18C80019BDC
:100D60009A0740F18880009B002B00F08480544556
:100D70000DD395E0202840F0F48024B92A68A969B1
:100D80000791203A0892DCB2A24540F289802022E5
:100D90000AA92846FFF7B0FD631C0028EAD12846BF
:100DA000AF6900F099FF002800F00981AF61EBE71F
:100DB0005445A1D29EE7B9F1000F9ED1544538BFEA
:100DC0000024852B81D14FF001099DE7C7EB0B086B
:100DD0005FFA88F8B8F10F0F28BF4FF00F084346AD
:100DE0003A4600990AA800F007FD00283AD0474487
:100DF000FFB2BB457FF469AF1C9B1B054BD41C9B0A
:100E000013F4884F40F0B48096F833309F0700F118
:100E1000AF801C9B5B0540F1CD804FF4A770FFF7BE
:100E200069FC13E79DF82930019A86F83320990769
:100E300003D542F0400386F83330DDE90C23DDE9C9
:100E40001001C6E904230F9BF361009BC6E9020170
:100E5000002BD1D09DF82B305B4505D04FF0000919
:100E60004F4632E7814630E7BDF82C30029A934274
:100E7000F4D1002729E740F26310FFF73BFCE5E6D9
:100E80000123FBE60223F9E6EC20FFF733FCDDE665
:100E9000009B029306E74FF4A070FFF72BFCD5E60A
:100EA00095F833303822C3F38013002130460DF11A
:100EB0001C088DF824300BF049FA039C2B6ACDF8FE
:100EC0000CB098E8070004F10109082486F83140C5
:100ED0000BF11E0706F12404DDF800B033625FFA5F
:100EE00089F984E80700FFB200251846012241462F
:100EF00000F032FB0446002857D090F90030002B58
:100F000053DB202200210BF021FA002D00F0878016
:100F1000012D74D0C5EB05130F2FA3F11E034FF065
:100F2000C102394628BF0F21DBB2227051B1023411
:100F300009B204EB41015B4413F8012B24F8022BA6
:100F4000A142F9D10135EDB2AA4542D9202241464C
:100F5000306A00F041FB012836D10F3F306AFFB202
:100F6000C4E74FF4B970FFF7C5FB6FE6898888883E
:100F700096F8313013F0110F12D11C9B5D0519D575
:100F800096F833309C077FF548AF002200233046A7
:100F9000FFF7BCFD68BB4FF4A970FFF7ABFB55E64C
:100FA0004FF4A370FFF7A6FB50E64FF4C570FFF7B0
:100FB000A1FB4BE61C9B58040FD401204BE640F2EA
:100FC0006B10FFF797FB41E64FF4C270FFF792FBFF
:100FD0003CE6304600F04CFE3DE6D6E904233046C0
:100FE000FFF794FD0028E8D14FF4AB70FFF782FBC8
:100FF0002CE6304601F024F80028CCD0DDE7C023F1
:101000002370019B032263F03F03627086F8333044
:101010009DF80C30E370BDF80830A38092E785237B
:1010200023700C4B86F8309084F801901B68002BDD
:1010300088D00DF117020DF11A0106A898479DF806
:101040001710BDF81A20BDF8183021752281638170
:1010500078E700BFAC15FF1F2DE9F043064695B0B9
:1010600096F83140039200208DF849008DF84A002F
:101070008DF84B00002C4DD1994691F8313013F08A
:10108000500F0D4646D013782F2B114633D04FF01A
:10109000000803AB04AA3046FFF7CCFB0446002847
:1010A00040D0039B1B78002B43D09DF81030059A4D
:1010B000CDF8008029463046FFF7B6FD04460028EB
:1010C00045D0344606AF06F1300E20686168A2684C
:1010D000E3683D460FC5103474452F46F5D12068AE
:1010E0002860304600F0C4FD06AD86F8318086F8F1
:1010F00033800399CDE7013103910B782F2BFAD080
:10110000296A5BB306A8FFF77DFB044658B3039931
:1011100006ADBCE77D20FFF7EDFA0024204615B0B0
:10112000BDE8F0838F20FFF7E5FA204615B0BDE853
:10113000F0839DF81030059ACDF80090294630468E
:10114000FFF772FD0446204615B0BDE8F0839620F7
:10115000FFF7D0FA204615B0BDE8F0833046FFF720
:1011600051FB0446DAE78820FFF7C4FAD6E700BF50
:1011700019B101F58861FFF76FBF0846704700BFDE
:1011800030B590F8313083B023B991F8315015F073
:10119000500F05D1B020FFF7ADFA002003B030BDED
:1011A000D1E90045002504F01F042C43F2D1009240
:1011B0001A46FFF739FD03B030BD00BF38B50A212C
:1011C00005460A480A4C07F015FF1221094807F0A6
:1011D00011FF2E2007F092FF2946204609F088FAD9
:1011E0002046BDE8384009F01DBA00BF18FD0000D8
:1011F000C809FF1F34FD000038B500F10C02044699
:101200004068A16803689B699847054628B1237820
:1012100023F001032370284638BD4020FFF7CEFF9E
:10122000284638BD00224FF0FF33027083607047BC
:101230002DE9F0414468002C3AD083688B42064681
:101240008846174610D00378DA0715D4BB071ED599
:1012500006F10C05002307F001071F4337702846ED
:10126000C6F80880BDE8F08110F90C3B07F00107D3
:101270001F433770BDE8F081FFF7BEFF044600282A
:10128000E4D12A20FFF79AFF2046BDE8F08170687C
:10129000036806F10C059B682A46414698470446B8
:1012A0000028D7D12F20FFF789FF2046BDE8F08125
:1012B0002520FFF783FF2046BDE8F0810378DB0798
:1012C00001D401207047FFF797BF00BF2DE9F84F09
:1012D000804691468B46002944D08F1ED8F828348A
:1012E0009F423BD207F00705012303FA05F5EDB253
:1012F000C7F3C80A3E463C46D8F82414002201EB46
:1013000014314046FFF794FFC0B110F80A100AE00C
:101310004A452AD0A74210D0D8F82824944217D2A0
:1013200013F0FF050CD001340D424FEA4503A4EB46
:101330000602EDD0A7422646EED10120BDE8F88F87
:101340000AF1010ABAF5007F4FF00105DDD101E095
:10135000002634464FF0000A0125CDE70027BA46A3
:101360000125C7E7D0F81874B8E7BBF1000F04D126
:10137000B9F1010F08BFC8F81864B01CBDE8F88FB8
:10138000F8B5044600234FF0FF3600F50377C0F8A8
:1013900038144160C0F810121546384684F83C34C1
:1013A000237084F80C32A660C4F814621A461946F9
:1013B000FFF73EFF042D34D8064690B385B90522C9
:1013C0003249F01C0BF00AFB0746002858D196F86A
:1013D0006C30092B2AD07020FFF7F0FE3846F8BD9C
:1013E0006B1E00EB031393F8BE2112F07F0204D0B2
:1013F0005F20FFF7E3FE0020F8BD93F8C231002B19
:10140000F6D000EB05153846D5F8B6512946FFF75A
:101410000FFF06460028D2D16520FFF7CFFE3046E9
:10142000F8BD5820FFF7CAFE0020F8BD336D2B44ED
:10143000C4F81C34736DC4F82034B36D1D44C4F873
:101440002454F36DC4F82834336EC4F82C3496F861
:101450006D3084F83D340126093306FA03F35A1E31
:10146000C4F818040146C4F83434C4F830242046C3
:101470003246FFF72BFF402384F83C343046F8BD5A
:101480006B20FFF79BFE0020F8BD00BF48FD000069
:101490002DE9F84F02398146D0F8280415468A18FC
:1014A00082424DD89A46D9F81834BAF1000F34D197
:1014B000994238BFC9F8181401F007040122D9F87D
:1014C000243402FA04F4E4B203EB1138C1F3C80B7C
:1014D0000122414648469044FFF7AAFE0646A8B3BB
:1014E00000EB0B0700F5007317F8012B224214BF25
:1014F00001260026564582EA04024FEA440416D02B
:10150000013D07F8012C18D014F0FF04EED1BB42C6
:10151000A3464FF00104E7D1DAE79942CCD89A42CA
:10152000CAD9824228BF0022C9F81824C4E7D820AB
:10153000FFF744FE0020BDE8F88F0120BDE8F88FDA
:10154000BF20FFF73BFE0020BDE8F88FD220FFF759
:1015500035FE3046BDE8F88FF8B50E4696E828000F
:10156000D0F83014D0F8244490F83D742940023B60
:1015700004EB5121BB40194400F50370FFF758FEFE
:1015800018B17368C3F308031844F8BD38B5D0F830
:10159000283401338B4205D24FF48A70FFF70EFED8
:1015A000FF2038BD0C46D0F81C14154600F503701A
:1015B00001EBD4110022FFF73BFE40B1A400C4F3BD
:1015C000080403595A1C04D02B60012038BDFF20A9
:1015D00038BD002038BD00BF70B50D464968D0F851
:1015E000303406468818686096F83D440B4009344C
:1015F0001A44E4B222FA04F43CB12B7A3BB12B68D2
:1016000001332B60013C002CF7D1012070BD2A462C
:1016100029683046FFF7BAFF40B20128F2D070BD0A
:10162000012970B505D9D0F82834013399420C4608
:1016300005D94FF49570FFF7C1FD002070BDD0F8BB
:101640001C14154600F5037001EBD4110122FFF7BD
:10165000EFFD064628B1A400C4F30804012035516B
:1016600070BD4FF49870FFF7A9FD304670BD00BF04
:101670002DE9F0430C4683B006468846214601AA70
:101680003046FFF783FF002245B29542214630469F
:1016900004F1010428DBFFF7C3FFC8EB0402814615
:1016A0004146002350B3019FBC42304613D1002D68
:1016B000E4D12B46C8EB040241463046FFF7E8FE72
:1016C00028B94FF4A570FFF779FD4FF0000948469F
:1016D00003B0BDE8F083FFF7DBFE0028F1D0019CEA
:1016E000002DF4D0A046C9E740F24110FFF766FD97
:1016F0004FF00009484603B0BDE8F08340F24510C2
:10170000FFF75CFD484603B0BDE8F0832DE9F843E0
:101710000024D0F82464804600F50377254631463E
:10172000002238460136FFF783FD30B300F1FF3E5B
:10173000D8F828C41EF8010FFF2805F5805913D0EA
:1017400048B10822012318424FEA430118BF01346F
:10175000013ACBB2F7D10835AC450AD94D45DED0B8
:101760001EF8010FFF28EBD10835AC4504F1080441
:10177000F4D8C4EB0C00BDE8F883BDE8F88300BFE3
:1017800070B582B002AED0F82C1446F8041D0546A0
:10179000002403E004F1010408D0019932462846F0
:1017A000FFF7F4FE40B20028F4DA002495F83D0477
:1017B0000930C0B204FA00F002B070BDC9B110B473
:1017C0000144D30343EA520310F8012BA2F1610450
:1017D000192C9CBF203AD2B212FA83F292B2D303F0
:1017E00043EA5202814292B2EBD110465DF8044BBB
:1017F00070471046704700BF43B370B444887E2CD6
:101800001ED81344CD180A44023012F8013BE4B24A
:10181000A3F161011929A4F1610194BF20260026DA
:10182000192994BF202100219B1B641ADBB2E4B26A
:101830009C4205D1AA4206D030F8024F7E2CE4D952
:10184000002070BC7047012070BC704701207047B9
:1018500038B50A2105460A480A4C07F0CBFB12218D
:10186000094807F0C7FB2E2007F048FC2946204610
:1018700008F03EFF2046BDE8384008F0D3BE00BF68
:1018800018FD0000C809FF1F50FD00008169F8B570
:101890000446006A01B101310122FFF717FD01285A
:1018A000064641D9012301461A46206AFFF7F0FD9A
:1018B000074600283ED0A06994F8333030B943F091
:1018C000400384F83330A6613846F8BD5A0614D573
:1018D000421C9642F7D023F0400284F83320E3699B
:1018E00006E0206AFFF79CFE034640B3A0692B4642
:1018F0005D1C834219462A46F3D34FF0FF3231462E
:10190000206AFFF78DFE0346F0B1A1690029DAD005
:101910003246206AFFF784FE03460028D3D16E20AA
:101920001F46FFF795FFCFE74D200027FFF790FFF9
:101930003846F8BD5120FFF78BFF3846F8BD6120CF
:101940001F46FFF785FFBFE768201F46FFF780FFB0
:10195000BAE700BF2DE9F04300F12403054693E800
:10196000070095F8337085B001AE07F0020486E8F1
:101970000700002C6CD0E96921BB0024012231460C
:10198000286AFFF7E9FD01340346E4B2002856D087
:101990001A7802F07F021A7095F83030A34236D3DD
:1019A000002CEBD020223146286AFFF715FE0128D3
:1019B000E4D040F21F10FFF74BFF0024204605B093
:1019C000BDE8F0837B06286A4DD5D5E9022390F85F
:1019D0003D440934E4B212F1FF3843F1FF39C4F158
:1019E000200728FA04F2A4F1200309FA07F729FADC
:1019F00003F33A431A4301320023FFF749FD04463B
:101A00000028BAD14FF48970FFF722FFD6E72C6A7D
:101A10000023204685F8313085F83330FFF74EFC3F
:101A20000028CAD004F50370FFF748FC0028C4D092
:101A3000D4F8380403685B6998470446BEE74FF45E
:101A400092701C46FFF704FF204605B0BDE8F08306
:101A500004F0FF034FF485701C46FFF7F9FE2046A3
:101A600005B0BDE8F083FFF703FE0446002884D1EB
:101A700040F21710FFF7ECFEA0E700BF30B590F87A
:101A8000313003F0100389B00BB300220023044669
:101A9000FFF73CF806E0202822D19DF800301A0616
:101AA0001ED433B1202269462046FEF725FF0028C8
:101AB000F1D194F83330082243F0020384F8333034
:101AC00084F831202046FFF745FF09B030BD4FF4C0
:101AD000B17003F0FF05FFF7BBFE284609B030BD2B
:101AE0004FF4B770FFF7B4FE002009B030BD00BF5F
:101AF0002DE9F04F00F1240B06469BE8070087B064
:101B00000DF10C0888E807000027BA463C46002281
:101B10004146306AFFF720FD5FFA87F90546002845
:101B20007BD00278C02A35D0C12A0FD0852A4FD069
:101B30004FF4E270FFF78CFE96F8323043F0010369
:101B400086F83230002007B0BDE8F08F1046002143
:101B50006A5CE30343EA540412FA84F40129A4B250
:101B600001F1010111D01F29F2D9CA455AD0202212
:101B70004146306AFFF730FD012807F10107C6D062
:101B800040F2CB10FFF764FED6E785280CBF042196
:101B90000221DDE796F8333013F0400F437814BF8D
:101BA00043F0020323F002034370D6E90423C0E9A3
:101BB0000223D6E90223F1694161C0E90623326AB2
:101BC00092F80C3243F0010382F80C320078BEE741
:101BD000264B96F831101B6890F801A001F03701F0
:101BE0008180002BB2D0316A91F80C2242F00102C0
:101BF00081F80C2202A80DF107020DF10A019847A5
:101C0000BDF80A20BDF808309DF807106975AA8153
:101C10002A82EB816B82287899E74FF4CF70FFF727
:101C200017FE89E759460122306AFFF795FC50B14B
:101C3000356A44802846FFF741FB48B940F2D71087
:101C4000FFF706FE78E74FF4E970FFF701FE73E750
:101C500005F50370FFF732FB0028EFD0D5F8380404
:101C600003685B6998470028E8D06CE7AC15FF1F54
:101C700090F83120B2B138B590F83320110613D462
:101C8000056A04462846FFF719FBA8B94FF4C4704B
:101C9000FFF7DEFD94F8323043F0010384F8323070
:101CA000002038BD0120704702F07F0280F8332009
:101CB000BDE83840FFF71CBF05F50370FFF7FEFADB
:101CC0000028E3D0D5F8380403685B6998470028FA
:101CD000DCD0012038BD00BF2DE9F04190F8313053
:101CE0005906804656D48068D8F82030D3F834346A
:101CF0001844B0F1806F47D24046FFF7C7FD002877
:101D00003CD0D8F8205095F80C32DA0705F503746A
:101D100063D4204605F50675FFF784FA4FF4007288
:101D2000002128460AF012FBD8F82020D8F81830F5
:101D300092F83D14D2F82474023B8B4001261F44D4
:101D400016FA01F318BF002408D127E0D8F82020A4
:101D500092F83D3406FA03F3A3421FD9D2F83804AF
:101D6000036839199B692A46984701340028EDD148
:101D70009120FFF76DFD0020BDE8F0818520FFF781
:101D800067FD0020BDE8F0818120FFF761FD0020A4
:101D9000BDE8F081006AFFF7F3FCA5E798F8313061
:101DA0005B0615D498F8333063F07F0388F833303E
:101DB000D2F83444D8E90223D8E9040112194FF0CB
:101DC00000056B4100196941C8E90223C8E9040113
:101DD0004046BDE8F041FFF74BBF2046FFF76EFAE3
:101DE000002896D18A20FFF733FDCAE730B591F875
:101DF000313013F0500F83B025D040F60225137810
:101E0000526800950446FEF70FFFB0B1102384F826
:101E100031302046FFF760FFD8B1A369E3610022AB
:101E200000232046FEF772FEC123204684F833309B
:101E300003B0BDE83040FFF71BBFD120FFF708FD1E
:101E4000002003B030BDCC20FFF702FD002003B01E
:101E500030BDDA20FFF7FCFC002003B030BD00BF2E
:101E60002DE9F043064695B096F8314003920020E4
:101E70008DF849008DF84A008DF84B00002C3CD1BC
:101E8000994691F8313013F0500F0D4635D0137844
:101E90002F2B114622D04FF0000803AB04AA304686
:101EA000FEF7C8FC044600284CD0039B1B78002B8F
:101EB0004FD09DF81030059ACDF800802946304665
:101EC000FEF7B2FE044638BBB9F1000F1DD1BC20AD
:101ED000FFF7BEFC204615B0BDE8F0830131039149
:101EE0000B782F2BFAD0296A06A8FEF78BFC044644
:101EF000002835D0039906ADCDE7A520FFF7A8FC53
:101F00000024204615B0BDE8F083294604AA3046D7
:101F1000FFF76CFF0028DAD0344606AF06F1300E2A
:101F200020686168A268E3683D460FC510347445B7
:101F30002F46F5D1206828603046FEF7F9FB06AD44
:101F40000399AAE7B420FFF783FC204615B0BDE84B
:101F5000F08304AA29463046FFF748FF0446B9E754
:101F6000AD20FFF775FCB5E7F0B590F831409DB0B6
:101F7000002314F018048DF831308DF832308DF8CC
:101F800033308DF869308DF86A308DF86B3006D1BA
:101F900040F23F10FFF75CFC20461DB0F0BD054647
:101FA000086A2C6A844207D04FF4A2701C46FFF7DF
:101FB0004FFC20461DB0F0BD40F601236846FFF7F8
:101FC0004BF8044690B30EAF2C4605F1300E206856
:101FD0006168A268E3683E460FC610347445374610
:101FE000F5D12068306009AB93E8070005F12403C0
:101FF00083E8070095F833309DF8302085F83020CD
:1020000063F07F0385F833302846FFF731FE04463E
:1020100088B10021022208230EA815918DF86B20AB
:102020008DF86930FFF796FC0446B5E74FF4A470CD
:10203000FFF70EFCB0E74FF4A870FFF709FCABE721
:10204000F0B590F8333003F0020283B0002A54D088
:10205000C169044681B303F0400303F0FF057BB37D
:10206000006AA56990F83D34D4E902670933DBB210
:1020700016F1FF36C3F1200E47F1FF3726FA03F2BF
:1020800007FA0EFE203B42EA0E0227FA03F31A4338
:102090000132002D3AD00139491B01350A4401951E
:1020A000C2B100230199FFF7F3F9054690B940F258
:1020B0005720FFF7CDFB00E00125284603B0F0BD17
:1020C000836933BB0191C361206AFFF7D1FA0546EA
:1020D00000283BD0D4E9000194F8333063F07F034B
:1020E000C4E90201C4E9040184F833302046FFF753
:1020F000BFFD0546284603B0F0BD40F2472002F080
:10210000FF05FFF7A5FB284603B0F0BD0191E5618F
:10211000C6E702AA194642F8045D006AFFF736FADC
:1021200040B2002817DB03D101990029D2D0CBE7B8
:102130004FF0FF32A169206AFFF772FA05460028C6
:10214000F2D140F26620FFF783FBB6E74FF41C7034
:10215000FFF77EFBB1E74FF41870FFF779FBACE7B0
:102160002DE9F04F90F8333085B09C070646019278
:1021700040F123811A078A4600F13681019B002B2A
:1021800000F059813146F1E80623DDF8048003911F
:102190009346306AB569D0F830445B461C40C4F3BE
:1021A000080954BB002D00F0D18096F833305B064F
:1021B00040F1E580D6E9022390F83D740937FFB27B
:1021C00012F1FF3243F1FF33C7F1200E03FA0EFE86
:1021D00022FA07F1203F23FA07F741EA0E01F369DB
:1021E00039430B449D42C0F0C7803046FFF74EFB99
:1021F000002800F01681306AB569D0F8247490F890
:102200003DE4640A023DE11905FA0EF52944B9F1ED
:10221000000F40F08980B8F5007F5AD2D6E9042338
:10222000D6E90045B8F5007F474628BF4FF4007750
:102230009D4208BF944234BF0122032200F503707F
:10224000FEF7F6FF00287CD048443A465146B94490
:1022500006F0D0FDB9F5007F00F0A28038460021DD
:10226000D6E90023D6E9044512EB000B43EB010C41
:1022700065455A46634608BF5C45BA44C7EB080843
:10228000C6E9002309D296F8331064465B46C6E9D6
:10229000043461F07F0186F83310B8F1000F7FF449
:1022A00078AF5A466346D6E90201994208BF904288
:1022B000C0F0A680614B1B68002B00F0B08096F840
:1022C0003330019863F07F0386F8333005B0BDE802
:1022D000F08FB8F5806F3DD3012303FA0EFEC4EBF7
:1022E0000E0ED0F814324FEA5824744528BF7446B5
:1022F00099424FEA442709D862189A4206D900F554
:1023000003700291FEF78EFF306A0299D0F838040C
:10231000056823465246EC69A04700289ED140F24A
:10232000F620FFF795FA4CE0C9F5007747454FF0E6
:10233000010200F5037028BF4746FEF779FF002829
:1023400082D14FF43670FFF783FA3AE0F569F5B1C0
:10235000B56152E7D0F8143299423DD0D0F8380434
:10236000036852469B699847002853D04FF4007089
:1023700000214FF4007773E70135B5613DE7294649
:10238000039AFFF703F900287FF435AF2DE73046B5
:10239000FFF77CFA002849D0B569F561306A2CE76F
:1023A000306A00F50370FEF789FF00287FF456AF0E
:1023B0004FF43870FFF74CFA03E04FF42370FFF747
:1023C00047FA96F8323043F0010386F832304FF086
:1023D000FF3005B0BDE8F08F00F503700291FEF705
:1023E00021FF306A0299B9E7D0E90423FEF78EFB9A
:1023F00000287FF4C3AE40F29220FFF729FAE0E70D
:1024000096F83310019861F07F01C6E9022386F83F
:102410003310DEE740F20130FFF71AFAD1E70198F6
:10242000D7E740F2B120FFF713FACAE740F2B9202C
:10243000FFF70EFAC5E7D6E9002334E7AC15FF1F16
:1024400038B50A2105460A480A4C06F0D3FD0B218F
:10245000094806F0CFFD2E2006F050FE2946204602
:1024600008F046F92046BDE8384008F0DBB800BF68
:1024700018FD0000C809FF1F64FD0000024670B58A
:1024800052F8105F04462946806801F00FF90646AD
:1024900080B15DB123690135AB42A37818BF03F069
:1024A000BF0363F07F03A370304670BDA37843F091
:1024B0004003F6E72320FFF7C3FF304670BD00BF9F
:1024C0002DE9F041037803F02003002B41D103F004
:1024D000FF0442692E4B9A42054633D8FFF7CEFFE0
:1024E000804600283DD02969A86801F049F80646D1
:1024F000A86831462430052200F0FCFF074600287A
:1025000041D04FF40072214609F020FFAB681A79E0
:10251000012A2CD9012403E0AB681A79A24226D9FA
:1025200018680368A1199B693A4698470134034625
:10253000E4B20028F0D198465320FFF781FF4046CF
:10254000BDE8F0814220A046FFF77AFF4046BDE893
:10255000F0813D204FF00008FFF772FF4046BDE8D4
:10256000F0814620FFF76CFF4046BDE8F0819B7983
:1025700069694FF4007202FA03F311FA83F36B6195
:102580004046BDE8F0814C20B846FFF759FFDDE733
:10259000FFFD1F0038B5054680680A462430A9694A
:1025A00000F0A8FF044628B1A88800F00F0004EB53
:1025B000401038BD6520FFF743FF204638BD00BFFF
:1025C00070B590F90230002B82B004461DDBA5687F
:1025D00005F1240000F0CCFF50B940F27E40FFF737
:1025E0002FFF637843F001036370002002B070BDD9
:1025F00005F50C7000F0BCFF0028EED028680368D9
:102600005B6998470028E8D0F0E70121FFF7C2FF97
:10261000054600B30378E52B1DD02378104A1B072D
:1026200044BFE369C361236A166843831B0C83823A
:1026300066B10DF103020DF1060101A8B047BDF826
:102640000430BDF806202B836B82EA82A37803F066
:102650007F03A370BBE740F26540FFF7F1FEC0E7E0
:10266000AC15FF1F10B50378044623B9002323706F
:10267000A370012010BDFFF7A3FF00232370A370F8
:1026800010BD00BF70B50478ACB905460E462422D3
:10269000214609F05BFEAE60F379102B06D0202BAB
:1026A0000FD1402301202B70A87070BD2023012082
:1026B0002B70A87070BD40F25E20FFF7C1FE0020B5
:1026C00070BD40F27120FFF7BBFE204670BD00BF19
:1026D0002DE9F043064693B03478019200208DF83E
:1026E00024008DF825008DF82600002C44D1994651
:1026F0000B7813F0700F0D463ED013782F2B104639
:102700002BD04FF0000805E0019886F8008086F88D
:10271000028009AD01AA03A901F048FA03AA0746FD
:1027200029460023002830D0019C24783046002C14
:1027300033D001F0D5FC3546074609AC002837D028
:102740000FCD0FC40FCD0FC433782A682260002B41
:10275000DAD03046FFF734FFD6E701300190037836
:102760002F2BFAD0A9685BB309A8FFF78BFF0746A8
:1027700058B3019809ADC4E74FF4D170FFF760FE7C
:102780000027384613B0BDE8F0834FF4DA70FFF746
:1027900057FE384613B0BDE8F0834B4603AA2946DE
:1027A000304601F09DFC0746384613B0BDE8F08383
:1027B00040F2BB10FFF744FE384613B0BDE8F0838B
:1027C0003046FFF75FFF0746DBE740F2AD10FFF74B
:1027D00037FED6E719B101F23C41FFF779BF084651
:1027E000704700BF2DE9F04F8378DF0783B00546BF
:1027F00040F1D4800F4601780E07914600F18780A2
:102800008C0608D5826843691289C3EB42139BB2D8
:10281000994528BF9946B9F1000F00F09D806B697A
:10282000AA6888064E464FF0000805F1100AC3F367
:10283000080B3FD5116A01EB5321BBF1000F53D1B7
:10284000B6F5007F50D3D36A99424DD0B6F5806F6C
:1028500066D3287880064FEA562B05D41079C8EB4A
:102860000000834528BF834699424FEA4B240CD889
:102870005B44994209D202F12400019100F078FEF4
:10288000002800F08180AA680199106802685B4600
:10289000D2F80CB03A46D847002870D06B69361B86
:1028A000234427446B6157D02978AA688806C3F36C
:1028B000080BBFD492F8058008EA5328BBF1000F3B
:1028C0002CD1B8F1000F29D1002B32D149064CBFD1
:1028D000116A296A2961104600F052FEAA6808EBC5
:1028E0000001BBF1000FABD002F12400002200F088
:1028F00001FE002836D0CBF50074B44228BF344620
:1029000000EB0B012246384606F074FAC6E7C369AD
:1029100042699B1A994528BF99467CE72969DAE7FD
:10292000106803683A469B68984790B34FF4007468
:10293000B4E70B0705D5AB785C0602D529690131F0
:10294000C8E710462969524600F020FE002833DB14
:1029500029D0AA682969BEE70026C6EB090003B0A2
:10296000BDE8F08F40F2CD20FFF76AFD6B784FF0A5
:10297000FF3043F002036B7003B0BDE8F08F40F20C
:10298000E620FFF75DFDF1E740F2E120FFF758FD9B
:10299000ECE740F2EE20FFF753FDE7E74FF4247039
:1029A000FFF74EFDE2E72B7813F0700FD5D14FF40F
:1029B0002F70FFF745FDD9E740F2B520FFF740FD46
:1029C000D4E700BF70B582B001220DF107010446C3
:1029D00046690569FFF706FF012808BF9DF8070053
:1029E000666118BF4FF0FF30256102B070BD00BFB7
:1029F00030B54369C3F3431583B0044605B199B9B3
:102A000001220DF107012046FFF7ECFE40B201283C
:102A10008DF807000BD163691F336361A068303004
:102A200000EB451003B030BD20334361F6E718B129
:102A300040F22130FFF704FD002003B030BD00BF9D
:102A40002DE9F041037807690446002B37D042692D
:102A50008A420E4647D041B92161A378666123F0CE
:102A60002003A3700120BDE8F08118072FD5E1698C
:102A70008E423DD8D4F808E09EF806500935E9B2F8
:102A8000501E751EC840CD40A84200D872BB5B06E0
:102A90004CBFDEF82030236A236104F1100842465F
:102AA000002DDAD02169A06800F070FD002805F142
:102AB000FF35F4DC40F24C40FFF7C2FC03E040F28B
:102AC0002740FFF7BDFC27610020BDE8F081990693
:102AD000D0D5A3681B89B6EB431FBED940F23C405A
:102AE000FFF7AEFCEFE70120BDE8F0812D1AD4E737
:102AF00040F23540FFF7A4FCE5E700BF10B50378CE
:102B0000DA0605D440F2AF30FFF79AFC002010BD82
:102B100000210446FFF794FF01212046FFF768FFDC
:102B200070B1037873B1E52BF6D02E2BF4D0C37AB5
:102B30001B07F1D440F2C930FFF782FC002010BD22
:102B4000637853B9A378082243F00203A37022707C
:102B50002046BDE8104001F04FB94FF46F70FFF709
:102B60006FFCD3E72DE9F041884617460021242267
:102B700004461E469DF8185009F0E8FBD8F80800F6
:102B8000D8F82030E36007F00F0200F1300303EBC8
:102B90004212A780A060D17A0F071BD401F0170161
:102BA0002170D37AE57013F0180F08BF41F00801C7
:102BB00006F0030308BF2170012B52D0022B12D064
:102BC00003B34FF4FE70FFF73BFC00202070A070B1
:102BD000BDE8F08140F2E110FFF732FC00202070E8
:102BE000A070BDE8F0812378032513F0110FA570C4
:102BF0003DD040F20220FFF723FC00202070A0709F
:102C0000BDE8F08116F4806E3DD1012506F0080381
:102C10001D43EDB2A570918A538BC76AA76143EA41
:102C20000141BEF1000F08D029BB65F07F05730498
:102C3000A57007D40120BDE8F0812162D369E3616A
:102C40007304F7D5E1692046FFF7FAFE0028F1D1B9
:102C500040F21B20FFF7F4FB00202070A070BDE8BD
:102C6000F0812378022513F0110FA570C1D16DB248
:102C700006F4806ECAE700F073FD48B94FF40470A3
:102C8000FFF7DEFBA1E740F2ED10FFF7D9FB9CE771
:102C9000A578CAE72DE9F04F037883B023B90B7804
:102CA00013F0700F0D4608D140F22E20FFF7C8FB3D
:102CB0000024204603B0BDE8F08F4E6916F01F07D0
:102CC000F2D180469146BA4601E000276E690021A4
:102CD0002846FFF78DFE0446A8B10378002BE7D005
:102CE0002E2BF2D0E52BF0D0C17A01F0080202F0D1
:102CF000FF0B82B10F29E8D15A06E7D503F01F0771
:102D000090F80DA0E2E76B78002BD1D040F237208D
:102D1000FFF796FBCDE77FB900974B46C6F34F12FE
:102D200029464046FFF71EFF04460028C1D14FF454
:102D30001270FFF785FBBCE700F074FE8245EBD014
:102D40004FF411705C46FFF77BFBB2E72DE9F043CF
:102D50000B7813F0700F89B000F0978040F60223D3
:102D60000E46044601F0BCF9002800F086800122DE
:102D70001023A27023702046FFF7A2FB002800F06A
:102D800097802369236200212046FFF759FE2378AC
:102D9000002B40F0828001212046FFF7FBFB054617
:102DA000002800F092801023C37282686968EB6883
:102DB0000068B5F81480B5F81A906F460FC76969B6
:102DC000AA69EB69286908AD0FC72E2305F8203DD5
:102DD0000DF10A012B46202203F8012F9942FBD165
:102DE000216AA06800F0CCFBA3680146012203F130
:102DF000240000F07FFB8646002861D0ADF81480E7
:102E0000ADF81A902F460FCFCEF80000CEF8041080
:102E1000CEF80820CEF80C300FCFCEF81000CEF848
:102E20001410CEF81820CEF81C30336AADF81A30E2
:102E30002E221B0CADF814308DF801200FCD0EF1B1
:102E40002006CEF820007160B260F3600FCD3061D3
:102E50007161B261F361A46804F1240000F088FBA1
:102E600078B104F50C7000F083FB50B12068036862
:102E70005B6909B0BDE8F04318474FF4AD70FFF748
:102E8000DFFA002009B0BDE8F08340F25510FFF7EB
:102E9000D7FA002009B0BDE8F0832046FFF790FB89
:102EA00000287FF478AF40F26B10FFF7C9FAE8E72B
:102EB00040F26310FFF7C4FA002009B0BDE8F083C8
:102EC0004FF4C170FFF7BCFADBE740F27110FFF777
:102ED000B7FAD6E72DE9F041064692B03478019270
:102EE00000208DF824008DF825008DF82600002C98
:102EF00037D198460B7813F0700F0D4631D0137808
:102F00002F2B10461ED0002701AA03A900F04EFE69
:102F100003AA044629460023002845D0019C2478B2
:102F20003046002C48D001F0DBF8044648BBB8F12D
:102F3000000F1FD14FF4A070FFF782FA204612B0A5
:102F4000BDE8F0810130019003782F2BFAD0A968F9
:102F500009A8FFF797FB0446002834D0019809AD73
:102F6000D1E740F22910FFF76BFA0024204612B097
:102F7000BDE8F081294603AA3046FFF7E7FE0028A6
:102F8000D8D035460FCD09AC0FC40FCD0FC4337860
:102F90002A68226023B93770B770019809ADB3E78A
:102FA0003046FFF70DFBF6E74FF49C70FFF748FA49
:102FB000204612B0BDE8F08103AA29463046FFF74B
:102FC000C5FE0446BAE740F23110FFF739FAB5E71B
:102FD0002DE9F04104789AB0002614F018048DF819
:102FE00020608DF821608DF822608DF844608DF8A6
:102FF00045608DF8466007D140F24A30FFF720FA6D
:1030000020461AB0BDE8F08190468B6882689A42EB
:1030100005460F4608D04FF45570FFF711FA3446B5
:1030200020461AB0BDE8F081FFF7CAFAAE46BEE806
:103030000F0011AC0FC4BEE80F000FC4DEF8003063
:10304000236031462846FFF7A5FA0446002800F021
:10305000CC806168A268E368006895F800C0EE461D
:10306000AEE80F006169A269E36920690CF0080409
:10307000AEE80F0004F0FF0342463946002C40F052
:10308000868008A8FFF726FF0446002800F0A380EA
:10309000109E0E98BDF824109DF823200B9BA8616C
:1030A000A9800027EA70EB60012128468DF8207086
:1030B0008DF82270FFF76EFA0446002800F0908029
:1030C0001AAB9DF80B2053F85B0DC4F80D0058683F
:1030D000C4F811009868C4F81500D868C4F819003D
:1030E000188A9B7CA4F81D00E377E272002E39D089
:1030F0003146A86800F044FAAB6801463A4603F14D
:10310000240000F0F7F90446002873D054F8200F8B
:103110006168A268E3686F460FC720696169A269A8
:10312000E3690FC73146A86800F01AFB044600287F
:103130004CD0296AA86800F023FAAB680146012246
:1031400003F1240000F0D6F90446002857D06E465B
:103150000FCE20626162A262E3620FCE20636163E0
:10316000A263E36300210222082311A819918DF8BC
:1031700046208DF8443000F03FFE0446A8B1AC680C
:1031800004F1240000F0F4F9A0B9002438E740F677
:10319000012308A8FFF79CFA044600287FF479AFC2
:1031A0004FF45970FFF74CF92AE740F2A330FFF7CC
:1031B00047F925E704F50C7000F0DAF90028E4D0AF
:1031C000206803685B699847044619E740F292302B
:1031D000FFF736F914E740F26A30FFF731F90FE7ED
:1031E00040F27D30FFF72CF90AE74FF45770FFF7F4
:1031F00027F905E740F28B30FFF722F900E740F2AC
:103200009930FFF71DF9FBE603780BB1FFF7D8B94A
:10321000012070472DE9F04783789D07044640F16F
:10322000B48091461A07884600F1DC806269D34376
:10323000994500F2D280B9F1000F00F0DE804E46D1
:103240004FF0000A35E0002900F08180A3785B068A
:1032500040F18580E369934240F281800131216130
:1032600000F08EF9B6F5007F01463FD26269E3694E
:10327000A068B6F5007F354628BF4FF400759A4226
:103280007CD30522243000F035F9002800F0C280FC
:1032900038442A4641462F4405F0ACFDB7F5007F7F
:1032A00000F086806269761B2A44A844626100F0BF
:1032B000A480A0682169437913EA5225C2F3080764
:1032C0000CD1002FBFD000F05BF90146C7F50075A7
:1032D000B54228BF3546A0680122D3E700F050F977
:1032E0002918002FF2D1B6F5007FBFD3B6F5806F55
:1032F000A2681FD31379D76A5B1B700A834228BF69
:1033000003468F424FEA432508D31F448F4205D915
:1033100082F824A04FF0FF30D062A26810680268E3
:10332000D7694246B8470028BCD140F26150FFF748
:1033300087F82EE0D36A8B4233D010680368424688
:103340009B699847002872D04FF40075AAE7216A5C
:10335000002939D0216100F013F90146C3E704F1D7
:10336000100200F013F9002869DB04D12046FFF7B2
:1033700085F8002868D0A0682169ECE7A37813F0ED
:10338000200F0CBF012205227CE740F2F240FFF73C
:1033900057F8637843F0010363704FF0FF30BDE8E6
:1033A000F08782F824A04FF0FF33D362A268C4E70D
:1033B000A068243000F0DCF800287FF473AF40F2FE
:1033C0004D50FFF73DF8E4E72046FFF757F8002897
:1033D0003FD021692162A068BDE740F2FE40FFF7BF
:1033E0002FF8D6E7C169FFF72BFB00287FF41EAF4B
:1033F0004FF49F60FFF724F8CBE7E36993420ED3C5
:10340000164B1B68C3B1A37863F07F03A3704846D3
:10341000BDE8F08740F24550FFF712F8B9E7A3780E
:10342000E26163F07F03A3704846BDE8F08740F295
:103430006C50FFF705F8ACE74846BDE8F08740F26E
:103440000F50FEF7FDFFA4E740F21D50FEF7F8FF16
:103450009FE740F22550FEF7F3FF9AE7AC15FF1FF8
:1034600038B50A2105460A480A4C05F0C3FD10216B
:10347000094805F0BFFD2E2005F040FE29462046F4
:1034800007F036F92046BDE8384007F0CBB800BF5A
:1034900018FD0000C809FF1F70FD0000F8B5436863
:1034A000816800F10C0604461868036832469B697F
:1034B00098470546A0B123789A0704D423F0010366
:1034C00023702846F8BD6368A16818681F690368FF
:1034D00032469B6939449847034630B12378EDE77B
:1034E0003920FFF7BDFF2846F8BD40201D46FFF7F5
:1034F000B7FFE6E783688B422DE9F04106461546A3
:1035000010D00378DA070F4614D46B071DD506F1E7
:103510000C04002305F003051D4335702046B760F9
:10352000BDE8F08110F90C3B05F003051D43357033
:10353000BDE8F081FFF7B2FF04460028E5D1222064
:10354000FFF78EFF2046BDE8F081736818680368B6
:1035500006F10C049B6822463946984780460028AD
:10356000D7D12720FFF77CFF4046BDE8F08100BFA0
:103570000378DB0701D401207047FFF78FBF00BF3E
:10358000837940690239994008447047012970B530
:1035900033D9C36999420C4605462ED8C379202BEE
:1035A000164615D0102B21D18369C1F30721194488
:1035B000022200F50C70FFF79DFF20B3E4B230F853
:1035C0001430EA6993429ABF01203360002070BD35
:1035D0008169022201EBD41100F50C70FFF78AFF1C
:1035E000B8B104F07F0450F82430EAE74FF4827059
:1035F000FFF736FF4FF0FF3070BDD620FFF730FFEA
:103600004FF0FF3070BDE820FFF72AFF4FF0FF308A
:1036100070BDDE20FFF724FF4FF0FF3070BD00BF0C
:10362000012970B50FD9C36999420C460BD8C379EB
:10363000202B15460DD0102B1BD04FF4AB70FFF78D
:103640000FFF002070BD4FF48C70FFF709FF0020C2
:1036500070BD8169032200F50C7001EBD411FFF7F6
:1036600049FF0646D8B104F07F04012046F82450F3
:1036700070BD8369C1F3072100F50C701944032262
:10368000FFF738FF064620B1E4B2012026F81450B7
:1036900070BD40F22D10FFF7E3FE304670BD4FF4D1
:1036A0009070FFF7DDFE304670BD00BF2DE9F041A0
:1036B000C4688C4282B005460F4690463ABF0C461D
:1036C00000260126EB6901349C4201AA28462146C6
:1036D00009D95EBBEC6801349C424FF0010601AA97
:1036E00028462146F5D8A74218D0FFF74FFF0028FB
:1036F00020DBE7D0019B002BE4D106B1EC606FF03A
:10370000704221462846FFF78BFF064618B3AFB933
:103710003046C8F8004002B0BDE8F0816520FFF7F0
:103720009FFE0026304602B0BDE8F0815C20FFF726
:1037300097FEF6E76B20FFF793FEF2E7394628463F
:103740002246FFF76DFF03460028E1D17D201E468B
:10375000FFF786FEE6E77720FFF782FEE2E700BF8D
:10376000F0B5054683B00C460BE0FFF759FF06465F
:10377000D0B1EB689C423CBF04F1FF34EC60019C8B
:103780007FB101AA21462846FFF700FF071E214608
:103790004FF000022846E8DA40F26510FFF760FEBD
:1037A0000026304603B0F0BD4FF4B570FFF758FE69
:1037B000304603B0F0BD00BF2DE9F041C379C269C6
:1037C000102B064602F1010809D0202B07D040F249
:1037D000AF10FFF745FE4FF0FF30BDE8F081B5694F
:1037E000B8F1000F44D006F50C77002429460222D8
:1037F00038460135FFF77EFE90B3F379102B16D0D3
:10380000B8F17F0F28D81FFA88F1C646013989B26E
:1038100000EB8101031F53F8042F02B901348B42DE
:10382000F9D1B8EB0E08E1D12046BDE8F081B8F13E
:10383000FF0F20D94FF4807E7346591E89B200EBEA
:103840004101831E33F8022F02B901349942F9D1A4
:10385000B8EB0E08CAD1E7E74FF0800E7146D5E706
:1038600040F29710FFF7FCFD4FF0FF30BDE8F0810C
:103870004046BDE8F0811FFA88F3C646DDE700BF89
:10388000F8B5044600254FF0FF3301202160A46203
:10389000C4F83442E060E57184F8245084F8305272
:1038A000E362C4F8383216460AB3042A19D804F180
:1038B00024072A4638462946FFF71CFE06F18056A3
:1038C000013E360100F5DF739A1920B1117911B16B
:1038D0009B5D5B061CD04FF4EA70FFF7C1FD002032
:1038E000F8BD4FF4E670FFF7BBFD2846F8BD04F1C4
:1038F0002407384600223146FFF7FCFD10B1037C57
:10390000022B07D04FF4EF70FFF7AAFD0020F8BD9F
:103910009668EEE7B0F80B30B3F5007FF2D1457B47
:1039200025716B1E0022012D6371A27113D001223B
:10393000114600E01A464900C9B2531C8D42DBB261
:1039400008D0092BF6D1A27140F2E710FFF788FDED
:103950000020F8BDA271C18A216109B9416A2161C3
:10396000C789B0F81130238137445B0107EB41056B
:1039700003F2FF13B0F81310A76105EB6323256270
:10398000636101B9016AF61A0E4426FA02F240F6A2
:10399000F473511C9A42E1610AD94FF6F4739A42CA
:1039A00085BFC36A236210232023E3710120F8BD81
:1039B0000C23E37140F20D20FFF752FD0020F8BD0B
:1039C00004290CD90A2906D90C299ABF00EB410118
:1039D000C8880020704700EB41018888704700EBE1
:1039E0004101B1F80100704738B50A2105460A487F
:1039F0000A4C05F0FFFA0E21094805F0FBFA2E20CB
:103A000005F07CFB2946204606F072FE2046BDE804
:103A1000384006F007BE00BF18FD0000C809FF1FB0
:103A200084FD000010B4421E00F10A04002012F8C8
:103A3000011F430843EAC01051FA80F09442C0B21B
:103A4000F5D15DF8044B704738B5CB6873B10546C6
:103A50000C462422002108F079FC102301202B7051
:103A6000A870A268E3682B62AA6038BD8968BDE8C7
:103A70003840FEF707BE00BF2DE9F04F8DB0037848
:103A800000248DF80C408DF80D408DF80E408946CD
:103A900013B10C2A154609D88120FFF7A5FF00278E
:103AA00089F8007038460DB0BDE8F08FC3788046C5
:103AB000002B5ED003A84146FFF7C6FF002861D067
:103AC00098F80330002B50D001940126B8F8041068
:103AD000891B490103A8FEF7B3FF0746002855D00C
:103AE000002103A8FEF784FF8246002852D0C37A43
:103AF0000F2B53D1037803F01F039E4252D1731E44
:103B000003EB430203EB8202134609EB020402F1CA
:103B10000D0B991AC9B25046FFF752FF80B39D4270
:103B200003F1010311D97E2894BFC0B23F205B4549
:103B300004F8010BEDD15D4507D99AF800305A061B
:103B400044BF9DF8043009F80B3009EB05039DF8DC
:103B5000042003F8012C9AF800305B06A2D4013649
:103B600098F80330F6B2B342B0D2A620FFF73CFF7C
:103B700095E700F0DDFC074638460DB0BDE8F08F54
:103B80009B46D8E78820FFF72FFF88E78D20FFF7B7
:103B90002BFF84E79220FFF727FF80E79620FFF7AF
:103BA00023FF7CE79A20FFF71FFF78E72DE9F04F0E
:103BB0000378202B03D110F8013F202BFBD0886025
:103BC0000378002B00F007812F2B2FD05C2B22D005
:103BD000A3F12204E4B21D2C20D9DFF818E2461C20
:103BE00000247C2BA3F12005374614D05E2D12D87B
:103BF00016F8013BA3F12205EDB20134002B00F0D1
:103C0000D3802F2B13D05C2B2EFA05F703D01D2D5C
:103C1000E7D8FF07E5D50020BDE8F08F754D25FA00
:103C200004F4E407D9D50020BDE8F08F002407197B
:103C30003E4625462F2302E016F8013F0135202B92
:103C4000FAD02F2BF8D0054415604CB13A4612F843
:103C5000013D2E2B02D0202B40F0A980013CF6D153
:103C60004FF0FF3523464B6001F1170601F10C03BD
:103C7000202203F8012FB342FBD1461E002200E0B0
:103C8000013216F8013F2E2BFAD0202BF8D0B2FAD1
:103C900082FC6E1C4FEA5C1C0CD0475D2E2F00EBA3
:103CA000050604D106E016F8017D2E2F02D015F18D
:103CB000FF35F8D2A2424FF0000980F291804E46C3
:103CC000CA4607274FF0080825E02E2B47D0222BA5
:103CD0000BD07C2B09D0A3F12A0EBEF1050F48D9D9
:103CE000A3F13A0EBEF1050F58D8954239D0B7422C
:103CF00029D34FF0000C5F2306F1010E01EB060BF8
:103D00005FFA8EF6062E8BF80D3000D80E73013256
:103D1000A24207DA835C202BD7D10132A2424FF0B6
:103D2000000CF7DB4B7B202B3FF475AFBCF1000F91
:103D300047D01AEA090F18BF4FF0020981F8009026
:103D40000120BDE8F08F0A2F37D0954235DB2A4697
:103D50000A2708264FF010084FF0000CD7E79542CD
:103D6000DBD10A2F29D02A460A2708264FF010084F
:103D7000CDE72D2BB9D1A3F1210EBEF15D0FB4D843
:103D80009542EED0B742DED3A3F1610EBEF1190F1A
:103D900028D8203BDBB248EA0909ADE7A3F15B0E66
:103DA000BEF1020FA1D9E6E7176007194EE7FF2C15
:103DB0003FF731AF651E234655E74B7B202B3FF481
:103DC0002AAF0B7B0B4401207E24312208705C73E8
:103DD0009A73BDE8F08F10601C464FF0FF3542E744
:103DE000CA469FE7A3F1410EBEF1190F98BF48EAFA
:103DF0000A0A81E7010100352DE9F04183788AB094
:103E0000002203F002038DF804208DF805208DF8C0
:103E10000620002B3CD0016A064659BB01213046E2
:103E2000FEF7B8FB0746002800F09480791E07F1E2
:103E30000A000024620811F8015F42EAC41355FA2F
:103E400083F38142DCB2F5D14FF0E50887F80080BA
:103E5000B568002305F124003370B370FFF788FBC9
:103E600000BB40F25120FFF7BFFD002528460AB0F5
:103E7000BDE8F0818068FFF773FC05460028CDD1CE
:103E800040F23D20FFF7B0FD28460AB0BDE8F081C2
:103E90004FF40E7003F0FF05FFF7A6FD28460AB0A9
:103EA000BDE8F08105F50C70FFF762FB0028D8D063
:103EB000286803685B69984705460028D1D0F378E5
:103EC000002BD3D001A83146FFF7BEFD03460028E2
:103ED0003AD0F37801270BBB42E001A8FEF788FD3A
:103EE000791C0346002841D0C27A0F2A26D10278D5
:103EF00002F01F008742CFB220D1597BA1421DD1D1
:103F000083F80080B16891F8243043F0010381F810
:103F10002430530630D4F378BB4221D3B188C91B77
:103F2000490101A8FEF78CFD002103460028D4D1E9
:103F300040F25E201D46FFF757FD97E740F26920EB
:103F4000FFF752FD002591E740F259201D46FFF78B
:103F50004BFD8BE740F243203D46FFF745FD85E7EB
:103F60004FF41E70FFF740FD00257FE740F263200D
:103F70001D46FFF739FD79E7B46804F12400FFF727
:103F8000F7FA28B940F27120FFF72EFD00256DE702
:103F900004F50C70FFF7ECFA0028F3D020680368F2
:103FA0005B6998470028EDD060E700BF2DE9F84332
:103FB0000B78DA0776D50F7BCB190D465A7B7E2A14
:103FC000804613D09B7B312B10D00921414805F04E
:103FD00011F84F21404805F00DF840F285213F4887
:103FE00006F086FB3D4806F01DFBFEE7022605F1C4
:103FF0000D096968AA6873189BB241B1501812F88C
:10400000011B03EB43134B4090429BB2F7D1032FAC
:1040100028BF03273A1DD2B203F00F01A818013AB6
:104020000929D2B294BF30313731BA424FEA131363
:104030004173F1D8EB197E225A7300214046FEF7F6
:10404000FFFC01214046FEF7D3FC0B22044601464B
:1040500098B1237848469BB1E37A1B07F1D408F066
:10406000DFF804460028ECD1632E0CD140F2AD20DD
:10407000FFF7BAFC2046BDE8F88398F8013013BB7F
:104080000120BDE8F8834F21134804F0B3FF40F24C
:104090008B21124806F02CFB0136104806F0C2FABC
:1040A000B6B2A6E709210B4804F0A4FF4F210A4845
:1040B00004F0A0FF4FF42171084806F019FB0748EF
:1040C00006F0B0FAFEE74FF42870FFF78DFC2046AB
:1040D000BDE8F88394FD0000A0FD0000C809FF1FA3
:1040E0002DE9F04F0E4609788DB011F0700F089051
:1040F000069301D0037843B140F23910FFF774FC06
:10410000002528460DB0BDE8F08F1378D2F8048062
:104110009B07934640D10127002130468946FEF790
:104120008FFC0BF10D03CDF81C90CDF80C904C4694
:10413000CA46CDF814900493012130467569FEF704
:1041400057FCC5F34F150346002800F08A8002781B
:10415000E52A37D0002A35D0BC4238BF00242E2AA9
:104160002DD0D97A0F293BD001F0080101F0FF02D0
:1041700029BBBAF1000F40F0A88118460B22049920
:1041800008F04EF80028D7D19BF80030D80740F14E
:104190008C8101230593CFE7BA4F08F10C03A7FBED
:1041A0000337BF080137FFB2B6E703990139C9B237
:1041B0008A42039103D15A7B079991421BD04FF059
:1041C000000AB9E7002C08BFA946BC423CBF013435
:1041D000E4B2002A49D0E52AC1D14FF0000AABE78A
:1041E000BAF1000FE1D15506A6D502F01F0A5A7B9D
:1041F000CDF80CA00792039A013A02EB420502EBBC
:104200008505A8452A46DAD905F10D01CDF824A087
:104210008A4614E0DBF80800825CBCF1190F98BFF5
:104220002031A2F1410098BFC9B219289CBF2032A9
:10423000D2B28A42C3D1D64500F0C5807246511B26
:10424000C9B21846FFF7BCFBC1B29045A1F1410CC1
:1042500002F1010E00F00E81FF28DBD94FF0000AB9
:104260006AE77278002A40F0B180069A13469A05F0
:1042700004D503F00303013B012B08D94FF4CE70A2
:10428000FFF7B2FB002528460DB0BDE8F08F002CEB
:1042900008BFA946BC4203D328E0DCB2A74225D917
:1042A00000213046FEF7A4FB631C0028F5D172788C
:1042B00003464AB14FF4D4701D46FFF795FB20E743
:1042C000B3681B79012B11D8A7420FD93046FEF7EE
:1042D000F7F81034E4B20028F2D1054640F2B310EA
:1042E000FFF782FB28460DB0BDE8F08F059B3BB180
:1042F00059463046FFF75AFE054600283FF401AF05
:104300004FEA49113046FEF79BFB0546002800F0B6
:10431000E580013F17F0FF0A62D04AF04005EDB298
:1043200057464FF0000900213046FEF761FB002898
:1043300000F0C480B26892F82430BA4543F001031B
:1043400014BF3C462C460F2182F824300BF1170E87
:104350000BF10C0380F80C900470C172002213F86A
:1043600001CF510841EAC2125CFA82F27345D2B21F
:10437000F5D104F01F04013C427304EB4403DBF865
:104380000820A0F81A9004EB8304043000230EE008
:10439000042B115D14D90A2B94BF01804180013395
:1043A000DBB20D2B04F1010400F1020014D0A04592
:1043B000EED814BF4FF0FF310021042B89B2EAD8A8
:1043C00020F8031CEBE7DDF824A0B5E640F2451029
:1043D0001D46FFF709FB94E6013F17F0FF07A2D146
:1043E000002130467569FEF703FBC5F34F150446FF
:1043F000002878D02022002107F0A8FF5B46224A3F
:1044000053F80D1F58686060216019899B7AA37268
:1044100021819BF80030176803F0180323738FB1D4
:104420000DF12B020DF12E010BA8B847BDF82C3071
:10443000BDF82E209DF82B106173238263822383A5
:10444000E281E282B26892F8243043F0010382F8FC
:1044500024302A46CDF800A0069B08983146FEF786
:1044600081FB054600287FF44CAE4FF4F970FFF74E
:10447000BBFA46E60028DDF824A018BF4FF0000A7A
:104480005AE600BF4FECC44EAC15FF1F5C1E0A334A
:1044900014F8010F510841EAC21250FA82F29C420C
:1044A000D2B2F5D1079B934212D1069B1905D0D504
:1044B0004FF4CA70FFF798FA002522E6034640F24F
:1044C000C9101D46FFF790FA1BE603990129DDD0BC
:1044D00040F28310FFF788FA002512E64FF4E170EE
:1044E000FFF782FA0DE640F2D7102546FFF77CFA77
:1044F00007E600BF38B50A2105460A480A4C04F011
:1045000079FD0E21094804F075FD2E2004F0F6FD1A
:104510002946204606F0ECF82046BDE8384006F073
:1045200081B800BF18FD0000C809FF1FF0FD0000A2
:10453000F8B504786CB314F060040D4605D02F2252
:1045400000230A704B700120F8BD2146FEF722F8C7
:10455000064618B321462246013808274FF02E0E92
:1045600010F8013F202B0DD008291CD0A3F14104E5
:10457000192C04D8347B27421CBF2033DBB2AB5448
:104580000132D2B201310B29EAD10023AB54012010
:10459000F8BD2520FFF7AEFF2046F8BD3020FFF71D
:1045A000A9FF3046F8BD05F802E00132D2B2037827
:1045B0001027DBE710B50446806B28B1FEF752F8F0
:1045C00010B10023A36310BDE06B28B1FCF7B0F875
:1045D00010B10023E36310BD002010BD8842F8B580
:1045E000064615D00D46FFF7E5FFAC6B94B131469A
:1045F000242000F017F90023037043708370B06328
:10460000AD6B04460FCD0FC40FCD0FC42B682360D4
:104610003046F8BDEB6B002BFAD03146382000F065
:1046200001F980F8314080F8324080F83340F0637F
:10463000EB6B024603F130011D685C689868DF6827
:10464000D76010338B4215605460906002F1100205
:10465000F2D11B681360DBE7C9B32DE9F0410C46CA
:10466000054698461746FFF7A5FFD4F87864AEB123
:104670002946242000F0D6F8002101704170817095
:10468000D4F87814A86343463A46FEF7A3F810B16D
:104690000120BDE8F081A863BDE8F081D4F87C3446
:1046A000BBB12946382000F0BDF880F8316080F8B1
:1046B000326080F83360D4F87C14E86343463A46AD
:1046C000FCF756FD0028E3D1E863BDE8F081002047
:1046D00070470020BDE8F081F8B50D461746044646
:1046E000FFF768FFAE6B8EB12146242000F09AF8E8
:1046F0000022027042708270A0633A46A96BFEF7F6
:10470000C9FA08B10120F8BDA063F8BDE86B88B113
:104710002146382000F086F880F8316080F8326059
:1047200080F83360E0633A46E96BFCF729FD002826
:10473000E8D1E063F8BD00BF70B500260546C0F8BB
:104740008014C0F8786401464FF48F6000F06AF876
:1047500004464660FCF766FD04F50370C4F8106279
:10476000FCF760FD84F83C6484F8716484F872643A
:1047700084F87364D5F88014C5F87C44204601227F
:10478000FCF7FEFDE8B900262946C5F87C644FF425
:104790008C6000F047F8C67180F83C6480F83D6496
:1047A00080F83E640122D5F88014C5F878040446E8
:1047B000FFF766F8A0B9104B00201860C5F8780420
:1047C00070BD04F588663046FBF7B2FF21463046DF
:1047D000FCF718F80028D6D0074B01201D6070BDEB
:1047E00004F23C463046FDF73DFF21463046FDF7DA
:1047F00049FF0028F0D1DEE7B015FF1FF8B500250E
:104800004FF47A77064E8760044605710573856418
:10481000C56440F8106BFFF71FFF2046F8BD00BFCE
:10482000F0FC0000084670474FF0FF30704700BFB3
:10483000007C7047807C704710B40468E4680123F2
:10484000A4465DF8044B6047C07C704710B4046810
:10485000E4690123A4465DF8044B6047704700BF3C
:1048600010B51421044605F059FF204610BD00BFC5
:104870002DE9F0410E46017A0229044615461F46ED
:1048800007D0236820465B699847D8B90020BDE867
:10489000F0814368B342F4D100265FB12368294612
:1048A0005B6C20469847013605F500750028EDD071
:1048B000B742F3D16368627A1F4467606AB9012026
:1048C000BDE8F081236831469B6C2046984700285C
:1048D000DCD0022366602372DEE7236820465B6932
:1048E000BDE8F041184700BF38B5C2681368516889
:1048F0000446D87A00B372B6DA7AD00706D51B48D8
:10490000DA6805682A40DA610260DA7A950706D526
:1049100017481A6905682A401A620260DA7A500755
:1049200006D514485A6905682A405A620260DA7A44
:10493000120714D462B6E2681B68D868884207D0B0
:104940000D4D1D600D48D96041F080451D61186016
:10495000107A002104F014FD0123637438BD084867
:104960009A6905682A409A620260E3E780E100E004
:1049700084E100E088E100E001403F0000003F806A
:104980008CE100E010B5C36804460121187A04F0F8
:10499000F7FCE36819680A684FF00040FF23D06213
:1049A0005363D36A002BFCDACB7A926BB3B1DA078C
:1049B00003D50C4BCA691A60CB7A980703D50A4B0A
:1049C0000A6A1A60CB7A5A0703D5084B4A6A1A60FA
:1049D000CB7A1B0702D5064B8A6A1A6000236374E0
:1049E00010BD00BF00E100E004E100E008E100E0EC
:1049F0000CE100E070B5467C05460EB9FFF774FF88
:104A0000EB681B681A6808214FF00044FF20D4624D
:104A10005063D36A002BFCDA936BDBB2FF2B0ED012
:104A20004B1E13F0FF01F2D101240EB96B7C0BB9C0
:104A3000204670BD2846FFF7A5FF204670BD002424
:104A4000F3E700BFF0B52E4FC5683B6883B08E46D4
:104A50000093009E9446B6B24FF00041FF222B68AF
:104A60001C68E1626263E36A002BFCDAA36BDBB2D1
:104A7000FF2B837411D13B680193019B9BB29B1B5D
:104A8000B3F5967FEBDD1D230374437C13B1FFF771
:104A900079FF0023184603B0F0BDFE2B02D0182387
:104AA0000374F2E7BCF1000F10D0F4444FF000445F
:104AB000FF212B681A68D4625163D36A002BFCDA99
:104AC000936B0EF8013BF445F3D1C5680023837462
:104AD0002B681B684FF00041FF22D9625A63DA6AE3
:104AE000002AFCDA4FF00041FF22986BD9625A632A
:104AF000DA6A002AFCDA9B6B0123184603B0F0BD8A
:104B0000E41AFF1F70B4124CC36822681B6883B09C
:104B10004FF00046009200981A6880B2FF25D662D6
:104B20005563D36A002BFCDA936BDBB2FF2B0AD000
:104B300023680193019B9BB21B1A8B42EFDD00207F
:104B400003B070BC7047012003B070BC704700BF59
:104B5000E41AFF1FF0B5437C83B004460E46019271
:104B60000BB9FFF7C1FE002E46D1E5682B681B6824
:104B70004FF0004146F04002D9625A63DA6A002AD7
:104B8000FCDA9A6B01AF02A94FF0004011F8012D39
:104B9000D8625A63DA6A002AFCDAB9429A6BF5D114
:104BA000002E14BF872295224FF00041D9625A632C
:104BB000DA6A002AFCDA4FF00041FF22986BD962D2
:104BC0005A63DA6A002AFCDA9A6B0B214FF000472D
:104BD000FF26DF625E63DA6A002AFCDA9B6BD8B2DA
:104BE0001B06A07401D403B0F0BD4B1E13F0FF01EF
:104BF000F9D02B681B68ECE74FF496712046FFF75D
:104C000081FFB2E7036870B55B6904460D469847BB
:104C1000204600223A21FFF79DFFA8B9291D4FF039
:104C20000046FF20E3681B681A68D6625063D36AA7
:104C3000002BFCDA936B01F8013D8D42F2D1657CCB
:104C40006DB90125284670BD657C12232374002DA3
:104C5000F8D020460025FFF795FE284670BD204677
:104C6000FFF790FE284670BD036870B55B69044687
:104C70000D4616469847294620460022FFF76AFF50
:104C800040B11B232374607C18B12046FFF77AFEE5
:104C9000002070BD314610222046FFF7D3FE0028C9
:104CA000F1D0657C002DF4D02046FFF76BFE28463E
:104CB00070BD00BF0A460921FFF7D6BF0A460A2188
:104CC000FFF7D2BF30B50368234A5B6B934285B0D0
:104CD0002FD16A460921FFF7C7FF38B19DF8003090
:104CE00013F0C00304D0402B26D0002005B030BD07
:104CF0009DF809409DF806309DF807209DF80A00B0
:104D00009DF805109DF8085004F00304640092001B
:104D100003F0030344EAD01001F00F0142EA8323B9
:104D2000084443EA95130133073803FA00F005B04D
:104D300030BD69469847D0E79DF809309DF80710C7
:104D40009DF808005A1C01F03F0302EB034303EBFC
:104D50000020800205B030BDB54C000030B50368BE
:104D6000114D1B6CAB4283B004460A4617D1C07C80
:104D7000032818BF520212212046FFF7EBFE58B15C
:104D8000607C0C23237408B903B030BD2046FFF7C4
:104D9000F9FD002003B030BD012003B030BD01910A
:104DA0009847019AE4E700BF494800002DE9F04127
:104DB0000D46017A0129064614461F4607D033687E
:104DC00030465B699847E0B90020BDE8F081436850
:104DD000AB42F4D1002567B121464FF40072304652
:104DE000FFF730FE013504F500740028ECD0AF4227
:104DF000F2D17368727A1F44776062B90120BDE80E
:104E0000F08129463046FFF7A9FF0028DCD00123B6
:104E100075603372DEE7336830465B69BDE8F041A8
:104E2000184700BF38B500220C210546FFF792FE57
:104E30006C7C20B109232B7454B9204638BD14B9B9
:104E40000124204638BD2846FFF79CFD204638BD8A
:104E500028460024FFF796FD204638BD30B503688C
:104E6000114D1B6CAB4283B004460A4617D1C07C7F
:104E7000032818BF520219212046FFF76BFE58B1D4
:104E8000607C0E23237408B903B030BD2046FFF7C1
:104E900079FD002003B030BD012003B030BD019189
:104EA0009847019AE4E700BF49480000F0B503685D
:104EB0002B4F5B6BBB4285B004460D4616462DD189
:104EC0006A460921FFF7D0FE90B19DF80A305A06D4
:104ED00016D5E37C032B18BF6D022A464FF0200144
:104EE000204618BF7602FFF735FED0B12523237484
:104EF000607C18B12046FFF745FD002005B0F0BDED
:104F000003F03F039DF80B105B00721C43EAD113C2
:104F10002A431342DDD026232374E9E769469847E4
:104F2000D2E7324621212046FFF714FE0028DDD1CA
:104F3000024626212046FFF70DFE0028D6D142F278
:104F400010712046FFF7DEFD10B927232374CFE749
:104F5000657C002DD2D02046FFF714FD2846CDE712
:104F6000B54C000070B54FF416710446FFF7CAFD4A
:104F7000054678B1E3681B681A684FF00041FD23CD
:104F8000D1625363D36A002BFCDA667C936B5EB903
:104F9000284670BD637C1E222274002BF8D0204668
:104FA000FFF7F0FC284670BD20463546FFF7EAFCC7
:104FB000284670BD10B5037A012B044605D0022B9C
:104FC00009D000232372012010BDFFF72BFF00281A
:104FD000F7D1002010BDFFF7C5FF0028F1D1F8E799
:104FE00038B5C3681B681C684FF00043E362616317
:104FF000E36A002BFCDAA36B511E4FF0004502F26E
:10500000FF1211F8013FE5626363E36A002BFCDAEB
:105010009142A36BF5D14FF00042FF23E26263633C
:10502000E36A002BFCDA4FF00042FF23A16BE2623F
:105030006363E36A002BFCDA4FF00042FF23A16BAD
:10504000E2626363E36A002BFCDAA36BDBB203F07A
:105050001F02052A837408D0437C1F22027413B1F7
:10506000FFF790FC0023184638BD0123184638BDD1
:1050700038B50D464FF416710446FFF743FD40B9AD
:1050800023232374607C18B12046FFF77BFC0020AB
:1050900038BD2A46FC212046FFF7A2FF0028F1D0A8
:1050A00038BD00BF10B4074C074A08490848002320
:1050B000236014680C60096811605DF8044B03708C
:1050C000704700BF38100B4030100B40D815FF1F41
:1050D000F015FF1F034B04481B681840B0FA80F01E
:1050E0004009704730100B4001000F00024B186858
:1050F00000F00100704700BF24100B40014B1878EE
:10510000704700BFF015FF1F034B186880F4006064
:10511000C0F3C020704700BF24100B40034B186839
:1051200080F48060C0F38020704700BF24100B40E3
:10513000034B04481B681840B0FA80F040097047E0
:1051400030100B4002007F114FF47A722C4B02FB9F
:1051500000F09842F0B44BD82A4D082201214900B2
:105160000B01B5FBF3F39842264C3DD2013AF6D140
:10517000B4FBF1F44B081F02A0423DD2214E4B007C
:10518000012200E02346B6FBF3F4A04202F1010540
:1051900003EB010426D2102D2A46F3D1F0221A4E39
:1051A0001A4C18481A494FF47A7505FB03F3B0FB03
:1051B000F3F33360236823F008032360206820F4AE
:1051C0007F2323F47F6343F460233B431A4322602D
:1051D0000B681B07FCD50D4A136843F008031360E6
:1051E000F0BC70471201DAE7B4FBF1F4CF01C3E77A
:1051F000044C00270121BFE70B460022CFE700BF88
:105200007F8D5B0000D8B805F415FF1F2C100B40F4
:1052100024100B40014B1878704700BF7409FF1F22
:10522000014B1868704700BFD815FF1F30B4054CFC
:105230000D460FCC28606960AA60EB60012030BC8D
:10524000704700BFB815FF1F30B4054C0D460FCC9A
:1052500028606960AA60EB60012030BC704700BF25
:10526000E015FF1F024B1B680B600120704700BF59
:10527000D015FF1F704700BFF8B5054604F08CF845
:10528000064F064604E004F087F8801BB84203D8B6
:10529000A84704460028F6D12046F8BD40420F003A
:1052A0002DE9F041DFF840800E4FC8F800000546B8
:1052B00004F072F8064606E004F06EF8801BB8426F
:1052C0000AD805F035F9A84704460028F4D1C8F8F3
:1052D00000002046BDE8F0810023C8F800302046D9
:1052E000BDE8F08140420F00C815FF1F10B50C212A
:1052F000044605F013FA204610BD00BF054B1B788D
:1053000033B1054B1B78002B14BF032002207047DC
:1053100001207047B415FF1FCC15FF1F38B5044698
:105320000F480D46FFF7A8FF08B1002038BD0D4A11
:105330000D4B15600D481C60FFF79EFF0028F4D14F
:105340000B4A0C4B11681960196811601A68D20772
:10535000EBD51B6813F4702FE7D1012038BD00BFD7
:10536000ED50000008100B400C100B40D550000011
:1053700030100B40D815FF1F08B5044B04481968BE
:10538000FFF7CCFF08B1034B186808BDD415FF1F09
:1053900000001A0D10100B4030B5154B85B00D46AE
:1053A0001968FFF7BBFF00B3124A134B1268009253
:1053B0001968019159680291083305F10F041B68BF
:1053C0000393002301E051F8102C03F00301C900FE
:1053D0000133CA400DF1100E23F003010F2B71446D
:1053E00004F8012DEFD10023EB7305B030BD00BFF1
:1053F000D415FF1F10100B4014100B4008B5074BBD
:1054000007481968FFF78AFF30B1064B186880F427
:105410008070C0F3002008BD012008BDD415FF1F17
:1054200000001A0D10100B40044B1B6803B1184705
:10543000034B187800B97047FFF7E0BFC815FF1F8E
:10544000DC15FF1F054B186810F0020005D01B6823
:1054500003481840B0FA80F040097047D815FF1F84
:1054600000007F11F8B5940700D143B91F49204BC4
:10547000242040F2D31208701A600020F8BD0646BE
:105480001C481C460F461546FFF70AFF18BB1A4971
:105490001A4ADFF880E04FF0010C8EF800C02304B8
:1054A0000860174C1560174A1749184843F40073F1
:1054B000236013780860B3B979023046FFF72EFFF6
:1054C0000028DAD01248FFF7EBFE0028D5D1BDE85E
:1054D000F840FFF7B7BF0549054B0A204FF4EB72C0
:1054E00008701A60C9E73946E7E700BF7409FF1F73
:1054F000F815FF1FFD530000D815FF1F00100B40CB
:1055000004100B40CC15FF1F38100B4002007F1118
:10551000FD500000F015FF1F70B419490B7813F00F
:10552000C00311D0402B02D0002070BC70474B7AD2
:10553000CC79087A5A1C04F03F0302EB034303EBD7
:105540000020800270BC70474D7A8B79CA794C7903
:105550000E7A887A05F00301490003F003039200F4
:1055600041EAD01042EA832304F00F0143EA961384
:1055700008440738013303FA00F070BC704700BFDD
:10558000E015FF1F70B52C4EB37A03F040001546AE
:1055900058B903F03F03F27A00F0FF045B00681C87
:1055A00043EAD2130843034221D1244B1B780BB9A1
:1055B00049026D022248FFF7B1FE044640B9214975
:1055C000214B0F2040F2B12208701A60204670BDB6
:1055D00029461E48FFF7A2FE044688B919491A4B0E
:1055E00010204FF42D7208701A60204670BD1549C6
:1055F000154B262040F2A92208701A60204670BD83
:1056000000211348FFF78AFE044638B90D490E4BB6
:10561000112040F2B72208701A60D7E70D48FFF753
:105620002BFE0028D2D00749074B272040F2BA2290
:1056300008701A600024C9E7E015FF1FCC15FF1F92
:1056400000001A207409FF1FF815FF1F00001A211F
:1056500000001B26FD53000070B500211548FFF720
:105660005DFE044640B91449144B092040F219224A
:1056700008701A60204670BD1148FFF711FE70B91E
:1056800010481149114D06680B682A6823F48033CD
:1056900042F080622A6006600B60204670BD0649B9
:1056A000064B0A204FF40772087000241A60204647
:1056B00070BD00BF0000DB0C7409FF1FF815FF1F51
:1056C000FD53000034100B4028100B402C100B40F1
:1056D000FFF7C2BF38B5284B1B68D8050D4608D464
:1056E000264B1A6822F480321A601A6842F400329B
:1056F0001A60224A2248136843F480331360FFF78C
:10570000BBFD00282ED11C4C1E482B1F05F5FE7535
:1057100022685105FCD503F1400153F8042F0260C3
:105720009942FAD18D420B46F2D11748FFF7A4FDFA
:1057300078B9164A164B11681960196811601A6811
:10574000920717D51B6813481840B0FA80F040093B
:1057500038BD1149114B232040F2863208701A607F
:10576000002038BD0C490D4B202040F27B320870E0
:105770001A60002038BD00BF24100B4028100B40D9
:105780001D51000020100B403151000030100B4023
:10579000D815FF1F00007F117409FF1FF815FF1FA8
:1057A00038B514480C46FFF77BFDC8B9124A1349B7
:1057B00013681348134D23F4803313600B7805608E
:1057C00063B961021048FFF7A9FD30B90F49104BCA
:1057D0000E2440F2DB320C701A6038BD2146F1E72E
:1057E0000A490B4B0A2040F2CF3208701A600020A1
:1057F00038BD00BFFD53000028100B40CC15FF1F23
:1058000004100B400002FFFF22003A197409FF1F29
:10581000F815FF1FF8B50646007AC0070C46154676
:105820001F4613D483B10F4401E0BC420CD033684F
:105830002A4621469B6830469847013405F5007595
:105840000028F2D10020F8BD0120F8BD900712D049
:10585000002BF9D00F4401E0A742F5D033682A4667
:1058600021469B6830469847013405F500750028AD
:10587000F2D10020F8BD0648FFF7F4FD0028E3D17F
:105880000449054B0C2440F231320C701A60F8BD0B
:1058900037003A127409FF1FF815FF1FF8B50646C6
:1058A000007AC0070C4615461F4613D483B10F4437
:1058B00001E0BC420CD033682A4621469B69304641
:1058C0009847013405F500750028F2D10020F8BD95
:1058D0000120F8BD900712D0002BF9D00F4401E051
:1058E000A742F5D033682A4621469B69304698473F
:1058F000013405F500750028F2D10020F8BD0648F6
:10590000FFF7B0FD0028E3D10449054B0E2440F217
:10591000C1320C701A60F8BD27003A197409FF1FD4
:10592000F815FF1F70B5037A1546DA07ADF5007D4F
:105930000E4619D5AB0706D0294668464FF40072CB
:1059400003F058FA6D462A46314601231E48FFF7F8
:1059500089FD30B91D491E4B0D244FF466720C7041
:105960001A600DF5007D70BD437A022B044608D005
:10597000236820465B699847D8B900200DF5007D63
:1059800070BD43689942F3D1236829465B6C204679
:1059900098470028F1D063680E4A013363601368AA
:1059A0001B0C1B04002BDCD1236820465B69984745
:1059B000D7E7236831469B6C204698470028DCD007
:1059C000022366606372DFE701003A187409FF1F63
:1059D000F815FF1F04100B40437A012B0CD0022B4B
:1059E00001D001207047002103684172DB6C054A39
:1059F000934205D1FFF730BE00234372FFF72CBE60
:105A0000184700BFD1560000F8B505461D480C46A2
:105A1000FFF732FC40B11C491C4B0A204FF4BB720B
:105A200008701A600020F8BD194ADFF884E0194FA9
:105A3000194E1A4B4FF0010C8EF800C02946106029
:105A4000174D184A3C60184835601A60FFF766FC2D
:105A500038B90D490D4B042440F27D120C701A60C8
:105A6000F8BD1248FFF71CFC18B9FFF7EBFC00B1BA
:105A7000F8BD0549054B24204FF4C07208701A6028
:105A80000020F8BDFD5300007409FF1FF815FF1F2B
:105A9000D815FF1F00100B4004100B4038100B40AE
:105AA0004000010002007F1111003A06FD50000085
:105AB000F015FF1F2DE9F04F8E4D8F4CDFF8AC82B3
:105AC0008E4F8F4E017200232B70437288F8003086
:105AD0003B70337023688B4A8B488C49DFF890E227
