:1000000000000320D101000031B50000E9B4000078
:10001000E9B40000E9B40000E9B40000E9B400006C
:10002000E9B40000E9B40000E9B4000031B5000013
:1000300031B50000E9B4000091C7000095C7000089
:1000400031B5000031B5000031B5000031B5000018
:1000500031B5000031B5000031B5000031B5000008
:1000600031B5000031B5000031B5000031B50000F8
:1000700031B5000031B5000031B5000031B50000E8
:1000800031B5000031B5000031B5000031B50000D8
:1000900031B5000031B5000031B5000031B50000C8
:1000A00031B5000031B5000031B5000031B50000B8
:1000B00031B5000031B5000031B5000031B50000A8
:1000C00031B5000031B5000031B5000031B5000098
:1000D00031B5000031B5000031B5000031B5000088
:1000E00031B5000031B5000031B5000031B5000078
:1000F00031B5000031B5000031B5000031B5000068
:1001000031B5000031B5000031B5000031B5000057
:1001100031B50000D1BA000031B5000031B50000A2
:1001200031B5000031B5000031B5000031B5000037
:1001300031B5000031B5000031B5000031B5000027
:1001400031B5000031B5000031B5000031B5000017
:1001500031B5000031B5000031B5000031B5000007
:1001600031B5000031B5000031B5000031B50000F7
:1001700031B5000031B5000031B5000031B50000E7
:1001800031B5000031B5000031B5000031B50000D7
:1001900031B5000031B5000031B5000031B50000C7
:1001A00031B5000031B5000031B5000031B50000B7
:1001B00031B5000031B5000031B5000031B50000A7
:1001C00031B5000031B5000031B5000031B5000097
:1001D000594B4CF2205210B51A804DF628121A8055
:1001E00000BF00BF0BF0A8F9544B4FF030621A600B
:1001F000534A9A60534ADA60534B4FF470021A60C4
:10020000524B534A1A60534B1A78110703D51A7888
:1002100042F008021A70504B5049AA221A70504AF4
:10022000504B8B4204D252F8040F43F8040BF8E70A
:100230004D4B4E4900228B4202D243F8042BFAE781
:100240004B494C4A002352F8230041F82300013364
:10025000742BF8D1484B494A802103F8011B934283
:10026000FBD1474B424A1A60464B8A221A70A3F5CB
:10027000805324225A70A0221A709A799207FCD5D2
:100280009A79D406FCD4404A937903F00C03082BE6
:100290003D4BF9D101221A7148225A719A79900680
:1002A000FCD5394A9179384B4906FBD5374A38494C
:1002B00011600221516020221A709A7902F00C021A
:1002C0000C2AFAD1334B344A1A60344A344C13683E
:1002D00013F4807303D123604FF4A8531360314BA0
:1002E000314A1A6000225A60072243F8042C2F4A30
:1002F000C3F80C2D62B60BF0F5F92368DA0705D5C3
:100300002B480BF067F92B4B2B4A1A602B4B1B78B1
:100310005B0609D5274C284B22689A4204D1244811
:100320000BF058F9002323600DF042FA0BF00AF9A4
:100330000CF02EFBFEE700BF0E200540308004408D
:10034000823F04000100002B88ED00E0002008E05F
:100350000300008502D0074000E007408014FF1F23
:100360001C2301007009FF1F8014FF1F2821FF1F9D
:100370000002FF1F0000000000E400E064E400E071
:1003800008ED00E000500640004006404480044074
:100390000000030104800440C010050010D0034099
:1003A00014D0034014E000E0FF760100000020209C
:1003B000310000001CE00340A5C3945A00F0074040
:1003C000FFFFFFFFFFFFFFFFFFFFFFFFFFFFFFFF3D
:1003D000FFFFFFFFFFFFFFFFFFFFFFFFFFFFFFFF2D
:1003E000FFFFFFFFFFFFFFFFFFFFFFFFFFFFFFFF1D
:1003F000FFFFFFFFFFFFFFFFFFFFFFFFFFFFFFFF0D
:10040000FFFFFFFFFFFFFFFFFFFFFFFFDEF9FFFF23
:1004100010B5054C237833B9044B13B10448AFF33E
:1004200000800123237010BD8014FF1F0000000016
:1004300018230100084B10B51BB108490848AFF359
:1004400000800848036803B910BD074B002BFBD0A0
:10045000BDE81040184700BF000000008414FF1FD3
:10046000182301008014FF1F0000000000207047C7
:10047000704700BF4FF0FF30704700BF006910B1F8
:1004800003689B6A18477047006910B10368DB6A0C
:1004900018477047006910B103681B691847704717
:1004A000006910B103689B6918474FF0FF3070472F
:1004B000006910B10368DB6818477047006910B124
:1004C0000168096B0847704710B4006920B10468DF
:1004D000616B5DF8044B08475DF8044B704700BF43
:1004E000006910B103689B6B18470020002170471A
:1004F000006910B10368DB6B1847002000217047CA
:10050000006910B103681B6C18477047006910B18F
:1005100003685B6C18477047006910B103689B6CF7
:1005200018470148704700BFB01A0100006910B1B8
:100530000368DB6C1847704738B50B6904462BB16C
:100540001D6819462B6D9847204638BD4FF47A70C8
:10055000064A23712373A06022600B692361002B7C
:10056000F2D01A6901321A61204638BDB81901006B
:10057000006910B103685B6D18477047006980B16E
:1005800000B5036883B09B6A01220DF1070198470B
:1005900020B19DF8070003B05DF804FB4FF0FF3079
:1005A000F9E74FF0FF30704710B582B002AB026838
:1005B00003F8011DD46A19460122A04702B010BDFC
:1005C000C36D0BB101207047006E003018BF0120D1
:1005D000704700BF704700BF10B50446024603696C
:1005E000054906480CF020F9206920B10368BDE8F0
:1005F00010405B6A184710BD981A0100D409FF1F0C
:1006000002460369014902480CF00EB9B41A010010
:10061000D409FF1F2DE9F0410F461646804605F02C
:1006200085FA044605F072FA054605F05FFAA4F271
:10063000BC739BB27F2B02D8EAB20C2A2BD90023C1
:10064000A8F8003005F022FA044605F02FFA054616
:1006500005F03CFAE3B2172B02D8EBB23B2B0BD9D7
:1006600000233B8005F032FA10F0010F14BF642321
:1006700000233370BDE8F081C3B23B2BF0D8E40215
:100680006B0104F4FF2403F4FF532343C0F346003B
:1006900003439BB2E5E7C0B21F28D0D86D0105F433
:1006A000FF55284340EA43239BB2C9E710B50446EF
:1006B000406E18B10DF0ACF80023636604F124001D
:1006C000BDE8104009F018B82DE9F041002394B0BE
:1006D0001A460546243104A84FF47A74254F8DF844
:1006E00004308DF80C30129313930294009709F0A4
:1006F00057F8129B002B32D068200CF053F90446B7
:100700009DF80460029A9DF80C301B481B49267620
:100710004FF47A78002620606161E26184F820302D
:1007200004F1240004A9267126732661C4F8088008
:1007300008F0A6FF2369124A6761013366662E71CD
:10074000C5F808802E732C6123612A600D4B00933D
:1007500004A808F0D1FF284614B0BDE8F081139B2F
:10076000002BC9D1064A2B71AC602B732B612A6018
:10077000ECE700BF94190100181A01004C190100A0
:10078000B819010070190100C26D62B1137803F04D
:10079000080303F0FF0003B3D3695069181A48BF78
:1007A0006FF000407047016EC1B191F8313003F035
:1007B000080303F0FF0083B1D1E90423D1E900016C
:1007C000101A30B463EB010100256FF000448D4234
:1007D00008BF844200D2204630BC704708467047AC
:1007E000836C13B1184607F0ABBBC06C08B105F0C1
:1007F00099BC4FF0FF30704700B5836C83B063B194
:10080000184601220DF1070107F0CEFA01280CD19C
:100810009DF8070003B05DF804FBC06C28B101220D
:100820000DF1070105F0AEFBF0E74FF0FF30F1E707
:10083000836C13B1184607F0C9BDC06C08B106F04F
:10084000E5BC704700B5836C83B08DF8071043B1E9
:10085000184601220DF1070107F0FAFD03B05DF81B
:1008600004FBC06C0028F9D001220DF1070106F04D
:10087000D5FE03B05DF804FB70B5D0F87C448EB0B3
:100880001646C4B1002504F23C440A462B462146D4
:1008900068468DF800508DF801508DF8025007F031
:1008A00015FA08B90EB070BD32462146684607F009
:1008B0007DFB0EB070BDD0F880040028F2D000F5AA
:1008C00088650A462346294668468DF831408DF8EA
:1008D00032408DF8334005F0A7FE0028E2D03246C2
:1008E0002946684606F0D2FD0EB070BD30B5D0F88E
:1008F0007C448FB0A4B100250A462B4621466846A9
:100900008DF800508DF801508DF8025007F03EFA36
:1009100008B90FB030BD684607F034FC0FB030BDE9
:10092000D0F880040028F4D00A46234601466846E1
:100930008DF831408DF832408DF8334005F0F4FEEB
:100940000028E6D0684606F087FB0FB030BD00BF38
:1009500038B5446E0CB1204638BD05464FF4807062
:100960000CF04EFF0146686680B1E86D0C7028B14E
:100970004FF4807208F06AF96C6EECE7286E40B1B3
:100980004FF4807205F0DCF96C6EE4E7024C6C66A3
:10099000E1E70C46DFE700BF9C14FF1FD0B5C46D34
:1009A0008CB1012B08BF002A01D30020D0BD114615
:1009B000204607F015FC0028F7D0204607F00CFD74
:1009C0000028F2D0D0BD046E002CEED0204605F0F9
:1009D000C1FB0028E9D02046BDE8D04006F0ACBD00
:1009E00010B5D0F87C448EB07CB10A46012304F2E5
:1009F0003C41684600248DF800408DF801408DF898
:100A0000024007F001F90EB010BDD0F880040028B4
:100A1000F9D00A46012300F5886168468DF8314017
:100A20008DF832408DF8334006F0C4FC0EB010BD96
:100A3000C36D9BB11A7812F0700F00D1704710B5DA
:100A400004460021184607F0CBFB206E28B1002297
:100A50000023BDE8104005F07DBB10BD006E0028EE
:100A6000ECD090F8313013F0500FE7D00022002383
:100A700005F070BB38B50546D0F87C04C0B1C46938
:100A8000013C07F0C3FFD5F87C34241A43B19879B0
:100A90004FF4007303FA00F080B2A0FB040138BDEC
:100AA000D5F880346BB1D3F83404A0FB040138BD11
:100AB000D5F880342BB11846D3F8284406F08AF9CB
:100AC000E1E70020002138BDC36D13B15869002152
:100AD0007047036E13B193E8030070471846194638
:100AE000704700BFC36D13B1D86900217047036E12
:100AF00013B118695969704718461946704700BF05
:100B0000C36D13B1184607F04FB9006E08B105F078
:100B100039BA4FF0FF307047C36D13B1184607F074
:100B20000FBA006E08B105F0FDBA4FF0FF30704704
:100B3000D0F87C244AB19179D0694FF400738B408E
:100B40009BB20138A3FB00017047D0F8802432B17A
:100B5000D2F82834D2F83404A3FB000170470020F7
:100B600000217047C36D33B11B7813F0700F14BFB1
:100B7000012000207047006E30B190F8313013F042
:100B8000500F14BF01200020704700BF10B5D0F8EF
:100B90007C448EB0A4B10A46684621460123002455
:100BA0008DF800408DF801408DF8024007F0EEF816
:100BB00008B90EB010BD684608F04CFA0EB010BD72
:100BC000D0F880040028F4D00A4601230146684684
:100BD0008DF831408DF832408DF8334005F0A4FD9A
:100BE0000028E6D0684606F0CBF90EB010BD00BF75
:100BF0002DE9F041012B94B0054641D0022B01F1C3
:100C0000040140F20223684618BF002308F05AFE90
:100C1000129B002B3DD068200BF0C4FE04469DF8CB
:100C2000046022482249029A9DF80C30206004AFEB
:100C30002676616100264FF47A78394604F1240063
:100C4000E26184F82030267126732661C4F808809A
:100C500008F016FD23691749174A666601332E719D
:100C6000C5F808802E732C61616123612A60134BE3
:100C70000093384608F040FD284614B0BDE8F081E6
:100C800044F202230431684608F01CFE129B002B3C
:100C9000C1D1139B002BBED14FF47A71064A2B7140
:100CA0002B732B61A9602A6004AFE0E7181A0100DA
:100CB0004C19010094190100B819010070190100C4
:100CC000C36D13B1184607F081BB006E08B106F082
:100CD0009DBA7047C36D13B1184607F0B9BB006EDB
:100CE00008B106F09BBC7047836C13B1184607F03F
:100CF000AFBBC06C08B106F091BC7047826C62B1AA
:100D0000137803F0080303F0FF0003B3D3695069BD
:100D1000181A48BF6FF000407047C16CC1B191F81C
:100D2000313003F0080303F0FF0083B1D1E904235D
:100D3000D1E90001101A30B463EB010100256FF016
:100D400000448D4208BF844200D2204630BC704728
:100D50000846704730B5D0F87C448FB074B1002598
:100D60000A462B46214668468DF800508DF8015002
:100D70008DF8025007F00AF80FB030BDD0F88004AB
:100D80000028F9D00A462346014668468DF83140CE
:100D90008DF832408DF8334005F0C6FC0FB030BD01
:100DA000D0B4039C16461F4634B1012C1ED0022C31
:100DB0000DD00020D0BC7047C46DDCB1012B08BF42
:100DC000002AF6D220461146D0BC07F009BAC36DFE
:100DD000B3B1DA69B61847F10007012F08BF002E3A
:100DE000E7D231461846D0BC07F0FAB9C36D8BB1D3
:100DF0005A69EFE7006E0028DBD0D0BC05F0AAB935
:100E0000006E0028D5D0D0E9042392197B41D0BCD4
:100E100005F0A0B9006E0028CBD0D0E900239219CC
:100E20007B41EAE70269084B10B50446036042B112
:100E30001369013B136123B9006910B103681B6A90
:100E40009847204610BD00BFB819010038B5C36DE2
:100E5000144A0260044600F12405F3B1284608F064
:100E60004BFC606E08B10CF0D3FC0F4B636128465D
:100E700008F042FC22690D4B236042B11369013B2B
:100E8000136123B9206910B103681B6A9847204693
:100E900068210BF089FD204638BD036E002BDDD1A3
:100EA000DFE700BF181A010070190100B81901002E
:100EB00002690A4B10B50446036042B11369013B55
:100EC000136123B9006910B103681B6A9847204673
:100ED00014210BF069FD204610BD00BFB8190100B8
:100EE000D0F8E02038B51A4B1A4D03600446C0F81C
:100EF000D0501AB11369013B1361CBB1D4F8CC20A7
:100F0000C4F8BC501AB11369013B1361C3B1D4F8E2
:100F1000B820C4F8A8504AB11369013B13612BB93A
:100F2000D4F8B80010B103681B6A9847204638BD52
:100F3000D0F8E0000028E1D003681B6A9847DDE79D
:100F4000D4F8CC000028E2D003681B6A9847DEE79B
:100F5000581B0100B819010038B5C36D124A026070
:100F6000044600F12405D3B1284608F0C5FB606EA5
:100F700008B10CF04DFC0D4B6361284608F0BCFB3A
:100F800022690B4B236042B11369013B136123B902
:100F9000206910B103681B6A9847204638BD036E6C
:100FA000002BE1D1E3E700BF181A0100701901001E
:100FB000B81901002DE9F0430B2183B04A484B4D8D
:100FC00004F032FB0C21484804F080FB05F28C440D
:100FD0000D21454804F0CAFB20464FF0000109F0FE
:100FE000E9FC2046C5F8884409F094F838B10A2194
:100FF0003F480AF075F93F480BF0FEFBFEE7D5F8D5
:101000008814281D08F0FCFB0028F0D03A49DFF8CE
:10101000F4804B68D8F80020132B05DC01EB830427
:101020000133A260A5654B60D5F87C042F4B0028E6
:1010300045D08679C4694FF4007303FA06F6B6B258
:10104000013CA6FB046707F0E1FCD5F87C34274A95
:10105000241A53B39979D8F800204FF400738B40C9
:101060009BB2A3FB044500920022914623492148EC
:101070004FF00A08FE230BF0D7FB32463B468DE8C3
:1010800000031C480BF026FC01211D480AF028F93A
:101090008DE8000322462B4616480BF01BFC154832
:1010A00003B0BDE8F0430BF0A7BBD2F88034D8F80A
:1010B0000020ABB1D3F83434A4FB0345D3E7D3F815
:1010C000800440B1D0F82844D0F83464A6FB04670B
:1010D00005F080FEB9E70024002526462F46C2E72A
:1010E00000240025BFE700BF8009FF1FA014FF1FD9
:1010F000D41A0100D409FF1F5019FF1FE01A010084
:10110000F01A01007409FF1F2DE9F043854A864952
:10111000864D874C9BB01378002BFCD00B78DB07F7
:10112000F9D52B6820681B1A0E2BF4D908218148A9
:10113000DFF834820AF0D4F87F480BF05DFB7F4B78
:101140007F4A1A6009F0CAFFFFF734FFD8F87C64C1
:10115000002E00F08A80002506AC31462B46204642
:10116000784A8DF818508DF819508DF81A5006F0FD
:101170000DFE002840F08C8040F202232046714A88
:10118000714908F09FFB189B002B00F0BB80682082
:101190000BF008FC04469DF81C50089A9DF824307A
:1011A0006A486B4925764FF47A7900250AAF2060AA
:1011B0006161E26184F8203004F124003946257130
:1011C00025732561C4F8089008F05AFA2369614A2A
:1011D000614E656601338DF80850CDF80C908DF89E
:1011E000105005946261236101965C4B069338466A
:1011F00008F082FA13225A4901A80BF0E7FA01A875
:101200000BF0FAFA059810B103681B6C9847172188
:1012100054480AF065F848480BF0EEFAD8F87C24F8
:10122000514B002A4CD0002302F23C4042491A465E
:1012300007F032FA40480BF0DFFA0A214B480AF077
:101240004FF83D480BF0D8FA0AF0FEF8059A0196DF
:1012500042B11369013B136123B9059810B10368CA
:101260001B6A98471BB0BDE8F083D8F8801406AC21
:10127000002981D033462046324A8DF849608DF8E6
:101280004A608DF84B6005F04FFA00283FF474AFC8
:10129000D8F87C54344BF5B1294601230025294A5E
:1012A0008DF8185020468DF819508DF81A5006F018
:1012B0006DFD00283FF460AF204607F0CBFE5BE7F2
:1012C000D3F880040028B5D013461B4900F5886088
:1012D00005F094FAAEE7D3F8801400293FF44CAF40
:1012E0000123184A8DF8495020468DF84A508DF850
:1012F0004B5005F019FA00283FF43EAF204605F0A8
:101300003FFE39E7199B002B7FF441AF4FF47A720F
:10131000114E8DF808308DF8103005930392019628
:101320000AAF62E79C20FF1F941FFF1F981FFF1F3B
:101330001421FF1F381B0100D409FF1F341FFF1F9A
:1013400015060000F41A0100A414FF1F181A01006A
:101350004C19010094190100B8190100701901001D
:10136000001B0100141B0100A014FF1F2C1B010017
:10137000014803F00BBD00BF541AFF1FF8B52F4BF7
:101380002F4E304FC3F88C7400252F4A2F48304918
:10139000304C1A6028273246C3F89804C3F8A014CA
:1013A00083F8AB742C49C3F87C54C3F8805483F899
:1013B000945483F8AE5428460BF0CCFB3246274EAB
:1013C000274B26604FF47A76C4F8A830C4F8BC30B6
:1013D000C4F8D030234965606FF00107204684F8D7
:1013E000AC5084F8B450C4F8B85084F8C05084F8B5
:1013F000C850C4F8CC5084F8D45084F8DC50C4F8F9
:10140000E050C4F8B060C4F8C460C4F8D860C4F850
:10141000E450C4F8E850C4F8EC50C4F8F45084F830
:10142000F85084F8F950C4F8F0700BF093FB0E4BB1
:1014300083E830001D72DD60F8BD00BFA014FF1FFF
:101440007009FF1F8C1D0100781A0100341D010076
:10145000011001385019FF1FD5050000581B01006D
:10146000B8190100E10E0000541AFF1F4368132B46
:1014700008DC10B400EB83040133A2604360A16573
:101480005DF8044B704700BF4068704700EB810176
:1014900048687047002070470120704700EB8101C9
:1014A000486D0368DB69184700EB8101486D0368EC
:1014B0009B691847D0F8CC0000282DD070B4046880
:1014C0001A4BE46A9C4228D1006920B30468E46A9C
:1014D0009C4222D10069F0B10468E46A9C421CD1AC
:1014E0000069C0B10468E46A9C4216D1006990B1F9
:1014F00016460268D46A9C420D4611D1006950B16B
:101500000268D46A9C420BD1006920B1036832465C
:10151000DB6A70BC184770BC7047234670BC184724
:1015200032462946234670BC184700BF8904000094
:1015300010B50446D0F8B80000286FD00368404AC0
:101540005B6C934270D10069002867D00268526CCE
:101550009A4272D10069002860D003685B6C9342A4
:1015600062D10069002859D00268526C9A4264D155
:101570000069002852D003685B6C934254D1006923
:1015800000284BD003685B6C9847002846D0D4F8FD
:10159000B800002842D002682A4B126C9A4245D10A
:1015A000006900283AD00268126C9A423ED1006964
:1015B000002833D00268126C9A4237D100690028A3
:1015C0002CD00268126C9A4230D1006930B30268A4
:1015D000126C9A422AD1006900B30268126C9A42D6
:1015E00024D10069D0B10268126C9A421ED1006900
:1015F000A0B10268126C9A4218D1006970B10268F9
:10160000126C9A4212D1006940B10268126C9A427F
:101610000CD1006910B103681B6C9847002384F853
:10162000F830C4F8F43010BD9847AEE79047002377
:1016300084F8F830C4F8F43010BD9047A5E700BF37
:101640000D05000001050000704700BF2DE9F043C3
:101650000446D0F8B80087B050B30368604A5B6CAA
:10166000934240F03B81006910B30268526C9A4289
:1016700040F039810069D8B103685B6C934240F057
:101680002D810069A0B10268526C9A4240F02B8112
:10169000006968B103685B6C934240F01F81006988
:1016A00030B103685B6C984710B107B0BDE8F083B8
:1016B000A16D4C4A0B6801A81D680223A847D4F805
:1016C000B8302BB11A69013A1A61002A00F09080F3
:1016D000059BC4F8B830002BE7D01A694249019144
:1016E00001321A61059A002ADFD01369013B1361A8
:1016F000002BDAD1059C002CD7D022683B4B126A14
:101700009A4240F0F58020692160002860D002698B
:10171000013A0261002A5BD12569002D58D02A6860
:10172000126A9A4240F0ED802869296000284BD067
:101730000269013A0261002A46D12E69002E43D087
:101740003268126A9A4240F0E28030693160DFF814
:1017500098E0002834D00269013A026182BB3769FF
:1017600077B33A68126A9A4240F0D7803869C7F86E
:1017700000E008B30269013A0261EAB9D7F81080C3
:10178000B8F1000F18D0D8F80020126A9A4240F041
:10179000CA80D8F81020C8F800104AB11369013B7C
:1017A00013612BB9D8F8100010B103681B6A984771
:1017B000404614210BF0F8F8384614210BF0F4F8E9
:1017C000304614210BF0F0F8284614210BF0ECF809
:1017D000204614210BF0E8F807B0BDE8F08300BF05
:1017E0000D050000A81B0100B8190100B10E000092
:1017F000D4F8B850002D3FF46BAF2A684B4B126AF7
:101800009A4278D128694A492960002861D0026942
:10181000013A0261002A5CD12E69002E59D032684B
:10182000126A9A426AD13069316000284DD002694B
:10183000013A0261002A48D13769002F45D03A6841
:10184000126A9A4260D138693960DFF8E4E0002812
:1018500037D00269013A02619ABBD7F81080B8F11B
:10186000000F2ED0D8F80020126A9A4252D1D8F830
:101870001000C8F800E000B30269013A0261E2B961
:10188000D8F81090B9F1000F17D0D9F80020126ADB
:101890009A4245D1D9F81020C9F800104AB113690D
:1018A000013B13612BB9D9F8100010B103681B6A12
:1018B0009847484614210BF077F8404614210BF066
:1018C00073F8384614210BF06FF8304614210BF0F2
:1018D0006BF8284614210BF067F8F9E698470028C2
:1018E0007FF4E3AEE4E6904700287FF4DEAEDFE667
:1018F00020469047D9E628469047E9E6304690478B
:10190000E7E72846904763E738469047DDE73046EB
:10191000904759E740469047D3E7384690474FE70E
:1019200048469047C9E74046904745E7B10E00005A
:10193000B8190100D0F8B830002B36D01A681C490D
:10194000526C8A4210B504462CD1186948B303681A
:101950005B6C93422AD1006918B30268526C9A42B8
:1019600021D10069E8B103685B6C93421ED1006924
:10197000B8B10268526C9A4215D1006988B1036807
:101980005B6C984768B1236820461B6C98472046DB
:10199000FFF75CFE00226FF0010384F8F920C4F821
:1019A000F03010BD18469047ECE770479847E9E7DC
:1019B0000D0500002DE9F043064683B00C4617469E
:1019C000FFF744FED6F8B85004EB8404002D69D02C
:1019D00028684C492201446B8C424FF0000C74D1B2
:1019E000296900295AD00B68D3F83480A04572D1F8
:1019F000D1F810E0BEF1000F57D0DEF80040646B64
:101A000044456ED1DEF810E0BEF1000F4DD0DEF897
:101A10000030D3F83480A04569D1DEF81040002CA6
:101A200043D02368D3F83490C14566D12469002C93
:101A30003BD02168CDF800C063462046496B8847FB
:101A4000D6F8B850002D2DD02A682F4BD46A9C426E
:101A500031D1286930B30268D46A9C4233D100691D
:101A600000B30268D46A9C422DD10069D0B10268EB
:101A7000D46A9C4227D10069A0B10268D46A9C4212
:101A800021D1006970B10268D46A9C421BD10069FF
:101A900040B103683946DB6A502210E0C46A1A4B31
:101AA0009C4208D103B0BDE8F083C46A164B9C4247
:101AB00001D10846CFE7394628465022234603B0D5
:101AC000BDE8F04318473946F7E7CDF800C0634654
:101AD0002846A047B4E7CDF800C063460846C04793
:101AE000AEE7CDF800C063467046A047A8E7CDF842
:101AF00000C063467046C047A2E70023204600931B
:101B0000C8479DE7C9040000890400002DE9F041A1
:101B10000546806D1849036801271B6985F8F87030
:101B200094B098476B68C5F8E43000218B42C5F843
:101B3000F4101DDD0C460E464FF02F0801E0D5F8DD
:101B4000F410ADF80E404B1CC5F8F4306A46284638
:101B50000094029601968DF80C708DF80D60ADF82A
:101B60001080FFF727FFD5F8E4300134A342E6DC0C
:101B700014B0BDE8F08100BFA81B01002DE9F041C1
:101B80000D46144682B00021502206460CF0FEF9A4
:101B9000D5F8F430A342C0F0BA802846FFF756FDCE
:101BA000D5F8B80004EB840422014FF0000C0028A3
:101BB00000F0A9800768714C796BA14240F0BB80AE
:101BC0000169002900F0AC800B68D3F83480A0458F
:101BD00040F0C880D1F810E0BEF1000F58D0DEF818
:101BE0000030D3F83480A04540F0B680DEF810E035
:101BF000BEF1000F4CD0DEF80030D3F83480A045A1
:101C000040F0AA80DEF810E0BEF1000F40D0DEF810
:101C10000030D3F83480A04540F0AA80DEF810E010
:101C2000BEF1000F34D0DEF80030D3F83480A04588
:101C300040F09E80DEF810E0BEF1000F28D0DEF804
:101C40000030D3F83480A04540F09280DEF810E0F8
:101C5000BEF1000F1CD0DEF80030D3F83480A04570
:101C600040F08680DEF810E0BEF1000F10D0DEF804
:101C70000030D3F83480A0457AD1DEF810403CB172
:101C80002168CDF800C063462046496B884756E07E
:101C9000BC6A3B4B9C4247D108460268946A9C420E
:101CA00042D1006900282ED00268946A9C423BD140
:101CB000006940B30268946A9C4235D1006910B350
:101CC0000268946A9C422FD10069E0B10268946A6C
:101CD0009C4229D10069B0B10268946A9C4223D128
:101CE000006980B10268946A9C421DD1006950B1BC
:101CF0000268946A9C4217D1006920B1036850229F
:101D00009B6A31469847304602B0BDE8F0815022C8
:101D1000002130460CF03AF9304602B0BDE8F081BF
:101D2000BC6A174B9C42EED050223146A047304649
:101D300002B0BDE8F081CDF800C063468847D5F811
:101D4000B8000028DFD002680D4B946A9C42EBD1AA
:101D500000690028A1D1D6E7CDF800C063467046DF
:101D6000C047ECE7CDF800C063460846C047E6E749
:101D7000002370460093C047E1E700BFC90400009C
:101D80007D04000030B5D0F8FC5095B004464DB944
:101D900023E0029BC4F8FC309DF81030D3B9D4F88E
:101DA000FC50D5B12A4621466846FFF7E7FE94F875
:101DB0000021002AEDD1D4F8FC30D4F8F41001331E
:101DC000C4F8FC308B429DF8103028BFC4F8FC20CA
:101DD000002BE4D0284615B030BD0025284615B0AC
:101DE00030BD00BFF0B595B017460A4601466846BB
:101DF0001D461A9E1B9CFFF7C1FE384604A90CF035
:101E00005FFB9DF80C30009A326033B9019BBDF83E
:101E10000E202B60228015B0F0BD4FF0FF33F6E7A7
:101E200000B595B00A4601466846FFF7A7FE01983F
:101E300015B05DF804FB00BF70B5D0F8CC3094B09D
:101E40000446002B4CD01D686049EA6B8A4240F082
:101E5000B7801A69002A00F0AB801068C66B8E420A
:101E600052D11069002834D00668F66B8E424CD1EE
:101E7000006900282DD00668F66B8E4245D10069B6
:101E800038B30668F66B8E423FD1006908B3066826
:101E9000F66B8E4239D10069D8B10668F66B8E4276
:101EA00033D10069A8B10668F66B8E422DD1006966
:101EB00078B10668F66B8E4227D1006948B1066892
:101EC000F66B8E4221D1006918B10368DB6B98472D
:101ED0001CE02E6C3E498E4275D11046002522E052
:101EE0001D466846D4F8F0202146FFF747FE6A46B3
:101EF000D4F8F01001952046FFF75CFD6FF0010368
:101F0000C4F8F03014B070BD1046B047D4F8CC30EF
:101F10000546002BE5D01A682D49166C8E424CD12F
:101F200018690028DDD003681B6C8B423ED1006924
:101F30000028D6D003681B6C8B4237D1006900287B
:101F4000CFD003681B6C8B4230D100690028C8D009
:101F500003681B6C8B4229D100690028C1D003683B
:101F60001B6C8B4222D100690028BAD003681B6C1D
:101F70008B421BD100690028B3D003681B6C8B42D5
:101F800014D100690028ACD003681B6C8B420DD1C2
:101F900000690028A5D003681B6C8B4206D100693C
:101FA00000289ED003681B6C98479AE7984798E7EB
:101FB0002E6C07498E42154693D01846B04790E7DD
:101FC00018469047A2E70025F7E700BFF10400009C
:101FD00001050000F0B50C4695B0014606461546D1
:101FE000684622461F46FFF7C9FD00998C4221D062
:101FF0003B462A463046FFF7EDFF28460CF0C0FA74
:102000002B18044613F8013C2F2B03D00D4B1B88D3
:102010002B52013404A80CF0B3FA20440130B8422A
:1020200003D3BDF80E0015B0F0BD04A928460CF08E
:1020300027FAF6E7034BBDF80E001B882B8015B07E
:10204000F0BD00BFB81B01002DE9F043ADF5257DC3
:102050004FF48073914624AA0D460446FFF7BAFF59
:10206000064624A80CF08CFA014624A809F038F999
:1020700021480AF0C1FB2A46214610A8FFF77EFD41
:1020800014A968460CF0D6F94946804614A80CF00D
:1020900017FA10AA29462046FFF78CFC64AA4FF4D1
:1020A000807329462046FFF795FF64A80CF068FA74
:1020B00004EB8606014664A809F012F90E480AF0FE
:1020C0009BFBB06D036864AA24A9DB6898470646A9
:1020D00060B96F46C7EB08020132694614A808F0E0
:1020E000FFFF10AA29462046FFF764FC30460DF595
:1020F000257DBDE8F08300BFD409FF1F2DE9F04F17
:10210000ADF6B44D04460D4690461F460A460146BC
:1021100020A8FFF733FD209E0FB908F1FF3734A840
:102120003A462146FFF72AFD48A832462146FFF7E6
:1021300025FD502220A95CA808F0D2FF502234A926
:1021400070A808F0CDFFBDF8DE30BDF88E209A42B1
:102150000DD02321164809F0C3F816480AF04CFBAD
:102160004FF0000840460DF6B44DBDE8F08FACAA24
:102170004FF4807329462046FFF72CFFDDF82481B9
:102180004545824600F0AC8202A842462146FFF750
:10219000F5FC02A9502284A808F0A2FF84A998A8FF
:1021A000502208F09DFF869EB54206D13EE300BF57
:1021B000BC1B0100D409FF1F1E463246214602A85F
:1021C000FFF7DCFC502202A984A808F089FF502206
:1021D00084A998A808F084FF869B9D42ECD1229B9D
:1021E000869384AA31462046FFF7E4FB359BBDF871
:1021F000DEE0ADF88EE020AA294620462293209703
:102200003595FFF7D7FB34AA39462046FFF7D2FBB6
:10221000ECAA4FF4807329462046FFF7DBFEBDF899
:10222000DE20BDF82E319A4200F0D0829DF88C302D
:10223000002B40F0108104EB8009ECAAD9F858106B
:102240000B6816A8D3F800800223C0471A9B002B06
:1022500086D019688D4A496C914240F01281186904
:10226000002800F04D820168496C914240F00A81DB
:102270000069002800F044820168496C914240F0F6
:1022800001810069002800F03B820168496C91429D
:1022900040F0F8800069002800F032820168496C43
:1022A000914240F0EF800069002800F02982016827
:1022B000496C914240F0E6800069002800F02082DD
:1022C0000168496C914240F0DD800069002800F00F
:1022D00017820168496C914240F0D480006900285F
:1022E00000F00E820168496C914240F0CB80006999
:1022F000002800F0058203685B6C98478046B8F1BF
:10230000000F00F09E821A98002831D00268604BBE
:10231000516B994240F08C82006948B30268516B5E
:10232000994240F08582006910B30268516B99426E
:1023300040F07E820069D8B10268516B994240F04A
:1023400077820069A0B10268516B994240F07082B7
:10235000006968B10268516B994240F06982006976
:1023600030B1036800220092596B00220023884795
:1023700004EB8A0A1BA8DAF85810DFF81C810B68F6
:10238000ACAAD3F800B00023D8471F9B002B00F065
:10239000858019683F4AD1F828B0934540F0848180
:1023A000186900287AD00168D1F828B0934540F028
:1023B0007C810069002871D00168D1F828B093456C
:1023C00040F073810069002868D00168D1F828B016
:1023D000934540F06A81006900285FD00168D1F818
:1023E00028B0934540F061810069002856D001680B
:1023F000D1F828B0934540F05881006900284DD0AD
:102400000168D1F828B0934540F04F810069002859
:1024100044D00168D1F828B0934540F04681006966
:1024200000283BD00168D1F828B0934540F03D81A9
:10243000006998B30168D1F828B0934540F0358120
:10244000006958B303684FF400629B6A0DF596610A
:10245000984702462FE1314698AA2046FFF7AAFA8C
:102460005CAA29462046FFF7A5FA204670AA3946FD
:10247000FFF7A0FA4FF0000840460DF6B44DBDE856
:10248000F08F18468847804639E700BF0D050000E9
:10249000C90400007D040000890400001A98002887
:1024A00000F0BF814FF0000B5A460368DB6A4345DA
:1024B00040F00E810069002846D00368DB6A43457E
:1024C00040F00681006900283ED00368DB6A43457E
:1024D00040F0FE800069002836D00368DB6A43457F
:1024E00040F0F680006900282ED00368DB6A43457F
:1024F00040F0EE80006938B30368DB6A434540F082
:10250000E780006900B30368DB6A434540F0E08080
:102510000069C8B10368DB6A434540F0D9800069AF
:1025200090B10368DB6A434540F0D280006958B13E
:102530000368DB6A434540F0CB80006920B1036843
:102540000DF59661DB6A9847BBF5006FBFF61DAFCE
:102550001F9B33B31A686749126C8A4240F08C8122
:102560001869F0B103681B6C934240F09D810069CB
:10257000B8B10268126C9A4240F07F81006980B164
:1025800003681B6C934240F08F81006948B1026878
:10259000126C9A4240F07181006910B103681B6CA3
:1025A00098471A9830B30368524A1B6C934240F024
:1025B00066810069F0B10268126C9A4240F076813F
:1025C0000069B8B103681B6C934240F05881006900
:1025D00080B10268126C9A4240F06881006948B18B
:1025E00003681B6C934240F04A81006910B1036894
:1025F0001B6C9847BBF1000FC0F22681DAF8580037
:102600000368ACA91B6998478046002800F039810F
:102610001F9A394D1B95002A42D01369013B136163
:10262000002B3DD11F9C002C3AD02368334A1B6AF3
:10263000934240F03D812169256000292CD00B692F
:10264000013B0B6143BB266936B333681B6A934277
:1026500040F0348131693560D1B10B69013B0B61C8
:10266000B3B93769A7B13B681B6A934240F029812F
:102670003A693D6042B11369013B136123B938697E
:1026800010B103681B6A9847384614210AF08CF988
:10269000304614210AF088F9204614210AF084F902
:1026A0001A9B169583BB5DE518464FF400620DF545
:1026B0009661D8470246002A9346C0F2A4801A9831
:1026C00000287FF4F2AEBBF5006FBFF65EAE3FE7C9
:1026D0000DF596619847BBF5006FBFF656AE37E72C
:1026E0003146229B499348AA2046FFF763F94FF0F1
:1026F000FF367BE501050000B8190100B10E0000AE
:10270000734D16954FF000081A69013A1A61002AB4
:102710007FF428AD1A9C002C3FF424AD23686D4A49
:102720001B6A934240F08A8021692560002948D0C5
:102730000B69013B0B61002B43D12669002E40D071
:1027400033681B6A934240F0AC80316935600029E0
:1027500033D00B69013B0B617BBB37696FB33B68BF
:102760001B6A934240F0A78039693D6009B30B6949
:10277000013B0B61EBB9D7F81090B9F1000F18D0FD
:10278000D9F800301B6A934240F09E80D9F810209F
:10279000C9F800504AB11369013B13612BB9D9F84C
:1027A000100010B103681B6A9847484614210AF0CC
:1027B000FBF8384614210AF0F7F8304614210AF0E5
:1027C000F3F8204614210AF0EFF8CBE404EB8A0A70
:1027D000ECAADAF858000368ACA9DB689847804691
:1027E00000287FF4BFAC314698AA2046FFF7E2F8F4
:1027F0005CAA29462046FFF7DDF870AA3946204634
:10280000FFF7D8F8AEE41121334808F069FD9DF8D0
:10281000781032480AF056F8304809F0EDFF1F9B57
:1028200097E6002B3FF4EAAE834693E64646D6E4AD
:102830000023009300220023884799E5204698470B
:1028400090E41A9B224D2CE7D9F858000368ECA9B4
:102850001B699847314698AA2046FFF7ABF85CAA57
:1028600029462046FFF7A6F870AA39462046FFF70A
:10287000A1F84FF00008CBE61846904791E698473C
:10288000B8E6314698AA2046FFF794F85CAA294694
:102890002046FFF78FF870AA39462046FFF78AF8DE
:1028A000B6E6304698478CE798477AE69047A1E627
:1028B00020469847F4E6384698477EE730469847E2
:1028C000EAE638469847E3E64846984771E700BF8E
:1028D000B8190100B10E0000E01B0100D409FF1F70
:1028E000F0B54A1CFDB00E46044614BF0D46002547
:1028F00006E0159B19469BB12368DB6B984728B30C
:102900002A4621466846FFF739F9502269460DEB01
:10291000020008F0E5FB9DF85C302046002BE8D172
:10292000731C2ED04FF480733CAA31462046FFF72B
:1029300051FB9DF85C303BB3BDF85E3004EB830384
:102940003CA9986D03685B69984710B900207DB079
:10295000F0BD149F002314AA314620468DF8603044
:10296000FFF728F83A4628A82146FFF707F9299DDE
:10297000AE4215D1169B299328AA39462046FFF767
:1029800019F801207DB0F0BDBDF85E3004EB830383
:102990003CA9986D03681B6998470028D6D0D8E7F2
:1029A000002DEED02A4621466846FFF7E7F8502270
:1029B000694628A808F094FB2A9B9E4201D01D4638
:1029C000EEE7169B2A93204628AA2946FEF7F2FF37
:1029D0000120BCE74B1C01D0FFF782BF00207047ED
:1029E0002DE9F04FD0F8F0308B42C9B000F0FA81F9
:1029F00016464FF4807308AA04460D46FFF7EAFA1C
:102A00000746D4F8CC00002800F088800268574BB5
:102A1000526C9A4240F0EE81006900287ED0026834
:102A2000526C9A4240F0E6810069002876D0026834
:102A3000526C9A4240F0DE81006900286ED0026834
:102A4000526C9A4240F0D6810069002866D0026834
:102A5000526C9A4240F0CE81006900285ED0026834
:102A6000526C9A4240F0C6810069002856D0026834
:102A7000526C9A4240F0BE81006900284ED0026834
:102A8000526C9A4240F0B6810069002846D0026834
:102A9000526C9A4240F0AE81006900283ED0036833
:102AA0005B6C9847002839D0D4F8CC00002835D08A
:102AB00002682F4B126C9A4240F09E8100690028F8
:102AC0002CD00268126C9A4240F09681006928B3BB
:102AD0000268126C9A4240F08F810069F0B102687E
:102AE000126C9A4240F088810069B8B10268126C99
:102AF0009A4240F08181006980B10268126C9A426A
:102B000040F07A81006948B10268126C9A4240F044
:102B10007381006910B103681B6C984704EB870749
:102B200008AAB96D0B6803A81F68F3B2B847D4F8B8
:102B3000CC201AB11369013B1361EBB1079AC4F8B9
:102B4000CC2062B111690B4B0393013111610799DC
:102B500029B10A69013A0A61002A00F0AB80C4F881
:102B6000F050C4F8EC6049B0BDE8F08F0D050000EE
:102B700001050000B8190100D4F8CC70002FDDD099
:102B80003B68AA491B6A8B4240F038813869A84BE0
:102B90003B60002800F089800269013A0261002A46
:102BA00040F08380D7F81080B8F1000F7DD0D8F8BE
:102BB0000020126A8A4240F03081D8F81000C8F82C
:102BC000003000286DD00269013A0261002A68D104
:102BD000D8F81090B9F1000F63D0D9F80020126A2C
:102BE0008A4240F01481D9F81000C9F80030DFF8AB
:102BF00040E2002851D00269013A0261002A4CD11A
:102C0000D9F810A0BAF1000F47D0DAF80020126A04
:102C10008A4240F00881DAF81000CAF800E0002883
:102C200037D00269013A0261002A32D1DAF810B0D5
:102C3000BBF1000F2DD0DBF80020126A8A4240F071
:102C4000FC80DBF81020CBF800307948EAB113693A
:102C5000013B1361CBB9DBF81020B2B113681B6ADA
:102C60008B4240F0F0801169106051B10B69013B5B
:102C70000B6133B9106920B1036801921B6A984750
:102C8000019A1046142109F08FFE5846142109F0CC
:102C90008BFE5046142109F087FE4846142109F0A6
:102CA00083FE4046142109F07FFE3846142109F0C6
:102CB0007BFE43E7079F002F3FF451AF3A685B4923
:102CC000126A8A4240F09D8038693B60002800F01B
:102CD00084800269013A0261002A7ED1D7F810800F
:102CE000B8F1000F79D0D8F80020126A8A4240F07B
:102CF0009180D8F81000C8F80030002869D0026927
:102D0000013A0261002A64D1D8F81090B9F1000F9D
:102D10005FD0D9F80020126A8A4275D1D9F8100024
:102D2000C9F80030DFF808E100284ED00269013A06
:102D30000261002A49D1D9F810A0BAF1000F44D09D
:102D4000DAF80020126A8A426AD1DAF81000CAF86A
:102D500000E0002835D00269013A0261002A30D132
:102D6000DAF810B0BBF1000F2BD0DBF80020126AAC
:102D70008A425FD1DBF81020CBF800302C48E2B15A
:102D80001369013B1361C3B9DBF81020AAB11368C2
:102D90001B6A8B4254D11169106051B10B69013B20
:102DA0000B6133B9106920B1036801921B6A98471F
:102DB000019A1046142109F0F7FD5846142109F034
:102DC000F3FD5046142109F0EFFD4846142109F0A7
:102DD000EBFD4046142109F0E7FD3846142109F0C7
:102DE000E3FDBCE6D0F8EC3093427FF401AE49B08D
:102DF000BDE8F08F904755E690478FE638469847F4
:102E00009CE638469047AAE648469047E1E74846A0
:102E1000904746E740469047DFE74046904744E703
:102E200050469047D1E75046904736E7B10E000034
:102E3000B819010058469047C3E75846904728E71D
:102E400010469847B9E7104698471EE72DE9F04726
:102E5000054682B0174600229846DDF82890FFF715
:102E6000BFFDD5F8CC40002C6AD020684D4A466B97
:102E700096424FF000037BD1216900295CD00A689B
:102E8000D2F834A0B24578D1D1F810E0BEF1000FED
:102E900059D0DEF80020566B564573D1DEF810E0AD
:102EA000BEF1000F4FD0DEF80020D2F834A0B245BA
:102EB0006DD1DEF810E0BEF1000F44D0DEF8003036
:102EC0005E6B564568D1DEF81060002E3BD031684D
:102ED000002300933A463046496B8847D5F8CC40EA
:102EE000002C2DD02268304B956A9D4231D120694B
:102EF00030B30268946A9C4233D1006900B302681F
:102F0000946A9C422DD10069D0B10268946A9C42B7
:102F100027D10069A0B10268946A9C4221D100695E
:102F200070B10268946A9C421BD1006940B1036889
:102F30004A4641469B6A10E0856A1B4B9D4208D178
:102F400002B0BDE8F087856A174B9D4201D1084663
:102F5000CFE74A46414620462B4602B0BDE8F0473F
:102F600018474A464146234602B0BDE8F047184795
:102F700000933A462046B047B0E700933A460846E9
:102F8000D047ABE700933A467046B047A6E70093B8
:102F90003A467046D047A1E700233A467046009370
:102FA000B0479BE7C90400007D040000F0B51F4650
:102FB000531C08BF01F1FF35E9B018BF15460446A0
:102FC0002A4668462146FEF7D9FD6E980BF0D8FADE
:102FD0003E2803D90026304669B0F0BD421C6E99E8
:102FE00018A808F07DF8D4F8F460BDF80E30019A06
:102FF000ADF85E30711C0023C4F8F410159331460F
:1030000001231692204614AA14958DF85C708DF851
:103010005D30FEF7CFFC6A46294620460196FEF752
:10302000C9FC3FB9204602223146FFF7D9FC3046A1
:1030300069B0F0BD28AA31464FF480732046FEF7F0
:10304000C9FF04EB800028A9806D03689B6898473E
:10305000304669B0F0BD00BF2DE9F04FADB001467C
:10306000044604A89046FEF789FD9DF81C3013B174
:103070009DF81D2012B12DB0BDE8F08F20464146CD
:10308000FFF7AEFCD4F8CC000028F4D00368334F2F
:103090005B6CBB425FD100690028ECD003685B6CBD
:1030A000BB4258D100690028E5D003685B6CBB4285
:1030B00051D100690028DED003685B6CBB424AD165
:1030C00000690028D7D003685B6CBB4243D100691C
:1030D0000028D0D003685B6C98470028CBD0DFF87D
:1030E0008490DFF884B00025D4F8CC1000293DD0BE
:1030F0000B681B4A1B6D934240F0898209690029C5
:1031000034D00B681B6D934240F08182096900291D
:103110002CD00B681B6D934240F07982096929B36A
:103120000B681B6D934240F072820969F1B10B6824
:103130001B6D934240F06B820969B9B10B681B6D3E
:10314000934240F06482096981B10B6800221B6DD3
:1031500018A8984715E09847BFE700BF0D05000085
:1031600039050000B8190100B10E000000234FF42A
:103170007A72CDF860908DF864308DF86C301C93C5
:103180001A92D4F8E020002A48D01369013B136159
:10319000002B43D1D4F8E060002E3FD033681B6A87
:1031A0005B4540F045823269C6F8009099498AB380
:1031B0001369013B13616BBBD6F810A0BAF1000F85
:1031C00028D0DAF800301B6A5B4540F00A83DAF851
:1031D0001020CAF80010CAB11369013B1361ABB9E2
:1031E000DAF8103093B11A68126A5A4540F0028337
:1031F0001969C3F8009029B10A69013A0A61002AE5
:1032000000F022821846142109F0CEFB504614210A
:1032100009F0CAFB3046142109F0C6FB1C9BC4F818
:10322000E030002B4ED01A697A4901321A611C9A9B
:10323000CDF86090002A45D01369013B1361002B43
:1032400040D11C9E002E3DD033681B6A5B4540F088
:10325000EC81326931608AB31369013B13616BBB46
:10326000D6F810A0BAF1000F28D0DAF800301B6AA7
:103270005B4540F0B982DAF81020CAF80010CAB1F4
:103280001369013B1361ABB9DAF8103093B11A68D6
:10329000126A5A4540F0AB821969C3F8009029B10F
:1032A0000A69013A0A61002A00F0368218461421A0
:1032B00009F07AFB5046142109F076FB30461421C0
:1032C00009F072FBD4F8E000002800F09480036855
:1032D0005B6CBB4240F09B800069002800F08B8053
:1032E00003685B6CBB4240F092800069002800F0EC
:1032F000828003685B6CBB4240F0898000690028D3
:1033000079D003685B6CBB4240F081800069002883
:1033100071D003685B6CBB4279D1006900286AD028
:1033200003685B6CBB4272D10069002863D00368FC
:103330005B6CBB426BD1006900285CD003685B6C9E
:10334000BB4264D10069002855D003685B6C984784
:10335000002850D0D4F8E030BDF81E20CDF86080B1
:103360001A95ADF86E20002B00F00B8119682A4ADF
:10337000C96C914252D11869002800F0028101689D
:10338000C96C91424BD10069002800F0FA800168B5
:10339000C96C914243D10069002800F0F2800168B5
:1033A000C96C91423BD10069002800F0EA800168B5
:1033B000C96C914233D10069002800F0E2800168B5
:1033C000C96C91422BD10069002800F0DA800168B5
:1033D000C96C914223D10069002800F0D2800168B5
:1033E000C96C91421BD10069002800F0CA800368B3
:1033F000DB6C984714E0012304AA4146204605955A
:103400008DF81D30FEF7D6FA2DB0BDE8F08F984745
:103410009EE700BFB81901002D0500001846884737
:103420008DF86C00D4F8E030002800F0AD8000206A
:10343000002219908DF86D20002B00F0E6801968AD
:103440007D4A896C914240F0DC801869002800F0C8
:10345000DC8003689B6C934238D10069002800F03F
:10346000D48003689B6C934230D10069002800F03F
:10347000CC8003689B6C934228D10069002800F03F
:10348000C48003689B6C934220D10069002800F03F
:10349000BC8003689B6C934218D10069002800F03F
:1034A000B48003689B6C934210D10069002800F03F
:1034B000AC8003689B6C934208D10069002800F03F
:1034C000A48003689B6C9847014601E09847014639
:1034D0001CA80AF0F5FFD4F8F4506B1C2046C4F881
:1034E000F430294618AAFEF765FAD4F8E00000285F
:1034F0003FF4FAAD0268514B126C9A423FD1006919
:1035000000283FF4F1AD0268126C9A4237D100698D
:1035100000283FF4E9AD0268126C9A422FD100698D
:1035200000283FF4E1AD0268126C9A4227D100698D
:1035300000283FF4D9AD0268126C9A421FD100698D
:1035400000283FF4D1AD0268126C9A4217D100698D
:1035500000283FF4C9AD0268126C9A420FD100698D
:1035600000283FF4C1AD0268126C9A4207D100698D
:1035700000283FF4B9AD03681B6C9847B4E5904749
:10358000B2E500228DF86C20002B49D019682C4A36
:10359000C96B91423FD1186948B30168C96B914228
:1035A0003AD1006918B30168C96B914234D10069FE
:1035B000E8B10168C96B91422ED10069B8B10168C8
:1035C000C96B914228D1006988B10168C96B9142E9
:1035D00022D1006958B10168C96B91421CD10069C0
:1035E00028B10368DB6B9847D4F8E03020E700226D
:1035F0008DF86D2019681992896C0F4A91423FF439
:1036000024AF18468847014662E70E4960E700226A
:1036100018A89847B5E518468847D4F8E03007E77A
:1036200019938DF86D30074952E73046984749E6BF
:1036300030469847F2E500BF19050000010500007B
:10364000F1040000B01A01001A69002A3FF4DAAD53
:103650001168096A594540F0D5801069C2F8009098
:10366000002852D001690139016100294DD1116949
:103670000091002949D000980168096A594540F035
:10368000CD8001460069C1F80090002835D001695D
:103690000139016189BB0099D1F810C0BCF1000F5C
:1036A0002BD0DCF80000006A5845014640F0C48089
:1036B000DCF81000CCF80090B8B1016901F1FF3ED0
:1036C000C0F810E0BEF1000F0FD1DCF8100060B1BF
:1036D000D0F800E0CDF80CC002920193DEF8203063
:1036E0009847DDF80CC0029A019B029260461421B3
:1036F000019309F059F9019B029A00980292142152
:10370000019309F051F9019B029A0093104614218C
:1037100009F04AF9009B75E51A69002A3FF4C6AD25
:103720001168096A594568D11069C2F800900028EB
:1037300050D001690139016100294BD11169009113
:10374000002947D000980168096A59455FD10146B0
:103750000069C1F80090002834D001690139016185
:1037600081BB0099D1F810C0BCF1000F2AD0DCF861
:103770000000006A5845014657D1DCF81000CCF82B
:103780000090B8B1016901F1FF3EC0F810E0BEF150
:10379000000F0FD1DCF8100060B1D0F800E0CDF8D8
:1037A0000CC002920193DEF820309847DDF80CC07F
:1037B000029A019B029260461421019309F0F4F8E9
:1037C000019B029A009802921421019309F0ECF8EF
:1037D000019B029A00931046142109F0E5F8009B22
:1037E00064E55046984715E55046984766E5184603
:1037F00090475FE51846904708E5009310468847D4
:10380000009B53E5009310468847009BFAE4029220
:10381000019300988847029A019BDBE7029201938B
:1038200000988847029A019B6FE7029201936046D5
:103830008847029A019BC5E7029201936046884738
:10384000029A019B59E700BF90F8F830012270B549
:10385000054680F8F9200E4673B1D5F8F43053B11F
:103860000024224631462846FFF7F6FBD5F8F4300F
:103870000134A342F5D870BDFEF748F9EDE700BF6B
:1038800030B590F8F83097B00446154603B3A5B1AB
:103890006B1C08BF01F1FF352A462046FFF7DCFB11
:1038A000012384F800312A46214602A8FEF766F972
:1038B000039BC4F8FC3017B030BD94F8F93063B105
:1038C0000022012384F80021C4F8FC3017B030BD79
:1038D0000191FEF71BF90199D9E72046FFF7B4FFE4
:1038E0000022012384F80021C4F8FC30EEE700BF79
:1038F00070B5054600680368DB690E4600249847EA
:1039000000E001342868036831461B6A98470028A4
:10391000F7D1204670BD00BF10B50446606818B9E5
:1039200007F096FF606000B110BDFDF78DFEF5E772
:10393000002A2EDD2DE9F8434FF0000916460F4608
:103940000546C84601E04E4521DD2846FFF7E4FF65
:103950006B6833F8080BC9EB0602C0F140049442CF
:10396000A8BF144607EB09011844224607F0B8FB2C
:1039700069680B8823449BB2402BA1440B80E2D1A1
:10398000042008F063F84E45C5F80480DDDCBDE88E
:10399000F883704730B50B7883B0044663B30846AC
:1039A0000D460AF0EDFD217A01308DF8030061B378
:1039B000E3680133E3602A7832B919E0E36802333F
:1039C000E36015F8012F72B1ADF806200029F5D19A
:1039D00002220DF106012046FFF7AAFF15F8012F7C
:1039E000217A002AF0D10023ADF80430F9B1E36860
:1039F0000233E36003B030BD027A8DF802307AB151
:103A0000C3680133C36003B030BD01220DF103016F
:103A10002046FFF78DFF2A78217A002AD4D1E2E7E9
:103A200001220DF10201FFF783FF03B030BD2046F4
:103A3000022201A9FFF77CFF03B030BD70B5037A05
:103A400082B004460D46ADF80410DBB1C3684FF6F2
:103A5000FF720233C360ADF8062002330022E36038
:103A60008DF802200133E3604DF202439D4227D0DE
:103A7000237A00228DF8032083B3E3680133E360E7
:103A800002B070BD022201A9FFF752FF267A4FF65D
:103A9000FF73ADF806304EBB02220DF10601204641
:103AA000FFF746FF237A8DF802600BBB01220DF170
:103AB00002012046FFF73CFF4DF202439D42D7D161
:103AC0000C492046FFF766FF0A492046FFF762FFD0
:103AD000237A00228DF80320002BCED1204601222C
:103AE0000DF10301FFF724FF02B070BDE368B4E7F6
:103AF000E368B7E7541C0100F0B5037A8BB0642586
:103B00000446ADF80650002B6FD0C368062202337E
:103B1000C360059204336422E360ADF804200233ED
:103B2000E36074492046FFF735FF237A0022ADF8A1
:103B30000220002B00F0BA80E36812220233E36017
:103B400004920433E36001266B4D41F2010305F159
:103B5000220707E0E368AF4203F10203E3600DD000
:103B600035F8023FADF80830002EF3D1022202A949
:103B70002046FFF7DDFEAF42267AF1D100230993FC
:103B8000002E4CD0E36801220433E3600892043332
:103B90004DF20242E360ADF80E2002330022E360F2
:103BA000079204330222E360069204334FF440523A
:103BB000E360ADF80C20023343F20102E360ADF89C
:103BC0000A200233E36020464C49FFF7E3FE20461B
:103BD0004B49FFF7DFFE20464A49FFF7DBFE204650
:103BE0004949FFF7D7FE0BB0F0BD02220DF10601E7
:103BF000FFF79EFE237A06220592002B6DD1042248
:103C000005A92046FFF794FE237AADF80450002B57
:103C100065D1022201A92046FFF78AFE81E704222E
:103C200009A92046FFF784FE237A01220892002B7F
:103C300057D1042208A92046FFF77AFE237A4DF2D5
:103C40000242ADF80E20002B4DD102220DF10E01E3
:103C50002046FFF76DFE237A0796002B45D10422FC
:103C600007A92046FFF764FE237A02250695002B5C
:103C70003DD1042206A92046FFF75AFE237A4FF4CD
:103C80004052ADF80C2023BB2A4603A92046FFF77B
:103C90004FFE237A43F20102ADF80A20BBB92A464F
:103CA0000DF10A012046FFF743FE8CE702220DEBDF
:103CB00002012046FFF73CFE237A1222049253B9F8
:103CC000042204A92046FFF733FE267A3CE7E36886
:103CD00077E7E3686FE7E36833E7E3681AE7E368E9
:103CE0001DE7E36853E7E36857E7E36859E7E368EC
:103CF0005BE700BF5C1C0100201C0100701C010080
:103D0000541C0100781C01007C1C010070B50546A4
:103D10000068174A03685B68934282B024D1466802
:103D20002B7A0096D3B1EB680433EB60012436B9EB
:103D300012E0EB6801340433A642EB600CD32B7A1B
:103D40000194002BF5D104220DEB02012846013429
:103D5000FFF7EEFDA642F2D202B070BD0422694622
:103D60002846FFF7E5FDE1E798470646D8E700BF9C
:103D70008914000070B5037A82B0044613BB0D4667
:103D80001646FFF7B5FD237A019013B3E3680433B9
:103D9000E360206803683246DB692946984720685B
:103DA000036829461B6A984788B1237A00901BB1A3
:103DB000E3680433E360F2E7042269462046FFF734
:103DC000B7FDECE7FFF794FD01308000E06002B042
:103DD00070BD04220DEB02012046FFF7A9FDD8E7D4
:103DE000F0B50446D3B000680DF10A0606AD0368CD
:103DF0008DE8600012AA5F6A05ABB847237A328863
:103E00000792002B59D0E368059A04330132E3602E
:103E100000F0EB800022ADF8102002330022E360B6
:103E2000ADF80E200233059AE3600F9204330022AE
:103E3000E360ADF80C2002330022E3600E920433FD
:103E40000022E3600D9204330022E3600C920433FD
:103E50000022E3600B9204330022E3600A920433F1
:103E60000022E360099204332A68E3600892059A0D
:103E7000A2F1FF32B2FA82F252090433E360ADF8E4
:103E8000122002330022E360119204330022E36027
:103E900010920433E36012A92046FFF77BFD204611
:103EA0006249FFF777FD20466049FFF773FD204622
:103EB0005E49FFF76FFD53B0F0BD07A9042220460D
:103EC000FFF736FD059B267A013343F2010318BF45
:103ED0000023ADF81030002E40F0908004A902229B
:103EE0002046FFF725FD237AADF80E60002B40F049
:103EF000878002220DF10E012046FFF719FD237A7B
:103F0000059A0F92002B7DD10FA904222046FFF7BE
:103F10000FFD237AADF80C60002B75D103A90222A6
:103F20002046FFF705FD237A0E96002B6ED10EA9D1
:103F300004222046FFF7FCFC237A0D96002B67D164
:103F40000DA904222046FFF7F3FC237A0C96002BE0
:103F500060D10CA904222046FFF7EAFC237A0B96D5
:103F6000002B59D10BA904222046FFF7E1FC237A4C
:103F70000A96002B52D10AA904222046FFF7D8FC4A
:103F8000237A0996002B4BD1042209A92046FFF77A
:103F9000CFFC237A2A680892002B43D108A9042277
:103FA0002046FFF7C5FC059B267AA3F1FF33B3FA41
:103FB00083F35B09ADF81230002E35D10DF11201FB
:103FC00002222046FFF7B4FC257A1196A5B911A963
:103FD00004222046FFF7ACFC237A109553B910A9B0
:103FE00004222046FFF7A4FC55E743F20102ADF896
:103FF000102012E7E3684CE7E36846E7E3680CE764
:10400000E3680FE7E36811E7E36814E7E36816E79E
:10401000E36818E7E3681AE7E3681CE7E3681EE76C
:10402000E36820E7E36822E7E3682AE7B01A0100C3
:10403000F0B5184F027A3B6883B00446019312B37F
:10404000C2680432C260E3B1134E4DF6014300254D
:1040500008E0E3680233E3603B680135AB4210D906
:1040600036F8023F227AADF80230002AF1D102225E
:104070000DEB02012046FFF75BFC3B680135AB42CC
:10408000EED803B0F0BD04220DEB0201FFF750FCA7
:104090003B68D8E77C09FF1F441C0100F0B50546CA
:1040A000AFB000680DF10A0605AC03688DE850005A
:1040B00014465E6A0EAA04AB0F46B047A4F55C42F4
:1040C000013A049B432A30D8DFE802F03D48637090
:1040D0002F2F3731312F582F2F2F2F2F2F2F2F2FBB
:1040E0002F2F2F2F2F2F2F2F2F2F2F2F2F2F2F2FE0
:1040F0002F2F2F2F2F2F2F2F2F2F2F2F2F2F2F2FD0
:104100002F2F2F2F2F2F2F2F2F2F2F2F222F2F37C4
:104110002B7A0D97002B51D0EB680433EB600433FE
:10412000EB600433EB600433EB602FB0F0BD284646
:104130004349FFF72FFC2FB0F0BD0EA92846FFF72B
:1041400029FC2FB0F0BD2B7ABDF80A200692002B77
:104150005CD0EB680433EB602FB0F0BD01332A7AFA
:1041600043F2010318BF4FF44053ADF80C30002A5E
:1041700046D0EB680233EB602FB0F0BD2B7A059A86
:104180000992002BE5D12846042209A9FFF7D0FBAC
:10419000CBE72B7A0022ADF80E20002BE9D1284680
:1041A00002220DF10E01FFF7C3FBBEE72C7A089344
:1041B000002C31D0EB680433EB60B4E704220DA986
:1041C0002846FFF7B5FB2B7A059A0C92002B35D1C8
:1041D00004220CA92846FFF7ABFB2C7ABDF80A3065
:1041E0000B934CBB04220BA92846FFF7A1FB2B7AAB
:1041F0000A94FBB9284604220AA9FFF799FB94E721
:104200002846022203A9FFF793FB8EE728460422E3
:1042100006A9FFF78DFB88E7042208A92846FFF7C7
:1042200087FB2B7A07942BB92846042207A9FFF7AE
:104230007FFB7AE7EB6876E7EB6872E7EB686EE79F
:10424000B01A01002DE9F04304460068036889B004
:104250005B690D469847237A00280CBF042201228F
:10426000ADF80620002B4CD0E3680233E3602068F1
:10427000036829469B699847267A00280CBF0123CA
:104280000223ADF80A30002E5FD0E368002202332B
:10429000E360ADF808200233E36020680368294634
:1042A000DB6898470646206803680F461B69294665
:1042B0009847237A80468946CDE9066743B3361A84
:1042C000E36867EB0107CDE904670833E36008336F
:1042D0004FF0FF32E36003920433E3602068284A22
:1042E00003689B68934240D100EB850041682046FB
:1042F000FFF750FB20462349FFF74CFB09B0BDE810
:10430000F08302220DF106012046FFF711FBAEE714
:10431000082206A92046FFF70BFBB6EB0806237A16
:1043200067EB0907CDE904672BBB082204A92046E7
:10433000FFF7FEFA237A4FF0FF320392CBB9042243
:1043400003A92046FFF7F4FAC8E702220DF10A019B
:104350002046FFF7EDFA237AADF808606BB9022228
:1043600002A92046FFF7E4FA97E729469847014655
:10437000BDE7E368B0E7E368A9E7E3688BE700BF60
:104380008D140000B01A01002DE9F043A1F55C4145
:104390000139A5B0044643295AD8DFE811F05C0082
:1043A0006E008000C60059005900D8002101690143
:1043B0005900B101590059005900590059005900DC
:1043C0005900590059005900590059005900590025
:1043D0005900590059005900590059005900590015
:1043E0005900590059005900590059005900590005
:1043F00059005900590059005900590059005900F5
:1044000059005900590059005900590059005900E4
:104410005900590059005900590059005900F70135
:10442000590059004400037A4DF64442ADF8462045
:10443000002B00F03D82E3680233E3600233E36067
:104440000133E3600133E3600433E3600133E3608D
:1044500025B0BDE8F083037A4DF60142ADF81E2089
:10446000002B00F0AF82E3680233E3600233E360C5
:104470000133E3600433E360E6E7037A4DF602427A
:10448000ADF82420002B00F0D481E3680233E36010
:104490000233E3600133E3600233E360D4E7037A7D
:1044A0004DF60342ADF82A20002BEED102220DF189
:1044B0002A01FFF73DFA277A0426ADF82860002F7D
:1044C00040F0CB8202220AA92046FFF731FA257A72
:1044D0008DF80970002D40F0BE8201220DF1090116
:1044E0002046FFF725FA277AADF82650002F40F036
:1044F000B08202220DF126012046FFF719FA257A33
:104500001597002D40F09382324615A92046FFF7FB
:104510000FFA237A8DF80850002B40F0868220464F
:10452000012202A9FFF704FA92E7037A4DF604424A
:10453000ADF82E20002B00F03B81C3680233C3602E
:104540000233E3600133E3600833E3607CE7037A1E
:104550004DF60742ADF83220002B7FF46CAF0222FB
:104560000DF13201FFF7E4F9237A4FF6FF72ADF84F
:104570003020002B40F0658202220CA92046FFF774
:10458000D7F9267A01258DF80E50002E40F057827B
:104590002A460DF10E012046FFF7CAF9277A8DF859
:1045A0000D60002F40F053822A460DF10D01204688
:1045B000FFF7BEF9267A1797002E40F038820422C2
:1045C00017A92046FFF7B4F9237A8DF80C60002B69
:1045D00040F02B822A46204603A9FFF7A9F937E7C6
:1045E000037A4DF60842ADF83620002B7FF423AF56
:1045F00002220DF13601FFF79BF9267A4FF6FF7381
:10460000ADF83430002E40F01C8202220DA9204665
:10461000FFF78EF9257A8DF81160002D40F00F829A
:1046200001220DF111012046FFF782F9267A8DF85B
:104630001050002E40F00B82012204A92046FFF703
:1046400077F9257A1896002D40F0F181042218A9F7
:104650002046FFF76DF9237A8DF80F50002B40F0BC
:10466000E481204601220DF10F01FFF761F9EFE629
:10467000037A4DF60942ADF83A20002B7FF4DBAE09
:1046800002220DF13A01FFF753F9267A4FF6FF7334
:10469000ADF83830002E40F0D48102220EA9204619
:1046A000FFF746F9257A8DF81460002D40F0C78198
:1046B000012205A92046FFF73BF9267A8DF8135011
:1046C000002E40F0C48101220DF113012046FFF7B6
:1046D0002FF9257A1996002D40F0A981042219A9F5
:1046E0002046FFF725F9237A8DF81250002B40F071
:1046F0009C81204601220DF11201FFF719F9A7E66E
:10470000037A4DF60B42ADF83E20002B7FF4ABAEA2
:1047100002220DF13E01FFF70BF9267A0623ADF8D0
:104720003C30002E40F0898102220FA92046FFF77D
:10473000FFF8257A8DF81660002D40F07C8101226B
:104740000DF116012046FFF7F3F8267A1B95002E8F
:1047500040F06F8104221BA92046FFF7E9F8257A73
:104760001A96002D40F0638104221AA92046FFF713
:10477000DFF8237A8DF81550002B40F05681204643
:1047800001220DF11501FFF7D3F861E6037A4DF62A
:104790004142ADF84220002B00F0CB80C3680233C9
:1047A000C3600233E3600133E3600833E360CBE6C8
:1047B00002220DF12E01FFF7BBF8267A0825ADF88D
:1047C0002C50002E40F0418102220BA92046FFF719
:1047D000AFF8237A8DF80B60002B40F03481012272
:1047E0000DF10B012046FFF7A3F8267A00220023E3
:1047F000CDE91E23002E40F032812A461EA9204614
:10480000FFF796F8257A1696002D40F010810422C5
:1048100016A92046FFF78CF8237A8DF80A50002B52
:1048200040F00381204601220DF10A01FFF780F8D4
:104830000EE6022209A9FFF77BF8277A0426ADF8D5
:104840002260002F40F0098102220DF12201204652
:10485000FFF76EF8257A8DF80770002D40F0FB8089
:1048600001220DF107012046FFF762F8277AADF823
:104870002050002F40F0ED80022208A92046FFF7CB
:1048800057F8257A1497002D40F0D180324614A9AC
:104890002046FFF74DF8237A8DF80650002B40F0A4
:1048A000C480204601220DF10601FFF741F8CFE553
:1048B00002220DF14601FFF73BF8267A4FF6FF730F
:1048C000ADF84430002E40F0BC80022211A92046F1
:1048D000FFF72EF8257A8DF81B60002D40F0AF8091
:1048E00001220DF11B012046FFF722F8267A8DF8F0
:1048F0001A50002E40F0AB8001220DF11A01204623
:10490000FFF716F8257A1D96002D40F090800422BE
:104910001DA92046FFF70CF8237A8DF81950002BBB
:1049200040F08380204601220DF11901FFF700F8C5
:104930008EE502220DF14201FEF7FAFF257A0A23E5
:10494000ADF84030002D40F09080022210A92046A2
:10495000FEF7EEFF237A8DF81850002B40F083808D
:10496000012206A92046FEF7E3FF237A4FF0000854
:104970004FF00009CDE92289002B72D1082222A92B
:104980002046FEF7D5FF267ACDE92089002E66D194
:10499000082220A92046FEF7CBFF257A1C96002D81
:1049A00045D104221CA92046FEF7C2FF237A8DF8C8
:1049B0001750002B39D1204601220DF11701FEF7C7
:1049C000B7FF45E502220DF11E01FEF7B1FF267A81
:1049D0000623ADF81C3086BB022207A92046FEF74D
:1049E000A7FF257A8DF805602DBB01220DF1050189
:1049F0002046FEF79DFF267A1395D6B9042213A907
:104A00002046FEF795FF257A129685B9042212A951
:104A10002046FEF78DFF237A8DF804502BB92046EF
:104A2000012201A9FEF784FF12E5E3680EE5E368C1
:104A30000AE5E3681EE5E3681AE5E36816E5E3685E
:104A4000FEE4E368FAE4E3687CE5E36878E5E368BC
:104A5000F8E4E36820E5E3681CE5E36818E5E3684B
:104A600072E5E368A1E6E3689DE6E36899E600BFC6
:104A700010B50446636805201BB906F02FFF60607F
:104A800000B110BDFCF7E0FDF4E700BF2DE9F047F1
:104A900006460068036882B09B6A88469847357A64
:104AA00007465DBB38B3A94601E0AF4223D9304683
:104AB000FEF732FF96E8090033F8082B01687C1BEB
:104AC000C2F1400E744528BF744600941344D1F8D7
:104AD00030A02A464146D04771680B8823449BB2D8
:104AE000402B25440B80E0D1042006F0AFFFAF42FD
:104AF000C6F80490DBD802B0BDE8F087F3681F4425
:104B0000F76002B0BDE8F087A2B32DE9F041064698
:104B10000D46904600273046FFF7AAFF7368B3F8AA
:104B200002E0B3F800C0CEEB0C04444528BF444675
:104B300003F10801714428462246C4EB08083DB140
:104B400006F0CEFA7368B3F802E0B3F800C025446B
:104B50007444A4B2A4455C8004D0B8F1000FDAD14B
:104B6000BDE8F081184606F093FE7760B8F1000FBB
:104B7000D1D1F5E7704700BF70B582B001220C4675
:104B80000DF106010646FFF7BFFF9DF806207CB138
:104B9000A5185AB102220DF106013046FFF7B4FF05
:104BA000BDF8063004F8013BA542F3D102B070BD58
:104BB000520021463046FFF7A7FFF7E730B5A1B016
:104BC00004460D460C226946FFF79EFF69462046C3
:104BD000FFF7D2FF206803686A4629469B6C984716
:104BE00042F2010021B030BD2DE9F04FC5B004AF55
:104BF000394692460C220546FFF786FFBB88022BFA
:104C000008BF3C684FF00402394628460CBF413CBF
:104C10006FF03404FFF778FF022239462846D7F8B0
:104C20000090FFF771FFB7F8008043F20103022202
:104C300039462846C3EB0808FFF766FF04223946C9
:104C40002846FFF761FF022239462846FFF75CFF3E
:104C5000042239462846FFF757FF042239462846E2
:104C6000FFF752FF042239462846FFF74DFF042282
:104C700039462846FFF748FF042239462846FFF701
:104C800043FF042239462846FFF73EFF04223946F7
:104C90002846FFF739FF022239462846FFF734FF3E
:104CA000042239462846FFF72FFF042239462846BA
:104CB000FFF72AFF39462846FFF75EFF384609F01E
:104CC0005FFC0130A4EB4004B8FA88F8032C4FEAEB
:104CD00058180CD926460DF10C0B043E04225946F7
:104CE0002846FFF711FF032EF7D804F003040DF157
:104CF0000C0B34B1012259462846FFF705FF013C51
:104D0000F8D1286804680097434652464946E46A49
:104D1000A04745B0BDE8F08FF0B585B00C2201A9E1
:104D20000746FFF7F1FEBDF80830022B05D03868C2
:104D300003689B6B984705B0F0BD019D0C3DF6D014
:104D400000263846FFF794FE97E803004A8831F8BA
:104D5000084B0368A41AAC4228BF2C465B6B114475
:104D60002246984778684388028823449BB29A4237
:104D7000A5EB0405438002D0002DE2D1D7E706F071
:104D800087FD7E60002DDCD1D1E700BF2DE9F04327
:104D9000054685B0052006F0A1FD98B103880B2BD0
:104DA000044618D983890C27012B078017D04FF4AC
:104DB000005000260323E0816661A3812146042080
:104DC00006F044FE062006F089FD08B106F060FDFD
:104DD00005B0BDE8F083204606F05AFDF2E7C2892F
:104DE00041F20B018A4200F043823ED841F20501B4
:104DF0008A4200F01D8200F2978041F202039A423B
:104E000000F0118140F2C28041F203039A4200F0A7
:104E10000B8241F204039A4240F0B4800123002740
:104E20002B722846EF60FEF771FFEB682F720C3390
:104E30000222ADF808200193E389ADF80A30236916
:104E4000039328460C2201A9FEF772FD2846FEF7BF
:104E50005DFF2846FEF760FD0420696806F0F6FD58
:104E60003E466F6042F20100A4E741F219018A4216
:104E700000F0C7813CD841F20D039A4200F0BA819C
:104E8000C0F0A88141F214039A4200F0278141F258
:104E900015039A4276D1002201232B72EA604269FF
:104EA0004DF202439A4200F009820C2300210222B3
:104EB0002972ADF808200193E389ADF80A3023691F
:104EC00003930C2201A92846FEF732FD62694DF2D8
:104ED00002439A4200F0ED812846FEF71DFD0026B0
:104EE0000420696806F0B2FD6E6042F2010061E7DD
:104EF00049F602018A4200F09E8067D949F6030311
:104F00009A4200F0C88049F604039A423AD1876970
:104F100046692846FFF7ACFD4DF607439F4200F077
:104F2000D48142F2050045E741F207018A4200F0D0
:104F30002081C0F0168141F208039A4200F0F3800C
:104F400041F209039A421DD1002701232B72EF6021
:104F500041692846FFF79AFDEB682F720C33022255
:104F6000ADF808200193E389ADF80A302369039373
:104F700001A928460C22FEF7DBFC61692846FFF7F1
:104F800085FD66E742F20500002613E741F20103C2
:104F90009A42F7D1002701232B722846EF60FEF7D3
:104FA000ABFDEB682F720C330222ADF808200193A1
:104FB000E389ADF80A302369039328460C2201A93E
:104FC000FEF7B6FC2846FEF797FD42E749F60103D7
:104FD0009A42D7D146690123002731462B722846D1
:104FE000EF60FFF725F8EB682F720C330222ADF863
:104FF00008200193E389ADF80A302369039301A9DE
:1050000028460C22FEF794FC31462846FFF710F89C
:105010002846FEF781FC0420696806F017FD6F60E2
:1050200042F20100C6E6286803685B6C98470026D8
:1050300042F20100BEE64669D0F818902B724FF09C
:10504000000831464A462846C5F80C80FFF79CF90F
:10505000EB6885F808800C330222ADF80820019334
:10506000E389ADF80A30236903933A4601A928463B
:10507000FEF75EFC4A4631462846FFF785F928468A
:10508000FEF74AFC0420696806F0E0FCC5F80480DD
:1050900042F201008EE64669D0F81880002701230D
:1050A000314642462B722846EF60FEF7F7FFEB6869
:1050B0002F720C330222ADF808200193E389ADF87A
:1050C0000A302369039301A928460C22FEF730FC1D
:1050D000424631462846FEF7E1FF99E701230022C8
:1050E0002B72EA6041694DF20243994200F0DB8085
:1050F0000C23002102222972ADF808200193E389D4
:10510000ADF80A302369039301A90C222846FEF763
:105110000FFC61694DF2024399427FF4DDAE2846EF
:10512000FEF78CFCD8E6002701232B72EF60416963
:105130002846FEF755FEEB682F720C330222ADF8BD
:1051400008200193E389ADF80A302369039301A98C
:1051500028460C22FEF7ECFB61692846FEF740FE6C
:1051600077E68369002B00F0958042F21400002658
:1051700020E6D0F81880B8F1000FF6D12B72C5F8F0
:105180000C80C26941692846FEF7F4FDEB6885F89A
:1051900008800C330222ADF808200193E389ADF8B2
:1051A0000A303A462369039301A92846FEF7C0FB5B
:1051B000E26961692846FEF7DDFD2846FEF7ACFB93
:1051C0000420696806F042FC4646C5F8048042F2B5
:1051D0000100EFE52846A2696169FFF705FD6669F0
:1051E000E0611823002E08BF01262380A36042F24D
:1051F0000100DFE52846FFF78FFD002642F201009F
:10520000D8E52868E3690168A269CD6C6169A8479F
:1052100042F2050342F201022780A76000280CBF7A
:10522000184610460026C5E542F201000026C1E5F9
:105230004FF000082B72C5F80C8041692846FFF733
:1052400001F8EB6885F808800C330222ADF80820DD
:105250000193E389ADF80A302369039301A9284635
:105260003A46FEF765FB61692846FEF7EBFFA4E7C7
:105270008669002E7FF479AF286861690368DB6B6B
:10528000984742F2120342F2010200280CBF18466E
:1052900010468FE52846E2696169FEF729FB06465C
:1052A00042F2010086E52846FEF7C8FBEB680C33A6
:1052B0001FE70A492846FEF76DFB0DE60749284619
:1052C000FEF768FBEB680C33F0E528463146FFF744
:1052D00075FC00283FF47FAD80B26BE5541C0100E3
:1052E00010B4047F4160022CC26003D05DF8044B0F
:1052F00007F0ECB983685DF8044B18472DE9F041DD
:105300000468E56815F0807F794D256052D1DF078C
:1053100040F1B380002900F0E3800D78012B18BF25
:1053200045F000456563013190F82C8003F1FF3CA6
:1053300048EA0828BCF1000F00F0A88021B14D78A0
:1053400011F8028B45EA082845682E7ABCF1020F55
:1053500006F1FF364FEA06360CBF48F0805548F09C
:105360001045B6B26563ACF1020C08E00AB11470E6
:105370000132013B05F47045B54216D90468E56A6F
:1053800015F0F00FF6D0A46B13F0010F17464FEA9B
:10539000242EEBD11AB107F802EB54703A4605F40B
:1053A0007045B542A3F10203E8D8BCF1000F6DD0FF
:1053B0000468C3E7DD074CD5002900F089800D782B
:1053C000012B18BF45F000456563013103F1FF3E35
:1053D00090F82CC0BEF1000F41D029B191F801C066
:1053E0000D78023145EA0C2C45682E7ABEF1020F89
:1053F00006F1FF364FEA06360CBF4CF080554CF0F4
:105400001045B6B26563AEF1020E08E00AB1147041
:105410000132013B05F47045B54215D90468E56ACF
:1054200015F0F00FF6D013F0010F1746A46BEDD175
:1054300022B107F8024B241254703A4605F4704525
:10544000B542A3F10203E9D8BEF1000F07D004680A
:10545000C3E79E4690F82CC0BEF1000FBDD11BB330
:105460000468E16A11F0F00FFBD0A16BDC071DD5D9
:105470000AB111700132013BF1E790F82C809C4693
:1054800048EA0828BCF1000F7FF458AF63B1046804
:10549000E16A11F0F00FFBD0DE07A16B0FD50AB166
:1054A00011700132013BF1E7BDE8F0812AB11446E9
:1054B0000D1204F8021B55702246023BCFE72AB1B9
:1054C00014460D1204F8025B51702246023BDDE7E0
:1054D00090F82C50012B18BF45F00045656375E727
:1054E00090F82C50012B18BF45F0004565631BE771
:1054F00000041F80F0B4464B464A986B5C6B017900
:105500001170454922790A701A6B00790870002AD7
:1055100046D05968C9688A423ED82168CC8B240499
:1055200002F1FF3065D4C0F30E00C883C88B80B28F
:10553000C882996B0968C88B000452D4C2F30E006C
:10554000C883C88B002480B212F1FF32C88218BF12
:1055500001221C63596B2E4809680D6800F12C0468
:10556000A54236D00068C46814F0804F0C680D68FE
:1055700015BF248824780235013544F000440D60BD
:105580004463996B254B09791970214912B14A6B13
:1055900012791A70F0BC7047521A1A630122D9E7C7
:1055A000D86B196805681E4C0A63CC62CC682D68FC
:1055B0001C4E24F080440327B542CC6083F82D7044
:1055C0001FD1037F4260022BC2601ED0F0BC07F0E7
:1055D0007DB8016890F82C00CC6840F0004048632A
:1055E000CFE7CC8BC2F3080004F47E442043C88389
:1055F000A7E7CC8BC0F3080004F47E442043C883A3
:1056000094E72B461146F0BC18478368F0BC184756
:105610008009FF1F1F8000401C8000401B8000404D
:1056200000000FFFE1520000F0B4254B4568AB428B
:1056300011D0437A2B4493F82C60B14209D005F184
:105640002B02002312F8014F8C421AD00133042B95
:10565000F8D1F0BC70470B292CD0072909D01C29A0
:10566000E7D1184A137823F0030343F002031370C1
:10567000DFE7144A137823F0030343F001031370A8
:10568000D7E795E806000968114210D00E4A02EBF0
:10569000C60600277468E918276091F82C1002EB01
:1056A000C10203F10C01546855F8212022604372B5
:1056B000F0BC7047034A137823F003031370B8E774
:1056C000841C0100B920FF1FDC1D0100F0B4244B35
:1056D0004568AB4210D0037A2B441E7EB14209D0FC
:1056E00005F11702002312F8014F8C421AD0013342
:1056F000042BF8D1F0BC70470C292AD0082909D016
:105700002729E8D1174A137823F00C0343F0080344
:105710001370E0E7134A137823F00C0343F00403FB
:105720001370D8E795E80600096811420ED00E4ABA
:1057300002EBC606E918746800272760097E02EBB1
:10574000C10205EB83055268E96911600372F0BC80
:105750007047044A137823F00C031370BBE700BFB3
:10576000841C0100B920FF1FDC1D0100284A43688A
:105770009A4270B415D0827A1A4492F8402091422D
:105780000DD093F840408C423FD093F841408C427A
:105790001DD093F842408C4208BF022118D070BC43
:1057A00070470D292BD00E2909D01B29E3D1194CA4
:1057B000227822F0300242F020022270DBE7154C02
:1057C000227822F0300242F010022270D3E7012149
:1057D0001D685C682D6825420FD00F4C04EBC20297
:1057E000002655685A182E6092F8402004EBC20437
:1057F00003EB810362685B6C13608172CFE7054C39
:10580000227822F030022270B5E70021E0E700BFE5
:10581000841C0100B920FF1FDC1D01000BB1FFF744
:105820006DBD7047644A654B2DE9F04F644EDFF85B
:10583000A0A1644CDFF89091A2FB00524FEA124CF9
:105840000CF10407A3FB0025A6FB0062A7FB0AAB33
:105850006D09D20AA3FB0563A4FB0264CBEB070628
:105860000BEB56065B09B6082409C6EBC606C3EB6C
:10587000031304EB4404A5EB8303BE1BC5EB051522
:10588000A2EBC402A0EB8500013600248A700870E8
:105890004B70CE70224640F26D1B4FF064084FF4FF
:1058A000C87A0EE0C6EBE5150AFB153570BB002D76
:1058B00014BF58464FF4B7700244944504F10104F4
:1058C00013D3E7B207F2B27389FB0305DE17C6EB09
:1058D000651013F0030E08FB1030E3D040F26D109A
:1058E0000244944504F10104EBD28F71BEF1000F24
:1058F0000FD13548DE1780FB0340C6EB60146425EA
:1059000005FB1434BCB34FF4B77405E04FF4B77023
:10591000D2E740F26D14DE172B482C4D80FB03704C
:10592000C6EB6018121BC6EBE01664244FF4C87077
:1059300000FB163604FB1838C2EB0C0201200023D2
:1059400002E00130C0B20133012BDFB220D05C5D38
:10595000944209D80C28A2EB0402F2D10D2701329F
:105960000A714F71BDE8F08F0137FFB201320A7141
:105970004F71BDE8F08F4FF4C874C6EBE01004FB24
:105980001030002840F26D1408BF4FF4B774C3E71D
:10599000BEF1000F0AD1B8F1000F0BD1002E14BFD9
:1059A0001C241D24A24203D3121BCAE71C24F9E7BE
:1059B0000227D4E71D24F5E707452EC28988888889
:1059C000C5B3A291ABAAAAAA1F85EB51181D01006D
:1059D0002549922410B503490446FFF723FF024BE3
:1059E0001C6010BD681AFF1F641AFF1FF0B5204C21
:1059F000204E23683268204D83B028680093009BB6
:105A00009B1AB3F57A7F0FD3013000E00846236874
:105A10000093009B02F57A729B1AB3F57A7F00F12E
:105A20000101F3D228603260144F3B6898420FD3D3
:105A3000134B1B6863B19847124B58B912491A6847
:105A40000B7828680033024418BF01233A600B70BA
:105A500003B0F0BD226801921B680B4A019C2860CC
:105A60000344022134603B60117003B0F0BD00BFFD
:105A7000981FFF1F7C1AFF1F701AFF1F801AFF1F3D
:105A8000781AFF1FC009FF1F741AFF1F08B5FFF720
:105A9000ADFF044B1B68984201D0FFF79BFF024B00
:105AA000987808BD641AFF1F681AFF1F08B5FFF732
:105AB0009DFF044B1B68984201D0FFF78BFF024B00
:105AC000587808BD641AFF1F681AFF1F08B5FFF752
:105AD0008DFF044B1B68984201D0FFF77BFF024B00
