:1000000000000320D1010000D19600008996000075
:100010008996000089960000899600008996000064
:10002000899600008996000089960000D19600000C
:10003000D19600008996000035A9000039A900007A
:10004000D1960000D1960000D1960000D196000014
:10005000D1960000D1960000D1960000D196000004
:10006000D1960000D1960000D1960000D1960000F4
:10007000D1960000D1960000D1960000D1960000E4
:10008000D1960000D1960000D1960000D1960000D4
:10009000D1960000D1960000D1960000D1960000C4
:1000A000D1960000D1960000D1960000D1960000B4
:1000B000D1960000D1960000D1960000D1960000A4
:1000C000D1960000D1960000D1960000D196000094
:1000D000D1960000D1960000D1960000D196000084
:1000E000D1960000D1960000D1960000D196000074
:1000F000D1960000D1960000D1960000D196000064
:10010000D1960000D1960000D1960000D196000053
:10011000D1960000F59C0000D1960000D196000019
:10012000D1960000D1960000D1960000D196000033
:10013000D1960000D1960000D1960000D196000023
:10014000D1960000D1960000D1960000D196000013
:10015000D1960000D1960000D1960000D196000003
:10016000D1960000D1960000D1960000D1960000F3
:10017000D1960000D1960000D1960000D1960000E3
:10018000D1960000D1960000D1960000D1960000D3
:10019000D1960000D1960000D1960000D1960000C3
:1001A000D1960000D1960000D1960000D1960000B3
:1001B000D1960000D1960000D1960000D1960000A3
:1001C000D1960000D1960000D1960000D196000093
:1001D000594B4CF2205210B51A804DF628121A8055
:1001E00000BF00BF09F078FA544B4FF030621A603C
:1001F000534A9A60534ADA60534B4FF470021A60C4
:10020000524B534A1A60534B1A78110703D51A7888
:1002100042F008021A70504B5049AA221A70504AF4
:10022000504B8B4204D252F8040F43F8040BF8E70A
:100230004D4B4E4900228B4202D243F8042BFAE781
:100240004B494C4A002352F8230041F82300013364
:10025000742BF8D1484B494A802103F8011B934283
:10026000FBD1474B424A1A60464B8A221A70A3F5CB
:10027000805324225A70A0221A709A799207FCD5D2
:100280009A79D406FCD4404A937903F00C03082BE6
:100290003D4BF9D101221A7148225A719A79900680
:1002A000FCD5394A9179384B4906FBD5374A38494C
:1002B00011600221516020221A709A7902F00C021A
:1002C0000C2AFAD1334B344A1A60344A344C13683E
:1002D00013F4807303D123604FF4A8531360314BA0
:1002E000314A1A6000225A60072243F8042C2F4A30
:1002F000C3F80C2D62B609F007FB2368DA0705D5B1
:100300002B4809F073FA2B4B2B4A1A602B4B1B78A6
:100310005B0609D5274C284B22689A4204D1244811
:1003200009F064FA002323600BF0B6FA09F0DAF959
:100330000AF0A2FBFEE700BF0E200540308004401B
:10034000823F04000100002B88ED00E0002008E05F
:100350000300008502D0074000E007403814FF1F6B
:10036000640301007009FF1F3814FF1F801BFF1F6B
:100370000002FF1F0000000000E400E064E400E071
:1003800008ED00E000500640004006404480044074
:100390000000030104800440C010050010D0034099
:1003A00014D0034014E000E0FF760100000020209C
:1003B000310000001CE00340A5C3945A00F0074040
:1003C000FFFFFFFFFFFFFFFFFFFFFFFFFFFFFFFF3D
:1003D000FFFFFFFFFFFFFFFFFFFFFFFFFFFFFFFF2D
:1003E000FFFFFFFFFFFFFFFFFFFFFFFFFFFFFFFF1D
:1003F000FFFFFFFFFFFFFFFFFFFFFFFFFFFFFFFF0D
:10040000FFFFFFFFFFFFFFFFFFFFFFFFDEF9FFFF23
:1004100010B5054C237833B9044B13B10448AFF33E
:1004200000800123237010BD3814FF1F000000005E
:1004300060030100084B10B51BB108490848AFF331
:1004400000800848036803B910BD074B002BFBD0A0
:10045000BDE81040184700BF000000003C14FF1F1B
:10046000600301003814FF1F0000000000207047E7
:10047000704700BF006910B103689B6A1847704756
:10048000006910B10368DB6A18477047006910B152
:1004900003681B6918477047006910B103689B69BE
:1004A00018474FF0FF307047006910B10368DB68F0
:1004B00018477047006910B103681B6B18477047F5
:1004C000006910B103685B6B18477047006910B191
:1004D00003689B6B18477047006910B10368DB6BBA
:1004E00018477047006910B103681B6C18477047C4
:1004F000006910B103685B6C18470148704700BF82
:1005000078FA0000006910B103689B6C18477047C7
:1005100038B50B6904462BB11D681946EB6C98473A
:10052000204638BD4FF47A70064A23712373A060C9
:1005300022600B692361002BF2D01A6901321A6123
:10054000204638BD0CFA0000006910B103681B6D2D
:1005500018477047006980B100B5036883B09B6A93
:1005600001220DF10701984720B19DF8070003B063
:100570005DF804FB4FF0FF30F9E74FF0FF307047B4
:1005800010B582B002AB026803F8011DD46A1946A7
:100590000122A04702B010BD10B50446024603690F
:1005A000054906480AF012FA206920B10368BDE83F
:1005B00010405B6A184710BD60FA00008C09FF1FED
:1005C0000269084B10B50446036042B11369013B50
:1005D000136123B9006910B103681B6A984720466C
:1005E00010BD00BF0CFA000002690A4B10B50446AA
:1005F000036042B11369013B136123B9006910B173
:1006000003681B6A9847204614210AF041FA2046E5
:1006100010BD00BF0CFA0000C26B38B5164B174D69
:1006200003600446C5621AB11369013B1361A3B1AB
:10063000A26AA5611AB11369013B1361A3B1626992
:10064000656042B11369013B136123B9606910B160
:1006500003681B6A9847204638BDC06B0028E7D066
:1006600003681B6A9847E3E7A06A0028E7D003689D
:100670001B6A9847E3E700BF64FB00000CFA000028
:1006800070B51B4A1B4D1C4C1C4882B040F6B7315C
:100690002B78A3B12378DB0711D5136806689B1B61
:1006A0000E2B0CD908F0EAFD01F054F990B90A219B
:1006B000134808F0E5FE13480AF070F9FEE71368E6
:1006C0000193019B8B42E3D908F0D8FD01F042F978
:1006D0000028ECD008210C4808F0D2FE09480AF0A6
:1006E0005DF901210D2009F099F802B070BD00BF3D
:1006F000F019FF1FF41AFF1FEC19FF1F6C1BFF1FDF
:100700007CFA00008C09FF1F88FA0000014802F003
:1007100063BB00BFAC14FF1FF8B5164C164B17484F
:10072000206000254FF47A766360A361E362144A87
:10073000144925726FF001072046257465612577FD
:1007400084F82450A56284F8305084F83850E5636A
:10075000E6602662666367642564A56484F84C508D
:1007600084F84D500AF06AFA074B83E830001D7296
:10077000DD60F8BD5414FF1F0CFA000064FB00009C
:100780007009FF1F19060000AC14FF1FC36D0BB1E9
:1007900001207047006E003018BF0120704700BF75
:1007A000002070470120704710B50446406910B121
:1007B0000368DB6B9847002384F84C30A36410BDBA
:1007C000806A10B10368DB6A184770472DE9F04171
:1007D0000F461646804603F05BF8044603F048F8DF
:1007E000054603F035F8A4F2BC739BB27F2B02D808
:1007F000EAB20C2A2BD90023A8F8003002F0F8FF47
:10080000044603F005F8054603F012F8E3B2172B8F
:1008100002D8EBB23B2B0BD900233B8003F008F846
:1008200010F0010F14BF642300233370BDE8F08182
:10083000C3B23B2BF0D8E4026B0104F4FF2403F4B1
:10084000FF532343C0F3460003439BB2E5E7C0B226
:100850001F28D0D86D0105F4FF55284340EA4323F3
:100860009BB2C9E710B50446406E18B10BF044F8CE
:100870000023636604F12400BDE8104007F00CB8C3
:1008800002460369014902480AF0A0B8ACFB000027
:100890008C09FF1F2DE9F041002394B01A4605464C
:1008A000243104A84FF47A74254F8DF804308DF864
:1008B0000C30129313930294009707F041F8129BA7
:1008C000002B32D068200AF0E1F804469DF804605D
:1008D000029A9DF80C301B481B4926764FF47A7813
:1008E000002620606161E26184F8203004F1240078
:1008F00004A9267126732661C4F8088006F090FFCB
:100900002369124A6761013366662E71C5F8088053
:100910002E732C6123612A600D4B009304A806F00E
:10092000BBFF284614B0BDE8F081139B002BC9D152
:10093000064A2B71AC602B732B612A60ECE700BF79
:10094000E4FA000008FB00009CFA00000CFA00002A
:10095000C0FA0000064AD2F8783413B1D8690138D9
:100960007047D2F87C0408B1D0F82804704700BF63
:10097000E014FF1F074AD2F878340BB1187970479A
:10098000D2F87C0420B190F83D04012303FA00F072
:10099000704700BFE014FF1F826C62B1137803F050
:1009A000080303F0FF0003B3D3695069181A48BF66
:1009B0006FF000407047C16CC1B191F8313003F065
:1009C000080303F0FF0083B1D1E90423D1E900015A
:1009D000101A30B463EB010100256FF000448D4222
:1009E00008BF844200D2204630BC7047084670479A
:1009F000C36D13B1184605F0F5B8006E08B103F0E9
:100A00007DB94FF0FF30704700B5836C83B063B1A0
:100A1000184601220DF1070104F0F4FF01280CD162
:100A20009DF8070003B05DF804FBC06C28B10122FB
:100A30000DF1070103F070F8F0E74FF0FF30F1E738
:100A4000836C13B1184605F0EFBCC06C08B104F01C
:100A50001FBA704700B5836C83B08DF8071043B19F
:100A6000184601220DF1070105F0E4FC03B05DF822
:100A700004FBC06C0028F9D001220DF1070104F03D
:100A80007FFC03B05DF804FB38B5446E0CB1204622
:100A900038BD05464FF480700AF026FF01466866AF
:100AA00080B1E86D0C7028B14FF4807206F00AF93D
:100AB0006C6EECE7286E40B14FF4807202F052FF8A
:100AC0006C6EE4E7024C6C66E1E70C46DFE700BFC2
:100AD000BC14FF1FC36D9BB11A7812F0700F00D1C8
:100AE000704710B504460021184605F0B9F8206E8D
:100AF00028B100220023BDE8104003F017B910BD53
:100B0000006E0028ECD090F8313013F0500FE7D091
:100B10000022002303F00AB9054BD3F8780408B18A
:100B200005F064BFD3F87C0408B103F0FFBE704742
:100B3000E014FF1FC36D0BB1D8697047006E00B1A0
:100B400000697047C36D0BB158697047006E00B102
:100B500000687047C36D13B1184604F053BF006EB0
:100B600008B102F0D9BF4FF0FF307047836C13B16A
:100B7000184605F037B8C06C08B103F0BFB84FF0A5
:100B8000FF307047C36D33B11B7813F0700F14BF83
:100B9000012000207047006E30B190F8313013F022
:100BA000500F14BF01200020704700BFC36D13B168
:100BB000184605F039BC006E08B104F069B97047F9
:100BC000836C13B1184605F035BCC06C08B104F055
:100BD000D7BB7047C36D13B1184605F02BBC006E30
:100BE00008B104F0CDBB7047C26D62B1137803F059
:100BF000080303F0FF0003B3D3695069181A48BF14
:100C00006FF000407047016EC1B191F8313003F0D0
:100C1000080303F0FF0083B1D1E90423D1E9000107
:100C2000101A30B463EB010100256FF000448D42CF
:100C300008BF844200D2204630BC70470846704747
:100C400030B40C4632B1012A1AD0022A08D0002052
:100C500030BC7047C36DFBB1184630BC05F000B81E
:100C6000C56D05B3E9690023621843F10003012B48
:100C700008BF002AEBD22144284630BC04F0F0BF64
:100C8000C56DDDB1696900230A1943F10003012B29
:100C900008BF002ADBD2EEE7006E0028D7D00A4654
:100CA00030BC03F043B8006E0028D0D0D0E9042354
:100CB000521843F1000330BC03F038B8006E00282E
:100CC000C5D0D0E90023521843F1000330BC03F033
:100CD0002DB800BF38B5C36D144A0260044600F158
:100CE0002405F3B1284606F0D7FD606E08B10AF07E
:100CF00003FE0F4B6361284606F0CEFD22690D4BC3
:100D0000236042B11369013B136123B9206910B11B
:100D100003681B6A98472046682109F0B9FE2046FF
:100D200038BD036E002BDDD1DFE700BF08FB0000FC
:100D3000C0FA00000CFA000038B5C36D124A026018
:100D4000044600F12405D3B1284606F0A5FD606EE7
:100D500008B10AF0D1FD0D4B6361284606F09CFDF9
:100D600022690B4B236042B11369013B136123B924
:100D7000206910B103681B6A9847204638BD036E8E
:100D8000002BE1D1E3E700BF08FB0000C0FA000040
:100D90000CFA00004369002B7BD0F0B51A6895B0BF
:100DA00005461846136C984708B915B0F0BD686938
:100DB00040B103681B6C984720B1686910B10368A3
:100DC000DB6B9847434BD3F87844002C66D0214620
:100DD000684600240123404A8DF800406E468DF895
:100DE00001408DF8024004F005FE002852D144F283
:100DF00002233046384A374906F034FE129B002B56
:100E000062D0682009F042FE04469DF80460029A10
:100E10003248334926764FF47A730026A36004AF34
:100E20009DF80C3020606161E26184F8203004F1AB
:100E30002400394626712673266106F0F1FC2369E9
:100E4000284A6666013362612361274B0093384666
:100E500006F022FD6A691AB11369013B13618BB177
:100E60006C612CB123691BB9236820461B6A984723
:100E700000236FF0010285F84D3085F84C306A642C
:100E800015B0F0BD68690028EAD003681B6A98476E
:100E9000E6E77047684606F0E5F8A8E7D3F87C1463
:100EA0006E460029A3D0684601230B4A8DF83140D5
:100EB0008DF832408DF8334003F06AFA002896D05E
:100EC000684603F057FE92E7139C002C99D104AFBB
:100ED000BBE700BFE014FF1FCCFB000008FB0000D5
:100EE0009CFA0000E4FA0000C0FA0000704700BF5E
:100EF000F0B50546406995B028B103681B6C98476A
:100F000008B115B0F0BD44F20223274A27496846CC
:100F100006F0A8FD129B002B41D0682009F0B6FD19
:100F200004469DF80460029A2148224926764FF42F
:100F30007A730026A36004AF9DF80C3020606161D5
:100F4000E26184F8203004F12400394626712673CA
:100F5000266106F065FC2369174A66660133626103
:100F60002361164B0093384606F096FC6A691AB165
:100F70001369013B13615BB16C61002CC1D0236923
:100F8000002BBED1236820461B6A984715B0F0BDE0
:100F900068690028F0D003681B6A9847ECE7139C47
:100FA000002CBAD104AFDCE7CCFB0000E014FF1F3B
:100FB00008FB00009CFA0000E4FA0000C0FA000000
:100FC00070B505460C461646FFF792FF686904EBBC
:100FD000840468B1036821011B6B0022984768698B
:100FE00030B103683146DB6A5022BDE870401847D3
:100FF00070BD00BF70B5224AD2F87854012394B076
:10100000044680F84C302DB32946684600251D4A19
:101010008DF800506E468DF801508DF8025004F0A6
:10102000E9FC98B900230125A564204632461946FB
:101030002F240093029301938DF80D308DF80C50FE
:10104000ADF80E40FFF7BCFF14B070BD684606F067
:1010500009F8E7E7D2F87C146E460029E2D068462A
:10106000084A8DF831508DF832508DF8335003F026
:101070008FF90028D6D0684603F07CFDD2E700BF88
:10108000E014FF1FCCFB000070B50D461446002194
:10109000502206460AF0F2FFAB6CA34214D3284656
:1010A000FFF726FF686904EB8404210150B103684F
:1010B00000221B6B9847686920B1036850229B6A25
:1010C00031469847304670BD5022002130460AF024
:1010D000D5FF304670BD00BF30B5056D95B00446F4
:1010E0003DB91DE0029B23659DF80E30ABB9256D1F
:1010F000B5B12A4621466846FFF7C6FF94F854204A
:10110000002AEFD1236DA16C013323658B429DF83A
:101110000E3028BF2265002BE9D0284615B030BD1F
:101120000025284615B030BD70B594B016460A4665
:10113000014668461C46189DFFF7A6FF30460DF194
:101140000E010BF00FFA9DF80C30009A2A601BB9C3
:10115000019B236014B070BD4FF0FF33236014B0C7
:1011600070BD00BF00B595B00A4601466846FFF75E
:101170008BFF019815B05DF804FB00BF30B5044645
:10118000806A95B0C0B103689B6B98470546A06A1A
:1011900010B10368DB6B98476846626C2146FFF725
:1011A00073FF6A46616C01952046FFF709FF6FF0F7
:1011B0000103636415B030BD0546EDE731B370B58A
:1011C00094B0154604460A461E4601466846FFF797
:1011D0005BFF334620462A460099FFF7EFFF28467B
:1011E0000BF02EFA2B18044613F8013C2F2B03D0DA
:1011F0000C4B1B882B5201340DF10E000BF020FA22
:1012000020440130B04205D314B070BD054B1B889B
:10121000138070470DF10E0128460BF083F914B0CE
:1012200070BD00BFDCFB00002DE9F0414A1CFCB0A2
:101230000E46044614BF0D46002507E0159B1946CF
:10124000A3B123685B6B9847002867D02A462146E4
:101250006846FFF719FF502269460DEB020008F0BF
:101260000FF89DF85C302046002BE7D1731C60D04E
:101270004FF480733CAA31462046FFF79FFF9DF84C
:101280005C704A4B002F58D0D3F87874AFB328ADB8
:101290004FF0000E3CAA39462846734685F800E018
:1012A00085F801E085F802E004F0A4FBB0B328461D
:1012B00004F034FD90B3DDF85080002314AA3146C9
:1012C00020468DF85E30FFF77BFE424621462846D9
:1012D000FFF7DAFE6F68BE4224D057B33A46214684
:1012E0006846FFF7D1FE50226946284607F0C8FF3E
:1012F000AB689E424CD01F46EFE7D3F87C1469B12F
:1013000028AD3CAA3B46284685F8317085F83270F6
:1013100085F8337003F03CF8002842D100207CB0FF
:10132000BDE8F081169B6B602A4641462046FFF7D8
:1013300047FE01207CB0BDE8F081D3F878E4BEF12F
:10134000000F0FD028AD3CAA7146284601232F700C
:101350006F70AF7004F04EFB0028DFD0284605F018
:1013600081FEA7E7D3F87C140029D7D028AD3CAA8A
:101370002846012385F831E085F832E085F833E02E
:1013800003F006F80028C9D0284603F0F3FB91E7E4
:10139000169BAB6020462A463946FFF711FE012016
:1013A000BDE7284603F07AFC84E700BFE014FF1F86
:1013B00070B5ADF5227D04460D464FF48073164698
:1013C00022AAFFF7FBFE2A4621460EA8FFF75CFE85
:1013D00031460DF146000BF0C5F820460EAA29460D
:1013E000FFF7EEFD20464FF48073294662AAFFF70F
:1013F000E5FE1D4BD3F87844D4B1002504F588648C
:1014000022AA214668462B468DF800508DF80150DF
:101410008DF8025004F06CFA10B90DF5227D70BD04
:1014200062AA2146684604F0E3FE0DF5227D70BDF8
:10143000D3F87C140029F0D001F5886522AA29464A
:10144000234668468DF831408DF832408DF83340A0
:1014500002F012FF0028E0D062AA2946684603F095
:1014600093FE0DF5227D70BDE014FF1F70B5ADF544
:10147000367D144605460E464FF4807336AAFFF7B4
:101480009DFE324629460EA8FFF7FEFD631C08BFED
:1014900000242246294622A8FFF7F6FD239B10933D
:1014A0000EAA314628460E942396FFF789FD214661
:1014B00022AA2846FFF784FD4FF480733146284660
:1014C00076AAFFF77BFE1D4BD3F87844D4B10025F4
:1014D00004F5886436AA214668462B468DF80050EC
:1014E0008DF801508DF8025004F002FA10B90DF594
:1014F000367D70BD76AA2146684604F079FE0DF56A
:10150000367D70BDD3F87C140029F0D001F58865D4
:1015100036AA2946234668468DF831408DF8324078
:101520008DF8334002F0A8FE0028E0D076AA2946C4
:10153000684603F029FE0DF5367D70BDE014FF1FEF
:101540002DE9F043436C8B42D5B06AD0054617466F
:101550004FF4807314AA0E46FFF730FEA86A40B11C
:1015600003681B6C984720B1A86A10B10368DB6B55
:101570009847FBB2012B14AA44F20223684618BF15
:1015800000232E4906F06EFA129B002B4FD06820E4
:1015900009F07CFA04464FF47A73294A9DF8040056
:1015A0002849A3604FF00008029B22600DF110094A
:1015B0009DF80C2020766161E36184F8202004F11D
:1015C0002400494684F8048084F80C80C4F8108014
:1015D00006F026F923691C4AC4F86480013362616D
:1015E00023611A4B0093484606F056F9AA6A1AB1CD
:1015F0001369013B136143B1AC620CB123695BB168
:101600006E642F6455B0BDE8F083A86A0028F3D05B
:1016100003681B6A9847EFE7236820461B6A9847D0
:10162000EEE7036C934291D155B0BDE8F083139C73
:10163000002CACD10DF11009D3E700BFE014FF1F5F
:1016400008FB00009CFA0000E4FA0000C0FA000069
:101650002DE9F0410446174600221D46069EFFF77D
:101660006FFFA06A68B1036839461B6B0022984778
:10167000A06A30B10368324629469B6ABDE8F04152
:101680001847BDE8F08100BF2DE9F043B1F1FF3FFD
:1016900014BF0E460026F7B01D4601460446174605
:1016A0000EA83246FFF7F0FC28460AF0C9FF3E2894
:1016B00004D90025284677B0BDE8F083421C2946AE
:1016C0000DF1960007F0DCFDA56C0F9B22966A1CBD
:1016D000A264294622AA20464FF000094FF00108D3
:1016E0008DF894702493CDF88C908DF89580FFF749
:1016F00067FC0EAA314620460F95FFF761FC47B9FB
:10170000204642462946FFF71BFF284677B0BDE832
:10171000F08320464FF4807336AA2946FFF74EFD2A
:10172000114BD3F878446CB1434636AA04F588616E
:1017300068468DF800908DF801908DF8029004F0C5
:10174000D9FCB7E7D3F87C140029B3D0434636AAB6
:1017500001F5886168468DF831408DF832408DF88A
:10176000334003F08DFCA5E7E014FF1F2DE9F041A5
:10177000A8B00A4604460E4601466846FFF784FCB8
:101780009DF80C3013B19DF80D5015B128B0BDE88F
:10179000F08120462A463146FFF7D2FEA06A002893
:1017A000F4D003681B6C98470028EFD0424F4FF4E9
:1017B0007A78A16A002956D00B680022DB6C14A845
:1017C0009847E26B42B11369013B136123B9E06BA7
:1017D00010B103681B6A9847189BE36373B11A69D9
:1017E00001321A61189A149742B11369013B1361CF
:1017F00023B9189810B103681B6A9847E06B00285A
:1018000042D003681B6C984700283DD0E06B1496CB
:101810001695002830D003689B6C98478DF85C00C3
:1018200000283DD0E06B0023159300238DF85D3038
:1018300000283ED003685B6C984701460DF15E00BE
:101840000AF090FEA56C6B1C2046A364294614AADE
:10185000FFF7B6FBE06B0028ABD00368DB6B984763
:10186000A16A0029A8D18DF85410CDF858808DF8C0
:101870005C1014971891A4E78DF85C000023159371
:101880008DF85D300D49D9E701236A46314620467F
:1018900001958DF80D30FFF793FB28B0BDE8F0817E
:1018A000E06B0028EAD003689B6B98470346E06B27
:1018B000BAE70249C2E700BF0CFA000078FA00005C
:1018C00038B590F84C300122054680F84D205BB1C8
:1018D000AB6C43B1002421462846FFF747FFAB6CB1
:1018E0000134A342F7D838BDFFF784FBF0E700BF0F
:1018F00030B590F84C3095B004460D46EBB195B13B
:101900006B1C08BF002529462046FFF72FFF012347
:1019100084F854302A4621466846FFF7B5FB019B00
:10192000236515B030BD94F84D304BB10022012332
:1019300084F85420236515B030BDFFF75BFBDEE76C
:101940002046FFF7BDFF0022012384F854202365C1
:10195000F1E700BF38B50D4CA4F591654FF00001DB
:10196000204607F0F7F82046C5F8844406F0A2FCAC
:1019700008B1002038BDD5F88414284606F010F8C8
:101980000028F6D0024B034A1A6038BD6819FF1FC1
:101990008C19FF1FCD07000010B50446606818B908
:1019A00008F068F8606000B110BDFFF79FFAF5E736
:1019B000002A2EDD2DE9F8434FF0000916460F46A8
:1019C0000546C84601E04E4521DD2846FFF7E4FF05
:1019D0006B6833F8080BC9EB0602C0F1400494426F
:1019E000A8BF144607EB09011844224607F048FC3B
:1019F00069680B8823449BB2402BA1440B80E2D141
:101A0000042008F035F94E45C5F80480DDDCBDE85A
:101A1000F883704730B50B7883B0044663B308464B
:101A20000D460AF00DFE217A01308DF8030061B3F6
:101A3000E3680133E3602A7832B919E0E3680233DE
:101A4000E36015F8012F72B1ADF806200029F5D139
:101A500002220DF106012046FFF7AAFF15F8012F1B
:101A6000217A002AF0D10023ADF80430F9B1E368FF
:101A70000233E36003B030BD027A8DF802307AB1F0
:101A8000C3680133C36003B030BD01220DF103010F
:101A90002046FFF78DFF2A78217A002AD4D1E2E789
:101AA00001220DF10201FFF783FF03B030BD204694
:101AB000022201A9FFF77CFF03B030BD70B5037AA5
:101AC00082B004460D46ADF80410DBB1C3684FF692
:101AD000FF720233C360ADF8062002330022E360D8
:101AE0008DF802200133E3604DF202439D4227D07E
:101AF000237A00228DF8032083B3E3680133E36087
:101B000002B070BD022201A9FFF752FF267A4FF6FC
:101B1000FF73ADF806304EBB02220DF106012046E0
:101B2000FFF746FF237A8DF802600BBB01220DF10F
:101B300002012046FFF73CFF4DF202439D42D7D100
:101B40000C492046FFF766FF0A492046FFF762FF6F
:101B5000237A00228DF80320002BCED120460122CB
:101B60000DF10301FFF724FF02B070BDE368B4E795
:101B7000E368B7E718FC0000F0B5037A8BB0642582
:101B80000446ADF80650002B6FD0C368062202331E
:101B9000C360059204336422E360ADF8042002338D
:101BA000E36074492046FFF735FF237A0022ADF841
:101BB0000220002B00F0BA80E36812220233E360B7
:101BC00004920433E36001266B4D41F2010305F1F9
:101BD000220707E0E368AF4203F10203E3600DD0A0
:101BE00035F8023FADF80830002EF3D1022202A9E9
:101BF0002046FFF7DDFEAF42267AF1D1002309939C
:101C0000002E4CD0E36801220433E36008920433D1
:101C10004DF20242E360ADF80E2002330022E36091
:101C2000079204330222E360069204334FF44052D9
:101C3000E360ADF80C20023343F20102E360ADF83B
:101C40000A200233E36020464C49FFF7E3FE2046BA
:101C50004B49FFF7DFFE20464A49FFF7DBFE2046EF
:101C60004949FFF7D7FE0BB0F0BD02220DF1060186
:101C7000FFF79EFE237A06220592002B6DD10422E7
:101C800005A92046FFF794FE237AADF80450002BF7
:101C900065D1022201A92046FFF78AFE81E70422CE
:101CA00009A92046FFF784FE237A01220892002B1F
:101CB00057D1042208A92046FFF77AFE237A4DF275
:101CC0000242ADF80E20002B4DD102220DF10E0183
:101CD0002046FFF76DFE237A0796002B45D104229C
:101CE00007A92046FFF764FE237A02250695002BFC
:101CF0003DD1042206A92046FFF75AFE237A4FF46D
:101D00004052ADF80C2023BB2A4603A92046FFF71A
:101D10004FFE237A43F20102ADF80A20BBB92A46EE
:101D20000DF10A012046FFF743FE8CE702220DEB7E
:101D300002012046FFF73CFE237A1222049253B997
:101D4000042204A92046FFF733FE267A3CE7E36825
:101D500077E7E3686FE7E36833E7E3681AE7E36888
:101D60001DE7E36853E7E36857E7E36859E7E3688B
:101D70005BE700BF20FC0000E0FB000034FC00003B
:101D800018FC00003CFC000040FC000030B5037A69
:101D900083B001250446019533B1C3680433C360A1
:101DA0000433E36003B030BD04220DEB0201FFF702
:101DB000FFFD237A009533B9204604226946FFF7D8
:101DC000F7FD03B030BDE368EAE700BF70B5044635
:101DD000057A006882B01646036875B111465B69E2
:101DE00098470025206803689B69984701350028BB
:101DF000F8D1AD00E56002B070BD5B69114698474F
:101E000000E00135206803689B6998470028F8D1F5
:101E1000237A0195D3B1E3680433E3602068036853
:101E200031465B699847206803689B69984700289A
:101E3000E1D0237A00901BB1E3680433E360F2E75A
:101E4000042269462046FFF7B3FDECE704220DEBC0
:101E500002012046FFF7ACFDE0E700BF70B5044685
:101E60000068D2B0036806AD0095DE6912AA05AB22
:101E7000B047237A01220792002B59D0E368059AD4
:101E800004330132E36000F0EB800022ADF8102053
:101E900002330022E360ADF80E200233059AE360BE
:101EA0000F9204330022E360ADF80C2002330022CD
:101EB000E3600E9204330022E3600D9204330022AB
:101EC000E3600C9204330022E3600B92043300229F
:101ED000E3600A9204330022E360099204332A6823
:101EE000E3600892059AA2F1FF32B2FA82F2520937
:101EF0000433E360ADF8122002330022E360119254
:101F000004330022E36010920433E36012A92046F8
:101F1000FFF780FD20466349FFF77CFD20466149BD
:101F2000FFF778FD20465F49FFF774FD52B070BDA2
:101F300007A904222046FFF73BFD059B267A0133C3
:101F400043F2010318BF0023ADF81030002E40F01B
:101F5000908004A902222046FFF72AFD237AADF8DB
:101F60000E60002B40F0878002220DF10E0120460A
:101F7000FFF71EFD237A059A0F92002B7DD10FA942
:101F800004222046FFF714FD237AADF80C60002BE5
:101F900075D103A902222046FFF70AFD237A0E9687
:101FA000002B6ED10EA904222046FFF701FD237AF3
:101FB0000D96002B67D10DA904222046FFF7F8FCEF
:101FC000237A0C96002B60D10CA904222046FFF73F
:101FD000EFFC237A0B96002B59D10BA90422204643
:101FE000FFF7E6FC237A0A96002B52D10AA90422B5
:101FF0002046FFF7DDFC237A0996002B4BD1042203
:1020000009A92046FFF7D4FC237A2A680892002BFE
:1020100043D108A904222046FFF7CAFC059B267A73
:10202000A3F1FF33B3FA83F35B09ADF81230002E4E
:1020300035D10DF1120102222046FFF7B9FC257AB5
:102040001196A5B911A904222046FFF7B1FC237A05
:10205000109553B910A904222046FFF7A9FC55E7B3
:1020600043F20102ADF8102012E7E3684CE7E368A1
:1020700046E7E3680CE7E3680FE7E36811E7E36826
:1020800014E7E36816E7E36818E7E3681AE7E3682C
:102090001CE7E3681EE7E36820E7E36822E7E368FC
:1020A0002AE700BF78FA0000F0B5184F027A3B68C3
:1020B00083B00546019312B3C2680432C260E3B133
:1020C000134E4DF60142002408E0EB680233EB604A
:1020D0003B680134A34210D936F8022F2B7AADF8B1
:1020E0000220002BF1D102220DEB02012846FFF75E
:1020F0005FFC3B680134A342EED803B0F0BD04227C
:102100000DEB0201FFF754FC3B68D8E77409FF1F91
:1021100004FC0000F0B505460068AFB0036805ACEC
:102120000094DE69144604AB0EAA0F46B047A4F52E
:102130005C42013A049B432A30D8DFE802F03D4676
:10214000616E2F2F3731312F562F2F2F2F2F2F2FFB
:102150002F2F2F2F2F2F2F2F2F2F2F2F2F2F2F2F8F
:102160002F2F2F2F2F2F2F2F2F2F2F2F2F2F2F2F7F
:102170002F2F2F2F2F2F2F2F2F2F2F2F2F2F222F7C
:102180002F372B7A0D97002B4FD0EB680433EB6081
:102190000433EB600433EB600433EB602FB0F0BD2D
:1021A00028464249FFF736FC2FB0F0BD0EA928465D
:1021B000FFF730FC2FB0F0BD2B7A0697002B5BD0D9
:1021C000EB680433EB602FB0F0BD01332A7A43F2A1
:1021D000010318BF4FF44053ADF80C30002A45D02E
:1021E000EB680233EB602FB0F0BD2B7A059A0992B1
:1021F000002BE5D12846042209A9FFF7D9FBCDE73A
:102200002B7A0022ADF80E20002BE9D128460222BD
:102210000DF10E01FFF7CCFBC0E72C7A0893002CE0
:1022200030D0EB680433EB60B6E704220DA92846F2
:10223000FFF7BEFB2B7A059A0C92002B34D10422B7
:102240000CA92846FFF7B4FB2C7A01230B934CBB57
:1022500004220BA92846FFF7ABFB2B7A0A94FBB9A3
:10226000284604220AA9FFF7A3FB97E72846022283
:1022700003A9FFF79DFB91E72846042206A9FFF773
:1022800097FB8BE7042208A92846FFF791FB2B7ADE
:1022900007942BB92846042207A9FFF789FB7DE79D
:1022A000EB6879E7EB6875E7EB6871E778FA0000AF
:1022B00070B504460068036888B01B689847237AA5
:1022C00000280CBF04220122ADF80620002B4FD0BD
:1022D000E3680233E360206803685B689847257A07
:1022E00000280CBF01230223ADF80A30002D5CD07A
:1022F000E36800220233E360ADF808200233E360B4
:10230000206803689B6898470546206803681B6936
:1023100098470646A5FB00014B02227A43EAD053B8
:10232000400207930690002A39D0E3680833E3603F
:1023300020680368DB6898477202A2FB0023F60D51
:10234000217A00FB0633CDE90423C1B1E3684FF0E5
:10235000FF320833E36003920433E36020461D49F3
:10236000FFF758FB20461C49FFF754FB08B070BD2F
:1023700002220DF106012046FFF71AFBABE7082207
:1023800004A92046FFF714FB237A4FF0FF32039293
:10239000DBB9042203A92046FFF70AFBDEE7082287
:1023A00006A92046FFF704FBC2E702220DF10A014D
:1023B0002046FFF7FDFA237AADF808503BB9022218
:1023C00002A92046FFF7F4FA9AE7E368C4E7E36856
:1023D00094E700BF44FC000078FA00002DE9F043C8
:1023E000A1F55C410139A5B0044643295AD8DFE87C
:1023F00011F05C006E008000C60059005900D80042
:10240000210169015900B1015900590059005900D1
:1024100059005900590059005900590059005900F4
:1024200059005900590059005900590059005900E4
:1024300059005900590059005900590059005900D4
:1024400059005900590059005900590059005900C4
:1024500059005900590059005900590059005900B4
:1024600059005900590059005900590059005900A4
:102470005900F701590059004400037A4DF64442CF
:10248000ADF84620002B00F03D82E3680233E360A4
:102490000233E3600133E3600133E3600433E3605C
:1024A0000133E36025B0BDE8F083037A4DF60142C5
:1024B000ADF81E20002B00F0AF82E3680233E3602A
:1024C0000233E3600133E3600433E360E6E7037A59
:1024D0004DF60242ADF82420002B00F0D481E368D1
:1024E0000233E3600233E3600133E3600233E3600D
:1024F000D4E7037A4DF60342ADF82A20002BEED143
:1025000002220DF12A01FFF753FA277A0426ADF8CB
:102510002860002F40F0CB8202220AA92046FFF754
:1025200047FA257A8DF80970002D40F0BE8201220D
:102530000DF109012046FFF73BFA277AADF8265046
:10254000002F40F0B08202220DF126012046FFF755
:102550002FFA257A1597002D40F09382324615A95F
:102560002046FFF725FA237A8DF80850002B40F01B
:1025700086822046012202A9FFF71AFA92E7037A1F
:102580004DF60442ADF82E20002B00F03B81C368CD
:102590000233C3600233E3600133E3600833E36076
:1025A0007CE7037A4DF60742ADF83220002B7FF42A
:1025B0006CAF02220DF13201FFF7FAF9237A4FF6E0
:1025C000FF72ADF83020002B40F0658202220CA98A
:1025D0002046FFF7EDF9267A01258DF80E50002EE2
:1025E00040F057822A460DF10E012046FFF7E0F930
:1025F000277A8DF80D60002F40F053822A460DF1A6
:102600000D012046FFF7D4F9267A1797002E40F0E7
:102610003882042217A92046FFF7CAF9237A8DF8D9
:102620000C60002B40F02B822A46204603A9FFF7BE
:10263000BFF937E7037A4DF60842ADF83620002B94
:102640007FF423AF02220DF13601FFF7B1F9267AAC
:102650004FF6FF73ADF83430002E40F01C8202229A
:102660000DA92046FFF7A4F9257A8DF81160002DF9
:1026700040F00F8201220DF111012046FFF798F979
:10268000267A8DF81050002E40F00B82012204A90A
:102690002046FFF78DF9257A1896002D40F0F1813C
:1026A000042218A92046FFF783F9237A8DF80F50EA
:1026B000002B40F0E481204601220DF10F01FFF7CD
:1026C00077F9EFE6037A4DF60942ADF83A20002B90
:1026D0007FF4DBAE02220DF13A01FFF769F9267AA9
:1026E0004FF6FF73ADF83830002E40F0D48102224F
:1026F0000EA92046FFF75CF9257A8DF81460002DAD
:1027000040F0C781012205A92046FFF751F9267A3A
:102710008DF81350002E40F0C48101220DF11301F9
:102720002046FFF745F9257A1996002D40F0A9813A
:10273000042219A92046FFF73BF9237A8DF812509D
:10274000002B40F09C81204601220DF11201FFF781
:102750002FF9A7E6037A4DF60B42ADF83E20002B89
:102760007FF4ABAE02220DF13E01FFF721F9267A8C
:102770000623ADF83C30002E40F0898102220FA9DB
:102780002046FFF715F9257A8DF81660002D40F0E8
:102790007C8101220DF116012046FFF709F9267A06
:1027A0001B95002E40F06F8104221BA92046FFF7E5
:1027B000FFF8257A1A96002D40F0638104221AA9A9
:1027C0002046FFF7F5F8237A8DF81550002B40F0DE
:1027D0005681204601220DF11501FFF7E9F861E667
:1027E000037A4DF64142ADF84220002B00F0CB8039
:1027F000C3680233C3600233E3600133E36008332C
:10280000E360CBE602220DF12E01FFF7D1F8267A24
:102810000825ADF82C50002E40F0418102220BA972
:102820002046FFF7C5F8237A8DF80B60002B40F0A7
:10283000348101220DF10B012046FFF7B9F8267A09
:1028400000220023CDE91E23002E40F032812A46CB
:102850001EA92046FFF7ACF8257A1696002D40F009
:102860001081042216A92046FFF7A2F8237A8DF8DA
:102870000A50002B40F00381204601220DF10A018D
:10288000FFF796F80EE6022209A9FFF791F8277ADA
:102890000426ADF82260002F40F0098102220DF1DC
:1028A00022012046FFF784F8257A8DF80770002D65
:1028B00040F0FB8001220DF107012046FFF778F878
:1028C000277AADF82050002F40F0ED80022208A9B1
:1028D0002046FFF76DF8257A1497002D40F0D1803F
:1028E000324614A92046FFF763F8237A8DF8065084
:1028F000002B40F0C480204601220DF10601FFF7B5
:1029000057F8CFE502220DF14601FFF751F8267A7C
:102910004FF6FF73ADF84430002E40F0BC80022229
:1029200011A92046FFF744F8257A8DF81B60002D89
:1029300040F0AF8001220DF11B012046FFF738F86F
:10294000267A8DF81A50002E40F0AB8001220DF14E
:102950001A012046FFF72CF8257A1D96002D40F02D
:10296000908004221DA92046FFF722F8237A8DF8D3
:102970001950002B40F08380204601220DF11901EF
:10298000FFF716F88EE502220DF14201FFF710F86D
:10299000257A0A23ADF84030002D40F090800222C5
:1029A00010A92046FFF704F8237A8DF81850002B61
:1029B00040F08380012206A92046FEF7F9FF237A22
:1029C0004FF000084FF00009CDE92289002B72D1A9
:1029D000082222A92046FEF7EBFF267ACDE92089BE
:1029E000002E66D1082220A92046FEF7E1FF257AB5
:1029F0001C96002D45D104221CA92046FEF7D8FFC5
:102A0000237A8DF81750002B39D1204601220DF181
:102A10001701FEF7CDFF45E502220DF11E01FEF77D
:102A2000C7FF267A0623ADF81C3086BB022207A911
:102A30002046FEF7BDFF257A8DF805602DBB0122EB
:102A40000DF105012046FEF7B3FF267A1395D6B99E
:102A5000042213A92046FEF7ABFF257A129685B90A
:102A6000042212A92046FEF7A3FF237A8DF8045012
:102A70002BB92046012201A9FEF79AFF12E5E3686F
:102A80000EE5E3680AE5E3681EE5E3681AE5E36836
:102A900016E5E368FEE4E368FAE4E3687CE5E368EE
:102AA00078E5E368F8E4E36820E5E3681CE5E368BB
:102AB00018E5E36872E5E368A1E6E3689DE6E3688C
:102AC00099E600BF10B50446636805201BB907F0FE
:102AD00017F8606000B110BDFEF708FAF4E700BF18
:102AE0002DE9F04706460068036882B01B6A8846F5
:102AF0009847357A07465DBB38B3A94601E0AF4237
:102B000023D93046FEF748FF96E8090033F8082B32
:102B100001687C1BC2F1400E744528BF74460094C6
:102B20001344D1F828A02A464146D04771680B8843
:102B300023449BB2402B25440B80E0D1042007F0B6
:102B400097F8AF42C6F80490DBD802B0BDE8F08732
:102B5000F3681F44F76002B0BDE8F087A2B32DE927
:102B6000F04106460D46904600273046FFF7AAFF83
:102B70007368B3F802E0B3F800C0CEEB0C04444530
:102B800028BF444603F10801714428462246C4EB9D
:102B900008083DB106F074FB7368B3F802E0B3F8BF
:102BA00000C025447444A4B2A4455C8004D0B8F1AC
:102BB000000FDAD1BDE8F081184606F07BFF7760A0
:102BC000B8F1000FD1D1F5E7704700BF70B582B002
:102BD00001220C460DF106010646FFF7BFFF9DF8E6
:102BE00006207CB1A5185AB102220DF1060130462B
:102BF000FFF7B4FFBDF8063004F8013BA542F3D15E
:102C000002B070BD520021463046FFF7A7FFF7E73C
:102C100030B5A1B004460D460C226946FFF79EFF71
:102C200069462046FFF7D2FF206803686A462946B6
:102C30001B6C984742F2010021B030BD2DE9F043F2
:102C4000C3B002A991460C220546FFF787FFBDF8E5
:102C50000C30022B08BF029C4FF0040202A9284648
:102C60000CBF413C6FF03404FFF778FF022202A949
:102C70002846FFF773FFBDF8088043F201030222E4
:102C800002A92846C3EB0808FFF768FF042202A93F
:102C90002846FFF763FF022202A92846FFF75EFFDE
:102CA000042202A92846FFF759FF042202A9284658
:102CB000FFF754FF042202A92846FFF74FFF042222
:102CC00002A92846FFF74AFF042202A92846FFF777
:102CD00045FF042202A92846FFF740FF042202A96B
:102CE0002846FFF73BFF022202A92846FFF736FFDE
:102CF000042202A92846FFF731FF042202A9284630
:102D0000FFF72CFF02A92846FFF760FF02A809F091
:102D100097FC0130A4EB4004B8FA88F8032C4FEA82
:102D200058180BD9264601AF043E042239462846DE
:102D3000FFF714FF032EF7D804F0030401AF34B1FA
:102D4000012239462846FFF709FF013CF8D12868DF
:102D5000046802AB42464946646AA04743B0BDE8F6
:102D6000F08300BFF0B585B00C2201A90746FFF73C
:102D7000F5FEBDF80830022B05D0386803681B6BE0
:102D8000984705B0F0BD019D0C3DF6D000263846B1
:102D9000FFF798FE97E803004A8831F8084B03686C
:102DA000A41AAC4228BF2C46DB6A1144224698473D
:102DB00078684388028823449BB29A42A5EB0405B5
:102DC000438002D0002DE2D1D7E706F073FE7E608B
:102DD000002DDCD1D1E700BF2DE9F04306468BB0D2
:102DE000052006F08DFE002831D0C1698368C289B4
:102DF000049181690391416902910169019181897D
:102E000000910446B349B44807F0E0FD23880B2B3A
:102E100026D9A2890C25012A258025D04FF40052FD
:102E2000A368A569E069164600270321A181E68110
:102E30006761049003950297206901900091A6486C
:102E4000A44907F0C3FD2146042006F011FF062027
:102E500006F056FE08B106F02DFE0BB0BDE8F0837B
:102E6000204606F027FEF2E7E18941F20C03994281
:102E700000F0598143D941F21903994200F065816C
:102E80005ED949F60203994200F0C08100F2EB805E
:102E900041F21A03994200F0BD8049F601039942BC
:102EA00040F0B88067690123002539463372304607
:102EB000F560FFF7F9F8F36835720C330222ADF8CC
:102EC00020200793E389ADF822302369099307A9ED
:102ED00030460C22FEF76CFD39463046FFF7E4F829
:102EE0003046FEF759FD7168042006F0C1FE75609A
:102EF00042F20102A368A569E069164695E741F22E
:102F00000503994200F0318153D941F208039942F7
:102F100000F0C38000F28B8041F20603994200F07A
:102F20005C8141F20703994274D1A569002D00F03C
:102F3000E28142F214021646A368E069002774E7B2
:102F400041F21003994265D067D941F214039942C6
:102F500000F0C48041F2150399425BD100220123A5
:102F60003372F26062694DF202439A4200F0F681D8
:102F70000C23002102223172ADF820200793E3894F
:102F8000ADF82230236909930C2207A93046FEF7D9
:102F90000FFD62694DF202439A4200F0DA81304639
:102FA000FEF7FAFC00277168042006F061FE7760E6
:102FB0009EE741F20303994200F2F48041F20203DA
:102FC000994231D241F20103994223D101230027D2
:102FD00033723046F760FEF7CFFDF36837720C337B
:102FE0000222ADF820200793E389ADF8223023694F
:102FF000099330460C2207A9FEF7DAFC3046FEF7AB
:10300000BBFD3046FEF7C8FC7168042006F030FEB8
:1030100077606DE742F2050202E741F20D03994243
:10302000F8D13046FFF79EFE42F20102F8E641F287
:103030000903994200F0188141F20B039942E9D14A
:10304000A569002D7FF475AF3068616903685B6B1B
:1030500098470028E8D142F2120207461646A368B4
:10306000A569E069E1E649F60303994200F01A8197
:1030700049F604039942CDD1A56967693046FFF747
:1030800021FD4DF607439D4200F06F8142F205029B
:103090001646A368A569E069C7E600273272F760A3
:1030A00061693046FEF7DAFEF36837720C330222AC
:1030B000ADF820200793E389ADF822302369099306
:1030C00007A930462A46FEF773FC61693046FEF7D1
:1030D000C5FE96E74CFC00008C09FF1F012300226F
:1030E0003372F26061694DF20243994200F0FD8053
:1030F0000C23002102223172ADF820200793E389CE
:10310000ADF822302369099307A90C223046FEF757
:103110004FFC61694DF2024399427FF440AF304663
:10312000FEF7CCFC3BE73046A2696169FFF786FDFC
:103130006769E0611823002F42F2010208BF0127EE
:103140002380A3601646A5696FE63068E2690368CC
:1031500061695B6C984742F201022580A5602B46AD
:103160001646A569E06900275FE600273272F7601E
:1031700061693046FFF79CF8F36837720C3302221E
:10318000ADF820200793E389ADF822302369099335
:1031900007A930462A46FEF70BFC61693046FFF767
:1031A00087F82EE7002732723046F760FEF7EEFD13
:1031B000F36837720C330222ADF820200793E389BD
:1031C000ADF822302369099330462A4607A9FEF755
:1031D000EFFB3046FEF7DAFD13E7A569002D7FF41B
:1031E000A8AE3068E16903685B69984700E0013583
:1031F000306803689B6998470028F8D142F20102C1
:103200002F461646A368A569E0690EE66769D4F8FB
:10321000189032724FF0000839464A463046C6F8D8
:103220000C80FFF7DBF8F36886F808800C33022285
:10323000ADF820200793E389ADF822302369099384
:103240002A4607A93046FEF7B3FB4A4639463046C0
:10325000FFF7C4F83046FEF79FFB7168042006F0C4
:1032600007FDC6F8048043E6002701233372F760A8
:1032700061693046FFF734FCF36837720C33022281
:10328000ADF820200793E389ADF822302369099334
:1032900007A930460C22FEF78BFB61693046FFF729
:1032A0001FFCAEE66769D4F8188000250123394673
:1032B000424633723046F560FEF72CFFF3683572F4
:1032C0000C330222ADF820200793E389ADF82230B9
:1032D0002369099307A930460C22FEF769FB424691
:1032E00039463046FEF716FFFAE53046FEF7E6FBB4
:1032F000F3680C33FDE60123F56033723046E26972
:103300006169FEF763FDF36835720C330222ADF894
:1033100020200793E389ADF82230236909933046D2
:103320000C2207A9FEF744FBE26961693046FEF70B
:103330004DFD3046FEF730FB7168042006F098FC26
:10334000756042F20102A368A569E069164600278C
:103350006BE50C493046FEF75DFB20E60949304637
:10336000FEF758FBF3680C3303E630463946FFF7A7
:103370004FFC00283FF474AD86B2A368A569E069EC
:10338000324652E518FC00002DE9F0410468E5687A
:1033900015F0807F794D256052D1DF0740F1B38071
:1033A000002900F0E3800D78012B18BF45F000459F
:1033B0006563013190F82C8003F1FF3C48EA08284E
:1033C000BCF1000F00F0A88021B14D7811F8028BFC
:1033D00045EA082845682E7ABCF1020F06F1FF364F
:1033E0004FEA06360CBF48F0805548F01045B6B29B
:1033F0006563ACF1020C08E00AB114700132013BC4
:1034000005F47045B54216D90468E56A15F0F00F69
:10341000F6D0A46B13F0010F17464FEA242EEBD120
:103420001AB107F802EB54703A4605F47045B542FC
:10343000A3F10203E8D8BCF1000F6DD00468C3E724
:10344000DD074CD5002900F089800D78012B18BFCD
:1034500045F000456563013103F1FF3E90F82CC053
:10346000BEF1000F41D029B191F801C00D780231B1
:1034700045EA0C2C45682E7ABEF1020F06F1FF36A4
:103480004FEA06360CBF4CF080554CF01045B6B2F2
:103490006563AEF1020E08E00AB114700132013B1F
:1034A00005F47045B54215D90468E56A15F0F00FCA
:1034B000F6D013F0010F1746A46BEDD122B107F837
:1034C000024B241254703A4605F47045B542A3F1FC
:1034D0000203E9D8BEF1000F07D00468C3E79E4697
:1034E00090F82CC0BEF1000FBDD11BB30468E16A97
:1034F00011F0F00FFBD0A16BDC071DD50AB11170E4
:103500000132013BF1E790F82C809C4648EA0828FC
:10351000BCF1000F7FF458AF63B10468E16A11F0A9
:10352000F00FFBD0DE07A16B0FD50AB1117001328D
:10353000013BF1E7BDE8F0812AB114460D1204F811
:10354000021B55702246023BCFE72AB114460D12EA
:1035500004F8025B51702246023BDDE790F82C50E4
:10356000012B18BF45F00045656375E790F82C50B6
:10357000012B18BF45F0004565631BE700041F8061
:103580000BB1FFF701BF7047644A654B2DE9F04F5F
:10359000644EDFF8A0A1644CDFF89091A2FB0052CA
:1035A0004FEA124C0CF10407A3FB0025A6FB0062B6
:1035B000A7FB0AAB6D09D20AA3FB0563A4FB026457
:1035C000CBEB07060BEB56065B09B6082409C6EBE6
:1035D000C606C3EB031304EB4404A5EB8303BE1B35
:1035E000C5EB0515A2EBC402A0EB85000136002453
:1035F0008A7008704B70CE70224640F26D1B4FF0FF
:1036000064084FF4C87A0EE0C6EBE5150AFB1535E1
:1036100070BB002D14BF58464FF4B7700244944558
:1036200004F1010413D3E7B207F2B27389FB030577
:10363000DE17C6EB651013F0030E08FB1030E3D065
:1036400040F26D100244944504F10104EBD28F71F5
:10365000BEF1000F0FD13548DE1780FB0340C6EBEB
:103660006014642505FB1434BCB34FF4B77405E053
:103670004FF4B770D2E740F26D14DE172B482C4D93
:1036800080FB0370C6EB6018121BC6EBE0166424C7
:103690004FF4C87000FB163604FB1838C2EB0C025E
:1036A0000120002302E00130C0B20133012BDFB260
:1036B00020D05C5D944209D80C28A2EB0402F2D120
:1036C0000D2701320A714F71BDE8F08F0137FFB24B
:1036D00001320A714F71BDE8F08F4FF4C874C6EB28
:1036E000E01004FB1030002840F26D1408BF4FF4C6
:1036F000B774C3E7BEF1000F0AD1B8F1000F0BD1C8
:10370000002E14BF1C241D24A24203D3121BCAE79F
:103710001C24F9E70227D4E71D24F5E707452EC24C
:1037200089888888C5B3A291ABAAAAAA1F85EB5144
:1037300064FC00002549922410B503490446FFF7B4
:1037400023FF024B1C6010BDC414FF1FC014FF1FD9
:10375000F0B5204C204E23683268204D83B0286895
:103760000093009B9B1AB3F57A7F0FD3013000E0E2
:10377000084623680093009B02F57A729B1AB3F502
:103780007A7F00F10101F3D228603260144F3B6868
:1037900098420FD3134B1B6863B19847124B58B92B
:1037A00012491A680B7828680033024418BF0123B5
:1037B0003A600B7003B0F0BD226801921B680B4A9F
:1037C000019C28600344022134603B60117003B007
:1037D000F0BD00BFF019FF1FD814FF1FCC14FF1F4E
:1037E000DC14FF1FD414FF1F7809FF1FD014FF1F24
:1037F00008B5FFF7ADFF044B1B68984201D0FFF7F7
:103800009BFF024B987808BDC014FF1FC414FF1F14
:1038100008B5FFF79DFF044B1B68984201D0FFF7E6
:103820008BFF024B587808BDC014FF1FC414FF1F44
:1038300008B5FFF78DFF044B1B68984201D0FFF7D6
:103840007BFF024B187808BDC014FF1FC414FF1F74
:1038500008B5FFF77DFF044B1B68984201D0FFF7C6
:103860006BFF024B187908BDC014FF1FC414FF1F63
:1038700008B5FFF76DFF044B1B68984201D0FFF7B6
:103880005BFF024B587908BDC014FF1FC414FF1F13
:1038900008B5FFF75DFF054B1B68984201D0FFF7A5
:1038A0004BFF034B987900F2B27008BDC014FF1FA4
:1038B000C414FF1F4FF0FF30704700BF704700BFB8
:1038C000F0B40E4B0E480F4F0F4EC3F8880400247F
:1038D000282583F8A75483F8904483F8AA44C3F8B2
:1038E0009474C3F89C64C3F87844C3F87C44074AD2
:1038F00007491846F0BC07F0A1B900BFE014FF1F4C
:10390000D4FD00007CFD0000011001387009FF1F8C
:10391000BD38000038B50A2105460A480A4C05F0B2
:10392000AFFD0D21094805F0ABFD2E2005F02CFE62
:103930002946204607F098F82046BDE8384007F0B1
:103940002DB800BF70FC00008C09FF1F7CFC00003C
:1039500010B5044601F09CFA002384F8313084F855
:10396000333010BD2DE9F04300F124038146884631
:10397000154693E8070085B099F8313001AE86E826
:103980000700002B3AD099F83030012B47D9012796
:103990000024012F0CBF402220223146D9F82000FC
:1039A00000F02AFF012836D100223146D9F8200044
:1039B00000F0E2FE58B30378C12B28D100F11E01BC
:1039C00008EB040223460134AC4210D230F8023F27
:1039D0007E2B94BFDBB23F23884202F8013B234693
:1039E000F1D1013799F83020FFB2BA42D1D8002284
:1039F000184608F8032005B0BDE8F0835120FFF712
:103A000089FF002088F8000005B0BDE8F0835C2045
:103A1000FFF780FFF5E75620FFF77CFFF1E7002373
:103A2000E5E700BF38B50D4690F8311059B90446A6
:103A3000382208F023FB4023012084F8313084F839
:103A40003300256238BD4FF4DE70FFF763FF0020BE
:103A500038BD00BFF0B50878202803D111F8010F58
:103A60002028FBD051600878002851D02F282BD077
:103A70005C2820D0A0F12204E4B21D2C1DD9DFF86F
:103A800094E04E1C00247C28A0F12005374612D07B
:103A90005E2D10D816F8010BA0F12205EDB201340D
:103AA00078B32F2811D05C282EFA05F703D01D2DEE
:103AB000E9D8FD07E7D50020F0BD164D25FA04F43E
:103AC000E607DCD50020F0BD00240F193E46254650
:103AD0002F2002E016F8010F01352028FAD02F28F8
:103AE000F8D02944196044B1394611F8013D2E2B14
:103AF00001D0202B08D1013CF7D1204610600120D5
:103B0000F0BD1F600F19EFE7FF2CF6DD0020F0BDC0
:103B10001960F3E7010100352DE9F04F90F83330DB
:103B2000DD0783B0044640F1E48058060D46164692
:103B300040F1A380D4E90001D4E9042310EB060886
:103B400041F100094B4508BF4245C0F09C80002E62
:103B500000F09B80A146F9E80623B0464FE01343EE
:103B60006CD194F831305A064CBFD0F82C14E1696E
:103B7000A16190F83DC4D0F8242402397F0A01FAEB
:103B80000CFEB9187144BAF1000F42D1B8F5007FAC
:103B90003FD3D0F8142291423BD0B8F5806F54D374
:103BA000012303FA0CFCC7EB0C074FEA58239F4292
:103BB00028BF1F4691424FEA472B0BD87B189342F0
:103BC00008D900F50370019100F088FC002877D037
:103BD000206A0199D0F8380402683B46D7682A4623
:103BE000B847002867D058460021D4E900231218AE
:103BF0004B41B8EB0B085D44C4E9002345D0206A73
:103C0000D0F830741740C7F3080A002FA7D0A16975
:103C1000AFE700F50370002200F01AFC00283BD04B
:103C2000CAF5007BC34528BFC34600EB0A015A46CC
:103C3000284605F025FB58460021D6E794F8333096
:103C40005B060FD5A169013192E7D0F8380403680B
:103C50002A469B689847C0B34FF4007000214FF488
:103C6000007BC2E74A46A16900F0A0FD40B20028EF
:103C700030DB34D0206AA1697BE794F83130190732
:103C80003FF558AF63E7161A61E74FF00008C8EB3D
:103C9000060003B0BDE8F08F40F25720FFF73AFE70
:103CA00094F832304FF0FF3043F0020384F83230A2
:103CB00003B0BDE8F08F4FF41C70FFF72BFEEFE769
:103CC00040F26B20FFF726FEEAE74FF41E70FFF785
:103CD00021FEE5E740F23F20FFF71CFEE0E794F805
:103CE000313013F0500FD2D140F24720FFF712FECF
:103CF000D6E740F22B20FFF70DFED1E7F0B583B0F9
:103D000001220DF107010446D0E900678569FFF73C
:103D100003FF012808BF9DF80700A56118BF4FF0F9
:103D2000FF30C4E9006703B0F0BD00BF2DE9F04FDC
:103D300090F831C0856983B00446BCF1000F6AD0A9
:103D4000D0E90001994208BF904216461F466FD045
:103D500056EA070307D10023A3610120C4E90067E5
:103D600003B0BDE8F08F1CF0080F05D0D4E90423A0
:103D7000BB4208BFB2425FD3236A019393F83DE48C
:103D800094F833A00EF1090E5FFA8EFE16F1FF32A1
:103D900047F1FF33CEF1200803FA08FB22FA0EF2B6
:103DA00042EA0B02AEF1200B23FA0BF31AF0400F9C
:103DB00042EA030238D110F1FF3941F1FF3A29FA02
:103DC0000EFE0AFA08F84EEA080E2AFA0BFB4EEA33
:103DD0000B0E7245534602D350EA010331D11CF059
:103DE000400F16BF019BE369D3F82C34A3619046C2
:103DF00004F118094A46B8F1000FAED0A169206A53
:103E000000F0D4FC08F1FF380028F3D14FF42F70F4
:103E1000FFF780FD03E040F29920FFF77BFD0020D3
:103E2000A56103B0BDE8F08FE3691A44A26194E78D
:103E3000012003B0BDE8F08F40F2A720FFF76AFD34
:103E4000EDE7CEEB0202D2E72DE9F04F0D4693B03D
:103E500090F831100092064629B99B4695F831300A
:103E600013F0500F0AD1CE20FFF754FD002086F842
:103E7000310086F8330013B0BDE8F08F1C9B03F0CF
:103E80000303012B00F00E81022B06D0002B00F063
:103E90000781DC20FFF73EFDE8E703231C9A02F0D0
:103EA000080213430193009B002B00F001810022C4
:103EB0001846594600F092FD002202900023284641
:103EC000FFF734FFB14A0BF10E0382FB03121A44D1
:103ED000DB17C3EBE203DBB24FF0000903F1020A88
:103EE00003935FFA8AFA4C464F4620220AA92846D5
:103EF000FFF712FE00283ED0202840F0D5809DF824
:103F000028301A0667D4002C62D12A68A969079163
:103F1000203A08920134E4B26BB3C02B00F09280D7
:103F2000C12B63D0852BE0D138220021304608F028
:103F3000A5F89DF82C309DF8292086F83020D80669
:103F400003F0370258BF42F0080286F831202B6890
:103F5000296AAA697262203B3162B36295F83330F4
:103F6000C3F3801386F82C3020220AA92846FFF7D5
:103F7000D3FD0028C0D11C9B990540F18C80019B8A
:103F80009A0740F18880009B002B00F08480544504
:103F90000DD395E0202840F0F48024B92A68A9695F
:103FA0000791203A0892DCB2A24540F28980202293
:103FB0000AA92846FFF7B0FD631C0028EAD128466D
:103FC000AF6900F099FF002800F00981AF61EBE7CD
:103FD0005445A1D29EE7B9F1000F9ED1544538BF98
:103FE0000024852B81D14FF001099DE7C7EB0B0819
:103FF0005FFA88F8B8F10F0F28BF4FF00F0843465B
:104000003A4600990AA800F007FD00283AD0474434
:10401000FFB2BB457FF469AF1C9B1B054BD41C9BB7
:1040200013F4884F40F0B48096F833309F0700F1C6
:10403000AF801C9B5B0540F1CD804FF4A770FFF76C
:1040400069FC13E79DF82930019A86F83320990717
:1040500003D542F0400386F83330DDE90C23DDE977
:104060001001C6E904230F9BF361009BC6E902011E
:10407000002BD1D09DF82B305B4505D04FF00009C7
:104080004F4632E7814630E7BDF82C30029A934222
:10409000F4D1002729E740F26310FFF73BFCE5E687
:1040A0000123FBE60223F9E6EC20FFF733FCDDE613
:1040B000009B029306E74FF4A070FFF72BFCD5E6B8
:1040C00095F833303822C3F38013002130460DF1C8
:1040D0001C088DF8243007F0D1FF039C2B6ACDF823
:1040E0000CB098E8070004F10109082486F8314073
:1040F0000BF11E0706F12404DDF800B033625FFA0D
:1041000089F984E80700FFB20025184601224146DC
:1041100000F032FB0446002857D090F90030002B05
:1041200053DB2022002107F0A9FF002D00F087803B
:10413000012D74D0C5EB05130F2FA3F11E034FF013
:10414000C102394628BF0F21DBB2227051B10234BF
:1041500009B204EB41015B4413F8012B24F8022B54
:10416000A142F9D10135EDB2AA4542D920224146FA
:10417000306A00F041FB012836D10F3F306AFFB2B0
:10418000C4E74FF4B970FFF7C5FB6FE689888888EC
:1041900096F8313013F0110F12D11C9B5D0519D523
:1041A00096F833309C077FF548AF00220023304655
:1041B000FFF7BCFD68BB4FF4A970FFF7ABFB55E6FA
:1041C0004FF4A370FFF7A6FB50E64FF4C570FFF75E
:1041D000A1FB4BE61C9B58040FD401204BE640F298
:1041E0006B10FFF797FB41E64FF4C270FFF792FBAD
:1041F0003CE6304600F04CFE3DE6D6E9042330466E
:10420000FFF794FD0028E8D14FF4AB70FFF782FB75
:104210002CE6304601F024F80028CCD0DDE7C0239E
:104220002370019B032263F03F03627086F83330F2
:104230009DF80C30E370BDF80830A38092E7852329
:1042400023700C4B86F8309084F801901B68002B8B
:1042500088D00DF117020DF11A0106A898479DF8B4
:104260001710BDF81A20BDF818302175228163811E
:1042700078E700BF8C19FF1F2DE9F043064695B083
:1042800096F83140039200208DF849008DF84A00DD
:104290008DF84B00002C4DD1994691F8313013F038
:1042A000500F0D4646D013782F2B114633D04FF0C8
:1042B000000803AB04AA3046FFF7CCFB04460028F5
:1042C00040D0039B1B78002B43D09DF81030059AFB
:1042D000CDF8008029463046FFF7B6FD0446002899
:1042E00045D0344606AF06F1300E20686168A268FA
:1042F000E3683D460FC5103474452F46F5D120685C
:104300002860304600F0C4FD06AD86F8318086F89E
:1043100033800399CDE7013103910B782F2BFAD02D
:10432000296A5BB306A8FFF77DFB044658B30399DF
:1043300006ADBCE77D20FFF7EDFA0024204615B05E
:10434000BDE8F0838F20FFF7E5FA204615B0BDE801
:10435000F0839DF81030059ACDF80090294630463C
:10436000FFF772FD0446204615B0BDE8F0839620A5
:10437000FFF7D0FA204615B0BDE8F0833046FFF7CE
:1043800051FB0446DAE78820FFF7C4FAD6E700BFFE
:1043900019B101F58861FFF76FBF0846704700BF8C
:1043A00030B590F8313083B023B991F8315015F021
:1043B000500F05D1B020FFF7ADFA002003B030BD9B
:1043C000D1E90045002504F01F042C43F2D10092EE
:1043D0001A46FFF739FD03B030BD00BF38B50A21DA
:1043E00005460A480A4C05F04BF81221094805F029
:1043F00047F82E2005F0C8F82946204606F034FB81
:104400002046BDE8384006F0C9BA00BF70FC000085
:104410008C09FF1F8CFC000038B500F10C0204462B
:104420004068A16803689B699847054628B12378CE
:1044300023F001032370284638BD4020FFF7CEFF4C
:10444000284638BD00224FF0FF330270836070476A
:104450002DE9F0414468002C3AD083688B4206462F
:104460008846174610D00378DA0715D4BB071ED547
:1044700006F10C05002307F001071F43377028469B
:10448000C6F80880BDE8F08110F90C3B07F0010781
:104490001F433770BDE8F081FFF7BEFF04460028D8
:1044A000E4D12A20FFF79AFF2046BDE8F08170682A
:1044B000036806F10C059B682A4641469847044666
:1044C0000028D7D12F20FFF789FF2046BDE8F081D3
:1044D0002520FFF783FF2046BDE8F0810378DB0746
:1044E00001D401207047FFF797BF00BF2DE9F84FB7
:1044F000804691468B46002944D08F1ED8F8283438
:104500009F423BD207F00705012303FA05F5EDB200
:10451000C7F3C80A3E463C46D8F82414002201EBF3
:1045200014314046FFF794FFC0B110F80A100AE0BA
:104530004A452AD0A74210D0D8F82824944217D24E
:1045400013F0FF050CD001340D424FEA4503A4EBF4
:104550000602EDD0A7422646EED10120BDE8F88F35
:104560000AF1010ABAF5007F4FF00105DDD101E043
:10457000002634464FF0000A0125CDE70027BA4651
:104580000125C7E7D0F81874B8E7BBF1000F04D1D4
:10459000B9F1010F08BFC8F81864B01CBDE8F88F66
:1045A000F8B5044600234FF0FF3600F50377C0F856
:1045B00038144160C0F810121546384684F83C346F
:1045C000237084F80C32A660C4F814621A461946A7
:1045D000FFF73EFF042D34D8064690B385B9052277
:1045E0003249F01C08F09AF80746002858D196F88E
:1045F0006C30092B2AD07020FFF7F0FE3846F8BD4A
:104600006B1E00EB031393F8BE2112F07F0204D05F
:104610005F20FFF7E3FE0020F8BD93F8C231002BC6
:10462000F6D000EB05153846D5F8B6512946FFF708
:104630000FFF06460028D2D16520FFF7CFFE304697
:10464000F8BD5820FFF7CAFE0020F8BD336D2B449B
:10465000C4F81C34736DC4F82034B36D1D44C4F821
:104660002454F36DC4F82834336EC4F82C3496F80F
:104670006D3084F83D340126093306FA03F35A1EDF
:10468000C4F818040146C4F83434C4F83024204671
:104690003246FFF72BFF402384F83C343046F8BD08
:1046A0006B20FFF79BFE0020F8BD00BFA0FC0000C0
:1046B0002DE9F84F02398146D0F8280415468A18AA
:1046C00082424DD89A46D9F81834BAF1000F34D145
:1046D000994238BFC9F8181401F007040122D9F82B
:1046E000243402FA04F4E4B203EB1138C1F3C80B2A
:1046F0000122414648469044FFF7AAFE0646A8B369
:1047000000EB0B0700F5007317F8012B224214BFD2
:1047100001260026564582EA04024FEA440416D0D8
:10472000013D07F8012C18D014F0FF04EED1BB4274
:10473000A3464FF00104E7D1DAE79942CCD89A4278
:10474000CAD9824228BF0022C9F81824C4E7D82059
:10475000FFF744FE0020BDE8F88F0120BDE8F88F88
:10476000BF20FFF73BFE0020BDE8F88FD220FFF707
:1047700035FE3046BDE8F88FF8B50E4696E82800BD
:10478000D0F83014D0F8244490F83D742940023B0E
:1047900004EB5121BB40194400F50370FFF758FEAC
:1047A00018B17368C3F308031844F8BD38B5D0F8DE
:1047B000283401338B4205D24FF48A70FFF70EFE86
:1047C000FF2038BD0C46D0F81C14154600F50370C8
:1047D00001EBD4110022FFF73BFE40B1A400C4F36B
:1047E000080403595A1C04D02B60012038BDFF2057
:1047F00038BD002038BD00BF70B50D464968D0F8FF
:10480000303406468818686096F83D440B400934F9
:104810001A44E4B222FA04F43CB12B7A3BB12B687F
:1048200001332B60013C002CF7D1012070BD2A46DA
:1048300029683046FFF7BAFF40B20128F2D070BDB8
:10484000012970B505D9D0F82834013399420C46B6
:1048500005D94FF49570FFF7C1FD002070BDD0F869
:104860001C14154600F5037001EBD4110122FFF76B
:10487000EFFD064628B1A400C4F308040120355119
:1048800070BD4FF49870FFF7A9FD304670BD00BFB2
:104890002DE9F0430C4683B006468846214601AA1E
:1048A0003046FFF783FF002245B29542214630464D
:1048B00004F1010428DBFFF7C3FFC8EB04028146C3
:1048C0004146002350B3019FBC42304613D1002D16
:1048D000E4D12B46C8EB040241463046FFF7E8FE20
:1048E00028B94FF4A570FFF779FD4FF0000948464D
:1048F00003B0BDE8F083FFF7DBFE0028F1D0019C98
:10490000002DF4D0A046C9E740F24110FFF766FD44
:104910004FF00009484603B0BDE8F08340F245106F
:10492000FFF75CFD484603B0BDE8F0832DE9F8438E
:104930000024D0F82464804600F5037725463146EC
:10494000002238460136FFF783FD30B300F1FF3E09
:10495000D8F828C41EF8010FFF2805F5805913D098
:1049600048B10822012318424FEA430118BF01341D
:10497000013ACBB2F7D10835AC450AD94D45DED066
:104980001EF8010FFF28EBD10835AC4504F10804EF
:10499000F4D8C4EB0C00BDE8F883BDE8F88300BF91
:1049A00070B582B002AED0F82C1446F8041D05464E
:1049B000002403E004F1010408D00199324628469E
:1049C000FFF7F4FE40B20028F4DA002495F83D0425
:1049D0000930C0B204FA00F002B070BDC9B110B421
:1049E0000144D30343EA520310F8012BA2F16104FE
:1049F000192C9CBF203AD2B212FA83F292B2D3039E
:104A000043EA5202814292B2EBD110465DF8044B68
:104A100070471046704700BF43B370B444887E2C83
:104A20001ED81344CD180A44023012F8013BE4B2F8
:104A3000A3F161011929A4F1610194BF2026002688
:104A4000192994BF202100219B1B641ADBB2E4B218
:104A50009C4205D1AA4206D030F8024F7E2CE4D900
:104A6000002070BC7047012070BC70470120704767
:104A700038B50A2105460A480A4C04F001FD122106
:104A8000094804F0FDFC2E2004F07EFD2946204656
:104A900005F0EAFF2046BDE8384005F07FBF00BFC3
:104AA00070FC00008C09FF1FA8FC00008169F8B5AC
:104AB0000446006A01B101310122FFF717FD012808
:104AC000064641D9012301461A46206AFFF7F0FD48
:104AD000074600283ED0A06994F8333030B943F03F
:104AE000400384F83330A6613846F8BD5A0614D521
:104AF000421C9642F7D023F0400284F83320E36949
:104B000006E0206AFFF79CFE034640B3A0692B46EF
:104B10005D1C834219462A46F3D34FF0FF323146DB
:104B2000206AFFF78DFE0346F0B1A1690029DAD0B3
:104B30003246206AFFF784FE03460028D3D16E2058
:104B40001F46FFF795FFCFE74D200027FFF790FFA7
:104B50003846F8BD5120FFF78BFF3846F8BD61207D
:104B60001F46FFF785FFBFE768201F46FFF780FF5E
:104B7000BAE700BF2DE9F04300F12403054693E8AE
:104B8000070095F8337085B001AE07F0020486E89F
:104B90000700002C6CD0E96921BB002401223146BA
:104BA000286AFFF7E9FD01340346E4B2002856D035
:104BB0001A7802F07F021A7095F83030A34236D38B
:104BC000002CEBD020223146286AFFF715FE012881
:104BD000E4D040F21F10FFF74BFF0024204605B041
:104BE000BDE8F0837B06286A4DD5D5E9022390F80D
:104BF0003D440934E4B212F1FF3843F1FF39C4F106
:104C0000200728FA04F2A4F1200309FA07F729FA89
:104C100003F33A431A4301320023FFF749FD0446E8
:104C20000028BAD14FF48970FFF722FFD6E72C6A2B
:104C30000023204685F8313085F83330FFF74EFCED
:104C40000028CAD004F50370FFF748FC0028C4D040
:104C5000D4F8380403685B6998470446BEE74FF40C
:104C600092701C46FFF704FF204605B0BDE8F083B4
:104C700004F0FF034FF485701C46FFF7F9FE204651
:104C800005B0BDE8F083FFF703FE0446002884D199
:104C900040F21710FFF7ECFEA0E700BF30B590F828
:104CA000313003F0100389B00BB300220023044617
:104CB000FFF73CF806E0202822D19DF800301A06C4
:104CC0001ED433B1202269462046FEF725FF002876
:104CD000F1D194F83330082243F0020384F83330E2
:104CE00084F831202046FFF745FF09B030BD4FF46E
:104CF000B17003F0FF05FFF7BBFE284609B030BDD9
:104D00004FF4B770FFF7B4FE002009B030BD00BF0C
:104D10002DE9F04F00F1240B06469BE8070087B011
:104D20000DF10C0888E807000027BA463C4600222F
:104D30004146306AFFF720FD5FFA87F905460028F3
:104D40007BD00278C02A35D0C12A0FD0852A4FD017
:104D50004FF4E270FFF78CFE96F8323043F0010317
:104D600086F83230002007B0BDE8F08F10460021F1
:104D70006A5CE30343EA540412FA84F40129A4B2FE
:104D800001F1010111D01F29F2D9CA455AD02022C0
:104D90004146306AFFF730FD012807F10107C6D010
:104DA00040F2CB10FFF764FED6E785280CBF042144
:104DB0000221DDE796F8333013F0400F437814BF3B
:104DC00043F0020323F002034370D6E90423C0E951
:104DD0000223D6E90223F1694161C0E90623326A60
:104DE00092F80C3243F0010382F80C320078BEE7EF
:104DF000264B96F831101B6890F801A001F037019E
:104E00008180002BB2D0316A91F80C2242F001026D
:104E100081F80C2202A80DF107020DF10A01984752
:104E2000BDF80A20BDF808309DF807106975AA8101
:104E30002A82EB816B82287899E74FF4CF70FFF7D5
:104E400017FE89E759460122306AFFF795FC50B1F9
:104E5000356A44802846FFF741FB48B940F2D71035
:104E6000FFF706FE78E74FF4E970FFF701FE73E7FE
:104E700005F50370FFF732FB0028EFD0D5F83804B2
:104E800003685B6998470028E8D06CE78C19FF1F1E
:104E900090F83120B2B138B590F83320110613D410
:104EA000056A04462846FFF719FBA8B94FF4C470F9
:104EB000FFF7DEFD94F8323043F0010384F832301E
:104EC000002038BD0120704702F07F0280F83320B7
:104ED000BDE83840FFF71CBF05F50370FFF7FEFA89
:104EE0000028E3D0D5F8380403685B6998470028A8
:104EF000DCD0012038BD00BF2DE9F04190F8313001
:104F00005906804656D48068D8F82030D3F8343417
:104F10001844B0F1806F47D24046FFF7C7FD002824
:104F20003CD0D8F8205095F80C32DA0705F5037418
:104F300063D4204605F50675FFF784FA4FF4007236
:104F40000021284607F09AF8D8F82020D8F8183021
:104F500092F83D14D2F82474023B8B4001261F4482
:104F600016FA01F318BF002408D127E0D8F8202052
:104F700092F83D3406FA03F3A3421FD9D2F838045D
:104F8000036839199B692A46984701340028EDD1F6
:104F90009120FFF76DFD0020BDE8F0818520FFF72F
:104FA00067FD0020BDE8F0818120FFF761FD002052
:104FB000BDE8F081006AFFF7F3FCA5E798F831300F
:104FC0005B0615D498F8333063F07F0388F83330EC
:104FD000D2F83444D8E90223D8E9040112194FF079
:104FE00000056B4100196941C8E90223C8E90401C1
:104FF0004046BDE8F041FFF74BBF2046FFF76EFA91
:10500000002896D18A20FFF733FDCAE730B591F822
:10501000313013F0500F83B025D040F602251378BD
:10502000526800950446FEF70FFFB0B1102384F8D4
:1050300031302046FFF760FFD8B1A369E361002259
:1050400000232046FEF772FEC123204684F8333049
:1050500003B0BDE83040FFF71BBFD120FFF708FDCC
:10506000002003B030BDCC20FFF702FD002003B0CC
:1050700030BDDA20FFF7FCFC002003B030BD00BFDC
:105080002DE9F043064695B096F831400392002092
:105090008DF849008DF84A008DF84B00002C3CD16A
:1050A000994691F8313013F0500F0D4635D01378F2
:1050B0002F2B114622D04FF0000803AB04AA304634
:1050C000FEF7C8FC044600284CD0039B1B78002B3D
:1050D0004FD09DF81030059ACDF800802946304613
:1050E000FEF7B2FE044638BBB9F1000F1DD1BC205B
:1050F000FFF7BEFC204615B0BDE8F08301310391F7
:105100000B782F2BFAD0296A06A8FEF78BFC0446F1
:10511000002835D0039906ADCDE7A520FFF7A8FC00
:105120000024204615B0BDE8F083294604AA304685
:10513000FFF76CFF0028DAD0344606AF06F1300ED8
:1051400020686168A268E3683D460FC51034744565
:105150002F46F5D1206828603046FEF7F9FB06ADF2
:105160000399AAE7B420FFF783FC204615B0BDE8F9
:10517000F08304AA29463046FFF748FF0446B9E702
:10518000AD20FFF775FCB5E7F0B590F831409DB064
:10519000002314F018048DF831308DF832308DF87A
:1051A00033308DF869308DF86A308DF86B3006D168
:1051B00040F23F10FFF75CFC20461DB0F0BD0546F5
:1051C000086A2C6A844207D04FF4A2701C46FFF78D
:1051D0004FFC20461DB0F0BD40F601236846FFF7A6
:1051E0004BF8044690B30EAF2C4605F1300E206804
:1051F0006168A268E3683E460FC6103474453746BE
:10520000F5D12068306009AB93E8070005F124036D
:1052100083E8070095F833309DF8302085F830207A
:1052200063F07F0385F833302846FFF731FE0446EC
:1052300088B10021022208230EA815918DF86B2059
:105240008DF86930FFF796FC0446B5E74FF4A4707B
:10525000FFF70EFCB0E74FF4A870FFF709FCABE7CF
:10526000F0B590F8333003F0020283B0002A54D036
:10527000C169044681B303F0400303F0FF057BB32B
:10528000006AA56990F83D34D4E902670933DBB2BE
:1052900016F1FF36C3F1200E47F1FF3726FA03F26D
:1052A00007FA0EFE203B42EA0E0227FA03F31A43E6
:1052B0000132002D3AD00139491B01350A440195CC
:1052C000C2B100230199FFF7F3F9054690B940F206
:1052D0005720FFF7CDFB00E00125284603B0F0BDC5
:1052E000836933BB0191C361206AFFF7D1FA054698
:1052F00000283BD0D4E9000194F8333063F07F03F9
:10530000C4E90201C4E9040184F833302046FFF700
:10531000BFFD0546284603B0F0BD40F2472002F02D
:10532000FF05FFF7A5FB284603B0F0BD0191E5613D
:10533000C6E702AA194642F8045D006AFFF736FA8A
:1053400040B2002817DB03D101990029D2D0CBE766
:105350004FF0FF32A169206AFFF772FA0546002874
:10536000F2D140F26620FFF783FBB6E74FF41C70E2
:10537000FFF77EFBB1E74FF41870FFF779FBACE75E
:105380002DE9F04F90F8333085B09C070646019226
:1053900040F123811A078A4600F13681019B002BD8
:1053A00000F059813146F1E80623DDF804800391CD
:1053B0009346306AB569D0F830445B461C40C4F36C
:1053C000080954BB002D00F0D18096F833305B06FD
:1053D00040F1E580D6E9022390F83D740937FFB229
:1053E00012F1FF3243F1FF33C7F1200E03FA0EFE34
:1053F00022FA07F1203F23FA07F741EA0E01F36989
:1054000039430B449D42C0F0C7803046FFF74EFB46
:10541000002800F01681306AB569D0F8247490F83D
:105420003DE4640A023DE11905FA0EF52944B9F19B
:10543000000F40F08980B8F5007F5AD2D6E90423E6
:10544000D6E90045B8F5007F474628BF4FF40077FE
:105450009D4208BF944234BF0122032200F503702D
:10546000FEF7F6FF00287CD048443A465146B9443E
:1054700003F006FFB9F5007F00F0A2803846002156
:10548000D6E90023D6E9044512EB000B43EB010CEF
:1054900065455A46634608BF5C45BA44C7EB0808F1
:1054A000C6E9002309D296F8331064465B46C6E984
:1054B000043461F07F0186F83310B8F1000F7FF4F7
:1054C00078AF5A466346D6E90201994208BF904236
:1054D000C0F0A680614B1B68002B00F0B08096F8EE
:1054E0003330019863F07F0386F8333005B0BDE8B0
:1054F000F08FB8F5806F3DD3012303FA0EFEC4EBA5
:105500000E0ED0F814324FEA5824744528BF744662
:1055100099424FEA442709D862189A4206D900F501
:1055200003700291FEF78EFF306A0299D0F83804BA
:10553000056823465246EC69A04700289ED140F2F8
:10554000F620FFF795FA4CE0C9F5007747454FF094
:10555000010200F5037028BF4746FEF779FF0028D7
:1055600082D14FF43670FFF783FA3AE0F569F5B16E
:10557000B56152E7D0F8143299423DD0D0F83804E2
:10558000036852469B699847002853D04FF4007037
:1055900000214FF4007773E70135B5613DE72946F7
:1055A000039AFFF703F900287FF435AF2DE7304663
:1055B000FFF77CFA002849D0B569F561306A2CE71D
:1055C000306A00F50370FEF789FF00287FF456AFBC
:1055D0004FF43870FFF74CFA03E04FF42370FFF7F5
:1055E00047FA96F8323043F0010386F832304FF034
:1055F000FF3005B0BDE8F08F00F503700291FEF7B3
:1056000021FF306A0299B9E7D0E90423FEF78EFB47
:1056100000287FF4C3AE40F29220FFF729FAE0E7BA
:1056200096F83310019861F07F01C6E9022386F8ED
:105630003310DEE740F20130FFF71AFAD1E70198A4
:10564000D7E740F2B120FFF713FACAE740F2B920DA
:10565000FFF70EFAC5E7D6E9002334E78C19FF1FE0
:1056600038B50A2105460A480A4C03F009FF0B2108
:10567000094803F005FF2E2003F086FF2946204647
:1056800005F0F2F92046BDE8384005F087B900BFC3
:1056900070FC00008C09FF1FBCFC0000024670B5C6
:1056A00052F8105F04462946806801F00FF906465B
:1056B00080B15DB123690135AB42A37818BF03F017
:1056C000BF0363F07F03A370304670BDA37843F03F
:1056D0004003F6E72320FFF7C3FF304670BD00BF4D
:1056E0002DE9F041037803F02003002B41D103F0B2
:1056F000FF0442692E4B9A42054633D8FFF7CEFF8E
:10570000804600283DD02969A86801F049F806467E
:10571000A86831462830052200F0FCFF0746002823
:1057200041D04FF40072214606F0A8FCAB681A790C
:10573000012A2CD9012403E0AB681A79A24226D9A8
:1057400018680368A1199B693A46984701340346D3
:10575000E4B20028F0D198465320FFF781FF40467D
:10576000BDE8F0814220A046FFF77AFF4046BDE841
:10577000F0813D204FF00008FFF772FF4046BDE882
:10578000F0814620FFF76CFF4046BDE8F0819B7931
:1057900069694FF4007202FA03F311FA83F36B6143
:1057A0004046BDE8F0814C20B846FFF759FFDDE7E1
:1057B000FFFD1F0038B5054680680A462830A969F4
:1057C00000F0A8FF044628B1A88800F00F0004EB01
:1057D000401038BD6520FFF743FF204638BD00BFAD
:1057E00070B590F90230002B82B004461DDBA5682D
:1057F00005F1280000F0CCFF50B940F29F40FFF7C0
:105800002FFF637843F001036370002002B070BD86
:1058100005F50D7000F0BCFF0028EED02868036885
:105820005B6998470028E8D0F0E70121FFF7C2FF45
:10583000054600B30378E52B1DD02378104A1B07DB
:1058400044BFE369C361236A166843831B0C8382E8
:1058500066B10DF103020DF1060101A8B047BDF8D4
:105860000430BDF806202B836B82EA82A37803F014
:105870007F03A370BBE740F28640FFF7F1FEC0E76D
:105880008C19FF1F10B50378044623B90023237039
:10589000A370012010BDFFF7A3FF00232370A370A6
:1058A00010BD00BF70B50478ACB905460E46242281
:1058B000214606F0E3FBAE60F379102B06D0202BD7
:1058C0000FD1402301202B70A87070BD2023012030
:1058D0002B70A87070BD40F27F20FFF7C1FE002042
:1058E00070BD40F29220FFF7BBFE204670BD00BFA6
:1058F0002DE9F043064693B03478019200208DF8EC
:1059000024008DF825008DF82600002C44D19946FE
:105910000B7813F0700F0D463ED013782F2B1046E6
:105920002BD04FF0000805E0019886F8008086F83B
:10593000028009AD01AA03A901F05EFA03AA074695
:1059400029460023002830D0019C24783046002CC2
:1059500033D001F0FBFC3546074609AC002837D0B0
:105960000FCD0FC40FCD0FC433782A682260002BEF
:10597000DAD03046FFF734FFD6E7013001900378E4
:105980002F2BFAD0A9685BB309A8FFF78BFF074656
:1059900058B3019809ADC4E74FF4D170FFF760FE2A
:1059A0000027384613B0BDE8F0834FF4DA70FFF7F4
:1059B00057FE384613B0BDE8F0834B4603AA29468C
:1059C000304601F0C3FC0746384613B0BDE8F0830B
:1059D00040F2BB10FFF744FE384613B0BDE8F08339
:1059E0003046FFF75FFF0746DBE740F2AD10FFF7F9
:1059F00037FED6E719B101F58861FFF779BF084690
:105A0000704700BF2DE9F04F8378DF0783B005466C
:105A100040F1D4800F4601780E07914600F187804F
:105A20008C0608D5826843691289C3EB42139BB286
:105A3000994528BF9946B9F1000F00F09D806B6928
:105A4000AA6888064E464FF0000805F1100AC3F315
:105A5000080B3FD5116A01EB5321BBF1000F53D165
:105A6000B6F5007F50D3136B99424DD0B6F5806FD9
:105A700066D3287880064FEA562B05D41079C8EBF8
:105A80000000834528BF834699424FEA4B240CD837
:105A90005B44994209D202F12800019100F078FE9E
:105AA000002800F08180AA680199106802685B46AE
:105AB000D2F80CB03A46D847002870D06B69361B34
:105AC000234427446B6157D02978AA688806C3F31A
:105AD000080BBFD492F8058008EA5328BBF1000FE9
